{
    "contractName": "ExchangeManager",
    "abi": [
        {
            "inputs": [
                {
                    "internalType": "uint256",
                    "name": "_networkID",
                    "type": "uint256"
                }
            ],
            "stateMutability": "nonpayable",
            "type": "constructor"
        },
        {
            "anonymous": false,
            "inputs": [
                {
                    "indexed": true,
                    "internalType": "address",
                    "name": "previousOwner",
                    "type": "address"
                },
                {
                    "indexed": true,
                    "internalType": "address",
                    "name": "newOwner",
                    "type": "address"
                }
            ],
            "name": "OwnershipTransferred",
            "type": "event"
        },
        {
            "inputs": [
                {
                    "internalType": "address",
                    "name": "_from",
                    "type": "address"
                },
                {
                    "internalType": "address",
                    "name": "_to",
                    "type": "address"
                }
            ],
            "name": "assembleTokenEthPair",
            "outputs": [
                {
                    "internalType": "string",
                    "name": "",
                    "type": "string"
                }
            ],
            "stateMutability": "view",
            "type": "function"
        },
        {
            "inputs": [
                {
                    "internalType": "uint256",
                    "name": "_cost",
                    "type": "uint256"
                },
                {
                    "internalType": "address",
                    "name": "_vault",
                    "type": "address"
                }
            ],
            "name": "checkAvailiableFunds",
            "outputs": [
                {
                    "internalType": "bool",
                    "name": "_accept",
                    "type": "bool"
                },
                {
                    "internalType": "address",
                    "name": "_token",
                    "type": "address"
                },
                {
                    "internalType": "uint256[]",
                    "name": "_distribution",
                    "type": "uint256[]"
                }
            ],
            "stateMutability": "view",
            "type": "function"
        },
        {
            "inputs": [
                {
                    "internalType": "uint256",
                    "name": "_cost",
                    "type": "uint256"
                },
                {
                    "internalType": "address",
                    "name": "_vault",
                    "type": "address"
                }
            ],
            "name": "estimateFunds",
            "outputs": [
                {
                    "internalType": "bool",
                    "name": "_accept",
                    "type": "bool"
                },
                {
                    "internalType": "address",
                    "name": "_token",
                    "type": "address"
                }
            ],
            "stateMutability": "view",
            "type": "function"
        },
        {
            "inputs": [
                {
                    "internalType": "uint256",
                    "name": "_cost",
                    "type": "uint256"
                },
                {
                    "internalType": "address",
                    "name": "_vault",
                    "type": "address"
                },
                {
                    "internalType": "address",
                    "name": "_asset",
                    "type": "address"
                }
            ],
            "name": "estimateSpecificAssetFunds",
            "outputs": [
                {
                    "internalType": "bool",
                    "name": "_accept",
                    "type": "bool"
                }
            ],
            "stateMutability": "view",
            "type": "function"
        },
        {
            "inputs": [],
            "name": "get1InchAddress",
            "outputs": [],
            "stateMutability": "nonpayable",
            "type": "function"
        },
        {
            "inputs": [
                {
                    "internalType": "address",
                    "name": "_inputToken",
                    "type": "address"
                },
                {
                    "internalType": "uint256",
                    "name": "_outputValue",
                    "type": "uint256"
                },
                {
                    "internalType": "address",
                    "name": "_outputToken",
                    "type": "address"
                }
            ],
            "name": "getExchangePrice",
            "outputs": [
                {
                    "internalType": "uint256",
                    "name": "_inputValue",
                    "type": "uint256"
                },
                {
                    "internalType": "uint256[]",
                    "name": "_distribution",
                    "type": "uint256[]"
                }
            ],
            "stateMutability": "view",
            "type": "function"
        },
        {
            "inputs": [
                {
                    "internalType": "string",
                    "name": "_pair",
                    "type": "string"
                }
            ],
            "name": "getOracleAddress",
            "outputs": [
                {
                    "internalType": "address",
                    "name": "",
                    "type": "address"
                }
            ],
            "stateMutability": "view",
            "type": "function"
        },
        {
            "inputs": [
                {
                    "internalType": "address",
                    "name": "_from",
                    "type": "address"
                },
                {
                    "internalType": "address",
                    "name": "_to",
                    "type": "address"
                }
            ],
            "name": "getPrice",
            "outputs": [
                {
                    "internalType": "uint256",
                    "name": "_price",
                    "type": "uint256"
                },
                {
                    "internalType": "uint256",
                    "name": "_decimals",
                    "type": "uint256"
                }
            ],
            "stateMutability": "view",
            "type": "function"
        },
        {
            "inputs": [],
            "name": "owner",
            "outputs": [
                {
                    "internalType": "address",
                    "name": "",
                    "type": "address"
                }
            ],
            "stateMutability": "view",
            "type": "function"
        },
        {
            "inputs": [],
            "name": "renounceOwnership",
            "outputs": [],
            "stateMutability": "nonpayable",
            "type": "function"
        },
        {
            "inputs": [],
            "name": "retrieveETH",
            "outputs": [],
            "stateMutability": "nonpayable",
            "type": "function"
        },
        {
            "inputs": [
                {
                    "internalType": "address",
                    "name": "_oneSplit",
                    "type": "address"
                }
            ],
            "name": "setOneSplitAddress",
            "outputs": [],
            "stateMutability": "nonpayable",
            "type": "function"
        },
        {
            "inputs": [
                {
                    "internalType": "address",
                    "name": "_fromToken",
                    "type": "address"
                },
                {
                    "internalType": "address",
                    "name": "_destToken",
                    "type": "address"
                },
                {
                    "internalType": "uint256",
                    "name": "_amount",
                    "type": "uint256"
                },
                {
                    "internalType": "uint256",
                    "name": "_minReturn",
                    "type": "uint256"
                },
                {
                    "internalType": "uint256[]",
                    "name": "_distribution",
                    "type": "uint256[]"
                },
                {
                    "internalType": "uint256",
                    "name": "_flags",
                    "type": "uint256"
                }
            ],
            "name": "swap",
            "outputs": [
                {
                    "internalType": "uint256",
                    "name": "_returnAmount",
                    "type": "uint256"
                }
            ],
            "stateMutability": "payable",
            "type": "function"
        },
        {
            "inputs": [
                {
                    "internalType": "address",
                    "name": "newOwner",
                    "type": "address"
                }
            ],
            "name": "transferOwnership",
            "outputs": [],
            "stateMutability": "nonpayable",
            "type": "function"
        },
        {
            "inputs": [
                {
                    "internalType": "uint256",
                    "name": "_chainID",
                    "type": "uint256"
                }
            ],
            "name": "updateChainID",
            "outputs": [],
            "stateMutability": "nonpayable",
            "type": "function"
        },
        {
            "inputs": [
                {
                    "internalType": "uint256",
                    "name": "_estimateSlippage",
                    "type": "uint256"
                }
            ],
            "name": "updateEstimateSlippage",
            "outputs": [],
            "stateMutability": "nonpayable",
            "type": "function"
        },
        {
            "inputs": [
                {
                    "internalType": "uint256",
                    "name": "_newFlags",
                    "type": "uint256"
                }
            ],
            "name": "updateExchangeFlags",
            "outputs": [],
            "stateMutability": "nonpayable",
            "type": "function"
        },
        {
            "inputs": [
                {
                    "internalType": "uint256",
                    "name": "_newParts",
                    "type": "uint256"
                }
            ],
            "name": "updateExchangeParts",
            "outputs": [],
            "stateMutability": "nonpayable",
            "type": "function"
        },
        {
            "inputs": [
                {
                    "internalType": "uint256",
                    "name": "_fresh",
                    "type": "uint256"
                }
            ],
            "name": "updateFresh",
            "outputs": [],
            "stateMutability": "nonpayable",
            "type": "function"
        },
        {
            "inputs": [
                {
                    "internalType": "uint256",
                    "name": "_newIterations",
                    "type": "uint256"
                }
            ],
            "name": "updateIterations",
            "outputs": [],
            "stateMutability": "nonpayable",
            "type": "function"
        },
        {
            "inputs": [
                {
                    "internalType": "uint256",
                    "name": "_margin",
                    "type": "uint256"
                }
            ],
            "name": "updateMargin",
            "outputs": [],
            "stateMutability": "nonpayable",
            "type": "function"
        },
        {
            "inputs": [
                {
                    "internalType": "address payable",
                    "name": "_nameManager",
                    "type": "address"
                }
            ],
            "name": "updateNameManagerAddress",
            "outputs": [],
            "stateMutability": "nonpayable",
            "type": "function"
        },
        {
            "inputs": [
                {
                    "internalType": "uint256",
                    "name": "_newPercent",
                    "type": "uint256"
                }
            ],
            "name": "updatePercentageIncrease",
            "outputs": [],
            "stateMutability": "nonpayable",
            "type": "function"
        },
        {
            "inputs": [
                {
                    "internalType": "uint256",
                    "name": "_slippage",
                    "type": "uint256"
                }
            ],
            "name": "updateSlippage",
            "outputs": [],
            "stateMutability": "nonpayable",
            "type": "function"
        },
        {
            "stateMutability": "payable",
            "type": "receive"
        }
    ],
    "bytecode": "6080604052600180546001600160a01b031990811690915560028054821690556003805490911673bc86029dbc214939a3c5d383d0c245d5b75538c017905560001960085560146009556000600a556005600b556065600c55611c20600e556069600f819055605f6010556011553480156200007a57600080fd5b5060405162002ac538038062002ac58339810160408190526200009d9162000132565b6000620000a96200012e565b600080546001600160a01b0319166001600160a01b0383169081178255604051929350917f8be0079c531659141344cd1fd0a4f28419497f9722a3daafe3b4186f6b6457e0908290a350600d55600354600480546001600160a01b039283166001600160a01b031991821617909155600254600680549190931691161790556200014b565b3390565b60006020828403121562000144578081fd5b5051919050565b61296a806200015b6000396000f3fe60806040526004361061014f5760003560e01c8063a8faeaaf116100b6578063deca94571161006f578063deca9457146103cb578063e106273c146103eb578063e2a7515e1461041a578063e7c308fd1461043a578063f2fde38b1461045a578063fbbd312c1461047a57610156565b8063a8faeaaf14610305578063aa0e365614610325578063ac41865a14610345578063d3e6e3e914610373578063d5b014c3146103a1578063d5ce1362146103b657610156565b806372a107721161010857806372a1077214610228578063777647fb146102485780638b1f3f5a146102755780638cdc37fb146102a35780638da5cb5b146102c35780639c40dfe1146102e557610156565b8063138b89891461015b57806315b0d4961461017d5780632b3a59901461019d5780633ce6fd4b146101d35780635c860998146101f3578063715018a61461021357610156565b3661015657005b600080fd5b34801561016757600080fd5b5061017b6101763660046122ce565b61049a565b005b34801561018957600080fd5b5061017b6101983660046122ce565b6104f7565b3480156101a957600080fd5b506101bd6101b8366004612076565b610554565b6040516101ca919061270d565b60405180910390f35b3480156101df57600080fd5b5061017b6101ee3660046122ce565b6105df565b3480156101ff57600080fd5b5061017b61020e3660046122ce565b61063c565b34801561021f57600080fd5b5061017b610699565b34801561023457600080fd5b5061017b6102433660046122ce565b61073b565b34801561025457600080fd5b50610268610263366004612322565b610798565b6040516101ca91906126bd565b34801561028157600080fd5b506102956102903660046122fe565b610aa9565b6040516101ca9291906126c8565b3480156102af57600080fd5b5061017b6102be3660046122ce565b610d4b565b3480156102cf57600080fd5b506102d8610da8565b6040516101ca9190612598565b3480156102f157600080fd5b5061017b6103003660046122ce565b610db7565b34801561031157600080fd5b5061017b61032036600461203e565b610e14565b34801561033157600080fd5b506102d86103403660046121e7565b610e36565b34801561035157600080fd5b50610365610360366004612076565b611212565b6040516101ca929190612816565b34801561037f57600080fd5b5061039361038e366004612186565b61133a565b6040516101ca9291906127fd565b3480156103ad57600080fd5b5061017b61158a565b3480156103c257600080fd5b5061017b611611565b3480156103d757600080fd5b5061017b6103e63660046122ce565b6117b2565b3480156103f757600080fd5b5061040b6104063660046122fe565b61180f565b6040516101ca939291906126e1565b61042d6104283660046120ae565b611a0c565b6040516101ca91906127f4565b34801561044657600080fd5b5061017b61045536600461203e565b611b60565b34801561046657600080fd5b5061017b61047536600461203e565b611b82565b34801561048657600080fd5b5061017b6104953660046122ce565b611c7a565b6104a2611cd7565b6000546001600160a01b039081169116146104f2576040805162461bcd60e51b81526020600482018190526024820152600080516020612915833981519152604482015290519081900360640190fd5b600b55565b6104ff611cd7565b6000546001600160a01b0390811691161461054f576040805162461bcd60e51b81526020600482018190526024820152600080516020612915833981519152604482015290519081900360640190fd5b601055565b606080606061056a61056586611cdb565b611d61565b6001549092506001600160a01b03858116911614156105a357506040805180820190915260038152620cae8d60eb1b60208201526105b2565b6105af61056585611cdb565b90505b81816040516020016105c59291906124e6565b604051602081830303815290604052925050505b92915050565b6105e7611cd7565b6000546001600160a01b03908116911614610637576040805162461bcd60e51b81526020600482018190526024820152600080516020612915833981519152604482015290519081900360640190fd5b600e55565b610644611cd7565b6000546001600160a01b03908116911614610694576040805162461bcd60e51b81526020600482018190526024820152600080516020612915833981519152604482015290519081900360640190fd5b600955565b6106a1611cd7565b6000546001600160a01b039081169116146106f1576040805162461bcd60e51b81526020600482018190526024820152600080516020612915833981519152604482015290519081900360640190fd5b600080546040516001600160a01b03909116907f8be0079c531659141344cd1fd0a4f28419497f9722a3daafe3b4186f6b6457e0908390a3600080546001600160a01b0319169055565b610743611cd7565b6000546001600160a01b03908116911614610793576040805162461bcd60e51b81526020600482018190526024820152600080516020612915833981519152604482015290519081900360640190fd5b600a55565b600082815b816001600160a01b031663c5a83c2b6040518163ffffffff1660e01b815260040160206040518083038186803b1580156107d657600080fd5b505afa1580156107ea573d6000803e3d6000fd5b505050506040513d601f19601f8201168201806040525081019061080e91906122e6565b811015610a9b57836001600160a01b0316826001600160a01b031663cf35bdd0836040518263ffffffff1660e01b815260040161084b91906127f4565b60206040518083038186803b15801561086357600080fd5b505afa158015610877573d6000803e3d6000fd5b505050506040513d601f19601f8201168201806040525081019061089b919061205a565b6001600160a01b03161415610a935760008061093d846001600160a01b031663cf35bdd0856040518263ffffffff1660e01b81526004016108dc91906127f4565b60206040518083038186803b1580156108f457600080fd5b505afa158015610908573d6000803e3d6000fd5b505050506040513d601f19601f8201168201806040525081019061092c919061205a565b6001546001600160a01b0316611212565b9092509050600061094e838a611e8c565b9050610970606461096a60115484611e8c90919063ffffffff16565b90611ee5565b905061098081600a84900a611ee5565b600554604051630cf35bdd60e41b81529192506001600160a01b039081169163edd7ca6f9188169063cf35bdd0906109bc9089906004016127f4565b60206040518083038186803b1580156109d457600080fd5b505afa1580156109e8573d6000803e3d6000fd5b505050506040513d601f19601f82011682018060405250810190610a0c919061205a565b8a6040518363ffffffff1660e01b8152600401610a2a9291906125ac565b60206040518083038186803b158015610a4257600080fd5b505afa158015610a56573d6000803e3d6000fd5b505050506040513d601f19601f82011682018060405250810190610a7a91906122e6565b811115610a8f57600195505050505050610aa2565b5050505b60010161079d565b5060009150505b9392505050565b60008082815b816001600160a01b031663c5a83c2b6040518163ffffffff1660e01b815260040160206040518083038186803b158015610ae857600080fd5b505afa158015610afc573d6000803e3d6000fd5b505050506040513d601f19601f82011682018060405250810190610b2091906122e6565b811015610d2f57600080610b59846001600160a01b031663cf35bdd0856040518263ffffffff1660e01b81526004016108dc91906127f4565b90925090506000610b6a838a611e8c565b9050610b86606461096a60115484611e8c90919063ffffffff16565b9050610b9681600a84900a611ee5565b600554604051630cf35bdd60e41b81529192506001600160a01b039081169163edd7ca6f9188169063cf35bdd090610bd29089906004016127f4565b60206040518083038186803b158015610bea57600080fd5b505afa158015610bfe573d6000803e3d6000fd5b505050506040513d601f19601f82011682018060405250810190610c22919061205a565b8a6040518363ffffffff1660e01b8152600401610c409291906125ac565b60206040518083038186803b158015610c5857600080fd5b505afa158015610c6c573d6000803e3d6000fd5b505050506040513d601f19601f82011682018060405250810190610c9091906122e6565b811115610d2457604051630cf35bdd60e41b81526001906001600160a01b0387169063cf35bdd090610cc69088906004016127f4565b60206040518083038186803b158015610cde57600080fd5b505afa158015610cf2573d6000803e3d6000fd5b505050506040513d601f19601f82011682018060405250810190610d16919061205a565b965096505050505050610d44565b505050600101610aaf565b5050600154600092506001600160a01b031690505b9250929050565b610d53611cd7565b6000546001600160a01b03908116911614610da3576040805162461bcd60e51b81526020600482018190526024820152600080516020612915833981519152604482015290519081900360640190fd5b600d55565b6000546001600160a01b031690565b610dbf611cd7565b6000546001600160a01b03908116911614610e0f576040805162461bcd60e51b81526020600482018190526024820152600080516020612915833981519152604482015290519081900360640190fd5b600c55565b600480546001600160a01b0319166001600160a01b0392909216919091179055565b6000600d5460011415610f7b5760408051600380825260808201909252600091816020015b6060815260200190600190039081610e5b579050509050604051806040016040528060038152602001620cae8d60eb1b81525081600081518110610e9b57fe5b6020026020010181905250604051806040016040528060048152602001636461746160e01b81525081600181518110610ed057fe5b60200260200101819052508281600381518110610ee957fe5b602090810291909101015260048054604051631e806e8d60e31b81526001600160a01b039091169163f403746891610f239185910161265d565b60206040518083038186803b158015610f3b57600080fd5b505afa158015610f4f573d6000803e3d6000fd5b505050506040513d601f19601f82011682018060405250810190610f73919061205a565b91505061120d565b604051602001610f8a9061254a565b6040516020818303038152906040528051906020012082604051602001610fb191906124ca565b604051602081830303815290604052805190602001201415610fe857507322b58f1ebedfca50fef632bd73368b2fda96d54161120d565b604051602001610ff790612536565b604051602081830303815290604052805190602001208260405160200161101e91906124ca565b604051602081830303815290604052805190602001201415611055575073d04647b7cb523bb9f26730e9b6de1174db7591ad61120d565b60405160200161106490612522565b604051602081830303815290604052805190602001208260405160200161108b91906124ca565b6040516020818303038152906040528051906020012014156110c25750737aecf1c19661d12e962b69ebc8f6b2e63a55c66061120d565b6040516020016110d190612571565b60405160208183030381529060405280519060200120826040516020016110f891906124ca565b60405160208183030381529060405280519060200120141561112f57507317756515f112429471f86f98d5052acb6c47f6ee61120d565b60405160200161113e9061255d565b604051602081830303815290604052805190602001208260405160200161116591906124ca565b60405160208183030381529060405280519060200120141561119c5750730bf499444525a23e7bb61997539725ca2e92813861120d565b6040516020016111ab90612584565b60405160208183030381529060405280519060200120826040516020016111d291906124ca565b60405160208183030381529060405280519060200120141561120957507364eac61a2dfda2c3fa04eed49aa33d021aec883861120d565b5060005b919050565b60008060008060006112276103408888610554565b90506000819050806001600160a01b031663feaf968c6040518163ffffffff1660e01b815260040160a06040518083038186803b15801561126757600080fd5b505afa15801561127b573d6000803e3d6000fd5b505050506040513d601f19601f8201168201806040525081019061129f91906123f4565b506040805163313ce56760e01b815290519198509296506001600160a01b038516935063313ce567926004808201935060209291829003018186803b1580156112e757600080fd5b505afa1580156112fb573d6000803e3d6000fd5b505050506040513d601f19601f8201168201806040525081019061131f9190612443565b60ff16945061132d83611f27565b9550505050509250929050565b6000606060008061134b8786611212565b909250905060008061136188600a85900a611ee5565b9050600061136f8583611e8c565b600654600954600a5460405163085e2c5b60e01b81529394506001600160a01b039092169263085e2c5b926113ad928f928e92889291600401612613565b60006040518083038186803b1580156113c557600080fd5b505afa1580156113d9573d6000803e3d6000fd5b505050506040513d6000823e601f3d908101601f191682016040526114019190810190612358565b9650925060006114168a61096a866064611e8c565b9050600f5481106114425760405162461bcd60e51b815260040161143990612720565b60405180910390fd5b60105481116114635760405162461bcd60e51b815260040161143990612772565b606481101561156e5761147b606461096a8484611e8c565b9150600660009054906101000a90046001600160a01b03166001600160a01b031663085e2c5b8c8b85600954600a546040518663ffffffff1660e01b81526004016114ca959493929190612613565b60006040518083038186803b1580156114e257600080fd5b505afa1580156114f6573d6000803e3d6000fd5b505050506040513d6000823e601f3d908101601f1916820160405261151e9190810190612358565b975093506115318a61096a866064611e8c565b9050600f5481106115545760405162461bcd60e51b8152600401611439906127a9565b89841115611569575095506115829350505050565b61157b565b5095506115829350505050565b5050505050505b935093915050565b611592611cd7565b6000546001600160a01b039081169116146115e2576040805162461bcd60e51b81526020600482018190526024820152600080516020612915833981519152604482015290519081900360640190fd5b60405133904780156108fc02916000818181858888f1935050505015801561160e573d6000803e3d6000fd5b50565b611619611cd7565b6000546001600160a01b03908116911614611669576040805162461bcd60e51b81526020600482018190526024820152600080516020612915833981519152604482015290519081900360640190fd5b60408051600280825260608201909252600091816020015b6060815260200190600190039081611681579050509050604051806040016040528060038152602001620cae8d60eb1b815250816000815181106116c157fe5b6020026020010181905250604051806040016040528060068152602001650c5cdc1b1a5d60d21b815250816001815181106116f857fe5b602090810291909101015260048054604051631e806e8d60e31b81526001600160a01b039091169163f4037468916117329185910161265d565b60206040518083038186803b15801561174a57600080fd5b505afa15801561175e573d6000803e3d6000fd5b505050506040513d601f19601f82011682018060405250810190611782919061205a565b600280546001600160a01b03199081166001600160a01b0393841617918290556006805492909316911617905550565b6117ba611cd7565b6000546001600160a01b0390811691161461180a576040805162461bcd60e51b81526020600482018190526024820152600080516020612915833981519152604482015290519081900360640190fd5b600f55565b6040805160168082526102e08201909252600091829160609185918491602082016102c0803683370190505090506000805b836001600160a01b031663c5a83c2b6040518163ffffffff1660e01b815260040160206040518083038186803b15801561187a57600080fd5b505afa15801561188e573d6000803e3d6000fd5b505050506040513d601f19601f820116820180604052508101906118b291906122e6565b8110156119ed57604051630cf35bdd60e41b815261194c906001600160a01b0386169063cf35bdd0906118e99085906004016127f4565b60206040518083038186803b15801561190157600080fd5b505afa158015611915573d6000803e3d6000fd5b505050506040513d601f19601f82011682018060405250810190611939919061205a565b6001548b906001600160a01b031661133a565b9350915081156119e557604051630cf35bdd60e41b81526001906001600160a01b0386169063cf35bdd0906119859085906004016127f4565b60206040518083038186803b15801561199d57600080fd5b505afa1580156119b1573d6000803e3d6000fd5b505050506040513d601f19601f820116820180604052508101906119d5919061205a565b8496509650965050505050611a05565b600101611841565b5050600154600095506001600160a01b031693509150505b9250925092565b60065460085460405163095ea7b360e01b815260009289926001600160a01b038085169363095ea7b393611a469392169190600401612644565b602060405180830381600087803b158015611a6057600080fd5b505af1158015611a74573d6000803e3d6000fd5b505050506040513d601f19601f82011682018060405250810190611a9891906121c7565b50600654604051637153a8af60e11b81526001600160a01b039091169063e2a7515e90611ad3908b908b908b908b908b908b906004016125c6565b602060405180830381600087803b158015611aed57600080fd5b505af1158015611b01573d6000803e3d6000fd5b505050506040513d601f19601f82011682018060405250810190611b2591906122e6565b60405190925033904780156108fc02916000818181858888f19350505050158015611b54573d6000803e3d6000fd5b50509695505050505050565b600680546001600160a01b0319166001600160a01b0392909216919091179055565b611b8a611cd7565b6000546001600160a01b03908116911614611bda576040805162461bcd60e51b81526020600482018190526024820152600080516020612915833981519152604482015290519081900360640190fd5b6001600160a01b038116611c1f5760405162461bcd60e51b81526004018080602001828103825260268152602001806128ce6026913960400191505060405180910390fd5b600080546040516001600160a01b03808516939216917f8be0079c531659141344cd1fd0a4f28419497f9722a3daafe3b4186f6b6457e091a3600080546001600160a01b0319166001600160a01b0392909216919091179055565b611c82611cd7565b6000546001600160a01b03908116911614611cd2576040805162461bcd60e51b81526020600482018190526024820152600080516020612915833981519152604482015290519081900360640190fd5b601155565b3390565b606060008290506000816001600160a01b03166395d89b416040518163ffffffff1660e01b815260040160006040518083038186803b158015611d1d57600080fd5b505afa158015611d31573d6000803e3d6000fd5b505050506040513d6000823e601f3d908101601f19168201604052611d59919081019061225b565b949350505050565b606060008290506000815167ffffffffffffffff81118015611d8257600080fd5b506040519080825280601f01601f191660200182016040528015611dad576020820181803683370190505b50905060005b8251811015611e84576041838281518110611dca57fe5b016020015160f81c10801590611df45750605a838281518110611de957fe5b016020015160f81c11155b15611e4157828181518110611e0557fe5b602001015160f81c60f81b60f81c60200160f81b828281518110611e2557fe5b60200101906001600160f81b031916908160001a905350611e7c565b828181518110611e4d57fe5b602001015160f81c60f81b828281518110611e6457fe5b60200101906001600160f81b031916908160001a9053505b600101611db3565b509392505050565b600082611e9b575060006105d9565b82820282848281611ea857fe5b0414610aa25760405162461bcd60e51b81526004018080602001828103825260218152602001806128f46021913960400191505060405180910390fd5b6000610aa283836040518060400160405280601a81526020017f536166654d6174683a206469766973696f6e206279207a65726f000000000000815250611f82565b600080821215611f7e576040805162461bcd60e51b815260206004820181905260248201527f53616665436173743a2076616c7565206d75737420626520706f736974697665604482015290519081900360640190fd5b5090565b6000818361200e5760405162461bcd60e51b81526004018080602001828103825283818151815260200191508051906020019080838360005b83811015611fd3578181015183820152602001611fbb565b50505050905090810190601f1680156120005780820380516001836020036101000a031916815260200191505b509250505060405180910390fd5b50600083858161201a57fe5b0495945050505050565b805169ffffffffffffffffffff8116811461120d57600080fd5b60006020828403121561204f578081fd5b8135610aa2816128b8565b60006020828403121561206b578081fd5b8151610aa2816128b8565b60008060408385031215612088578081fd5b8235612093816128b8565b915060208301356120a3816128b8565b809150509250929050565b60008060008060008060c087890312156120c6578182fd5b86356120d1816128b8565b95506020878101356120e2816128b8565b95506040880135945060608801359350608088013567ffffffffffffffff81111561210b578384fd5b8801601f81018a1361211b578384fd5b803561212e61212982612848565b612824565b81815283810190838501858402850186018e101561214a578788fd5b8794505b8385101561216c57803583526001949094019391850191850161214e565b50809650505050505060a087013590509295509295509295565b60008060006060848603121561219a578283fd5b83356121a5816128b8565b92506020840135915060408401356121bc816128b8565b809150509250925092565b6000602082840312156121d8578081fd5b81518015158114610aa2578182fd5b6000602082840312156121f8578081fd5b813567ffffffffffffffff81111561220e578182fd5b8201601f8101841361221e578182fd5b803561222c61212982612866565b818152856020838501011115612240578384fd5b81602084016020830137908101602001929092525092915050565b60006020828403121561226c578081fd5b815167ffffffffffffffff811115612282578182fd5b8201601f81018413612292578182fd5b80516122a061212982612866565b8181528560208385010111156122b4578384fd5b6122c5826020830160208601612888565b95945050505050565b6000602082840312156122df578081fd5b5035919050565b6000602082840312156122f7578081fd5b5051919050565b60008060408385031215612310578182fd5b8235915060208301356120a3816128b8565b600080600060608486031215612336578081fd5b833592506020840135612348816128b8565b915060408401356121bc816128b8565b6000806040838503121561236a578182fd5b8251915060208084015167ffffffffffffffff811115612388578283fd5b8401601f81018613612398578283fd5b80516123a661212982612848565b81815283810190838501858402850186018a10156123c2578687fd5b8694505b838510156123e45780518352600194909401939185019185016123c6565b5080955050505050509250929050565b600080600080600060a0868803121561240b578283fd5b61241486612024565b945060208601519350604086015192506060860151915061243760808701612024565b90509295509295909350565b600060208284031215612454578081fd5b815160ff81168114610aa2578182fd5b6000815180845260208085019450808401835b8381101561249357815187529582019590820190600101612477565b509495945050505050565b600081518084526124b6816020860160208601612888565b601f01601f19169290920160200192915050565b600082516124dc818460208701612888565b9190910192915050565b600083516124f8818460208801612888565b602d60f81b9083019081528351612516816001840160208801612888565b01600101949350505050565b670e8eae6c85acae8d60c31b815260080190565b670c2c2ecca5acae8d60c31b815260080190565b660c8c2d25acae8d60cb1b815260070190565b670eae6c8e85acae8d60c31b815260080190565b660eadcd25acae8d60cb1b815260070190565b670eae6c8c65acae8d60c31b815260080190565b6001600160a01b0391909116815260200190565b6001600160a01b0392831681529116602082015260400190565b6001600160a01b03878116825286166020820152604081018590526060810184905260c06080820181905260009061260090830185612464565b90508260a0830152979650505050505050565b6001600160a01b03958616815293909416602084015260408301919091526060820152608081019190915260a00190565b6001600160a01b03929092168252602082015260400190565b6000602080830181845280855180835260408601915060408482028701019250838701855b828110156126b057603f1988860301845261269e85835161249e565b94509285019290850190600101612682565b5092979650505050505050565b901515815260200190565b91151582526001600160a01b0316602082015260400190565b83151581526001600160a01b03831660208201526060604082018190526000906122c590830184612464565b600060208252610aa2602083018461249e565b60208082526032908201527f506f737369626c65206f7261636c65206572726f722c20746f6f206d7563682060408201527172657475726e206f6e2065786368616e676560701b606082015260800190565b6020808252601a908201527f45786368616e6765207261746520756e6661766f757261626c65000000000000604082015260600190565b6020808252602b908201527f45786368616e6765206572726f722c20746f6f206d7563682072657475726e2060408201526a6f6e2065786368616e676560a81b606082015260800190565b90815260200190565b600083825260406020830152611d596040830184612464565b918252602082015260400190565b60405181810167ffffffffffffffff8111828210171561284057fe5b604052919050565b600067ffffffffffffffff82111561285c57fe5b5060209081020190565b600067ffffffffffffffff82111561287a57fe5b50601f01601f191660200190565b60005b838110156128a357818101518382015260200161288b565b838111156128b2576000848401525b50505050565b6001600160a01b038116811461160e57600080fdfe4f776e61626c653a206e6577206f776e657220697320746865207a65726f2061646472657373536166654d6174683a206d756c7469706c69636174696f6e206f766572666c6f774f776e61626c653a2063616c6c6572206973206e6f7420746865206f776e6572a26469706673582212200885e9aa434dc386f5e1f76a6b3359a76757e3880ab00b4099d414800e5235bb64736f6c63430007060033",
    "sourcePath": "c:/Users/anyth/Documents/GitHub/StakeYourName/contracts/ExchangeManager.sol",
    "compiler": {
        "name": "solc",
        "version": "0.7.6+commit.7338295f"
    },
    "functionHashes": {
        "assembleTokenEthPair(address,address)": "2b3a5990",
        "checkAvailiableFunds(uint256,address)": "e106273c",
        "estimateFunds(uint256,address)": "8b1f3f5a",
        "estimateSpecificAssetFunds(uint256,address,address)": "777647fb",
        "get1InchAddress()": "d5ce1362",
        "getExchangePrice(address,uint256,address)": "d3e6e3e9",
        "getOracleAddress(string)": "aa0e3656",
        "getPrice(address,address)": "ac41865a",
        "owner()": "8da5cb5b",
        "renounceOwnership()": "715018a6",
        "retrieveETH()": "d5b014c3",
        "setOneSplitAddress(address)": "e7c308fd",
        "swap(address,address,uint256,uint256,uint256[],uint256)": "e2a7515e",
        "transferOwnership(address)": "f2fde38b",
        "updateChainID(uint256)": "8cdc37fb",
        "updateEstimateSlippage(uint256)": "fbbd312c",
        "updateExchangeFlags(uint256)": "72a10772",
        "updateExchangeParts(uint256)": "5c860998",
        "updateFresh(uint256)": "3ce6fd4b",
        "updateIterations(uint256)": "138b8989",
        "updateMargin(uint256)": "deca9457",
        "updateNameManagerAddress(address)": "a8faeaaf",
        "updatePercentageIncrease(uint256)": "9c40dfe1",
        "updateSlippage(uint256)": "15b0d496"
    },
    "gasEstimates": {
        "creation": {
            "codeDepositCost": "2120400",
            "executionCost": "infinite",
            "totalCost": "infinite"
        },
        "external": {
            "assembleTokenEthPair(address,address)": "infinite",
            "checkAvailiableFunds(uint256,address)": "infinite",
            "estimateFunds(uint256,address)": "infinite",
            "estimateSpecificAssetFunds(uint256,address,address)": "infinite",
            "get1InchAddress()": "infinite",
            "getExchangePrice(address,uint256,address)": "infinite",
            "getOracleAddress(string)": "infinite",
            "getPrice(address,address)": "infinite",
            "owner()": "1181",
            "renounceOwnership()": "infinite",
            "retrieveETH()": "infinite",
            "setOneSplitAddress(address)": "21253",
            "swap(address,address,uint256,uint256,uint256[],uint256)": "infinite",
            "transferOwnership(address)": "infinite",
            "updateChainID(uint256)": "infinite",
            "updateEstimateSlippage(uint256)": "infinite",
            "updateExchangeFlags(uint256)": "infinite",
            "updateExchangeParts(uint256)": "infinite",
            "updateFresh(uint256)": "infinite",
            "updateIterations(uint256)": "infinite",
            "updateMargin(uint256)": "infinite",
            "updateNameManagerAddress(address)": "21188",
            "updatePercentageIncrease(uint256)": "infinite",
            "updateSlippage(uint256)": "infinite"
        },
        "internal": {
            "getTokenSymbol(address)": "infinite",
            "toLower(string memory)": "infinite"
        }
    }
}