{
    "contractName": "ExchangeManager",
    "abi": [
        {
            "inputs": [
                {
                    "internalType": "uint256",
                    "name": "_networkID",
                    "type": "uint256"
                }
            ],
            "stateMutability": "nonpayable",
            "type": "constructor"
        },
        {
            "anonymous": false,
            "inputs": [
                {
                    "indexed": true,
                    "internalType": "address",
                    "name": "previousOwner",
                    "type": "address"
                },
                {
                    "indexed": true,
                    "internalType": "address",
                    "name": "newOwner",
                    "type": "address"
                }
            ],
            "name": "OwnershipTransferred",
            "type": "event"
        },
        {
            "inputs": [
                {
                    "internalType": "address",
                    "name": "_from",
                    "type": "address"
                },
                {
                    "internalType": "address",
                    "name": "_to",
                    "type": "address"
                }
            ],
            "name": "assembleTokenEthPair",
            "outputs": [
                {
                    "internalType": "string",
                    "name": "",
                    "type": "string"
                }
            ],
            "stateMutability": "view",
            "type": "function"
        },
        {
            "inputs": [
                {
                    "internalType": "uint256",
                    "name": "_cost",
                    "type": "uint256"
                },
                {
                    "internalType": "address",
                    "name": "_vault",
                    "type": "address"
                }
            ],
            "name": "checkAvailiableFunds",
            "outputs": [
                {
                    "internalType": "bool",
                    "name": "_accept",
                    "type": "bool"
                },
                {
                    "internalType": "address",
                    "name": "_token",
                    "type": "address"
                },
                {
                    "internalType": "uint256[]",
                    "name": "_distribution",
                    "type": "uint256[]"
                }
            ],
            "stateMutability": "view",
            "type": "function"
        },
        {
            "inputs": [
                {
                    "internalType": "uint256",
                    "name": "_cost",
                    "type": "uint256"
                },
                {
                    "internalType": "address",
                    "name": "_vault",
                    "type": "address"
                }
            ],
            "name": "estimateFunds",
            "outputs": [
                {
                    "internalType": "bool",
                    "name": "_accept",
                    "type": "bool"
                },
                {
                    "internalType": "address",
                    "name": "_token",
                    "type": "address"
                }
            ],
            "stateMutability": "view",
            "type": "function"
        },
        {
            "inputs": [
                {
                    "internalType": "uint256",
                    "name": "_cost",
                    "type": "uint256"
                },
                {
                    "internalType": "address",
                    "name": "_vault",
                    "type": "address"
                },
                {
                    "internalType": "address",
                    "name": "_asset",
                    "type": "address"
                }
            ],
            "name": "estimateSpecificAssetFunds",
            "outputs": [
                {
                    "internalType": "bool",
                    "name": "_accept",
                    "type": "bool"
                }
            ],
            "stateMutability": "view",
            "type": "function"
        },
        {
            "inputs": [],
            "name": "get1InchAddress",
            "outputs": [],
            "stateMutability": "nonpayable",
            "type": "function"
        },
        {
            "inputs": [
                {
                    "internalType": "address",
                    "name": "_inputToken",
                    "type": "address"
                },
                {
                    "internalType": "uint256",
                    "name": "_outputValue",
                    "type": "uint256"
                },
                {
                    "internalType": "address",
                    "name": "_outputToken",
                    "type": "address"
                }
            ],
            "name": "getExchangePrice",
            "outputs": [
                {
                    "internalType": "uint256",
                    "name": "_inputValue",
                    "type": "uint256"
                },
                {
                    "internalType": "uint256[]",
                    "name": "_distribution",
                    "type": "uint256[]"
                }
            ],
            "stateMutability": "view",
            "type": "function"
        },
        {
            "inputs": [
                {
                    "internalType": "string",
                    "name": "_pair",
                    "type": "string"
                }
            ],
            "name": "getOracleAddress",
            "outputs": [
                {
                    "internalType": "address",
                    "name": "",
                    "type": "address"
                }
            ],
            "stateMutability": "view",
            "type": "function"
        },
        {
            "inputs": [
                {
                    "internalType": "address",
                    "name": "_from",
                    "type": "address"
                },
                {
                    "internalType": "address",
                    "name": "_to",
                    "type": "address"
                }
            ],
            "name": "getPrice",
            "outputs": [
                {
                    "internalType": "uint256",
                    "name": "_price",
                    "type": "uint256"
                },
                {
                    "internalType": "uint256",
                    "name": "_decimals",
                    "type": "uint256"
                }
            ],
            "stateMutability": "view",
            "type": "function"
        },
        {
            "inputs": [],
            "name": "owner",
            "outputs": [
                {
                    "internalType": "address",
                    "name": "",
                    "type": "address"
                }
            ],
            "stateMutability": "view",
            "type": "function"
        },
        {
            "inputs": [],
            "name": "renounceOwnership",
            "outputs": [],
            "stateMutability": "nonpayable",
            "type": "function"
        },
        {
            "inputs": [],
            "name": "retrieveETH",
            "outputs": [],
            "stateMutability": "nonpayable",
            "type": "function"
        },
        {
            "inputs": [
                {
                    "internalType": "address",
                    "name": "_oneSplit",
                    "type": "address"
                }
            ],
            "name": "setOneSplitAddress",
            "outputs": [],
            "stateMutability": "nonpayable",
            "type": "function"
        },
        {
            "inputs": [
                {
                    "internalType": "address",
                    "name": "_fromToken",
                    "type": "address"
                },
                {
                    "internalType": "address",
                    "name": "_destToken",
                    "type": "address"
                },
                {
                    "internalType": "uint256",
                    "name": "_amount",
                    "type": "uint256"
                },
                {
                    "internalType": "uint256",
                    "name": "_minReturn",
                    "type": "uint256"
                },
                {
                    "internalType": "uint256[]",
                    "name": "_distribution",
                    "type": "uint256[]"
                },
                {
                    "internalType": "uint256",
                    "name": "_flags",
                    "type": "uint256"
                }
            ],
            "name": "swap",
            "outputs": [
                {
                    "internalType": "uint256",
                    "name": "_returnAmount",
                    "type": "uint256"
                }
            ],
            "stateMutability": "payable",
            "type": "function"
        },
        {
            "inputs": [
                {
                    "internalType": "address",
                    "name": "newOwner",
                    "type": "address"
                }
            ],
            "name": "transferOwnership",
            "outputs": [],
            "stateMutability": "nonpayable",
            "type": "function"
        },
        {
            "inputs": [
                {
                    "internalType": "uint256",
                    "name": "_chainID",
                    "type": "uint256"
                }
            ],
            "name": "updateChainID",
            "outputs": [],
            "stateMutability": "nonpayable",
            "type": "function"
        },
        {
            "inputs": [
                {
                    "internalType": "uint256",
                    "name": "_estimateSlippage",
                    "type": "uint256"
                }
            ],
            "name": "updateEstimateSlippage",
            "outputs": [],
            "stateMutability": "nonpayable",
            "type": "function"
        },
        {
            "inputs": [
                {
                    "internalType": "uint256",
                    "name": "_newFlags",
                    "type": "uint256"
                }
            ],
            "name": "updateExchangeFlags",
            "outputs": [],
            "stateMutability": "nonpayable",
            "type": "function"
        },
        {
            "inputs": [
                {
                    "internalType": "uint256",
                    "name": "_newParts",
                    "type": "uint256"
                }
            ],
            "name": "updateExchangeParts",
            "outputs": [],
            "stateMutability": "nonpayable",
            "type": "function"
        },
        {
            "inputs": [
                {
                    "internalType": "uint256",
                    "name": "_fresh",
                    "type": "uint256"
                }
            ],
            "name": "updateFresh",
            "outputs": [],
            "stateMutability": "nonpayable",
            "type": "function"
        },
        {
            "inputs": [
                {
                    "internalType": "uint256",
                    "name": "_newIterations",
                    "type": "uint256"
                }
            ],
            "name": "updateIterations",
            "outputs": [],
            "stateMutability": "nonpayable",
            "type": "function"
        },
        {
            "inputs": [
                {
                    "internalType": "uint256",
                    "name": "_margin",
                    "type": "uint256"
                }
            ],
            "name": "updateMargin",
            "outputs": [],
            "stateMutability": "nonpayable",
            "type": "function"
        },
        {
            "inputs": [
                {
                    "internalType": "address payable",
                    "name": "_nameManager",
                    "type": "address"
                }
            ],
            "name": "updateNameManagerAddress",
            "outputs": [],
            "stateMutability": "nonpayable",
            "type": "function"
        },
        {
            "inputs": [
                {
                    "internalType": "uint256",
                    "name": "_newPercent",
                    "type": "uint256"
                }
            ],
            "name": "updatePercentageIncrease",
            "outputs": [],
            "stateMutability": "nonpayable",
            "type": "function"
        },
        {
            "inputs": [
                {
                    "internalType": "uint256",
                    "name": "_slippage",
                    "type": "uint256"
                }
            ],
            "name": "updateSlippage",
            "outputs": [],
            "stateMutability": "nonpayable",
            "type": "function"
        },
        {
            "stateMutability": "payable",
            "type": "receive"
        }
    ],
    "bytecode": "6080604052600180546001600160a01b031990811690915560028054821690556003805490911673bc86029dbc214939a3c5d383d0c245d5b75538c017905560001960085560146009556000600a556005600b556065600c55611c20600e556069600f819055605f6010556011553480156200007a57600080fd5b5060405162002c0938038062002c098339810160408190526200009d9162000132565b6000620000a96200012e565b600080546001600160a01b0319166001600160a01b0383169081178255604051929350917f8be0079c531659141344cd1fd0a4f28419497f9722a3daafe3b4186f6b6457e0908290a350600d55600354600480546001600160a01b039283166001600160a01b031991821617909155600254600680549190931691161790556200014b565b3390565b60006020828403121562000144578081fd5b5051919050565b612aae806200015b6000396000f3fe60806040526004361061014f5760003560e01c8063a8faeaaf116100b6578063deca94571161006f578063deca9457146103cb578063e106273c146103eb578063e2a7515e1461041a578063e7c308fd1461043a578063f2fde38b1461045a578063fbbd312c1461047a57610156565b8063a8faeaaf14610305578063aa0e365614610325578063ac41865a14610345578063d3e6e3e914610373578063d5b014c3146103a1578063d5ce1362146103b657610156565b806372a107721161010857806372a1077214610228578063777647fb146102485780638b1f3f5a146102755780638cdc37fb146102a35780638da5cb5b146102c35780639c40dfe1146102e557610156565b8063138b89891461015b57806315b0d4961461017d5780632b3a59901461019d5780633ce6fd4b146101d35780635c860998146101f3578063715018a61461021357610156565b3661015657005b600080fd5b34801561016757600080fd5b5061017b610176366004612412565b61049a565b005b34801561018957600080fd5b5061017b610198366004612412565b6104f7565b3480156101a957600080fd5b506101bd6101b8366004612121565b610554565b6040516101ca9190612851565b60405180910390f35b3480156101df57600080fd5b5061017b6101ee366004612412565b6105df565b3480156101ff57600080fd5b5061017b61020e366004612412565b61063c565b34801561021f57600080fd5b5061017b610699565b34801561023457600080fd5b5061017b610243366004612412565b61073b565b34801561025457600080fd5b50610268610263366004612466565b610798565b6040516101ca9190612801565b34801561028157600080fd5b50610295610290366004612442565b610aeb565b6040516101ca92919061280c565b3480156102af57600080fd5b5061017b6102be366004612412565b610dcc565b3480156102cf57600080fd5b506102d8610e29565b6040516101ca91906126dc565b3480156102f157600080fd5b5061017b610300366004612412565b610e38565b34801561031157600080fd5b5061017b6103203660046120e9565b610e95565b34801561033157600080fd5b506102d861034036600461232b565b610eb7565b34801561035157600080fd5b50610365610360366004612121565b611293565b6040516101ca92919061295a565b34801561037f57600080fd5b5061039361038e366004612231565b6113c7565b6040516101ca929190612941565b3480156103ad57600080fd5b5061017b611617565b3480156103c257600080fd5b5061017b61169e565b3480156103d757600080fd5b5061017b6103e6366004612412565b61183f565b3480156103f757600080fd5b5061040b610406366004612442565b61189c565b6040516101ca93929190612825565b61042d610428366004612159565b611ab7565b6040516101ca9190612938565b34801561044657600080fd5b5061017b6104553660046120e9565b611c0b565b34801561046657600080fd5b5061017b6104753660046120e9565b611c2d565b34801561048657600080fd5b5061017b610495366004612412565b611d25565b6104a2611d82565b6000546001600160a01b039081169116146104f2576040805162461bcd60e51b81526020600482018190526024820152600080516020612a59833981519152604482015290519081900360640190fd5b600b55565b6104ff611d82565b6000546001600160a01b0390811691161461054f576040805162461bcd60e51b81526020600482018190526024820152600080516020612a59833981519152604482015290519081900360640190fd5b601055565b606080606061056a61056586611d86565b611e0c565b6001549092506001600160a01b03858116911614156105a357506040805180820190915260038152620cae8d60eb1b60208201526105b2565b6105af61056585611d86565b90505b81816040516020016105c592919061262a565b604051602081830303815290604052925050505b92915050565b6105e7611d82565b6000546001600160a01b03908116911614610637576040805162461bcd60e51b81526020600482018190526024820152600080516020612a59833981519152604482015290519081900360640190fd5b600e55565b610644611d82565b6000546001600160a01b03908116911614610694576040805162461bcd60e51b81526020600482018190526024820152600080516020612a59833981519152604482015290519081900360640190fd5b600955565b6106a1611d82565b6000546001600160a01b039081169116146106f1576040805162461bcd60e51b81526020600482018190526024820152600080516020612a59833981519152604482015290519081900360640190fd5b600080546040516001600160a01b03909116907f8be0079c531659141344cd1fd0a4f28419497f9722a3daafe3b4186f6b6457e0908390a3600080546001600160a01b0319169055565b610743611d82565b6000546001600160a01b03908116911614610793576040805162461bcd60e51b81526020600482018190526024820152600080516020612a59833981519152604482015290519081900360640190fd5b600a55565b600082815b816001600160a01b03166371a973056040518163ffffffff1660e01b815260040160006040518083038186803b1580156107d657600080fd5b505afa1580156107ea573d6000803e3d6000fd5b505050506040513d6000823e601f3d908101601f191682016040526108129190810190612272565b51811015610add57836001600160a01b0316826001600160a01b03166371a973056040518163ffffffff1660e01b815260040160006040518083038186803b15801561085d57600080fd5b505afa158015610871573d6000803e3d6000fd5b505050506040513d6000823e601f3d908101601f191682016040526108999190810190612272565b82815181106108a457fe5b60200260200101516001600160a01b03161415610ad55760008061095d846001600160a01b03166371a973056040518163ffffffff1660e01b815260040160006040518083038186803b1580156108fa57600080fd5b505afa15801561090e573d6000803e3d6000fd5b505050506040513d6000823e601f3d908101601f191682016040526109369190810190612272565b848151811061094157fe5b60209081029190910101516001546001600160a01b0316611293565b9092509050600061096e838a611f37565b9050610990606461098a60115484611f3790919063ffffffff16565b90611f90565b90506109a081600a84900a611f90565b9050600560009054906101000a90046001600160a01b03166001600160a01b031663edd7ca6f866001600160a01b03166371a973056040518163ffffffff1660e01b815260040160006040518083038186803b1580156109ff57600080fd5b505afa158015610a13573d6000803e3d6000fd5b505050506040513d6000823e601f3d908101601f19168201604052610a3b9190810190612272565b8681518110610a4657fe5b60200260200101518a6040518363ffffffff1660e01b8152600401610a6c9291906126f0565b60206040518083038186803b158015610a8457600080fd5b505afa158015610a98573d6000803e3d6000fd5b505050506040513d601f19601f82011682018060405250810190610abc919061242a565b811115610ad157600195505050505050610ae4565b5050505b60010161079d565b5060009150505b9392505050565b60008082815b816001600160a01b03166371a973056040518163ffffffff1660e01b815260040160006040518083038186803b158015610b2a57600080fd5b505afa158015610b3e573d6000803e3d6000fd5b505050506040513d6000823e601f3d908101601f19168201604052610b669190810190612272565b51811015610db057600080610bad846001600160a01b03166371a973056040518163ffffffff1660e01b815260040160006040518083038186803b1580156108fa57600080fd5b90925090506000610bbe838a611f37565b9050610bda606461098a60115484611f3790919063ffffffff16565b9050610bea81600a84900a611f90565b9050600560009054906101000a90046001600160a01b03166001600160a01b031663edd7ca6f866001600160a01b03166371a973056040518163ffffffff1660e01b815260040160006040518083038186803b158015610c4957600080fd5b505afa158015610c5d573d6000803e3d6000fd5b505050506040513d6000823e601f3d908101601f19168201604052610c859190810190612272565b8681518110610c9057fe5b60200260200101518a6040518363ffffffff1660e01b8152600401610cb69291906126f0565b60206040518083038186803b158015610cce57600080fd5b505afa158015610ce2573d6000803e3d6000fd5b505050506040513d601f19601f82011682018060405250810190610d06919061242a565b811115610da5576001856001600160a01b03166371a973056040518163ffffffff1660e01b815260040160006040518083038186803b158015610d4857600080fd5b505afa158015610d5c573d6000803e3d6000fd5b505050506040513d6000823e601f3d908101601f19168201604052610d849190810190612272565b8581518110610d8f57fe5b6020026020010151965096505050505050610dc5565b505050600101610af1565b5050600154600092506001600160a01b031690505b9250929050565b610dd4611d82565b6000546001600160a01b03908116911614610e24576040805162461bcd60e51b81526020600482018190526024820152600080516020612a59833981519152604482015290519081900360640190fd5b600d55565b6000546001600160a01b031690565b610e40611d82565b6000546001600160a01b03908116911614610e90576040805162461bcd60e51b81526020600482018190526024820152600080516020612a59833981519152604482015290519081900360640190fd5b600c55565b600480546001600160a01b0319166001600160a01b0392909216919091179055565b6000600d5460011415610ffc5760408051600380825260808201909252600091816020015b6060815260200190600190039081610edc579050509050604051806040016040528060038152602001620cae8d60eb1b81525081600081518110610f1c57fe5b6020026020010181905250604051806040016040528060048152602001636461746160e01b81525081600181518110610f5157fe5b60200260200101819052508281600381518110610f6a57fe5b602090810291909101015260048054604051631e806e8d60e31b81526001600160a01b039091169163f403746891610fa4918591016127a1565b60206040518083038186803b158015610fbc57600080fd5b505afa158015610fd0573d6000803e3d6000fd5b505050506040513d601f19601f82011682018060405250810190610ff49190612105565b91505061128e565b60405160200161100b9061268e565b6040516020818303038152906040528051906020012082604051602001611032919061260e565b60405160208183030381529060405280519060200120141561106957507322b58f1ebedfca50fef632bd73368b2fda96d54161128e565b6040516020016110789061267a565b604051602081830303815290604052805190602001208260405160200161109f919061260e565b6040516020818303038152906040528051906020012014156110d6575073d04647b7cb523bb9f26730e9b6de1174db7591ad61128e565b6040516020016110e590612666565b604051602081830303815290604052805190602001208260405160200161110c919061260e565b6040516020818303038152906040528051906020012014156111435750737aecf1c19661d12e962b69ebc8f6b2e63a55c66061128e565b604051602001611152906126b5565b6040516020818303038152906040528051906020012082604051602001611179919061260e565b6040516020818303038152906040528051906020012014156111b057507317756515f112429471f86f98d5052acb6c47f6ee61128e565b6040516020016111bf906126a1565b60405160208183030381529060405280519060200120826040516020016111e6919061260e565b60405160208183030381529060405280519060200120141561121d5750730bf499444525a23e7bb61997539725ca2e92813861128e565b60405160200161122c906126c8565b6040516020818303038152906040528051906020012082604051602001611253919061260e565b60405160208183030381529060405280519060200120141561128a57507364eac61a2dfda2c3fa04eed49aa33d021aec883861128e565b5060005b919050565b60008060008060006112a86103408888610554565b90506000819050806001600160a01b031663feaf968c6040518163ffffffff1660e01b815260040160a06040518083038186803b1580156112e857600080fd5b505afa1580156112fc573d6000803e3d6000fd5b505050506040513d601f19601f820116820180604052508101906113209190612538565b50600e54909750919550504286900311905061133b57600080fd5b806001600160a01b031663313ce5676040518163ffffffff1660e01b815260040160206040518083038186803b15801561137457600080fd5b505afa158015611388573d6000803e3d6000fd5b505050506040513d601f19601f820116820180604052508101906113ac9190612587565b60ff1694506113ba83611fd2565b9550505050509250929050565b600060606000806113d88786611293565b90925090506000806113ee88600a85900a611f90565b905060006113fc8583611f37565b600654600954600a5460405163085e2c5b60e01b81529394506001600160a01b039092169263085e2c5b9261143a928f928e92889291600401612757565b60006040518083038186803b15801561145257600080fd5b505afa158015611466573d6000803e3d6000fd5b505050506040513d6000823e601f3d908101601f1916820160405261148e919081019061249c565b9650925060006114a38a61098a866064611f37565b9050600f5481106114cf5760405162461bcd60e51b81526004016114c690612864565b60405180910390fd5b60105481116114f05760405162461bcd60e51b81526004016114c6906128b6565b60648110156115fb57611508606461098a8484611f37565b9150600660009054906101000a90046001600160a01b03166001600160a01b031663085e2c5b8c8b85600954600a546040518663ffffffff1660e01b8152600401611557959493929190612757565b60006040518083038186803b15801561156f57600080fd5b505afa158015611583573d6000803e3d6000fd5b505050506040513d6000823e601f3d908101601f191682016040526115ab919081019061249c565b975093506115be8a61098a866064611f37565b9050600f5481106115e15760405162461bcd60e51b81526004016114c6906128ed565b898411156115f65750955061160f9350505050565b611608565b50955061160f9350505050565b5050505050505b935093915050565b61161f611d82565b6000546001600160a01b0390811691161461166f576040805162461bcd60e51b81526020600482018190526024820152600080516020612a59833981519152604482015290519081900360640190fd5b60405133904780156108fc02916000818181858888f1935050505015801561169b573d6000803e3d6000fd5b50565b6116a6611d82565b6000546001600160a01b039081169116146116f6576040805162461bcd60e51b81526020600482018190526024820152600080516020612a59833981519152604482015290519081900360640190fd5b60408051600280825260608201909252600091816020015b606081526020019060019003908161170e579050509050604051806040016040528060038152602001620cae8d60eb1b8152508160008151811061174e57fe5b6020026020010181905250604051806040016040528060068152602001650c5cdc1b1a5d60d21b8152508160018151811061178557fe5b602090810291909101015260048054604051631e806e8d60e31b81526001600160a01b039091169163f4037468916117bf918591016127a1565b60206040518083038186803b1580156117d757600080fd5b505afa1580156117eb573d6000803e3d6000fd5b505050506040513d601f19601f8201168201806040525081019061180f9190612105565b600280546001600160a01b03199081166001600160a01b0393841617918290556006805492909316911617905550565b611847611d82565b6000546001600160a01b03908116911614611897576040805162461bcd60e51b81526020600482018190526024820152600080516020612a59833981519152604482015290519081900360640190fd5b600f55565b6040805160168082526102e08201909252600091829160609185918491602082016102c0803683370190505090506000805b836001600160a01b03166371a973056040518163ffffffff1660e01b815260040160006040518083038186803b15801561190757600080fd5b505afa15801561191b573d6000803e3d6000fd5b505050506040513d6000823e601f3d908101601f191682016040526119439190810190612272565b51811015611a98576119ec846001600160a01b03166371a973056040518163ffffffff1660e01b815260040160006040518083038186803b15801561198757600080fd5b505afa15801561199b573d6000803e3d6000fd5b505050506040513d6000823e601f3d908101601f191682016040526119c39190810190612272565b82815181106119ce57fe5b60209081029190910101516001548b906001600160a01b03166113c7565b935091508115611a90576001846001600160a01b03166371a973056040518163ffffffff1660e01b815260040160006040518083038186803b158015611a3157600080fd5b505afa158015611a45573d6000803e3d6000fd5b505050506040513d6000823e601f3d908101601f19168201604052611a6d9190810190612272565b8281518110611a7857fe5b60200260200101518496509650965050505050611ab0565b6001016118ce565b5050600154600095506001600160a01b031693509150505b9250925092565b60065460085460405163095ea7b360e01b815260009289926001600160a01b038085169363095ea7b393611af19392169190600401612788565b602060405180830381600087803b158015611b0b57600080fd5b505af1158015611b1f573d6000803e3d6000fd5b505050506040513d601f19601f82011682018060405250810190611b43919061230b565b50600654604051637153a8af60e11b81526001600160a01b039091169063e2a7515e90611b7e908b908b908b908b908b908b9060040161270a565b602060405180830381600087803b158015611b9857600080fd5b505af1158015611bac573d6000803e3d6000fd5b505050506040513d601f19601f82011682018060405250810190611bd0919061242a565b60405190925033904780156108fc02916000818181858888f19350505050158015611bff573d6000803e3d6000fd5b50509695505050505050565b600680546001600160a01b0319166001600160a01b0392909216919091179055565b611c35611d82565b6000546001600160a01b03908116911614611c85576040805162461bcd60e51b81526020600482018190526024820152600080516020612a59833981519152604482015290519081900360640190fd5b6001600160a01b038116611cca5760405162461bcd60e51b8152600401808060200182810382526026815260200180612a126026913960400191505060405180910390fd5b600080546040516001600160a01b03808516939216917f8be0079c531659141344cd1fd0a4f28419497f9722a3daafe3b4186f6b6457e091a3600080546001600160a01b0319166001600160a01b0392909216919091179055565b611d2d611d82565b6000546001600160a01b03908116911614611d7d576040805162461bcd60e51b81526020600482018190526024820152600080516020612a59833981519152604482015290519081900360640190fd5b601155565b3390565b606060008290506000816001600160a01b03166395d89b416040518163ffffffff1660e01b815260040160006040518083038186803b158015611dc857600080fd5b505afa158015611ddc573d6000803e3d6000fd5b505050506040513d6000823e601f3d908101601f19168201604052611e04919081019061239f565b949350505050565b606060008290506000815167ffffffffffffffff81118015611e2d57600080fd5b506040519080825280601f01601f191660200182016040528015611e58576020820181803683370190505b50905060005b8251811015611f2f576041838281518110611e7557fe5b016020015160f81c10801590611e9f5750605a838281518110611e9457fe5b016020015160f81c11155b15611eec57828181518110611eb057fe5b602001015160f81c60f81b60f81c60200160f81b828281518110611ed057fe5b60200101906001600160f81b031916908160001a905350611f27565b828181518110611ef857fe5b602001015160f81c60f81b828281518110611f0f57fe5b60200101906001600160f81b031916908160001a9053505b600101611e5e565b509392505050565b600082611f46575060006105d9565b82820282848281611f5357fe5b0414610ae45760405162461bcd60e51b8152600401808060200182810382526021815260200180612a386021913960400191505060405180910390fd5b6000610ae483836040518060400160405280601a81526020017f536166654d6174683a206469766973696f6e206279207a65726f00000000000081525061202d565b600080821215612029576040805162461bcd60e51b815260206004820181905260248201527f53616665436173743a2076616c7565206d75737420626520706f736974697665604482015290519081900360640190fd5b5090565b600081836120b95760405162461bcd60e51b81526004018080602001828103825283818151815260200191508051906020019080838360005b8381101561207e578181015183820152602001612066565b50505050905090810190601f1680156120ab5780820380516001836020036101000a031916815260200191505b509250505060405180910390fd5b5060008385816120c557fe5b0495945050505050565b805169ffffffffffffffffffff8116811461128e57600080fd5b6000602082840312156120fa578081fd5b8135610ae4816129fc565b600060208284031215612116578081fd5b8151610ae4816129fc565b60008060408385031215612133578081fd5b823561213e816129fc565b9150602083013561214e816129fc565b809150509250929050565b60008060008060008060c08789031215612171578182fd5b863561217c816129fc565b955060208781013561218d816129fc565b95506040880135945060608801359350608088013567ffffffffffffffff8111156121b6578384fd5b8801601f81018a136121c6578384fd5b80356121d96121d48261298c565b612968565b81815283810190838501858402850186018e10156121f5578788fd5b8794505b838510156122175780358352600194909401939185019185016121f9565b50809650505050505060a087013590509295509295509295565b600080600060608486031215612245578081fd5b8335612250816129fc565b9250602084013591506040840135612267816129fc565b809150509250925092565b60006020808385031215612284578182fd5b825167ffffffffffffffff81111561229a578283fd5b8301601f810185136122aa578283fd5b80516122b86121d48261298c565b81815283810190838501858402850186018910156122d4578687fd5b8694505b838510156122ff5780516122eb816129fc565b8352600194909401939185019185016122d8565b50979650505050505050565b60006020828403121561231c578081fd5b81518015158114610ae4578182fd5b60006020828403121561233c578081fd5b813567ffffffffffffffff811115612352578182fd5b8201601f81018413612362578182fd5b80356123706121d4826129aa565b818152856020838501011115612384578384fd5b81602084016020830137908101602001929092525092915050565b6000602082840312156123b0578081fd5b815167ffffffffffffffff8111156123c6578182fd5b8201601f810184136123d6578182fd5b80516123e46121d4826129aa565b8181528560208385010111156123f8578384fd5b6124098260208301602086016129cc565b95945050505050565b600060208284031215612423578081fd5b5035919050565b60006020828403121561243b578081fd5b5051919050565b60008060408385031215612454578182fd5b82359150602083013561214e816129fc565b60008060006060848603121561247a578081fd5b83359250602084013561248c816129fc565b91506040840135612267816129fc565b600080604083850312156124ae578182fd5b8251915060208084015167ffffffffffffffff8111156124cc578283fd5b8401601f810186136124dc578283fd5b80516124ea6121d48261298c565b81815283810190838501858402850186018a1015612506578687fd5b8694505b8385101561252857805183526001949094019391850191850161250a565b5080955050505050509250929050565b600080600080600060a0868803121561254f578283fd5b612558866120cf565b945060208601519350604086015192506060860151915061257b608087016120cf565b90509295509295909350565b600060208284031215612598578081fd5b815160ff81168114610ae4578182fd5b6000815180845260208085019450808401835b838110156125d7578151875295820195908201906001016125bb565b509495945050505050565b600081518084526125fa8160208601602086016129cc565b601f01601f19169290920160200192915050565b600082516126208184602087016129cc565b9190910192915050565b6000835161263c8184602088016129cc565b602d60f81b908301908152835161265a8160018401602088016129cc565b01600101949350505050565b670e8eae6c85acae8d60c31b815260080190565b670c2c2ecca5acae8d60c31b815260080190565b660c8c2d25acae8d60cb1b815260070190565b670eae6c8e85acae8d60c31b815260080190565b660eadcd25acae8d60cb1b815260070190565b670eae6c8c65acae8d60c31b815260080190565b6001600160a01b0391909116815260200190565b6001600160a01b0392831681529116602082015260400190565b6001600160a01b03878116825286166020820152604081018590526060810184905260c060808201819052600090612744908301856125a8565b90508260a0830152979650505050505050565b6001600160a01b03958616815293909416602084015260408301919091526060820152608081019190915260a00190565b6001600160a01b03929092168252602082015260400190565b6000602080830181845280855180835260408601915060408482028701019250838701855b828110156127f457603f198886030184526127e28583516125e2565b945092850192908501906001016127c6565b5092979650505050505050565b901515815260200190565b91151582526001600160a01b0316602082015260400190565b83151581526001600160a01b0383166020820152606060408201819052600090612409908301846125a8565b600060208252610ae460208301846125e2565b60208082526032908201527f506f737369626c65206f7261636c65206572726f722c20746f6f206d7563682060408201527172657475726e206f6e2065786368616e676560701b606082015260800190565b6020808252601a908201527f45786368616e6765207261746520756e6661766f757261626c65000000000000604082015260600190565b6020808252602b908201527f45786368616e6765206572726f722c20746f6f206d7563682072657475726e2060408201526a6f6e2065786368616e676560a81b606082015260800190565b90815260200190565b600083825260406020830152611e0460408301846125a8565b918252602082015260400190565b60405181810167ffffffffffffffff8111828210171561298457fe5b604052919050565b600067ffffffffffffffff8211156129a057fe5b5060209081020190565b600067ffffffffffffffff8211156129be57fe5b50601f01601f191660200190565b60005b838110156129e75781810151838201526020016129cf565b838111156129f6576000848401525b50505050565b6001600160a01b038116811461169b57600080fdfe4f776e61626c653a206e6577206f776e657220697320746865207a65726f2061646472657373536166654d6174683a206d756c7469706c69636174696f6e206f766572666c6f774f776e61626c653a2063616c6c6572206973206e6f7420746865206f776e6572a26469706673582212202ef16d43966ef9b327fb71ebc48174801a3614d3fe0676f42df557e8af7a1a4964736f6c63430007060033",
    "sourcePath": "c:/Users/anyth/Documents/GitHub/StakeYourName/contracts/ExchangeManager.sol",
    "compiler": {
        "name": "solc",
        "version": "0.7.6+commit.7338295f"
    },
    "functionHashes": {
        "assembleTokenEthPair(address,address)": "2b3a5990",
        "checkAvailiableFunds(uint256,address)": "e106273c",
        "estimateFunds(uint256,address)": "8b1f3f5a",
        "estimateSpecificAssetFunds(uint256,address,address)": "777647fb",
        "get1InchAddress()": "d5ce1362",
        "getExchangePrice(address,uint256,address)": "d3e6e3e9",
        "getOracleAddress(string)": "aa0e3656",
        "getPrice(address,address)": "ac41865a",
        "owner()": "8da5cb5b",
        "renounceOwnership()": "715018a6",
        "retrieveETH()": "d5b014c3",
        "setOneSplitAddress(address)": "e7c308fd",
        "swap(address,address,uint256,uint256,uint256[],uint256)": "e2a7515e",
        "transferOwnership(address)": "f2fde38b",
        "updateChainID(uint256)": "8cdc37fb",
        "updateEstimateSlippage(uint256)": "fbbd312c",
        "updateExchangeFlags(uint256)": "72a10772",
        "updateExchangeParts(uint256)": "5c860998",
        "updateFresh(uint256)": "3ce6fd4b",
        "updateIterations(uint256)": "138b8989",
        "updateMargin(uint256)": "deca9457",
        "updateNameManagerAddress(address)": "a8faeaaf",
        "updatePercentageIncrease(uint256)": "9c40dfe1",
        "updateSlippage(uint256)": "15b0d496"
    },
    "gasEstimates": {
        "creation": {
            "codeDepositCost": "2185200",
            "executionCost": "infinite",
            "totalCost": "infinite"
        },
        "external": {
            "assembleTokenEthPair(address,address)": "infinite",
            "checkAvailiableFunds(uint256,address)": "infinite",
            "estimateFunds(uint256,address)": "infinite",
            "estimateSpecificAssetFunds(uint256,address,address)": "infinite",
            "get1InchAddress()": "infinite",
            "getExchangePrice(address,uint256,address)": "infinite",
            "getOracleAddress(string)": "infinite",
            "getPrice(address,address)": "infinite",
            "owner()": "1181",
            "renounceOwnership()": "infinite",
            "retrieveETH()": "infinite",
            "setOneSplitAddress(address)": "21253",
            "swap(address,address,uint256,uint256,uint256[],uint256)": "infinite",
            "transferOwnership(address)": "infinite",
            "updateChainID(uint256)": "infinite",
            "updateEstimateSlippage(uint256)": "infinite",
            "updateExchangeFlags(uint256)": "infinite",
            "updateExchangeParts(uint256)": "infinite",
            "updateFresh(uint256)": "infinite",
            "updateIterations(uint256)": "infinite",
            "updateMargin(uint256)": "infinite",
            "updateNameManagerAddress(address)": "21188",
            "updatePercentageIncrease(uint256)": "infinite",
            "updateSlippage(uint256)": "infinite"
        },
        "internal": {
            "getTokenSymbol(address)": "infinite",
            "toLower(string memory)": "infinite"
        }
    }
}