{
  "contractName": "aTokenMockup",
  "abi": [
    {
      "inputs": [
        {
          "internalType": "address",
          "name": "_cashAddress",
          "type": "address"
        }
      ],
      "stateMutability": "nonpayable",
      "type": "constructor"
    },
    {
      "inputs": [
        {
          "internalType": "address",
          "name": "",
          "type": "address"
        }
      ],
      "name": "aTokenBalances",
      "outputs": [
        {
          "internalType": "uint256",
          "name": "",
          "type": "uint256"
        }
      ],
      "stateMutability": "view",
      "type": "function"
    },
    {
      "inputs": [
        {
          "internalType": "address",
          "name": "",
          "type": "address"
        }
      ],
      "name": "daiBalances",
      "outputs": [
        {
          "internalType": "uint256",
          "name": "",
          "type": "uint256"
        }
      ],
      "stateMutability": "view",
      "type": "function"
    },
    {
      "inputs": [
        {
          "internalType": "address",
          "name": "_owner",
          "type": "address"
        }
      ],
      "name": "balanceOf",
      "outputs": [
        {
          "internalType": "uint256",
          "name": "",
          "type": "uint256"
        }
      ],
      "stateMutability": "view",
      "type": "function"
    },
    {
      "inputs": [
        {
          "internalType": "address",
          "name": "stfu",
          "type": "address"
        },
        {
          "internalType": "uint256",
          "name": "mintAmount",
          "type": "uint256"
        },
        {
          "internalType": "uint16",
          "name": "gtfo",
          "type": "uint16"
        }
      ],
      "name": "deposit",
      "outputs": [],
      "stateMutability": "nonpayable",
      "type": "function"
    },
    {
      "inputs": [
        {
          "internalType": "address",
          "name": "_owner",
          "type": "address"
        }
      ],
      "name": "generate10PercentInterest",
      "outputs": [],
      "stateMutability": "nonpayable",
      "type": "function"
    },
    {
      "inputs": [
        {
          "internalType": "uint256",
          "name": "redeemAmount",
          "type": "uint256"
        }
      ],
      "name": "redeem",
      "outputs": [],
      "stateMutability": "nonpayable",
      "type": "function"
    }
  ],
  "bytecode": "0x608060405234801561001057600080fd5b506040516106a83803806106a88339818101604052602081101561003357600080fd5b5051600280546001600160a01b0319166001600160a01b03909216919091179055610645806100636000396000f3fe608060405234801561001057600080fd5b50600436106100625760003560e01c80635f2f5af21461006757806370a082311461008f578063d2d0e066146100c7578063db006a75146100fd578063dc48e3661461011a578063ef06734214610140575b600080fd5b61008d6004803603602081101561007d57600080fd5b50356001600160a01b0316610166565b005b6100b5600480360360208110156100a557600080fd5b50356001600160a01b0316610268565b60408051918252519081900360200190f35b61008d600480360360608110156100dd57600080fd5b5080356001600160a01b0316906020810135906040013561ffff16610283565b61008d6004803603602081101561011357600080fd5b503561035c565b6100b56004803603602081101561013057600080fd5b50356001600160a01b031661040a565b6100b56004803603602081101561015657600080fd5b50356001600160a01b031661041c565b6001600160a01b03811660009081526020819052604081205461018a90600a61042e565b6002546040805163045e52b360e11b81523060048201526024810184905290519293506001600160a01b03909116916308bca5669160448082019260009290919082900301818387803b1580156101e057600080fd5b505af11580156101f4573d6000803e3d6000fd5b5050506001600160a01b03831660009081526020819052604090205461021b915082610477565b6001600160a01b038316600090815260208181526040808320939093556001905220546102489082610477565b6001600160a01b0390921660009081526001602052604090209190915550565b6001600160a01b031660009081526001602052604090205490565b600254604080516323b872dd60e01b81523360048201523060248201526044810185905290516001600160a01b03909216916323b872dd916064808201926020929091908290030181600087803b1580156102dd57600080fd5b505af11580156102f1573d6000803e3d6000fd5b505050506040513d602081101561030757600080fd5b5050336000908152602081905260409020546103239083610477565b33600090815260208181526040808320939093556001905220546103479083610477565b33600090815260016020526040902055505050565b3360009081526001602052604090205461037690826104d1565b33600081815260016020908152604080832094909455600254845163a9059cbb60e01b815260048101949094526024840186905293516001600160a01b039094169363a9059cbb93604480820194918390030190829087803b1580156103db57600080fd5b505af11580156103ef573d6000803e3d6000fd5b505050506040513d602081101561040557600080fd5b505050565b60016020526000908152604090205481565b60006020819052908152604090205481565b600061047083836040518060400160405280601a81526020017f536166654d6174683a206469766973696f6e206279207a65726f000000000000815250610513565b9392505050565b600082820183811015610470576040805162461bcd60e51b815260206004820152601b60248201527f536166654d6174683a206164646974696f6e206f766572666c6f770000000000604482015290519081900360640190fd5b600061047083836040518060400160405280601e81526020017f536166654d6174683a207375627472616374696f6e206f766572666c6f7700008152506105b5565b6000818361059f5760405162461bcd60e51b81526004018080602001828103825283818151815260200191508051906020019080838360005b8381101561056457818101518382015260200161054c565b50505050905090810190601f1680156105915780820380516001836020036101000a031916815260200191505b509250505060405180910390fd5b5060008385816105ab57fe5b0495945050505050565b600081848411156106075760405162461bcd60e51b815260206004820181815283516024840152835190928392604490910191908501908083836000831561056457818101518382015260200161054c565b50505090039056fea264697066735822122001007fe1cd92cc3e92adb45c2b8c279c361cc8a9f092a449f55f7ab37c51a07864736f6c63430007060033",
  "immutableReferences": {},
  "source": "// SPDX-License-Identifier: MIT\r\npragma solidity ^0.7.4;\r\n\r\nimport \"@openzeppelin/contracts/math/SafeMath.sol\";\r\n\r\ninterface Cash \r\n{\r\n    function approve(address _spender, uint _amount) external returns (bool);\r\n    function balanceOf(address _ownesr) external view returns (uint);\r\n    function faucet(uint _amount) external;\r\n    function transfer(address _to, uint _amount) external returns (bool);\r\n    function transferFrom(address _from, address _to, uint _amount) external returns (bool);\r\n    function allocateTo(address recipient, uint value) external;\r\n}\r\ncontract aTokenMockup\r\n\r\n{\r\n\r\n    using SafeMath for uint;\r\n\r\n    mapping (address => uint) public daiBalances;\r\n    mapping (address => uint) public aTokenBalances;\r\n\r\n    Cash underlying;\r\n\r\n    constructor(address _cashAddress) { \r\n        underlying = Cash(_cashAddress);\r\n    }\r\n\r\n    function balanceOf(address _owner) public view returns (uint)\r\n    {\r\n        return aTokenBalances[_owner];\r\n    }\r\n\r\n    function deposit(address stfu, uint mintAmount, uint16 gtfo) public\r\n    {\r\n        stfu;\r\n        gtfo;\r\n        underlying.transferFrom(msg.sender, address(this), mintAmount);\r\n        daiBalances[msg.sender] = daiBalances[msg.sender].add(mintAmount);\r\n        aTokenBalances[msg.sender] = aTokenBalances[msg.sender].add(mintAmount);\r\n    }\r\n\r\n    function generate10PercentInterest(address _owner) public {\r\n        uint _10percent = daiBalances[_owner].div(10);\r\n        underlying.allocateTo(address(this), _10percent);\r\n        daiBalances[_owner] = daiBalances[_owner].add(_10percent);\r\n        aTokenBalances[_owner] = aTokenBalances[_owner].add(_10percent);\r\n    }\r\n\r\n    function redeem(uint redeemAmount) public\r\n    {\r\n        aTokenBalances[msg.sender] = aTokenBalances[msg.sender].sub(redeemAmount);\r\n        underlying.transfer(msg.sender, redeemAmount);\r\n    }\r\n\r\n\r\n}",
  "sourcePath": "C:/Users/anyth/Documents/GitHub/StakeYourName/contracts/SimulatedContracts/aTokenMockup.sol",
  "compiler": {
    "name": "solc",
    "version": "0.7.6+commit.7338295f.Emscripten.clang"
  },
  "schemaVersion": "3.3.3",
  "updatedAt": "2021-02-01T15:31:38.092Z",
  "devdoc": {
    "kind": "dev",
    "methods": {},
    "version": 1
  },
  "userdoc": {
    "kind": "user",
    "methods": {},
    "version": 1
  }
}