{
  "contractName": "BaseRegistrarSim",
  "abi": [
    {
      "anonymous": false,
      "inputs": [
        {
          "indexed": true,
          "internalType": "address",
          "name": "previousOwner",
          "type": "address"
        },
        {
          "indexed": true,
          "internalType": "address",
          "name": "newOwner",
          "type": "address"
        }
      ],
      "name": "OwnershipTransferred",
      "type": "event"
    },
    {
      "inputs": [],
      "name": "owner",
      "outputs": [
        {
          "internalType": "address",
          "name": "",
          "type": "address"
        }
      ],
      "stateMutability": "view",
      "type": "function"
    },
    {
      "inputs": [],
      "name": "renounceOwnership",
      "outputs": [],
      "stateMutability": "nonpayable",
      "type": "function"
    },
    {
      "inputs": [
        {
          "internalType": "address",
          "name": "newOwner",
          "type": "address"
        }
      ],
      "name": "transferOwnership",
      "outputs": [],
      "stateMutability": "nonpayable",
      "type": "function"
    },
    {
      "inputs": [],
      "name": "ens",
      "outputs": [
        {
          "internalType": "address",
          "name": "",
          "type": "address"
        }
      ],
      "stateMutability": "view",
      "type": "function"
    },
    {
      "inputs": [
        {
          "internalType": "string",
          "name": "_id",
          "type": "string"
        },
        {
          "internalType": "uint256",
          "name": "_duration",
          "type": "uint256"
        }
      ],
      "name": "renew",
      "outputs": [],
      "stateMutability": "payable",
      "type": "function"
    },
    {
      "inputs": [
        {
          "internalType": "uint256",
          "name": "_id",
          "type": "uint256"
        }
      ],
      "name": "nameExpires",
      "outputs": [
        {
          "internalType": "uint256",
          "name": "",
          "type": "uint256"
        }
      ],
      "stateMutability": "view",
      "type": "function"
    },
    {
      "inputs": [],
      "name": "withdraw",
      "outputs": [],
      "stateMutability": "nonpayable",
      "type": "function"
    },
    {
      "inputs": [
        {
          "internalType": "address",
          "name": "_ensAddress",
          "type": "address"
        }
      ],
      "name": "updateENS",
      "outputs": [],
      "stateMutability": "nonpayable",
      "type": "function"
    },
    {
      "inputs": [
        {
          "internalType": "uint256",
          "name": "_name",
          "type": "uint256"
        },
        {
          "internalType": "uint256",
          "name": "_expiry",
          "type": "uint256"
        }
      ],
      "name": "updateName",
      "outputs": [],
      "stateMutability": "nonpayable",
      "type": "function"
    },
    {
      "inputs": [],
      "name": "day",
      "outputs": [],
      "stateMutability": "nonpayable",
      "type": "function"
    },
    {
      "inputs": [],
      "name": "month",
      "outputs": [],
      "stateMutability": "nonpayable",
      "type": "function"
    },
    {
      "inputs": [
        {
          "internalType": "bytes32",
          "name": "_bytes",
          "type": "bytes32"
        }
      ],
      "name": "convertBytesToUint",
      "outputs": [
        {
          "internalType": "uint256",
          "name": "",
          "type": "uint256"
        }
      ],
      "stateMutability": "pure",
      "type": "function"
    },
    {
      "inputs": [
        {
          "internalType": "uint256",
          "name": "_uint",
          "type": "uint256"
        }
      ],
      "name": "convertUintToBytes",
      "outputs": [
        {
          "internalType": "bytes32",
          "name": "",
          "type": "bytes32"
        }
      ],
      "stateMutability": "pure",
      "type": "function"
    },
    {
      "inputs": [
        {
          "internalType": "string",
          "name": "_subdomain",
          "type": "string"
        },
        {
          "internalType": "bytes32",
          "name": "_name",
          "type": "bytes32"
        }
      ],
      "name": "computeHash",
      "outputs": [
        {
          "internalType": "bytes32",
          "name": "namehash",
          "type": "bytes32"
        }
      ],
      "stateMutability": "pure",
      "type": "function"
    },
    {
      "inputs": [],
      "name": "retrieveETH",
      "outputs": [],
      "stateMutability": "nonpayable",
      "type": "function"
    }
  ],
  "bytecode": "0x60806040526000600160006101000a81548173ffffffffffffffffffffffffffffffffffffffff021916908373ffffffffffffffffffffffffffffffffffffffff1602179055506307101b7b600255600060035534801561005f57600080fd5b50600061007061011360201b60201c565b9050806000806101000a81548173ffffffffffffffffffffffffffffffffffffffff021916908373ffffffffffffffffffffffffffffffffffffffff1602179055508073ffffffffffffffffffffffffffffffffffffffff16600073ffffffffffffffffffffffffffffffffffffffff167f8be0079c531659141344cd1fd0a4f28419497f9722a3daafe3b4186f6b6457e060405160405180910390a35061011b565b600033905090565b61111d8061012a6000396000f3fe6080604052600436106100e85760003560e01c80638da5cb5b1161008a578063bb452db411610059578063bb452db414610419578063d5b014c314610468578063d6e4fa861461047f578063f2fde38b146104ce576100e8565b80638da5cb5b146102b5578063acf1a841146102f6578063ae55c35d14610379578063ae76173e146103ca576100e8565b806361f6bc2c116100c657806361f6bc2c1461018a578063702921f514610270578063715018a6146102875780637b76ac911461029e576100e8565b80631a20261e146100ed5780633ccfd60b146101325780633f15457f14610149575b600080fd5b3480156100f957600080fd5b506101306004803603604081101561011057600080fd5b81019080803590602001909291908035906020019092919050505061051f565b005b34801561013e57600080fd5b50610147610676565b005b34801561015557600080fd5b5061015e610787565b604051808273ffffffffffffffffffffffffffffffffffffffff16815260200191505060405180910390f35b34801561019657600080fd5b5061025a600480360360408110156101ad57600080fd5b81019080803590602001906401000000008111156101ca57600080fd5b8201836020820111156101dc57600080fd5b803590602001918460018302840111640100000000831117156101fe57600080fd5b91908080601f016020809104026020016040519081016040528093929190818152602001838380828437600081840152601f19601f820116905080830192505050505050509192919290803590602001909291905050506107b1565b6040518082815260200191505060405180910390f35b34801561027c57600080fd5b5061028561085b565b005b34801561029357600080fd5b5061029c6108d9565b005b3480156102aa57600080fd5b506102b3610a5f565b005b3480156102c157600080fd5b506102ca610add565b604051808273ffffffffffffffffffffffffffffffffffffffff16815260200191505060405180910390f35b6103776004803603604081101561030c57600080fd5b810190808035906020019064010000000081111561032957600080fd5b82018360208201111561033b57600080fd5b8035906020019184600183028401116401000000008311171561035d57600080fd5b909192939192939080359060200190929190505050610b06565b005b34801561038557600080fd5b506103c86004803603602081101561039c57600080fd5b81019080803573ffffffffffffffffffffffffffffffffffffffff169060200190929190505050610d18565b005b3480156103d657600080fd5b50610403600480360360208110156103ed57600080fd5b8101908080359060200190929190505050610d5c565b6040518082815260200191505060405180910390f35b34801561042557600080fd5b506104526004803603602081101561043c57600080fd5b8101908080359060200190929190505050610d6e565b6040518082815260200191505060405180910390f35b34801561047457600080fd5b5061047d610d80565b005b34801561048b57600080fd5b506104b8600480360360208110156104a257600080fd5b8101908080359060200190929190505050610e91565b6040518082815260200191505060405180910390f35b3480156104da57600080fd5b5061051d600480360360208110156104f157600080fd5b81019080803573ffffffffffffffffffffffffffffffffffffffff169060200190929190505050610eae565b005b600081146105d7576000805b60058054905081101561058157836005828154811061054657fe5b9060005260206000200154141561057457826004600086815260200190815260200160002081905550600191505b808060010191505061052b565b506000151581151514156105d15760058390806001815401808255809150506001900390600052602060002001600090919091909150558160046000858152602001908152602001600020819055505b50610672565b60005b6005805490508110156106705782600582815481106105f557fe5b906000526020600020015414156106635760056001600580549050038154811061061b57fe5b90600052602060002001546005828154811061063357fe5b9060005260206000200181905550600580548061064c57fe5b600190038181906000526020600020016000905590555b80806001019150506105da565b505b5050565b61067e6110b9565b73ffffffffffffffffffffffffffffffffffffffff1660008054906101000a900473ffffffffffffffffffffffffffffffffffffffff1673ffffffffffffffffffffffffffffffffffffffff161461073e576040517f08c379a00000000000000000000000000000000000000000000000000000000081526004018080602001828103825260208152602001807f4f776e61626c653a2063616c6c6572206973206e6f7420746865206f776e657281525060200191505060405180910390fd5b3373ffffffffffffffffffffffffffffffffffffffff166108fc479081150290604051600060405180830381858888f19350505050158015610784573d6000803e3d6000fd5b50565b6000600160009054906101000a900473ffffffffffffffffffffffffffffffffffffffff16905090565b600081836040516020018082805190602001908083835b602083106107eb57805182526020820191506020810190506020830392506107c8565b6001836020036101000a03801982511681845116808217855250505050505090500191505060405160208183030381529060405280519060200120604051602001808381526020018281526020019250505060405160208183030381529060405280519060200120905092915050565b60005b6005805490508110156108d6576224ea00600460006005848154811061088057fe5b90600052602060002001548152602001908152602001600020540360046000600584815481106108ac57fe5b9060005260206000200154815260200190815260200160002081905550808060010191505061085e565b50565b6108e16110b9565b73ffffffffffffffffffffffffffffffffffffffff1660008054906101000a900473ffffffffffffffffffffffffffffffffffffffff1673ffffffffffffffffffffffffffffffffffffffff16146109a1576040517f08c379a00000000000000000000000000000000000000000000000000000000081526004018080602001828103825260208152602001807f4f776e61626c653a2063616c6c6572206973206e6f7420746865206f776e657281525060200191505060405180910390fd5b600073ffffffffffffffffffffffffffffffffffffffff1660008054906101000a900473ffffffffffffffffffffffffffffffffffffffff1673ffffffffffffffffffffffffffffffffffffffff167f8be0079c531659141344cd1fd0a4f28419497f9722a3daafe3b4186f6b6457e060405160405180910390a360008060006101000a81548173ffffffffffffffffffffffffffffffffffffffff021916908373ffffffffffffffffffffffffffffffffffffffff160217905550565b60005b600580549050811015610ada57620151806004600060058481548110610a8457fe5b9060005260206000200154815260200190815260200160002054036004600060058481548110610ab057fe5b90600052602060002001548152602001908152602001600020819055508080600101915050610a62565b50565b60008060009054906101000a900473ffffffffffffffffffffffffffffffffffffffff16905090565b60025481023411610b1657600080fd5b60006002548202905060606040518060400160405280600381526020017f657468000000000000000000000000000000000000000000000000000000000081525090506000610bb586868080601f016020809104026020016040519081016040528093929190818152602001838380828437600081840152601f19601f82011690508083019250505050505050610bb0846000801b6107b1565b6107b1565b90506000610bc282610d6e565b90506000805b600580549050811015610c06578260058281548110610be357fe5b90600052602060002001541415610bf957600191505b8080600101915050610bc8565b50600090508015610c8a576000610c85576040517f08c379a000000000000000000000000000000000000000000000000000000000815260040180806020018281038252600e8152602001807f6e616d65206e6f7420666f756e6400000000000000000000000000000000000081525060200191505060405180910390fd5b610d0e565b85600460008481526020019081526020016000205401600460008481526020019081526020016000208190555084600354016003819055503373ffffffffffffffffffffffffffffffffffffffff166108fc60035447039081150290604051600060405180830381858888f19350505050158015610d0c573d6000803e3d6000fd5b505b5050505050505050565b80600160006101000a81548173ffffffffffffffffffffffffffffffffffffffff021916908373ffffffffffffffffffffffffffffffffffffffff16021790555050565b6000808260001b905080915050919050565b6000808260001c905080915050919050565b610d886110b9565b73ffffffffffffffffffffffffffffffffffffffff1660008054906101000a900473ffffffffffffffffffffffffffffffffffffffff1673ffffffffffffffffffffffffffffffffffffffff1614610e48576040517f08c379a00000000000000000000000000000000000000000000000000000000081526004018080602001828103825260208152602001807f4f776e61626c653a2063616c6c6572206973206e6f7420746865206f776e657281525060200191505060405180910390fd5b3373ffffffffffffffffffffffffffffffffffffffff166108fc479081150290604051600060405180830381858888f19350505050158015610e8e573d6000803e3d6000fd5b50565b600060046000838152602001908152602001600020549050919050565b610eb66110b9565b73ffffffffffffffffffffffffffffffffffffffff1660008054906101000a900473ffffffffffffffffffffffffffffffffffffffff1673ffffffffffffffffffffffffffffffffffffffff1614610f76576040517f08c379a00000000000000000000000000000000000000000000000000000000081526004018080602001828103825260208152602001807f4f776e61626c653a2063616c6c6572206973206e6f7420746865206f776e657281525060200191505060405180910390fd5b600073ffffffffffffffffffffffffffffffffffffffff168173ffffffffffffffffffffffffffffffffffffffff161415610ffc576040517f08c379a00000000000000000000000000000000000000000000000000000000081526004018080602001828103825260268152602001806110c26026913960400191505060405180910390fd5b8073ffffffffffffffffffffffffffffffffffffffff1660008054906101000a900473ffffffffffffffffffffffffffffffffffffffff1673ffffffffffffffffffffffffffffffffffffffff167f8be0079c531659141344cd1fd0a4f28419497f9722a3daafe3b4186f6b6457e060405160405180910390a3806000806101000a81548173ffffffffffffffffffffffffffffffffffffffff021916908373ffffffffffffffffffffffffffffffffffffffff16021790555050565b60003390509056fe4f776e61626c653a206e6577206f776e657220697320746865207a65726f2061646472657373a2646970667358221220889153bdb8babebdd6d89d609a7e575f9ae0172c63bfcc6fcf143a28a132435564736f6c63430007040033",
  "immutableReferences": {},
  "source": "// SPDX-License-Identifier: MIT\r\npragma solidity ^0.7.0;\r\n\r\nimport \"@openzeppelin/contracts/access/Ownable.sol\";\r\n\r\ncontract BaseRegistrarSim is Ownable {\r\n    address ensAddress = address(0);\r\n    uint256 renewPrice = 118496123;\r\n    uint256 balance = 0;\r\n    \r\n    mapping (uint256 => uint256) expiry;\r\n    uint256[] names;\r\n\r\n    // Simulated functions\r\n    function ens() public view returns(address){\r\n        return (ensAddress);\r\n    }\r\n    function renew(string calldata _id, uint256 _duration) public payable {\r\n        require(msg.value > _duration * renewPrice);\r\n        uint256 _cost = _duration * renewPrice;\r\n        string memory _eth;\r\n        _eth = \"eth\";\r\n        bytes32 nameHash = computeHash(_id,computeHash(_eth, bytes32(0x0)));\r\n        uint256 uintNameHash = convertBytesToUint(nameHash);\r\n        bool _exists = false;\r\n        for (uint256 i; i < names.length; i++){\r\n            if(names[i] == uintNameHash){\r\n                _exists = true;\r\n            }\r\n        }\r\n        if(_exists = false){\r\n            require(false, \"name not found\");\r\n        } else {\r\n            expiry[uintNameHash] = expiry[uintNameHash] + _duration;\r\n            balance = balance + _cost;\r\n            msg.sender.transfer(address(this).balance - balance);\r\n        }\r\n    }\r\n\r\n    function nameExpires(uint256 _id) public view returns(uint256){\r\n        return (expiry[_id]);\r\n    }\r\n\r\n\r\n    // admin functions\r\n    function withdraw() public onlyOwner {\r\n        msg.sender.transfer(address(this).balance);\r\n    }\r\n    function updateENS(address _ensAddress) public {\r\n        ensAddress = _ensAddress;\r\n    }\r\n    /// either adds, updates or removes a name\r\n    function updateName(uint256 _name, uint256 _expiry) public {\r\n        if(_expiry != 0){\r\n            bool _exists = false;\r\n            for (uint256 i; i < names.length; i++){\r\n                if(names[i] == _name){\r\n                    expiry[_name] = _expiry;\r\n                    _exists = true;\r\n                }\r\n\r\n            }\r\n            if (_exists == false){\r\n                names.push(_name);\r\n                expiry[_name] = _expiry; \r\n            }\r\n        } else {\r\n            for (uint256 i; i < names.length; i++){\r\n                if(names[i] == _name){\r\n                    names[i] = names[names.length-1];\r\n                    names.pop();\r\n                }\r\n\r\n            }\r\n        }\r\n        \r\n    }\r\n    function day() public {\r\n        for (uint256 i; i < names.length; i++){\r\n            expiry[names[i]] = expiry[names[i]] - 1 days;\r\n        }\r\n    }\r\n    function month() public {\r\n        for (uint256 i; i < names.length; i++){\r\n            expiry[names[i]] = expiry[names[i]] - 28 days;\r\n        }\r\n    }\r\n\r\n    function convertBytesToUint(bytes32 _bytes) public pure returns(uint256){\r\n        uint256 _uint = uint256(_bytes);\r\n        return (_uint);\r\n    }\r\n    function convertUintToBytes(uint256 _uint) public pure returns(bytes32){\r\n        bytes32 _bytes = bytes32(_uint);\r\n        return (_bytes);\r\n    }\r\n\r\n    function computeHash(string memory _subdomain, bytes32 _name) public pure returns (bytes32 namehash) {\r\n        namehash = keccak256(abi.encodePacked(_name, keccak256(abi.encodePacked(_subdomain))));\r\n    }\r\n\r\n    function retrieveETH() external onlyOwner {\r\n        msg.sender.transfer(address(this).balance);\r\n    }\r\n\r\n}",
  "sourcePath": "C:/Users/anyth/Documents/GitHub/StakeYourName/contracts/SimulatedContracts/ENSBaseRegistrarSim.sol",
  "compiler": {
    "name": "solc",
    "version": "0.7.4+commit.3f05b770.Emscripten.clang"
  },
  "schemaVersion": "3.3.3",
  "updatedAt": "2021-01-30T14:23:48.261Z",
  "devdoc": {
    "kind": "dev",
    "methods": {
      "owner()": {
        "details": "Returns the address of the current owner."
      },
      "renounceOwnership()": {
        "details": "Leaves the contract without owner. It will not be possible to call `onlyOwner` functions anymore. Can only be called by the current owner. NOTE: Renouncing ownership will leave the contract without an owner, thereby removing any functionality that is only available to the owner."
      },
      "transferOwnership(address)": {
        "details": "Transfers ownership of the contract to a new account (`newOwner`). Can only be called by the current owner."
      }
    },
    "version": 1
  },
  "userdoc": {
    "kind": "user",
    "methods": {
      "updateName(uint256,uint256)": {
        "notice": "either adds, updates or removes a name"
      }
    },
    "version": 1
  }
}