{
  "contractName": "BulkRenewalSim",
  "abi": [
    {
      "anonymous": false,
      "inputs": [
        {
          "indexed": true,
          "internalType": "address",
          "name": "previousOwner",
          "type": "address"
        },
        {
          "indexed": true,
          "internalType": "address",
          "name": "newOwner",
          "type": "address"
        }
      ],
      "name": "OwnershipTransferred",
      "type": "event"
    },
    {
      "inputs": [],
      "name": "owner",
      "outputs": [
        {
          "internalType": "address",
          "name": "",
          "type": "address"
        }
      ],
      "stateMutability": "view",
      "type": "function"
    },
    {
      "inputs": [],
      "name": "renounceOwnership",
      "outputs": [],
      "stateMutability": "nonpayable",
      "type": "function"
    },
    {
      "inputs": [
        {
          "internalType": "address",
          "name": "newOwner",
          "type": "address"
        }
      ],
      "name": "transferOwnership",
      "outputs": [],
      "stateMutability": "nonpayable",
      "type": "function"
    },
    {
      "inputs": [],
      "name": "ens",
      "outputs": [
        {
          "internalType": "address",
          "name": "",
          "type": "address"
        }
      ],
      "stateMutability": "view",
      "type": "function"
    },
    {
      "inputs": [
        {
          "internalType": "string[]",
          "name": "_id",
          "type": "string[]"
        },
        {
          "internalType": "uint256",
          "name": "_duration",
          "type": "uint256"
        }
      ],
      "name": "renewAll",
      "outputs": [],
      "stateMutability": "payable",
      "type": "function"
    },
    {
      "inputs": [
        {
          "internalType": "bytes4",
          "name": "",
          "type": "bytes4"
        }
      ],
      "name": "supportsInterface",
      "outputs": [
        {
          "internalType": "bool",
          "name": "",
          "type": "bool"
        }
      ],
      "stateMutability": "pure",
      "type": "function"
    },
    {
      "inputs": [],
      "name": "withdraw",
      "outputs": [],
      "stateMutability": "nonpayable",
      "type": "function"
    },
    {
      "inputs": [
        {
          "internalType": "address",
          "name": "_ensAddress",
          "type": "address"
        }
      ],
      "name": "updateENS",
      "outputs": [],
      "stateMutability": "nonpayable",
      "type": "function"
    },
    {
      "inputs": [
        {
          "internalType": "address",
          "name": "_ensBaseRegAddress",
          "type": "address"
        }
      ],
      "name": "updateBaseRegistrar",
      "outputs": [],
      "stateMutability": "nonpayable",
      "type": "function"
    }
  ],
  "bytecode": "0x60806040526000600160006101000a81548173ffffffffffffffffffffffffffffffffffffffff021916908373ffffffffffffffffffffffffffffffffffffffff1602179055506000600260006101000a81548173ffffffffffffffffffffffffffffffffffffffff021916908373ffffffffffffffffffffffffffffffffffffffff16021790555034801561009457600080fd5b5060006100a561014860201b60201c565b9050806000806101000a81548173ffffffffffffffffffffffffffffffffffffffff021916908373ffffffffffffffffffffffffffffffffffffffff1602179055508073ffffffffffffffffffffffffffffffffffffffff16600073ffffffffffffffffffffffffffffffffffffffff167f8be0079c531659141344cd1fd0a4f28419497f9722a3daafe3b4186f6b6457e060405160405180910390a350610150565b600033905090565b610c2e8061015f6000396000f3fe6080604052600436106100865760003560e01c80638da5cb5b116100595780638da5cb5b14610121578063972466711461014c578063ae55c35d14610175578063e8d6dbb41461019e578063f2fde38b146101ba57610086565b806301ffc9a71461008b5780633ccfd60b146100c85780633f15457f146100df578063715018a61461010a575b600080fd5b34801561009757600080fd5b506100b260048036038101906100ad91906109a6565b6101e3565b6040516100bf9190610a44565b60405180910390f35b3480156100d457600080fd5b506100dd6101ee565b005b3480156100eb57600080fd5b506100f46102ff565b6040516101019190610a29565b60405180910390f35b34801561011657600080fd5b5061011f610329565b005b34801561012d57600080fd5b506101366104af565b6040516101439190610a29565b60405180910390f35b34801561015857600080fd5b50610173600480360381019061016e9190610925565b6104d8565b005b34801561018157600080fd5b5061019c60048036038101906101979190610925565b61051c565b005b6101b860048036038101906101b3919061094e565b610560565b005b3480156101c657600080fd5b506101e160048036038101906101dc9190610925565b610689565b005b600060019050919050565b6101f6610894565b73ffffffffffffffffffffffffffffffffffffffff1660008054906101000a900473ffffffffffffffffffffffffffffffffffffffff1673ffffffffffffffffffffffffffffffffffffffff16146102b6576040517f08c379a00000000000000000000000000000000000000000000000000000000081526004018080602001828103825260208152602001807f4f776e61626c653a2063616c6c6572206973206e6f7420746865206f776e657281525060200191505060405180910390fd5b3373ffffffffffffffffffffffffffffffffffffffff166108fc479081150290604051600060405180830381858888f193505050501580156102fc573d6000803e3d6000fd5b50565b6000600160009054906101000a900473ffffffffffffffffffffffffffffffffffffffff16905090565b610331610894565b73ffffffffffffffffffffffffffffffffffffffff1660008054906101000a900473ffffffffffffffffffffffffffffffffffffffff1673ffffffffffffffffffffffffffffffffffffffff16146103f1576040517f08c379a00000000000000000000000000000000000000000000000000000000081526004018080602001828103825260208152602001807f4f776e61626c653a2063616c6c6572206973206e6f7420746865206f776e657281525060200191505060405180910390fd5b600073ffffffffffffffffffffffffffffffffffffffff1660008054906101000a900473ffffffffffffffffffffffffffffffffffffffff1673ffffffffffffffffffffffffffffffffffffffff167f8be0079c531659141344cd1fd0a4f28419497f9722a3daafe3b4186f6b6457e060405160405180910390a360008060006101000a81548173ffffffffffffffffffffffffffffffffffffffff021916908373ffffffffffffffffffffffffffffffffffffffff160217905550565b60008060009054906101000a900473ffffffffffffffffffffffffffffffffffffffff16905090565b80600260006101000a81548173ffffffffffffffffffffffffffffffffffffffff021916908373ffffffffffffffffffffffffffffffffffffffff16021790555050565b80600160006101000a81548173ffffffffffffffffffffffffffffffffffffffff021916908373ffffffffffffffffffffffffffffffffffffffff16021790555050565b6000341161056d57600080fd5b6000600260009054906101000a900473ffffffffffffffffffffffffffffffffffffffff16905060005b8484905081101561063b578173ffffffffffffffffffffffffffffffffffffffff1663acf1a841478787858181106105cb57fe5b90506020028101906105dd9190610a91565b876040518563ffffffff1660e01b81526004016105fc93929190610a5f565b6000604051808303818588803b15801561061557600080fd5b505af1158015610629573d6000803e3d6000fd5b50505050508080600101915050610597565b503373ffffffffffffffffffffffffffffffffffffffff166108fc479081150290604051600060405180830381858888f19350505050158015610682573d6000803e3d6000fd5b5050505050565b610691610894565b73ffffffffffffffffffffffffffffffffffffffff1660008054906101000a900473ffffffffffffffffffffffffffffffffffffffff1673ffffffffffffffffffffffffffffffffffffffff1614610751576040517f08c379a00000000000000000000000000000000000000000000000000000000081526004018080602001828103825260208152602001807f4f776e61626c653a2063616c6c6572206973206e6f7420746865206f776e657281525060200191505060405180910390fd5b600073ffffffffffffffffffffffffffffffffffffffff168173ffffffffffffffffffffffffffffffffffffffff1614156107d7576040517f08c379a0000000000000000000000000000000000000000000000000000000008152600401808060200182810382526026815260200180610bd36026913960400191505060405180910390fd5b8073ffffffffffffffffffffffffffffffffffffffff1660008054906101000a900473ffffffffffffffffffffffffffffffffffffffff1673ffffffffffffffffffffffffffffffffffffffff167f8be0079c531659141344cd1fd0a4f28419497f9722a3daafe3b4186f6b6457e060405160405180910390a3806000806101000a81548173ffffffffffffffffffffffffffffffffffffffff021916908373ffffffffffffffffffffffffffffffffffffffff16021790555050565b600033905090565b6000813590506108ab81610b8d565b92915050565b60008083601f8401126108c357600080fd5b8235905067ffffffffffffffff8111156108dc57600080fd5b6020830191508360208202830111156108f457600080fd5b9250929050565b60008135905061090a81610ba4565b92915050565b60008135905061091f81610bbb565b92915050565b60006020828403121561093757600080fd5b60006109458482850161089c565b91505092915050565b60008060006040848603121561096357600080fd5b600084013567ffffffffffffffff81111561097d57600080fd5b610989868287016108b1565b9350935050602061099c86828701610910565b9150509250925092565b6000602082840312156109b857600080fd5b60006109c6848285016108fb565b91505092915050565b6109d881610af9565b82525050565b6109e781610b0b565b82525050565b60006109f98385610ae8565b9350610a06838584610b6d565b610a0f83610b7c565b840190509392505050565b610a2381610b63565b82525050565b6000602082019050610a3e60008301846109cf565b92915050565b6000602082019050610a5960008301846109de565b92915050565b60006040820190508181036000830152610a7a8185876109ed565b9050610a896020830184610a1a565b949350505050565b60008083356001602003843603038112610aaa57600080fd5b80840192508235915067ffffffffffffffff821115610ac857600080fd5b602083019250600182023603831315610ae057600080fd5b509250929050565b600082825260208201905092915050565b6000610b0482610b43565b9050919050565b60008115159050919050565b60007fffffffff0000000000000000000000000000000000000000000000000000000082169050919050565b600073ffffffffffffffffffffffffffffffffffffffff82169050919050565b6000819050919050565b82818337600083830152505050565b6000601f19601f8301169050919050565b610b9681610af9565b8114610ba157600080fd5b50565b610bad81610b17565b8114610bb857600080fd5b50565b610bc481610b63565b8114610bcf57600080fd5b5056fe4f776e61626c653a206e6577206f776e657220697320746865207a65726f2061646472657373a2646970667358221220398e1da4b3b38ff5e26aca00643abe45c0b8811b812ec3ed565e2b1b7dc5524964736f6c63430007040033",
  "immutableReferences": {},
  "source": "// SPDX-License-Identifier: MIT\r\npragma solidity ^0.7.0;\r\npragma experimental ABIEncoderV2;\r\n\r\nimport \"@openzeppelin/contracts/access/Ownable.sol\";\r\nimport \"contracts/SimulatedContracts/IENSBaseRegistrarSim.sol\";\r\n\r\ncontract BulkRenewalSim is Ownable {\r\n    address ensAddress = address(0);\r\n    address ensBaseRegistrar = address(0);\r\n\r\n    // Simulated functions\r\n    function ens() public view returns(address){\r\n        return (ensAddress);\r\n    }\r\n    function renewAll(string[] calldata _id, uint256 _duration) public payable {\r\n        require(msg.value > 0);\r\n        IBaseRegistrarSim _baseReg = IBaseRegistrarSim(ensBaseRegistrar);\r\n        for(uint256 i; i < _id.length; i++){\r\n            _baseReg.renew{value:(address(this).balance)}(_id[i], _duration);\r\n        }\r\n        msg.sender.transfer(address(this).balance);\r\n    }\r\n    function supportsInterface(bytes4) public pure returns(bool){\r\n        return (true);\r\n    }\r\n\r\n\r\n    // admin functions\r\n    function withdraw() public onlyOwner {\r\n        msg.sender.transfer(address(this).balance);\r\n    }\r\n    function updateENS(address _ensAddress) public {\r\n        ensAddress = _ensAddress;\r\n    }\r\n    function updateBaseRegistrar(address _ensBaseRegAddress) public {\r\n        ensBaseRegistrar = _ensBaseRegAddress;\r\n    }\r\n}",
  "sourcePath": "C:/Users/anyth/Documents/GitHub/StakeYourName/contracts/SimulatedContracts/ENSBulkRenewalSim.sol",
  "compiler": {
    "name": "solc",
    "version": "0.7.4+commit.3f05b770.Emscripten.clang"
  },
  "schemaVersion": "3.3.3",
  "updatedAt": "2021-01-30T14:24:46.007Z",
  "devdoc": {
    "kind": "dev",
    "methods": {
      "owner()": {
        "details": "Returns the address of the current owner."
      },
      "renounceOwnership()": {
        "details": "Leaves the contract without owner. It will not be possible to call `onlyOwner` functions anymore. Can only be called by the current owner. NOTE: Renouncing ownership will leave the contract without an owner, thereby removing any functionality that is only available to the owner."
      },
      "transferOwnership(address)": {
        "details": "Transfers ownership of the contract to a new account (`newOwner`). Can only be called by the current owner."
      }
    },
    "version": 1
  },
  "userdoc": {
    "kind": "user",
    "methods": {},
    "version": 1
  }
}