{
  "contractName": "ENSBulkRenewalSim",
  "abi": [
    {
      "inputs": [
        {
          "internalType": "address",
          "name": "_ensAddress",
          "type": "address"
        },
        {
          "internalType": "address",
          "name": "_RegCont",
          "type": "address"
        }
      ],
      "stateMutability": "nonpayable",
      "type": "constructor"
    },
    {
      "anonymous": false,
      "inputs": [
        {
          "indexed": true,
          "internalType": "address",
          "name": "previousOwner",
          "type": "address"
        },
        {
          "indexed": true,
          "internalType": "address",
          "name": "newOwner",
          "type": "address"
        }
      ],
      "name": "OwnershipTransferred",
      "type": "event"
    },
    {
      "inputs": [],
      "name": "owner",
      "outputs": [
        {
          "internalType": "address",
          "name": "",
          "type": "address"
        }
      ],
      "stateMutability": "view",
      "type": "function"
    },
    {
      "inputs": [],
      "name": "renounceOwnership",
      "outputs": [],
      "stateMutability": "nonpayable",
      "type": "function"
    },
    {
      "inputs": [
        {
          "internalType": "address",
          "name": "newOwner",
          "type": "address"
        }
      ],
      "name": "transferOwnership",
      "outputs": [],
      "stateMutability": "nonpayable",
      "type": "function"
    },
    {
      "inputs": [],
      "name": "ens",
      "outputs": [
        {
          "internalType": "address",
          "name": "",
          "type": "address"
        }
      ],
      "stateMutability": "view",
      "type": "function"
    },
    {
      "inputs": [
        {
          "internalType": "string[]",
          "name": "_id",
          "type": "string[]"
        },
        {
          "internalType": "uint256",
          "name": "_duration",
          "type": "uint256"
        }
      ],
      "name": "renewAll",
      "outputs": [],
      "stateMutability": "payable",
      "type": "function"
    },
    {
      "inputs": [
        {
          "internalType": "bytes4",
          "name": "",
          "type": "bytes4"
        }
      ],
      "name": "supportsInterface",
      "outputs": [
        {
          "internalType": "bool",
          "name": "",
          "type": "bool"
        }
      ],
      "stateMutability": "pure",
      "type": "function"
    },
    {
      "inputs": [],
      "name": "withdraw",
      "outputs": [],
      "stateMutability": "nonpayable",
      "type": "function"
    },
    {
      "inputs": [
        {
          "internalType": "address",
          "name": "_ensAddress",
          "type": "address"
        }
      ],
      "name": "updateENS",
      "outputs": [],
      "stateMutability": "nonpayable",
      "type": "function"
    }
  ],
  "bytecode": "0x60806040523480156200001157600080fd5b5060405162000e8838038062000e88833981810160405281019062000037919062000205565b600062000049620001e660201b60201c565b9050806000806101000a81548173ffffffffffffffffffffffffffffffffffffffff021916908373ffffffffffffffffffffffffffffffffffffffff1602179055508073ffffffffffffffffffffffffffffffffffffffff16600073ffffffffffffffffffffffffffffffffffffffff167f8be0079c531659141344cd1fd0a4f28419497f9722a3daafe3b4186f6b6457e060405160405180910390a35081600160006101000a81548173ffffffffffffffffffffffffffffffffffffffff021916908373ffffffffffffffffffffffffffffffffffffffff16021790555080600260006101000a81548173ffffffffffffffffffffffffffffffffffffffff021916908373ffffffffffffffffffffffffffffffffffffffff16021790555060008290508073ffffffffffffffffffffffffffffffffffffffff166360cd9daa306040518263ffffffff1660e01b8152600401620001a9919062000257565b600060405180830381600087803b158015620001c457600080fd5b505af1158015620001d9573d6000803e3d6000fd5b50505050505050620002c2565b600033905090565b600081519050620001ff81620002a8565b92915050565b600080604083850312156200021957600080fd5b60006200022985828601620001ee565b92505060206200023c85828601620001ee565b9150509250929050565b620002518162000274565b82525050565b60006020820190506200026e600083018462000246565b92915050565b6000620002818262000288565b9050919050565b600073ffffffffffffffffffffffffffffffffffffffff82169050919050565b620002b38162000274565b8114620002bf57600080fd5b50565b610bb680620002d26000396000f3fe60806040526004361061007b5760003560e01c80638da5cb5b1161004e5780638da5cb5b14610116578063ae55c35d14610141578063e8d6dbb41461016a578063f2fde38b146101865761007b565b806301ffc9a7146100805780633ccfd60b146100bd5780633f15457f146100d4578063715018a6146100ff575b600080fd5b34801561008c57600080fd5b506100a760048036038101906100a2919061092e565b6101af565b6040516100b491906109cc565b60405180910390f35b3480156100c957600080fd5b506100d26101ba565b005b3480156100e057600080fd5b506100e96102cb565b6040516100f691906109b1565b60405180910390f35b34801561010b57600080fd5b506101146102f5565b005b34801561012257600080fd5b5061012b61047b565b60405161013891906109b1565b60405180910390f35b34801561014d57600080fd5b50610168600480360381019061016391906108ad565b6104a4565b005b610184600480360381019061017f91906108d6565b6104e8565b005b34801561019257600080fd5b506101ad60048036038101906101a891906108ad565b610611565b005b600060019050919050565b6101c261081c565b73ffffffffffffffffffffffffffffffffffffffff1660008054906101000a900473ffffffffffffffffffffffffffffffffffffffff1673ffffffffffffffffffffffffffffffffffffffff1614610282576040517f08c379a00000000000000000000000000000000000000000000000000000000081526004018080602001828103825260208152602001807f4f776e61626c653a2063616c6c6572206973206e6f7420746865206f776e657281525060200191505060405180910390fd5b3373ffffffffffffffffffffffffffffffffffffffff166108fc479081150290604051600060405180830381858888f193505050501580156102c8573d6000803e3d6000fd5b50565b6000600160009054906101000a900473ffffffffffffffffffffffffffffffffffffffff16905090565b6102fd61081c565b73ffffffffffffffffffffffffffffffffffffffff1660008054906101000a900473ffffffffffffffffffffffffffffffffffffffff1673ffffffffffffffffffffffffffffffffffffffff16146103bd576040517f08c379a00000000000000000000000000000000000000000000000000000000081526004018080602001828103825260208152602001807f4f776e61626c653a2063616c6c6572206973206e6f7420746865206f776e657281525060200191505060405180910390fd5b600073ffffffffffffffffffffffffffffffffffffffff1660008054906101000a900473ffffffffffffffffffffffffffffffffffffffff1673ffffffffffffffffffffffffffffffffffffffff167f8be0079c531659141344cd1fd0a4f28419497f9722a3daafe3b4186f6b6457e060405160405180910390a360008060006101000a81548173ffffffffffffffffffffffffffffffffffffffff021916908373ffffffffffffffffffffffffffffffffffffffff160217905550565b60008060009054906101000a900473ffffffffffffffffffffffffffffffffffffffff16905090565b80600160006101000a81548173ffffffffffffffffffffffffffffffffffffffff021916908373ffffffffffffffffffffffffffffffffffffffff16021790555050565b600034116104f557600080fd5b6000600260009054906101000a900473ffffffffffffffffffffffffffffffffffffffff16905060005b848490508110156105c3578173ffffffffffffffffffffffffffffffffffffffff1663acf1a8414787878581811061055357fe5b90506020028101906105659190610a19565b876040518563ffffffff1660e01b8152600401610584939291906109e7565b6000604051808303818588803b15801561059d57600080fd5b505af11580156105b1573d6000803e3d6000fd5b5050505050808060010191505061051f565b503373ffffffffffffffffffffffffffffffffffffffff166108fc479081150290604051600060405180830381858888f1935050505015801561060a573d6000803e3d6000fd5b5050505050565b61061961081c565b73ffffffffffffffffffffffffffffffffffffffff1660008054906101000a900473ffffffffffffffffffffffffffffffffffffffff1673ffffffffffffffffffffffffffffffffffffffff16146106d9576040517f08c379a00000000000000000000000000000000000000000000000000000000081526004018080602001828103825260208152602001807f4f776e61626c653a2063616c6c6572206973206e6f7420746865206f776e657281525060200191505060405180910390fd5b600073ffffffffffffffffffffffffffffffffffffffff168173ffffffffffffffffffffffffffffffffffffffff16141561075f576040517f08c379a0000000000000000000000000000000000000000000000000000000008152600401808060200182810382526026815260200180610b5b6026913960400191505060405180910390fd5b8073ffffffffffffffffffffffffffffffffffffffff1660008054906101000a900473ffffffffffffffffffffffffffffffffffffffff1673ffffffffffffffffffffffffffffffffffffffff167f8be0079c531659141344cd1fd0a4f28419497f9722a3daafe3b4186f6b6457e060405160405180910390a3806000806101000a81548173ffffffffffffffffffffffffffffffffffffffff021916908373ffffffffffffffffffffffffffffffffffffffff16021790555050565b600033905090565b60008135905061083381610b15565b92915050565b60008083601f84011261084b57600080fd5b8235905067ffffffffffffffff81111561086457600080fd5b60208301915083602082028301111561087c57600080fd5b9250929050565b60008135905061089281610b2c565b92915050565b6000813590506108a781610b43565b92915050565b6000602082840312156108bf57600080fd5b60006108cd84828501610824565b91505092915050565b6000806000604084860312156108eb57600080fd5b600084013567ffffffffffffffff81111561090557600080fd5b61091186828701610839565b9350935050602061092486828701610898565b9150509250925092565b60006020828403121561094057600080fd5b600061094e84828501610883565b91505092915050565b61096081610a81565b82525050565b61096f81610a93565b82525050565b60006109818385610a70565b935061098e838584610af5565b61099783610b04565b840190509392505050565b6109ab81610aeb565b82525050565b60006020820190506109c66000830184610957565b92915050565b60006020820190506109e16000830184610966565b92915050565b60006040820190508181036000830152610a02818587610975565b9050610a1160208301846109a2565b949350505050565b60008083356001602003843603038112610a3257600080fd5b80840192508235915067ffffffffffffffff821115610a5057600080fd5b602083019250600182023603831315610a6857600080fd5b509250929050565b600082825260208201905092915050565b6000610a8c82610acb565b9050919050565b60008115159050919050565b60007fffffffff0000000000000000000000000000000000000000000000000000000082169050919050565b600073ffffffffffffffffffffffffffffffffffffffff82169050919050565b6000819050919050565b82818337600083830152505050565b6000601f19601f8301169050919050565b610b1e81610a81565b8114610b2957600080fd5b50565b610b3581610a9f565b8114610b4057600080fd5b50565b610b4c81610aeb565b8114610b5757600080fd5b5056fe4f776e61626c653a206e6577206f776e657220697320746865207a65726f2061646472657373a2646970667358221220eb7a03fe08ee0004c467e0cd9888591dc08856e20e1f75db9682c382cefe32b564736f6c63430007040033",
  "immutableReferences": {},
  "source": "// SPDX-License-Identifier: MIT\r\npragma solidity ^0.7.0;\r\npragma experimental ABIEncoderV2;\r\n\r\nimport \"@openzeppelin/contracts/access/Ownable.sol\";\r\nimport \"contracts/SimulatedContracts/IENSRegControllerSim.sol\";\r\nimport \"contracts/SimulatedContracts/IENSSim.sol\";\r\n\r\ncontract ENSBulkRenewalSim is Ownable {\r\n    address ensAddress;\r\n    address ensRegCont;\r\n\r\n    constructor(address _ensAddress, address _RegCont){\r\n        ensAddress = _ensAddress;\r\n        ensRegCont = _RegCont;\r\n        IENSSim ensSim = IENSSim(_ensAddress);\r\n        ensSim.updateBulkReg(address(this));\r\n    }\r\n    // Simulated functions\r\n    function ens() public view returns(address){\r\n        return (ensAddress);\r\n    }\r\n    function renewAll(string[] calldata _id, uint256 _duration) public payable {\r\n        require(msg.value > 0);\r\n        IENSRegControllerSim _baseReg = IENSRegControllerSim(ensRegCont);\r\n        for(uint256 i; i < _id.length; i++){\r\n            _baseReg.renew{value:(address(this).balance)}(_id[i], _duration);\r\n        }\r\n        msg.sender.transfer(address(this).balance);\r\n    }\r\n    function supportsInterface(bytes4) public pure returns(bool){\r\n        return (true);\r\n    }\r\n\r\n\r\n    // admin functions\r\n    function withdraw() public onlyOwner {\r\n        msg.sender.transfer(address(this).balance);\r\n    }\r\n    function updateENS(address _ensAddress) public {\r\n        ensAddress = _ensAddress;\r\n    }\r\n}",
  "sourcePath": "C:/Users/anyth/Documents/GitHub/StakeYourName/contracts/SimulatedContracts/ENSBulkRenewalSim.sol",
  "compiler": {
    "name": "solc",
    "version": "0.7.4+commit.3f05b770.Emscripten.clang"
  },
  "schemaVersion": "3.3.3",
  "updatedAt": "2021-01-30T16:22:19.098Z",
  "devdoc": {
    "kind": "dev",
    "methods": {
      "owner()": {
        "details": "Returns the address of the current owner."
      },
      "renounceOwnership()": {
        "details": "Leaves the contract without owner. It will not be possible to call `onlyOwner` functions anymore. Can only be called by the current owner. NOTE: Renouncing ownership will leave the contract without an owner, thereby removing any functionality that is only available to the owner."
      },
      "transferOwnership(address)": {
        "details": "Transfers ownership of the contract to a new account (`newOwner`). Can only be called by the current owner."
      }
    },
    "version": 1
  },
  "userdoc": {
    "kind": "user",
    "methods": {},
    "version": 1
  }
}