{
  "contractName": "ENSBulkRenewalSim",
  "abi": [
    {
      "inputs": [
        {
          "internalType": "address",
          "name": "_ensAddress",
          "type": "address"
        },
        {
          "internalType": "address",
          "name": "_RegCont",
          "type": "address"
        }
      ],
      "stateMutability": "nonpayable",
      "type": "constructor"
    },
    {
      "anonymous": false,
      "inputs": [
        {
          "indexed": true,
          "internalType": "address",
          "name": "previousOwner",
          "type": "address"
        },
        {
          "indexed": true,
          "internalType": "address",
          "name": "newOwner",
          "type": "address"
        }
      ],
      "name": "OwnershipTransferred",
      "type": "event"
    },
    {
      "inputs": [],
      "name": "owner",
      "outputs": [
        {
          "internalType": "address",
          "name": "",
          "type": "address"
        }
      ],
      "stateMutability": "view",
      "type": "function",
      "constant": true
    },
    {
      "inputs": [],
      "name": "renounceOwnership",
      "outputs": [],
      "stateMutability": "nonpayable",
      "type": "function"
    },
    {
      "inputs": [
        {
          "internalType": "address",
          "name": "newOwner",
          "type": "address"
        }
      ],
      "name": "transferOwnership",
      "outputs": [],
      "stateMutability": "nonpayable",
      "type": "function"
    },
    {
      "inputs": [],
      "name": "ens",
      "outputs": [
        {
          "internalType": "address",
          "name": "",
          "type": "address"
        }
      ],
      "stateMutability": "view",
      "type": "function",
      "constant": true
    },
    {
      "inputs": [
        {
          "internalType": "string[]",
          "name": "_id",
          "type": "string[]"
        },
        {
          "internalType": "uint256",
          "name": "_duration",
          "type": "uint256"
        }
      ],
      "name": "renewAll",
      "outputs": [],
      "stateMutability": "payable",
      "type": "function",
      "payable": true
    },
    {
      "inputs": [
        {
          "internalType": "bytes4",
          "name": "",
          "type": "bytes4"
        }
      ],
      "name": "supportsInterface",
      "outputs": [
        {
          "internalType": "bool",
          "name": "",
          "type": "bool"
        }
      ],
      "stateMutability": "pure",
      "type": "function",
      "constant": true
    },
    {
      "inputs": [],
      "name": "withdraw",
      "outputs": [],
      "stateMutability": "nonpayable",
      "type": "function"
    },
    {
      "inputs": [
        {
          "internalType": "address",
          "name": "_ensAddress",
          "type": "address"
        }
      ],
      "name": "updateENS",
      "outputs": [],
      "stateMutability": "nonpayable",
      "type": "function"
    }
  ],
  "bytecode": "0x608060405234801561001057600080fd5b5060405161083e38038061083e83398101604081905261002f9161012f565b600061003961010f565b600080546001600160a01b0319166001600160a01b0383169081178255604051929350917f8be0079c531659141344cd1fd0a4f28419497f9722a3daafe3b4186f6b6457e0908290a350600180546001600160a01b038085166001600160a01b031992831681179093556002805491851691909216179055604051633066ced560e11b81528391906360cd9daa906100d5903090600401610161565b600060405180830381600087803b1580156100ef57600080fd5b505af1158015610103573d6000803e3d6000fd5b50505050505050610175565b3390565b80516001600160a01b038116811461012a57600080fd5b919050565b60008060408385031215610141578182fd5b61014a83610113565b915061015860208401610113565b90509250929050565b6001600160a01b0391909116815260200190565b6106ba806101846000396000f3fe60806040526004361061007b5760003560e01c80638da5cb5b1161004e5780638da5cb5b14610104578063ae55c35d14610119578063e8d6dbb414610139578063f2fde38b1461014c5761007b565b806301ffc9a7146100805780633ccfd60b146100b65780633f15457f146100cd578063715018a6146100ef575b600080fd5b34801561008c57600080fd5b506100a061009b366004610593565b61016c565b6040516100ad91906105cf565b60405180910390f35b3480156100c257600080fd5b506100cb610172565b005b3480156100d957600080fd5b506100e261020b565b6040516100ad91906105bb565b3480156100fb57600080fd5b506100cb61021a565b34801561011057600080fd5b506100e26102ce565b34801561012557600080fd5b506100cb6101343660046104f0565b6102dd565b6100cb61014736600461051e565b6102ff565b34801561015857600080fd5b506100cb6101673660046104f0565b6103e2565b50600190565b61017a6104ec565b6000546001600160a01b039081169116146101dc576040805162461bcd60e51b815260206004820181905260248201527f4f776e61626c653a2063616c6c6572206973206e6f7420746865206f776e6572604482015290519081900360640190fd5b60405133904780156108fc02916000818181858888f19350505050158015610208573d6000803e3d6000fd5b50565b6001546001600160a01b031690565b6102226104ec565b6000546001600160a01b03908116911614610284576040805162461bcd60e51b815260206004820181905260248201527f4f776e61626c653a2063616c6c6572206973206e6f7420746865206f776e6572604482015290519081900360640190fd5b600080546040516001600160a01b03909116907f8be0079c531659141344cd1fd0a4f28419497f9722a3daafe3b4186f6b6457e0908390a3600080546001600160a01b0319169055565b6000546001600160a01b031690565b600180546001600160a01b0319166001600160a01b0392909216919091179055565b6000341161030c57600080fd5b6002546001600160a01b031660005b838110156103ae57816001600160a01b031663acf1a8414787878581811061033f57fe5b90506020028101906103519190610612565b876040518563ffffffff1660e01b8152600401610370939291906105da565b6000604051808303818588803b15801561038957600080fd5b505af115801561039d573d6000803e3d6000fd5b50506001909301925061031b915050565b5060405133904780156108fc02916000818181858888f193505050501580156103db573d6000803e3d6000fd5b5050505050565b6103ea6104ec565b6000546001600160a01b0390811691161461044c576040805162461bcd60e51b815260206004820181905260248201527f4f776e61626c653a2063616c6c6572206973206e6f7420746865206f776e6572604482015290519081900360640190fd5b6001600160a01b0381166104915760405162461bcd60e51b815260040180806020018281038252602681526020018061065f6026913960400191505060405180910390fd5b600080546040516001600160a01b03808516939216917f8be0079c531659141344cd1fd0a4f28419497f9722a3daafe3b4186f6b6457e091a3600080546001600160a01b0319166001600160a01b0392909216919091179055565b3390565b600060208284031215610501578081fd5b81356001600160a01b0381168114610517578182fd5b9392505050565b600080600060408486031215610532578182fd5b833567ffffffffffffffff80821115610549578384fd5b818601915086601f83011261055c578384fd5b81358181111561056a578485fd5b876020808302850101111561057d578485fd5b6020928301989097509590910135949350505050565b6000602082840312156105a4578081fd5b81356001600160e01b031981168114610517578182fd5b6001600160a01b0391909116815260200190565b901515815260200190565b6000604082528360408301528385606084013780606085840101526060601f19601f8601168301019050826020830152949350505050565b6000808335601e19843603018112610628578283fd5b83018035915067ffffffffffffffff821115610642578283fd5b60200191503681900382131561065757600080fd5b925092905056fe4f776e61626c653a206e6577206f776e657220697320746865207a65726f2061646472657373a2646970667358221220a251f07a8362add45cca3246dcca717826e7baf71492c110478569605f26877564736f6c63430007060033",
  "immutableReferences": {},
  "source": "// SPDX-License-Identifier: MIT\r\npragma solidity ^0.7.6;\r\npragma abicoder v2;\r\n\r\nimport \"@openzeppelin/contracts/access/Ownable.sol\";\r\nimport \"contracts/SimulatedContracts/IENSRegControllerSim.sol\";\r\nimport \"contracts/SimulatedContracts/IENSSim.sol\";\r\n\r\ncontract ENSBulkRenewalSim is Ownable {\r\n    address ensAddress;\r\n    address ensRegCont;\r\n\r\n    constructor(address _ensAddress, address _RegCont){\r\n        ensAddress = _ensAddress;\r\n        ensRegCont = _RegCont;\r\n        IENSSim ensSim = IENSSim(_ensAddress);\r\n        ensSim.updateBulkReg(address(this));\r\n    }\r\n    // Simulated functions\r\n    function ens() public view returns(address){\r\n        return (ensAddress);\r\n    }\r\n    function renewAll(string[] calldata _id, uint256 _duration) public payable {\r\n        require(msg.value > 0);\r\n        IENSRegControllerSim _baseReg = IENSRegControllerSim(ensRegCont);\r\n        for(uint256 i; i < _id.length; i++){\r\n            _baseReg.renew{value:(address(this).balance)}(_id[i], _duration);\r\n        }\r\n        msg.sender.transfer(address(this).balance);\r\n    }\r\n    function supportsInterface(bytes4) public pure returns(bool){\r\n        return (true);\r\n    }\r\n\r\n\r\n    // admin functions\r\n    function withdraw() public onlyOwner {\r\n        msg.sender.transfer(address(this).balance);\r\n    }\r\n    function updateENS(address _ensAddress) public {\r\n        ensAddress = _ensAddress;\r\n    }\r\n}",
  "sourcePath": "C:/Users/anyth/Documents/GitHub/StakeYourName/contracts/SimulatedContracts/ENSBulkRenewalSim.sol",
  "compiler": {
    "name": "solc",
    "version": "0.7.6+commit.7338295f.Emscripten.clang"
  },
  "schemaVersion": "3.3.3",
  "updatedAt": "2021-02-01T18:35:33.358Z",
  "networkType": "ethereum",
  "devdoc": {
    "kind": "dev",
    "methods": {
      "owner()": {
        "details": "Returns the address of the current owner."
      },
      "renounceOwnership()": {
        "details": "Leaves the contract without owner. It will not be possible to call `onlyOwner` functions anymore. Can only be called by the current owner. NOTE: Renouncing ownership will leave the contract without an owner, thereby removing any functionality that is only available to the owner."
      },
      "transferOwnership(address)": {
        "details": "Transfers ownership of the contract to a new account (`newOwner`). Can only be called by the current owner."
      }
    },
    "version": 1
  },
  "userdoc": {
    "kind": "user",
    "methods": {},
    "version": 1
  }
}