{
  "contractName": "ENSBaseRegistrarSim",
  "abi": [
    {
      "inputs": [
        {
          "internalType": "address",
          "name": "_ensAddress",
          "type": "address"
        },
        {
          "internalType": "address",
          "name": "_regCont",
          "type": "address"
        }
      ],
      "stateMutability": "nonpayable",
      "type": "constructor"
    },
    {
      "anonymous": false,
      "inputs": [
        {
          "indexed": true,
          "internalType": "address",
          "name": "previousOwner",
          "type": "address"
        },
        {
          "indexed": true,
          "internalType": "address",
          "name": "newOwner",
          "type": "address"
        }
      ],
      "name": "OwnershipTransferred",
      "type": "event"
    },
    {
      "inputs": [],
      "name": "owner",
      "outputs": [
        {
          "internalType": "address",
          "name": "",
          "type": "address"
        }
      ],
      "stateMutability": "view",
      "type": "function",
      "constant": true
    },
    {
      "inputs": [],
      "name": "renounceOwnership",
      "outputs": [],
      "stateMutability": "nonpayable",
      "type": "function"
    },
    {
      "inputs": [
        {
          "internalType": "address",
          "name": "newOwner",
          "type": "address"
        }
      ],
      "name": "transferOwnership",
      "outputs": [],
      "stateMutability": "nonpayable",
      "type": "function"
    },
    {
      "inputs": [],
      "name": "ens",
      "outputs": [
        {
          "internalType": "address",
          "name": "",
          "type": "address"
        }
      ],
      "stateMutability": "view",
      "type": "function",
      "constant": true
    },
    {
      "inputs": [
        {
          "internalType": "uint256",
          "name": "_id",
          "type": "uint256"
        }
      ],
      "name": "nameExpires",
      "outputs": [
        {
          "internalType": "uint256",
          "name": "",
          "type": "uint256"
        }
      ],
      "stateMutability": "view",
      "type": "function",
      "constant": true
    },
    {
      "inputs": [
        {
          "internalType": "address",
          "name": "_regCont",
          "type": "address"
        }
      ],
      "name": "updateRegCont",
      "outputs": [],
      "stateMutability": "nonpayable",
      "type": "function"
    },
    {
      "inputs": [],
      "name": "withdraw",
      "outputs": [],
      "stateMutability": "nonpayable",
      "type": "function"
    },
    {
      "inputs": [
        {
          "internalType": "address",
          "name": "_ensAddress",
          "type": "address"
        }
      ],
      "name": "updateENS",
      "outputs": [],
      "stateMutability": "nonpayable",
      "type": "function"
    },
    {
      "inputs": [],
      "name": "retrieveETH",
      "outputs": [],
      "stateMutability": "nonpayable",
      "type": "function"
    }
  ],
  "bytecode": "0x6080604052600180546001600160a01b03199081169091556002805490911690556307101b7b600355600060045534801561003957600080fd5b5060405161066b38038061066b8339818101604052604081101561005c57600080fd5b508051602090910151600061006f610146565b600080546001600160a01b0319166001600160a01b0383169081178255604051929350917f8be0079c531659141344cd1fd0a4f28419497f9722a3daafe3b4186f6b6457e0908290a350600180546001600160a01b038085166001600160a01b03199283168117909355600280549185169190921617905560408051635fda811760e01b81523060048201529051849291635fda811791602480830192600092919082900301818387803b15801561012657600080fd5b505af115801561013a573d6000803e3d6000fd5b5050505050505061014a565b3390565b610512806101596000396000f3fe608060405234801561001057600080fd5b50600436106100935760003560e01c8063ae55c35d11610066578063ae55c35d146100d6578063b9449c23146100fc578063d5b014c314610098578063d6e4fa8614610122578063f2fde38b1461015157610093565b80633ccfd60b146100985780633f15457f146100a2578063715018a6146100c65780638da5cb5b146100ce575b600080fd5b6100a0610177565b005b6100aa610210565b604080516001600160a01b039092168252519081900360200190f35b6100a061021f565b6100aa6102d3565b6100a0600480360360208110156100ec57600080fd5b50356001600160a01b03166102e2565b6100a06004803603602081101561011257600080fd5b50356001600160a01b0316610304565b61013f6004803603602081101561013857600080fd5b5035610326565b60408051918252519081900360200190f35b6100a06004803603602081101561016757600080fd5b50356001600160a01b03166103a8565b61017f6104b2565b6000546001600160a01b039081169116146101e1576040805162461bcd60e51b815260206004820181905260248201527f4f776e61626c653a2063616c6c6572206973206e6f7420746865206f776e6572604482015290519081900360640190fd5b60405133904780156108fc02916000818181858888f1935050505015801561020d573d6000803e3d6000fd5b50565b6001546001600160a01b031690565b6102276104b2565b6000546001600160a01b03908116911614610289576040805162461bcd60e51b815260206004820181905260248201527f4f776e61626c653a2063616c6c6572206973206e6f7420746865206f776e6572604482015290519081900360640190fd5b600080546040516001600160a01b03909116907f8be0079c531659141344cd1fd0a4f28419497f9722a3daafe3b4186f6b6457e0908390a3600080546001600160a01b0319169055565b6000546001600160a01b031690565b600180546001600160a01b0319166001600160a01b0392909216919091179055565b600280546001600160a01b0319166001600160a01b0392909216919091179055565b60025460408051636b727d4360e11b81526004810184905290516000926001600160a01b031691829163d6e4fa8691602480820192602092909190829003018186803b15801561037557600080fd5b505afa158015610389573d6000803e3d6000fd5b505050506040513d602081101561039f57600080fd5b50519392505050565b6103b06104b2565b6000546001600160a01b03908116911614610412576040805162461bcd60e51b815260206004820181905260248201527f4f776e61626c653a2063616c6c6572206973206e6f7420746865206f776e6572604482015290519081900360640190fd5b6001600160a01b0381166104575760405162461bcd60e51b81526004018080602001828103825260268152602001806104b76026913960400191505060405180910390fd5b600080546040516001600160a01b03808516939216917f8be0079c531659141344cd1fd0a4f28419497f9722a3daafe3b4186f6b6457e091a3600080546001600160a01b0319166001600160a01b0392909216919091179055565b339056fe4f776e61626c653a206e6577206f776e657220697320746865207a65726f2061646472657373a264697066735822122051ac93448308ed5b1729ca67a5b5c7880789095bcead149e86aecb398b65951064736f6c63430007060033",
  "immutableReferences": {},
  "source": "// SPDX-License-Identifier: MIT\r\npragma solidity ^0.7.0;\r\n\r\nimport \"@openzeppelin/contracts/access/Ownable.sol\";\r\nimport \"./IENSSim.sol\";\r\nimport \"./IENSRegControllerSim.sol\";\r\n\r\ncontract ENSBaseRegistrarSim is Ownable {\r\n    address ensAddress = address(0);\r\n    address regContAddress = address(0);\r\n    uint256 renewPrice = 118496123;\r\n    uint256 balance = 0;\r\n    \r\n    mapping (uint256 => uint256) expiry;\r\n    uint256[] names;\r\n\r\n    constructor(address _ensAddress, address _regCont){\r\n        ensAddress = _ensAddress;\r\n        IENSSim ensSim = IENSSim(_ensAddress);\r\n        regContAddress = _regCont;\r\n        ensSim.updateBaseReg(address(this));\r\n    }\r\n\r\n    // Simulated functions\r\n    function ens() public view returns(address){\r\n        return (ensAddress);\r\n    }\r\n    function nameExpires(uint256 _id) public view returns(uint256){\r\n        IENSRegControllerSim _ensRegCont = IENSRegControllerSim(regContAddress);\r\n        return (_ensRegCont.nameExpires(_id));\r\n    }\r\n    function updateRegCont(address _regCont) public {\r\n        regContAddress = _regCont;\r\n    }\r\n\r\n    // admin functions\r\n    function withdraw() public onlyOwner {\r\n        msg.sender.transfer(address(this).balance);\r\n    }\r\n    function updateENS(address _ensAddress) public {\r\n        ensAddress = _ensAddress;\r\n    }\r\n    function retrieveETH() external onlyOwner {\r\n        msg.sender.transfer(address(this).balance);\r\n    }\r\n\r\n}",
  "sourcePath": "C:/Users/anyth/Documents/GitHub/StakeYourName/contracts/SimulatedContracts/ENSBaseRegistrarSim.sol",
  "compiler": {
    "name": "solc",
    "version": "0.7.6+commit.7338295f.Emscripten.clang"
  },
  "schemaVersion": "3.3.3",
  "updatedAt": "2021-02-02T18:52:05.431Z",
  "networkType": "ethereum",
  "devdoc": {
    "kind": "dev",
    "methods": {
      "owner()": {
        "details": "Returns the address of the current owner."
      },
      "renounceOwnership()": {
        "details": "Leaves the contract without owner. It will not be possible to call `onlyOwner` functions anymore. Can only be called by the current owner. NOTE: Renouncing ownership will leave the contract without an owner, thereby removing any functionality that is only available to the owner."
      },
      "transferOwnership(address)": {
        "details": "Transfers ownership of the contract to a new account (`newOwner`). Can only be called by the current owner."
      }
    },
    "version": 1
  },
  "userdoc": {
    "kind": "user",
    "methods": {},
    "version": 1
  }
}