{
  "contractName": "ENSBulkRenewalSim",
  "abi": [
    {
      "inputs": [
        {
          "internalType": "address",
          "name": "_ensAddress",
          "type": "address"
        },
        {
          "internalType": "address",
          "name": "_RegCont",
          "type": "address"
        }
      ],
      "stateMutability": "nonpayable",
      "type": "constructor"
    },
    {
      "anonymous": false,
      "inputs": [
        {
          "indexed": true,
          "internalType": "address",
          "name": "previousOwner",
          "type": "address"
        },
        {
          "indexed": true,
          "internalType": "address",
          "name": "newOwner",
          "type": "address"
        }
      ],
      "name": "OwnershipTransferred",
      "type": "event"
    },
    {
      "inputs": [],
      "name": "owner",
      "outputs": [
        {
          "internalType": "address",
          "name": "",
          "type": "address"
        }
      ],
      "stateMutability": "view",
      "type": "function",
      "constant": true
    },
    {
      "inputs": [],
      "name": "renounceOwnership",
      "outputs": [],
      "stateMutability": "nonpayable",
      "type": "function"
    },
    {
      "inputs": [
        {
          "internalType": "address",
          "name": "newOwner",
          "type": "address"
        }
      ],
      "name": "transferOwnership",
      "outputs": [],
      "stateMutability": "nonpayable",
      "type": "function"
    },
    {
      "stateMutability": "payable",
      "type": "receive",
      "payable": true
    },
    {
      "inputs": [],
      "name": "ens",
      "outputs": [
        {
          "internalType": "address",
          "name": "",
          "type": "address"
        }
      ],
      "stateMutability": "view",
      "type": "function",
      "constant": true
    },
    {
      "inputs": [
        {
          "internalType": "string[]",
          "name": "_id",
          "type": "string[]"
        },
        {
          "internalType": "uint256",
          "name": "_duration",
          "type": "uint256"
        }
      ],
      "name": "renewAll",
      "outputs": [],
      "stateMutability": "payable",
      "type": "function",
      "payable": true
    },
    {
      "inputs": [
        {
          "internalType": "bytes4",
          "name": "",
          "type": "bytes4"
        }
      ],
      "name": "supportsInterface",
      "outputs": [
        {
          "internalType": "bool",
          "name": "",
          "type": "bool"
        }
      ],
      "stateMutability": "pure",
      "type": "function",
      "constant": true
    },
    {
      "inputs": [],
      "name": "withdraw",
      "outputs": [],
      "stateMutability": "nonpayable",
      "type": "function"
    },
    {
      "inputs": [
        {
          "internalType": "address",
          "name": "_ensAddress",
          "type": "address"
        }
      ],
      "name": "updateENS",
      "outputs": [],
      "stateMutability": "nonpayable",
      "type": "function"
    },
    {
      "inputs": [
        {
          "internalType": "address",
          "name": "_regCont",
          "type": "address"
        }
      ],
      "name": "updateRegCont",
      "outputs": [],
      "stateMutability": "nonpayable",
      "type": "function"
    }
  ],
  "bytecode": "0x608060405234801561001057600080fd5b5060405161088938038061088983398101604081905261002f9161012f565b600061003961010f565b600080546001600160a01b0319166001600160a01b0383169081178255604051929350917f8be0079c531659141344cd1fd0a4f28419497f9722a3daafe3b4186f6b6457e0908290a350600180546001600160a01b038085166001600160a01b031992831681179093556002805491851691909216179055604051633066ced560e11b81528391906360cd9daa906100d5903090600401610161565b600060405180830381600087803b1580156100ef57600080fd5b505af1158015610103573d6000803e3d6000fd5b50505050505050610175565b3390565b80516001600160a01b038116811461012a57600080fd5b919050565b60008060408385031215610141578182fd5b61014a83610113565b915061015860208401610113565b90509250929050565b6001600160a01b0391909116815260200190565b610705806101846000396000f3fe60806040526004361061008a5760003560e01c80638da5cb5b116100595780638da5cb5b1461011a578063ae55c35d1461012f578063b9449c231461014f578063e8d6dbb41461016f578063f2fde38b1461018257610091565b806301ffc9a7146100965780633ccfd60b146100cc5780633f15457f146100e3578063715018a61461010557610091565b3661009157005b600080fd5b3480156100a257600080fd5b506100b66100b13660046105de565b6101a2565b6040516100c3919061061a565b60405180910390f35b3480156100d857600080fd5b506100e16101a8565b005b3480156100ef57600080fd5b506100f8610241565b6040516100c39190610606565b34801561011157600080fd5b506100e1610250565b34801561012657600080fd5b506100f8610304565b34801561013b57600080fd5b506100e161014a36600461053b565b610313565b34801561015b57600080fd5b506100e161016a36600461053b565b610335565b6100e161017d366004610569565b610357565b34801561018e57600080fd5b506100e161019d36600461053b565b61042d565b50600190565b6101b0610537565b6000546001600160a01b03908116911614610212576040805162461bcd60e51b815260206004820181905260248201527f4f776e61626c653a2063616c6c6572206973206e6f7420746865206f776e6572604482015290519081900360640190fd5b60405133904780156108fc02916000818181858888f1935050505015801561023e573d6000803e3d6000fd5b50565b6001546001600160a01b031690565b610258610537565b6000546001600160a01b039081169116146102ba576040805162461bcd60e51b815260206004820181905260248201527f4f776e61626c653a2063616c6c6572206973206e6f7420746865206f776e6572604482015290519081900360640190fd5b600080546040516001600160a01b03909116907f8be0079c531659141344cd1fd0a4f28419497f9722a3daafe3b4186f6b6457e0908390a3600080546001600160a01b0319169055565b6000546001600160a01b031690565b600180546001600160a01b0319166001600160a01b0392909216919091179055565b600280546001600160a01b0319166001600160a01b0392909216919091179055565b6002546001600160a01b031660005b838110156103f957816001600160a01b031663acf1a8414787878581811061038a57fe5b905060200281019061039c919061065d565b876040518563ffffffff1660e01b81526004016103bb93929190610625565b6000604051808303818588803b1580156103d457600080fd5b505af11580156103e8573d6000803e3d6000fd5b505060019093019250610366915050565b5060405133904780156108fc02916000818181858888f19350505050158015610426573d6000803e3d6000fd5b5050505050565b610435610537565b6000546001600160a01b03908116911614610497576040805162461bcd60e51b815260206004820181905260248201527f4f776e61626c653a2063616c6c6572206973206e6f7420746865206f776e6572604482015290519081900360640190fd5b6001600160a01b0381166104dc5760405162461bcd60e51b81526004018080602001828103825260268152602001806106aa6026913960400191505060405180910390fd5b600080546040516001600160a01b03808516939216917f8be0079c531659141344cd1fd0a4f28419497f9722a3daafe3b4186f6b6457e091a3600080546001600160a01b0319166001600160a01b0392909216919091179055565b3390565b60006020828403121561054c578081fd5b81356001600160a01b0381168114610562578182fd5b9392505050565b60008060006040848603121561057d578182fd5b833567ffffffffffffffff80821115610594578384fd5b818601915086601f8301126105a7578384fd5b8135818111156105b5578485fd5b87602080830285010111156105c8578485fd5b6020928301989097509590910135949350505050565b6000602082840312156105ef578081fd5b81356001600160e01b031981168114610562578182fd5b6001600160a01b0391909116815260200190565b901515815260200190565b6000604082528360408301528385606084013780606085840101526060601f19601f8601168301019050826020830152949350505050565b6000808335601e19843603018112610673578283fd5b83018035915067ffffffffffffffff82111561068d578283fd5b6020019150368190038213156106a257600080fd5b925092905056fe4f776e61626c653a206e6577206f776e657220697320746865207a65726f2061646472657373a2646970667358221220ddf4c9098b7dd56ec7ac29a4e71575474eee601109484b3fbd200490e304eca364736f6c63430007060033",
  "immutableReferences": {},
  "source": "// SPDX-License-Identifier: MIT\r\npragma solidity ^0.7.6;\r\npragma abicoder v2;\r\n\r\nimport \"@openzeppelin/contracts/access/Ownable.sol\";\r\nimport \"./IENSRegControllerSim.sol\";\r\nimport \"./IENSSim.sol\";\r\n\r\ncontract ENSBulkRenewalSim is Ownable {\r\n    address ensAddress;\r\n    address ensRegCont;\r\n\r\n    receive() external payable {}\r\n\r\n    constructor(address _ensAddress, address _RegCont){\r\n        ensAddress = _ensAddress;\r\n        ensRegCont = _RegCont;\r\n        IENSSim ensSim = IENSSim(_ensAddress);\r\n        ensSim.updateBulkReg(address(this));\r\n    }\r\n    // Simulated functions\r\n    function ens() public view returns(address){\r\n        return (ensAddress);\r\n    }\r\n    function renewAll(string[] calldata _id, uint256 _duration) public payable {\r\n        //require(msg.value > 0);\r\n        IENSRegControllerSim _baseReg = IENSRegControllerSim(ensRegCont);\r\n        for(uint256 i; i < _id.length; i++){\r\n            _baseReg.renew{value:(address(this).balance)}(_id[i], _duration);\r\n        }\r\n        msg.sender.transfer(address(this).balance);\r\n    }\r\n\r\n    function supportsInterface(bytes4) public pure returns(bool){\r\n        return (true);\r\n    }\r\n\r\n    // admin functions\r\n    function withdraw() public onlyOwner {\r\n        msg.sender.transfer(address(this).balance);\r\n    }\r\n    function updateENS(address _ensAddress) public {\r\n        ensAddress = _ensAddress;\r\n    }\r\n    function updateRegCont(address _regCont) external{\r\n        ensRegCont = _regCont;\r\n    }\r\n}",
  "sourcePath": "C:/Users/anyth/Documents/GitHub/StakeYourName/contracts/SimulatedContracts/ENSBulkRenewalSim.sol",
  "compiler": {
    "name": "solc",
    "version": "0.7.6+commit.7338295f.Emscripten.clang"
  },
  "schemaVersion": "3.3.3",
  "updatedAt": "2021-02-02T18:52:05.434Z",
  "networkType": "ethereum",
  "devdoc": {
    "kind": "dev",
    "methods": {
      "owner()": {
        "details": "Returns the address of the current owner."
      },
      "renounceOwnership()": {
        "details": "Leaves the contract without owner. It will not be possible to call `onlyOwner` functions anymore. Can only be called by the current owner. NOTE: Renouncing ownership will leave the contract without an owner, thereby removing any functionality that is only available to the owner."
      },
      "transferOwnership(address)": {
        "details": "Transfers ownership of the contract to a new account (`newOwner`). Can only be called by the current owner."
      }
    },
    "version": 1
  },
  "userdoc": {
    "kind": "user",
    "methods": {},
    "version": 1
  }
}