{
  "contractName": "ENSBaseRegistrarSim",
  "abi": [
    {
      "inputs": [
        {
          "internalType": "address",
          "name": "_ensAddress",
          "type": "address"
        }
      ],
      "stateMutability": "nonpayable",
      "type": "constructor"
    },
    {
      "anonymous": false,
      "inputs": [
        {
          "indexed": true,
          "internalType": "address",
          "name": "previousOwner",
          "type": "address"
        },
        {
          "indexed": true,
          "internalType": "address",
          "name": "newOwner",
          "type": "address"
        }
      ],
      "name": "OwnershipTransferred",
      "type": "event"
    },
    {
      "inputs": [],
      "name": "owner",
      "outputs": [
        {
          "internalType": "address",
          "name": "",
          "type": "address"
        }
      ],
      "stateMutability": "view",
      "type": "function"
    },
    {
      "inputs": [],
      "name": "renounceOwnership",
      "outputs": [],
      "stateMutability": "nonpayable",
      "type": "function"
    },
    {
      "inputs": [
        {
          "internalType": "address",
          "name": "newOwner",
          "type": "address"
        }
      ],
      "name": "transferOwnership",
      "outputs": [],
      "stateMutability": "nonpayable",
      "type": "function"
    },
    {
      "inputs": [],
      "name": "ens",
      "outputs": [
        {
          "internalType": "address",
          "name": "",
          "type": "address"
        }
      ],
      "stateMutability": "view",
      "type": "function"
    },
    {
      "inputs": [
        {
          "internalType": "uint256",
          "name": "_id",
          "type": "uint256"
        }
      ],
      "name": "nameExpires",
      "outputs": [
        {
          "internalType": "uint256",
          "name": "",
          "type": "uint256"
        }
      ],
      "stateMutability": "view",
      "type": "function"
    },
    {
      "inputs": [],
      "name": "withdraw",
      "outputs": [],
      "stateMutability": "nonpayable",
      "type": "function"
    },
    {
      "inputs": [
        {
          "internalType": "address",
          "name": "_ensAddress",
          "type": "address"
        }
      ],
      "name": "updateENS",
      "outputs": [],
      "stateMutability": "nonpayable",
      "type": "function"
    },
    {
      "inputs": [],
      "name": "retrieveETH",
      "outputs": [],
      "stateMutability": "nonpayable",
      "type": "function"
    }
  ],
  "bytecode": "0x6080604052600180546001600160a01b03191690556307101b7b600255600060035534801561002d57600080fd5b506040516105843803806105848339818101604052602081101561005057600080fd5b5051600061005c610122565b600080546001600160a01b0319166001600160a01b0383169081178255604051929350917f8be0079c531659141344cd1fd0a4f28419497f9722a3daafe3b4186f6b6457e0908290a350600180546001600160a01b0319166001600160a01b03831690811790915560408051635fda811760e01b81523060048201529051839291635fda811791602480830192600092919082900301818387803b15801561010357600080fd5b505af1158015610117573d6000803e3d6000fd5b505050505050610126565b3390565b61044f806101356000396000f3fe608060405234801561001057600080fd5b50600436106100885760003560e01c8063ae55c35d1161005b578063ae55c35d146100cb578063d5b014c31461008d578063d6e4fa86146100f1578063f2fde38b1461012057610088565b80633ccfd60b1461008d5780633f15457f14610097578063715018a6146100bb5780638da5cb5b146100c3575b600080fd5b610095610146565b005b61009f6101df565b604080516001600160a01b039092168252519081900360200190f35b6100956101ee565b61009f6102a2565b610095600480360360208110156100e157600080fd5b50356001600160a01b03166102b1565b61010e6004803603602081101561010757600080fd5b50356102d3565b60408051918252519081900360200190f35b6100956004803603602081101561013657600080fd5b50356001600160a01b03166102e5565b61014e6103ef565b6000546001600160a01b039081169116146101b0576040805162461bcd60e51b815260206004820181905260248201527f4f776e61626c653a2063616c6c6572206973206e6f7420746865206f776e6572604482015290519081900360640190fd5b60405133904780156108fc02916000818181858888f193505050501580156101dc573d6000803e3d6000fd5b50565b6001546001600160a01b031690565b6101f66103ef565b6000546001600160a01b03908116911614610258576040805162461bcd60e51b815260206004820181905260248201527f4f776e61626c653a2063616c6c6572206973206e6f7420746865206f776e6572604482015290519081900360640190fd5b600080546040516001600160a01b03909116907f8be0079c531659141344cd1fd0a4f28419497f9722a3daafe3b4186f6b6457e0908390a3600080546001600160a01b0319169055565b6000546001600160a01b031690565b600180546001600160a01b0319166001600160a01b0392909216919091179055565b60009081526004602052604090205490565b6102ed6103ef565b6000546001600160a01b0390811691161461034f576040805162461bcd60e51b815260206004820181905260248201527f4f776e61626c653a2063616c6c6572206973206e6f7420746865206f776e6572604482015290519081900360640190fd5b6001600160a01b0381166103945760405162461bcd60e51b81526004018080602001828103825260268152602001806103f46026913960400191505060405180910390fd5b600080546040516001600160a01b03808516939216917f8be0079c531659141344cd1fd0a4f28419497f9722a3daafe3b4186f6b6457e091a3600080546001600160a01b0319166001600160a01b0392909216919091179055565b339056fe4f776e61626c653a206e6577206f776e657220697320746865207a65726f2061646472657373a2646970667358221220b792849deb80e2fc039d672755c0dbcc64558de4b2eb39f51f5eebdb6955a0e964736f6c63430007060033",
  "immutableReferences": {},
  "source": "// SPDX-License-Identifier: MIT\r\npragma solidity ^0.7.0;\r\n\r\nimport \"@openzeppelin/contracts/access/Ownable.sol\";\r\nimport \"contracts/SimulatedContracts/IENSSim.sol\";\r\n\r\ncontract ENSBaseRegistrarSim is Ownable {\r\n    address ensAddress = address(0);\r\n    uint256 renewPrice = 118496123;\r\n    uint256 balance = 0;\r\n    \r\n    mapping (uint256 => uint256) expiry;\r\n    uint256[] names;\r\n\r\n    constructor(address _ensAddress){\r\n        ensAddress = _ensAddress;\r\n        IENSSim ensSim = IENSSim(_ensAddress);\r\n        ensSim.updateBaseReg(address(this));\r\n    }\r\n\r\n    // Simulated functions\r\n    function ens() public view returns(address){\r\n        return (ensAddress);\r\n    }\r\n    function nameExpires(uint256 _id) public view returns(uint256){\r\n        return (expiry[_id]);\r\n    }\r\n\r\n    // admin functions\r\n    function withdraw() public onlyOwner {\r\n        msg.sender.transfer(address(this).balance);\r\n    }\r\n    function updateENS(address _ensAddress) public {\r\n        ensAddress = _ensAddress;\r\n    }\r\n    function retrieveETH() external onlyOwner {\r\n        msg.sender.transfer(address(this).balance);\r\n    }\r\n\r\n}",
  "sourcePath": "C:/Users/anyth/Documents/GitHub/StakeYourName/contracts/SimulatedContracts/ENSBaseRegistrarSim.sol",
  "compiler": {
    "name": "solc",
    "version": "0.7.6+commit.7338295f.Emscripten.clang"
  },
  "schemaVersion": "3.3.3",
  "updatedAt": "2021-02-01T16:31:58.248Z",
  "devdoc": {
    "kind": "dev",
    "methods": {
      "owner()": {
        "details": "Returns the address of the current owner."
      },
      "renounceOwnership()": {
        "details": "Leaves the contract without owner. It will not be possible to call `onlyOwner` functions anymore. Can only be called by the current owner. NOTE: Renouncing ownership will leave the contract without an owner, thereby removing any functionality that is only available to the owner."
      },
      "transferOwnership(address)": {
        "details": "Transfers ownership of the contract to a new account (`newOwner`). Can only be called by the current owner."
      }
    },
    "version": 1
  },
  "userdoc": {
    "kind": "user",
    "methods": {},
    "version": 1
  }
}