{
  "contractName": "ENSRegControllerSim",
  "abi": [
    {
      "inputs": [
        {
          "internalType": "address",
          "name": "_ensAddress",
          "type": "address"
        }
      ],
      "stateMutability": "nonpayable",
      "type": "constructor"
    },
    {
      "anonymous": false,
      "inputs": [
        {
          "indexed": true,
          "internalType": "address",
          "name": "previousOwner",
          "type": "address"
        },
        {
          "indexed": true,
          "internalType": "address",
          "name": "newOwner",
          "type": "address"
        }
      ],
      "name": "OwnershipTransferred",
      "type": "event"
    },
    {
      "inputs": [],
      "name": "owner",
      "outputs": [
        {
          "internalType": "address",
          "name": "",
          "type": "address"
        }
      ],
      "stateMutability": "view",
      "type": "function",
      "constant": true
    },
    {
      "inputs": [],
      "name": "renounceOwnership",
      "outputs": [],
      "stateMutability": "nonpayable",
      "type": "function"
    },
    {
      "inputs": [
        {
          "internalType": "address",
          "name": "newOwner",
          "type": "address"
        }
      ],
      "name": "transferOwnership",
      "outputs": [],
      "stateMutability": "nonpayable",
      "type": "function"
    },
    {
      "inputs": [],
      "name": "ens",
      "outputs": [
        {
          "internalType": "address",
          "name": "",
          "type": "address"
        }
      ],
      "stateMutability": "view",
      "type": "function",
      "constant": true
    },
    {
      "inputs": [
        {
          "internalType": "string",
          "name": "_id",
          "type": "string"
        },
        {
          "internalType": "uint256",
          "name": "_duration",
          "type": "uint256"
        }
      ],
      "name": "renew",
      "outputs": [],
      "stateMutability": "payable",
      "type": "function",
      "payable": true
    },
    {
      "inputs": [
        {
          "internalType": "string",
          "name": "_name",
          "type": "string"
        },
        {
          "internalType": "uint256",
          "name": "_duration",
          "type": "uint256"
        }
      ],
      "name": "rentPrice",
      "outputs": [
        {
          "internalType": "uint256",
          "name": "",
          "type": "uint256"
        }
      ],
      "stateMutability": "view",
      "type": "function",
      "constant": true
    },
    {
      "inputs": [
        {
          "internalType": "uint256",
          "name": "_id",
          "type": "uint256"
        }
      ],
      "name": "expires",
      "outputs": [
        {
          "internalType": "uint256",
          "name": "",
          "type": "uint256"
        }
      ],
      "stateMutability": "view",
      "type": "function",
      "constant": true
    },
    {
      "inputs": [],
      "name": "withdraw",
      "outputs": [],
      "stateMutability": "nonpayable",
      "type": "function"
    },
    {
      "inputs": [
        {
          "internalType": "address",
          "name": "_ensAddress",
          "type": "address"
        }
      ],
      "name": "updateENS",
      "outputs": [],
      "stateMutability": "nonpayable",
      "type": "function"
    },
    {
      "inputs": [
        {
          "internalType": "uint256",
          "name": "_name",
          "type": "uint256"
        },
        {
          "internalType": "uint256",
          "name": "_expiry",
          "type": "uint256"
        }
      ],
      "name": "updateName",
      "outputs": [],
      "stateMutability": "nonpayable",
      "type": "function"
    },
    {
      "inputs": [],
      "name": "day",
      "outputs": [],
      "stateMutability": "nonpayable",
      "type": "function"
    },
    {
      "inputs": [],
      "name": "month",
      "outputs": [],
      "stateMutability": "nonpayable",
      "type": "function"
    },
    {
      "inputs": [
        {
          "internalType": "bytes32",
          "name": "_bytes",
          "type": "bytes32"
        }
      ],
      "name": "convertBytesToUint",
      "outputs": [
        {
          "internalType": "uint256",
          "name": "",
          "type": "uint256"
        }
      ],
      "stateMutability": "pure",
      "type": "function",
      "constant": true
    },
    {
      "inputs": [
        {
          "internalType": "uint256",
          "name": "_uint",
          "type": "uint256"
        }
      ],
      "name": "convertUintToBytes",
      "outputs": [
        {
          "internalType": "bytes32",
          "name": "",
          "type": "bytes32"
        }
      ],
      "stateMutability": "pure",
      "type": "function",
      "constant": true
    },
    {
      "inputs": [
        {
          "internalType": "string",
          "name": "_subdomain",
          "type": "string"
        },
        {
          "internalType": "bytes32",
          "name": "_name",
          "type": "bytes32"
        }
      ],
      "name": "computeHash",
      "outputs": [
        {
          "internalType": "bytes32",
          "name": "namehash",
          "type": "bytes32"
        }
      ],
      "stateMutability": "pure",
      "type": "function",
      "constant": true
    },
    {
      "inputs": [],
      "name": "retrieveETH",
      "outputs": [],
      "stateMutability": "nonpayable",
      "type": "function"
    }
  ],
  "bytecode": "0x60806040526000600160006101000a81548173ffffffffffffffffffffffffffffffffffffffff021916908373ffffffffffffffffffffffffffffffffffffffff1602179055506307101b7b600255600060035534801561005f57600080fd5b506040516114483803806114488339818101604052602081101561008257600080fd5b810190808051906020019092919050505060006100a361020f60201b60201c565b9050806000806101000a81548173ffffffffffffffffffffffffffffffffffffffff021916908373ffffffffffffffffffffffffffffffffffffffff1602179055508073ffffffffffffffffffffffffffffffffffffffff16600073ffffffffffffffffffffffffffffffffffffffff167f8be0079c531659141344cd1fd0a4f28419497f9722a3daafe3b4186f6b6457e060405160405180910390a35080600160006101000a81548173ffffffffffffffffffffffffffffffffffffffff021916908373ffffffffffffffffffffffffffffffffffffffff16021790555060008190508073ffffffffffffffffffffffffffffffffffffffff1663b65446ea306040518263ffffffff1660e01b8152600401808273ffffffffffffffffffffffffffffffffffffffff168152602001915050600060405180830381600087803b1580156101f057600080fd5b505af1158015610204573d6000803e3d6000fd5b505050505050610217565b600033905090565b611222806102266000396000f3fe6080604052600436106100f35760003560e01c80638da5cb5b1161008a578063bb452db411610059578063bb452db41461050a578063cb52c82314610559578063d5b014c3146105a8578063f2fde38b146105bf576100f3565b80638da5cb5b146103a6578063acf1a841146103e7578063ae55c35d1461046a578063ae76173e146104bb576100f3565b8063702921f5116100c6578063702921f51461027b578063715018a6146102925780637b76ac91146102a957806383e7f6ff146102c0576100f3565b80631a20261e146100f85780633ccfd60b1461013d5780633f15457f1461015457806361f6bc2c14610195575b600080fd5b34801561010457600080fd5b5061013b6004803603604081101561011b57600080fd5b810190808035906020019092919080359060200190929190505050610610565b005b34801561014957600080fd5b50610152610767565b005b34801561016057600080fd5b50610169610878565b604051808273ffffffffffffffffffffffffffffffffffffffff16815260200191505060405180910390f35b3480156101a157600080fd5b50610265600480360360408110156101b857600080fd5b81019080803590602001906401000000008111156101d557600080fd5b8201836020820111156101e757600080fd5b8035906020019184600183028401116401000000008311171561020957600080fd5b91908080601f016020809104026020016040519081016040528093929190818152602001838380828437600081840152601f19601f820116905080830192505050505050509192919290803590602001909291905050506108a2565b6040518082815260200191505060405180910390f35b34801561028757600080fd5b5061029061094c565b005b34801561029e57600080fd5b506102a76109ca565b005b3480156102b557600080fd5b506102be610b50565b005b3480156102cc57600080fd5b50610390600480360360408110156102e357600080fd5b810190808035906020019064010000000081111561030057600080fd5b82018360208201111561031257600080fd5b8035906020019184600183028401116401000000008311171561033457600080fd5b91908080601f016020809104026020016040519081016040528093929190818152602001838380828437600081840152601f19601f82011690508083019250505050505050919291929080359060200190929190505050610bce565b6040518082815260200191505060405180910390f35b3480156103b257600080fd5b506103bb610be2565b604051808273ffffffffffffffffffffffffffffffffffffffff16815260200191505060405180910390f35b610468600480360360408110156103fd57600080fd5b810190808035906020019064010000000081111561041a57600080fd5b82018360208201111561042c57600080fd5b8035906020019184600183028401116401000000008311171561044e57600080fd5b909192939192939080359060200190929190505050610c0b565b005b34801561047657600080fd5b506104b96004803603602081101561048d57600080fd5b81019080803573ffffffffffffffffffffffffffffffffffffffff169060200190929190505050610e1d565b005b3480156104c757600080fd5b506104f4600480360360208110156104de57600080fd5b8101908080359060200190929190505050610e61565b6040518082815260200191505060405180910390f35b34801561051657600080fd5b506105436004803603602081101561052d57600080fd5b8101908080359060200190929190505050610e73565b6040518082815260200191505060405180910390f35b34801561056557600080fd5b506105926004803603602081101561057c57600080fd5b8101908080359060200190929190505050610e85565b6040518082815260200191505060405180910390f35b3480156105b457600080fd5b506105bd610ea2565b005b3480156105cb57600080fd5b5061060e600480360360208110156105e257600080fd5b81019080803573ffffffffffffffffffffffffffffffffffffffff169060200190929190505050610fb3565b005b600081146106c8576000805b60058054905081101561067257836005828154811061063757fe5b9060005260206000200154141561066557826004600086815260200190815260200160002081905550600191505b808060010191505061061c565b506000151581151514156106c25760058390806001815401808255809150506001900390600052602060002001600090919091909150558160046000858152602001908152602001600020819055505b50610763565b60005b6005805490508110156107615782600582815481106106e657fe5b906000526020600020015414156107545760056001600580549050038154811061070c57fe5b90600052602060002001546005828154811061072457fe5b9060005260206000200181905550600580548061073d57fe5b600190038181906000526020600020016000905590555b80806001019150506106cb565b505b5050565b61076f6111be565b73ffffffffffffffffffffffffffffffffffffffff1660008054906101000a900473ffffffffffffffffffffffffffffffffffffffff1673ffffffffffffffffffffffffffffffffffffffff161461082f576040517f08c379a00000000000000000000000000000000000000000000000000000000081526004018080602001828103825260208152602001807f4f776e61626c653a2063616c6c6572206973206e6f7420746865206f776e657281525060200191505060405180910390fd5b3373ffffffffffffffffffffffffffffffffffffffff166108fc479081150290604051600060405180830381858888f19350505050158015610875573d6000803e3d6000fd5b50565b6000600160009054906101000a900473ffffffffffffffffffffffffffffffffffffffff16905090565b600081836040516020018082805190602001908083835b602083106108dc57805182526020820191506020810190506020830392506108b9565b6001836020036101000a03801982511681845116808217855250505050505090500191505060405160208183030381529060405280519060200120604051602001808381526020018281526020019250505060405160208183030381529060405280519060200120905092915050565b60005b6005805490508110156109c7576224ea00600460006005848154811061097157fe5b906000526020600020015481526020019081526020016000205403600460006005848154811061099d57fe5b9060005260206000200154815260200190815260200160002081905550808060010191505061094f565b50565b6109d26111be565b73ffffffffffffffffffffffffffffffffffffffff1660008054906101000a900473ffffffffffffffffffffffffffffffffffffffff1673ffffffffffffffffffffffffffffffffffffffff1614610a92576040517f08c379a00000000000000000000000000000000000000000000000000000000081526004018080602001828103825260208152602001807f4f776e61626c653a2063616c6c6572206973206e6f7420746865206f776e657281525060200191505060405180910390fd5b600073ffffffffffffffffffffffffffffffffffffffff1660008054906101000a900473ffffffffffffffffffffffffffffffffffffffff1673ffffffffffffffffffffffffffffffffffffffff167f8be0079c531659141344cd1fd0a4f28419497f9722a3daafe3b4186f6b6457e060405160405180910390a360008060006101000a81548173ffffffffffffffffffffffffffffffffffffffff021916908373ffffffffffffffffffffffffffffffffffffffff160217905550565b60005b600580549050811015610bcb57620151806004600060058481548110610b7557fe5b9060005260206000200154815260200190815260200160002054036004600060058481548110610ba157fe5b90600052602060002001548152602001908152602001600020819055508080600101915050610b53565b50565b600080600254830290508091505092915050565b60008060009054906101000a900473ffffffffffffffffffffffffffffffffffffffff16905090565b60025481023411610c1b57600080fd5b60006002548202905060606040518060400160405280600381526020017f657468000000000000000000000000000000000000000000000000000000000081525090506000610cba86868080601f016020809104026020016040519081016040528093929190818152602001838380828437600081840152601f19601f82011690508083019250505050505050610cb5846000801b6108a2565b6108a2565b90506000610cc782610e73565b90506000805b600580549050811015610d0b578260058281548110610ce857fe5b90600052602060002001541415610cfe57600191505b8080600101915050610ccd565b50600090508015610d8f576000610d8a576040517f08c379a000000000000000000000000000000000000000000000000000000000815260040180806020018281038252600e8152602001807f6e616d65206e6f7420666f756e6400000000000000000000000000000000000081525060200191505060405180910390fd5b610e13565b85600460008481526020019081526020016000205401600460008481526020019081526020016000208190555084600354016003819055503373ffffffffffffffffffffffffffffffffffffffff166108fc60035447039081150290604051600060405180830381858888f19350505050158015610e11573d6000803e3d6000fd5b505b5050505050505050565b80600160006101000a81548173ffffffffffffffffffffffffffffffffffffffff021916908373ffffffffffffffffffffffffffffffffffffffff16021790555050565b6000808260001b905080915050919050565b6000808260001c905080915050919050565b600060046000838152602001908152602001600020549050919050565b610eaa6111be565b73ffffffffffffffffffffffffffffffffffffffff1660008054906101000a900473ffffffffffffffffffffffffffffffffffffffff1673ffffffffffffffffffffffffffffffffffffffff1614610f6a576040517f08c379a00000000000000000000000000000000000000000000000000000000081526004018080602001828103825260208152602001807f4f776e61626c653a2063616c6c6572206973206e6f7420746865206f776e657281525060200191505060405180910390fd5b3373ffffffffffffffffffffffffffffffffffffffff166108fc479081150290604051600060405180830381858888f19350505050158015610fb0573d6000803e3d6000fd5b50565b610fbb6111be565b73ffffffffffffffffffffffffffffffffffffffff1660008054906101000a900473ffffffffffffffffffffffffffffffffffffffff1673ffffffffffffffffffffffffffffffffffffffff161461107b576040517f08c379a00000000000000000000000000000000000000000000000000000000081526004018080602001828103825260208152602001807f4f776e61626c653a2063616c6c6572206973206e6f7420746865206f776e657281525060200191505060405180910390fd5b600073ffffffffffffffffffffffffffffffffffffffff168173ffffffffffffffffffffffffffffffffffffffff161415611101576040517f08c379a00000000000000000000000000000000000000000000000000000000081526004018080602001828103825260268152602001806111c76026913960400191505060405180910390fd5b8073ffffffffffffffffffffffffffffffffffffffff1660008054906101000a900473ffffffffffffffffffffffffffffffffffffffff1673ffffffffffffffffffffffffffffffffffffffff167f8be0079c531659141344cd1fd0a4f28419497f9722a3daafe3b4186f6b6457e060405160405180910390a3806000806101000a81548173ffffffffffffffffffffffffffffffffffffffff021916908373ffffffffffffffffffffffffffffffffffffffff16021790555050565b60003390509056fe4f776e61626c653a206e6577206f776e657220697320746865207a65726f2061646472657373a26469706673582212207a2af985c221d6013bb611fc8623d89d4e2fc0545a0ca03c038cc6181986e9e664736f6c63430007040033",
  "immutableReferences": {},
  "source": "// SPDX-License-Identifier: MIT\r\npragma solidity ^0.7.0;\r\n\r\nimport \"@openzeppelin/contracts/access/Ownable.sol\";\r\nimport \"contracts/SimulatedContracts/IENSSim.sol\";\r\n\r\ncontract ENSRegControllerSim is Ownable {\r\n    address ensAddress = address(0);\r\n    uint256 renewPrice = 118496123;\r\n    uint256 balance = 0;\r\n    \r\n    mapping (uint256 => uint256) expiry;\r\n    uint256[] names;\r\n\r\n    constructor(address _ensAddress){\r\n        ensAddress = _ensAddress;\r\n        IENSSim ensSim = IENSSim(_ensAddress);\r\n        ensSim.updateRegController(address(this));\r\n    }\r\n\r\n    // Simulated functions\r\n    function ens() public view returns(address){\r\n        return (ensAddress);\r\n    }\r\n    function renew(string calldata _id, uint256 _duration) public payable {\r\n        require(msg.value > _duration * renewPrice);\r\n        uint256 _cost = _duration * renewPrice;\r\n        string memory _eth;\r\n        _eth = \"eth\";\r\n        bytes32 nameHash = computeHash(_id,computeHash(_eth, bytes32(0x0)));\r\n        uint256 uintNameHash = convertBytesToUint(nameHash);\r\n        bool _exists = false;\r\n        for (uint256 i; i < names.length; i++){\r\n            if(names[i] == uintNameHash){\r\n                _exists = true;\r\n            }\r\n        }\r\n        if(_exists = false){\r\n            require(false, \"name not found\");\r\n        } else {\r\n            expiry[uintNameHash] = expiry[uintNameHash] + _duration;\r\n            balance = balance + _cost;\r\n            msg.sender.transfer(address(this).balance - balance);\r\n        }\r\n    }\r\n\r\n    function rentPrice(string memory _name, uint256 _duration) public view returns(uint256){\r\n        _name;\r\n        uint256 _cost = _duration * renewPrice;\r\n        return (_cost);\r\n    }\r\n\r\n\r\n    // admin functions\r\n    function expires(uint256 _id) public view returns(uint256){\r\n        return (expiry[_id]);\r\n    }\r\n    function withdraw() public onlyOwner {\r\n        msg.sender.transfer(address(this).balance);\r\n    }\r\n    function updateENS(address _ensAddress) public {\r\n        ensAddress = _ensAddress;\r\n    }\r\n    /// either adds, updates or removes a name\r\n    function updateName(uint256 _name, uint256 _expiry) public {\r\n        if(_expiry != 0){\r\n            bool _exists = false;\r\n            for (uint256 i; i < names.length; i++){\r\n                if(names[i] == _name){\r\n                    expiry[_name] = _expiry;\r\n                    _exists = true;\r\n                }\r\n\r\n            }\r\n            if (_exists == false){\r\n                names.push(_name);\r\n                expiry[_name] = _expiry; \r\n            }\r\n        } else {\r\n            for (uint256 i; i < names.length; i++){\r\n                if(names[i] == _name){\r\n                    names[i] = names[names.length-1];\r\n                    names.pop();\r\n                }\r\n\r\n            }\r\n        }\r\n        \r\n    }\r\n    function day() public {\r\n        for (uint256 i; i < names.length; i++){\r\n            expiry[names[i]] = expiry[names[i]] - 1 days;\r\n        }\r\n    }\r\n    function month() public {\r\n        for (uint256 i; i < names.length; i++){\r\n            expiry[names[i]] = expiry[names[i]] - 28 days;\r\n        }\r\n    }\r\n\r\n    function convertBytesToUint(bytes32 _bytes) public pure returns(uint256){\r\n        uint256 _uint = uint256(_bytes);\r\n        return (_uint);\r\n    }\r\n    function convertUintToBytes(uint256 _uint) public pure returns(bytes32){\r\n        bytes32 _bytes = bytes32(_uint);\r\n        return (_bytes);\r\n    }\r\n\r\n    function computeHash(string memory _subdomain, bytes32 _name) public pure returns (bytes32 namehash) {\r\n        namehash = keccak256(abi.encodePacked(_name, keccak256(abi.encodePacked(_subdomain))));\r\n    }\r\n\r\n    function retrieveETH() external onlyOwner {\r\n        msg.sender.transfer(address(this).balance);\r\n    }\r\n\r\n}",
  "sourcePath": "C:/Users/anyth/Documents/GitHub/StakeYourName/contracts/SimulatedContracts/ENSRegControllerSim.sol",
  "compiler": {
    "name": "solc",
    "version": "0.7.4+commit.3f05b770.Emscripten.clang"
  },
  "schemaVersion": "3.3.3",
  "updatedAt": "2021-01-31T10:41:09.634Z",
  "networkType": "ethereum",
  "devdoc": {
    "kind": "dev",
    "methods": {
      "owner()": {
        "details": "Returns the address of the current owner."
      },
      "renounceOwnership()": {
        "details": "Leaves the contract without owner. It will not be possible to call `onlyOwner` functions anymore. Can only be called by the current owner. NOTE: Renouncing ownership will leave the contract without an owner, thereby removing any functionality that is only available to the owner."
      },
      "transferOwnership(address)": {
        "details": "Transfers ownership of the contract to a new account (`newOwner`). Can only be called by the current owner."
      }
    },
    "version": 1
  },
  "userdoc": {
    "kind": "user",
    "methods": {
      "updateName(uint256,uint256)": {
        "notice": "either adds, updates or removes a name"
      }
    },
    "version": 1
  }
}