{
  "contractName": "ENSRegControllerSim",
  "abi": [
    {
      "inputs": [
        {
          "internalType": "address",
          "name": "_ensAddress",
          "type": "address"
        }
      ],
      "stateMutability": "nonpayable",
      "type": "constructor"
    },
    {
      "anonymous": false,
      "inputs": [
        {
          "indexed": true,
          "internalType": "address",
          "name": "previousOwner",
          "type": "address"
        },
        {
          "indexed": true,
          "internalType": "address",
          "name": "newOwner",
          "type": "address"
        }
      ],
      "name": "OwnershipTransferred",
      "type": "event"
    },
    {
      "inputs": [],
      "name": "owner",
      "outputs": [
        {
          "internalType": "address",
          "name": "",
          "type": "address"
        }
      ],
      "stateMutability": "view",
      "type": "function"
    },
    {
      "inputs": [],
      "name": "renounceOwnership",
      "outputs": [],
      "stateMutability": "nonpayable",
      "type": "function"
    },
    {
      "inputs": [
        {
          "internalType": "address",
          "name": "newOwner",
          "type": "address"
        }
      ],
      "name": "transferOwnership",
      "outputs": [],
      "stateMutability": "nonpayable",
      "type": "function"
    },
    {
      "inputs": [],
      "name": "ens",
      "outputs": [
        {
          "internalType": "address",
          "name": "",
          "type": "address"
        }
      ],
      "stateMutability": "view",
      "type": "function"
    },
    {
      "inputs": [
        {
          "internalType": "string",
          "name": "_id",
          "type": "string"
        },
        {
          "internalType": "uint256",
          "name": "_duration",
          "type": "uint256"
        }
      ],
      "name": "renew",
      "outputs": [],
      "stateMutability": "payable",
      "type": "function"
    },
    {
      "inputs": [
        {
          "internalType": "string",
          "name": "_name",
          "type": "string"
        },
        {
          "internalType": "uint256",
          "name": "_duration",
          "type": "uint256"
        }
      ],
      "name": "rentPrice",
      "outputs": [
        {
          "internalType": "uint256",
          "name": "",
          "type": "uint256"
        }
      ],
      "stateMutability": "view",
      "type": "function"
    },
    {
      "inputs": [
        {
          "internalType": "uint256",
          "name": "_id",
          "type": "uint256"
        }
      ],
      "name": "expires",
      "outputs": [
        {
          "internalType": "uint256",
          "name": "",
          "type": "uint256"
        }
      ],
      "stateMutability": "view",
      "type": "function"
    },
    {
      "inputs": [],
      "name": "withdraw",
      "outputs": [],
      "stateMutability": "nonpayable",
      "type": "function"
    },
    {
      "inputs": [
        {
          "internalType": "address",
          "name": "_ensAddress",
          "type": "address"
        }
      ],
      "name": "updateENS",
      "outputs": [],
      "stateMutability": "nonpayable",
      "type": "function"
    },
    {
      "inputs": [
        {
          "internalType": "uint256",
          "name": "_name",
          "type": "uint256"
        },
        {
          "internalType": "uint256",
          "name": "_expiry",
          "type": "uint256"
        }
      ],
      "name": "updateName",
      "outputs": [],
      "stateMutability": "nonpayable",
      "type": "function"
    },
    {
      "inputs": [],
      "name": "day",
      "outputs": [],
      "stateMutability": "nonpayable",
      "type": "function"
    },
    {
      "inputs": [],
      "name": "month",
      "outputs": [],
      "stateMutability": "nonpayable",
      "type": "function"
    },
    {
      "inputs": [
        {
          "internalType": "bytes32",
          "name": "_bytes",
          "type": "bytes32"
        }
      ],
      "name": "convertBytesToUint",
      "outputs": [
        {
          "internalType": "uint256",
          "name": "",
          "type": "uint256"
        }
      ],
      "stateMutability": "pure",
      "type": "function"
    },
    {
      "inputs": [
        {
          "internalType": "uint256",
          "name": "_uint",
          "type": "uint256"
        }
      ],
      "name": "convertUintToBytes",
      "outputs": [
        {
          "internalType": "bytes32",
          "name": "",
          "type": "bytes32"
        }
      ],
      "stateMutability": "pure",
      "type": "function"
    },
    {
      "inputs": [
        {
          "internalType": "string",
          "name": "_subdomain",
          "type": "string"
        },
        {
          "internalType": "bytes32",
          "name": "_name",
          "type": "bytes32"
        }
      ],
      "name": "computeHash",
      "outputs": [
        {
          "internalType": "bytes32",
          "name": "namehash",
          "type": "bytes32"
        }
      ],
      "stateMutability": "pure",
      "type": "function"
    },
    {
      "inputs": [],
      "name": "retrieveETH",
      "outputs": [],
      "stateMutability": "nonpayable",
      "type": "function"
    }
  ],
  "bytecode": "0x6080604052600180546001600160a01b03191690556307101b7b600255600060035534801561002d57600080fd5b50604051610c93380380610c938339818101604052602081101561005057600080fd5b5051600061005c610122565b600080546001600160a01b0319166001600160a01b0383169081178255604051929350917f8be0079c531659141344cd1fd0a4f28419497f9722a3daafe3b4186f6b6457e0908290a350600180546001600160a01b0319166001600160a01b03831690811790915560408051635b2a237560e11b8152306004820152905183929163b65446ea91602480830192600092919082900301818387803b15801561010357600080fd5b505af1158015610117573d6000803e3d6000fd5b505050505050610126565b3390565b610b5e806101356000396000f3fe6080604052600436106100f35760003560e01c80638da5cb5b1161008a578063bb452db411610059578063bb452db4146103e3578063cb52c8231461040d578063d5b014c31461012a578063f2fde38b14610437576100f3565b80638da5cb5b1461032b578063acf1a84114610340578063ae55c35d146103b0578063ae76173e146103e3576100f3565b8063702921f5116100c6578063702921f514610237578063715018a61461024c5780637b76ac911461026157806383e7f6ff14610276576100f3565b80631a20261e146100f85780633ccfd60b1461012a5780633f15457f1461013f57806361f6bc2c14610170575b600080fd5b34801561010457600080fd5b506101286004803603604081101561011b57600080fd5b508035906020013561046a565b005b34801561013657600080fd5b5061012861059b565b34801561014b57600080fd5b50610154610634565b604080516001600160a01b039092168252519081900360200190f35b34801561017c57600080fd5b506102256004803603604081101561019357600080fd5b8101906020810181356401000000008111156101ae57600080fd5b8201836020820111156101c057600080fd5b803590602001918460018302840111640100000000831117156101e257600080fd5b91908080601f0160208091040260200160405190810160405280939291908181526020018383808284376000920191909152509295505091359250610643915050565b60408051918252519081900360200190f35b34801561024357600080fd5b506101286106e9565b34801561025857600080fd5b5061012861075b565b34801561026d57600080fd5b5061012861080f565b34801561028257600080fd5b506102256004803603604081101561029957600080fd5b8101906020810181356401000000008111156102b457600080fd5b8201836020820111156102c657600080fd5b803590602001918460018302840111640100000000831117156102e857600080fd5b91908080601f0160208091040260200160405190810160405280939291908181526020018383808284376000920191909152509295505091359250610881915050565b34801561033757600080fd5b5061015461088a565b6101286004803603604081101561035657600080fd5b81019060208101813564010000000081111561037157600080fd5b82018360208201111561038357600080fd5b803590602001918460018302840111640100000000831117156103a557600080fd5b919350915035610899565b3480156103bc57600080fd5b50610128600480360360208110156103d357600080fd5b50356001600160a01b03166109bd565b3480156103ef57600080fd5b506102256004803603602081101561040657600080fd5b50356109df565b34801561041957600080fd5b506102256004803603602081101561043057600080fd5b50356109e2565b34801561044357600080fd5b506101286004803603602081101561045a57600080fd5b50356001600160a01b03166109f4565b8015610509576000805b6005548110156104bb57836005828154811061048c57fe5b906000526020600020015414156104b3576000848152600460205260409020839055600191505b600101610474565b50806105035760058054600181019091557f036b6384b5eca791c62761152d0c79bb0604c104a5fb6f4eb0703f3154bb3db00183905560008381526004602052604090208290555b50610597565b60005b60055481101561059557826005828154811061052457fe5b9060005260206000200154141561058d5760058054600019810190811061054757fe5b90600052602060002001546005828154811061055f57fe5b600091825260209091200155600580548061057657fe5b600190038181906000526020600020016000905590555b60010161050c565b505b5050565b6105a3610afe565b6000546001600160a01b03908116911614610605576040805162461bcd60e51b815260206004820181905260248201527f4f776e61626c653a2063616c6c6572206973206e6f7420746865206f776e6572604482015290519081900360640190fd5b60405133904780156108fc02916000818181858888f19350505050158015610631573d6000803e3d6000fd5b50565b6001546001600160a01b031690565b600081836040516020018082805190602001908083835b602083106106795780518252601f19909201916020918201910161065a565b6001836020036101000a03801982511681845116808217855250505050505090500191505060405160208183030381529060405280519060200120604051602001808381526020018281526020019250505060405160208183030381529060405280519060200120905092915050565b60005b600554811015610631576224ea00600460006005848154811061070b57fe5b906000526020600020015481526020019081526020016000205403600460006005848154811061073757fe5b600091825260208083209091015483528201929092526040019020556001016106ec565b610763610afe565b6000546001600160a01b039081169116146107c5576040805162461bcd60e51b815260206004820181905260248201527f4f776e61626c653a2063616c6c6572206973206e6f7420746865206f776e6572604482015290519081900360640190fd5b600080546040516001600160a01b03909116907f8be0079c531659141344cd1fd0a4f28419497f9722a3daafe3b4186f6b6457e0908390a3600080546001600160a01b0319169055565b60005b6005548110156106315762015180600460006005848154811061083157fe5b906000526020600020015481526020019081526020016000205403600460006005848154811061085d57fe5b60009182526020808320909101548352820192909252604001902055600101610812565b60025402919050565b6000546001600160a01b031690565b600254810234116108a957600080fd5b6000600254820290506060604051806040016040528060038152602001620cae8d60eb1b8152509050600061091d86868080601f016020809104026020016040519081016040528093929190818152602001838380828437600092018290525061091893508792509050610643565b610643565b9050600061092a826109df565b90506000805b60055481101561096657826005828154811061094857fe5b9060005260206000200154141561095e57600191505b600101610930565b50506000818152600460205260408082208054880190556003805487019081905590513391470380156108fc029184818181858888f193505050501580156109b2573d6000803e3d6000fd5b505050505050505050565b600180546001600160a01b0319166001600160a01b0392909216919091179055565b90565b60009081526004602052604090205490565b6109fc610afe565b6000546001600160a01b03908116911614610a5e576040805162461bcd60e51b815260206004820181905260248201527f4f776e61626c653a2063616c6c6572206973206e6f7420746865206f776e6572604482015290519081900360640190fd5b6001600160a01b038116610aa35760405162461bcd60e51b8152600401808060200182810382526026815260200180610b036026913960400191505060405180910390fd5b600080546040516001600160a01b03808516939216917f8be0079c531659141344cd1fd0a4f28419497f9722a3daafe3b4186f6b6457e091a3600080546001600160a01b0319166001600160a01b0392909216919091179055565b339056fe4f776e61626c653a206e6577206f776e657220697320746865207a65726f2061646472657373a2646970667358221220e8307a7bc269a37ac245e9c9e38f329be8562a17e9a27178c74ca1b7f732545764736f6c63430007060033",
  "immutableReferences": {},
  "source": "// SPDX-License-Identifier: MIT\r\npragma solidity ^0.7.0;\r\n\r\nimport \"@openzeppelin/contracts/access/Ownable.sol\";\r\nimport \"contracts/SimulatedContracts/IENSSim.sol\";\r\n\r\ncontract ENSRegControllerSim is Ownable {\r\n    address ensAddress = address(0);\r\n    uint256 renewPrice = 118496123;\r\n    uint256 balance = 0;\r\n    \r\n    mapping (uint256 => uint256) expiry;\r\n    uint256[] names;\r\n\r\n    constructor(address _ensAddress){\r\n        ensAddress = _ensAddress;\r\n        IENSSim ensSim = IENSSim(_ensAddress);\r\n        ensSim.updateRegController(address(this));\r\n    }\r\n\r\n    // Simulated functions\r\n    function ens() public view returns(address){\r\n        return (ensAddress);\r\n    }\r\n    function renew(string calldata _id, uint256 _duration) public payable {\r\n        require(msg.value > _duration * renewPrice);\r\n        uint256 _cost = _duration * renewPrice;\r\n        string memory _eth;\r\n        _eth = \"eth\";\r\n        bytes32 nameHash = computeHash(_id,computeHash(_eth, bytes32(0x0)));\r\n        uint256 uintNameHash = convertBytesToUint(nameHash);\r\n        bool _exists = false;\r\n        for (uint256 i; i < names.length; i++){\r\n            if(names[i] == uintNameHash){\r\n                _exists = true;\r\n            }\r\n        }\r\n        if(_exists = false){\r\n            require(false, \"name not found\");\r\n        } else {\r\n            expiry[uintNameHash] = expiry[uintNameHash] + _duration;\r\n            balance = balance + _cost;\r\n            msg.sender.transfer(address(this).balance - balance);\r\n        }\r\n    }\r\n\r\n    function rentPrice(string memory _name, uint256 _duration) public view returns(uint256){\r\n        _name;\r\n        uint256 _cost = _duration * renewPrice;\r\n        return (_cost);\r\n    }\r\n\r\n\r\n    // admin functions\r\n    function expires(uint256 _id) public view returns(uint256){\r\n        return (expiry[_id]);\r\n    }\r\n    function withdraw() public onlyOwner {\r\n        msg.sender.transfer(address(this).balance);\r\n    }\r\n    function updateENS(address _ensAddress) public {\r\n        ensAddress = _ensAddress;\r\n    }\r\n    /// either adds, updates or removes a name\r\n    function updateName(uint256 _name, uint256 _expiry) public {\r\n        if(_expiry != 0){\r\n            bool _exists = false;\r\n            for (uint256 i; i < names.length; i++){\r\n                if(names[i] == _name){\r\n                    expiry[_name] = _expiry;\r\n                    _exists = true;\r\n                }\r\n\r\n            }\r\n            if (_exists == false){\r\n                names.push(_name);\r\n                expiry[_name] = _expiry; \r\n            }\r\n        } else {\r\n            for (uint256 i; i < names.length; i++){\r\n                if(names[i] == _name){\r\n                    names[i] = names[names.length-1];\r\n                    names.pop();\r\n                }\r\n\r\n            }\r\n        }\r\n        \r\n    }\r\n    function day() public {\r\n        for (uint256 i; i < names.length; i++){\r\n            expiry[names[i]] = expiry[names[i]] - 1 days;\r\n        }\r\n    }\r\n    function month() public {\r\n        for (uint256 i; i < names.length; i++){\r\n            expiry[names[i]] = expiry[names[i]] - 28 days;\r\n        }\r\n    }\r\n\r\n    function convertBytesToUint(bytes32 _bytes) public pure returns(uint256){\r\n        uint256 _uint = uint256(_bytes);\r\n        return (_uint);\r\n    }\r\n    function convertUintToBytes(uint256 _uint) public pure returns(bytes32){\r\n        bytes32 _bytes = bytes32(_uint);\r\n        return (_bytes);\r\n    }\r\n\r\n    function computeHash(string memory _subdomain, bytes32 _name) public pure returns (bytes32 namehash) {\r\n        namehash = keccak256(abi.encodePacked(_name, keccak256(abi.encodePacked(_subdomain))));\r\n    }\r\n\r\n    function retrieveETH() external onlyOwner {\r\n        msg.sender.transfer(address(this).balance);\r\n    }\r\n\r\n}",
  "sourcePath": "C:/Users/anyth/Documents/GitHub/StakeYourName/contracts/SimulatedContracts/ENSRegControllerSim.sol",
  "compiler": {
    "name": "solc",
    "version": "0.7.6+commit.7338295f.Emscripten.clang"
  },
  "schemaVersion": "3.3.3",
  "updatedAt": "2021-02-01T15:31:38.076Z",
  "devdoc": {
    "kind": "dev",
    "methods": {
      "owner()": {
        "details": "Returns the address of the current owner."
      },
      "renounceOwnership()": {
        "details": "Leaves the contract without owner. It will not be possible to call `onlyOwner` functions anymore. Can only be called by the current owner. NOTE: Renouncing ownership will leave the contract without an owner, thereby removing any functionality that is only available to the owner."
      },
      "transferOwnership(address)": {
        "details": "Transfers ownership of the contract to a new account (`newOwner`). Can only be called by the current owner."
      }
    },
    "version": 1
  },
  "userdoc": {
    "kind": "user",
    "methods": {
      "updateName(uint256,uint256)": {
        "notice": "either adds, updates or removes a name"
      }
    },
    "version": 1
  }
}