{
  "contractName": "ENSResolverSim",
  "abi": [
    {
      "inputs": [
        {
          "internalType": "bytes32",
          "name": "_hash",
          "type": "bytes32"
        }
      ],
      "name": "addr",
      "outputs": [
        {
          "internalType": "address",
          "name": "",
          "type": "address"
        }
      ],
      "stateMutability": "view",
      "type": "function"
    }
  ],
  "bytecode": "0x60806040527354534c4fb48f541f44f2097b8da24a1c4fa61ab26000806101000a81548173ffffffffffffffffffffffffffffffffffffffff021916908373ffffffffffffffffffffffffffffffffffffffff160217905550738ae6ccbdb5f1dd14a5737dfa65489edd50e188ed600160006101000a81548173ffffffffffffffffffffffffffffffffffffffff021916908373ffffffffffffffffffffffffffffffffffffffff160217905550735585aa20a6790e23d7a03f4f20a0e73c19df2ff4600260006101000a81548173ffffffffffffffffffffffffffffffffffffffff021916908373ffffffffffffffffffffffffffffffffffffffff1602179055507313eba327774c6feac18f3c2793364d05275afeb6600360006101000a81548173ffffffffffffffffffffffffffffffffffffffff021916908373ffffffffffffffffffffffffffffffffffffffff1602179055507f787192fc5378cc32aa956ddfdedbf26b24e8d78e40109add0eea2c1a012c3dec60001b6004557fbe11069ec59144113f438b6ef59dd30497769fc2dce8e2b52e3ae71ac18e47c960001b6005557fbe11069ec59144113f438b6ef59dd30497769fc2dce8e2b52e3ae71ac18e47c960001b6006557f6332e6cb2f726edb4a48f583318dedd5ec9ddc8622b76b1d6d44748169fffd5160001b6007553480156101ff57600080fd5b506101988061020f6000396000f3fe608060405234801561001057600080fd5b506004361061002b5760003560e01c80633b3b57de14610030575b600080fd5b61005c6004803603602081101561004657600080fd5b8101908080359060200190929190505050610088565b604051808273ffffffffffffffffffffffffffffffffffffffff16815260200191505060405180910390f35b60006004548214156100bc5760008054906101000a900473ffffffffffffffffffffffffffffffffffffffff16905061015d565b6005548214156100f057600160009054906101000a900473ffffffffffffffffffffffffffffffffffffffff16905061015d565b60065482141561012457600260009054906101000a900473ffffffffffffffffffffffffffffffffffffffff16905061015d565b60075482141561015857600360009054906101000a900473ffffffffffffffffffffffffffffffffffffffff16905061015d565b600090505b91905056fea2646970667358221220d1c0dfb46f52b7500f0e22e8d612842b0d497e9df04af3ecfae05642f055bd5264736f6c63430007040033",
  "immutableReferences": {},
  "source": "// SPDX-License-Identifier: MIT\r\npragma solidity ^0.7.0;\r\n\r\n\r\ncontract ENSResolverSim {\r\n    address alice = 0x54534C4FB48f541F44F2097B8DA24A1c4Fa61aB2;\r\n    address bob = 0x8Ae6cCBdb5F1Dd14A5737dfA65489eDD50E188ed;\r\n    address charlie = 0x5585aa20A6790e23D7A03f4f20A0E73C19dF2FF4;\r\n    address splidge = 0x13eBa327774c6Feac18f3c2793364d05275AFEB6;\r\n\r\n    bytes32 aliceHash = 0x787192fc5378cc32aa956ddfdedbf26b24e8d78e40109add0eea2c1a012c3dec;\r\n    bytes32 bobHash = 0xbe11069ec59144113f438b6ef59dd30497769fc2dce8e2b52e3ae71ac18e47c9;\r\n    bytes32 charlieHash = 0xbe11069ec59144113f438b6ef59dd30497769fc2dce8e2b52e3ae71ac18e47c9;\r\n    bytes32 splidgeHash = 0x6332e6cb2f726edb4a48f583318dedd5ec9ddc8622b76b1d6d44748169fffd51;\r\n\r\n    function addr(bytes32 _hash) public view returns(address){\r\n        if (_hash == aliceHash){return alice;}\r\n        if (_hash == bobHash){return bob;}\r\n        if (_hash == charlieHash){return charlie;}\r\n        if (_hash == splidgeHash){return splidge;}\r\n        return address(0);\r\n    }\r\n}",
  "sourcePath": "C:/Users/anyth/Documents/GitHub/StakeYourName/contracts/SimulatedContracts/ENSResolverSim.sol",
  "compiler": {
    "name": "solc",
    "version": "0.7.4+commit.3f05b770.Emscripten.clang"
  },
  "schemaVersion": "3.3.3",
  "updatedAt": "2021-01-30T14:19:01.628Z",
  "devdoc": {
    "kind": "dev",
    "methods": {},
    "version": 1
  },
  "userdoc": {
    "kind": "user",
    "methods": {},
    "version": 1
  }
}