{
  "contractName": "ENSSim",
  "abi": [
    {
      "inputs": [],
      "name": "baseRegAddress",
      "outputs": [
        {
          "internalType": "address",
          "name": "",
          "type": "address"
        }
      ],
      "stateMutability": "view",
      "type": "function"
    },
    {
      "inputs": [],
      "name": "bulkRegAddress",
      "outputs": [
        {
          "internalType": "address",
          "name": "",
          "type": "address"
        }
      ],
      "stateMutability": "view",
      "type": "function"
    },
    {
      "inputs": [],
      "name": "regContAddress",
      "outputs": [
        {
          "internalType": "address",
          "name": "",
          "type": "address"
        }
      ],
      "stateMutability": "view",
      "type": "function"
    },
    {
      "inputs": [],
      "name": "resolverAddress",
      "outputs": [
        {
          "internalType": "address",
          "name": "",
          "type": "address"
        }
      ],
      "stateMutability": "view",
      "type": "function"
    },
    {
      "inputs": [],
      "name": "ens",
      "outputs": [
        {
          "internalType": "address",
          "name": "_ens",
          "type": "address"
        }
      ],
      "stateMutability": "view",
      "type": "function"
    },
    {
      "inputs": [
        {
          "internalType": "bytes32",
          "name": "",
          "type": "bytes32"
        }
      ],
      "name": "resolver",
      "outputs": [
        {
          "internalType": "address",
          "name": "",
          "type": "address"
        }
      ],
      "stateMutability": "view",
      "type": "function"
    },
    {
      "inputs": [
        {
          "internalType": "address",
          "name": "_resolverAddress",
          "type": "address"
        }
      ],
      "name": "updateResolver",
      "outputs": [],
      "stateMutability": "nonpayable",
      "type": "function"
    },
    {
      "inputs": [
        {
          "internalType": "address",
          "name": "_bulkRegAddress",
          "type": "address"
        }
      ],
      "name": "updateBulkReg",
      "outputs": [],
      "stateMutability": "nonpayable",
      "type": "function"
    },
    {
      "inputs": [
        {
          "internalType": "address",
          "name": "_baseRegAddress",
          "type": "address"
        }
      ],
      "name": "updateBaseReg",
      "outputs": [],
      "stateMutability": "nonpayable",
      "type": "function"
    },
    {
      "inputs": [
        {
          "internalType": "address",
          "name": "_regContAddress",
          "type": "address"
        }
      ],
      "name": "updateRegController",
      "outputs": [],
      "stateMutability": "nonpayable",
      "type": "function"
    }
  ],
  "bytecode": "0x608060405234801561001057600080fd5b506102ac806100206000396000f3fe608060405234801561001057600080fd5b506004361061009e5760003560e01c8063b1db5bec11610066578063b1db5bec1461013a578063b65446ea14610142578063e147502214610168578063e6fe39ed14610170578063ecea46ee146101965761009e565b80630178b8bf146100a35780633f15457f146100dc5780635fda8117146100e457806360cd9daa1461010c57806388ff726c14610132575b600080fd5b6100c0600480360360208110156100b957600080fd5b503561019e565b604080516001600160a01b039092168252519081900360200190f35b6100c06101ae565b61010a600480360360208110156100fa57600080fd5b50356001600160a01b03166101b2565b005b61010a6004803603602081101561012257600080fd5b50356001600160a01b03166101d4565b6100c06101f6565b6100c0610205565b61010a6004803603602081101561015857600080fd5b50356001600160a01b0316610214565b6100c0610236565b61010a6004803603602081101561018657600080fd5b50356001600160a01b0316610245565b6100c0610267565b506000546001600160a01b031690565b3090565b600280546001600160a01b0319166001600160a01b0392909216919091179055565b600180546001600160a01b0319166001600160a01b0392909216919091179055565b6003546001600160a01b031681565b6000546001600160a01b031681565b600380546001600160a01b0319166001600160a01b0392909216919091179055565b6001546001600160a01b031681565b600080546001600160a01b0319166001600160a01b0392909216919091179055565b6002546001600160a01b03168156fea2646970667358221220c42c1b8fd51d99be332d46b0f183f8585826fd3db713c4d880d318a70e061b4b64736f6c63430007060033",
  "immutableReferences": {},
  "source": "// SPDX-License-Identifier: MIT\r\npragma solidity ^0.7.0;\r\n\r\n\r\ncontract ENSSim {\r\n    address public resolverAddress;\r\n    address public bulkRegAddress;\r\n    address public baseRegAddress;\r\n    address public regContAddress;\r\n\r\n\r\n    function ens() public view returns(address _ens){\r\n        _ens = address(this);\r\n    }\r\n    function resolver(bytes32) public view returns(address){\r\n        return resolverAddress;\r\n    }\r\n    function updateResolver(address _resolverAddress) public{\r\n        resolverAddress = _resolverAddress;\r\n    }\r\n    function updateBulkReg(address _bulkRegAddress) public{\r\n        bulkRegAddress = _bulkRegAddress;\r\n    }\r\n    function updateBaseReg(address _baseRegAddress) public{\r\n        baseRegAddress = _baseRegAddress;\r\n    }\r\n    function updateRegController(address _regContAddress) public{\r\n        regContAddress = _regContAddress;\r\n    }\r\n    \r\n}\r\n",
  "sourcePath": "C:/Users/anyth/Documents/GitHub/StakeYourName/contracts/SimulatedContracts/ENSSim.sol",
  "compiler": {
    "name": "solc",
    "version": "0.7.6+commit.7338295f.Emscripten.clang"
  },
  "schemaVersion": "3.3.3",
  "updatedAt": "2021-02-01T15:31:38.082Z",
  "devdoc": {
    "kind": "dev",
    "methods": {},
    "version": 1
  },
  "userdoc": {
    "kind": "user",
    "methods": {},
    "version": 1
  }
}