{
  "contractName": "ENSSim",
  "abi": [
    {
      "inputs": [],
      "name": "baseRegAddress",
      "outputs": [
        {
          "internalType": "address",
          "name": "",
          "type": "address"
        }
      ],
      "stateMutability": "view",
      "type": "function",
      "constant": true
    },
    {
      "inputs": [],
      "name": "bulkRegAddress",
      "outputs": [
        {
          "internalType": "address",
          "name": "",
          "type": "address"
        }
      ],
      "stateMutability": "view",
      "type": "function",
      "constant": true
    },
    {
      "inputs": [],
      "name": "regContAddress",
      "outputs": [
        {
          "internalType": "address",
          "name": "",
          "type": "address"
        }
      ],
      "stateMutability": "view",
      "type": "function",
      "constant": true
    },
    {
      "inputs": [],
      "name": "resolverAddress",
      "outputs": [
        {
          "internalType": "address",
          "name": "",
          "type": "address"
        }
      ],
      "stateMutability": "view",
      "type": "function",
      "constant": true
    },
    {
      "inputs": [],
      "name": "ens",
      "outputs": [
        {
          "internalType": "address",
          "name": "_ens",
          "type": "address"
        }
      ],
      "stateMutability": "view",
      "type": "function",
      "constant": true
    },
    {
      "inputs": [
        {
          "internalType": "bytes32",
          "name": "",
          "type": "bytes32"
        }
      ],
      "name": "resolver",
      "outputs": [
        {
          "internalType": "address",
          "name": "",
          "type": "address"
        }
      ],
      "stateMutability": "view",
      "type": "function",
      "constant": true
    },
    {
      "inputs": [
        {
          "internalType": "address",
          "name": "_resolverAddress",
          "type": "address"
        }
      ],
      "name": "updateResolver",
      "outputs": [],
      "stateMutability": "nonpayable",
      "type": "function"
    },
    {
      "inputs": [
        {
          "internalType": "address",
          "name": "_bulkRegAddress",
          "type": "address"
        }
      ],
      "name": "updateBulkReg",
      "outputs": [],
      "stateMutability": "nonpayable",
      "type": "function"
    },
    {
      "inputs": [
        {
          "internalType": "address",
          "name": "_baseRegAddress",
          "type": "address"
        }
      ],
      "name": "updateBaseReg",
      "outputs": [],
      "stateMutability": "nonpayable",
      "type": "function"
    },
    {
      "inputs": [
        {
          "internalType": "address",
          "name": "_regContAddress",
          "type": "address"
        }
      ],
      "name": "updateRegController",
      "outputs": [],
      "stateMutability": "nonpayable",
      "type": "function"
    }
  ],
  "bytecode": "0x608060405234801561001057600080fd5b5061051d806100206000396000f3fe608060405234801561001057600080fd5b506004361061009e5760003560e01c8063b1db5bec11610066578063b1db5bec146101eb578063b65446ea1461021f578063e147502214610263578063e6fe39ed14610297578063ecea46ee146102db5761009e565b80630178b8bf146100a35780633f15457f146100fb5780635fda81171461012f57806360cd9daa1461017357806388ff726c146101b7575b600080fd5b6100cf600480360360208110156100b957600080fd5b810190808035906020019092919050505061030f565b604051808273ffffffffffffffffffffffffffffffffffffffff16815260200191505060405180910390f35b61010361033a565b604051808273ffffffffffffffffffffffffffffffffffffffff16815260200191505060405180910390f35b6101716004803603602081101561014557600080fd5b81019080803573ffffffffffffffffffffffffffffffffffffffff169060200190929190505050610342565b005b6101b56004803603602081101561018957600080fd5b81019080803573ffffffffffffffffffffffffffffffffffffffff169060200190929190505050610386565b005b6101bf6103ca565b604051808273ffffffffffffffffffffffffffffffffffffffff16815260200191505060405180910390f35b6101f36103f0565b604051808273ffffffffffffffffffffffffffffffffffffffff16815260200191505060405180910390f35b6102616004803603602081101561023557600080fd5b81019080803573ffffffffffffffffffffffffffffffffffffffff169060200190929190505050610414565b005b61026b610458565b604051808273ffffffffffffffffffffffffffffffffffffffff16815260200191505060405180910390f35b6102d9600480360360208110156102ad57600080fd5b81019080803573ffffffffffffffffffffffffffffffffffffffff16906020019092919050505061047e565b005b6102e36104c1565b604051808273ffffffffffffffffffffffffffffffffffffffff16815260200191505060405180910390f35b60008060009054906101000a900473ffffffffffffffffffffffffffffffffffffffff169050919050565b600030905090565b80600260006101000a81548173ffffffffffffffffffffffffffffffffffffffff021916908373ffffffffffffffffffffffffffffffffffffffff16021790555050565b80600160006101000a81548173ffffffffffffffffffffffffffffffffffffffff021916908373ffffffffffffffffffffffffffffffffffffffff16021790555050565b600360009054906101000a900473ffffffffffffffffffffffffffffffffffffffff1681565b60008054906101000a900473ffffffffffffffffffffffffffffffffffffffff1681565b80600360006101000a81548173ffffffffffffffffffffffffffffffffffffffff021916908373ffffffffffffffffffffffffffffffffffffffff16021790555050565b600160009054906101000a900473ffffffffffffffffffffffffffffffffffffffff1681565b806000806101000a81548173ffffffffffffffffffffffffffffffffffffffff021916908373ffffffffffffffffffffffffffffffffffffffff16021790555050565b600260009054906101000a900473ffffffffffffffffffffffffffffffffffffffff168156fea26469706673582212207f991fed032668fef0c23847620a9ed1908a816a72cfe4c3c5d67f4bebef007564736f6c63430007040033",
  "immutableReferences": {},
  "source": "// SPDX-License-Identifier: MIT\r\npragma solidity ^0.7.0;\r\n\r\n\r\ncontract ENSSim {\r\n    address public resolverAddress;\r\n    address public bulkRegAddress;\r\n    address public baseRegAddress;\r\n    address public regContAddress;\r\n\r\n\r\n    function ens() public view returns(address _ens){\r\n        _ens = address(this);\r\n    }\r\n    function resolver(bytes32) public view returns(address){\r\n        return resolverAddress;\r\n    }\r\n    function updateResolver(address _resolverAddress) public{\r\n        resolverAddress = _resolverAddress;\r\n    }\r\n    function updateBulkReg(address _bulkRegAddress) public{\r\n        bulkRegAddress = _bulkRegAddress;\r\n    }\r\n    function updateBaseReg(address _baseRegAddress) public{\r\n        baseRegAddress = _baseRegAddress;\r\n    }\r\n    function updateRegController(address _regContAddress) public{\r\n        regContAddress = _regContAddress;\r\n    }\r\n    \r\n}\r\n",
  "sourcePath": "C:/Users/anyth/Documents/GitHub/StakeYourName/contracts/SimulatedContracts/ENSSim.sol",
  "compiler": {
    "name": "solc",
    "version": "0.7.4+commit.3f05b770.Emscripten.clang"
  },
  "schemaVersion": "3.3.3",
  "updatedAt": "2021-01-31T10:41:09.624Z",
  "networkType": "ethereum",
  "devdoc": {
    "kind": "dev",
    "methods": {},
    "version": 1
  },
  "userdoc": {
    "kind": "user",
    "methods": {},
    "version": 1
  }
}