{
  "contractName": "ENSSim",
  "abi": [
    {
      "inputs": [
        {
          "internalType": "address",
          "name": "_resolver",
          "type": "address"
        }
      ],
      "stateMutability": "nonpayable",
      "type": "constructor"
    },
    {
      "inputs": [],
      "name": "ens",
      "outputs": [
        {
          "internalType": "address",
          "name": "_ens",
          "type": "address"
        }
      ],
      "stateMutability": "view",
      "type": "function"
    },
    {
      "inputs": [
        {
          "internalType": "bytes32",
          "name": "",
          "type": "bytes32"
        }
      ],
      "name": "resolver",
      "outputs": [
        {
          "internalType": "address",
          "name": "",
          "type": "address"
        }
      ],
      "stateMutability": "view",
      "type": "function"
    }
  ],
  "bytecode": "0x608060405234801561001057600080fd5b506040516101bb3803806101bb8339818101604052602081101561003357600080fd5b8101908080519060200190929190505050806000806101000a81548173ffffffffffffffffffffffffffffffffffffffff021916908373ffffffffffffffffffffffffffffffffffffffff16021790555050610127806100946000396000f3fe6080604052348015600f57600080fd5b506004361060325760003560e01c80630178b8bf1460375780633f15457f14608c575b600080fd5b606060048036036020811015604b57600080fd5b810190808035906020019092919050505060be565b604051808273ffffffffffffffffffffffffffffffffffffffff16815260200191505060405180910390f35b609260e9565b604051808273ffffffffffffffffffffffffffffffffffffffff16815260200191505060405180910390f35b60008060009054906101000a900473ffffffffffffffffffffffffffffffffffffffff169050919050565b60003090509056fea2646970667358221220ad42d6d71686d55da5d908e418a9e51e380dc8348ecd5958686469df4be86b7464736f6c63430007040033",
  "immutableReferences": {},
  "source": "// SPDX-License-Identifier: MIT\r\npragma solidity ^0.7.0;\r\n\r\n\r\ncontract ENSSim {\r\n    address resolverAddress;\r\n    constructor(address _resolver){\r\n        resolverAddress = _resolver;\r\n    }\r\n    function ens() public view returns(address _ens){\r\n        _ens = address(this);\r\n    }\r\n    function resolver(bytes32) public view returns(address){\r\n        return resolverAddress;\r\n    }\r\n}\r\n",
  "sourcePath": "C:/Users/anyth/Documents/GitHub/StakeYourName/contracts/SimulatedContracts/ENSSim.sol",
  "compiler": {
    "name": "solc",
    "version": "0.7.4+commit.3f05b770.Emscripten.clang"
  },
  "schemaVersion": "3.3.3",
  "updatedAt": "2021-01-30T14:19:01.629Z",
  "devdoc": {
    "kind": "dev",
    "methods": {},
    "version": 1
  },
  "userdoc": {
    "kind": "user",
    "methods": {},
    "version": 1
  }
}