{
  "contractName": "ExchangeManager",
  "abi": [
    {
      "inputs": [
        {
          "internalType": "uint256",
          "name": "_networkID",
          "type": "uint256"
        }
      ],
      "stateMutability": "nonpayable",
      "type": "constructor"
    },
    {
      "anonymous": false,
      "inputs": [
        {
          "indexed": true,
          "internalType": "address",
          "name": "previousOwner",
          "type": "address"
        },
        {
          "indexed": true,
          "internalType": "address",
          "name": "newOwner",
          "type": "address"
        }
      ],
      "name": "OwnershipTransferred",
      "type": "event"
    },
    {
      "inputs": [],
      "name": "owner",
      "outputs": [
        {
          "internalType": "address",
          "name": "",
          "type": "address"
        }
      ],
      "stateMutability": "view",
      "type": "function",
      "constant": true
    },
    {
      "inputs": [],
      "name": "renounceOwnership",
      "outputs": [],
      "stateMutability": "nonpayable",
      "type": "function"
    },
    {
      "inputs": [
        {
          "internalType": "address",
          "name": "newOwner",
          "type": "address"
        }
      ],
      "name": "transferOwnership",
      "outputs": [],
      "stateMutability": "nonpayable",
      "type": "function"
    },
    {
      "inputs": [
        {
          "internalType": "string",
          "name": "_pair",
          "type": "string"
        }
      ],
      "name": "getOracleAddress",
      "outputs": [
        {
          "internalType": "address",
          "name": "",
          "type": "address"
        }
      ],
      "stateMutability": "nonpayable",
      "type": "function"
    },
    {
      "inputs": [
        {
          "internalType": "address",
          "name": "_asset",
          "type": "address"
        }
      ],
      "name": "assembleTokenEthPair",
      "outputs": [
        {
          "internalType": "string",
          "name": "",
          "type": "string"
        }
      ],
      "stateMutability": "view",
      "type": "function",
      "constant": true
    },
    {
      "inputs": [],
      "name": "get1InchAddress",
      "outputs": [],
      "stateMutability": "nonpayable",
      "type": "function"
    },
    {
      "inputs": [
        {
          "internalType": "address",
          "name": "_inputToken",
          "type": "address"
        },
        {
          "internalType": "uint256",
          "name": "_outputValue",
          "type": "uint256"
        },
        {
          "internalType": "address",
          "name": "_outputToken",
          "type": "address"
        }
      ],
      "name": "getExchangePrice",
      "outputs": [
        {
          "internalType": "uint256",
          "name": "",
          "type": "uint256"
        },
        {
          "internalType": "uint256[]",
          "name": "",
          "type": "uint256[]"
        }
      ],
      "stateMutability": "view",
      "type": "function",
      "constant": true
    },
    {
      "inputs": [
        {
          "internalType": "contract IERC20",
          "name": "fromToken",
          "type": "address"
        },
        {
          "internalType": "contract IERC20",
          "name": "destToken",
          "type": "address"
        },
        {
          "internalType": "uint256",
          "name": "amount",
          "type": "uint256"
        },
        {
          "internalType": "uint256",
          "name": "minReturn",
          "type": "uint256"
        },
        {
          "internalType": "uint256[]",
          "name": "distribution",
          "type": "uint256[]"
        },
        {
          "internalType": "uint256",
          "name": "flags",
          "type": "uint256"
        }
      ],
      "name": "swap",
      "outputs": [
        {
          "internalType": "uint256",
          "name": "returnAmount",
          "type": "uint256"
        }
      ],
      "stateMutability": "payable",
      "type": "function",
      "payable": true
    },
    {
      "inputs": [
        {
          "internalType": "uint256",
          "name": "_newParts",
          "type": "uint256"
        }
      ],
      "name": "updateExchangeParts",
      "outputs": [],
      "stateMutability": "nonpayable",
      "type": "function"
    },
    {
      "inputs": [
        {
          "internalType": "uint256",
          "name": "_newFlags",
          "type": "uint256"
        }
      ],
      "name": "updateExchangeFlags",
      "outputs": [],
      "stateMutability": "nonpayable",
      "type": "function"
    },
    {
      "inputs": [
        {
          "internalType": "uint256",
          "name": "_newPercent",
          "type": "uint256"
        }
      ],
      "name": "updatePercentageIncrease",
      "outputs": [],
      "stateMutability": "nonpayable",
      "type": "function"
    },
    {
      "inputs": [
        {
          "internalType": "uint256",
          "name": "_newIterations",
          "type": "uint256"
        }
      ],
      "name": "updateIterations",
      "outputs": [],
      "stateMutability": "nonpayable",
      "type": "function"
    },
    {
      "inputs": [
        {
          "internalType": "address",
          "name": "_nameManager",
          "type": "address"
        }
      ],
      "name": "updateNameManagerAddress",
      "outputs": [],
      "stateMutability": "nonpayable",
      "type": "function"
    }
  ],
  "bytecode": "0x60806040526000600160006101000a81548173ffffffffffffffffffffffffffffffffffffffff021916908373ffffffffffffffffffffffffffffffffffffffff160217905550600160009054906101000a900473ffffffffffffffffffffffffffffffffffffffff16600260006101000a81548173ffffffffffffffffffffffffffffffffffffffff021916908373ffffffffffffffffffffffffffffffffffffffff16021790555073bc86029dbc214939a3c5d383d0c245d5b75538c0600360006101000a81548173ffffffffffffffffffffffffffffffffffffffff021916908373ffffffffffffffffffffffffffffffffffffffff16021790555060146009556000600a556005600b556065600c553480156200011f57600080fd5b506040516200269c3803806200269c8339818101604052810190620001459190620002e8565b600062000157620002c960201b60201c565b9050806000806101000a81548173ffffffffffffffffffffffffffffffffffffffff021916908373ffffffffffffffffffffffffffffffffffffffff1602179055508073ffffffffffffffffffffffffffffffffffffffff16600073ffffffffffffffffffffffffffffffffffffffff167f8be0079c531659141344cd1fd0a4f28419497f9722a3daafe3b4186f6b6457e060405160405180910390a35080600d81905550600360009054906101000a900473ffffffffffffffffffffffffffffffffffffffff16600460006101000a81548173ffffffffffffffffffffffffffffffffffffffff021916908373ffffffffffffffffffffffffffffffffffffffff160217905550600260009054906101000a900473ffffffffffffffffffffffffffffffffffffffff16600560006101000a81548173ffffffffffffffffffffffffffffffffffffffff021916908373ffffffffffffffffffffffffffffffffffffffff1602179055505062000338565b600033905090565b600081519050620002e2816200031e565b92915050565b600060208284031215620002fb57600080fd5b60006200030b84828501620002d1565b91505092915050565b6000819050919050565b620003298162000314565b81146200033557600080fd5b50565b61235480620003486000396000f3fe6080604052600436106100c25760003560e01c80639c40dfe11161007f578063d3e6e3e911610059578063d3e6e3e914610250578063d5ce13621461028e578063e2a7515e146102a5578063f2fde38b146102d5576100c2565b80639c40dfe1146101c1578063a8faeaaf146101ea578063aa0e365614610213576100c2565b8063138b8989146100c75780635489b6ad146100f05780635c8609981461012d578063715018a61461015657806372a107721461016d5780638da5cb5b14610196575b600080fd5b3480156100d357600080fd5b506100ee60048036038101906100e99190611ce9565b6102fe565b005b3480156100fc57600080fd5b5061011760048036038101906101129190611b21565b6103d0565b6040516101249190612036565b60405180910390f35b34801561013957600080fd5b50610154600480360381019061014f9190611ce9565b61040e565b005b34801561016257600080fd5b5061016b6104e0565b005b34801561017957600080fd5b50610194600480360381019061018f9190611ce9565b610666565b005b3480156101a257600080fd5b506101ab610738565b6040516101b89190611fa6565b60405180910390f35b3480156101cd57600080fd5b506101e860048036038101906101e39190611ce9565b610761565b005b3480156101f657600080fd5b50610211600480360381019061020c9190611b21565b610833565b005b34801561021f57600080fd5b5061023a60048036038101906102359190611c63565b61093f565b6040516102479190611fa6565b60405180910390f35b34801561025c57600080fd5b5061027760048036038101906102729190611b73565b610c31565b604051610285929190612073565b60405180910390f35b34801561029a57600080fd5b506102a3611043565b005b6102bf60048036038101906102ba9190611bc2565b61134b565b6040516102cc9190612058565b60405180910390f35b3480156102e157600080fd5b506102fc60048036038101906102f79190611b21565b611357565b005b610306611562565b73ffffffffffffffffffffffffffffffffffffffff1660008054906101000a900473ffffffffffffffffffffffffffffffffffffffff1673ffffffffffffffffffffffffffffffffffffffff16146103c6576040517f08c379a00000000000000000000000000000000000000000000000000000000081526004018080602001828103825260208152602001807f4f776e61626c653a2063616c6c6572206973206e6f7420746865206f776e657281525060200191505060405180910390fd5b80600b8190555050565b6060806103e46103df8461156a565b611602565b9050806040516020016103f79190611f84565b604051602081830303815290604052915050919050565b610416611562565b73ffffffffffffffffffffffffffffffffffffffff1660008054906101000a900473ffffffffffffffffffffffffffffffffffffffff1673ffffffffffffffffffffffffffffffffffffffff16146104d6576040517f08c379a00000000000000000000000000000000000000000000000000000000081526004018080602001828103825260208152602001807f4f776e61626c653a2063616c6c6572206973206e6f7420746865206f776e657281525060200191505060405180910390fd5b8060098190555050565b6104e8611562565b73ffffffffffffffffffffffffffffffffffffffff1660008054906101000a900473ffffffffffffffffffffffffffffffffffffffff1673ffffffffffffffffffffffffffffffffffffffff16146105a8576040517f08c379a00000000000000000000000000000000000000000000000000000000081526004018080602001828103825260208152602001807f4f776e61626c653a2063616c6c6572206973206e6f7420746865206f776e657281525060200191505060405180910390fd5b600073ffffffffffffffffffffffffffffffffffffffff1660008054906101000a900473ffffffffffffffffffffffffffffffffffffffff1673ffffffffffffffffffffffffffffffffffffffff167f8be0079c531659141344cd1fd0a4f28419497f9722a3daafe3b4186f6b6457e060405160405180910390a360008060006101000a81548173ffffffffffffffffffffffffffffffffffffffff021916908373ffffffffffffffffffffffffffffffffffffffff160217905550565b61066e611562565b73ffffffffffffffffffffffffffffffffffffffff1660008054906101000a900473ffffffffffffffffffffffffffffffffffffffff1673ffffffffffffffffffffffffffffffffffffffff161461072e576040517f08c379a00000000000000000000000000000000000000000000000000000000081526004018080602001828103825260208152602001807f4f776e61626c653a2063616c6c6572206973206e6f7420746865206f776e657281525060200191505060405180910390fd5b80600a8190555050565b60008060009054906101000a900473ffffffffffffffffffffffffffffffffffffffff16905090565b610769611562565b73ffffffffffffffffffffffffffffffffffffffff1660008054906101000a900473ffffffffffffffffffffffffffffffffffffffff1673ffffffffffffffffffffffffffffffffffffffff1614610829576040517f08c379a00000000000000000000000000000000000000000000000000000000081526004018080602001828103825260208152602001807f4f776e61626c653a2063616c6c6572206973206e6f7420746865206f776e657281525060200191505060405180910390fd5b80600c8190555050565b61083b611562565b73ffffffffffffffffffffffffffffffffffffffff1660008054906101000a900473ffffffffffffffffffffffffffffffffffffffff1673ffffffffffffffffffffffffffffffffffffffff16146108fb576040517f08c379a00000000000000000000000000000000000000000000000000000000081526004018080602001828103825260208152602001807f4f776e61626c653a2063616c6c6572206973206e6f7420746865206f776e657281525060200191505060405180910390fd5b80600460006101000a81548173ffffffffffffffffffffffffffffffffffffffff021916908373ffffffffffffffffffffffffffffffffffffffff16021790555050565b6000610949611562565b73ffffffffffffffffffffffffffffffffffffffff1660008054906101000a900473ffffffffffffffffffffffffffffffffffffffff1673ffffffffffffffffffffffffffffffffffffffff1614610a09576040517f08c379a00000000000000000000000000000000000000000000000000000000081526004018080602001828103825260208152602001807f4f776e61626c653a2063616c6c6572206973206e6f7420746865206f776e657281525060200191505060405180910390fd5b6001600d541415610c13576060600367ffffffffffffffff81118015610a2e57600080fd5b50604051908082528060200260200182016040528015610a6257816020015b6060815260200190600190039081610a4d5790505b5090506040518060400160405280600381526020017f657468000000000000000000000000000000000000000000000000000000000081525081600081518110610aa857fe5b60200260200101819052506040518060400160405280600481526020017f646174610000000000000000000000000000000000000000000000000000000081525081600181518110610af657fe5b602002602001018190525083838080601f016020809104026020016040519081016040528093929190818152602001838380828437600081840152601f19601f8201169050808301925050505050505081600381518110610b5357fe5b6020026020010181905250600460009054906101000a900473ffffffffffffffffffffffffffffffffffffffff1673ffffffffffffffffffffffffffffffffffffffff1663f4037468826040518263ffffffff1660e01b8152600401610bb99190611fc1565b602060405180830381600087803b158015610bd357600080fd5b505af1158015610be7573d6000803e3d6000fd5b505050506040513d601f19601f82011682018060405250810190610c0b9190611b4a565b915050610c2b565b73122eb74f9d0f1a5ed587f43d120c1c2bbdb9360b90505b92915050565b60006060600085905060008490506000670de0b6b3a764000090506000600560009054906101000a900473ffffffffffffffffffffffffffffffffffffffff1673ffffffffffffffffffffffffffffffffffffffff1663085e2c5b858585600954600a546040518663ffffffff1660e01b8152600401610cb5959493929190611fe3565b60006040518083038186803b158015610ccd57600080fd5b505afa158015610ce1573d6000803e3d6000fd5b505050506040513d6000823e3d601f19601f82011682018060405250810190610d0a9190611d12565b50809150506000610d24838a61177e90919063ffffffff16565b9050610d39828261180490919063ffffffff16565b9050600560009054906101000a900473ffffffffffffffffffffffffffffffffffffffff1673ffffffffffffffffffffffffffffffffffffffff1663085e2c5b868684600954600a546040518663ffffffff1660e01b8152600401610da2959493929190611fe3565b60006040518083038186803b158015610dba57600080fd5b505afa158015610dce573d6000803e3d6000fd5b505050506040513d6000823e3d601f19601f82011682018060405250810190610df79190611d12565b508092505060005b600b54811015610f0e57828a1015610e1657610f0e565b610e3e6064610e30600c548561177e90919063ffffffff16565b61180490919063ffffffff16565b9150600560009054906101000a900473ffffffffffffffffffffffffffffffffffffffff1673ffffffffffffffffffffffffffffffffffffffff1663085e2c5b878785600954600a546040518663ffffffff1660e01b8152600401610ea7959493929190611fe3565b60006040518083038186803b158015610ebf57600080fd5b505afa158015610ed3573d6000803e3d6000fd5b505050506040513d6000823e3d601f19601f82011682018060405250810190610efc9190611d12565b50809350508080600101915050610dff565b5081891015610fe157600560009054906101000a900473ffffffffffffffffffffffffffffffffffffffff1673ffffffffffffffffffffffffffffffffffffffff1663085e2c5b868684600954600a546040518663ffffffff1660e01b8152600401610f7e959493929190611fe3565b60006040518083038186803b158015610f9657600080fd5b505afa158015610faa573d6000803e3d6000fd5b505050506040513d6000823e3d601f19601f82011682018060405250810190610fd39190611d12565b96509650505050505061103b565b6060600167ffffffffffffffff81118015610ffb57600080fd5b5060405190808252806020026020018201604052801561102a5781602001602082028036833780820191505090505b509050600081975097505050505050505b935093915050565b61104b611562565b73ffffffffffffffffffffffffffffffffffffffff1660008054906101000a900473ffffffffffffffffffffffffffffffffffffffff1673ffffffffffffffffffffffffffffffffffffffff161461110b576040517f08c379a00000000000000000000000000000000000000000000000000000000081526004018080602001828103825260208152602001807f4f776e61626c653a2063616c6c6572206973206e6f7420746865206f776e657281525060200191505060405180910390fd5b6060600267ffffffffffffffff8111801561112557600080fd5b5060405190808252806020026020018201604052801561115957816020015b60608152602001906001900390816111445790505b5090506040518060400160405280600381526020017f65746800000000000000000000000000000000000000000000000000000000008152508160008151811061119f57fe5b60200260200101819052506040518060400160405280600681526020017f3173706c69740000000000000000000000000000000000000000000000000000815250816001815181106111ed57fe5b6020026020010181905250600460009054906101000a900473ffffffffffffffffffffffffffffffffffffffff1673ffffffffffffffffffffffffffffffffffffffff1663f4037468826040518263ffffffff1660e01b81526004016112539190611fc1565b602060405180830381600087803b15801561126d57600080fd5b505af1158015611281573d6000803e3d6000fd5b505050506040513d601f19601f820116820180604052508101906112a59190611b4a565b600260006101000a81548173ffffffffffffffffffffffffffffffffffffffff021916908373ffffffffffffffffffffffffffffffffffffffff160217905550600260009054906101000a900473ffffffffffffffffffffffffffffffffffffffff16600560006101000a81548173ffffffffffffffffffffffffffffffffffffffff021916908373ffffffffffffffffffffffffffffffffffffffff16021790555050565b60009695505050505050565b61135f611562565b73ffffffffffffffffffffffffffffffffffffffff1660008054906101000a900473ffffffffffffffffffffffffffffffffffffffff1673ffffffffffffffffffffffffffffffffffffffff161461141f576040517f08c379a00000000000000000000000000000000000000000000000000000000081526004018080602001828103825260208152602001807f4f776e61626c653a2063616c6c6572206973206e6f7420746865206f776e657281525060200191505060405180910390fd5b600073ffffffffffffffffffffffffffffffffffffffff168173ffffffffffffffffffffffffffffffffffffffff1614156114a5576040517f08c379a00000000000000000000000000000000000000000000000000000000081526004018080602001828103825260268152602001806122d86026913960400191505060405180910390fd5b8073ffffffffffffffffffffffffffffffffffffffff1660008054906101000a900473ffffffffffffffffffffffffffffffffffffffff1673ffffffffffffffffffffffffffffffffffffffff167f8be0079c531659141344cd1fd0a4f28419497f9722a3daafe3b4186f6b6457e060405160405180910390a3806000806101000a81548173ffffffffffffffffffffffffffffffffffffffff021916908373ffffffffffffffffffffffffffffffffffffffff16021790555050565b600033905090565b6060600082905060608173ffffffffffffffffffffffffffffffffffffffff166395d89b416040518163ffffffff1660e01b815260040160006040518083038186803b1580156115b957600080fd5b505afa1580156115cd573d6000803e3d6000fd5b505050506040513d6000823e3d601f19601f820116820180604052508101906115f69190611ca8565b90508092505050919050565b6060808290506060815167ffffffffffffffff8111801561162257600080fd5b506040519080825280601f01601f1916602001820160405280156116555781602001600182028036833780820191505090505b50905060005b825181101561177357604183828151811061167257fe5b602001015160f81c60f81b60f81c60ff16101580156116ae5750605a83828151811061169a57fe5b602001015160f81c60f81b60f81c60ff1611155b156117135760208382815181106116c157fe5b602001015160f81c60f81b60f81c0160f81b8282815181106116df57fe5b60200101907effffffffffffffffffffffffffffffffffffffffffffffffffffffffffffff1916908160001a905350611766565b82818151811061171f57fe5b602001015160f81c60f81b82828151811061173657fe5b60200101907effffffffffffffffffffffffffffffffffffffffffffffffffffffffffffff1916908160001a9053505b808060010191505061165b565b508092505050919050565b60008083141561179157600090506117fe565b60008284029050828482816117a257fe5b04146117f9576040517f08c379a00000000000000000000000000000000000000000000000000000000081526004018080602001828103825260218152602001806122fe6021913960400191505060405180910390fd5b809150505b92915050565b600061184683836040518060400160405280601a81526020017f536166654d6174683a206469766973696f6e206279207a65726f00000000000081525061184e565b905092915050565b600080831182906118fa576040517f08c379a00000000000000000000000000000000000000000000000000000000081526004018080602001828103825283818151815260200191508051906020019080838360005b838110156118bf5780820151818401526020810190506118a4565b50505050905090810190601f1680156118ec5780820380516001836020036101000a031916815260200191505b509250505060405180910390fd5b50600083858161190657fe5b049050809150509392505050565b60008135905061192381612292565b92915050565b60008151905061193881612292565b92915050565b600082601f83011261194f57600080fd5b813561196261195d826120d4565b6120a3565b9150818183526020840193506020810190508385602084028201111561198757600080fd5b60005b838110156119b7578161199d8882611af7565b84526020840193506020830192505060018101905061198a565b5050505092915050565b600082601f8301126119d257600080fd5b81516119e56119e0826120d4565b6120a3565b91508181835260208401935060208101905083856020840282011115611a0a57600080fd5b60005b83811015611a3a5781611a208882611b0c565b845260208401935060208301925050600181019050611a0d565b5050505092915050565b600081359050611a53816122a9565b92915050565b60008083601f840112611a6b57600080fd5b8235905067ffffffffffffffff811115611a8457600080fd5b602083019150836001820283011115611a9c57600080fd5b9250929050565b600082601f830112611ab457600080fd5b8151611ac7611ac282612100565b6120a3565b91508082526020830160208301858383011115611ae357600080fd5b611aee83828461224c565b50505092915050565b600081359050611b06816122c0565b92915050565b600081519050611b1b816122c0565b92915050565b600060208284031215611b3357600080fd5b6000611b4184828501611914565b91505092915050565b600060208284031215611b5c57600080fd5b6000611b6a84828501611929565b91505092915050565b600080600060608486031215611b8857600080fd5b6000611b9686828701611914565b9350506020611ba786828701611af7565b9250506040611bb886828701611914565b9150509250925092565b60008060008060008060c08789031215611bdb57600080fd5b6000611be989828a01611a44565b9650506020611bfa89828a01611a44565b9550506040611c0b89828a01611af7565b9450506060611c1c89828a01611af7565b935050608087013567ffffffffffffffff811115611c3957600080fd5b611c4589828a0161193e565b92505060a0611c5689828a01611af7565b9150509295509295509295565b60008060208385031215611c7657600080fd5b600083013567ffffffffffffffff811115611c9057600080fd5b611c9c85828601611a59565b92509250509250929050565b600060208284031215611cba57600080fd5b600082015167ffffffffffffffff811115611cd457600080fd5b611ce084828501611aa3565b91505092915050565b600060208284031215611cfb57600080fd5b6000611d0984828501611af7565b91505092915050565b60008060408385031215611d2557600080fd5b6000611d3385828601611b0c565b925050602083015167ffffffffffffffff811115611d5057600080fd5b611d5c858286016119c1565b9150509250929050565b6000611d728383611e83565b905092915050565b6000611d868383611f66565b60208301905092915050565b611d9b816121da565b82525050565b6000611dac82612150565b611db6818561218b565b935083602082028501611dc885612130565b8060005b85811015611e045784840389528151611de58582611d66565b9450611df083612171565b925060208a01995050600181019050611dcc565b50829750879550505050505092915050565b6000611e218261215b565b611e2b818561219c565b9350611e3683612140565b8060005b83811015611e67578151611e4e8882611d7a565b9750611e598361217e565b925050600181019050611e3a565b5085935050505092915050565b611e7d81612228565b82525050565b6000611e8e82612166565b611e9881856121ad565b9350611ea881856020860161224c565b611eb181612281565b840191505092915050565b6000611ec782612166565b611ed181856121be565b9350611ee181856020860161224c565b611eea81612281565b840191505092915050565b6000611f0082612166565b611f0a81856121cf565b9350611f1a81856020860161224c565b80840191505092915050565b6000611f336004836121cf565b91507f2d757364000000000000000000000000000000000000000000000000000000006000830152600482019050919050565b611f6f8161221e565b82525050565b611f7e8161221e565b82525050565b6000611f908284611ef5565b9150611f9b82611f26565b915081905092915050565b6000602082019050611fbb6000830184611d92565b92915050565b60006020820190508181036000830152611fdb8184611da1565b905092915050565b600060a082019050611ff86000830188611e74565b6120056020830187611e74565b6120126040830186611f75565b61201f6060830185611f75565b61202c6080830184611f75565b9695505050505050565b600060208201905081810360008301526120508184611ebc565b905092915050565b600060208201905061206d6000830184611f75565b92915050565b60006040820190506120886000830185611f75565b818103602083015261209a8184611e16565b90509392505050565b6000604051905081810181811067ffffffffffffffff821117156120ca576120c961227f565b5b8060405250919050565b600067ffffffffffffffff8211156120ef576120ee61227f565b5b602082029050602081019050919050565b600067ffffffffffffffff82111561211b5761211a61227f565b5b601f19601f8301169050602081019050919050565b6000819050602082019050919050565b6000819050602082019050919050565b600081519050919050565b600081519050919050565b600081519050919050565b6000602082019050919050565b6000602082019050919050565b600082825260208201905092915050565b600082825260208201905092915050565b600082825260208201905092915050565b600082825260208201905092915050565b600081905092915050565b60006121e5826121fe565b9050919050565b60006121f7826121da565b9050919050565b600073ffffffffffffffffffffffffffffffffffffffff82169050919050565b6000819050919050565b60006122338261223a565b9050919050565b6000612245826121fe565b9050919050565b60005b8381101561226a57808201518184015260208101905061224f565b83811115612279576000848401525b50505050565bfe5b6000601f19601f8301169050919050565b61229b816121da565b81146122a657600080fd5b50565b6122b2816121ec565b81146122bd57600080fd5b50565b6122c98161221e565b81146122d457600080fd5b5056fe4f776e61626c653a206e6577206f776e657220697320746865207a65726f2061646472657373536166654d6174683a206d756c7469706c69636174696f6e206f766572666c6f77a2646970667358221220a391798bf8b25afc2247855142d6032e6c20dad2c2ee349e781cf67d4123103164736f6c63430007040033",
  "immutableReferences": {},
  "source": "// SPDX-License-Identifier: MIT\r\npragma solidity ^0.7.0;\r\npragma experimental ABIEncoderV2;\r\n\r\nimport \"@openzeppelin/contracts/access/Ownable.sol\"; \r\nimport \"@openzeppelin/contracts/token/ERC20/IERC20.sol\";\r\nimport \"@openzeppelin/contracts/math/SafeMath.sol\";\r\n//import \"@openzeppelin/contracts/utils/SafeCast.sol\";\r\nimport \"interfaces/IOneSplit.sol\";\r\nimport \"interfaces/INameManager.sol\";\r\n\r\n  /**\r\n   * @title Manages exchanging tokens and ETH\r\n   * @notice part of the StakeYourName DApp\r\n   * @author Daniel Chilvers\r\n   **/\r\ncontract ExchangeManager is Ownable {\r\n\r\n    using SafeMath for uint256;\r\n\r\n    address internal zeroAddress = address(0);\r\n    address internal oneInch = zeroAddress;\r\n    ///@dev this is not the final NameManager address, update later\r\n    address internal nameManagerAddress = 0xbC86029dbC214939a3c5d383d0C245d5B75538C0;\r\n\r\n    NameManager nameManager;\r\n    IOneSplit oneSplit;\r\n    IOneSplitMulti oneSplitMulti;\r\n    IOneSplitConsts oneSplitConsts;\r\n    IERC20 erc20;\r\n\r\n    uint256 exchangeParts = 20;\r\n    uint256 exchangeFlags = 0;\r\n    uint256 iterations = 5;\r\n    uint256 percentIncrease = 101;\r\n    uint256 ChainID;\r\n\r\n    constructor(uint _networkID) {\r\n        ChainID =_networkID;\r\n        nameManager = NameManager(nameManagerAddress);\r\n        oneSplit = IOneSplit(oneInch);\r\n    }\r\n\r\n    function getOracleAddress(string calldata _pair) public onlyOwner returns(address) {\r\n        if (ChainID == 1){\r\n            string[] memory _name = new string[](3);\r\n            _name[0] = \"eth\";\r\n            _name[1] = \"data\";\r\n            _name[3] = _pair;\r\n            return nameManager.resolveName(_name);\r\n        } else {\r\n            return 0x122eb74f9d0F1a5ed587F43D120C1c2BbDb9360B;\r\n        }\r\n    }\r\n\r\n    function assembleTokenEthPair(address _asset) public view returns(string memory){\r\n        string memory _token;\r\n        _token = toLower(getTokenSymbol(_asset));\r\n        return string(abi.encodePacked(_token,\"-usd\"));\r\n    }\r\n\r\n    function getTokenSymbol(address _asset) internal view returns (string memory){\r\n        IERC20 _erc20 = IERC20(_asset);\r\n        string memory _symbol = _erc20.symbol();\r\n        return _symbol;\r\n    }\r\n\r\n    function toLower(string memory str) internal pure returns (string memory) {\r\n\t\tbytes memory bStr = bytes(str);\r\n\t\tbytes memory bLower = new bytes(bStr.length);\r\n\t\tfor (uint i = 0; i < bStr.length; i++) {\r\n\t\t\t// Uppercase character...\r\n\t\t\tif ((uint8(bStr[i]) >= 65) && (uint8(bStr[i]) <= 90)) {\r\n\t\t\t\t// So we add 32 to make it lowercase\r\n\t\t\t\tbLower[i] = bytes1(uint8(bStr[i]) + 32);\r\n\t\t\t} else {\r\n\t\t\t\tbLower[i] = bStr[i];\r\n\t\t\t}\r\n\t\t}\r\n\t\treturn string(bLower);\r\n\t}\r\n\r\n\r\n    /// @dev use our NameManager to grab the 1Inch contract address\r\n    function get1InchAddress() public onlyOwner {\r\n        string[] memory _name = new string[](2);\r\n        _name[0] = \"eth\";\r\n        _name[1] = \"1split\";\r\n        oneInch = nameManager.resolveName(_name);\r\n        oneSplit = IOneSplit(oneInch);\r\n    }\r\n\r\n    /// @notice currently there's no option on 1inch to select an output value and calculate the input\r\n    /// @notice so we do a test evaluation and use that to figure out the current exchange rate\r\n    /// @notice this usually works but sometimes a different value gives a different exchange rate\r\n    /// @notice so we can try increasing the value by PercentageIncrease a couple of times.\r\n    function getExchangePrice(address _inputToken, uint256 _outputValue, address _outputToken) public view returns(uint256, uint256[] memory){\r\n        IERC20 _inputERC20;\r\n        _inputERC20 = IERC20(_inputToken);\r\n        IERC20 _outputERC20;\r\n        _outputERC20 = IERC20(_outputToken);\r\n        uint256 _unitValue = 10**18;\r\n        uint256 _return;\r\n        (_return,) = oneSplit.getExpectedReturn(_inputERC20, _outputERC20, _unitValue, exchangeParts, exchangeFlags);\r\n        uint256 _inputValue;\r\n        _inputValue = _outputValue.mul(_unitValue);\r\n        _inputValue = _inputValue.div(_return);\r\n        (_return,) = oneSplit.getExpectedReturn(_inputERC20, _outputERC20, _inputValue, exchangeParts, exchangeFlags);\r\n        for(uint256 i; i < iterations; i++){\r\n            if(_outputValue < _return){\r\n                break;\r\n            } else {\r\n                _inputValue = (_inputValue.mul(percentIncrease)).div(100);\r\n                (_return,) = oneSplit.getExpectedReturn(_inputERC20, _outputERC20, _inputValue, exchangeParts, exchangeFlags);\r\n            }\r\n        }\r\n        if(_outputValue < _return){\r\n            return oneSplit.getExpectedReturn(_inputERC20, _outputERC20, _inputValue, exchangeParts, exchangeFlags);\r\n        } else {\r\n            uint256[] memory fail = new uint256[](1);\r\n            return (0,fail);\r\n        }\r\n    }\r\n\r\n    function swap(\r\n        IERC20 fromToken,\r\n        IERC20 destToken,\r\n        uint256 amount,\r\n        uint256 minReturn,\r\n        uint256[] memory distribution,\r\n        uint256 flags\r\n    )\r\n        external\r\n        payable\r\n        returns(uint256 returnAmount) {\r\n\r\n\r\n        }\r\n\r\n    function updateExchangeParts(uint256 _newParts) public onlyOwner {\r\n        exchangeParts = _newParts;\r\n    }\r\n    function updateExchangeFlags(uint256 _newFlags) public onlyOwner {\r\n        exchangeFlags = _newFlags;\r\n    }\r\n    function updatePercentageIncrease(uint256 _newPercent) public onlyOwner {\r\n        percentIncrease = _newPercent;\r\n    }\r\n    function updateIterations(uint256 _newIterations) public onlyOwner {\r\n        iterations = _newIterations;\r\n    }\r\n    function updateNameManagerAddress(address _nameManager) public onlyOwner {\r\n        nameManager = NameManager(_nameManager);\r\n    }\r\n\r\n}",
  "sourcePath": "C:/Users/anyth/Documents/GitHub/StakeYourName/contracts/ExchangeManager.sol",
  "compiler": {
    "name": "solc",
    "version": "0.7.4+commit.3f05b770.Emscripten.clang"
  },
  "schemaVersion": "3.3.3",
  "updatedAt": "2021-01-28T16:26:02.836Z",
  "networkType": "ethereum",
  "devdoc": {
    "author": "Daniel Chilvers*",
    "kind": "dev",
    "methods": {
      "get1InchAddress()": {
        "details": "use our NameManager to grab the 1Inch contract address"
      },
      "owner()": {
        "details": "Returns the address of the current owner."
      },
      "renounceOwnership()": {
        "details": "Leaves the contract without owner. It will not be possible to call `onlyOwner` functions anymore. Can only be called by the current owner. NOTE: Renouncing ownership will leave the contract without an owner, thereby removing any functionality that is only available to the owner."
      },
      "transferOwnership(address)": {
        "details": "Transfers ownership of the contract to a new account (`newOwner`). Can only be called by the current owner."
      }
    },
    "stateVariables": {
      "nameManagerAddress": {
        "details": "this is not the final NameManager address, update later"
      }
    },
    "title": "Manages exchanging tokens and ETH",
    "version": 1
  },
  "userdoc": {
    "kind": "user",
    "methods": {
      "getExchangePrice(address,uint256,address)": {
        "notice": "currently there's no option on 1inch to select an output value and calculate the inputso we do a test evaluation and use that to figure out the current exchange ratethis usually works but sometimes a different value gives a different exchange rateso we can try increasing the value by PercentageIncrease a couple of times."
      }
    },
    "notice": "part of the StakeYourName DApp",
    "version": 1
  }
}