{
  "contractName": "ExchangeManager",
  "abi": [
    {
      "inputs": [
        {
          "internalType": "uint256",
          "name": "_networkID",
          "type": "uint256"
        }
      ],
      "stateMutability": "nonpayable",
      "type": "constructor"
    },
    {
      "anonymous": false,
      "inputs": [
        {
          "indexed": true,
          "internalType": "address",
          "name": "previousOwner",
          "type": "address"
        },
        {
          "indexed": true,
          "internalType": "address",
          "name": "newOwner",
          "type": "address"
        }
      ],
      "name": "OwnershipTransferred",
      "type": "event"
    },
    {
      "inputs": [],
      "name": "owner",
      "outputs": [
        {
          "internalType": "address",
          "name": "",
          "type": "address"
        }
      ],
      "stateMutability": "view",
      "type": "function",
      "constant": true
    },
    {
      "inputs": [],
      "name": "renounceOwnership",
      "outputs": [],
      "stateMutability": "nonpayable",
      "type": "function"
    },
    {
      "inputs": [
        {
          "internalType": "address",
          "name": "newOwner",
          "type": "address"
        }
      ],
      "name": "transferOwnership",
      "outputs": [],
      "stateMutability": "nonpayable",
      "type": "function"
    },
    {
      "stateMutability": "payable",
      "type": "receive",
      "payable": true
    },
    {
      "inputs": [
        {
          "internalType": "address",
          "name": "_from",
          "type": "address"
        },
        {
          "internalType": "address",
          "name": "_to",
          "type": "address"
        }
      ],
      "name": "getPrice",
      "outputs": [
        {
          "internalType": "uint256",
          "name": "_price",
          "type": "uint256"
        },
        {
          "internalType": "uint256",
          "name": "_decimals",
          "type": "uint256"
        }
      ],
      "stateMutability": "view",
      "type": "function",
      "constant": true
    },
    {
      "inputs": [
        {
          "internalType": "string",
          "name": "_pair",
          "type": "string"
        }
      ],
      "name": "getOracleAddress",
      "outputs": [
        {
          "internalType": "address",
          "name": "",
          "type": "address"
        }
      ],
      "stateMutability": "view",
      "type": "function",
      "constant": true
    },
    {
      "inputs": [
        {
          "internalType": "address",
          "name": "_from",
          "type": "address"
        },
        {
          "internalType": "address",
          "name": "_to",
          "type": "address"
        }
      ],
      "name": "assembleTokenEthPair",
      "outputs": [
        {
          "internalType": "string",
          "name": "",
          "type": "string"
        }
      ],
      "stateMutability": "view",
      "type": "function",
      "constant": true
    },
    {
      "inputs": [],
      "name": "get1InchAddress",
      "outputs": [],
      "stateMutability": "nonpayable",
      "type": "function"
    },
    {
      "inputs": [
        {
          "internalType": "uint256",
          "name": "_cost",
          "type": "uint256"
        },
        {
          "internalType": "address",
          "name": "_vault",
          "type": "address"
        }
      ],
      "name": "checkAvailiableFunds",
      "outputs": [
        {
          "internalType": "bool",
          "name": "_accept",
          "type": "bool"
        },
        {
          "internalType": "address",
          "name": "_token",
          "type": "address"
        },
        {
          "internalType": "uint256[]",
          "name": "_distribution",
          "type": "uint256[]"
        }
      ],
      "stateMutability": "view",
      "type": "function",
      "constant": true
    },
    {
      "inputs": [
        {
          "internalType": "uint256",
          "name": "_cost",
          "type": "uint256"
        },
        {
          "internalType": "address",
          "name": "_vault",
          "type": "address"
        }
      ],
      "name": "estimateFunds",
      "outputs": [
        {
          "internalType": "bool",
          "name": "_accept",
          "type": "bool"
        },
        {
          "internalType": "address",
          "name": "_token",
          "type": "address"
        }
      ],
      "stateMutability": "view",
      "type": "function",
      "constant": true
    },
    {
      "inputs": [
        {
          "internalType": "uint256",
          "name": "_cost",
          "type": "uint256"
        },
        {
          "internalType": "address",
          "name": "_vault",
          "type": "address"
        },
        {
          "internalType": "address",
          "name": "_asset",
          "type": "address"
        }
      ],
      "name": "estimateSpecificAssetFunds",
      "outputs": [
        {
          "internalType": "bool",
          "name": "_accept",
          "type": "bool"
        }
      ],
      "stateMutability": "view",
      "type": "function",
      "constant": true
    },
    {
      "inputs": [
        {
          "internalType": "address",
          "name": "_inputToken",
          "type": "address"
        },
        {
          "internalType": "uint256",
          "name": "_outputValue",
          "type": "uint256"
        },
        {
          "internalType": "address",
          "name": "_outputToken",
          "type": "address"
        }
      ],
      "name": "getExchangePrice",
      "outputs": [
        {
          "internalType": "uint256",
          "name": "_inputValue",
          "type": "uint256"
        },
        {
          "internalType": "uint256[]",
          "name": "_distribution",
          "type": "uint256[]"
        }
      ],
      "stateMutability": "view",
      "type": "function",
      "constant": true
    },
    {
      "inputs": [
        {
          "internalType": "address",
          "name": "_fromToken",
          "type": "address"
        },
        {
          "internalType": "address",
          "name": "_destToken",
          "type": "address"
        },
        {
          "internalType": "uint256",
          "name": "_amount",
          "type": "uint256"
        },
        {
          "internalType": "uint256",
          "name": "_minReturn",
          "type": "uint256"
        },
        {
          "internalType": "uint256[]",
          "name": "_distribution",
          "type": "uint256[]"
        },
        {
          "internalType": "uint256",
          "name": "_flags",
          "type": "uint256"
        }
      ],
      "name": "swap",
      "outputs": [
        {
          "internalType": "uint256",
          "name": "_returnAmount",
          "type": "uint256"
        }
      ],
      "stateMutability": "payable",
      "type": "function",
      "payable": true
    },
    {
      "inputs": [
        {
          "internalType": "uint256",
          "name": "_newParts",
          "type": "uint256"
        }
      ],
      "name": "updateExchangeParts",
      "outputs": [],
      "stateMutability": "nonpayable",
      "type": "function"
    },
    {
      "inputs": [
        {
          "internalType": "uint256",
          "name": "_newFlags",
          "type": "uint256"
        }
      ],
      "name": "updateExchangeFlags",
      "outputs": [],
      "stateMutability": "nonpayable",
      "type": "function"
    },
    {
      "inputs": [
        {
          "internalType": "uint256",
          "name": "_newPercent",
          "type": "uint256"
        }
      ],
      "name": "updatePercentageIncrease",
      "outputs": [],
      "stateMutability": "nonpayable",
      "type": "function"
    },
    {
      "inputs": [
        {
          "internalType": "uint256",
          "name": "_newIterations",
          "type": "uint256"
        }
      ],
      "name": "updateIterations",
      "outputs": [],
      "stateMutability": "nonpayable",
      "type": "function"
    },
    {
      "inputs": [
        {
          "internalType": "address payable",
          "name": "_nameManager",
          "type": "address"
        }
      ],
      "name": "updateNameManagerAddress",
      "outputs": [],
      "stateMutability": "nonpayable",
      "type": "function"
    },
    {
      "inputs": [
        {
          "internalType": "uint256",
          "name": "_fresh",
          "type": "uint256"
        }
      ],
      "name": "updateFresh",
      "outputs": [],
      "stateMutability": "nonpayable",
      "type": "function"
    },
    {
      "inputs": [
        {
          "internalType": "uint256",
          "name": "_margin",
          "type": "uint256"
        }
      ],
      "name": "updateMargin",
      "outputs": [],
      "stateMutability": "nonpayable",
      "type": "function"
    },
    {
      "inputs": [
        {
          "internalType": "uint256",
          "name": "_slippage",
          "type": "uint256"
        }
      ],
      "name": "updateSlippage",
      "outputs": [],
      "stateMutability": "nonpayable",
      "type": "function"
    },
    {
      "inputs": [
        {
          "internalType": "uint256",
          "name": "_estimateSlippage",
          "type": "uint256"
        }
      ],
      "name": "updateEstimateSlippage",
      "outputs": [],
      "stateMutability": "nonpayable",
      "type": "function"
    },
    {
      "inputs": [],
      "name": "retrieveETH",
      "outputs": [],
      "stateMutability": "nonpayable",
      "type": "function"
    },
    {
      "inputs": [
        {
          "internalType": "uint256",
          "name": "_chainID",
          "type": "uint256"
        }
      ],
      "name": "updateChainID",
      "outputs": [],
      "stateMutability": "nonpayable",
      "type": "function"
    }
  ],
  "bytecode": "0x60806040526000600160006101000a81548173ffffffffffffffffffffffffffffffffffffffff021916908373ffffffffffffffffffffffffffffffffffffffff160217905550600160009054906101000a900473ffffffffffffffffffffffffffffffffffffffff16600260006101000a81548173ffffffffffffffffffffffffffffffffffffffff021916908373ffffffffffffffffffffffffffffffffffffffff16021790555073bc86029dbc214939a3c5d383d0c245d5b75538c0600360006101000a81548173ffffffffffffffffffffffffffffffffffffffff021916908373ffffffffffffffffffffffffffffffffffffffff1602179055507fffffffffffffffffffffffffffffffffffffffffffffffffffffffffffffffff60085560146009556000600a556005600b556065600c55611c20600e556069600f55605f60105560696011553480156200015857600080fd5b50604051620042a7380380620042a783398181016040528101906200017e919062000321565b6000620001906200030260201b60201c565b9050806000806101000a81548173ffffffffffffffffffffffffffffffffffffffff021916908373ffffffffffffffffffffffffffffffffffffffff1602179055508073ffffffffffffffffffffffffffffffffffffffff16600073ffffffffffffffffffffffffffffffffffffffff167f8be0079c531659141344cd1fd0a4f28419497f9722a3daafe3b4186f6b6457e060405160405180910390a35080600d81905550600360009054906101000a900473ffffffffffffffffffffffffffffffffffffffff16600460006101000a81548173ffffffffffffffffffffffffffffffffffffffff021916908373ffffffffffffffffffffffffffffffffffffffff160217905550600260009054906101000a900473ffffffffffffffffffffffffffffffffffffffff16600660006101000a81548173ffffffffffffffffffffffffffffffffffffffff021916908373ffffffffffffffffffffffffffffffffffffffff1602179055505062000371565b600033905090565b6000815190506200031b8162000357565b92915050565b6000602082840312156200033457600080fd5b600062000344848285016200030a565b91505092915050565b6000819050919050565b62000362816200034d565b81146200036e57600080fd5b50565b613f2680620003816000396000f3fe6080604052600436106101445760003560e01c80639c40dfe1116100b6578063d5ce13621161006f578063d5ce136214610462578063deca945714610479578063e106273c146104a2578063e2a7515e146104e1578063f2fde38b14610511578063fbbd312c1461053a5761014b565b80639c40dfe114610340578063a8faeaaf14610369578063aa0e365614610392578063ac41865a146103cf578063d3e6e3e91461040d578063d5b014c31461044b5761014b565b8063715018a611610108578063715018a61461023157806372a1077214610248578063777647fb146102715780638b1f3f5a146102ae5780638cdc37fb146102ec5780638da5cb5b146103155761014b565b8063138b89891461015057806315b0d496146101795780632b3a5990146101a25780633ce6fd4b146101df5780635c860998146102085761014b565b3661014b57005b600080fd5b34801561015c57600080fd5b5061017760048036038101906101729190613357565b610563565b005b34801561018557600080fd5b506101a0600480360381019061019b9190613357565b610635565b005b3480156101ae57600080fd5b506101c960048036038101906101c4919061313f565b610707565b6040516101d69190613ab3565b60405180910390f35b3480156101eb57600080fd5b5061020660048036038101906102019190613357565b6107f2565b005b34801561021457600080fd5b5061022f600480360381019061022a9190613357565b6108c4565b005b34801561023d57600080fd5b50610246610996565b005b34801561025457600080fd5b5061026f600480360381019061026a9190613357565b610b1c565b005b34801561027d57600080fd5b50610298600480360381019061029391906133e5565b610bee565b6040516102a59190613a31565b60405180910390f35b3480156102ba57600080fd5b506102d560048036038101906102d091906133a9565b610fe2565b6040516102e3929190613a4c565b60405180910390f35b3480156102f857600080fd5b50610313600480360381019061030e9190613357565b6113cb565b005b34801561032157600080fd5b5061032a61149d565b60405161033791906138e7565b60405180910390f35b34801561034c57600080fd5b5061036760048036038101906103629190613357565b6114c6565b005b34801561037557600080fd5b50610390600480360381019061038b9190613116565b611598565b005b34801561039e57600080fd5b506103b960048036038101906103b491906132d5565b6116a4565b6040516103c691906138e7565b60405180910390f35b3480156103db57600080fd5b506103f660048036038101906103f1919061313f565b611887565b604051610404929190613ba0565b60405180910390f35b34801561041957600080fd5b50610434600480360381019061042f919061321c565b6119e0565b604051610442929190613b70565b60405180910390f35b34801561045757600080fd5b50610460611d77565b005b34801561046e57600080fd5b50610477611e88565b005b34801561048557600080fd5b506104a0600480360381019061049b9190613357565b61218e565b005b3480156104ae57600080fd5b506104c960048036038101906104c491906133a9565b612260565b6040516104d893929190613a75565b60405180910390f35b6104fb60048036038101906104f6919061317b565b612504565b6040516105089190613b55565b60405180910390f35b34801561051d57600080fd5b50610538600480360381019061053391906130c4565b6126c7565b005b34801561054657600080fd5b50610561600480360381019061055c9190613357565b6128d2565b005b61056b6129a4565b73ffffffffffffffffffffffffffffffffffffffff1660008054906101000a900473ffffffffffffffffffffffffffffffffffffffff1673ffffffffffffffffffffffffffffffffffffffff161461062b576040517f08c379a00000000000000000000000000000000000000000000000000000000081526004018080602001828103825260208152602001807f4f776e61626c653a2063616c6c6572206973206e6f7420746865206f776e657281525060200191505060405180910390fd5b80600b8190555050565b61063d6129a4565b73ffffffffffffffffffffffffffffffffffffffff1660008054906101000a900473ffffffffffffffffffffffffffffffffffffffff1673ffffffffffffffffffffffffffffffffffffffff16146106fd576040517f08c379a00000000000000000000000000000000000000000000000000000000081526004018080602001828103825260208152602001807f4f776e61626c653a2063616c6c6572206973206e6f7420746865206f776e657281525060200191505060405180910390fd5b8060108190555050565b606080606061071d610718866129ac565b612a44565b9150600160009054906101000a900473ffffffffffffffffffffffffffffffffffffffff1673ffffffffffffffffffffffffffffffffffffffff168473ffffffffffffffffffffffffffffffffffffffff1614156107b2576040518060400160405280600381526020017f657468000000000000000000000000000000000000000000000000000000000081525090506107c6565b6107c36107be856129ac565b612a44565b90505b81816040516020016107d99291906138b8565b6040516020818303038152906040529250505092915050565b6107fa6129a4565b73ffffffffffffffffffffffffffffffffffffffff1660008054906101000a900473ffffffffffffffffffffffffffffffffffffffff1673ffffffffffffffffffffffffffffffffffffffff16146108ba576040517f08c379a00000000000000000000000000000000000000000000000000000000081526004018080602001828103825260208152602001807f4f776e61626c653a2063616c6c6572206973206e6f7420746865206f776e657281525060200191505060405180910390fd5b80600e8190555050565b6108cc6129a4565b73ffffffffffffffffffffffffffffffffffffffff1660008054906101000a900473ffffffffffffffffffffffffffffffffffffffff1673ffffffffffffffffffffffffffffffffffffffff161461098c576040517f08c379a00000000000000000000000000000000000000000000000000000000081526004018080602001828103825260208152602001807f4f776e61626c653a2063616c6c6572206973206e6f7420746865206f776e657281525060200191505060405180910390fd5b8060098190555050565b61099e6129a4565b73ffffffffffffffffffffffffffffffffffffffff1660008054906101000a900473ffffffffffffffffffffffffffffffffffffffff1673ffffffffffffffffffffffffffffffffffffffff1614610a5e576040517f08c379a00000000000000000000000000000000000000000000000000000000081526004018080602001828103825260208152602001807f4f776e61626c653a2063616c6c6572206973206e6f7420746865206f776e657281525060200191505060405180910390fd5b600073ffffffffffffffffffffffffffffffffffffffff1660008054906101000a900473ffffffffffffffffffffffffffffffffffffffff1673ffffffffffffffffffffffffffffffffffffffff167f8be0079c531659141344cd1fd0a4f28419497f9722a3daafe3b4186f6b6457e060405160405180910390a360008060006101000a81548173ffffffffffffffffffffffffffffffffffffffff021916908373ffffffffffffffffffffffffffffffffffffffff160217905550565b610b246129a4565b73ffffffffffffffffffffffffffffffffffffffff1660008054906101000a900473ffffffffffffffffffffffffffffffffffffffff1673ffffffffffffffffffffffffffffffffffffffff1614610be4576040517f08c379a00000000000000000000000000000000000000000000000000000000081526004018080602001828103825260208152602001807f4f776e61626c653a2063616c6c6572206973206e6f7420746865206f776e657281525060200191505060405180910390fd5b80600a8190555050565b60008083905060005b8173ffffffffffffffffffffffffffffffffffffffff166371a973056040518163ffffffff1660e01b815260040160006040518083038186803b158015610c3d57600080fd5b505afa158015610c51573d6000803e3d6000fd5b505050506040513d6000823e3d601f19601f82011682018060405250810190610c7a919061326b565b51811015610fd4578373ffffffffffffffffffffffffffffffffffffffff168273ffffffffffffffffffffffffffffffffffffffff166371a973056040518163ffffffff1660e01b815260040160006040518083038186803b158015610cdf57600080fd5b505afa158015610cf3573d6000803e3d6000fd5b505050506040513d6000823e3d601f19601f82011682018060405250810190610d1c919061326b565b8281518110610d2757fe5b602002602001015173ffffffffffffffffffffffffffffffffffffffff161415610fc757600080610e0f8473ffffffffffffffffffffffffffffffffffffffff166371a973056040518163ffffffff1660e01b815260040160006040518083038186803b158015610d9757600080fd5b505afa158015610dab573d6000803e3d6000fd5b505050506040513d6000823e3d601f19601f82011682018060405250810190610dd4919061326b565b8481518110610ddf57fe5b6020026020010151600160009054906101000a900473ffffffffffffffffffffffffffffffffffffffff16611887565b915091506000610e288984612bc090919063ffffffff16565b9050610e526064610e4460115484612bc090919063ffffffff16565b612c4690919063ffffffff16565b9050610e6a82600a0a82612c4690919063ffffffff16565b9050600560009054906101000a900473ffffffffffffffffffffffffffffffffffffffff1673ffffffffffffffffffffffffffffffffffffffff1663edd7ca6f8673ffffffffffffffffffffffffffffffffffffffff166371a973056040518163ffffffff1660e01b815260040160006040518083038186803b158015610ef057600080fd5b505afa158015610f04573d6000803e3d6000fd5b505050506040513d6000823e3d601f19601f82011682018060405250810190610f2d919061326b565b8681518110610f3857fe5b60200260200101518a6040518363ffffffff1660e01b8152600401610f5e929190613902565b60206040518083038186803b158015610f7657600080fd5b505afa158015610f8a573d6000803e3d6000fd5b505050506040513d601f19601f82011682018060405250810190610fae9190613380565b811115610fc357600195505050505050610fdb565b5050505b8080600101915050610bf7565b5060009150505b9392505050565b600080600083905060005b8173ffffffffffffffffffffffffffffffffffffffff166371a973056040518163ffffffff1660e01b815260040160006040518083038186803b15801561103357600080fd5b505afa158015611047573d6000803e3d6000fd5b505050506040513d6000823e3d601f19601f82011682018060405250810190611070919061326b565b518110156113985760008061113c8473ffffffffffffffffffffffffffffffffffffffff166371a973056040518163ffffffff1660e01b815260040160006040518083038186803b1580156110c457600080fd5b505afa1580156110d8573d6000803e3d6000fd5b505050506040513d6000823e3d601f19601f82011682018060405250810190611101919061326b565b848151811061110c57fe5b6020026020010151600160009054906101000a900473ffffffffffffffffffffffffffffffffffffffff16611887565b9150915060006111558984612bc090919063ffffffff16565b905061117f606461117160115484612bc090919063ffffffff16565b612c4690919063ffffffff16565b905061119782600a0a82612c4690919063ffffffff16565b9050600560009054906101000a900473ffffffffffffffffffffffffffffffffffffffff1673ffffffffffffffffffffffffffffffffffffffff1663edd7ca6f8673ffffffffffffffffffffffffffffffffffffffff166371a973056040518163ffffffff1660e01b815260040160006040518083038186803b15801561121d57600080fd5b505afa158015611231573d6000803e3d6000fd5b505050506040513d6000823e3d601f19601f8201168201806040525081019061125a919061326b565b868151811061126557fe5b60200260200101518a6040518363ffffffff1660e01b815260040161128b929190613902565b60206040518083038186803b1580156112a357600080fd5b505afa1580156112b7573d6000803e3d6000fd5b505050506040513d601f19601f820116820180604052508101906112db9190613380565b8111156113885760018573ffffffffffffffffffffffffffffffffffffffff166371a973056040518163ffffffff1660e01b815260040160006040518083038186803b15801561132a57600080fd5b505afa15801561133e573d6000803e3d6000fd5b505050506040513d6000823e3d601f19601f82011682018060405250810190611367919061326b565b858151811061137257fe5b60200260200101519650965050505050506113c4565b5050508080600101915050610fed565b506000600160009054906101000a900473ffffffffffffffffffffffffffffffffffffffff1692509250505b9250929050565b6113d36129a4565b73ffffffffffffffffffffffffffffffffffffffff1660008054906101000a900473ffffffffffffffffffffffffffffffffffffffff1673ffffffffffffffffffffffffffffffffffffffff1614611493576040517f08c379a00000000000000000000000000000000000000000000000000000000081526004018080602001828103825260208152602001807f4f776e61626c653a2063616c6c6572206973206e6f7420746865206f776e657281525060200191505060405180910390fd5b80600d8190555050565b60008060009054906101000a900473ffffffffffffffffffffffffffffffffffffffff16905090565b6114ce6129a4565b73ffffffffffffffffffffffffffffffffffffffff1660008054906101000a900473ffffffffffffffffffffffffffffffffffffffff1673ffffffffffffffffffffffffffffffffffffffff161461158e576040517f08c379a00000000000000000000000000000000000000000000000000000000081526004018080602001828103825260208152602001807f4f776e61626c653a2063616c6c6572206973206e6f7420746865206f776e657281525060200191505060405180910390fd5b80600c8190555050565b6115a06129a4565b73ffffffffffffffffffffffffffffffffffffffff1660008054906101000a900473ffffffffffffffffffffffffffffffffffffffff1673ffffffffffffffffffffffffffffffffffffffff1614611660576040517f08c379a00000000000000000000000000000000000000000000000000000000081526004018080602001828103825260208152602001807f4f776e61626c653a2063616c6c6572206973206e6f7420746865206f776e657281525060200191505060405180910390fd5b80600460006101000a81548173ffffffffffffffffffffffffffffffffffffffff021916908373ffffffffffffffffffffffffffffffffffffffff16021790555050565b60006001600d54141561186a576060600367ffffffffffffffff811180156116cb57600080fd5b506040519080825280602002602001820160405280156116ff57816020015b60608152602001906001900390816116ea5790505b5090506040518060400160405280600381526020017f65746800000000000000000000000000000000000000000000000000000000008152508160008151811061174557fe5b60200260200101819052506040518060400160405280600481526020017f64617461000000000000000000000000000000000000000000000000000000008152508160018151811061179357fe5b602002602001018190525082816003815181106117ac57fe5b6020026020010181905250600460009054906101000a900473ffffffffffffffffffffffffffffffffffffffff1673ffffffffffffffffffffffffffffffffffffffff1663f4037468826040518263ffffffff1660e01b81526004016118129190613a0f565b60206040518083038186803b15801561182a57600080fd5b505afa15801561183e573d6000803e3d6000fd5b505050506040513d601f19601f8201168201806040525081019061186291906130ed565b915050611882565b73122eb74f9d0f1a5ed587f43d120c1c2bbdb9360b90505b919050565b60008060008060006118a161189c8888610707565b6116a4565b905060008190508073ffffffffffffffffffffffffffffffffffffffff1663feaf968c6040518163ffffffff1660e01b815260040160a06040518083038186803b1580156118ee57600080fd5b505afa158015611902573d6000803e3d6000fd5b505050506040513d601f19601f820116820180604052508101906119269190613488565b9091929350909150508095508194505050600e548442031161194757600080fd5b8073ffffffffffffffffffffffffffffffffffffffff1663313ce5676040518163ffffffff1660e01b815260040160206040518083038186803b15801561198d57600080fd5b505afa1580156119a1573d6000803e3d6000fd5b505050506040513d601f19601f820116820180604052508101906119c591906134ff565b60ff1694506119d383612c90565b9550505050509250929050565b600060606000806119f18786611887565b91509150600080611a0e83600a0a89612c4690919063ffffffff16565b90506000611a258286612bc090919063ffffffff16565b9050600660009054906101000a900473ffffffffffffffffffffffffffffffffffffffff1673ffffffffffffffffffffffffffffffffffffffff1663085e2c5b8b8a84600954600a546040518663ffffffff1660e01b8152600401611a8e959493929190613993565b60006040518083038186803b158015611aa657600080fd5b505afa158015611aba573d6000803e3d6000fd5b505050506040513d6000823e3d601f19601f82011682018060405250810190611ae39190613434565b80975081945050506000611b138a611b05606487612bc090919063ffffffff16565b612c4690919063ffffffff16565b9050600f548110611b59576040517f08c379a0000000000000000000000000000000000000000000000000000000008152600401611b5090613ad5565b60405180910390fd5b6010548111611b9d576040517f08c379a0000000000000000000000000000000000000000000000000000000008152600401611b9490613af5565b60405180910390fd5b6064811015611d5a57611bcc6064611bbe8385612bc090919063ffffffff16565b612c4690919063ffffffff16565b9150600660009054906101000a900473ffffffffffffffffffffffffffffffffffffffff1673ffffffffffffffffffffffffffffffffffffffff1663085e2c5b8c8b85600954600a546040518663ffffffff1660e01b8152600401611c35959493929190613993565b60006040518083038186803b158015611c4d57600080fd5b505afa158015611c61573d6000803e3d6000fd5b505050506040513d6000823e3d601f19601f82011682018060405250810190611c8a9190613434565b8098508195505050611cb88a611caa606487612bc090919063ffffffff16565b612c4690919063ffffffff16565b9050600f548110611cfe576040517f08c379a0000000000000000000000000000000000000000000000000000000008152600401611cf590613b35565b60405180910390fd5b89841115611d1457819750505050505050611d6f565b6001611d55576040517f08c379a0000000000000000000000000000000000000000000000000000000008152600401611d4c90613b15565b60405180910390fd5b611d68565b819750505050505050611d6f565b5050505050505b935093915050565b611d7f6129a4565b73ffffffffffffffffffffffffffffffffffffffff1660008054906101000a900473ffffffffffffffffffffffffffffffffffffffff1673ffffffffffffffffffffffffffffffffffffffff1614611e3f576040517f08c379a00000000000000000000000000000000000000000000000000000000081526004018080602001828103825260208152602001807f4f776e61626c653a2063616c6c6572206973206e6f7420746865206f776e657281525060200191505060405180910390fd5b3373ffffffffffffffffffffffffffffffffffffffff166108fc479081150290604051600060405180830381858888f19350505050158015611e85573d6000803e3d6000fd5b50565b611e906129a4565b73ffffffffffffffffffffffffffffffffffffffff1660008054906101000a900473ffffffffffffffffffffffffffffffffffffffff1673ffffffffffffffffffffffffffffffffffffffff1614611f50576040517f08c379a00000000000000000000000000000000000000000000000000000000081526004018080602001828103825260208152602001807f4f776e61626c653a2063616c6c6572206973206e6f7420746865206f776e657281525060200191505060405180910390fd5b6060600267ffffffffffffffff81118015611f6a57600080fd5b50604051908082528060200260200182016040528015611f9e57816020015b6060815260200190600190039081611f895790505b5090506040518060400160405280600381526020017f657468000000000000000000000000000000000000000000000000000000000081525081600081518110611fe457fe5b60200260200101819052506040518060400160405280600681526020017f3173706c697400000000000000000000000000000000000000000000000000008152508160018151811061203257fe5b6020026020010181905250600460009054906101000a900473ffffffffffffffffffffffffffffffffffffffff1673ffffffffffffffffffffffffffffffffffffffff1663f4037468826040518263ffffffff1660e01b81526004016120989190613a0f565b60206040518083038186803b1580156120b057600080fd5b505afa1580156120c4573d6000803e3d6000fd5b505050506040513d601f19601f820116820180604052508101906120e891906130ed565b600260006101000a81548173ffffffffffffffffffffffffffffffffffffffff021916908373ffffffffffffffffffffffffffffffffffffffff160217905550600260009054906101000a900473ffffffffffffffffffffffffffffffffffffffff16600660006101000a81548173ffffffffffffffffffffffffffffffffffffffff021916908373ffffffffffffffffffffffffffffffffffffffff16021790555050565b6121966129a4565b73ffffffffffffffffffffffffffffffffffffffff1660008054906101000a900473ffffffffffffffffffffffffffffffffffffffff1673ffffffffffffffffffffffffffffffffffffffff1614612256576040517f08c379a00000000000000000000000000000000000000000000000000000000081526004018080602001828103825260208152602001807f4f776e61626c653a2063616c6c6572206973206e6f7420746865206f776e657281525060200191505060405180910390fd5b80600f8190555050565b600080606060008490506060601667ffffffffffffffff8111801561228457600080fd5b506040519080825280602002602001820160405280156122b35781602001602082028036833780820191505090505b5090506000805b8373ffffffffffffffffffffffffffffffffffffffff166371a973056040518163ffffffff1660e01b815260040160006040518083038186803b15801561230057600080fd5b505afa158015612314573d6000803e3d6000fd5b505050506040513d6000823e3d601f19601f8201168201806040525081019061233d919061326b565b518110156124cc576124078473ffffffffffffffffffffffffffffffffffffffff166371a973056040518163ffffffff1660e01b815260040160006040518083038186803b15801561238e57600080fd5b505afa1580156123a2573d6000803e3d6000fd5b505050506040513d6000823e3d601f19601f820116820180604052508101906123cb919061326b565b82815181106123d657fe5b60200260200101518a600160009054906101000a900473ffffffffffffffffffffffffffffffffffffffff166119e0565b8094508193505050600082146124bf5760018473ffffffffffffffffffffffffffffffffffffffff166371a973056040518163ffffffff1660e01b815260040160006040518083038186803b15801561245f57600080fd5b505afa158015612473573d6000803e3d6000fd5b505050506040513d6000823e3d601f19601f8201168201806040525081019061249c919061326b565b82815181106124a757fe5b602002602001015184965096509650505050506124fd565b80806001019150506122ba565b506000600160009054906101000a900473ffffffffffffffffffffffffffffffffffffffff16839550955095505050505b9250925092565b6000808790508073ffffffffffffffffffffffffffffffffffffffff1663095ea7b3600660009054906101000a900473ffffffffffffffffffffffffffffffffffffffff166008546040518363ffffffff1660e01b81526004016125699291906139e6565b602060405180830381600087803b15801561258357600080fd5b505af1158015612597573d6000803e3d6000fd5b505050506040513d601f19601f820116820180604052508101906125bb91906132ac565b50600660009054906101000a900473ffffffffffffffffffffffffffffffffffffffff1673ffffffffffffffffffffffffffffffffffffffff1663e2a7515e8989898989896040518763ffffffff1660e01b81526004016126219695949392919061392b565b602060405180830381600087803b15801561263b57600080fd5b505af115801561264f573d6000803e3d6000fd5b505050506040513d601f19601f820116820180604052508101906126739190613380565b91503373ffffffffffffffffffffffffffffffffffffffff166108fc479081150290604051600060405180830381858888f193505050501580156126bb573d6000803e3d6000fd5b50509695505050505050565b6126cf6129a4565b73ffffffffffffffffffffffffffffffffffffffff1660008054906101000a900473ffffffffffffffffffffffffffffffffffffffff1673ffffffffffffffffffffffffffffffffffffffff161461278f576040517f08c379a00000000000000000000000000000000000000000000000000000000081526004018080602001828103825260208152602001807f4f776e61626c653a2063616c6c6572206973206e6f7420746865206f776e657281525060200191505060405180910390fd5b600073ffffffffffffffffffffffffffffffffffffffff168173ffffffffffffffffffffffffffffffffffffffff161415612815576040517f08c379a0000000000000000000000000000000000000000000000000000000008152600401808060200182810382526026815260200180613eaa6026913960400191505060405180910390fd5b8073ffffffffffffffffffffffffffffffffffffffff1660008054906101000a900473ffffffffffffffffffffffffffffffffffffffff1673ffffffffffffffffffffffffffffffffffffffff167f8be0079c531659141344cd1fd0a4f28419497f9722a3daafe3b4186f6b6457e060405160405180910390a3806000806101000a81548173ffffffffffffffffffffffffffffffffffffffff021916908373ffffffffffffffffffffffffffffffffffffffff16021790555050565b6128da6129a4565b73ffffffffffffffffffffffffffffffffffffffff1660008054906101000a900473ffffffffffffffffffffffffffffffffffffffff1673ffffffffffffffffffffffffffffffffffffffff161461299a576040517f08c379a00000000000000000000000000000000000000000000000000000000081526004018080602001828103825260208152602001807f4f776e61626c653a2063616c6c6572206973206e6f7420746865206f776e657281525060200191505060405180910390fd5b8060118190555050565b600033905090565b6060600082905060608173ffffffffffffffffffffffffffffffffffffffff166395d89b416040518163ffffffff1660e01b815260040160006040518083038186803b1580156129fb57600080fd5b505afa158015612a0f573d6000803e3d6000fd5b505050506040513d6000823e3d601f19601f82011682018060405250810190612a389190613316565b90508092505050919050565b6060808290506060815167ffffffffffffffff81118015612a6457600080fd5b506040519080825280601f01601f191660200182016040528015612a975781602001600182028036833780820191505090505b50905060005b8251811015612bb5576041838281518110612ab457fe5b602001015160f81c60f81b60f81c60ff1610158015612af05750605a838281518110612adc57fe5b602001015160f81c60f81b60f81c60ff1611155b15612b55576020838281518110612b0357fe5b602001015160f81c60f81b60f81c0160f81b828281518110612b2157fe5b60200101907effffffffffffffffffffffffffffffffffffffffffffffffffffffffffffff1916908160001a905350612ba8565b828181518110612b6157fe5b602001015160f81c60f81b828281518110612b7857fe5b60200101907effffffffffffffffffffffffffffffffffffffffffffffffffffffffffffff1916908160001a9053505b8080600101915050612a9d565b508092505050919050565b600080831415612bd35760009050612c40565b6000828402905082848281612be457fe5b0414612c3b576040517f08c379a0000000000000000000000000000000000000000000000000000000008152600401808060200182810382526021815260200180613ed06021913960400191505060405180910390fd5b809150505b92915050565b6000612c8883836040518060400160405280601a81526020017f536166654d6174683a206469766973696f6e206279207a65726f000000000000815250612d10565b905092915050565b600080821215612d08576040517f08c379a00000000000000000000000000000000000000000000000000000000081526004018080602001828103825260208152602001807f53616665436173743a2076616c7565206d75737420626520706f73697469766581525060200191505060405180910390fd5b819050919050565b60008083118290612dbc576040517f08c379a00000000000000000000000000000000000000000000000000000000081526004018080602001828103825283818151815260200191508051906020019080838360005b83811015612d81578082015181840152602081019050612d66565b50505050905090810190601f168015612dae5780820380516001836020036101000a031916815260200191505b509250505060405180910390fd5b506000838581612dc857fe5b049050809150509392505050565b600081359050612de581613e08565b92915050565b600081519050612dfa81613e08565b92915050565b600081359050612e0f81613e1f565b92915050565b600082601f830112612e2657600080fd5b8151612e39612e3482613bfa565b613bc9565b91508181835260208401935060208101905083856020840282011115612e5e57600080fd5b60005b83811015612e8e5781612e748882612deb565b845260208401935060208301925050600181019050612e61565b5050505092915050565b600082601f830112612ea957600080fd5b8135612ebc612eb782613c26565b613bc9565b91508181835260208401935060208101905083856020840282011115612ee157600080fd5b60005b83811015612f115781612ef78882613070565b845260208401935060208301925050600181019050612ee4565b5050505092915050565b600082601f830112612f2c57600080fd5b8151612f3f612f3a82613c26565b613bc9565b91508181835260208401935060208101905083856020840282011115612f6457600080fd5b60005b83811015612f945781612f7a8882613085565b845260208401935060208301925050600181019050612f67565b5050505092915050565b600081519050612fad81613e36565b92915050565b600081519050612fc281613e4d565b92915050565b600082601f830112612fd957600080fd5b8135612fec612fe782613c52565b613bc9565b9150808252602083016020830185838301111561300857600080fd5b613013838284613db3565b50505092915050565b600082601f83011261302d57600080fd5b815161304061303b82613c52565b613bc9565b9150808252602083016020830185838301111561305c57600080fd5b613067838284613dc2565b50505092915050565b60008135905061307f81613e64565b92915050565b60008151905061309481613e64565b92915050565b6000815190506130a981613e92565b92915050565b6000815190506130be81613e7b565b92915050565b6000602082840312156130d657600080fd5b60006130e484828501612dd6565b91505092915050565b6000602082840312156130ff57600080fd5b600061310d84828501612deb565b91505092915050565b60006020828403121561312857600080fd5b600061313684828501612e00565b91505092915050565b6000806040838503121561315257600080fd5b600061316085828601612dd6565b925050602061317185828601612dd6565b9150509250929050565b60008060008060008060c0878903121561319457600080fd5b60006131a289828a01612dd6565b96505060206131b389828a01612dd6565b95505060406131c489828a01613070565b94505060606131d589828a01613070565b935050608087013567ffffffffffffffff8111156131f257600080fd5b6131fe89828a01612e98565b92505060a061320f89828a01613070565b9150509295509295509295565b60008060006060848603121561323157600080fd5b600061323f86828701612dd6565b935050602061325086828701613070565b925050604061326186828701612dd6565b9150509250925092565b60006020828403121561327d57600080fd5b600082015167ffffffffffffffff81111561329757600080fd5b6132a384828501612e15565b91505092915050565b6000602082840312156132be57600080fd5b60006132cc84828501612f9e565b91505092915050565b6000602082840312156132e757600080fd5b600082013567ffffffffffffffff81111561330157600080fd5b61330d84828501612fc8565b91505092915050565b60006020828403121561332857600080fd5b600082015167ffffffffffffffff81111561334257600080fd5b61334e8482850161301c565b91505092915050565b60006020828403121561336957600080fd5b600061337784828501613070565b91505092915050565b60006020828403121561339257600080fd5b60006133a084828501613085565b91505092915050565b600080604083850312156133bc57600080fd5b60006133ca85828601613070565b92505060206133db85828601612dd6565b9150509250929050565b6000806000606084860312156133fa57600080fd5b600061340886828701613070565b935050602061341986828701612dd6565b925050604061342a86828701612dd6565b9150509250925092565b6000806040838503121561344757600080fd5b600061345585828601613085565b925050602083015167ffffffffffffffff81111561347257600080fd5b61347e85828601612f1b565b9150509250929050565b600080600080600060a086880312156134a057600080fd5b60006134ae8882890161309a565b95505060206134bf88828901612fb3565b94505060406134d088828901613085565b93505060606134e188828901613085565b92505060806134f28882890161309a565b9150509295509295909350565b60006020828403121561351157600080fd5b600061351f848285016130af565b91505092915050565b60006135348383613645565b905092915050565b6000613548838361389a565b60208301905092915050565b61355d81613d2c565b82525050565b600061356e82613ca2565b6135788185613cdd565b93508360208202850161358a85613c82565b8060005b858110156135c657848403895281516135a78582613528565b94506135b283613cc3565b925060208a0199505060018101905061358e565b50829750879550505050505092915050565b60006135e382613cad565b6135ed8185613cee565b93506135f883613c92565b8060005b83811015613629578151613610888261353c565b975061361b83613cd0565b9250506001810190506135fc565b5085935050505092915050565b61363f81613d50565b82525050565b600061365082613cb8565b61365a8185613cff565b935061366a818560208601613dc2565b61367381613df7565b840191505092915050565b600061368982613cb8565b6136938185613d10565b93506136a3818560208601613dc2565b6136ac81613df7565b840191505092915050565b60006136c282613cb8565b6136cc8185613d21565b93506136dc818560208601613dc2565b80840191505092915050565b60006136f5603283613d10565b91507f506f737369626c65206f7261636c65206572726f722c20746f6f206d7563682060008301527f72657475726e206f6e2065786368616e676500000000000000000000000000006020830152604082019050919050565b600061375b601a83613d10565b91507f45786368616e6765207261746520756e6661766f757261626c650000000000006000830152602082019050919050565b600061379b602483613d10565b91507f45786368616e6765206661696c6564206166746572207365636f6e642061747460008301527f656d7074000000000000000000000000000000000000000000000000000000006020830152604082019050919050565b6000613801602b83613d10565b91507f45786368616e6765206572726f722c20746f6f206d7563682072657475726e2060008301527f6f6e2065786368616e67650000000000000000000000000000000000000000006020830152604082019050919050565b6000613867600183613d21565b91507f2d000000000000000000000000000000000000000000000000000000000000006000830152600182019050919050565b6138a381613d86565b82525050565b6138b281613d86565b82525050565b60006138c482856136b7565b91506138cf8261385a565b91506138db82846136b7565b91508190509392505050565b60006020820190506138fc6000830184613554565b92915050565b60006040820190506139176000830185613554565b6139246020830184613554565b9392505050565b600060c0820190506139406000830189613554565b61394d6020830188613554565b61395a60408301876138a9565b61396760608301866138a9565b818103608083015261397981856135d8565b905061398860a08301846138a9565b979650505050505050565b600060a0820190506139a86000830188613554565b6139b56020830187613554565b6139c260408301866138a9565b6139cf60608301856138a9565b6139dc60808301846138a9565b9695505050505050565b60006040820190506139fb6000830185613554565b613a0860208301846138a9565b9392505050565b60006020820190508181036000830152613a298184613563565b905092915050565b6000602082019050613a466000830184613636565b92915050565b6000604082019050613a616000830185613636565b613a6e6020830184613554565b9392505050565b6000606082019050613a8a6000830186613636565b613a976020830185613554565b8181036040830152613aa981846135d8565b9050949350505050565b60006020820190508181036000830152613acd818461367e565b905092915050565b60006020820190508181036000830152613aee816136e8565b9050919050565b60006020820190508181036000830152613b0e8161374e565b9050919050565b60006020820190508181036000830152613b2e8161378e565b9050919050565b60006020820190508181036000830152613b4e816137f4565b9050919050565b6000602082019050613b6a60008301846138a9565b92915050565b6000604082019050613b8560008301856138a9565b8181036020830152613b9781846135d8565b90509392505050565b6000604082019050613bb560008301856138a9565b613bc260208301846138a9565b9392505050565b6000604051905081810181811067ffffffffffffffff82111715613bf057613bef613df5565b5b8060405250919050565b600067ffffffffffffffff821115613c1557613c14613df5565b5b602082029050602081019050919050565b600067ffffffffffffffff821115613c4157613c40613df5565b5b602082029050602081019050919050565b600067ffffffffffffffff821115613c6d57613c6c613df5565b5b601f19601f8301169050602081019050919050565b6000819050602082019050919050565b6000819050602082019050919050565b600081519050919050565b600081519050919050565b600081519050919050565b6000602082019050919050565b6000602082019050919050565b600082825260208201905092915050565b600082825260208201905092915050565b600082825260208201905092915050565b600082825260208201905092915050565b600081905092915050565b6000613d3782613d66565b9050919050565b6000613d4982613d66565b9050919050565b60008115159050919050565b6000819050919050565b600073ffffffffffffffffffffffffffffffffffffffff82169050919050565b6000819050919050565b600060ff82169050919050565b600069ffffffffffffffffffff82169050919050565b82818337600083830152505050565b60005b83811015613de0578082015181840152602081019050613dc5565b83811115613def576000848401525b50505050565bfe5b6000601f19601f8301169050919050565b613e1181613d2c565b8114613e1c57600080fd5b50565b613e2881613d3e565b8114613e3357600080fd5b50565b613e3f81613d50565b8114613e4a57600080fd5b50565b613e5681613d5c565b8114613e6157600080fd5b50565b613e6d81613d86565b8114613e7857600080fd5b50565b613e8481613d90565b8114613e8f57600080fd5b50565b613e9b81613d9d565b8114613ea657600080fd5b5056fe4f776e61626c653a206e6577206f776e657220697320746865207a65726f2061646472657373536166654d6174683a206d756c7469706c69636174696f6e206f766572666c6f77a2646970667358221220c32724db1a4057637cbd37c7a20ab7a9900b020c2431cad047cce3fc1224de1364736f6c63430007040033",
  "immutableReferences": {},
  "source": "// SPDX-License-Identifier: MIT\r\npragma solidity ^0.7.0;\r\npragma experimental ABIEncoderV2;\r\n\r\nimport \"@openzeppelin/contracts/access/Ownable.sol\"; \r\nimport \"@openzeppelin/contracts/token/ERC20/IERC20.sol\";\r\nimport \"@openzeppelin/contracts/math/SafeMath.sol\";\r\nimport \"@openzeppelin/contracts/utils/SafeCast.sol\";\r\nimport \"interfaces/IOneSplit.sol\";\r\nimport \"interfaces/IUserVault.sol\";\r\nimport \"interfaces/INameManager.sol\";\r\nimport \"interfaces/IInvestmentManager.sol\";\r\nimport \"@chainlink/contracts/v0.7/interfaces/AggregatorV3Interface.sol\";\r\n\r\n  /**\r\n   * @title Manages exchanging tokens and ETH\r\n   * @notice part of the StakeYourName DApp\r\n   * @author Daniel Chilvers\r\n   **/\r\ncontract ExchangeManager is Ownable {\r\n\r\n    using SafeMath for uint256;\r\n\r\n    address internal zeroAddress = address(0);\r\n    address internal oneInch = zeroAddress;\r\n    ///@dev this is not the final NameManager address, update later\r\n    address payable internal nameManagerAddress = 0xbC86029dbC214939a3c5d383d0C245d5B75538C0;\r\n\r\n    NameManager nameManager;\r\n    InvestmentManager investmentManager;\r\n    IOneSplit oneSplit;\r\n    //IOneSplitMulti oneSplitMulti;\r\n    //IOneSplitConsts oneSplitConsts;\r\n    IERC20 erc20;\r\n\r\n    uint256 MAX_INT = type(uint256).max;\r\n    uint256 exchangeParts = 20;\r\n    uint256 exchangeFlags = 0;\r\n    uint256 iterations = 5;\r\n    uint256 percentIncrease = 101;\r\n    uint256 ChainID;\r\n    uint256 fresh = 2 hours;\r\n    uint256 margin = 105;\r\n    uint256 slippage = 95;\r\n    uint256 estimateSlippage = 105;\r\n\r\n    constructor(uint _networkID) {\r\n        ChainID =_networkID;\r\n        nameManager = NameManager(nameManagerAddress);\r\n        oneSplit = IOneSplit(oneInch);\r\n    }\r\n\r\n    receive() external payable {}\r\n\r\n    function getPrice(address _from, address _to) public view returns(uint256 _price, uint256 _decimals){\r\n        uint256 _time;\r\n        int256 _intPrice;\r\n        address _address = getOracleAddress(assembleTokenEthPair(_from, _to));\r\n        AggregatorV3Interface _aggregator = AggregatorV3Interface(_address);\r\n        (,_intPrice,,_time,) = _aggregator.latestRoundData();\r\n        require(block.timestamp - _time > fresh);\r\n        _decimals = _aggregator.decimals();\r\n        _price = SafeCast.toUint256(_intPrice);\r\n    }\r\n\r\n    function getOracleAddress(string memory _pair) public view returns(address) {\r\n        if (ChainID == 1){\r\n            string[] memory _name = new string[](3);\r\n            _name[0] = \"eth\";\r\n            _name[1] = \"data\";\r\n            _name[3] = _pair;\r\n            return nameManager.resolveName(_name);\r\n        } else {\r\n            return 0x122eb74f9d0F1a5ed587F43D120C1c2BbDb9360B;\r\n        }\r\n    }\r\n\r\n    function assembleTokenEthPair(address _from, address _to) public view returns(string memory){\r\n        string memory _fromSymbol;\r\n        string memory _toSymbol;\r\n        _fromSymbol = toLower(getTokenSymbol(_from));\r\n        if(_to == zeroAddress){\r\n            _toSymbol = \"eth\";\r\n        } else {\r\n            _toSymbol = toLower(getTokenSymbol(_to));\r\n        }\r\n        return string(abi.encodePacked(_fromSymbol,\"-\",_toSymbol));\r\n    }\r\n\r\n    function getTokenSymbol(address _asset) internal view returns (string memory){\r\n        IERC20 _erc20 = IERC20(_asset);\r\n        string memory _symbol = _erc20.symbol();\r\n        return _symbol;\r\n    }\r\n\r\n    function toLower(string memory str) internal pure returns (string memory) {\r\n\t\tbytes memory bStr = bytes(str);\r\n\t\tbytes memory bLower = new bytes(bStr.length);\r\n\t\tfor (uint i = 0; i < bStr.length; i++) {\r\n\t\t\t// Uppercase character...\r\n\t\t\tif ((uint8(bStr[i]) >= 65) && (uint8(bStr[i]) <= 90)) {\r\n\t\t\t\t// So we add 32 to make it lowercase\r\n\t\t\t\tbLower[i] = bytes1(uint8(bStr[i]) + 32);\r\n\t\t\t} else {\r\n\t\t\t\tbLower[i] = bStr[i];\r\n\t\t\t}\r\n\t\t}\r\n\t\treturn string(bLower);\r\n\t}\r\n\r\n\r\n    /// @dev use our NameManager to grab the 1Inch contract address\r\n    function get1InchAddress() public onlyOwner {\r\n        string[] memory _name = new string[](2);\r\n        _name[0] = \"eth\";\r\n        _name[1] = \"1split\";\r\n        oneInch = nameManager.resolveName(_name);\r\n        oneSplit = IOneSplit(oneInch);\r\n    }\r\n\r\n    function checkAvailiableFunds(uint256 _cost, address _vault) public view returns(bool _accept, address _token, uint256[] memory _distribution){\r\n        UserVault _userVault = UserVault(_vault);\r\n        uint256[] memory _distributionArray = new uint256[](22);\r\n        uint256 _price;\r\n        for (uint256 i; i < _userVault.assets().length; i++){\r\n            (_price, _distributionArray) = getExchangePrice(_userVault.assets()[i] , _cost, zeroAddress);\r\n            if(_price != 0){\r\n                return (true, _userVault.assets()[i], _distributionArray);\r\n            }\r\n        }\r\n        return (false, zeroAddress, _distributionArray);\r\n    }\r\n\r\n    /// @dev estimate if the vault will have enough of any funds to complete the purshase\r\n    function estimateFunds(uint256 _cost, address _vault) public view returns(bool _accept, address _token){\r\n        UserVault _userVault = UserVault(_vault);\r\n        for (uint256 i; i < _userVault.assets().length; i++){\r\n            (uint256 _oraclePrice, uint256 _decimals) = getPrice(_userVault.assets()[i], zeroAddress );\r\n            uint256 _estimatedInput = _oraclePrice.mul(_cost);\r\n            _estimatedInput = (_estimatedInput.mul( estimateSlippage )).div(100);\r\n            _estimatedInput = _estimatedInput.div(10**_decimals);\r\n            if (_estimatedInput > investmentManager.getInterest(_userVault.assets()[i], _vault)){\r\n                return(true, _userVault.assets()[i]);\r\n            }\r\n        }\r\n        return(false,zeroAddress);\r\n    }\r\n\r\n    function estimateSpecificAssetFunds(uint256 _cost, address _vault, address _asset) public view returns(bool _accept){\r\n        UserVault _userVault = UserVault(_vault);\r\n        for (uint256 i; i < _userVault.assets().length; i++){\r\n            if(_userVault.assets()[i] == _asset){\r\n                (uint256 _oraclePrice, uint256 _decimals) = getPrice(_userVault.assets()[i], zeroAddress );\r\n                uint256 _estimatedInput = _oraclePrice.mul(_cost);\r\n                _estimatedInput = (_estimatedInput.mul( estimateSlippage )).div(100);\r\n                _estimatedInput = _estimatedInput.div(10**_decimals);\r\n                if (_estimatedInput > investmentManager.getInterest(_userVault.assets()[i], _vault)){\r\n                    return(true);\r\n                }\r\n            }\r\n        }\r\n        return(false);\r\n    }\r\n\r\n\r\n    /// @notice currently there's no option on 1inch to select an output value and calculate the input\r\n    /// @notice so we use chainlink to give us a good estimate, we can then adjust that value to seek\r\n    /// @notice the output value we want. Only allowing the value to creep a set amount to make sure\r\n    /// @notice we are getting a reasonable price.\r\n    function getExchangePrice(address _inputToken, uint256 _outputValue, address _outputToken) public view returns(uint256 _inputValue, uint256[] memory _distribution){\r\n        (uint256 _oraclePrice, uint256 _decimals) = getPrice(_inputToken, _outputToken);\r\n        uint256 _return;\r\n\r\n        // dev we need to swap these around, multiply before divide with these low values\r\n        uint256 _adjOutputValue = _outputValue.div(10**_decimals);\r\n        uint256 _estimatedInput = _oraclePrice.mul(_adjOutputValue);\r\n        (_return, _distribution) = oneSplit.getExpectedReturn(_inputToken, _outputToken, _estimatedInput, exchangeParts, exchangeFlags);\r\n        uint256 _difference = (_return.mul(100)).div(_outputValue);\r\n        require(_difference < margin, 'Possible oracle error, too much return on exchange');\r\n        require(_difference > slippage, 'Exchange rate unfavourable');\r\n        if (_difference < 100){\r\n            /// @dev we're not getting enough return, but it's close so lets try again.\r\n            _estimatedInput = (_estimatedInput.mul(_difference)).div(100);\r\n            (_return, _distribution) = oneSplit.getExpectedReturn(_inputToken, _outputToken, _estimatedInput, exchangeParts, exchangeFlags);\r\n            _difference = (_return.mul(100)).div(_outputValue);\r\n            require(_difference < margin, 'Exchange error, too much return on exchange');\r\n            if (_return > _outputValue){\r\n                return (_estimatedInput, _distribution);\r\n            }\r\n            require(true, 'Exchange failed after second attempt');\r\n        } else {\r\n            /// @dev Goldilocks, not too much, not too little.\r\n            return (_estimatedInput, _distribution);\r\n        }\r\n    }\r\n\r\n    function swap(\r\n        address _fromToken,\r\n        address _destToken,\r\n        uint256 _amount,\r\n        uint256 _minReturn,\r\n        uint256[] memory _distribution,\r\n        uint256 _flags\r\n    )\r\n        external\r\n        payable\r\n        returns(uint256 _returnAmount) {\r\n            IERC20 _erc20 = IERC20(_fromToken);\r\n            _erc20.approve(address(oneSplit),MAX_INT);\r\n            _returnAmount = oneSplit.swap(_fromToken, _destToken, _amount, _minReturn, _distribution, _flags);\r\n            msg.sender.transfer(address(this).balance);\r\n        }\r\n\r\n    function updateExchangeParts(uint256 _newParts) external onlyOwner {\r\n        exchangeParts = _newParts;\r\n    }\r\n    function updateExchangeFlags(uint256 _newFlags) external onlyOwner {\r\n        exchangeFlags = _newFlags;\r\n    }\r\n    function updatePercentageIncrease(uint256 _newPercent) external onlyOwner {\r\n        percentIncrease = _newPercent;\r\n    }\r\n    function updateIterations(uint256 _newIterations) external onlyOwner {\r\n        iterations = _newIterations;\r\n    }\r\n    function updateNameManagerAddress(address payable _nameManager) external onlyOwner {\r\n        nameManager = NameManager(_nameManager);\r\n    }\r\n    function updateFresh(uint256 _fresh) external onlyOwner {\r\n        fresh = _fresh;\r\n    }\r\n    function updateMargin(uint256 _margin) external onlyOwner {\r\n        margin = _margin;\r\n    }\r\n    function updateSlippage(uint256 _slippage) external onlyOwner {\r\n        slippage = _slippage;\r\n    }   \r\n    function updateEstimateSlippage(uint256 _estimateSlippage) external onlyOwner {\r\n        estimateSlippage = _estimateSlippage;\r\n    }\r\n    function retrieveETH() external onlyOwner {\r\n        msg.sender.transfer(address(this).balance);\r\n    }\r\n\r\n    /// @dev for quick testing, later use truffle to pass this in\r\n    function updateChainID(uint256 _chainID) external onlyOwner {\r\n        ChainID = _chainID;\r\n    }\r\n}",
  "sourcePath": "C:/Users/anyth/Documents/GitHub/StakeYourName/contracts/ExchangeManager.sol",
  "compiler": {
    "name": "solc",
    "version": "0.7.4+commit.3f05b770.Emscripten.clang"
  },
  "schemaVersion": "3.3.3",
  "updatedAt": "2021-01-31T10:41:48.895Z",
  "networkType": "ethereum",
  "devdoc": {
    "author": "Daniel Chilvers*",
    "kind": "dev",
    "methods": {
      "estimateFunds(uint256,address)": {
        "details": "estimate if the vault will have enough of any funds to complete the purshase"
      },
      "get1InchAddress()": {
        "details": "use our NameManager to grab the 1Inch contract address"
      },
      "owner()": {
        "details": "Returns the address of the current owner."
      },
      "renounceOwnership()": {
        "details": "Leaves the contract without owner. It will not be possible to call `onlyOwner` functions anymore. Can only be called by the current owner. NOTE: Renouncing ownership will leave the contract without an owner, thereby removing any functionality that is only available to the owner."
      },
      "transferOwnership(address)": {
        "details": "Transfers ownership of the contract to a new account (`newOwner`). Can only be called by the current owner."
      },
      "updateChainID(uint256)": {
        "details": "for quick testing, later use truffle to pass this in"
      }
    },
    "stateVariables": {
      "nameManagerAddress": {
        "details": "this is not the final NameManager address, update later"
      }
    },
    "title": "Manages exchanging tokens and ETH",
    "version": 1
  },
  "userdoc": {
    "kind": "user",
    "methods": {
      "getExchangePrice(address,uint256,address)": {
        "notice": "currently there's no option on 1inch to select an output value and calculate the inputso we use chainlink to give us a good estimate, we can then adjust that value to seekthe output value we want. Only allowing the value to creep a set amount to make surewe are getting a reasonable price."
      }
    },
    "notice": "part of the StakeYourName DApp",
    "version": 1
  }
}