{
  "contractName": "ExchangeManager",
  "abi": [
    {
      "inputs": [],
      "stateMutability": "nonpayable",
      "type": "constructor"
    },
    {
      "anonymous": false,
      "inputs": [
        {
          "indexed": true,
          "internalType": "address",
          "name": "previousOwner",
          "type": "address"
        },
        {
          "indexed": true,
          "internalType": "address",
          "name": "newOwner",
          "type": "address"
        }
      ],
      "name": "OwnershipTransferred",
      "type": "event"
    },
    {
      "inputs": [],
      "name": "owner",
      "outputs": [
        {
          "internalType": "address",
          "name": "",
          "type": "address"
        }
      ],
      "stateMutability": "view",
      "type": "function"
    },
    {
      "inputs": [],
      "name": "renounceOwnership",
      "outputs": [],
      "stateMutability": "nonpayable",
      "type": "function"
    },
    {
      "inputs": [
        {
          "internalType": "address",
          "name": "newOwner",
          "type": "address"
        }
      ],
      "name": "transferOwnership",
      "outputs": [],
      "stateMutability": "nonpayable",
      "type": "function"
    },
    {
      "inputs": [],
      "name": "get1InchAddress",
      "outputs": [],
      "stateMutability": "nonpayable",
      "type": "function"
    },
    {
      "inputs": [
        {
          "internalType": "uint256",
          "name": "_inputValue",
          "type": "uint256"
        },
        {
          "internalType": "address",
          "name": "_inputToken",
          "type": "address"
        },
        {
          "internalType": "uint256",
          "name": "_outputValue",
          "type": "uint256"
        },
        {
          "internalType": "address",
          "name": "_outputToken",
          "type": "address"
        }
      ],
      "name": "getExchangePrice",
      "outputs": [
        {
          "internalType": "uint256",
          "name": "",
          "type": "uint256"
        },
        {
          "internalType": "uint256[]",
          "name": "",
          "type": "uint256[]"
        }
      ],
      "stateMutability": "view",
      "type": "function"
    },
    {
      "inputs": [
        {
          "internalType": "contract IERC20",
          "name": "fromToken",
          "type": "address"
        },
        {
          "internalType": "contract IERC20",
          "name": "destToken",
          "type": "address"
        },
        {
          "internalType": "uint256",
          "name": "amount",
          "type": "uint256"
        },
        {
          "internalType": "uint256",
          "name": "minReturn",
          "type": "uint256"
        },
        {
          "internalType": "uint256[]",
          "name": "distribution",
          "type": "uint256[]"
        },
        {
          "internalType": "uint256",
          "name": "flags",
          "type": "uint256"
        }
      ],
      "name": "swap",
      "outputs": [
        {
          "internalType": "uint256",
          "name": "returnAmount",
          "type": "uint256"
        }
      ],
      "stateMutability": "payable",
      "type": "function"
    },
    {
      "inputs": [
        {
          "internalType": "uint256",
          "name": "_newParts",
          "type": "uint256"
        }
      ],
      "name": "updateExchangeParts",
      "outputs": [],
      "stateMutability": "nonpayable",
      "type": "function"
    },
    {
      "inputs": [
        {
          "internalType": "uint256",
          "name": "_newFlags",
          "type": "uint256"
        }
      ],
      "name": "updateExchangeFlags",
      "outputs": [],
      "stateMutability": "nonpayable",
      "type": "function"
    }
  ],
  "bytecode": "0x60806040526000600160006101000a81548173ffffffffffffffffffffffffffffffffffffffff021916908373ffffffffffffffffffffffffffffffffffffffff160217905550600160009054906101000a900473ffffffffffffffffffffffffffffffffffffffff16600260006101000a81548173ffffffffffffffffffffffffffffffffffffffff021916908373ffffffffffffffffffffffffffffffffffffffff16021790555073bc86029dbc214939a3c5d383d0c245d5b75538c0600360006101000a81548173ffffffffffffffffffffffffffffffffffffffff021916908373ffffffffffffffffffffffffffffffffffffffff16021790555060146009556000600a5534801561011457600080fd5b50600061012561028e60201b60201c565b9050806000806101000a81548173ffffffffffffffffffffffffffffffffffffffff021916908373ffffffffffffffffffffffffffffffffffffffff1602179055508073ffffffffffffffffffffffffffffffffffffffff16600073ffffffffffffffffffffffffffffffffffffffff167f8be0079c531659141344cd1fd0a4f28419497f9722a3daafe3b4186f6b6457e060405160405180910390a350600360009054906101000a900473ffffffffffffffffffffffffffffffffffffffff16600460006101000a81548173ffffffffffffffffffffffffffffffffffffffff021916908373ffffffffffffffffffffffffffffffffffffffff160217905550600260009054906101000a900473ffffffffffffffffffffffffffffffffffffffff16600560006101000a81548173ffffffffffffffffffffffffffffffffffffffff021916908373ffffffffffffffffffffffffffffffffffffffff160217905550610296565b600033905090565b6111a7806102a56000396000f3fe60806040526004361061007b5760003560e01c8063d5ce13621161004e578063d5ce136214610114578063e2a7515e1461012b578063f2fde38b1461015b578063f5bb5191146101845761007b565b80635c86099814610080578063715018a6146100a957806372a10772146100c05780638da5cb5b146100e9575b600080fd5b34801561008c57600080fd5b506100a760048036038101906100a29190610ccf565b6101c2565b005b3480156100b557600080fd5b506100be610294565b005b3480156100cc57600080fd5b506100e760048036038101906100e29190610ccf565b61041a565b005b3480156100f557600080fd5b506100fe6104ec565b60405161010b9190610ea9565b60405180910390f35b34801561012057600080fd5b50610129610515565b005b61014560048036038101906101409190610c2e565b610775565b6040516101529190610f47565b60405180910390f35b34801561016757600080fd5b50610182600480360381019061017d9190610bdc565b610781565b005b34801561019057600080fd5b506101ab60048036038101906101a69190610cf8565b61098c565b6040516101b9929190610f62565b60405180910390f35b6101ca610a65565b73ffffffffffffffffffffffffffffffffffffffff1660008054906101000a900473ffffffffffffffffffffffffffffffffffffffff1673ffffffffffffffffffffffffffffffffffffffff161461028a576040517f08c379a00000000000000000000000000000000000000000000000000000000081526004018080602001828103825260208152602001807f4f776e61626c653a2063616c6c6572206973206e6f7420746865206f776e657281525060200191505060405180910390fd5b8060098190555050565b61029c610a65565b73ffffffffffffffffffffffffffffffffffffffff1660008054906101000a900473ffffffffffffffffffffffffffffffffffffffff1673ffffffffffffffffffffffffffffffffffffffff161461035c576040517f08c379a00000000000000000000000000000000000000000000000000000000081526004018080602001828103825260208152602001807f4f776e61626c653a2063616c6c6572206973206e6f7420746865206f776e657281525060200191505060405180910390fd5b600073ffffffffffffffffffffffffffffffffffffffff1660008054906101000a900473ffffffffffffffffffffffffffffffffffffffff1673ffffffffffffffffffffffffffffffffffffffff167f8be0079c531659141344cd1fd0a4f28419497f9722a3daafe3b4186f6b6457e060405160405180910390a360008060006101000a81548173ffffffffffffffffffffffffffffffffffffffff021916908373ffffffffffffffffffffffffffffffffffffffff160217905550565b610422610a65565b73ffffffffffffffffffffffffffffffffffffffff1660008054906101000a900473ffffffffffffffffffffffffffffffffffffffff1673ffffffffffffffffffffffffffffffffffffffff16146104e2576040517f08c379a00000000000000000000000000000000000000000000000000000000081526004018080602001828103825260208152602001807f4f776e61626c653a2063616c6c6572206973206e6f7420746865206f776e657281525060200191505060405180910390fd5b80600a8190555050565b60008060009054906101000a900473ffffffffffffffffffffffffffffffffffffffff16905090565b61051d610a65565b73ffffffffffffffffffffffffffffffffffffffff1660008054906101000a900473ffffffffffffffffffffffffffffffffffffffff1673ffffffffffffffffffffffffffffffffffffffff16146105dd576040517f08c379a00000000000000000000000000000000000000000000000000000000081526004018080602001828103825260208152602001807f4f776e61626c653a2063616c6c6572206973206e6f7420746865206f776e657281525060200191505060405180910390fd5b60008060001b905060606040518060400160405280600681526020017f3173706c697400000000000000000000000000000000000000000000000000008152509050600460009054906101000a900473ffffffffffffffffffffffffffffffffffffffff1673ffffffffffffffffffffffffffffffffffffffff16638bf4e39182846040518363ffffffff1660e01b815260040161067c929190610f17565b602060405180830381600087803b15801561069657600080fd5b505af11580156106aa573d6000803e3d6000fd5b505050506040513d601f19601f820116820180604052508101906106ce9190610c05565b600260006101000a81548173ffffffffffffffffffffffffffffffffffffffff021916908373ffffffffffffffffffffffffffffffffffffffff160217905550600260009054906101000a900473ffffffffffffffffffffffffffffffffffffffff16600560006101000a81548173ffffffffffffffffffffffffffffffffffffffff021916908373ffffffffffffffffffffffffffffffffffffffff1602179055505050565b60009695505050505050565b610789610a65565b73ffffffffffffffffffffffffffffffffffffffff1660008054906101000a900473ffffffffffffffffffffffffffffffffffffffff1673ffffffffffffffffffffffffffffffffffffffff1614610849576040517f08c379a00000000000000000000000000000000000000000000000000000000081526004018080602001828103825260208152602001807f4f776e61626c653a2063616c6c6572206973206e6f7420746865206f776e657281525060200191505060405180910390fd5b600073ffffffffffffffffffffffffffffffffffffffff168173ffffffffffffffffffffffffffffffffffffffff1614156108cf576040517f08c379a000000000000000000000000000000000000000000000000000000000815260040180806020018281038252602681526020018061114c6026913960400191505060405180910390fd5b8073ffffffffffffffffffffffffffffffffffffffff1660008054906101000a900473ffffffffffffffffffffffffffffffffffffffff1673ffffffffffffffffffffffffffffffffffffffff167f8be0079c531659141344cd1fd0a4f28419497f9722a3daafe3b4186f6b6457e060405160405180910390a3806000806101000a81548173ffffffffffffffffffffffffffffffffffffffff021916908373ffffffffffffffffffffffffffffffffffffffff16021790555050565b6000606060008590506000849050600560009054906101000a900473ffffffffffffffffffffffffffffffffffffffff1673ffffffffffffffffffffffffffffffffffffffff1663085e2c5b83838b600954600a546040518663ffffffff1660e01b8152600401610a01959493929190610ec4565b60006040518083038186803b158015610a1957600080fd5b505afa158015610a2d573d6000803e3d6000fd5b505050506040513d6000823e3d601f19601f82011682018060405250810190610a569190610d5b565b93509350505094509492505050565b600033905090565b600081359050610a7c81611106565b92915050565b600081519050610a9181611106565b92915050565b600082601f830112610aa857600080fd5b8135610abb610ab682610fc3565b610f92565b91508181835260208401935060208101905083856020840282011115610ae057600080fd5b60005b83811015610b105781610af68882610bb2565b845260208401935060208301925050600181019050610ae3565b5050505092915050565b600082601f830112610b2b57600080fd5b8151610b3e610b3982610fc3565b610f92565b91508181835260208401935060208101905083856020840282011115610b6357600080fd5b60005b83811015610b935781610b798882610bc7565b845260208401935060208301925050600181019050610b66565b5050505092915050565b600081359050610bac8161111d565b92915050565b600081359050610bc181611134565b92915050565b600081519050610bd681611134565b92915050565b600060208284031215610bee57600080fd5b6000610bfc84828501610a6d565b91505092915050565b600060208284031215610c1757600080fd5b6000610c2584828501610a82565b91505092915050565b60008060008060008060c08789031215610c4757600080fd5b6000610c5589828a01610b9d565b9650506020610c6689828a01610b9d565b9550506040610c7789828a01610bb2565b9450506060610c8889828a01610bb2565b935050608087013567ffffffffffffffff811115610ca557600080fd5b610cb189828a01610a97565b92505060a0610cc289828a01610bb2565b9150509295509295509295565b600060208284031215610ce157600080fd5b6000610cef84828501610bb2565b91505092915050565b60008060008060808587031215610d0e57600080fd5b6000610d1c87828801610bb2565b9450506020610d2d87828801610a6d565b9350506040610d3e87828801610bb2565b9250506060610d4f87828801610a6d565b91505092959194509250565b60008060408385031215610d6e57600080fd5b6000610d7c85828601610bc7565b925050602083015167ffffffffffffffff811115610d9957600080fd5b610da585828601610b1a565b9150509250929050565b6000610dbb8383610e8b565b60208301905092915050565b610dd081611044565b82525050565b6000610de182610fff565b610deb8185611022565b9350610df683610fef565b8060005b83811015610e27578151610e0e8882610daf565b9750610e1983611015565b925050600181019050610dfa565b5085935050505092915050565b610e3d81611056565b82525050565b610e4c8161109c565b82525050565b6000610e5d8261100a565b610e678185611033565b9350610e778185602086016110c0565b610e80816110f5565b840191505092915050565b610e9481611092565b82525050565b610ea381611092565b82525050565b6000602082019050610ebe6000830184610dc7565b92915050565b600060a082019050610ed96000830188610e43565b610ee66020830187610e43565b610ef36040830186610e9a565b610f006060830185610e9a565b610f0d6080830184610e9a565b9695505050505050565b60006040820190508181036000830152610f318185610e52565b9050610f406020830184610e34565b9392505050565b6000602082019050610f5c6000830184610e9a565b92915050565b6000604082019050610f776000830185610e9a565b8181036020830152610f898184610dd6565b90509392505050565b6000604051905081810181811067ffffffffffffffff82111715610fb957610fb86110f3565b5b8060405250919050565b600067ffffffffffffffff821115610fde57610fdd6110f3565b5b602082029050602081019050919050565b6000819050602082019050919050565b600081519050919050565b600081519050919050565b6000602082019050919050565b600082825260208201905092915050565b600082825260208201905092915050565b600061104f82611072565b9050919050565b6000819050919050565b600061106b82611044565b9050919050565b600073ffffffffffffffffffffffffffffffffffffffff82169050919050565b6000819050919050565b60006110a7826110ae565b9050919050565b60006110b982611072565b9050919050565b60005b838110156110de5780820151818401526020810190506110c3565b838111156110ed576000848401525b50505050565bfe5b6000601f19601f8301169050919050565b61110f81611044565b811461111a57600080fd5b50565b61112681611060565b811461113157600080fd5b50565b61113d81611092565b811461114857600080fd5b5056fe4f776e61626c653a206e6577206f776e657220697320746865207a65726f2061646472657373a26469706673582212209d9bcb60b0a504ec3670584d0f6fdc47529633df6db841d04bd7272d7a227f2464736f6c63430007040033",
  "immutableReferences": {},
  "source": "// SPDX-License-Identifier: MIT\r\npragma solidity ^0.7.0;\r\npragma experimental ABIEncoderV2;\r\n\r\nimport \"@openzeppelin/contracts/access/Ownable.sol\"; \r\nimport \"@openzeppelin/contracts/token/ERC20/IERC20.sol\";\r\nimport \"@openzeppelin/contracts/math/SafeMath.sol\";\r\nimport \"@openzeppelin/contracts/utils/SafeCast.sol\";\r\nimport \"interfaces/IOneSplit.sol\";\r\nimport \"interfaces/INameManager.sol\";\r\n\r\n  /**\r\n   * @title Manages exchanging tokens and ETH\r\n   * @notice part of the StakeYourName DApp\r\n   * @author Daniel Chilvers\r\n   **/\r\ncontract ExchangeManager is Ownable {\r\n    address internal zeroAddress = address(0);\r\n    address internal oneInch = zeroAddress;\r\n    ///@dev this is not the final NameManager address, update later\r\n    address internal nameManagerAddress = 0xbC86029dbC214939a3c5d383d0C245d5B75538C0;\r\n\r\n    NameManager nameManager;\r\n    IOneSplit oneSplit;\r\n    IOneSplitMulti oneSplitMulti;\r\n    IOneSplitConsts oneSplitConsts;\r\n    IERC20 erc20;\r\n\r\n    uint256 exchangeParts = 20;\r\n    uint256 exchangeFlags = 0;\r\n\r\n    constructor() {\r\n        nameManager = NameManager(nameManagerAddress);\r\n        oneSplit = IOneSplit(oneInch);\r\n    }\r\n\r\n    /// @dev use our NameManager to grab the 1Inch contract address\r\n    function get1InchAddress() public onlyOwner {\r\n        bytes32 _nameHash = 0;\r\n        string memory _name = \"1split\";\r\n        oneInch = nameManager.resolveName(_name, _nameHash);\r\n        oneSplit = IOneSplit(oneInch);\r\n    }\r\n\r\n    \r\n\r\n    function getExchangePrice(uint256 _inputValue, address _inputToken, uint256 _outputValue, address _outputToken) public view returns(uint256, uint256[] memory) {\r\n        IERC20 _inputERC20;\r\n        _inputERC20 = IERC20(_inputToken);\r\n        IERC20 _outputERC20;\r\n        _outputERC20 = IERC20(_outputToken);\r\n        return oneSplit.getExpectedReturn(_inputERC20, _outputERC20, _inputValue, exchangeParts, exchangeFlags);\r\n    }\r\n\r\n    function swap(\r\n        IERC20 fromToken,\r\n        IERC20 destToken,\r\n        uint256 amount,\r\n        uint256 minReturn,\r\n        uint256[] memory distribution,\r\n        uint256 flags\r\n    )\r\n        external\r\n        payable\r\n        returns(uint256 returnAmount) {\r\n\r\n\r\n        }\r\n\r\n    function updateExchangeParts(uint256 _newParts) public onlyOwner {\r\n        exchangeParts = _newParts;\r\n    }\r\n    function updateExchangeFlags(uint256 _newFlags) public onlyOwner {\r\n        exchangeFlags = _newFlags;\r\n    }\r\n\r\n}",
  "sourcePath": "C:/Users/anyth/Documents/GitHub/StakeYourName/contracts/ExchangeManager.sol",
  "compiler": {
    "name": "solc",
    "version": "0.7.4+commit.3f05b770.Emscripten.clang"
  },
  "schemaVersion": "3.3.3",
  "updatedAt": "2021-01-26T11:22:06.342Z",
  "devdoc": {
    "author": "Daniel Chilvers*",
    "kind": "dev",
    "methods": {
      "get1InchAddress()": {
        "details": "use our NameManager to grab the 1Inch contract address"
      },
      "owner()": {
        "details": "Returns the address of the current owner."
      },
      "renounceOwnership()": {
        "details": "Leaves the contract without owner. It will not be possible to call `onlyOwner` functions anymore. Can only be called by the current owner. NOTE: Renouncing ownership will leave the contract without an owner, thereby removing any functionality that is only available to the owner."
      },
      "transferOwnership(address)": {
        "details": "Transfers ownership of the contract to a new account (`newOwner`). Can only be called by the current owner."
      }
    },
    "stateVariables": {
      "nameManagerAddress": {
        "details": "this is not the final NameManager address, update later"
      }
    },
    "title": "Manages exchanging tokens and ETH",
    "version": 1
  },
  "userdoc": {
    "kind": "user",
    "methods": {},
    "notice": "part of the StakeYourName DApp",
    "version": 1
  }
}