{
  "contractName": "ExchangeManager",
  "abi": [
    {
      "inputs": [
        {
          "internalType": "uint256",
          "name": "_networkID",
          "type": "uint256"
        }
      ],
      "stateMutability": "nonpayable",
      "type": "constructor"
    },
    {
      "anonymous": false,
      "inputs": [
        {
          "indexed": true,
          "internalType": "address",
          "name": "previousOwner",
          "type": "address"
        },
        {
          "indexed": true,
          "internalType": "address",
          "name": "newOwner",
          "type": "address"
        }
      ],
      "name": "OwnershipTransferred",
      "type": "event"
    },
    {
      "inputs": [],
      "name": "owner",
      "outputs": [
        {
          "internalType": "address",
          "name": "",
          "type": "address"
        }
      ],
      "stateMutability": "view",
      "type": "function"
    },
    {
      "inputs": [],
      "name": "renounceOwnership",
      "outputs": [],
      "stateMutability": "nonpayable",
      "type": "function"
    },
    {
      "inputs": [
        {
          "internalType": "address",
          "name": "newOwner",
          "type": "address"
        }
      ],
      "name": "transferOwnership",
      "outputs": [],
      "stateMutability": "nonpayable",
      "type": "function"
    },
    {
      "stateMutability": "payable",
      "type": "receive"
    },
    {
      "inputs": [
        {
          "internalType": "address",
          "name": "_from",
          "type": "address"
        },
        {
          "internalType": "address",
          "name": "_to",
          "type": "address"
        }
      ],
      "name": "getPrice",
      "outputs": [
        {
          "internalType": "uint256",
          "name": "_price",
          "type": "uint256"
        },
        {
          "internalType": "uint256",
          "name": "_decimals",
          "type": "uint256"
        }
      ],
      "stateMutability": "view",
      "type": "function"
    },
    {
      "inputs": [
        {
          "internalType": "string",
          "name": "_pair",
          "type": "string"
        }
      ],
      "name": "getOracleAddress",
      "outputs": [
        {
          "internalType": "address",
          "name": "",
          "type": "address"
        }
      ],
      "stateMutability": "view",
      "type": "function"
    },
    {
      "inputs": [
        {
          "internalType": "address",
          "name": "_from",
          "type": "address"
        },
        {
          "internalType": "address",
          "name": "_to",
          "type": "address"
        }
      ],
      "name": "assembleTokenEthPair",
      "outputs": [
        {
          "internalType": "string",
          "name": "",
          "type": "string"
        }
      ],
      "stateMutability": "view",
      "type": "function"
    },
    {
      "inputs": [],
      "name": "get1InchAddress",
      "outputs": [],
      "stateMutability": "nonpayable",
      "type": "function"
    },
    {
      "inputs": [
        {
          "internalType": "uint256",
          "name": "_cost",
          "type": "uint256"
        },
        {
          "internalType": "address",
          "name": "_vault",
          "type": "address"
        }
      ],
      "name": "checkAvailiableFunds",
      "outputs": [
        {
          "internalType": "bool",
          "name": "_accept",
          "type": "bool"
        },
        {
          "internalType": "address",
          "name": "_token",
          "type": "address"
        },
        {
          "internalType": "uint256[]",
          "name": "_distribution",
          "type": "uint256[]"
        }
      ],
      "stateMutability": "view",
      "type": "function"
    },
    {
      "inputs": [
        {
          "internalType": "uint256",
          "name": "_cost",
          "type": "uint256"
        },
        {
          "internalType": "address",
          "name": "_vault",
          "type": "address"
        }
      ],
      "name": "estimateFunds",
      "outputs": [
        {
          "internalType": "bool",
          "name": "_accept",
          "type": "bool"
        },
        {
          "internalType": "address",
          "name": "_token",
          "type": "address"
        }
      ],
      "stateMutability": "view",
      "type": "function"
    },
    {
      "inputs": [
        {
          "internalType": "uint256",
          "name": "_cost",
          "type": "uint256"
        },
        {
          "internalType": "address",
          "name": "_vault",
          "type": "address"
        },
        {
          "internalType": "address",
          "name": "_asset",
          "type": "address"
        }
      ],
      "name": "estimateSpecificAssetFunds",
      "outputs": [
        {
          "internalType": "bool",
          "name": "_accept",
          "type": "bool"
        }
      ],
      "stateMutability": "view",
      "type": "function"
    },
    {
      "inputs": [
        {
          "internalType": "address",
          "name": "_inputToken",
          "type": "address"
        },
        {
          "internalType": "uint256",
          "name": "_desiredOutput",
          "type": "uint256"
        },
        {
          "internalType": "address",
          "name": "_outputToken",
          "type": "address"
        }
      ],
      "name": "getExchangePrice",
      "outputs": [
        {
          "internalType": "uint256",
          "name": "_inputValue",
          "type": "uint256"
        },
        {
          "internalType": "uint256[]",
          "name": "_distribution",
          "type": "uint256[]"
        }
      ],
      "stateMutability": "view",
      "type": "function"
    },
    {
      "inputs": [
        {
          "internalType": "address",
          "name": "_fromToken",
          "type": "address"
        },
        {
          "internalType": "address",
          "name": "_destToken",
          "type": "address"
        },
        {
          "internalType": "uint256",
          "name": "_amount",
          "type": "uint256"
        },
        {
          "internalType": "uint256",
          "name": "_minReturn",
          "type": "uint256"
        },
        {
          "internalType": "uint256[]",
          "name": "_distribution",
          "type": "uint256[]"
        },
        {
          "internalType": "uint256",
          "name": "_flags",
          "type": "uint256"
        }
      ],
      "name": "swap",
      "outputs": [
        {
          "internalType": "uint256",
          "name": "_returnAmount",
          "type": "uint256"
        }
      ],
      "stateMutability": "payable",
      "type": "function"
    },
    {
      "inputs": [
        {
          "internalType": "uint256",
          "name": "_newParts",
          "type": "uint256"
        }
      ],
      "name": "updateExchangeParts",
      "outputs": [],
      "stateMutability": "nonpayable",
      "type": "function"
    },
    {
      "inputs": [
        {
          "internalType": "uint256",
          "name": "_newFlags",
          "type": "uint256"
        }
      ],
      "name": "updateExchangeFlags",
      "outputs": [],
      "stateMutability": "nonpayable",
      "type": "function"
    },
    {
      "inputs": [
        {
          "internalType": "uint256",
          "name": "_newPercent",
          "type": "uint256"
        }
      ],
      "name": "updatePercentageIncrease",
      "outputs": [],
      "stateMutability": "nonpayable",
      "type": "function"
    },
    {
      "inputs": [
        {
          "internalType": "uint256",
          "name": "_newIterations",
          "type": "uint256"
        }
      ],
      "name": "updateIterations",
      "outputs": [],
      "stateMutability": "nonpayable",
      "type": "function"
    },
    {
      "inputs": [
        {
          "internalType": "address payable",
          "name": "_nameManager",
          "type": "address"
        }
      ],
      "name": "updateNameManagerAddress",
      "outputs": [],
      "stateMutability": "nonpayable",
      "type": "function"
    },
    {
      "inputs": [
        {
          "internalType": "address",
          "name": "_investmentManager",
          "type": "address"
        }
      ],
      "name": "updateInvestmentManagerAddress",
      "outputs": [],
      "stateMutability": "nonpayable",
      "type": "function"
    },
    {
      "inputs": [
        {
          "internalType": "uint256",
          "name": "_fresh",
          "type": "uint256"
        }
      ],
      "name": "updateFresh",
      "outputs": [],
      "stateMutability": "nonpayable",
      "type": "function"
    },
    {
      "inputs": [
        {
          "internalType": "uint256",
          "name": "_margin",
          "type": "uint256"
        }
      ],
      "name": "updateMargin",
      "outputs": [],
      "stateMutability": "nonpayable",
      "type": "function"
    },
    {
      "inputs": [
        {
          "internalType": "uint256",
          "name": "_slippage",
          "type": "uint256"
        }
      ],
      "name": "updateSlippage",
      "outputs": [],
      "stateMutability": "nonpayable",
      "type": "function"
    },
    {
      "inputs": [
        {
          "internalType": "uint256",
          "name": "_estimateSlippage",
          "type": "uint256"
        }
      ],
      "name": "updateEstimateSlippage",
      "outputs": [],
      "stateMutability": "nonpayable",
      "type": "function"
    },
    {
      "inputs": [],
      "name": "retrieveETH",
      "outputs": [],
      "stateMutability": "nonpayable",
      "type": "function"
    },
    {
      "inputs": [
        {
          "internalType": "address",
          "name": "_oneSplit",
          "type": "address"
        }
      ],
      "name": "setOneSplitAddress",
      "outputs": [],
      "stateMutability": "nonpayable",
      "type": "function"
    },
    {
      "inputs": [
        {
          "internalType": "uint256",
          "name": "_chainID",
          "type": "uint256"
        }
      ],
      "name": "updateChainID",
      "outputs": [],
      "stateMutability": "nonpayable",
      "type": "function"
    }
  ],
  "bytecode": "0x6080604052600180546001600160a01b031990811690915560028054821690556003805490911673bc86029dbc214939a3c5d383d0c245d5b75538c017905560001960085560146009556000600a556005600b556065600c55611c20600e556069600f819055605f6010556011553480156200007a57600080fd5b5060405162002bd438038062002bd48339810160408190526200009d9162000132565b6000620000a96200012e565b600080546001600160a01b0319166001600160a01b0383169081178255604051929350917f8be0079c531659141344cd1fd0a4f28419497f9722a3daafe3b4186f6b6457e0908290a350600d55600354600480546001600160a01b039283166001600160a01b031991821617909155600254600680549190931691161790556200014b565b3390565b60006020828403121562000144578081fd5b5051919050565b612a79806200015b6000396000f3fe60806040526004361061016a5760003560e01c8063a8faeaaf116100d1578063d5ce13621161008a578063e2a7515e11610064578063e2a7515e14610455578063e7c308fd14610475578063f2fde38b14610495578063fbbd312c146104b557610171565b8063d5ce1362146103f1578063deca945714610406578063e106273c1461042657610171565b8063a8faeaaf14610320578063aa0e365614610340578063ac41865a14610360578063b4b6222d1461038e578063d3e6e3e9146103ae578063d5b014c3146103dc57610171565b806372a107721161012357806372a1077214610243578063777647fb146102635780638b1f3f5a146102905780638cdc37fb146102be5780638da5cb5b146102de5780639c40dfe11461030057610171565b8063138b89891461017657806315b0d496146101985780632b3a5990146101b85780633ce6fd4b146101ee5780635c8609981461020e578063715018a61461022e57610171565b3661017157005b600080fd5b34801561018257600080fd5b506101966101913660046123dd565b6104d5565b005b3480156101a457600080fd5b506101966101b33660046123dd565b610532565b3480156101c457600080fd5b506101d86101d3366004612185565b61058f565b6040516101e5919061281c565b60405180910390f35b3480156101fa57600080fd5b506101966102093660046123dd565b61061a565b34801561021a57600080fd5b506101966102293660046123dd565b610677565b34801561023a57600080fd5b506101966106d4565b34801561024f57600080fd5b5061019661025e3660046123dd565b610776565b34801561026f57600080fd5b5061028361027e366004612431565b6107d3565b6040516101e591906127cc565b34801561029c57600080fd5b506102b06102ab36600461240d565b610ae4565b6040516101e59291906127d7565b3480156102ca57600080fd5b506101966102d93660046123dd565b610d8e565b3480156102ea57600080fd5b506102f3610deb565b6040516101e591906126a7565b34801561030c57600080fd5b5061019661031b3660046123dd565b610dfa565b34801561032c57600080fd5b5061019661033b36600461214d565b610e57565b34801561034c57600080fd5b506102f361035b3660046122f6565b610e79565b34801561036c57600080fd5b5061038061037b366004612185565b611255565b6040516101e5929190612925565b34801561039a57600080fd5b506101966103a936600461214d565b61137d565b3480156103ba57600080fd5b506103ce6103c9366004612295565b61139f565b6040516101e592919061290c565b3480156103e857600080fd5b50610196611699565b3480156103fd57600080fd5b50610196611720565b34801561041257600080fd5b506101966104213660046123dd565b6118c1565b34801561043257600080fd5b5061044661044136600461240d565b61191e565b6040516101e5939291906127f0565b6104686104633660046121bd565b611b1b565b6040516101e59190612903565b34801561048157600080fd5b5061019661049036600461214d565b611c6f565b3480156104a157600080fd5b506101966104b036600461214d565b611c91565b3480156104c157600080fd5b506101966104d03660046123dd565b611d89565b6104dd611de6565b6000546001600160a01b0390811691161461052d576040805162461bcd60e51b81526020600482018190526024820152600080516020612a24833981519152604482015290519081900360640190fd5b600b55565b61053a611de6565b6000546001600160a01b0390811691161461058a576040805162461bcd60e51b81526020600482018190526024820152600080516020612a24833981519152604482015290519081900360640190fd5b601055565b60608060606105a56105a086611dea565b611e70565b6001549092506001600160a01b03858116911614156105de57506040805180820190915260038152620cae8d60eb1b60208201526105ed565b6105ea6105a085611dea565b90505b81816040516020016106009291906125f5565b604051602081830303815290604052925050505b92915050565b610622611de6565b6000546001600160a01b03908116911614610672576040805162461bcd60e51b81526020600482018190526024820152600080516020612a24833981519152604482015290519081900360640190fd5b600e55565b61067f611de6565b6000546001600160a01b039081169116146106cf576040805162461bcd60e51b81526020600482018190526024820152600080516020612a24833981519152604482015290519081900360640190fd5b600955565b6106dc611de6565b6000546001600160a01b0390811691161461072c576040805162461bcd60e51b81526020600482018190526024820152600080516020612a24833981519152604482015290519081900360640190fd5b600080546040516001600160a01b03909116907f8be0079c531659141344cd1fd0a4f28419497f9722a3daafe3b4186f6b6457e0908390a3600080546001600160a01b0319169055565b61077e611de6565b6000546001600160a01b039081169116146107ce576040805162461bcd60e51b81526020600482018190526024820152600080516020612a24833981519152604482015290519081900360640190fd5b600a55565b600082815b816001600160a01b031663c5a83c2b6040518163ffffffff1660e01b815260040160206040518083038186803b15801561081157600080fd5b505afa158015610825573d6000803e3d6000fd5b505050506040513d601f19601f8201168201806040525081019061084991906123f5565b811015610ad657836001600160a01b0316826001600160a01b031663cf35bdd0836040518263ffffffff1660e01b81526004016108869190612903565b60206040518083038186803b15801561089e57600080fd5b505afa1580156108b2573d6000803e3d6000fd5b505050506040513d601f19601f820116820180604052508101906108d69190612169565b6001600160a01b03161415610ace57600080610978846001600160a01b031663cf35bdd0856040518263ffffffff1660e01b81526004016109179190612903565b60206040518083038186803b15801561092f57600080fd5b505afa158015610943573d6000803e3d6000fd5b505050506040513d601f19601f820116820180604052508101906109679190612169565b6001546001600160a01b0316611255565b90925090506000610989838a611f9b565b90506109ab60646109a560115484611f9b90919063ffffffff16565b90611ff4565b90506109bb81600a84900a611ff4565b600554604051630cf35bdd60e41b81529192506001600160a01b039081169163edd7ca6f9188169063cf35bdd0906109f7908990600401612903565b60206040518083038186803b158015610a0f57600080fd5b505afa158015610a23573d6000803e3d6000fd5b505050506040513d601f19601f82011682018060405250810190610a479190612169565b8a6040518363ffffffff1660e01b8152600401610a659291906126bb565b60206040518083038186803b158015610a7d57600080fd5b505afa158015610a91573d6000803e3d6000fd5b505050506040513d601f19601f82011682018060405250810190610ab591906123f5565b811015610aca57600195505050505050610add565b5050505b6001016107d8565b5060009150505b9392505050565b60008082815b816001600160a01b031663c5a83c2b6040518163ffffffff1660e01b815260040160206040518083038186803b158015610b2357600080fd5b505afa158015610b37573d6000803e3d6000fd5b505050506040513d601f19601f82011682018060405250810190610b5b91906123f5565b811015610d7257600080610b94846001600160a01b031663cf35bdd0856040518263ffffffff1660e01b81526004016109179190612903565b90925090506000610ba5838a611f9b565b9050610bbc60115482611f9b90919063ffffffff16565b9050610bc9816064611ff4565b9050610bd981600a84900a611ff4565b600554604051630cf35bdd60e41b81529192506001600160a01b039081169163edd7ca6f9188169063cf35bdd090610c15908990600401612903565b60206040518083038186803b158015610c2d57600080fd5b505afa158015610c41573d6000803e3d6000fd5b505050506040513d601f19601f82011682018060405250810190610c659190612169565b8a6040518363ffffffff1660e01b8152600401610c839291906126bb565b60206040518083038186803b158015610c9b57600080fd5b505afa158015610caf573d6000803e3d6000fd5b505050506040513d601f19601f82011682018060405250810190610cd391906123f5565b811015610d6757604051630cf35bdd60e41b81526001906001600160a01b0387169063cf35bdd090610d09908890600401612903565b60206040518083038186803b158015610d2157600080fd5b505afa158015610d35573d6000803e3d6000fd5b505050506040513d601f19601f82011682018060405250810190610d599190612169565b965096505050505050610d87565b505050600101610aea565b5050600154600092506001600160a01b031690505b9250929050565b610d96611de6565b6000546001600160a01b03908116911614610de6576040805162461bcd60e51b81526020600482018190526024820152600080516020612a24833981519152604482015290519081900360640190fd5b600d55565b6000546001600160a01b031690565b610e02611de6565b6000546001600160a01b03908116911614610e52576040805162461bcd60e51b81526020600482018190526024820152600080516020612a24833981519152604482015290519081900360640190fd5b600c55565b600480546001600160a01b0319166001600160a01b0392909216919091179055565b6000600d5460011415610fbe5760408051600380825260808201909252600091816020015b6060815260200190600190039081610e9e579050509050604051806040016040528060038152602001620cae8d60eb1b81525081600081518110610ede57fe5b6020026020010181905250604051806040016040528060048152602001636461746160e01b81525081600181518110610f1357fe5b60200260200101819052508281600381518110610f2c57fe5b602090810291909101015260048054604051631e806e8d60e31b81526001600160a01b039091169163f403746891610f669185910161276c565b60206040518083038186803b158015610f7e57600080fd5b505afa158015610f92573d6000803e3d6000fd5b505050506040513d601f19601f82011682018060405250810190610fb69190612169565b915050611250565b604051602001610fcd90612659565b6040516020818303038152906040528051906020012082604051602001610ff491906125d9565b60405160208183030381529060405280519060200120141561102b57507322b58f1ebedfca50fef632bd73368b2fda96d541611250565b60405160200161103a90612645565b604051602081830303815290604052805190602001208260405160200161106191906125d9565b604051602081830303815290604052805190602001201415611098575073d04647b7cb523bb9f26730e9b6de1174db7591ad611250565b6040516020016110a790612631565b60405160208183030381529060405280519060200120826040516020016110ce91906125d9565b6040516020818303038152906040528051906020012014156111055750737aecf1c19661d12e962b69ebc8f6b2e63a55c660611250565b60405160200161111490612680565b604051602081830303815290604052805190602001208260405160200161113b91906125d9565b60405160208183030381529060405280519060200120141561117257507317756515f112429471f86f98d5052acb6c47f6ee611250565b6040516020016111819061266c565b60405160208183030381529060405280519060200120826040516020016111a891906125d9565b6040516020818303038152906040528051906020012014156111df5750730bf499444525a23e7bb61997539725ca2e928138611250565b6040516020016111ee90612693565b604051602081830303815290604052805190602001208260405160200161121591906125d9565b60405160208183030381529060405280519060200120141561124c57507364eac61a2dfda2c3fa04eed49aa33d021aec8838611250565b5060005b919050565b600080600080600061126a61035b888861058f565b90506000819050806001600160a01b031663feaf968c6040518163ffffffff1660e01b815260040160a06040518083038186803b1580156112aa57600080fd5b505afa1580156112be573d6000803e3d6000fd5b505050506040513d601f19601f820116820180604052508101906112e29190612503565b506040805163313ce56760e01b815290519198509296506001600160a01b038516935063313ce567926004808201935060209291829003018186803b15801561132a57600080fd5b505afa15801561133e573d6000803e3d6000fd5b505050506040513d601f19601f820116820180604052508101906113629190612552565b60ff16945061137083612036565b9550505050509250929050565b600580546001600160a01b0319166001600160a01b0392909216919091179055565b600060606000806113b08786611255565b90925090506000806113ca846109a58a600a87900a611f9b565b600654600954600a5460405163085e2c5b60e01b8152600190940194506001600160a01b039092169263085e2c5b9261140c928e928d92889291600401612722565b60006040518083038186803b15801561142457600080fd5b505afa158015611438573d6000803e3d6000fd5b505050506040513d6000823e601f3d908101601f191682016040526114609190810190612467565b95509150611482600a84900a6109a561147b85828d85611f9b565b8490611f9b565b600654600954600a5460405163085e2c5b60e01b81529394506001600160a01b039092169263085e2c5b926114c0928e928d92889291600401612722565b60006040518083038186803b1580156114d857600080fd5b505afa1580156114ec573d6000803e3d6000fd5b505050506040513d6000823e601f3d908101601f191682016040526115149190810190612467565b955091506000611525836064611f9b565b9050611531818a611ff4565b9050600f54811061155d5760405162461bcd60e51b81526004016115549061282f565b60405180910390fd5b601054811161157e5760405162461bcd60e51b815260040161155490612881565b606481101561167f576115918282611f9b565b915061159e826064611ff4565b600654600954600a5460405163085e2c5b60e01b81529395506001600160a01b039092169263085e2c5b926115dc928f928e92899291600401612722565b60006040518083038186803b1580156115f457600080fd5b505afa158015611608573d6000803e3d6000fd5b505050506040513d6000823e601f3d908101601f191682016040526116309190810190612467565b96509250611643896109a5856064611f9b565b9050600f5481106116665760405162461bcd60e51b8152600401611554906128b8565b8883111561167a5750945061169192505050565b61168b565b50945061169192505050565b50505050505b935093915050565b6116a1611de6565b6000546001600160a01b039081169116146116f1576040805162461bcd60e51b81526020600482018190526024820152600080516020612a24833981519152604482015290519081900360640190fd5b60405133904780156108fc02916000818181858888f1935050505015801561171d573d6000803e3d6000fd5b50565b611728611de6565b6000546001600160a01b03908116911614611778576040805162461bcd60e51b81526020600482018190526024820152600080516020612a24833981519152604482015290519081900360640190fd5b60408051600280825260608201909252600091816020015b6060815260200190600190039081611790579050509050604051806040016040528060038152602001620cae8d60eb1b815250816000815181106117d057fe5b6020026020010181905250604051806040016040528060068152602001650c5cdc1b1a5d60d21b8152508160018151811061180757fe5b602090810291909101015260048054604051631e806e8d60e31b81526001600160a01b039091169163f4037468916118419185910161276c565b60206040518083038186803b15801561185957600080fd5b505afa15801561186d573d6000803e3d6000fd5b505050506040513d601f19601f820116820180604052508101906118919190612169565b600280546001600160a01b03199081166001600160a01b0393841617918290556006805492909316911617905550565b6118c9611de6565b6000546001600160a01b03908116911614611919576040805162461bcd60e51b81526020600482018190526024820152600080516020612a24833981519152604482015290519081900360640190fd5b600f55565b6040805160168082526102e08201909252600091829160609185918491602082016102c0803683370190505090506000805b836001600160a01b031663c5a83c2b6040518163ffffffff1660e01b815260040160206040518083038186803b15801561198957600080fd5b505afa15801561199d573d6000803e3d6000fd5b505050506040513d601f19601f820116820180604052508101906119c191906123f5565b811015611afc57604051630cf35bdd60e41b8152611a5b906001600160a01b0386169063cf35bdd0906119f8908590600401612903565b60206040518083038186803b158015611a1057600080fd5b505afa158015611a24573d6000803e3d6000fd5b505050506040513d601f19601f82011682018060405250810190611a489190612169565b6001548b906001600160a01b031661139f565b935091508115611af457604051630cf35bdd60e41b81526001906001600160a01b0386169063cf35bdd090611a94908590600401612903565b60206040518083038186803b158015611aac57600080fd5b505afa158015611ac0573d6000803e3d6000fd5b505050506040513d601f19601f82011682018060405250810190611ae49190612169565b8496509650965050505050611b14565b600101611950565b5050600154600095506001600160a01b031693509150505b9250925092565b60065460085460405163095ea7b360e01b815260009289926001600160a01b038085169363095ea7b393611b559392169190600401612753565b602060405180830381600087803b158015611b6f57600080fd5b505af1158015611b83573d6000803e3d6000fd5b505050506040513d601f19601f82011682018060405250810190611ba791906122d6565b50600654604051637153a8af60e11b81526001600160a01b039091169063e2a7515e90611be2908b908b908b908b908b908b906004016126d5565b602060405180830381600087803b158015611bfc57600080fd5b505af1158015611c10573d6000803e3d6000fd5b505050506040513d601f19601f82011682018060405250810190611c3491906123f5565b60405190925033904780156108fc02916000818181858888f19350505050158015611c63573d6000803e3d6000fd5b50509695505050505050565b600680546001600160a01b0319166001600160a01b0392909216919091179055565b611c99611de6565b6000546001600160a01b03908116911614611ce9576040805162461bcd60e51b81526020600482018190526024820152600080516020612a24833981519152604482015290519081900360640190fd5b6001600160a01b038116611d2e5760405162461bcd60e51b81526004018080602001828103825260268152602001806129dd6026913960400191505060405180910390fd5b600080546040516001600160a01b03808516939216917f8be0079c531659141344cd1fd0a4f28419497f9722a3daafe3b4186f6b6457e091a3600080546001600160a01b0319166001600160a01b0392909216919091179055565b611d91611de6565b6000546001600160a01b03908116911614611de1576040805162461bcd60e51b81526020600482018190526024820152600080516020612a24833981519152604482015290519081900360640190fd5b601155565b3390565b606060008290506000816001600160a01b03166395d89b416040518163ffffffff1660e01b815260040160006040518083038186803b158015611e2c57600080fd5b505afa158015611e40573d6000803e3d6000fd5b505050506040513d6000823e601f3d908101601f19168201604052611e68919081019061236a565b949350505050565b606060008290506000815167ffffffffffffffff81118015611e9157600080fd5b506040519080825280601f01601f191660200182016040528015611ebc576020820181803683370190505b50905060005b8251811015611f93576041838281518110611ed957fe5b016020015160f81c10801590611f035750605a838281518110611ef857fe5b016020015160f81c11155b15611f5057828181518110611f1457fe5b602001015160f81c60f81b60f81c60200160f81b828281518110611f3457fe5b60200101906001600160f81b031916908160001a905350611f8b565b828181518110611f5c57fe5b602001015160f81c60f81b828281518110611f7357fe5b60200101906001600160f81b031916908160001a9053505b600101611ec2565b509392505050565b600082611faa57506000610614565b82820282848281611fb757fe5b0414610add5760405162461bcd60e51b8152600401808060200182810382526021815260200180612a036021913960400191505060405180910390fd5b6000610add83836040518060400160405280601a81526020017f536166654d6174683a206469766973696f6e206279207a65726f000000000000815250612091565b60008082121561208d576040805162461bcd60e51b815260206004820181905260248201527f53616665436173743a2076616c7565206d75737420626520706f736974697665604482015290519081900360640190fd5b5090565b6000818361211d5760405162461bcd60e51b81526004018080602001828103825283818151815260200191508051906020019080838360005b838110156120e25781810151838201526020016120ca565b50505050905090810190601f16801561210f5780820380516001836020036101000a031916815260200191505b509250505060405180910390fd5b50600083858161212957fe5b0495945050505050565b805169ffffffffffffffffffff8116811461125057600080fd5b60006020828403121561215e578081fd5b8135610add816129c7565b60006020828403121561217a578081fd5b8151610add816129c7565b60008060408385031215612197578081fd5b82356121a2816129c7565b915060208301356121b2816129c7565b809150509250929050565b60008060008060008060c087890312156121d5578182fd5b86356121e0816129c7565b95506020878101356121f1816129c7565b95506040880135945060608801359350608088013567ffffffffffffffff81111561221a578384fd5b8801601f81018a1361222a578384fd5b803561223d61223882612957565b612933565b81815283810190838501858402850186018e1015612259578788fd5b8794505b8385101561227b57803583526001949094019391850191850161225d565b50809650505050505060a087013590509295509295509295565b6000806000606084860312156122a9578283fd5b83356122b4816129c7565b92506020840135915060408401356122cb816129c7565b809150509250925092565b6000602082840312156122e7578081fd5b81518015158114610add578182fd5b600060208284031215612307578081fd5b813567ffffffffffffffff81111561231d578182fd5b8201601f8101841361232d578182fd5b803561233b61223882612975565b81815285602083850101111561234f578384fd5b81602084016020830137908101602001929092525092915050565b60006020828403121561237b578081fd5b815167ffffffffffffffff811115612391578182fd5b8201601f810184136123a1578182fd5b80516123af61223882612975565b8181528560208385010111156123c3578384fd5b6123d4826020830160208601612997565b95945050505050565b6000602082840312156123ee578081fd5b5035919050565b600060208284031215612406578081fd5b5051919050565b6000806040838503121561241f578182fd5b8235915060208301356121b2816129c7565b600080600060608486031215612445578081fd5b833592506020840135612457816129c7565b915060408401356122cb816129c7565b60008060408385031215612479578182fd5b8251915060208084015167ffffffffffffffff811115612497578283fd5b8401601f810186136124a7578283fd5b80516124b561223882612957565b81815283810190838501858402850186018a10156124d1578687fd5b8694505b838510156124f35780518352600194909401939185019185016124d5565b5080955050505050509250929050565b600080600080600060a0868803121561251a578283fd5b61252386612133565b945060208601519350604086015192506060860151915061254660808701612133565b90509295509295909350565b600060208284031215612563578081fd5b815160ff81168114610add578182fd5b6000815180845260208085019450808401835b838110156125a257815187529582019590820190600101612586565b509495945050505050565b600081518084526125c5816020860160208601612997565b601f01601f19169290920160200192915050565b600082516125eb818460208701612997565b9190910192915050565b60008351612607818460208801612997565b602d60f81b9083019081528351612625816001840160208801612997565b01600101949350505050565b670e8eae6c85acae8d60c31b815260080190565b670c2c2ecca5acae8d60c31b815260080190565b660c8c2d25acae8d60cb1b815260070190565b670eae6c8e85acae8d60c31b815260080190565b660eadcd25acae8d60cb1b815260070190565b670eae6c8c65acae8d60c31b815260080190565b6001600160a01b0391909116815260200190565b6001600160a01b0392831681529116602082015260400190565b6001600160a01b03878116825286166020820152604081018590526060810184905260c06080820181905260009061270f90830185612573565b90508260a0830152979650505050505050565b6001600160a01b03958616815293909416602084015260408301919091526060820152608081019190915260a00190565b6001600160a01b03929092168252602082015260400190565b6000602080830181845280855180835260408601915060408482028701019250838701855b828110156127bf57603f198886030184526127ad8583516125ad565b94509285019290850190600101612791565b5092979650505050505050565b901515815260200190565b91151582526001600160a01b0316602082015260400190565b83151581526001600160a01b03831660208201526060604082018190526000906123d490830184612573565b600060208252610add60208301846125ad565b60208082526032908201527f506f737369626c65206f7261636c65206572726f722c20746f6f206d7563682060408201527172657475726e206f6e2065786368616e676560701b606082015260800190565b6020808252601a908201527f45786368616e6765207261746520756e6661766f757261626c65000000000000604082015260600190565b6020808252602b908201527f45786368616e6765206572726f722c20746f6f206d7563682072657475726e2060408201526a6f6e2065786368616e676560a81b606082015260800190565b90815260200190565b600083825260406020830152611e686040830184612573565b918252602082015260400190565b60405181810167ffffffffffffffff8111828210171561294f57fe5b604052919050565b600067ffffffffffffffff82111561296b57fe5b5060209081020190565b600067ffffffffffffffff82111561298957fe5b50601f01601f191660200190565b60005b838110156129b257818101518382015260200161299a565b838111156129c1576000848401525b50505050565b6001600160a01b038116811461171d57600080fdfe4f776e61626c653a206e6577206f776e657220697320746865207a65726f2061646472657373536166654d6174683a206d756c7469706c69636174696f6e206f766572666c6f774f776e61626c653a2063616c6c6572206973206e6f7420746865206f776e6572a2646970667358221220d479e85ed4d8edea18951a25b2ea7419247ea49d9726fc7696ef084d24cf601164736f6c63430007060033",
  "immutableReferences": {},
  "source": "// SPDX-License-Identifier: MIT\r\npragma solidity ^0.7.6;\r\npragma abicoder v2;\r\n\r\nimport \"@openzeppelin/contracts/access/Ownable.sol\"; \r\nimport \"@openzeppelin/contracts/token/ERC20/IERC20.sol\";\r\nimport \"@openzeppelin/contracts/math/SafeMath.sol\";\r\nimport \"@openzeppelin/contracts/utils/SafeCast.sol\";\r\nimport \"./interfaces/IOneSplit.sol\";\r\nimport \"./interfaces/IUserVault.sol\";\r\nimport \"./interfaces/INameManager.sol\";\r\nimport \"./interfaces/IInvestmentManager.sol\";\r\nimport \"@chainlink/contracts/v0.7/interfaces/AggregatorV3Interface.sol\";\r\n\r\n  /**\r\n   * @title Manages exchanging tokens and ETH\r\n   * @notice part of the StakeYourName DApp\r\n   * @author Daniel Chilvers\r\n   **/\r\ncontract ExchangeManager is Ownable {\r\n\r\n    using SafeMath for uint256;\r\n\r\n    address internal zeroAddress = address(0);\r\n    address internal oneInch = zeroAddress;\r\n    ///@dev this is not the final NameManager address, update later\r\n    address payable internal nameManagerAddress = 0xbC86029dbC214939a3c5d383d0C245d5B75538C0;\r\n\r\n    INameManager nameManager;\r\n    IInvestmentManager investmentManager;\r\n    IOneSplit oneSplit;\r\n    //IOneSplitMulti oneSplitMulti;\r\n    //IOneSplitConsts oneSplitConsts;\r\n    IERC20 erc20;\r\n\r\n    uint256 MAX_INT = type(uint256).max;\r\n    uint256 exchangeParts = 20;\r\n    uint256 exchangeFlags = 0;\r\n    uint256 iterations = 5;\r\n    uint256 percentIncrease = 101;\r\n    uint256 ChainID;\r\n    uint256 fresh = 2 hours;\r\n    uint256 margin = 105;\r\n    uint256 slippage = 95;\r\n    uint256 estimateSlippage = 105;\r\n\r\n    constructor(uint _networkID) {\r\n        ChainID =_networkID;\r\n        nameManager = INameManager(nameManagerAddress);\r\n        oneSplit = IOneSplit(oneInch);\r\n    }\r\n\r\n    receive() external payable {}\r\n\r\n    function getPrice(address _from, address _to) public view returns(uint256 _price, uint256 _decimals){\r\n        uint256 _time;\r\n        int256 _intPrice;\r\n        address _address = getOracleAddress(assembleTokenEthPair(_from, _to));\r\n        AggregatorV3Interface _aggregator = AggregatorV3Interface(_address);\r\n        (,_intPrice,,_time,) = _aggregator.latestRoundData();\r\n        /// @dev review this, we need it but it's turning negative.\r\n        //require(block.timestamp - _time > fresh);\r\n        _decimals = _aggregator.decimals();\r\n        _price = SafeCast.toUint256(_intPrice);\r\n    }\r\n\r\n    function getOracleAddress(string memory _pair) public view returns(address) {\r\n        if (ChainID == 1){\r\n            string[] memory _name = new string[](3);\r\n            _name[0] = \"eth\";\r\n            _name[1] = \"data\";\r\n            _name[3] = _pair;\r\n            return nameManager.resolveName(_name);\r\n        } else {\r\n\r\n            //kovan doesn't implement the full ENS services, we need to manually enter the addresses\r\n            if(keccak256(abi.encodePacked(_pair)) == keccak256(abi.encodePacked(\"dai-eth\"))){\r\n                return 0x22B58f1EbEDfCA50feF632bD73368b2FdA96D541;\r\n            }\r\n            if(keccak256(abi.encodePacked(_pair)) == keccak256(abi.encodePacked(\"aave-eth\"))){\r\n                return 0xd04647B7CB523bb9f26730E9B6dE1174db7591Ad;\r\n            }\r\n            if(keccak256(abi.encodePacked(_pair)) == keccak256(abi.encodePacked(\"tusd-eth\"))){\r\n                return 0x7aeCF1c19661d12E962b69eBC8f6b2E63a55C660;\r\n            }\r\n            if(keccak256(abi.encodePacked(_pair)) == keccak256(abi.encodePacked(\"uni-eth\"))){\r\n                return 0x17756515f112429471F86f98D5052aCB6C47f6ee;\r\n            }\r\n            if(keccak256(abi.encodePacked(_pair)) == keccak256(abi.encodePacked(\"usdt-eth\"))){\r\n                return 0x0bF499444525a23E7Bb61997539725cA2e928138;\r\n            }\r\n            if(keccak256(abi.encodePacked(_pair)) == keccak256(abi.encodePacked(\"usdc-eth\"))){\r\n                return 0x64EaC61A2DFda2c3Fa04eED49AA33D021AeC8838;\r\n            }\r\n            return address(0);\r\n        }\r\n    }\r\n\r\n    function assembleTokenEthPair(address _from, address _to) public view returns(string memory){\r\n        string memory _fromSymbol;\r\n        string memory _toSymbol;\r\n        _fromSymbol = toLower(getTokenSymbol(_from));\r\n        if(_to == zeroAddress){\r\n            _toSymbol = \"eth\";\r\n        } else {\r\n            _toSymbol = toLower(getTokenSymbol(_to));\r\n        }\r\n        return string(abi.encodePacked(_fromSymbol,\"-\",_toSymbol));\r\n    }\r\n\r\n    function getTokenSymbol(address _asset) internal view returns (string memory){\r\n        IERC20 _erc20 = IERC20(_asset);\r\n        string memory _symbol = _erc20.symbol();\r\n        return _symbol;\r\n    }\r\n\r\n    function toLower(string memory str) internal pure returns (string memory) {\r\n\t\tbytes memory bStr = bytes(str);\r\n\t\tbytes memory bLower = new bytes(bStr.length);\r\n\t\tfor (uint i = 0; i < bStr.length; i++) {\r\n\t\t\t// Uppercase character...\r\n\t\t\tif ((uint8(bStr[i]) >= 65) && (uint8(bStr[i]) <= 90)) {\r\n\t\t\t\t// So we add 32 to make it lowercase\r\n\t\t\t\tbLower[i] = bytes1(uint8(bStr[i]) + 32);\r\n\t\t\t} else {\r\n\t\t\t\tbLower[i] = bStr[i];\r\n\t\t\t}\r\n\t\t}\r\n\t\treturn string(bLower);\r\n\t}\r\n\r\n    /// @dev use our NameManager to grab the 1Inch contract address\r\n    function get1InchAddress() public onlyOwner {\r\n        string[] memory _name = new string[](2);\r\n        _name[0] = \"eth\";\r\n        _name[1] = \"1split\";\r\n        oneInch = nameManager.resolveName(_name);\r\n        oneSplit = IOneSplit(oneInch);\r\n    }\r\n\r\n    function checkAvailiableFunds(uint256 _cost, address _vault) public view returns(bool _accept, address _token, uint256[] memory _distribution){\r\n        IUserVault _userVault = IUserVault(_vault);\r\n        uint256[] memory _distributionArray = new uint256[](22);\r\n        uint256 _price;\r\n        for (uint256 i; i < _userVault.countAssets(); i++){\r\n            (_price, _distributionArray) = getExchangePrice(_userVault.assets(i) , _cost, zeroAddress);\r\n            if(_price != 0){\r\n                return (true, _userVault.assets(i), _distributionArray);\r\n            }\r\n        }\r\n        return (false, zeroAddress, _distributionArray);\r\n    }\r\n\r\n    /// @dev estimate if the vault will have enough of any funds to complete the purshase\r\n    function estimateFunds(uint256 _cost, address _vault) public view returns(bool _accept, address _token){\r\n        IUserVault _userVault = IUserVault(_vault);\r\n        for (uint256 i; i < _userVault.countAssets(); i++){\r\n            (uint256 _oraclePrice, uint256 _decimals) = getPrice(_userVault.assets(i), zeroAddress );\r\n            uint256 _estimatedInput = _oraclePrice.mul(_cost);\r\n            _estimatedInput = _estimatedInput.mul(estimateSlippage);\r\n            _estimatedInput = _estimatedInput.div(100);\r\n            _estimatedInput = _estimatedInput.div(10**_decimals);\r\n            if (_estimatedInput < investmentManager.getInterest(_userVault.assets(i), _vault)){\r\n                return(true, _userVault.assets(i));\r\n            }\r\n        }\r\n        return(false,zeroAddress);\r\n    }\r\n\r\n    function estimateSpecificAssetFunds(uint256 _cost, address _vault, address _asset) public view returns(bool _accept){\r\n        IUserVault _userVault = IUserVault(_vault);\r\n        for (uint256 i; i < _userVault.countAssets(); i++){\r\n            if(_userVault.assets(i) == _asset){\r\n                (uint256 _oraclePrice, uint256 _decimals) = getPrice(_userVault.assets(i), zeroAddress );\r\n                uint256 _estimatedInput = _oraclePrice.mul(_cost);\r\n                _estimatedInput = (_estimatedInput.mul( estimateSlippage )).div(100);\r\n                _estimatedInput = _estimatedInput.div(10**_decimals);\r\n                if (_estimatedInput < investmentManager.getInterest(_userVault.assets(i), _vault)){\r\n                    return(true);\r\n                }\r\n            }\r\n        }\r\n        return(false);\r\n    }\r\n\r\n\r\n    /// @notice currently there's no option on 1inch to select an output value and calculate the input\r\n    /// @notice so we use chainlink to give us a good estimate, we can then adjust that value to seek\r\n    /// @notice the output value we want. Only allowing the value to creep a set amount to make sure\r\n    /// @notice we are getting a reasonable price.\r\n    function getExchangePrice(address _inputToken, uint256 _desiredOutput, address _outputToken) public view returns(uint256 _inputValue, uint256[] memory _distribution){\r\n        /// @dev grab a ballpark figure from the oracle\r\n        (uint256 _oraclePrice, uint256 _decimals) = getPrice(_inputToken, _outputToken);\r\n        uint256 _return;\r\n        uint256 _estimatedInput = (_desiredOutput.mul(10**_decimals)).div(_oraclePrice);\r\n        /// @dev adding 1 wei because with rounding we'll always be low otherwise\r\n        _estimatedInput = _estimatedInput + 1;\r\n        /// @dev use our ballpark figure to see what rate the exchange will give us\r\n        (_return, _distribution) = oneSplit.getExpectedReturn(_inputToken, _outputToken, _estimatedInput, exchangeParts, exchangeFlags);\r\n        \r\n        /// @dev now we know the exchanges exchange rate, calculate a better input value and try again\r\n        _estimatedInput = (_estimatedInput.mul((_desiredOutput.mul(10**_decimals)).div(_return))).div(10**_decimals);\r\n        (_return, _distribution) = oneSplit.getExpectedReturn(_inputToken, _outputToken, _estimatedInput, exchangeParts, exchangeFlags);\r\n\r\n        uint256 _difference = _return.mul(100);\r\n        _difference =  _difference.div(_desiredOutput);\r\n\r\n        //return (_estimatedInput, _distribution);\r\n        \r\n        require(_difference < margin, 'Possible oracle error, too much return on exchange');\r\n        require(_difference > slippage, 'Exchange rate unfavourable');\r\n        if (_difference < 100){\r\n            /// @dev we're not getting enough return, but it's close so lets try again.\r\n            _estimatedInput = _estimatedInput.mul(_difference);\r\n            _estimatedInput = _estimatedInput.div(100);\r\n            (_return, _distribution) = oneSplit.getExpectedReturn(_inputToken, _outputToken, _estimatedInput, exchangeParts, exchangeFlags);\r\n            _difference = (_return.mul(100)).div(_desiredOutput);\r\n            require(_difference < margin, 'Exchange error, too much return on exchange');\r\n            if (_return > _desiredOutput){\r\n                return (_estimatedInput, _distribution);\r\n            }\r\n            require(true, 'Exchange failed after second attempt');\r\n        } else {\r\n            /// @dev Goldilocks, not too much, not too little.\r\n            return (_estimatedInput, _distribution);\r\n        }\r\n    }\r\n\r\n    function swap(\r\n        address _fromToken,\r\n        address _destToken,\r\n        uint256 _amount,\r\n        uint256 _minReturn,\r\n        uint256[] memory _distribution,\r\n        uint256 _flags\r\n    )\r\n        external\r\n        payable\r\n        returns(uint256 _returnAmount) {\r\n            IERC20 _erc20 = IERC20(_fromToken);\r\n            _erc20.approve(address(oneSplit),MAX_INT);\r\n            _returnAmount = oneSplit.swap(_fromToken, _destToken, _amount, _minReturn, _distribution, _flags);\r\n            msg.sender.transfer(address(this).balance);\r\n        }\r\n\r\n    function updateExchangeParts(uint256 _newParts) external onlyOwner {\r\n        exchangeParts = _newParts;\r\n    }\r\n    function updateExchangeFlags(uint256 _newFlags) external onlyOwner {\r\n        exchangeFlags = _newFlags;\r\n    }\r\n    function updatePercentageIncrease(uint256 _newPercent) external onlyOwner {\r\n        percentIncrease = _newPercent;\r\n    }\r\n    function updateIterations(uint256 _newIterations) external onlyOwner {\r\n        iterations = _newIterations;\r\n    }\r\n    // this needs be to onlyOwner once testing done\r\n    function updateNameManagerAddress(address payable _nameManager) external {\r\n        nameManager = INameManager(_nameManager);\r\n    }\r\n    function updateInvestmentManagerAddress(address _investmentManager) external {\r\n        investmentManager = IInvestmentManager(_investmentManager);\r\n    }\r\n    function updateFresh(uint256 _fresh) external onlyOwner {\r\n        fresh = _fresh;\r\n    }\r\n    function updateMargin(uint256 _margin) external onlyOwner {\r\n        margin = _margin;\r\n    }\r\n    function updateSlippage(uint256 _slippage) external onlyOwner {\r\n        slippage = _slippage;\r\n    }   \r\n    function updateEstimateSlippage(uint256 _estimateSlippage) external onlyOwner {\r\n        estimateSlippage = _estimateSlippage;\r\n    }\r\n    function retrieveETH() external onlyOwner {\r\n        msg.sender.transfer(address(this).balance);\r\n    }\r\n    // this needs be to onlyOwner once testing done\r\n    function setOneSplitAddress(address _oneSplit) external {\r\n        oneSplit = IOneSplit(_oneSplit);\r\n    }\r\n\r\n    /// @dev for quick testing, later use truffle to pass this in\r\n    function updateChainID(uint256 _chainID) external onlyOwner {\r\n        ChainID = _chainID;\r\n    }\r\n}",
  "sourcePath": "C:/Users/anyth/Documents/GitHub/StakeYourName/contracts/ExchangeManager.sol",
  "compiler": {
    "name": "solc",
    "version": "0.7.6+commit.7338295f.Emscripten.clang"
  },
  "schemaVersion": "3.3.3",
  "updatedAt": "2021-02-02T16:46:05.787Z",
  "devdoc": {
    "author": "Daniel Chilvers*",
    "kind": "dev",
    "methods": {
      "estimateFunds(uint256,address)": {
        "details": "estimate if the vault will have enough of any funds to complete the purshase"
      },
      "get1InchAddress()": {
        "details": "use our NameManager to grab the 1Inch contract address"
      },
      "owner()": {
        "details": "Returns the address of the current owner."
      },
      "renounceOwnership()": {
        "details": "Leaves the contract without owner. It will not be possible to call `onlyOwner` functions anymore. Can only be called by the current owner. NOTE: Renouncing ownership will leave the contract without an owner, thereby removing any functionality that is only available to the owner."
      },
      "transferOwnership(address)": {
        "details": "Transfers ownership of the contract to a new account (`newOwner`). Can only be called by the current owner."
      },
      "updateChainID(uint256)": {
        "details": "for quick testing, later use truffle to pass this in"
      }
    },
    "stateVariables": {
      "nameManagerAddress": {
        "details": "this is not the final NameManager address, update later"
      }
    },
    "title": "Manages exchanging tokens and ETH",
    "version": 1
  },
  "userdoc": {
    "kind": "user",
    "methods": {
      "getExchangePrice(address,uint256,address)": {
        "notice": "currently there's no option on 1inch to select an output value and calculate the inputso we use chainlink to give us a good estimate, we can then adjust that value to seekthe output value we want. Only allowing the value to creep a set amount to make surewe are getting a reasonable price."
      }
    },
    "notice": "part of the StakeYourName DApp",
    "version": 1
  }
}