{
  "contractName": "InvestmentManager",
  "abi": [
    {
      "inputs": [
        {
          "internalType": "uint256",
          "name": "_networkID",
          "type": "uint256"
        }
      ],
      "stateMutability": "nonpayable",
      "type": "constructor"
    },
    {
      "anonymous": false,
      "inputs": [
        {
          "indexed": true,
          "internalType": "address",
          "name": "previousOwner",
          "type": "address"
        },
        {
          "indexed": true,
          "internalType": "address",
          "name": "newOwner",
          "type": "address"
        }
      ],
      "name": "OwnershipTransferred",
      "type": "event"
    },
    {
      "anonymous": false,
      "inputs": [
        {
          "indexed": false,
          "internalType": "address",
          "name": "_address",
          "type": "address"
        },
        {
          "indexed": false,
          "internalType": "uint256",
          "name": "state",
          "type": "uint256"
        }
      ],
      "name": "debug",
      "type": "event"
    },
    {
      "inputs": [
        {
          "internalType": "uint256",
          "name": "",
          "type": "uint256"
        }
      ],
      "name": "aTokens",
      "outputs": [
        {
          "internalType": "string",
          "name": "symbol",
          "type": "string"
        },
        {
          "internalType": "address",
          "name": "tokenAddress",
          "type": "address"
        }
      ],
      "stateMutability": "view",
      "type": "function"
    },
    {
      "inputs": [
        {
          "internalType": "uint256",
          "name": "",
          "type": "uint256"
        }
      ],
      "name": "assetList",
      "outputs": [
        {
          "internalType": "address",
          "name": "",
          "type": "address"
        }
      ],
      "stateMutability": "view",
      "type": "function"
    },
    {
      "inputs": [],
      "name": "owner",
      "outputs": [
        {
          "internalType": "address",
          "name": "",
          "type": "address"
        }
      ],
      "stateMutability": "view",
      "type": "function"
    },
    {
      "inputs": [],
      "name": "renounceOwnership",
      "outputs": [],
      "stateMutability": "nonpayable",
      "type": "function"
    },
    {
      "inputs": [
        {
          "internalType": "address",
          "name": "newOwner",
          "type": "address"
        }
      ],
      "name": "transferOwnership",
      "outputs": [],
      "stateMutability": "nonpayable",
      "type": "function"
    },
    {
      "inputs": [
        {
          "internalType": "uint256",
          "name": "",
          "type": "uint256"
        }
      ],
      "name": "userList",
      "outputs": [
        {
          "internalType": "address",
          "name": "",
          "type": "address"
        }
      ],
      "stateMutability": "view",
      "type": "function"
    },
    {
      "inputs": [
        {
          "internalType": "address",
          "name": "_asset",
          "type": "address"
        }
      ],
      "name": "approveLendingPool",
      "outputs": [],
      "stateMutability": "nonpayable",
      "type": "function"
    },
    {
      "inputs": [
        {
          "internalType": "address",
          "name": "_asset",
          "type": "address"
        }
      ],
      "name": "userBalance",
      "outputs": [
        {
          "internalType": "uint128",
          "name": "",
          "type": "uint128"
        }
      ],
      "stateMutability": "view",
      "type": "function"
    },
    {
      "inputs": [
        {
          "internalType": "address",
          "name": "_asset",
          "type": "address"
        }
      ],
      "name": "userInterest",
      "outputs": [
        {
          "internalType": "uint128",
          "name": "",
          "type": "uint128"
        }
      ],
      "stateMutability": "view",
      "type": "function"
    },
    {
      "inputs": [
        {
          "internalType": "address",
          "name": "_asset",
          "type": "address"
        }
      ],
      "name": "getAToken",
      "outputs": [
        {
          "internalType": "address",
          "name": "",
          "type": "address"
        }
      ],
      "stateMutability": "view",
      "type": "function"
    },
    {
      "inputs": [
        {
          "internalType": "address",
          "name": "_asset",
          "type": "address"
        }
      ],
      "name": "getATokenBalance",
      "outputs": [
        {
          "internalType": "uint256",
          "name": "",
          "type": "uint256"
        }
      ],
      "stateMutability": "nonpayable",
      "type": "function"
    },
    {
      "inputs": [
        {
          "internalType": "address",
          "name": "_asset",
          "type": "address"
        }
      ],
      "name": "calculateInterest",
      "outputs": [],
      "stateMutability": "nonpayable",
      "type": "function"
    },
    {
      "inputs": [
        {
          "internalType": "address",
          "name": "_asset",
          "type": "address"
        },
        {
          "internalType": "uint256",
          "name": "_amount",
          "type": "uint256"
        }
      ],
      "name": "depositTest",
      "outputs": [],
      "stateMutability": "nonpayable",
      "type": "function"
    },
    {
      "inputs": [
        {
          "internalType": "address",
          "name": "_asset",
          "type": "address"
        },
        {
          "internalType": "uint256",
          "name": "_amount",
          "type": "uint256"
        }
      ],
      "name": "withdrawTest",
      "outputs": [],
      "stateMutability": "nonpayable",
      "type": "function"
    },
    {
      "inputs": [
        {
          "internalType": "address",
          "name": "_asset",
          "type": "address"
        },
        {
          "internalType": "uint128",
          "name": "_amount",
          "type": "uint128"
        }
      ],
      "name": "approveDeposit",
      "outputs": [],
      "stateMutability": "nonpayable",
      "type": "function"
    },
    {
      "inputs": [
        {
          "internalType": "address",
          "name": "_asset",
          "type": "address"
        }
      ],
      "name": "checkAssetList",
      "outputs": [
        {
          "internalType": "bool",
          "name": "",
          "type": "bool"
        }
      ],
      "stateMutability": "view",
      "type": "function"
    },
    {
      "inputs": [
        {
          "internalType": "address",
          "name": "_asset",
          "type": "address"
        }
      ],
      "name": "addAsset",
      "outputs": [],
      "stateMutability": "nonpayable",
      "type": "function"
    },
    {
      "inputs": [
        {
          "internalType": "address",
          "name": "_asset",
          "type": "address"
        }
      ],
      "name": "checkUserList",
      "outputs": [
        {
          "internalType": "bool",
          "name": "",
          "type": "bool"
        }
      ],
      "stateMutability": "view",
      "type": "function"
    },
    {
      "inputs": [
        {
          "internalType": "address",
          "name": "_asset",
          "type": "address"
        }
      ],
      "name": "addUser",
      "outputs": [],
      "stateMutability": "nonpayable",
      "type": "function"
    },
    {
      "inputs": [
        {
          "internalType": "address",
          "name": "_asset",
          "type": "address"
        }
      ],
      "name": "checkAllowance",
      "outputs": [
        {
          "internalType": "uint256",
          "name": "",
          "type": "uint256"
        }
      ],
      "stateMutability": "nonpayable",
      "type": "function"
    },
    {
      "inputs": [
        {
          "internalType": "address",
          "name": "_asset",
          "type": "address"
        },
        {
          "internalType": "uint128",
          "name": "_amount",
          "type": "uint128"
        }
      ],
      "name": "deposit",
      "outputs": [],
      "stateMutability": "nonpayable",
      "type": "function"
    },
    {
      "inputs": [
        {
          "internalType": "address",
          "name": "_asset",
          "type": "address"
        },
        {
          "internalType": "uint256",
          "name": "_amount",
          "type": "uint256"
        }
      ],
      "name": "approveATokenBurn",
      "outputs": [],
      "stateMutability": "nonpayable",
      "type": "function"
    },
    {
      "inputs": [
        {
          "internalType": "address",
          "name": "_asset",
          "type": "address"
        },
        {
          "internalType": "uint128",
          "name": "_amount",
          "type": "uint128"
        }
      ],
      "name": "withdraw",
      "outputs": [],
      "stateMutability": "nonpayable",
      "type": "function"
    },
    {
      "inputs": [
        {
          "internalType": "address",
          "name": "_asset",
          "type": "address"
        },
        {
          "internalType": "uint128",
          "name": "_amount",
          "type": "uint128"
        }
      ],
      "name": "convertInterestToBalance",
      "outputs": [],
      "stateMutability": "nonpayable",
      "type": "function"
    },
    {
      "inputs": [
        {
          "internalType": "address",
          "name": "_asset",
          "type": "address"
        }
      ],
      "name": "userTotal",
      "outputs": [
        {
          "internalType": "uint128",
          "name": "",
          "type": "uint128"
        }
      ],
      "stateMutability": "view",
      "type": "function"
    },
    {
      "inputs": [],
      "name": "withdrawAll",
      "outputs": [],
      "stateMutability": "nonpayable",
      "type": "function"
    },
    {
      "inputs": [
        {
          "internalType": "uint16",
          "name": "_code",
          "type": "uint16"
        }
      ],
      "name": "updateReferalCode",
      "outputs": [],
      "stateMutability": "nonpayable",
      "type": "function"
    },
    {
      "inputs": [],
      "name": "checkLendingPoolAddress",
      "outputs": [
        {
          "internalType": "address",
          "name": "",
          "type": "address"
        }
      ],
      "stateMutability": "view",
      "type": "function"
    },
    {
      "inputs": [],
      "name": "checkLendingPoolAddressProviderAddress",
      "outputs": [
        {
          "internalType": "address",
          "name": "",
          "type": "address"
        }
      ],
      "stateMutability": "view",
      "type": "function"
    },
    {
      "inputs": [],
      "name": "checkProtocolDataProvider",
      "outputs": [
        {
          "internalType": "address",
          "name": "",
          "type": "address"
        }
      ],
      "stateMutability": "view",
      "type": "function"
    },
    {
      "inputs": [
        {
          "internalType": "bytes1",
          "name": "_bytes",
          "type": "bytes1"
        }
      ],
      "name": "updateProtocolDataProvider",
      "outputs": [
        {
          "internalType": "address",
          "name": "",
          "type": "address"
        },
        {
          "internalType": "bytes32",
          "name": "",
          "type": "bytes32"
        }
      ],
      "stateMutability": "nonpayable",
      "type": "function"
    },
    {
      "inputs": [
        {
          "internalType": "address",
          "name": "_asset",
          "type": "address"
        }
      ],
      "name": "checkaTokenAddress",
      "outputs": [
        {
          "internalType": "address",
          "name": "",
          "type": "address"
        }
      ],
      "stateMutability": "view",
      "type": "function"
    },
    {
      "inputs": [],
      "name": "updateLendingPoolAddress",
      "outputs": [
        {
          "internalType": "address",
          "name": "",
          "type": "address"
        }
      ],
      "stateMutability": "nonpayable",
      "type": "function"
    }
  ],
  "bytecode": "0x60806040526000600160006101000a81548173ffffffffffffffffffffffffffffffffffffffff021916908373ffffffffffffffffffffffffffffffffffffffff160217905550600160009054906101000a900473ffffffffffffffffffffffffffffffffffffffff16600260006101000a81548173ffffffffffffffffffffffffffffffffffffffff021916908373ffffffffffffffffffffffffffffffffffffffff1602179055507388757f2f99175387ab4c6a4b3067c77a695b0349600360006101000a81548173ffffffffffffffffffffffffffffffffffffffff021916908373ffffffffffffffffffffffffffffffffffffffff16021790555073b53c1a33016b2dc2ff3653530bff1848a515c8c5600460006101000a81548173ffffffffffffffffffffffffffffffffffffffff021916908373ffffffffffffffffffffffffffffffffffffffff160217905550600160009054906101000a900473ffffffffffffffffffffffffffffffffffffffff16600560006101000a81548173ffffffffffffffffffffffffffffffffffffffff021916908373ffffffffffffffffffffffffffffffffffffffff160217905550600160009054906101000a900473ffffffffffffffffffffffffffffffffffffffff16600660006101000a81548173ffffffffffffffffffffffffffffffffffffffff021916908373ffffffffffffffffffffffffffffffffffffffff160217905550736b175474e89094c44da98b954eedeac495271d0f600760006101000a81548173ffffffffffffffffffffffffffffffffffffffff021916908373ffffffffffffffffffffffffffffffffffffffff16021790555073a0b86991c6218b36c1d19d4a2e9eb0ce3606eb48600860006101000a81548173ffffffffffffffffffffffffffffffffffffffff021916908373ffffffffffffffffffffffffffffffffffffffff1602179055506000600860146101000a81548161ffff021916908361ffff160217905550348015620002ee57600080fd5b5060405162005da938038062005da9833981810160405281019062000314919062000763565b6000620003266200070160201b60201c565b9050806000806101000a81548173ffffffffffffffffffffffffffffffffffffffff021916908373ffffffffffffffffffffffffffffffffffffffff1602179055508073ffffffffffffffffffffffffffffffffffffffff16600073ffffffffffffffffffffffffffffffffffffffff167f8be0079c531659141344cd1fd0a4f28419497f9722a3daafe3b4186f6b6457e060405160405180910390a35060018114156200048c57600460009054906101000a900473ffffffffffffffffffffffffffffffffffffffff16600560006101000a81548173ffffffffffffffffffffffffffffffffffffffff021916908373ffffffffffffffffffffffffffffffffffffffff16021790555073057835ad21a177dbdd3090bb1cae03eacf78fc6d601060006101000a81548173ffffffffffffffffffffffffffffffffffffffff021916908373ffffffffffffffffffffffffffffffffffffffff16021790555062000550565b602a8114156200054f57600360009054906101000a900473ffffffffffffffffffffffffffffffffffffffff16600560006101000a81548173ffffffffffffffffffffffffffffffffffffffff021916908373ffffffffffffffffffffffffffffffffffffffff160217905550733c73a5e5785cac854d468f727c606c07488a29d6601060006101000a81548173ffffffffffffffffffffffffffffffffffffffff021916908373ffffffffffffffffffffffffffffffffffffffff1602179055505b5b600560009054906101000a900473ffffffffffffffffffffffffffffffffffffffff16600f60006101000a81548173ffffffffffffffffffffffffffffffffffffffff021916908373ffffffffffffffffffffffffffffffffffffffff160217905550600f60009054906101000a900473ffffffffffffffffffffffffffffffffffffffff1673ffffffffffffffffffffffffffffffffffffffff16630261bf8b6040518163ffffffff1660e01b815260040160206040518083038186803b1580156200061c57600080fd5b505afa15801562000631573d6000803e3d6000fd5b505050506040513d601f19601f8201168201806040525081019062000657919062000737565b600260006101000a81548173ffffffffffffffffffffffffffffffffffffffff021916908373ffffffffffffffffffffffffffffffffffffffff160217905550600260009054906101000a900473ffffffffffffffffffffffffffffffffffffffff16600e60006101000a81548173ffffffffffffffffffffffffffffffffffffffff021916908373ffffffffffffffffffffffffffffffffffffffff1602179055505062000801565b600033905090565b6000815190506200071a81620007cd565b92915050565b6000815190506200073181620007e7565b92915050565b6000602082840312156200074a57600080fd5b60006200075a8482850162000709565b91505092915050565b6000602082840312156200077657600080fd5b6000620007868482850162000720565b91505092915050565b60006200079c82620007a3565b9050919050565b600073ffffffffffffffffffffffffffffffffffffffff82169050919050565b6000819050919050565b620007d8816200078f565b8114620007e457600080fd5b50565b620007f281620007c3565b8114620007fe57600080fd5b50565b61559880620008116000396000f3fe608060405234801561001057600080fd5b50600436106101fb5760003560e01c8063752850c11161011a578063a94352a3116100ad578063d53f5c431161007c578063d53f5c43146105c0578063d68076c3146105f0578063e11932cf14610620578063e601cf441461063c578063f2fde38b1461066c576101fb565b8063a94352a31461054c578063aaf298a414610568578063b3fb656414610586578063d15c89e8146105a2576101fb565b80638edf3e2a116100e95780638edf3e2a1461048c57806390df87e8146104bc5780639f4216e8146104ec578063a0b4b3011461051c576101fb565b8063752850c114610417578063853828b6146104335780638b66d5da1461043d5780638da5cb5b1461046e576101fb565b80633201e84911610192578063421b2d8b11610161578063421b2d8b146103a55780636c0de446146103c1578063715018a6146103dd578063732a52ee146103e7576101fb565b80633201e8491461031e578063324e4b571461033a578063341a30d71461036b57806339320f4414610387576101fb565b806317cad724116101ce57806317cad724146102985780631a197a26146102b65780631f880751146102e6578063298410e514610302576101fb565b80630103c92b146102005780630712f6b31461023057806308fab1671461026057806310af51911461027c575b600080fd5b61021a60048036038101906102159190614c92565b610688565b60405161022791906152e1565b60405180910390f35b61024a60048036038101906102459190614c92565b61072d565b60405161025791906152fc565b60405180910390f35b61027a60048036038101906102759190614d33565b61082a565b005b61029660048036038101906102919190614dfd565b6114f2565b005b6102a06115da565b6040516102ad9190614fed565b60405180910390f35b6102d060048036038101906102cb9190614c92565b61186b565b6040516102dd91906152fc565b60405180910390f35b61030060048036038101906102fb9190614d6f565b611962565b005b61031c60048036038101906103179190614c92565b611b97565b005b61033860048036038101906103339190614d33565b611cce565b005b610354600480360381019061034f9190614e26565b611e33565b604051610362929190615271565b60405180910390f35b61038560048036038101906103809190614d33565b611f1f565b005b61038f6129df565b60405161039c9190614fed565b60405180910390f35b6103bf60048036038101906103ba9190614c92565b612a09565b005b6103db60048036038101906103d69190614d6f565b612b77565b005b6103e5612cf5565b005b61040160048036038101906103fc9190614c92565b612e7b565b60405161040e9190614fed565b60405180910390f35b610431600480360381019061042c9190614d6f565b612f39565b005b61043b613105565b005b61045760048036038101906104529190614dd4565b61320d565b60405161046592919061509f565b60405180910390f35b61047661334d565b6040516104839190614fed565b60405180910390f35b6104a660048036038101906104a19190614c92565b613376565b6040516104b39190614fed565b60405180910390f35b6104d660048036038101906104d19190614c92565b613434565b6040516104e3919061523b565b60405180910390f35b61050660048036038101906105019190614e26565b613552565b6040516105139190614fed565b60405180910390f35b61053660048036038101906105319190614e26565b613591565b6040516105439190614fed565b60405180910390f35b61056660048036038101906105619190614c92565b6135d0565b005b610570613706565b60405161057d9190614fed565b60405180910390f35b6105a0600480360381019061059b9190614d33565b613730565b005b6105aa613beb565b6040516105b79190614fed565b60405180910390f35b6105da60048036038101906105d59190614c92565b613c15565b6040516105e7919061523b565b60405180910390f35b61060a60048036038101906106059190614c92565b613cb3565b60405161061791906152e1565b60405180910390f35b61063a60048036038101906106359190614c92565b613d58565b005b61065660048036038101906106519190614c92565b6143dc565b60405161066391906152e1565b60405180910390f35b61068660048036038101906106819190614c92565b614525565b005b6000600960003373ffffffffffffffffffffffffffffffffffffffff1673ffffffffffffffffffffffffffffffffffffffff16815260200190815260200160002060000160008373ffffffffffffffffffffffffffffffffffffffff1673ffffffffffffffffffffffffffffffffffffffff16815260200190815260200160002060009054906101000a90046fffffffffffffffffffffffffffffffff169050919050565b600061073882612e7b565b601160006101000a81548173ffffffffffffffffffffffffffffffffffffffff021916908373ffffffffffffffffffffffffffffffffffffffff160217905550601160009054906101000a900473ffffffffffffffffffffffffffffffffffffffff1673ffffffffffffffffffffffffffffffffffffffff166370a08231306040518263ffffffff1660e01b81526004016107d39190614fed565b60206040518083038186803b1580156107eb57600080fd5b505afa1580156107ff573d6000803e3d6000fd5b505050506040513d601f19601f820116820180604052508101906108239190614e4f565b9050919050565b600073ffffffffffffffffffffffffffffffffffffffff168273ffffffffffffffffffffffffffffffffffffffff16141561086457600080fd5b6000816fffffffffffffffffffffffffffffffff161161088357600080fd5b61088c82613d58565b60006109ce600960003373ffffffffffffffffffffffffffffffffffffffff1673ffffffffffffffffffffffffffffffffffffffff16815260200190815260200160002060000160008573ffffffffffffffffffffffffffffffffffffffff1673ffffffffffffffffffffffffffffffffffffffff16815260200190815260200160002060009054906101000a90046fffffffffffffffffffffffffffffffff16600960003373ffffffffffffffffffffffffffffffffffffffff1673ffffffffffffffffffffffffffffffffffffffff16815260200190815260200160002060010160008673ffffffffffffffffffffffffffffffffffffffff1673ffffffffffffffffffffffffffffffffffffffff16815260200190815260200160002060009054906101000a90046fffffffffffffffffffffffffffffffff16614730565b90506000806000836fffffffffffffffffffffffffffffffff16856fffffffffffffffffffffffffffffffff161115610cb357600960003373ffffffffffffffffffffffffffffffffffffffff1673ffffffffffffffffffffffffffffffffffffffff16815260200190815260200160002060000160008773ffffffffffffffffffffffffffffffffffffffff1673ffffffffffffffffffffffffffffffffffffffff16815260200190815260200160002060009054906101000a90046fffffffffffffffffffffffffffffffff169150600960003373ffffffffffffffffffffffffffffffffffffffff1673ffffffffffffffffffffffffffffffffffffffff16815260200190815260200160002060010160008773ffffffffffffffffffffffffffffffffffffffff1673ffffffffffffffffffffffffffffffffffffffff16815260200190815260200160002060009054906101000a90046fffffffffffffffffffffffffffffffff1690506000600960003373ffffffffffffffffffffffffffffffffffffffff1673ffffffffffffffffffffffffffffffffffffffff16815260200190815260200160002060000160008873ffffffffffffffffffffffffffffffffffffffff1673ffffffffffffffffffffffffffffffffffffffff16815260200190815260200160002060006101000a8154816fffffffffffffffffffffffffffffffff02191690836fffffffffffffffffffffffffffffffff1602179055506000600960003373ffffffffffffffffffffffffffffffffffffffff1673ffffffffffffffffffffffffffffffffffffffff16815260200190815260200160002060010160008873ffffffffffffffffffffffffffffffffffffffff1673ffffffffffffffffffffffffffffffffffffffff16815260200190815260200160002060006101000a8154816fffffffffffffffffffffffffffffffff02191690836fffffffffffffffffffffffffffffffff1602179055508392506112de565b600960003373ffffffffffffffffffffffffffffffffffffffff1673ffffffffffffffffffffffffffffffffffffffff16815260200190815260200160002060000160008773ffffffffffffffffffffffffffffffffffffffff1673ffffffffffffffffffffffffffffffffffffffff16815260200190815260200160002060009054906101000a90046fffffffffffffffffffffffffffffffff166fffffffffffffffffffffffffffffffff16856fffffffffffffffffffffffffffffffff16111561117c57600960003373ffffffffffffffffffffffffffffffffffffffff1673ffffffffffffffffffffffffffffffffffffffff16815260200190815260200160002060000160008773ffffffffffffffffffffffffffffffffffffffff1673ffffffffffffffffffffffffffffffffffffffff16815260200190815260200160002060009054906101000a90046fffffffffffffffffffffffffffffffff169150610ebd85600960003373ffffffffffffffffffffffffffffffffffffffff1673ffffffffffffffffffffffffffffffffffffffff16815260200190815260200160002060000160008973ffffffffffffffffffffffffffffffffffffffff1673ffffffffffffffffffffffffffffffffffffffff16815260200190815260200160002060009054906101000a90046fffffffffffffffffffffffffffffffff16614779565b9050611008600960003373ffffffffffffffffffffffffffffffffffffffff1673ffffffffffffffffffffffffffffffffffffffff16815260200190815260200160002060010160008873ffffffffffffffffffffffffffffffffffffffff1673ffffffffffffffffffffffffffffffffffffffff16815260200190815260200160002060009054906101000a90046fffffffffffffffffffffffffffffffff1661100387600960003373ffffffffffffffffffffffffffffffffffffffff1673ffffffffffffffffffffffffffffffffffffffff16815260200190815260200160002060000160008b73ffffffffffffffffffffffffffffffffffffffff1673ffffffffffffffffffffffffffffffffffffffff16815260200190815260200160002060009054906101000a90046fffffffffffffffffffffffffffffffff16614779565b614779565b600960003373ffffffffffffffffffffffffffffffffffffffff1673ffffffffffffffffffffffffffffffffffffffff16815260200190815260200160002060010160008873ffffffffffffffffffffffffffffffffffffffff1673ffffffffffffffffffffffffffffffffffffffff16815260200190815260200160002060006101000a8154816fffffffffffffffffffffffffffffffff02191690836fffffffffffffffffffffffffffffffff1602179055506000600960003373ffffffffffffffffffffffffffffffffffffffff1673ffffffffffffffffffffffffffffffffffffffff16815260200190815260200160002060000160008873ffffffffffffffffffffffffffffffffffffffff1673ffffffffffffffffffffffffffffffffffffffff16815260200190815260200160002060006101000a8154816fffffffffffffffffffffffffffffffff02191690836fffffffffffffffffffffffffffffffff1602179055508492506112dd565b849150611224600960003373ffffffffffffffffffffffffffffffffffffffff1673ffffffffffffffffffffffffffffffffffffffff16815260200190815260200160002060000160008873ffffffffffffffffffffffffffffffffffffffff1673ffffffffffffffffffffffffffffffffffffffff16815260200190815260200160002060009054906101000a90046fffffffffffffffffffffffffffffffff1686614779565b600960003373ffffffffffffffffffffffffffffffffffffffff1673ffffffffffffffffffffffffffffffffffffffff16815260200190815260200160002060000160008873ffffffffffffffffffffffffffffffffffffffff1673ffffffffffffffffffffffffffffffffffffffff16815260200190815260200160002060006101000a8154816fffffffffffffffffffffffffffffffff02191690836fffffffffffffffffffffffffffffffff1602179055508492505b5b600e60009054906101000a900473ffffffffffffffffffffffffffffffffffffffff1673ffffffffffffffffffffffffffffffffffffffff166369328dec8785336040518463ffffffff1660e01b815260040161133d9392919061511a565b602060405180830381600087803b15801561135757600080fd5b505af115801561136b573d6000803e3d6000fd5b505050506040513d601f19601f8201168201806040525081019061138f9190614e4f565b506113f7826fffffffffffffffffffffffffffffffff16600a60008973ffffffffffffffffffffffffffffffffffffffff1673ffffffffffffffffffffffffffffffffffffffff168152602001908152602001600020600001546147c290919063ffffffff16565b600a60008873ffffffffffffffffffffffffffffffffffffffff1673ffffffffffffffffffffffffffffffffffffffff168152602001908152602001600020600001819055506114a4816fffffffffffffffffffffffffffffffff16600a60008973ffffffffffffffffffffffffffffffffffffffff1673ffffffffffffffffffffffffffffffffffffffff168152602001908152602001600020600101546147c290919063ffffffff16565b600a60008873ffffffffffffffffffffffffffffffffffffffff1673ffffffffffffffffffffffffffffffffffffffff16815260200190815260200160002060010181905550505050505050565b6114fa61480c565b73ffffffffffffffffffffffffffffffffffffffff1660008054906101000a900473ffffffffffffffffffffffffffffffffffffffff1673ffffffffffffffffffffffffffffffffffffffff16146115ba576040517f08c379a00000000000000000000000000000000000000000000000000000000081526004018080602001828103825260208152602001807f4f776e61626c653a2063616c6c6572206973206e6f7420746865206f776e657281525060200191505060405180910390fd5b80600860146101000a81548161ffff021916908361ffff16021790555050565b60006115e461480c565b73ffffffffffffffffffffffffffffffffffffffff1660008054906101000a900473ffffffffffffffffffffffffffffffffffffffff1673ffffffffffffffffffffffffffffffffffffffff16146116a4576040517f08c379a00000000000000000000000000000000000000000000000000000000081526004018080602001828103825260208152602001807f4f776e61626c653a2063616c6c6572206973206e6f7420746865206f776e657281525060200191505060405180910390fd5b600f60009054906101000a900473ffffffffffffffffffffffffffffffffffffffff1673ffffffffffffffffffffffffffffffffffffffff16630261bf8b6040518163ffffffff1660e01b815260040160206040518083038186803b15801561170c57600080fd5b505afa158015611720573d6000803e3d6000fd5b505050506040513d601f19601f820116820180604052508101906117449190614cbb565b600260006101000a81548173ffffffffffffffffffffffffffffffffffffffff021916908373ffffffffffffffffffffffffffffffffffffffff160217905550600260009054906101000a900473ffffffffffffffffffffffffffffffffffffffff16600e60006101000a81548173ffffffffffffffffffffffffffffffffffffffff021916908373ffffffffffffffffffffffffffffffffffffffff1602179055507f5e425538c7e29a3d46eeeb3adb5e33e85e1548fb34404f88df642c95e2e0f9b7600260009054906101000a900473ffffffffffffffffffffffffffffffffffffffff16600a60405161183b9291906150c8565b60405180910390a1600260009054906101000a900473ffffffffffffffffffffffffffffffffffffffff16905090565b600081601160006101000a81548173ffffffffffffffffffffffffffffffffffffffff021916908373ffffffffffffffffffffffffffffffffffffffff160217905550601160009054906101000a900473ffffffffffffffffffffffffffffffffffffffff1673ffffffffffffffffffffffffffffffffffffffff1663dd62ed3e33306040518363ffffffff1660e01b815260040161190b929190615008565b60206040518083038186803b15801561192357600080fd5b505afa158015611937573d6000803e3d6000fd5b505050506040513d601f19601f8201168201806040525081019061195b9190614e4f565b9050919050565b81601160006101000a81548173ffffffffffffffffffffffffffffffffffffffff021916908373ffffffffffffffffffffffffffffffffffffffff160217905550601160009054906101000a900473ffffffffffffffffffffffffffffffffffffffff1673ffffffffffffffffffffffffffffffffffffffff166323b872dd3330846040518463ffffffff1660e01b8152600401611a0293929190615068565b602060405180830381600087803b158015611a1c57600080fd5b505af1158015611a30573d6000803e3d6000fd5b505050506040513d601f19601f82011682018060405250810190611a549190614dab565b50600e60009054906101000a900473ffffffffffffffffffffffffffffffffffffffff1673ffffffffffffffffffffffffffffffffffffffff1663e8eda9df838330600860149054906101000a900461ffff166040518563ffffffff1660e01b8152600401611ac694939291906151f6565b600060405180830381600087803b158015611ae057600080fd5b505af1158015611af4573d6000803e3d6000fd5b50505050611b4d81600a60008573ffffffffffffffffffffffffffffffffffffffff1673ffffffffffffffffffffffffffffffffffffffff1681526020019081526020016000206000015461481490919063ffffffff16565b600a60008473ffffffffffffffffffffffffffffffffffffffff1673ffffffffffffffffffffffffffffffffffffffff168152602001908152602001600020600001819055505050565b611b9f61480c565b73ffffffffffffffffffffffffffffffffffffffff1660008054906101000a900473ffffffffffffffffffffffffffffffffffffffff1673ffffffffffffffffffffffffffffffffffffffff1614611c5f576040517f08c379a00000000000000000000000000000000000000000000000000000000081526004018080602001828103825260208152602001807f4f776e61626c653a2063616c6c6572206973206e6f7420746865206f776e657281525060200191505060405180910390fd5b600b819080600181540180825580915050600190039060005260206000200160009091909190916101000a81548173ffffffffffffffffffffffffffffffffffffffff021916908373ffffffffffffffffffffffffffffffffffffffff160217905550611ccb816135d0565b50565b600073ffffffffffffffffffffffffffffffffffffffff168273ffffffffffffffffffffffffffffffffffffffff161415611d0857600080fd5b6000816fffffffffffffffffffffffffffffffff1611611d2757600080fd5b81601160006101000a81548173ffffffffffffffffffffffffffffffffffffffff021916908373ffffffffffffffffffffffffffffffffffffffff160217905550601160009054906101000a900473ffffffffffffffffffffffffffffffffffffffff1673ffffffffffffffffffffffffffffffffffffffff1663095ea7b330836040518363ffffffff1660e01b8152600401611dc59291906150f1565b602060405180830381600087803b158015611ddf57600080fd5b505af1158015611df3573d6000803e3d6000fd5b505050506040513d601f19601f82011682018060405250810190611e179190614dab565b50611e2182613c15565b611e2f57611e2e82611b97565b5b5050565b600d8181548110611e4357600080fd5b9060005260206000209060020201600091509050806000018054600181600116156101000203166002900480601f016020809104026020016040519081016040528092919081815260200182805460018160011615610100020316600290048015611eef5780601f10611ec457610100808354040283529160200191611eef565b820191906000526020600020905b815481529060010190602001808311611ed257829003601f168201915b5050505050908060010160009054906101000a900473ffffffffffffffffffffffffffffffffffffffff16905082565b600073ffffffffffffffffffffffffffffffffffffffff168273ffffffffffffffffffffffffffffffffffffffff161415611f5957600080fd5b6000816fffffffffffffffffffffffffffffffff1611611f7857600080fd5b611f8182613d58565b6000611f8c836143dc565b9050600960003373ffffffffffffffffffffffffffffffffffffffff1673ffffffffffffffffffffffffffffffffffffffff16815260200190815260200160002060010160008473ffffffffffffffffffffffffffffffffffffffff1673ffffffffffffffffffffffffffffffffffffffff16815260200190815260200160002060009054906101000a90046fffffffffffffffffffffffffffffffff166fffffffffffffffffffffffffffffffff16826fffffffffffffffffffffffffffffffff16111561259657612157600960003373ffffffffffffffffffffffffffffffffffffffff1673ffffffffffffffffffffffffffffffffffffffff16815260200190815260200160002060010160008573ffffffffffffffffffffffffffffffffffffffff1673ffffffffffffffffffffffffffffffffffffffff16815260200190815260200160002060009054906101000a90046fffffffffffffffffffffffffffffffff166fffffffffffffffffffffffffffffffff16600a60008673ffffffffffffffffffffffffffffffffffffffff1673ffffffffffffffffffffffffffffffffffffffff1681526020019081526020016000206000015461481490919063ffffffff16565b600a60008573ffffffffffffffffffffffffffffffffffffffff1673ffffffffffffffffffffffffffffffffffffffff1681526020019081526020016000206000018190555061229f600960003373ffffffffffffffffffffffffffffffffffffffff1673ffffffffffffffffffffffffffffffffffffffff16815260200190815260200160002060010160008573ffffffffffffffffffffffffffffffffffffffff1673ffffffffffffffffffffffffffffffffffffffff16815260200190815260200160002060009054906101000a90046fffffffffffffffffffffffffffffffff166fffffffffffffffffffffffffffffffff16600a60008673ffffffffffffffffffffffffffffffffffffffff1673ffffffffffffffffffffffffffffffffffffffff168152602001908152602001600020600101546147c290919063ffffffff16565b600a60008573ffffffffffffffffffffffffffffffffffffffff1673ffffffffffffffffffffffffffffffffffffffff16815260200190815260200160002060010181905550612425600960003373ffffffffffffffffffffffffffffffffffffffff1673ffffffffffffffffffffffffffffffffffffffff16815260200190815260200160002060000160008573ffffffffffffffffffffffffffffffffffffffff1673ffffffffffffffffffffffffffffffffffffffff16815260200190815260200160002060009054906101000a90046fffffffffffffffffffffffffffffffff16600960003373ffffffffffffffffffffffffffffffffffffffff1673ffffffffffffffffffffffffffffffffffffffff16815260200190815260200160002060010160008673ffffffffffffffffffffffffffffffffffffffff1673ffffffffffffffffffffffffffffffffffffffff16815260200190815260200160002060009054906101000a90046fffffffffffffffffffffffffffffffff16614730565b600960003373ffffffffffffffffffffffffffffffffffffffff1673ffffffffffffffffffffffffffffffffffffffff16815260200190815260200160002060000160008573ffffffffffffffffffffffffffffffffffffffff1673ffffffffffffffffffffffffffffffffffffffff16815260200190815260200160002060006101000a8154816fffffffffffffffffffffffffffffffff02191690836fffffffffffffffffffffffffffffffff1602179055506000600960003373ffffffffffffffffffffffffffffffffffffffff1673ffffffffffffffffffffffffffffffffffffffff16815260200190815260200160002060010160008573ffffffffffffffffffffffffffffffffffffffff1673ffffffffffffffffffffffffffffffffffffffff16815260200190815260200160002060006101000a8154816fffffffffffffffffffffffffffffffff02191690836fffffffffffffffffffffffffffffffff1602179055506129a5565b61263b600960003373ffffffffffffffffffffffffffffffffffffffff1673ffffffffffffffffffffffffffffffffffffffff16815260200190815260200160002060010160008573ffffffffffffffffffffffffffffffffffffffff1673ffffffffffffffffffffffffffffffffffffffff16815260200190815260200160002060009054906101000a90046fffffffffffffffffffffffffffffffff1683614779565b600960003373ffffffffffffffffffffffffffffffffffffffff1673ffffffffffffffffffffffffffffffffffffffff16815260200190815260200160002060010160008573ffffffffffffffffffffffffffffffffffffffff1673ffffffffffffffffffffffffffffffffffffffff16815260200190815260200160002060006101000a8154816fffffffffffffffffffffffffffffffff02191690836fffffffffffffffffffffffffffffffff160217905550612795600960003373ffffffffffffffffffffffffffffffffffffffff1673ffffffffffffffffffffffffffffffffffffffff16815260200190815260200160002060000160008573ffffffffffffffffffffffffffffffffffffffff1673ffffffffffffffffffffffffffffffffffffffff16815260200190815260200160002060009054906101000a90046fffffffffffffffffffffffffffffffff1683614730565b600960003373ffffffffffffffffffffffffffffffffffffffff1673ffffffffffffffffffffffffffffffffffffffff16815260200190815260200160002060000160008573ffffffffffffffffffffffffffffffffffffffff1673ffffffffffffffffffffffffffffffffffffffff16815260200190815260200160002060006101000a8154816fffffffffffffffffffffffffffffffff02191690836fffffffffffffffffffffffffffffffff1602179055506128b1826fffffffffffffffffffffffffffffffff16600a60008673ffffffffffffffffffffffffffffffffffffffff1673ffffffffffffffffffffffffffffffffffffffff1681526020019081526020016000206000015461481490919063ffffffff16565b600a60008573ffffffffffffffffffffffffffffffffffffffff1673ffffffffffffffffffffffffffffffffffffffff1681526020019081526020016000206000018190555061295e826fffffffffffffffffffffffffffffffff16600a60008673ffffffffffffffffffffffffffffffffffffffff1673ffffffffffffffffffffffffffffffffffffffff168152602001908152602001600020600101546147c290919063ffffffff16565b600a60008573ffffffffffffffffffffffffffffffffffffffff1673ffffffffffffffffffffffffffffffffffffffff168152602001908152602001600020600101819055505b6129ae836143dc565b6fffffffffffffffffffffffffffffffff16816fffffffffffffffffffffffffffffffff16146129da57fe5b505050565b6000601060009054906101000a900473ffffffffffffffffffffffffffffffffffffffff16905090565b612a1161480c565b73ffffffffffffffffffffffffffffffffffffffff1660008054906101000a900473ffffffffffffffffffffffffffffffffffffffff1673ffffffffffffffffffffffffffffffffffffffff1614612ad1576040517f08c379a00000000000000000000000000000000000000000000000000000000081526004018080602001828103825260208152602001807f4f776e61626c653a2063616c6c6572206973206e6f7420746865206f776e657281525060200191505060405180910390fd5b600a60008273ffffffffffffffffffffffffffffffffffffffff1673ffffffffffffffffffffffffffffffffffffffff168152602001908152602001600020600201339080600181540180825580915050600190039060005260206000200160009091909190916101000a81548173ffffffffffffffffffffffffffffffffffffffff021916908373ffffffffffffffffffffffffffffffffffffffff16021790555050565b612b7f61480c565b73ffffffffffffffffffffffffffffffffffffffff1660008054906101000a900473ffffffffffffffffffffffffffffffffffffffff1673ffffffffffffffffffffffffffffffffffffffff1614612c3f576040517f08c379a00000000000000000000000000000000000000000000000000000000081526004018080602001828103825260208152602001807f4f776e61626c653a2063616c6c6572206973206e6f7420746865206f776e657281525060200191505060405180910390fd5b600e60009054906101000a900473ffffffffffffffffffffffffffffffffffffffff1673ffffffffffffffffffffffffffffffffffffffff166369328dec8383336040518463ffffffff1660e01b8152600401612c9e939291906151bf565b602060405180830381600087803b158015612cb857600080fd5b505af1158015612ccc573d6000803e3d6000fd5b505050506040513d601f19601f82011682018060405250810190612cf09190614e4f565b505050565b612cfd61480c565b73ffffffffffffffffffffffffffffffffffffffff1660008054906101000a900473ffffffffffffffffffffffffffffffffffffffff1673ffffffffffffffffffffffffffffffffffffffff1614612dbd576040517f08c379a00000000000000000000000000000000000000000000000000000000081526004018080602001828103825260208152602001807f4f776e61626c653a2063616c6c6572206973206e6f7420746865206f776e657281525060200191505060405180910390fd5b600073ffffffffffffffffffffffffffffffffffffffff1660008054906101000a900473ffffffffffffffffffffffffffffffffffffffff1673ffffffffffffffffffffffffffffffffffffffff167f8be0079c531659141344cd1fd0a4f28419497f9722a3daafe3b4186f6b6457e060405160405180910390a360008060006101000a81548173ffffffffffffffffffffffffffffffffffffffff021916908373ffffffffffffffffffffffffffffffffffffffff160217905550565b600080601060009054906101000a900473ffffffffffffffffffffffffffffffffffffffff1673ffffffffffffffffffffffffffffffffffffffff1663d2493b6c846040518263ffffffff1660e01b8152600401612ed99190614fed565b60606040518083038186803b158015612ef157600080fd5b505afa158015612f05573d6000803e3d6000fd5b505050506040513d601f19601f82011682018060405250810190612f299190614ce4565b9050508091505080915050919050565b6000601060009054906101000a900473ffffffffffffffffffffffffffffffffffffffff1673ffffffffffffffffffffffffffffffffffffffff1663d2493b6c846040518263ffffffff1660e01b8152600401612f969190614fed565b60606040518083038186803b158015612fae57600080fd5b505afa158015612fc2573d6000803e3d6000fd5b505050506040513d601f19601f82011682018060405250810190612fe69190614ce4565b9050508091505080601160006101000a81548173ffffffffffffffffffffffffffffffffffffffff021916908373ffffffffffffffffffffffffffffffffffffffff160217905550601160009054906101000a900473ffffffffffffffffffffffffffffffffffffffff1673ffffffffffffffffffffffffffffffffffffffff1663095ea7b3600260009054906101000a900473ffffffffffffffffffffffffffffffffffffffff16846040518363ffffffff1660e01b81526004016130ad929190615196565b602060405180830381600087803b1580156130c757600080fd5b505af11580156130db573d6000803e3d6000fd5b505050506040513d601f19601f820116820180604052508101906130ff9190614dab565b50505050565b61310d61480c565b73ffffffffffffffffffffffffffffffffffffffff1660008054906101000a900473ffffffffffffffffffffffffffffffffffffffff1673ffffffffffffffffffffffffffffffffffffffff16146131cd576040517f08c379a00000000000000000000000000000000000000000000000000000000081526004018080602001828103825260208152602001807f4f776e61626c653a2063616c6c6572206973206e6f7420746865206f776e657281525060200191505060405180910390fd5b3373ffffffffffffffffffffffffffffffffffffffff166108fc479081150290604051600060405180830381858888f1935050505061320b57600080fd5b565b600080600f60009054906101000a900473ffffffffffffffffffffffffffffffffffffffff1673ffffffffffffffffffffffffffffffffffffffff166321f8a721846040518263ffffffff1660e01b815260040161326b9190615256565b60206040518083038186803b15801561328357600080fd5b505afa158015613297573d6000803e3d6000fd5b505050506040513d601f19601f820116820180604052508101906132bb9190614cbb565b601060006101000a81548173ffffffffffffffffffffffffffffffffffffffff021916908373ffffffffffffffffffffffffffffffffffffffff160217905550601060009054906101000a900473ffffffffffffffffffffffffffffffffffffffff1683807effffffffffffffffffffffffffffffffffffffffffffffffffffffffffffff1916905091509150915091565b60008060009054906101000a900473ffffffffffffffffffffffffffffffffffffffff16905090565b600080601060009054906101000a900473ffffffffffffffffffffffffffffffffffffffff1673ffffffffffffffffffffffffffffffffffffffff1663d2493b6c846040518263ffffffff1660e01b81526004016133d49190614fed565b60606040518083038186803b1580156133ec57600080fd5b505afa158015613400573d6000803e3d6000fd5b505050506040513d601f19601f820116820180604052508101906134249190614ce4565b9050508091505080915050919050565b6000805b600a60008473ffffffffffffffffffffffffffffffffffffffff1673ffffffffffffffffffffffffffffffffffffffff16815260200190815260200160002060020180549050811015613547573373ffffffffffffffffffffffffffffffffffffffff16600a60008573ffffffffffffffffffffffffffffffffffffffff1673ffffffffffffffffffffffffffffffffffffffff16815260200190815260200160002060020182815481106134e957fe5b9060005260206000200160009054906101000a900473ffffffffffffffffffffffffffffffffffffffff1673ffffffffffffffffffffffffffffffffffffffff16141561353a57600191505061354d565b8080600101915050613438565b50600090505b919050565b600c818154811061356257600080fd5b906000526020600020016000915054906101000a900473ffffffffffffffffffffffffffffffffffffffff1681565b600b81815481106135a157600080fd5b906000526020600020016000915054906101000a900473ffffffffffffffffffffffffffffffffffffffff1681565b80601160006101000a81548173ffffffffffffffffffffffffffffffffffffffff021916908373ffffffffffffffffffffffffffffffffffffffff160217905550601160009054906101000a900473ffffffffffffffffffffffffffffffffffffffff1673ffffffffffffffffffffffffffffffffffffffff1663095ea7b3600260009054906101000a900473ffffffffffffffffffffffffffffffffffffffff167fffffffffffffffffffffffffffffffffffffffffffffffffffffffffffffffff6040518363ffffffff1660e01b81526004016136b0929190615196565b602060405180830381600087803b1580156136ca57600080fd5b505af11580156136de573d6000803e3d6000fd5b505050506040513d601f19601f820116820180604052508101906137029190614dab565b5050565b6000600260009054906101000a900473ffffffffffffffffffffffffffffffffffffffff16905090565b600073ffffffffffffffffffffffffffffffffffffffff168273ffffffffffffffffffffffffffffffffffffffff16141561376a57600080fd5b806fffffffffffffffffffffffffffffffff166137868361186b565b10156137c7576040517f08c379a00000000000000000000000000000000000000000000000000000000081526004016137be906152c1565b60405180910390fd5b6000816fffffffffffffffffffffffffffffffff161161381c576040517f08c379a0000000000000000000000000000000000000000000000000000000008152600401613813906152a1565b60405180910390fd5b61382582613c15565b6138335761383282611b97565b5b81601160006101000a81548173ffffffffffffffffffffffffffffffffffffffff021916908373ffffffffffffffffffffffffffffffffffffffff160217905550601160009054906101000a900473ffffffffffffffffffffffffffffffffffffffff1673ffffffffffffffffffffffffffffffffffffffff166323b872dd3330846040518463ffffffff1660e01b81526004016138d393929190615031565b602060405180830381600087803b1580156138ed57600080fd5b505af1158015613901573d6000803e3d6000fd5b505050506040513d601f19601f820116820180604052508101906139259190614dab565b50600e60009054906101000a900473ffffffffffffffffffffffffffffffffffffffff1673ffffffffffffffffffffffffffffffffffffffff1663e8eda9df838330600860149054906101000a900461ffff166040518563ffffffff1660e01b81526004016139979493929190615151565b600060405180830381600087803b1580156139b157600080fd5b505af11580156139c5573d6000803e3d6000fd5b50505050613a30816fffffffffffffffffffffffffffffffff16600a60008573ffffffffffffffffffffffffffffffffffffffff1673ffffffffffffffffffffffffffffffffffffffff1681526020019081526020016000206000015461481490919063ffffffff16565b600a60008473ffffffffffffffffffffffffffffffffffffffff1673ffffffffffffffffffffffffffffffffffffffff16815260200190815260200160002060000181905550613a7f82613434565b613a8d57613a8c82612a09565b5b613b32600960003373ffffffffffffffffffffffffffffffffffffffff1673ffffffffffffffffffffffffffffffffffffffff16815260200190815260200160002060000160008473ffffffffffffffffffffffffffffffffffffffff1673ffffffffffffffffffffffffffffffffffffffff16815260200190815260200160002060009054906101000a90046fffffffffffffffffffffffffffffffff1682614730565b600960003373ffffffffffffffffffffffffffffffffffffffff1673ffffffffffffffffffffffffffffffffffffffff16815260200190815260200160002060000160008473ffffffffffffffffffffffffffffffffffffffff1673ffffffffffffffffffffffffffffffffffffffff16815260200190815260200160002060006101000a8154816fffffffffffffffffffffffffffffffff02191690836fffffffffffffffffffffffffffffffff1602179055505050565b6000600560009054906101000a900473ffffffffffffffffffffffffffffffffffffffff16905090565b6000805b600b80549050811015613ca8578273ffffffffffffffffffffffffffffffffffffffff16600b8281548110613c4a57fe5b9060005260206000200160009054906101000a900473ffffffffffffffffffffffffffffffffffffffff1673ffffffffffffffffffffffffffffffffffffffff161415613c9b576001915050613cae565b8080600101915050613c19565b50600090505b919050565b6000600960003373ffffffffffffffffffffffffffffffffffffffff1673ffffffffffffffffffffffffffffffffffffffff16815260200190815260200160002060010160008373ffffffffffffffffffffffffffffffffffffffff1673ffffffffffffffffffffffffffffffffffffffff16815260200190815260200160002060009054906101000a90046fffffffffffffffffffffffffffffffff169050919050565b6000601060009054906101000a900473ffffffffffffffffffffffffffffffffffffffff1673ffffffffffffffffffffffffffffffffffffffff1663d2493b6c836040518263ffffffff1660e01b8152600401613db59190614fed565b60606040518083038186803b158015613dcd57600080fd5b505afa158015613de1573d6000803e3d6000fd5b505050506040513d601f19601f82011682018060405250810190613e059190614ce4565b9050508091505080601160006101000a81548173ffffffffffffffffffffffffffffffffffffffff021916908373ffffffffffffffffffffffffffffffffffffffff1602179055506000601160009054906101000a900473ffffffffffffffffffffffffffffffffffffffff1673ffffffffffffffffffffffffffffffffffffffff166370a08231306040518263ffffffff1660e01b8152600401613eaa9190614fed565b60206040518083038186803b158015613ec257600080fd5b505afa158015613ed6573d6000803e3d6000fd5b505050506040513d601f19601f82011682018060405250810190613efa9190614e4f565b9050613f51600a60008573ffffffffffffffffffffffffffffffffffffffff1673ffffffffffffffffffffffffffffffffffffffff16815260200190815260200160002060000154826147c290919063ffffffff16565b9050613fa8600a60008573ffffffffffffffffffffffffffffffffffffffff1673ffffffffffffffffffffffffffffffffffffffff16815260200190815260200160002060010154826147c290919063ffffffff16565b90506000614004600a60008673ffffffffffffffffffffffffffffffffffffffff1673ffffffffffffffffffffffffffffffffffffffff168152602001908152602001600020600201805490508361489c90919063ffffffff16565b9050614070614061600a60008773ffffffffffffffffffffffffffffffffffffffff1673ffffffffffffffffffffffffffffffffffffffff16815260200190815260200160002060020180549050846148e690919063ffffffff16565b836147c290919063ffffffff16565b91506140c782600a60008773ffffffffffffffffffffffffffffffffffffffff1673ffffffffffffffffffffffffffffffffffffffff1681526020019081526020016000206001015461481490919063ffffffff16565b600a60008673ffffffffffffffffffffffffffffffffffffffff1673ffffffffffffffffffffffffffffffffffffffff1681526020019081526020016000206001018190555060005b600a60008673ffffffffffffffffffffffffffffffffffffffff1673ffffffffffffffffffffffffffffffffffffffff168152602001908152602001600020600201805490508110156143d55761429c6142978360096000600a60008b73ffffffffffffffffffffffffffffffffffffffff1673ffffffffffffffffffffffffffffffffffffffff16815260200190815260200160002060020186815481106141b557fe5b9060005260206000200160009054906101000a900473ffffffffffffffffffffffffffffffffffffffff1673ffffffffffffffffffffffffffffffffffffffff1673ffffffffffffffffffffffffffffffffffffffff16815260200190815260200160002060010160008973ffffffffffffffffffffffffffffffffffffffff1673ffffffffffffffffffffffffffffffffffffffff16815260200190815260200160002060009054906101000a90046fffffffffffffffffffffffffffffffff166fffffffffffffffffffffffffffffffff1661481490919063ffffffff16565b614930565b60096000600a60008973ffffffffffffffffffffffffffffffffffffffff1673ffffffffffffffffffffffffffffffffffffffff16815260200190815260200160002060020184815481106142ed57fe5b9060005260206000200160009054906101000a900473ffffffffffffffffffffffffffffffffffffffff1673ffffffffffffffffffffffffffffffffffffffff1673ffffffffffffffffffffffffffffffffffffffff16815260200190815260200160002060010160008773ffffffffffffffffffffffffffffffffffffffff1673ffffffffffffffffffffffffffffffffffffffff16815260200190815260200160002060006101000a8154816fffffffffffffffffffffffffffffffff02191690836fffffffffffffffffffffffffffffffff1602179055508080600101915050614110565b5050505050565b600061451e600960003373ffffffffffffffffffffffffffffffffffffffff1673ffffffffffffffffffffffffffffffffffffffff16815260200190815260200160002060000160008473ffffffffffffffffffffffffffffffffffffffff1673ffffffffffffffffffffffffffffffffffffffff16815260200190815260200160002060009054906101000a90046fffffffffffffffffffffffffffffffff16600960003373ffffffffffffffffffffffffffffffffffffffff1673ffffffffffffffffffffffffffffffffffffffff16815260200190815260200160002060010160008573ffffffffffffffffffffffffffffffffffffffff1673ffffffffffffffffffffffffffffffffffffffff16815260200190815260200160002060009054906101000a90046fffffffffffffffffffffffffffffffff16614730565b9050919050565b61452d61480c565b73ffffffffffffffffffffffffffffffffffffffff1660008054906101000a900473ffffffffffffffffffffffffffffffffffffffff1673ffffffffffffffffffffffffffffffffffffffff16146145ed576040517f08c379a00000000000000000000000000000000000000000000000000000000081526004018080602001828103825260208152602001807f4f776e61626c653a2063616c6c6572206973206e6f7420746865206f776e657281525060200191505060405180910390fd5b600073ffffffffffffffffffffffffffffffffffffffff168173ffffffffffffffffffffffffffffffffffffffff161415614673576040517f08c379a00000000000000000000000000000000000000000000000000000000081526004018080602001828103825260268152602001806155166026913960400191505060405180910390fd5b8073ffffffffffffffffffffffffffffffffffffffff1660008054906101000a900473ffffffffffffffffffffffffffffffffffffffff1673ffffffffffffffffffffffffffffffffffffffff167f8be0079c531659141344cd1fd0a4f28419497f9722a3daafe3b4186f6b6457e060405160405180910390a3806000806101000a81548173ffffffffffffffffffffffffffffffffffffffff021916908373ffffffffffffffffffffffffffffffffffffffff16021790555050565b600061477161476c836fffffffffffffffffffffffffffffffff16856fffffffffffffffffffffffffffffffff1661481490919063ffffffff16565b614930565b905092915050565b60006147ba6147b5836fffffffffffffffffffffffffffffffff16856fffffffffffffffffffffffffffffffff166147c290919063ffffffff16565b614930565b905092915050565b600061480483836040518060400160405280601e81526020017f536166654d6174683a207375627472616374696f6e206f766572666c6f7700008152506149a3565b905092915050565b600033905090565b600080828401905083811015614892576040517f08c379a000000000000000000000000000000000000000000000000000000000815260040180806020018281038252601b8152602001807f536166654d6174683a206164646974696f6e206f766572666c6f77000000000081525060200191505060405180910390fd5b8091505092915050565b60006148de83836040518060400160405280601a81526020017f536166654d6174683a206469766973696f6e206279207a65726f000000000000815250614a63565b905092915050565b600061492883836040518060400160405280601881526020017f536166654d6174683a206d6f64756c6f206279207a65726f0000000000000000815250614b29565b905092915050565b6000700100000000000000000000000000000000821061499b576040517f08c379a000000000000000000000000000000000000000000000000000000000815260040180806020018281038252602781526020018061553c6027913960400191505060405180910390fd5b819050919050565b6000838311158290614a50576040517f08c379a00000000000000000000000000000000000000000000000000000000081526004018080602001828103825283818151815260200191508051906020019080838360005b83811015614a155780820151818401526020810190506149fa565b50505050905090810190601f168015614a425780820380516001836020036101000a031916815260200191505b509250505060405180910390fd5b5060008385039050809150509392505050565b60008083118290614b0f576040517f08c379a00000000000000000000000000000000000000000000000000000000081526004018080602001828103825283818151815260200191508051906020019080838360005b83811015614ad4578082015181840152602081019050614ab9565b50505050905090810190601f168015614b015780820380516001836020036101000a031916815260200191505b509250505060405180910390fd5b506000838581614b1b57fe5b049050809150509392505050565b6000808314158290614bd6576040517f08c379a00000000000000000000000000000000000000000000000000000000081526004018080602001828103825283818151815260200191508051906020019080838360005b83811015614b9b578082015181840152602081019050614b80565b50505050905090810190601f168015614bc85780820380516001836020036101000a031916815260200191505b509250505060405180910390fd5b50828481614be057fe5b0690509392505050565b600081359050614bf98161548b565b92915050565b600081519050614c0e8161548b565b92915050565b600081519050614c23816154a2565b92915050565b600081359050614c38816154b9565b92915050565b600081359050614c4d816154d0565b92915050565b600081359050614c62816154e7565b92915050565b600081359050614c77816154fe565b92915050565b600081519050614c8c816154fe565b92915050565b600060208284031215614ca457600080fd5b6000614cb284828501614bea565b91505092915050565b600060208284031215614ccd57600080fd5b6000614cdb84828501614bff565b91505092915050565b600080600060608486031215614cf957600080fd5b6000614d0786828701614bff565b9350506020614d1886828701614bff565b9250506040614d2986828701614bff565b9150509250925092565b60008060408385031215614d4657600080fd5b6000614d5485828601614bea565b9250506020614d6585828601614c3e565b9150509250929050565b60008060408385031215614d8257600080fd5b6000614d9085828601614bea565b9250506020614da185828601614c68565b9150509250929050565b600060208284031215614dbd57600080fd5b6000614dcb84828501614c14565b91505092915050565b600060208284031215614de657600080fd5b6000614df484828501614c29565b91505092915050565b600060208284031215614e0f57600080fd5b6000614e1d84828501614c53565b91505092915050565b600060208284031215614e3857600080fd5b6000614e4684828501614c68565b91505092915050565b600060208284031215614e6157600080fd5b6000614e6f84828501614c7d565b91505092915050565b614e81816153db565b82525050565b614e9081615333565b82525050565b614e9f81615345565b82525050565b614eae816153ed565b82525050565b614ebd8161537d565b82525050565b614ecc816153ff565b82525050565b6000614edd82615317565b614ee78185615322565b9350614ef7818560208601615447565b614f008161547a565b840191505092915050565b6000614f18601883615322565b91507f4465706f736974206d757374206265206e6f6e2d7a65726f00000000000000006000830152602082019050919050565b6000614f58602583615322565b91507f55736572206e6f7420617070726f76656420746f2073656e642074686973206160008301527f6d6f756e740000000000000000000000000000000000000000000000000000006020830152604082019050919050565b614fba81615387565b82525050565b614fc981615411565b82525050565b614fd8816153a3565b82525050565b614fe7816153d1565b82525050565b60006020820190506150026000830184614e87565b92915050565b600060408201905061501d6000830185614e78565b61502a6020830184614e87565b9392505050565b60006060820190506150466000830186614e78565b6150536020830185614e87565b6150606040830184614fc0565b949350505050565b600060608201905061507d6000830186614e78565b61508a6020830185614e87565b6150976040830184614fde565b949350505050565b60006040820190506150b46000830185614e87565b6150c16020830184614eb4565b9392505050565b60006040820190506150dd6000830185614e87565b6150ea6020830184614ec3565b9392505050565b60006040820190506151066000830185614e87565b6151136020830184614fc0565b9392505050565b600060608201905061512f6000830186614e87565b61513c6020830185614fc0565b6151496040830184614e78565b949350505050565b60006080820190506151666000830187614e87565b6151736020830186614fc0565b6151806040830185614e87565b61518d6060830184614fcf565b95945050505050565b60006040820190506151ab6000830185614e87565b6151b86020830184614fde565b9392505050565b60006060820190506151d46000830186614e87565b6151e16020830185614fde565b6151ee6040830184614e78565b949350505050565b600060808201905061520b6000830187614e87565b6152186020830186614fde565b6152256040830185614e87565b6152326060830184614fcf565b95945050505050565b60006020820190506152506000830184614e96565b92915050565b600060208201905061526b6000830184614ea5565b92915050565b6000604082019050818103600083015261528b8185614ed2565b905061529a6020830184614e87565b9392505050565b600060208201905081810360008301526152ba81614f0b565b9050919050565b600060208201905081810360008301526152da81614f4b565b9050919050565b60006020820190506152f66000830184614fb1565b92915050565b60006020820190506153116000830184614fde565b92915050565b600081519050919050565b600082825260208201905092915050565b600061533e826153b1565b9050919050565b60008115159050919050565b60007fff0000000000000000000000000000000000000000000000000000000000000082169050919050565b6000819050919050565b60006fffffffffffffffffffffffffffffffff82169050919050565b600061ffff82169050919050565b600073ffffffffffffffffffffffffffffffffffffffff82169050919050565b6000819050919050565b60006153e682615423565b9050919050565b60006153f882615351565b9050919050565b600061540a826153d1565b9050919050565b600061541c82615387565b9050919050565b600061542e82615435565b9050919050565b6000615440826153b1565b9050919050565b60005b8381101561546557808201518184015260208101905061544a565b83811115615474576000848401525b50505050565b6000601f19601f8301169050919050565b61549481615333565b811461549f57600080fd5b50565b6154ab81615345565b81146154b657600080fd5b50565b6154c281615351565b81146154cd57600080fd5b50565b6154d981615387565b81146154e457600080fd5b50565b6154f0816153a3565b81146154fb57600080fd5b50565b615507816153d1565b811461551257600080fd5b5056fe4f776e61626c653a206e6577206f776e657220697320746865207a65726f206164647265737353616665436173743a2076616c756520646f65736e27742066697420696e203132382062697473a2646970667358221220b5acb7eaea9258e5a65194166f2567d21b02bdcf2e48bdbf896d07250037caa064736f6c63430007040033",
  "immutableReferences": {},
  "source": "// SPDX-License-Identifier: MIT\r\npragma solidity ^0.7.0;\r\npragma experimental ABIEncoderV2;\r\n\r\nimport \"interfaces/ILendingPool.sol\";\r\nimport \"interfaces/IProtocolDataProvider.sol\";\r\nimport \"@openzeppelin/contracts/access/Ownable.sol\";\r\n//import \"@openzeppelin/contracts/drafts/ERC20Permit.sol\"; \r\nimport \"@openzeppelin/contracts/token/ERC20/IERC20.sol\";\r\n//import \"@openzeppelin/contracts/token/ERC20/ERC20.sol\";\r\nimport \"@openzeppelin/contracts/math/SafeMath.sol\";\r\nimport \"@openzeppelin/contracts/utils/SafeCast.sol\";\r\n\r\n  /**\r\n   * @title Manages depositing and withdrawing from Aave\r\n   * @notice part of the StakeYourName DApp\r\n   * @author Daniel Chilvers\r\n   **/\r\ncontract InvestmentManager is Ownable {\r\n\r\n    using SafeMath for uint256;\r\n\r\n    //address internal kovanLendingPool = 0x9FE532197ad76c5a68961439604C037EB79681F0;\r\n    //address internal mainLendingPool = 0x7d2768dE32b0b80b7a3454c06BdAc94A69DDc7A9;\r\n    address internal zeroAddress = address(0);\r\n    address internal lendingPooladdress = zeroAddress;\r\n    address internal kovanLendingPoolAddressProviderAddress = 0x88757f2f99175387aB4C6a4b3067c77A695b0349;\r\n    address internal mainLendingPoolAddressProviderAddress = 0xB53C1a33016B2DC2fF3653530bfF1848a515c8c5;\r\n    address internal lendingPoolAddressProviderAddress = zeroAddress;\r\n    address internal ProtocolDataProviderAddress = zeroAddress;\r\n\r\n    /// @dev addresses saved here for testing, in final version the\r\n    /// @dev addresses will be passed in from the front end.\r\n    address internal DAIContract = 0x6B175474E89094C44Da98b954EedeAC495271d0F;\r\n    address internal USDCContract = 0xA0b86991c6218b36c1d19D4a2e9Eb0cE3606eB48;\r\n\r\n    uint16 referralCode = 0;\r\n    uint256 constant MAX_INT = type(uint256).max;\r\n\r\n    /// @notice User data, maps an assest contract address to their balance, interest earnt\r\n    /// @notice and if they've locked the original investment (no auto-switching, no loss investement)\r\n    /// @dev we can increase balance to uint256, changing to mappings removed the packing benefits\r\n    struct User {\r\n        mapping (address => uint128) balance;\r\n        mapping (address => uint128) interest;\r\n        mapping (address => bool) locked;\r\n    }\r\n\r\n    /// @dev map user addresses to our struct above\r\n    mapping (address => User) Users;\r\n\r\n    /// @dev balance, how many of each token bought\r\n    /// @dev interest, how much interest earnt so far\r\n    /// @dev interestCalcualtionTime, block.timestamp of last calculation\r\n    /// @dev TO:DO pack this struct better\r\n    struct Asset {\r\n        uint256 balance;\r\n        uint256 interest;\r\n        //uint256 interestCalculationTime;\r\n        address[] userList;\r\n    }\r\n\r\n    mapping (address => Asset) assets;\r\n\r\n\r\n    /// @dev save a list of any assests we've puchased\r\n    address[] public assetList;\r\n    /// @dev save a list of users that have purchased asset\r\n    address[] public userList;\r\n\r\n    IProtocolDataProvider.TokenData[] public aTokens;\r\n\r\n    ILendingPool lendingPool;\r\n    ILendingPoolAddressesProvider lendingPoolAddressesProvider;\r\n    IProtocolDataProvider protocolDataProvider;\r\n    IERC20 ierc20;\r\n\r\n    constructor(uint _networkID) {\r\n        /// @dev truffle will pass in the networkID when migrated, use this to select the correct addresses\r\n        /// @dev uprgading to ^0.8.0 we could use block.chainid instead\r\n        if (_networkID == 1){\r\n            lendingPoolAddressProviderAddress = mainLendingPoolAddressProviderAddress;\r\n            protocolDataProvider = IProtocolDataProvider(0x057835Ad21a177dbdd3090bB1CAE03EaCF78Fc6d);\r\n        } else if (_networkID == 42){\r\n            lendingPoolAddressProviderAddress = kovanLendingPoolAddressProviderAddress;\r\n            protocolDataProvider = IProtocolDataProvider(0x3c73A5E5785cAC854D468F727c606C07488a29D6);\r\n        } \r\n        lendingPoolAddressesProvider = ILendingPoolAddressesProvider(lendingPoolAddressProviderAddress);\r\n        lendingPooladdress =  lendingPoolAddressesProvider.getLendingPool();\r\n        //protocolDataProvider = IProtocolDataProvider(lendingPoolAddressesProvider.getAddress(bytes32('0x1')));\r\n        lendingPool = ILendingPool(lendingPooladdress);\r\n    }\r\n\r\n    event debug(address _address, uint256 state);\r\n\r\n    /// @notice Approves sending _asset ERC20 tokens to the lendingPool\r\n    /// @dev this needs to be called for each new asset purchased\r\n    function approveLendingPool(address _asset) public {\r\n        ierc20 = IERC20(_asset);\r\n        ierc20.approve(lendingPooladdress , MAX_INT);\r\n    }\r\n\r\n    function userBalance(address _asset) public view returns(uint128){\r\n        return(Users[msg.sender].balance[_asset]);\r\n    }\r\n\r\n    function userInterest(address _asset) public view returns(uint128){\r\n        return(Users[msg.sender].interest[_asset]);\r\n    }\r\n\r\n    function getAToken(address _asset) public view returns(address){\r\n        address _aTokenAddress;\r\n        (_aTokenAddress,,) = protocolDataProvider.getReserveTokensAddresses(_asset);\r\n        return _aTokenAddress;\r\n    }\r\n\r\n    function getATokenBalance(address _asset) public returns(uint256){\r\n        ierc20 = IERC20(getAToken(_asset));\r\n        return ierc20.balanceOf(address(this));\r\n    }\r\n\r\n    /// @notice calculates how many extra aTokens we have i.e. interest\r\n    /// @notice divides and adds result to users balances\r\n    /// @dev do we need to collect the dust and distribute that later?\r\n    function calculateInterest(address _asset) public {\r\n        //require(assets[_asset].balance != 0);\r\n        address _aTokenAddress;\r\n        (_aTokenAddress,,) = protocolDataProvider.getReserveTokensAddresses(_asset);\r\n        //_aTokenAddress = 0xdCf0aF9e59C002FA3AA091a46196b37530FD48a8;\r\n        ierc20 = IERC20(_aTokenAddress);\r\n        uint256 _interest = ierc20.balanceOf(address(this));\r\n        _interest = _interest.sub(assets[_asset].balance);\r\n        _interest = _interest.sub(assets[_asset].interest);\r\n        uint256 _interestSplit = _interest.div(assets[_asset].userList.length);\r\n        /// @dev we want to leave any dust behind, so mod the _interest before updating the asset interest balance\r\n        /// @dev this is fine because the dust will be collected the next time interest is calculated\r\n        _interest = _interest.sub(_interest.mod(assets[_asset].userList.length));\r\n        assets[_asset].interest = assets[_asset].interest.add(_interest);\r\n        for (uint i; i < assets[_asset].userList.length; i++){\r\n            Users[address(assets[_asset].userList[i])].interest[_asset] = \r\n            SafeCast.toUint128(uint256(Users[address(assets[_asset].\r\n            userList[i])].interest[_asset]).add(_interestSplit));\r\n        }\r\n    }\r\n\r\n    /// @notice just does a deposit, doesn't record to any users balance\r\n    /// @dev just for testing, remove later\r\n    function depositTest(address _asset, uint256 _amount) public {\r\n        ierc20 = IERC20(_asset);\r\n        ierc20.transferFrom(msg.sender, address(this), _amount);\r\n        lendingPool.deposit(_asset, _amount, address(this) , referralCode);\r\n        assets[_asset].balance = assets[_asset].balance.add(_amount);\r\n    }\r\n\r\n    /// @notice just does a withdrawl, doesn't record to a users balance\r\n    /// @dev just for testing, remove later\r\n    function withdrawTest(address _asset, uint256 _amount) public onlyOwner {\r\n        lendingPool.withdraw(_asset, _amount, msg.sender);\r\n    }\r\n\r\n\r\n    /// @dev this isn't how it works, the user needs to approve directly to the asset contract\r\n    function approveDeposit(address _asset, uint128 _amount) public {\r\n        require(_asset != address(0));\r\n        require(_amount > 0);\r\n        ierc20 = IERC20(_asset);\r\n        ierc20.approve(address(this), _amount);\r\n        if (!checkAssetList(_asset)) {\r\n            addAsset(_asset);\r\n        }\r\n    }\r\n\r\n    /// @notice checks if we've purchased this assest before, make internal later\r\n    function checkAssetList(address _asset) public view returns(bool){\r\n        for (uint i; i < assetList.length; i++ ){\r\n            if(address(assetList[i]) == _asset){\r\n                return true;\r\n            }\r\n        }\r\n        return false;\r\n    }\r\n\r\n    /// @notice adds an _asset to the assetList and approves sending to the lendingPool\r\n    function addAsset(address _asset) public onlyOwner{\r\n        assetList.push(_asset);\r\n        approveLendingPool(_asset);\r\n        //approveATokenBurn(_asset, MAX_INT);\r\n    }\r\n\r\n    /// @notice checks if this user has purchased this asset previously\r\n    function checkUserList(address _asset) public view returns(bool){\r\n        for (uint i; i < assets[_asset].userList.length; i++ ){\r\n            if(assets[_asset].userList[i] == msg.sender){\r\n                return true;\r\n            }\r\n        }\r\n        return false;\r\n    }\r\n\r\n    /// @notice records that the user has now purchased _asset\r\n    function addUser(address _asset) public onlyOwner{\r\n        assets[_asset].userList.push(msg.sender);\r\n        //approveLendingPool(_asset);\r\n        //approveATokenBurn(_asset, MAX_INT);\r\n    }\r\n\r\n    function checkAllowance (address _asset) public returns(uint256){\r\n        ierc20 = IERC20(_asset);\r\n        return ierc20.allowance(msg.sender, address(this));\r\n    }\r\n\r\n    /// @dev TO:DO add some more requires to potentially save gas\r\n    function deposit(address _asset, uint128 _amount) public {\r\n        require(_asset != address(0));\r\n        require(checkAllowance(_asset) >= _amount, \"User not approved to send this amount\");\r\n        require(_amount > 0, \"Deposit must be non-zero\");\r\n        if (!checkAssetList(_asset)) {\r\n            addAsset(_asset);\r\n        }\r\n        ierc20 = IERC20(_asset);\r\n        ierc20.transferFrom(msg.sender, address(this), _amount);\r\n        lendingPool.deposit(_asset, _amount, address(this) , referralCode);\r\n        assets[_asset].balance = assets[_asset].balance.add(_amount);\r\n        if (!checkUserList(_asset)) {\r\n            addUser(_asset);\r\n        }\r\n        Users[msg.sender].balance[_asset] = safeAddUint128(Users[msg.sender].balance[_asset], _amount );\r\n    }\r\n\r\n    /// @dev don't think we need to do this!?\r\n    function approveATokenBurn(address _asset, uint256 _amount) public {\r\n        address _aTokenAddress;\r\n        (_aTokenAddress,,) = protocolDataProvider.getReserveTokensAddresses(_asset);\r\n        ierc20 = IERC20(_aTokenAddress);\r\n        ierc20.approve(lendingPooladdress , _amount);\r\n    }\r\n\r\n    ///@dev current implemnetation withdraws balance before deposit.\r\n    function withdraw(address _asset, uint128 _amount) public {\r\n        require(_asset != address(0));\r\n        require(_amount > 0);\r\n        calculateInterest(_asset);\r\n        uint128 _maxWithdrawl = safeAddUint128(Users[msg.sender].balance[_asset],Users[msg.sender].interest[_asset]);\r\n        uint128 _withdrawl = 0;\r\n        uint128 _balanceReduction = 0;\r\n        uint128 _interestReduction = 0;\r\n        if (_amount > _maxWithdrawl) {\r\n            _balanceReduction = Users[msg.sender].balance[_asset];\r\n            _interestReduction = Users[msg.sender].interest[_asset];\r\n            Users[msg.sender].balance[_asset] = 0;\r\n            Users[msg.sender].interest[_asset] = 0;\r\n            _withdrawl = _maxWithdrawl;\r\n        } else if (_amount > Users[msg.sender].balance[_asset]) {\r\n            _balanceReduction = Users[msg.sender].balance[_asset];\r\n            _interestReduction = safeSubUint128(_amount, Users[msg.sender].balance[_asset]);           \r\n            Users[msg.sender].interest[_asset] = safeSubUint128(Users[msg.sender].interest[_asset],safeSubUint128(_amount, Users[msg.sender].balance[_asset]));\r\n            Users[msg.sender].balance[_asset] = 0;\r\n            _withdrawl = _amount;\r\n        } else {\r\n            _balanceReduction = _amount;\r\n            Users[msg.sender].balance[_asset] = safeSubUint128(Users[msg.sender].balance[_asset], _amount);\r\n            _withdrawl = _amount;\r\n        }\r\n        lendingPool.withdraw(_asset, _withdrawl, msg.sender);\r\n        assets[_asset].balance = assets[_asset].balance.sub(_balanceReduction);\r\n        assets[_asset].interest = assets[_asset].interest.sub(_interestReduction);\r\n    }\r\n\r\n    function convertInterestToBalance(address _asset, uint128 _amount) public {\r\n        require(_asset != address(0));\r\n        require(_amount > 0);\r\n        calculateInterest(_asset);\r\n        uint128 _check = userTotal(_asset);\r\n        if (_amount > Users[msg.sender].interest[_asset]){\r\n            assets[_asset].balance = assets[_asset].balance.add(Users[msg.sender].interest[_asset]);\r\n            assets[_asset].interest = assets[_asset].interest.sub(Users[msg.sender].interest[_asset]);\r\n            Users[msg.sender].balance[_asset] = safeAddUint128(Users[msg.sender].balance[_asset], Users[msg.sender].interest[_asset]);\r\n            Users[msg.sender].interest[_asset] = 0;    \r\n        } else {\r\n            Users[msg.sender].interest[_asset] = safeSubUint128(Users[msg.sender].interest[_asset], _amount);\r\n            Users[msg.sender].balance[_asset] = safeAddUint128(Users[msg.sender].balance[_asset], _amount);\r\n            assets[_asset].balance = assets[_asset].balance.add(_amount);\r\n            assets[_asset].interest = assets[_asset].interest.sub(_amount);   \r\n        }\r\n        assert(_check == userTotal(_asset));\r\n    }\r\n\r\n    /// @dev only call this after calculateInterest()\r\n    function userTotal(address _asset) public view returns(uint128) {\r\n        return(safeAddUint128(Users[msg.sender].balance[_asset], Users[msg.sender].interest[_asset]));\r\n    }\r\n\r\n    /// @notice uses the SafeMath and SafeCast libraries to safely add uint128s together\r\n    function safeAddUint128(uint128 _a, uint128 _b) internal pure returns(uint128){\r\n        return(SafeCast.toUint128(uint256(_a).add(uint256(_b))));\r\n    }\r\n    /// @notice uses the SafeMath and SafeCast libraries to safely subtract uint128s \r\n    function safeSubUint128(uint128 _a, uint128 _b) internal pure returns(uint128){\r\n        return(SafeCast.toUint128(uint256(_a).sub(uint256(_b))));\r\n    }\r\n\r\n    /// @notice don't send me funds if this function still exists\r\n    /// @dev for recovering test funds\r\n    function withdrawAll() public onlyOwner {\r\n        require(msg.sender.send(address(this).balance));\r\n    }\r\n\r\n    function updateReferalCode(uint16 _code) public onlyOwner {\r\n        referralCode = _code;\r\n    }\r\n\r\n    /// @notice verify the address of the lending pool in use\r\n    function checkLendingPoolAddress() public view returns(address){\r\n        return (lendingPooladdress);\r\n    }\r\n\r\n    /// @notice verify the address of the lending pool address provider\r\n    /// @dev maybe try and shorten the function name a bit\r\n    function checkLendingPoolAddressProviderAddress() public view returns(address){\r\n        return (lendingPoolAddressProviderAddress);\r\n    }\r\n    \r\n    function checkProtocolDataProvider() public view returns(address){\r\n        return (address(protocolDataProvider));\r\n    }\r\n\r\n    function updateProtocolDataProvider(bytes1 _bytes) public returns(address, bytes32){\r\n        protocolDataProvider = IProtocolDataProvider(lendingPoolAddressesProvider.getAddress(_bytes));\r\n        return (address(protocolDataProvider),_bytes);\r\n    }\r\n\r\n    function checkaTokenAddress(address _asset) public view returns(address){\r\n        address _aTokenAddress;\r\n        (_aTokenAddress,,) = protocolDataProvider.getReserveTokensAddresses(_asset);\r\n        return (address(_aTokenAddress));\r\n    }\r\n\r\n    /// @notice update the lending pool address from the address provider\r\n    function updateLendingPoolAddress() public onlyOwner returns(address){\r\n        lendingPooladdress = lendingPoolAddressesProvider.getLendingPool();\r\n        lendingPool = ILendingPool(lendingPooladdress);\r\n        emit debug(lendingPooladdress, 10);\r\n        return (lendingPooladdress);\r\n    }\r\n\r\n}",
  "sourcePath": "C:/Users/anyth/Documents/GitHub/StakeYourName/contracts/InvestmentManager.sol",
  "compiler": {
    "name": "solc",
    "version": "0.7.4+commit.3f05b770.Emscripten.clang"
  },
  "schemaVersion": "3.3.3",
  "updatedAt": "2021-01-26T11:22:06.355Z",
  "devdoc": {
    "author": "Daniel Chilvers*",
    "kind": "dev",
    "methods": {
      "approveATokenBurn(address,uint256)": {
        "details": "don't think we need to do this!?"
      },
      "approveDeposit(address,uint128)": {
        "details": "this isn't how it works, the user needs to approve directly to the asset contract"
      },
      "approveLendingPool(address)": {
        "details": "this needs to be called for each new asset purchased"
      },
      "calculateInterest(address)": {
        "details": "do we need to collect the dust and distribute that later?"
      },
      "checkLendingPoolAddressProviderAddress()": {
        "details": "maybe try and shorten the function name a bit"
      },
      "deposit(address,uint128)": {
        "details": "TO:DO add some more requires to potentially save gas"
      },
      "depositTest(address,uint256)": {
        "details": "just for testing, remove later"
      },
      "owner()": {
        "details": "Returns the address of the current owner."
      },
      "renounceOwnership()": {
        "details": "Leaves the contract without owner. It will not be possible to call `onlyOwner` functions anymore. Can only be called by the current owner. NOTE: Renouncing ownership will leave the contract without an owner, thereby removing any functionality that is only available to the owner."
      },
      "transferOwnership(address)": {
        "details": "Transfers ownership of the contract to a new account (`newOwner`). Can only be called by the current owner."
      },
      "userTotal(address)": {
        "details": "only call this after calculateInterest()"
      },
      "withdraw(address,uint128)": {
        "details": "current implemnetation withdraws balance before deposit."
      },
      "withdrawAll()": {
        "details": "for recovering test funds"
      },
      "withdrawTest(address,uint256)": {
        "details": "just for testing, remove later"
      }
    },
    "stateVariables": {
      "DAIContract": {
        "details": "addresses saved here for testing, in final version theaddresses will be passed in from the front end."
      },
      "Users": {
        "details": "map user addresses to our struct above"
      },
      "assetList": {
        "details": "save a list of any assests we've puchased"
      },
      "userList": {
        "details": "save a list of users that have purchased asset"
      }
    },
    "title": "Manages depositing and withdrawing from Aave",
    "version": 1
  },
  "userdoc": {
    "kind": "user",
    "methods": {
      "addAsset(address)": {
        "notice": "adds an _asset to the assetList and approves sending to the lendingPool"
      },
      "addUser(address)": {
        "notice": "records that the user has now purchased _asset"
      },
      "approveLendingPool(address)": {
        "notice": "Approves sending _asset ERC20 tokens to the lendingPool"
      },
      "calculateInterest(address)": {
        "notice": "calculates how many extra aTokens we have i.e. interestdivides and adds result to users balances"
      },
      "checkAssetList(address)": {
        "notice": "checks if we've purchased this assest before, make internal later"
      },
      "checkLendingPoolAddress()": {
        "notice": "verify the address of the lending pool in use"
      },
      "checkLendingPoolAddressProviderAddress()": {
        "notice": "verify the address of the lending pool address provider"
      },
      "checkUserList(address)": {
        "notice": "checks if this user has purchased this asset previously"
      },
      "depositTest(address,uint256)": {
        "notice": "just does a deposit, doesn't record to any users balance"
      },
      "updateLendingPoolAddress()": {
        "notice": "update the lending pool address from the address provider"
      },
      "withdrawAll()": {
        "notice": "don't send me funds if this function still exists"
      },
      "withdrawTest(address,uint256)": {
        "notice": "just does a withdrawl, doesn't record to a users balance"
      }
    },
    "notice": "part of the StakeYourName DApp",
    "version": 1
  }
}