{
  "contractName": "InvestmentManager",
  "abi": [
    {
      "inputs": [
        {
          "internalType": "uint256",
          "name": "_networkID",
          "type": "uint256"
        }
      ],
      "stateMutability": "nonpayable",
      "type": "constructor"
    },
    {
      "inputs": [],
      "name": "checkLendingPoolAddress",
      "outputs": [
        {
          "internalType": "address",
          "name": "",
          "type": "address"
        },
        {
          "internalType": "uint256",
          "name": "",
          "type": "uint256"
        }
      ],
      "stateMutability": "view",
      "type": "function",
      "constant": true
    },
    {
      "inputs": [],
      "name": "updateLendingPoolAddress",
      "outputs": [
        {
          "internalType": "address",
          "name": "",
          "type": "address"
        },
        {
          "internalType": "uint256",
          "name": "",
          "type": "uint256"
        }
      ],
      "stateMutability": "nonpayable",
      "type": "function"
    },
    {
      "inputs": [],
      "name": "resetLendingPoolAddress",
      "outputs": [
        {
          "internalType": "address",
          "name": "",
          "type": "address"
        },
        {
          "internalType": "uint256",
          "name": "",
          "type": "uint256"
        }
      ],
      "stateMutability": "nonpayable",
      "type": "function"
    }
  ],
  "bytecode": "0x6080604052739fe532197ad76c5a68961439604c037eb79681f06000806101000a81548173ffffffffffffffffffffffffffffffffffffffff021916908373ffffffffffffffffffffffffffffffffffffffff160217905550737d2768de32b0b80b7a3454c06bdac94a69ddc7a9600160006101000a81548173ffffffffffffffffffffffffffffffffffffffff021916908373ffffffffffffffffffffffffffffffffffffffff16021790555061dead600260006101000a81548173ffffffffffffffffffffffffffffffffffffffff021916908373ffffffffffffffffffffffffffffffffffffffff16021790555073652b2937efd0b5bea1c8d54293fc1289672afc6b600360006101000a81548173ffffffffffffffffffffffffffffffffffffffff021916908373ffffffffffffffffffffffffffffffffffffffff16021790555073b53c1a33016b2dc2ff3653530bff1848a515c8c5600460006101000a81548173ffffffffffffffffffffffffffffffffffffffff021916908373ffffffffffffffffffffffffffffffffffffffff16021790555061dead600560006101000a81548173ffffffffffffffffffffffffffffffffffffffff021916908373ffffffffffffffffffffffffffffffffffffffff16021790555060006008553480156101ee57600080fd5b5060405161076b38038061076b8339818101604052602081101561021157600080fd5b8101908080519060200190929190505050600181141561029357600460009054906101000a900473ffffffffffffffffffffffffffffffffffffffff16600560006101000a81548173ffffffffffffffffffffffffffffffffffffffff021916908373ffffffffffffffffffffffffffffffffffffffff160217905550610301565b602a81141561030057600360009054906101000a900473ffffffffffffffffffffffffffffffffffffffff16600560006101000a81548173ffffffffffffffffffffffffffffffffffffffff021916908373ffffffffffffffffffffffffffffffffffffffff1602179055505b5b600560009054906101000a900473ffffffffffffffffffffffffffffffffffffffff16600760006101000a81548173ffffffffffffffffffffffffffffffffffffffff021916908373ffffffffffffffffffffffffffffffffffffffff160217905550600760009054906101000a900473ffffffffffffffffffffffffffffffffffffffff1673ffffffffffffffffffffffffffffffffffffffff16630261bf8b6040518163ffffffff1660e01b815260040160206040518083038186803b1580156103cc57600080fd5b505afa1580156103e0573d6000803e3d6000fd5b505050506040513d60208110156103f657600080fd5b8101908080519060200190929190505050600260006101000a81548173ffffffffffffffffffffffffffffffffffffffff021916908373ffffffffffffffffffffffffffffffffffffffff16021790555050610314806104576000396000f3fe608060405234801561001057600080fd5b50600436106100415760003560e01c806317cad724146100465780633207df6714610081578063aaf298a4146100bc575b600080fd5b61004e6100f7565b604051808373ffffffffffffffffffffffffffffffffffffffff1681526020018281526020019250505060405180910390f35b610089610222565b604051808373ffffffffffffffffffffffffffffffffffffffff1681526020018281526020019250505060405180910390f35b6100c46102ad565b604051808373ffffffffffffffffffffffffffffffffffffffff1681526020018281526020019250505060405180910390f35b600080600760009054906101000a900473ffffffffffffffffffffffffffffffffffffffff1673ffffffffffffffffffffffffffffffffffffffff16630261bf8b6040518163ffffffff1660e01b815260040160206040518083038186803b15801561016257600080fd5b505afa158015610176573d6000803e3d6000fd5b505050506040513d602081101561018c57600080fd5b8101908080519060200190929190505050600260006101000a81548173ffffffffffffffffffffffffffffffffffffffff021916908373ffffffffffffffffffffffffffffffffffffffff1602179055506008600081548092919060010191905055600881905550600260009054906101000a900473ffffffffffffffffffffffffffffffffffffffff16600854915091509091565b60008061dead600260006101000a81548173ffffffffffffffffffffffffffffffffffffffff021916908373ffffffffffffffffffffffffffffffffffffffff1602179055506008600081548092919060010191905055600881905550600260009054906101000a900473ffffffffffffffffffffffffffffffffffffffff16600854915091509091565b600080600260009054906101000a900473ffffffffffffffffffffffffffffffffffffffff1660085491509150909156fea264697066735822122017afff931254388f91a4d3d8162a84e4dbbdb1e922983da375ba4ea3ffba40f964736f6c63430007040033",
  "immutableReferences": {},
  "source": "// SPDX-License-Identifier: MIT\r\npragma solidity ^0.7.0;\r\n\r\nimport \"interfaces/ILendingPool.sol\";\r\n\r\n  /**\r\n   * @title Manages depositing and withdrawing from Aave\r\n   * @author Daniel Chilvers\r\n   **/\r\ncontract InvestmentManager {\r\n    address internal kovanLendingPool = 0x9FE532197ad76c5a68961439604C037EB79681F0;\r\n    address internal mainLendingPool = 0x7d2768dE32b0b80b7a3454c06BdAc94A69DDc7A9;\r\n    address internal lendingPooladdress = 0x000000000000000000000000000000000000dEaD;\r\n    address internal kovanLendingPoolAddressProviderAddress = 0x652B2937Efd0B5beA1c8d54293FC1289672AFC6b;\r\n    address internal mainLendingPoolAddressProviderAddress = 0xB53C1a33016B2DC2fF3653530bfF1848a515c8c5;\r\n    address internal lendingPoolAddressProviderAddress = 0x000000000000000000000000000000000000dEaD;\r\n\r\n    ILendingPool LendingPool;\r\n    ILendingPoolAddressesProvider lendingPoolAddressesProvider;\r\n\r\n    //@dev truffle will pass in the networkID when migrated, use this to select the correct address\r\n    constructor(uint _networkID) {\r\n        if (_networkID == 1){\r\n            //lendingPooladdress = mainLendingPool;\r\n            lendingPoolAddressProviderAddress = mainLendingPoolAddressProviderAddress;\r\n        } else if (_networkID == 42){\r\n            //lendingPooladdress = kovanLendingPool;\r\n            lendingPoolAddressProviderAddress = kovanLendingPoolAddressProviderAddress;\r\n        } \r\n        lendingPoolAddressesProvider = ILendingPoolAddressesProvider(lendingPoolAddressProviderAddress);\r\n        lendingPooladdress =  lendingPoolAddressesProvider.getLendingPool();\r\n\r\n    }\r\n\r\n    uint256 i = 0;\r\n    function checkLendingPoolAddress() public view returns(address,uint256){\r\n        return (lendingPooladdress, i);\r\n    }\r\n    function updateLendingPoolAddress() public returns(address,uint256){\r\n        lendingPooladdress = lendingPoolAddressesProvider.getLendingPool();\r\n        i = i++;\r\n        return (lendingPooladdress, i);\r\n    }\r\n    function resetLendingPoolAddress() public returns(address,uint256){\r\n        lendingPooladdress = 0x000000000000000000000000000000000000dEaD;\r\n        i = i++;\r\n        return (lendingPooladdress, i);\r\n    }\r\n\r\n}",
  "sourcePath": "C:/Users/anyth/Documents/GitHub/StakeYourName/contracts/InvestmentManager.sol",
  "compiler": {
    "name": "solc",
    "version": "0.7.4+commit.3f05b770.Emscripten.clang"
  },
  "schemaVersion": "3.3.3",
  "updatedAt": "2021-01-18T18:39:21.433Z",
  "networkType": "ethereum",
  "devdoc": {
    "author": "Daniel Chilvers*",
    "kind": "dev",
    "methods": {},
    "title": "Manages depositing and withdrawing from Aave",
    "version": 1
  },
  "userdoc": {
    "kind": "user",
    "methods": {},
    "version": 1
  }
}