{
  "contractName": "InvestmentManager",
  "abi": [
    {
      "inputs": [
        {
          "internalType": "uint256",
          "name": "_networkID",
          "type": "uint256"
        }
      ],
      "stateMutability": "nonpayable",
      "type": "constructor"
    },
    {
      "anonymous": false,
      "inputs": [
        {
          "indexed": true,
          "internalType": "address",
          "name": "previousOwner",
          "type": "address"
        },
        {
          "indexed": true,
          "internalType": "address",
          "name": "newOwner",
          "type": "address"
        }
      ],
      "name": "OwnershipTransferred",
      "type": "event"
    },
    {
      "anonymous": false,
      "inputs": [
        {
          "indexed": false,
          "internalType": "address",
          "name": "_address",
          "type": "address"
        },
        {
          "indexed": false,
          "internalType": "uint256",
          "name": "state",
          "type": "uint256"
        }
      ],
      "name": "debug",
      "type": "event"
    },
    {
      "inputs": [
        {
          "internalType": "uint256",
          "name": "",
          "type": "uint256"
        }
      ],
      "name": "aTokens",
      "outputs": [
        {
          "internalType": "string",
          "name": "symbol",
          "type": "string"
        },
        {
          "internalType": "address",
          "name": "tokenAddress",
          "type": "address"
        }
      ],
      "stateMutability": "view",
      "type": "function"
    },
    {
      "inputs": [],
      "name": "owner",
      "outputs": [
        {
          "internalType": "address",
          "name": "",
          "type": "address"
        }
      ],
      "stateMutability": "view",
      "type": "function"
    },
    {
      "inputs": [],
      "name": "renounceOwnership",
      "outputs": [],
      "stateMutability": "nonpayable",
      "type": "function"
    },
    {
      "inputs": [
        {
          "internalType": "address",
          "name": "newOwner",
          "type": "address"
        }
      ],
      "name": "transferOwnership",
      "outputs": [],
      "stateMutability": "nonpayable",
      "type": "function"
    },
    {
      "stateMutability": "payable",
      "type": "receive"
    },
    {
      "inputs": [
        {
          "internalType": "address",
          "name": "_asset",
          "type": "address"
        },
        {
          "internalType": "address",
          "name": "_userVault",
          "type": "address"
        }
      ],
      "name": "approveLendingPool",
      "outputs": [],
      "stateMutability": "nonpayable",
      "type": "function"
    },
    {
      "inputs": [
        {
          "internalType": "address",
          "name": "_asset",
          "type": "address"
        }
      ],
      "name": "getAToken",
      "outputs": [
        {
          "internalType": "address",
          "name": "",
          "type": "address"
        }
      ],
      "stateMutability": "view",
      "type": "function"
    },
    {
      "inputs": [
        {
          "internalType": "address",
          "name": "_asset",
          "type": "address"
        },
        {
          "internalType": "address",
          "name": "_userVault",
          "type": "address"
        },
        {
          "internalType": "uint256",
          "name": "_amount",
          "type": "uint256"
        }
      ],
      "name": "deposit",
      "outputs": [],
      "stateMutability": "nonpayable",
      "type": "function"
    },
    {
      "inputs": [
        {
          "internalType": "address",
          "name": "_asset",
          "type": "address"
        }
      ],
      "name": "checkAllowance",
      "outputs": [
        {
          "internalType": "uint256",
          "name": "",
          "type": "uint256"
        }
      ],
      "stateMutability": "view",
      "type": "function"
    },
    {
      "inputs": [
        {
          "internalType": "address",
          "name": "_asset",
          "type": "address"
        },
        {
          "internalType": "uint256",
          "name": "_amount",
          "type": "uint256"
        },
        {
          "internalType": "address",
          "name": "_user",
          "type": "address"
        }
      ],
      "name": "withdraw",
      "outputs": [],
      "stateMutability": "nonpayable",
      "type": "function"
    },
    {
      "inputs": [
        {
          "internalType": "address",
          "name": "_asset",
          "type": "address"
        },
        {
          "internalType": "address",
          "name": "_vault",
          "type": "address"
        }
      ],
      "name": "getBalance",
      "outputs": [
        {
          "internalType": "uint256",
          "name": "",
          "type": "uint256"
        }
      ],
      "stateMutability": "view",
      "type": "function"
    },
    {
      "inputs": [
        {
          "internalType": "address",
          "name": "_asset",
          "type": "address"
        },
        {
          "internalType": "address",
          "name": "_vault",
          "type": "address"
        }
      ],
      "name": "getInterest",
      "outputs": [
        {
          "internalType": "uint256",
          "name": "",
          "type": "uint256"
        }
      ],
      "stateMutability": "view",
      "type": "function"
    },
    {
      "inputs": [
        {
          "internalType": "address",
          "name": "_asset",
          "type": "address"
        },
        {
          "internalType": "address",
          "name": "_vault",
          "type": "address"
        }
      ],
      "name": "getTotal",
      "outputs": [
        {
          "internalType": "uint256",
          "name": "",
          "type": "uint256"
        }
      ],
      "stateMutability": "view",
      "type": "function"
    },
    {
      "inputs": [],
      "name": "retrieveETH",
      "outputs": [],
      "stateMutability": "nonpayable",
      "type": "function"
    }
  ],
  "bytecode": "0x60806040526000600160006101000a81548173ffffffffffffffffffffffffffffffffffffffff021916908373ffffffffffffffffffffffffffffffffffffffff160217905550600160009054906101000a900473ffffffffffffffffffffffffffffffffffffffff16600260006101000a81548173ffffffffffffffffffffffffffffffffffffffff021916908373ffffffffffffffffffffffffffffffffffffffff1602179055507388757f2f99175387ab4c6a4b3067c77a695b0349600360006101000a81548173ffffffffffffffffffffffffffffffffffffffff021916908373ffffffffffffffffffffffffffffffffffffffff16021790555073b53c1a33016b2dc2ff3653530bff1848a515c8c5600460006101000a81548173ffffffffffffffffffffffffffffffffffffffff021916908373ffffffffffffffffffffffffffffffffffffffff160217905550600160009054906101000a900473ffffffffffffffffffffffffffffffffffffffff16600560006101000a81548173ffffffffffffffffffffffffffffffffffffffff021916908373ffffffffffffffffffffffffffffffffffffffff160217905550600160009054906101000a900473ffffffffffffffffffffffffffffffffffffffff16600660006101000a81548173ffffffffffffffffffffffffffffffffffffffff021916908373ffffffffffffffffffffffffffffffffffffffff1602179055506000600660146101000a81548161ffff021916908361ffff16021790555060027fffffffffffffffffffffffffffffffffffffffffffffffffffffffffffffffff816200026257fe5b046007553480156200027357600080fd5b5060405162001d1f38038062001d1f8339818101604052810190620002999190620006e8565b6000620002ab6200068660201b60201c565b9050806000806101000a81548173ffffffffffffffffffffffffffffffffffffffff021916908373ffffffffffffffffffffffffffffffffffffffff1602179055508073ffffffffffffffffffffffffffffffffffffffff16600073ffffffffffffffffffffffffffffffffffffffff167f8be0079c531659141344cd1fd0a4f28419497f9722a3daafe3b4186f6b6457e060405160405180910390a35060018114156200041157600460009054906101000a900473ffffffffffffffffffffffffffffffffffffffff16600560006101000a81548173ffffffffffffffffffffffffffffffffffffffff021916908373ffffffffffffffffffffffffffffffffffffffff16021790555073057835ad21a177dbdd3090bb1cae03eacf78fc6d600b60006101000a81548173ffffffffffffffffffffffffffffffffffffffff021916908373ffffffffffffffffffffffffffffffffffffffff160217905550620004d5565b602a811415620004d457600360009054906101000a900473ffffffffffffffffffffffffffffffffffffffff16600560006101000a81548173ffffffffffffffffffffffffffffffffffffffff021916908373ffffffffffffffffffffffffffffffffffffffff160217905550733c73a5e5785cac854d468f727c606c07488a29d6600b60006101000a81548173ffffffffffffffffffffffffffffffffffffffff021916908373ffffffffffffffffffffffffffffffffffffffff1602179055505b5b600560009054906101000a900473ffffffffffffffffffffffffffffffffffffffff16600a60006101000a81548173ffffffffffffffffffffffffffffffffffffffff021916908373ffffffffffffffffffffffffffffffffffffffff160217905550600a60009054906101000a900473ffffffffffffffffffffffffffffffffffffffff1673ffffffffffffffffffffffffffffffffffffffff16630261bf8b6040518163ffffffff1660e01b815260040160206040518083038186803b158015620005a157600080fd5b505afa158015620005b6573d6000803e3d6000fd5b505050506040513d601f19601f82011682018060405250810190620005dc9190620006bc565b600260006101000a81548173ffffffffffffffffffffffffffffffffffffffff021916908373ffffffffffffffffffffffffffffffffffffffff160217905550600260009054906101000a900473ffffffffffffffffffffffffffffffffffffffff16600960006101000a81548173ffffffffffffffffffffffffffffffffffffffff021916908373ffffffffffffffffffffffffffffffffffffffff1602179055505062000786565b600033905090565b6000815190506200069f8162000752565b92915050565b600081519050620006b6816200076c565b92915050565b600060208284031215620006cf57600080fd5b6000620006df848285016200068e565b91505092915050565b600060208284031215620006fb57600080fd5b60006200070b84828501620006a5565b91505092915050565b6000620007218262000728565b9050919050565b600073ffffffffffffffffffffffffffffffffffffffff82169050919050565b6000819050919050565b6200075d8162000714565b81146200076957600080fd5b50565b620007778162000748565b81146200078357600080fd5b50565b61158980620007966000396000f3fe6080604052600436106100c65760003560e01c80638da5cb5b1161007f578063d4fac45d11610059578063d4fac45d14610284578063d5b014c3146102c1578063edd7ca6f146102d8578063f2fde38b14610315576100cd565b80638da5cb5b146101f3578063ae6418b51461021e578063c5d1aeb614610247576100cd565b80631a197a26146100d2578063324e4b571461010f57806369328dec1461014d578063715018a614610176578063732a52ee1461018d5780638340f549146101ca576100cd565b366100cd57005b600080fd5b3480156100de57600080fd5b506100f960048036038101906100f4919061105d565b61033e565b60405161010691906113e1565b60405180910390f35b34801561011b57600080fd5b50610136600480360381019061013191906111d8565b6103f9565b6040516101449291906113b1565b60405180910390f35b34801561015957600080fd5b50610174600480360381019061016f9190611160565b6104e5565b005b34801561018257600080fd5b5061018b61059c565b005b34801561019957600080fd5b506101b460048036038101906101af919061105d565b610722565b6040516101c1919061129f565b60405180910390f35b3480156101d657600080fd5b506101f160048036038101906101ec9190611111565b6107e0565b005b3480156101ff57600080fd5b50610208610888565b604051610215919061129f565b60405180910390f35b34801561022a57600080fd5b5061024560048036038101906102409190611086565b6108b1565b005b34801561025357600080fd5b5061026e60048036038101906102699190611086565b610a41565b60405161027b91906113e1565b60405180910390f35b34801561029057600080fd5b506102ab60048036038101906102a69190611086565b610a5a565b6040516102b891906113e1565b60405180910390f35b3480156102cd57600080fd5b506102d6610af2565b005b3480156102e457600080fd5b506102ff60048036038101906102fa9190611086565b610c03565b60405161030c91906113e1565b60405180910390f35b34801561032157600080fd5b5061033c6004803603810190610337919061105d565b610c37565b005b6000808290508073ffffffffffffffffffffffffffffffffffffffff1663dd62ed3e33600960009054906101000a900473ffffffffffffffffffffffffffffffffffffffff166040518363ffffffff1660e01b81526004016103a19291906112ba565b60206040518083038186803b1580156103b957600080fd5b505afa1580156103cd573d6000803e3d6000fd5b505050506040513d601f19601f820116820180604052508101906103f19190611201565b915050919050565b6008818154811061040957600080fd5b9060005260206000209060020201600091509050806000018054600181600116156101000203166002900480601f0160208091040260200160405190810160405280929190818152602001828054600181600116156101000203166002900480156104b55780601f1061048a576101008083540402835291602001916104b5565b820191906000526020600020905b81548152906001019060200180831161049857829003601f168201915b5050505050908060010160009054906101000a900473ffffffffffffffffffffffffffffffffffffffff16905082565b600960009054906101000a900473ffffffffffffffffffffffffffffffffffffffff1673ffffffffffffffffffffffffffffffffffffffff166369328dec8484846040518463ffffffff1660e01b815260040161054493929190611335565b602060405180830381600087803b15801561055e57600080fd5b505af1158015610572573d6000803e3d6000fd5b505050506040513d601f19601f820116820180604052508101906105969190611201565b50505050565b6105a4610e42565b73ffffffffffffffffffffffffffffffffffffffff1660008054906101000a900473ffffffffffffffffffffffffffffffffffffffff1673ffffffffffffffffffffffffffffffffffffffff1614610664576040517f08c379a00000000000000000000000000000000000000000000000000000000081526004018080602001828103825260208152602001807f4f776e61626c653a2063616c6c6572206973206e6f7420746865206f776e657281525060200191505060405180910390fd5b600073ffffffffffffffffffffffffffffffffffffffff1660008054906101000a900473ffffffffffffffffffffffffffffffffffffffff1673ffffffffffffffffffffffffffffffffffffffff167f8be0079c531659141344cd1fd0a4f28419497f9722a3daafe3b4186f6b6457e060405160405180910390a360008060006101000a81548173ffffffffffffffffffffffffffffffffffffffff021916908373ffffffffffffffffffffffffffffffffffffffff160217905550565b600080600b60009054906101000a900473ffffffffffffffffffffffffffffffffffffffff1673ffffffffffffffffffffffffffffffffffffffff1663d2493b6c846040518263ffffffff1660e01b8152600401610780919061129f565b60606040518083038186803b15801561079857600080fd5b505afa1580156107ac573d6000803e3d6000fd5b505050506040513d601f19601f820116820180604052508101906107d091906110c2565b9050508091505080915050919050565b600960009054906101000a900473ffffffffffffffffffffffffffffffffffffffff1673ffffffffffffffffffffffffffffffffffffffff1663e8eda9df848385600660149054906101000a900461ffff166040518563ffffffff1660e01b8152600401610851949392919061136c565b600060405180830381600087803b15801561086b57600080fd5b505af115801561087f573d6000803e3d6000fd5b50505050505050565b60008060009054906101000a900473ffffffffffffffffffffffffffffffffffffffff16905090565b60008290506007548173ffffffffffffffffffffffffffffffffffffffff1663dd62ed3e84600260009054906101000a900473ffffffffffffffffffffffffffffffffffffffff166040518363ffffffff1660e01b81526004016109169291906112e3565b60206040518083038186803b15801561092e57600080fd5b505afa158015610942573d6000803e3d6000fd5b505050506040513d601f19601f820116820180604052508101906109669190611201565b11610a3c578073ffffffffffffffffffffffffffffffffffffffff1663095ea7b3600260009054906101000a900473ffffffffffffffffffffffffffffffffffffffff167fffffffffffffffffffffffffffffffffffffffffffffffffffffffffffffffff6040518363ffffffff1660e01b81526004016109e892919061130c565b602060405180830381600087803b158015610a0257600080fd5b505af1158015610a16573d6000803e3d6000fd5b505050506040513d601f19601f82011682018060405250810190610a3a91906111af565b505b505050565b600080610a4e8484610e4a565b90508091505092915050565b6000808290508073ffffffffffffffffffffffffffffffffffffffff1663e3d670d7856040518263ffffffff1660e01b8152600401610a99919061129f565b60206040518083038186803b158015610ab157600080fd5b505afa158015610ac5573d6000803e3d6000fd5b505050506040513d601f19601f82011682018060405250810190610ae99190611201565b91505092915050565b610afa610e42565b73ffffffffffffffffffffffffffffffffffffffff1660008054906101000a900473ffffffffffffffffffffffffffffffffffffffff1673ffffffffffffffffffffffffffffffffffffffff1614610bba576040517f08c379a00000000000000000000000000000000000000000000000000000000081526004018080602001828103825260208152602001807f4f776e61626c653a2063616c6c6572206973206e6f7420746865206f776e657281525060200191505060405180910390fd5b3373ffffffffffffffffffffffffffffffffffffffff166108fc479081150290604051600060405180830381858888f19350505050158015610c00573d6000803e3d6000fd5b50565b600080610c108484610e4a565b9050610c2e610c1f8585610a5a565b82610eea90919063ffffffff16565b91505092915050565b610c3f610e42565b73ffffffffffffffffffffffffffffffffffffffff1660008054906101000a900473ffffffffffffffffffffffffffffffffffffffff1673ffffffffffffffffffffffffffffffffffffffff1614610cff576040517f08c379a00000000000000000000000000000000000000000000000000000000081526004018080602001828103825260208152602001807f4f776e61626c653a2063616c6c6572206973206e6f7420746865206f776e657281525060200191505060405180910390fd5b600073ffffffffffffffffffffffffffffffffffffffff168173ffffffffffffffffffffffffffffffffffffffff161415610d85576040517f08c379a000000000000000000000000000000000000000000000000000000000815260040180806020018281038252602681526020018061152e6026913960400191505060405180910390fd5b8073ffffffffffffffffffffffffffffffffffffffff1660008054906101000a900473ffffffffffffffffffffffffffffffffffffffff1673ffffffffffffffffffffffffffffffffffffffff167f8be0079c531659141344cd1fd0a4f28419497f9722a3daafe3b4186f6b6457e060405160405180910390a3806000806101000a81548173ffffffffffffffffffffffffffffffffffffffff021916908373ffffffffffffffffffffffffffffffffffffffff16021790555050565b600033905090565b600080610e5684610722565b90508073ffffffffffffffffffffffffffffffffffffffff166370a08231846040518263ffffffff1660e01b8152600401610e91919061129f565b60206040518083038186803b158015610ea957600080fd5b505afa158015610ebd573d6000803e3d6000fd5b505050506040513d601f19601f82011682018060405250810190610ee19190611201565b91505092915050565b6000610f2c83836040518060400160405280601e81526020017f536166654d6174683a207375627472616374696f6e206f766572666c6f770000815250610f34565b905092915050565b6000838311158290610fe1576040517f08c379a00000000000000000000000000000000000000000000000000000000081526004018080602001828103825283818151815260200191508051906020019080838360005b83811015610fa6578082015181840152602081019050610f8b565b50505050905090810190601f168015610fd35780820380516001836020036101000a031916815260200191505b509250505060405180910390fd5b5060008385039050809150509392505050565b600081359050611003816114e8565b92915050565b600081519050611018816114e8565b92915050565b60008151905061102d816114ff565b92915050565b60008135905061104281611516565b92915050565b60008151905061105781611516565b92915050565b60006020828403121561106f57600080fd5b600061107d84828501610ff4565b91505092915050565b6000806040838503121561109957600080fd5b60006110a785828601610ff4565b92505060206110b885828601610ff4565b9150509250929050565b6000806000606084860312156110d757600080fd5b60006110e586828701611009565b93505060206110f686828701611009565b925050604061110786828701611009565b9150509250925092565b60008060006060848603121561112657600080fd5b600061113486828701610ff4565b935050602061114586828701610ff4565b925050604061115686828701611033565b9150509250925092565b60008060006060848603121561117557600080fd5b600061118386828701610ff4565b935050602061119486828701611033565b92505060406111a586828701610ff4565b9150509250925092565b6000602082840312156111c157600080fd5b60006111cf8482850161101e565b91505092915050565b6000602082840312156111ea57600080fd5b60006111f884828501611033565b91505092915050565b60006020828403121561121357600080fd5b600061122184828501611048565b91505092915050565b6112338161146e565b82525050565b61124281611418565b82525050565b6000611253826113fc565b61125d8185611407565b935061126d8185602086016114a4565b611276816114d7565b840191505092915050565b61128a81611436565b82525050565b61129981611464565b82525050565b60006020820190506112b46000830184611239565b92915050565b60006040820190506112cf600083018561122a565b6112dc6020830184611239565b9392505050565b60006040820190506112f86000830185611239565b6113056020830184611239565b9392505050565b60006040820190506113216000830185611239565b61132e6020830184611290565b9392505050565b600060608201905061134a6000830186611239565b6113576020830185611290565b6113646040830184611239565b949350505050565b60006080820190506113816000830187611239565b61138e6020830186611290565b61139b6040830185611239565b6113a86060830184611281565b95945050505050565b600060408201905081810360008301526113cb8185611248565b90506113da6020830184611239565b9392505050565b60006020820190506113f66000830184611290565b92915050565b600081519050919050565b600082825260208201905092915050565b600061142382611444565b9050919050565b60008115159050919050565b600061ffff82169050919050565b600073ffffffffffffffffffffffffffffffffffffffff82169050919050565b6000819050919050565b600061147982611480565b9050919050565b600061148b82611492565b9050919050565b600061149d82611444565b9050919050565b60005b838110156114c25780820151818401526020810190506114a7565b838111156114d1576000848401525b50505050565b6000601f19601f8301169050919050565b6114f181611418565b81146114fc57600080fd5b50565b6115088161142a565b811461151357600080fd5b50565b61151f81611464565b811461152a57600080fd5b5056fe4f776e61626c653a206e6577206f776e657220697320746865207a65726f2061646472657373a2646970667358221220a209c3404ae229b0711d2e8a49ed33047a27078d0a190813e5449bfca474c81e64736f6c63430007040033",
  "immutableReferences": {},
  "source": "// SPDX-License-Identifier: MIT\r\npragma solidity ^0.7.0;\r\npragma experimental ABIEncoderV2;\r\n\r\nimport \"interfaces/ILendingPool.sol\";\r\nimport \"interfaces/IProtocolDataProvider.sol\";\r\nimport \"interfaces/IUserVault.sol\";\r\nimport \"@openzeppelin/contracts/access/Ownable.sol\";\r\n//import \"@openzeppelin/contracts/drafts/ERC20Permit.sol\"; \r\nimport \"@openzeppelin/contracts/token/ERC20/IERC20.sol\";\r\n//import \"@openzeppelin/contracts/token/ERC20/ERC20.sol\";\r\nimport \"@openzeppelin/contracts/math/SafeMath.sol\";\r\nimport \"@openzeppelin/contracts/utils/SafeCast.sol\";\r\n\r\n  /**\r\n   * @title Manages depositing and withdrawing from Aave\r\n   * @notice part of the StakeYourName DApp\r\n   * @author Daniel Chilvers\r\n   **/\r\ncontract InvestmentManager is Ownable {\r\n\r\n    using SafeMath for uint256;\r\n\r\n    //address internal kovanLendingPool = 0x9FE532197ad76c5a68961439604C037EB79681F0;\r\n    //address internal mainLendingPool = 0x7d2768dE32b0b80b7a3454c06BdAc94A69DDc7A9;\r\n    address internal zeroAddress = address(0);\r\n    address internal lendingPooladdress = zeroAddress;\r\n    address internal kovanLendingPoolAddressProviderAddress = 0x88757f2f99175387aB4C6a4b3067c77A695b0349;\r\n    address internal mainLendingPoolAddressProviderAddress = 0xB53C1a33016B2DC2fF3653530bfF1848a515c8c5;\r\n    address internal lendingPoolAddressProviderAddress = zeroAddress;\r\n    address internal ProtocolDataProviderAddress = zeroAddress;\r\n\r\n    uint16 referralCode = 0;\r\n    uint256 constant MAX_INT = type(uint256).max;\r\n    uint256 internal MIN_APPROVAL = type(uint256).max/2;\r\n\r\n    IProtocolDataProvider.TokenData[] public aTokens;\r\n\r\n    ILendingPool lendingPool;\r\n    ILendingPoolAddressesProvider lendingPoolAddressesProvider;\r\n    IProtocolDataProvider protocolDataProvider;\r\n    IERC20 ierc20;\r\n\r\n    constructor(uint _networkID) {\r\n        /// @dev truffle will pass in the networkID when migrated, use this to select the correct addresses\r\n        /// @dev uprgading to ^0.8.0 we could use block.chainid instead\r\n        if (_networkID == 1){\r\n            lendingPoolAddressProviderAddress = mainLendingPoolAddressProviderAddress;\r\n            protocolDataProvider = IProtocolDataProvider(0x057835Ad21a177dbdd3090bB1CAE03EaCF78Fc6d);\r\n        } else if (_networkID == 42){\r\n            lendingPoolAddressProviderAddress = kovanLendingPoolAddressProviderAddress;\r\n            protocolDataProvider = IProtocolDataProvider(0x3c73A5E5785cAC854D468F727c606C07488a29D6);\r\n        } \r\n        lendingPoolAddressesProvider = ILendingPoolAddressesProvider(lendingPoolAddressProviderAddress);\r\n        lendingPooladdress =  lendingPoolAddressesProvider.getLendingPool();\r\n        //protocolDataProvider = IProtocolDataProvider(lendingPoolAddressesProvider.getAddress(bytes32('0x1')));\r\n        lendingPool = ILendingPool(lendingPooladdress);\r\n    }\r\n\r\n    // we shouldn't need this on this contract\r\n    receive() external payable {}\r\n\r\n    event debug(address _address, uint256 state);\r\n\r\n    /// @notice Approves sending _asset ERC20 tokens to the lendingPool\r\n    /// @param _asset the address of asset contract\r\n    /// @param _userVault the address of the user vault\r\n    /// @dev this needs to be called for each new asset purchased\r\n    function approveLendingPool(address _asset, address _userVault) external {\r\n        IERC20 _erc20 = IERC20(_asset);\r\n        if (_erc20.allowance(_userVault, lendingPooladdress) <= MIN_APPROVAL){\r\n            _erc20.approve(lendingPooladdress, MAX_INT);\r\n        } \r\n    }\r\n\r\n    function getAToken(address _asset) public view returns(address){\r\n        address _aTokenAddress;\r\n        (_aTokenAddress,,) = protocolDataProvider.getReserveTokensAddresses(_asset);\r\n        return _aTokenAddress;\r\n    }\r\n\r\n    function getATokenBalance(address _asset, address _userVault) internal view returns(uint256){\r\n        IERC20 _erc20 = IERC20(getAToken(_asset));\r\n        return _erc20.balanceOf(_userVault);\r\n    }\r\n\r\n    /// @dev User must have approved this contract before this is called\r\n    function deposit(address _asset, address _userVault, uint256 _amount) external {\r\n        lendingPool.deposit(_asset, _amount, _userVault, referralCode);\r\n    }\r\n\r\n    function checkAllowance(address _asset) external view returns(uint256){\r\n        IERC20 _erc20 = IERC20(_asset);\r\n        return _erc20.allowance(msg.sender, address(lendingPool));\r\n    }\r\n\r\n    ///@dev put these transfers into require statements\r\n    function withdraw(address _asset, uint256 _amount, address _user) external {\r\n        lendingPool.withdraw(_asset, _amount, _user);\r\n    }\r\n\r\n    function getBalance(address _asset, address _vault) public view returns(uint256){\r\n        UserVault _userVault = UserVault(_vault);\r\n        return _userVault.balance(_asset);\r\n    }\r\n    function getInterest(address _asset, address _vault) external view returns(uint256) {\r\n        uint256 _tokenBalance = getATokenBalance(_asset, _vault);\r\n        return _tokenBalance.sub(getBalance(_asset, _vault));\r\n    }\r\n    function getTotal(address _asset, address _vault) external view returns(uint256){\r\n        uint256 _tokenBalance = getATokenBalance(_asset, _vault);\r\n        return _tokenBalance;\r\n    }\r\n    function retrieveETH() external onlyOwner {\r\n        msg.sender.transfer(address(this).balance);\r\n    }\r\n\r\n}",
  "sourcePath": "C:/Users/anyth/Documents/GitHub/StakeYourName/contracts/InvestmentManager.sol",
  "compiler": {
    "name": "solc",
    "version": "0.7.4+commit.3f05b770.Emscripten.clang"
  },
  "schemaVersion": "3.3.3",
  "updatedAt": "2021-01-30T14:15:55.429Z",
  "devdoc": {
    "author": "Daniel Chilvers*",
    "kind": "dev",
    "methods": {
      "approveLendingPool(address,address)": {
        "details": "this needs to be called for each new asset purchased",
        "params": {
          "_asset": "the address of asset contract",
          "_userVault": "the address of the user vault"
        }
      },
      "deposit(address,address,uint256)": {
        "details": "User must have approved this contract before this is called"
      },
      "owner()": {
        "details": "Returns the address of the current owner."
      },
      "renounceOwnership()": {
        "details": "Leaves the contract without owner. It will not be possible to call `onlyOwner` functions anymore. Can only be called by the current owner. NOTE: Renouncing ownership will leave the contract without an owner, thereby removing any functionality that is only available to the owner."
      },
      "transferOwnership(address)": {
        "details": "Transfers ownership of the contract to a new account (`newOwner`). Can only be called by the current owner."
      },
      "withdraw(address,uint256,address)": {
        "details": "put these transfers into require statements"
      }
    },
    "title": "Manages depositing and withdrawing from Aave",
    "version": 1
  },
  "userdoc": {
    "kind": "user",
    "methods": {
      "approveLendingPool(address,address)": {
        "notice": "Approves sending _asset ERC20 tokens to the lendingPool"
      }
    },
    "notice": "part of the StakeYourName DApp",
    "version": 1
  }
}