{
  "contractName": "InvestmentManager",
  "abi": [
    {
      "inputs": [
        {
          "internalType": "uint256",
          "name": "_networkID",
          "type": "uint256"
        }
      ],
      "stateMutability": "nonpayable",
      "type": "constructor"
    },
    {
      "anonymous": false,
      "inputs": [
        {
          "indexed": true,
          "internalType": "address",
          "name": "previousOwner",
          "type": "address"
        },
        {
          "indexed": true,
          "internalType": "address",
          "name": "newOwner",
          "type": "address"
        }
      ],
      "name": "OwnershipTransferred",
      "type": "event"
    },
    {
      "anonymous": false,
      "inputs": [
        {
          "indexed": false,
          "internalType": "address",
          "name": "_address",
          "type": "address"
        },
        {
          "indexed": false,
          "internalType": "uint256",
          "name": "state",
          "type": "uint256"
        }
      ],
      "name": "debug",
      "type": "event"
    },
    {
      "inputs": [
        {
          "internalType": "uint256",
          "name": "",
          "type": "uint256"
        }
      ],
      "name": "aTokens",
      "outputs": [
        {
          "internalType": "string",
          "name": "symbol",
          "type": "string"
        },
        {
          "internalType": "address",
          "name": "tokenAddress",
          "type": "address"
        }
      ],
      "stateMutability": "view",
      "type": "function",
      "constant": true
    },
    {
      "inputs": [],
      "name": "owner",
      "outputs": [
        {
          "internalType": "address",
          "name": "",
          "type": "address"
        }
      ],
      "stateMutability": "view",
      "type": "function",
      "constant": true
    },
    {
      "inputs": [],
      "name": "renounceOwnership",
      "outputs": [],
      "stateMutability": "nonpayable",
      "type": "function"
    },
    {
      "inputs": [
        {
          "internalType": "address",
          "name": "newOwner",
          "type": "address"
        }
      ],
      "name": "transferOwnership",
      "outputs": [],
      "stateMutability": "nonpayable",
      "type": "function"
    },
    {
      "inputs": [
        {
          "internalType": "address",
          "name": "_asset",
          "type": "address"
        },
        {
          "internalType": "address",
          "name": "_userVault",
          "type": "address"
        },
        {
          "internalType": "uint256",
          "name": "_amount",
          "type": "uint256"
        },
        {
          "internalType": "bool",
          "name": "_max",
          "type": "bool"
        }
      ],
      "name": "approveLendingPool",
      "outputs": [],
      "stateMutability": "nonpayable",
      "type": "function"
    },
    {
      "inputs": [
        {
          "internalType": "address",
          "name": "_asset",
          "type": "address"
        }
      ],
      "name": "getAToken",
      "outputs": [
        {
          "internalType": "address",
          "name": "",
          "type": "address"
        }
      ],
      "stateMutability": "view",
      "type": "function",
      "constant": true
    },
    {
      "inputs": [
        {
          "internalType": "address",
          "name": "_asset",
          "type": "address"
        },
        {
          "internalType": "address",
          "name": "_userVault",
          "type": "address"
        }
      ],
      "name": "getATokenBalance",
      "outputs": [
        {
          "internalType": "uint256",
          "name": "",
          "type": "uint256"
        }
      ],
      "stateMutability": "view",
      "type": "function",
      "constant": true
    },
    {
      "inputs": [
        {
          "internalType": "address",
          "name": "_asset",
          "type": "address"
        },
        {
          "internalType": "address",
          "name": "_userVault",
          "type": "address"
        },
        {
          "internalType": "uint256",
          "name": "_amount",
          "type": "uint256"
        },
        {
          "internalType": "address",
          "name": "_from",
          "type": "address"
        }
      ],
      "name": "deposit",
      "outputs": [],
      "stateMutability": "nonpayable",
      "type": "function"
    },
    {
      "inputs": [
        {
          "internalType": "address",
          "name": "_asset",
          "type": "address"
        }
      ],
      "name": "checkAllowance",
      "outputs": [
        {
          "internalType": "uint256",
          "name": "",
          "type": "uint256"
        }
      ],
      "stateMutability": "view",
      "type": "function",
      "constant": true
    },
    {
      "inputs": [
        {
          "internalType": "address",
          "name": "_asset",
          "type": "address"
        },
        {
          "internalType": "uint256",
          "name": "_amount",
          "type": "uint256"
        },
        {
          "internalType": "address",
          "name": "_user",
          "type": "address"
        }
      ],
      "name": "withdraw",
      "outputs": [],
      "stateMutability": "nonpayable",
      "type": "function"
    }
  ],
  "bytecode": "0x60806040526000600160006101000a81548173ffffffffffffffffffffffffffffffffffffffff021916908373ffffffffffffffffffffffffffffffffffffffff160217905550600160009054906101000a900473ffffffffffffffffffffffffffffffffffffffff16600260006101000a81548173ffffffffffffffffffffffffffffffffffffffff021916908373ffffffffffffffffffffffffffffffffffffffff1602179055507388757f2f99175387ab4c6a4b3067c77a695b0349600360006101000a81548173ffffffffffffffffffffffffffffffffffffffff021916908373ffffffffffffffffffffffffffffffffffffffff16021790555073b53c1a33016b2dc2ff3653530bff1848a515c8c5600460006101000a81548173ffffffffffffffffffffffffffffffffffffffff021916908373ffffffffffffffffffffffffffffffffffffffff160217905550600160009054906101000a900473ffffffffffffffffffffffffffffffffffffffff16600560006101000a81548173ffffffffffffffffffffffffffffffffffffffff021916908373ffffffffffffffffffffffffffffffffffffffff160217905550600160009054906101000a900473ffffffffffffffffffffffffffffffffffffffff16600660006101000a81548173ffffffffffffffffffffffffffffffffffffffff021916908373ffffffffffffffffffffffffffffffffffffffff1602179055506000600660146101000a81548161ffff021916908361ffff16021790555060027fffffffffffffffffffffffffffffffffffffffffffffffffffffffffffffffff816200026257fe5b046007553480156200027357600080fd5b5060405162001b0038038062001b008339818101604052810190620002999190620006e8565b6000620002ab6200068660201b60201c565b9050806000806101000a81548173ffffffffffffffffffffffffffffffffffffffff021916908373ffffffffffffffffffffffffffffffffffffffff1602179055508073ffffffffffffffffffffffffffffffffffffffff16600073ffffffffffffffffffffffffffffffffffffffff167f8be0079c531659141344cd1fd0a4f28419497f9722a3daafe3b4186f6b6457e060405160405180910390a35060018114156200041157600460009054906101000a900473ffffffffffffffffffffffffffffffffffffffff16600560006101000a81548173ffffffffffffffffffffffffffffffffffffffff021916908373ffffffffffffffffffffffffffffffffffffffff16021790555073057835ad21a177dbdd3090bb1cae03eacf78fc6d600b60006101000a81548173ffffffffffffffffffffffffffffffffffffffff021916908373ffffffffffffffffffffffffffffffffffffffff160217905550620004d5565b602a811415620004d457600360009054906101000a900473ffffffffffffffffffffffffffffffffffffffff16600560006101000a81548173ffffffffffffffffffffffffffffffffffffffff021916908373ffffffffffffffffffffffffffffffffffffffff160217905550733c73a5e5785cac854d468f727c606c07488a29d6600b60006101000a81548173ffffffffffffffffffffffffffffffffffffffff021916908373ffffffffffffffffffffffffffffffffffffffff1602179055505b5b600560009054906101000a900473ffffffffffffffffffffffffffffffffffffffff16600a60006101000a81548173ffffffffffffffffffffffffffffffffffffffff021916908373ffffffffffffffffffffffffffffffffffffffff160217905550600a60009054906101000a900473ffffffffffffffffffffffffffffffffffffffff1673ffffffffffffffffffffffffffffffffffffffff16630261bf8b6040518163ffffffff1660e01b815260040160206040518083038186803b158015620005a157600080fd5b505afa158015620005b6573d6000803e3d6000fd5b505050506040513d601f19601f82011682018060405250810190620005dc9190620006bc565b600260006101000a81548173ffffffffffffffffffffffffffffffffffffffff021916908373ffffffffffffffffffffffffffffffffffffffff160217905550600260009054906101000a900473ffffffffffffffffffffffffffffffffffffffff16600960006101000a81548173ffffffffffffffffffffffffffffffffffffffff021916908373ffffffffffffffffffffffffffffffffffffffff1602179055505062000786565b600033905090565b6000815190506200069f8162000752565b92915050565b600081519050620006b6816200076c565b92915050565b600060208284031215620006cf57600080fd5b6000620006df848285016200068e565b91505092915050565b600060208284031215620006fb57600080fd5b60006200070b84828501620006a5565b91505092915050565b6000620007218262000728565b9050919050565b600073ffffffffffffffffffffffffffffffffffffffff82169050919050565b6000819050919050565b6200075d8162000714565b81146200076957600080fd5b50565b620007778162000748565b81146200078357600080fd5b50565b61136a80620007966000396000f3fe608060405234801561001057600080fd5b506004361061009e5760003560e01c806369328dec1161006657806369328dec1461016c578063715018a614610188578063732a52ee146101925780638da5cb5b146101c2578063f2fde38b146101e05761009e565b80631a197a26146100a3578063203660df146100d357806324089f1c14610103578063324e4b571461011f5780633bc1f1ed14610150575b600080fd5b6100bd60048036038101906100b89190610d90565b6101fc565b6040516100ca91906111c2565b60405180910390f35b6100ed60048036038101906100e89190610db9565b6102b7565b6040516100fa91906111c2565b60405180910390f35b61011d60048036038101906101189190610ea7565b610357565b005b61013960048036038101906101349190610f82565b6105b0565b604051610147929190611192565b60405180910390f35b61016a60048036038101906101659190610e44565b61069c565b005b61018660048036038101906101819190610f0a565b6107db565b005b610190610892565b005b6101ac60048036038101906101a79190610d90565b610a18565b6040516101b99190611049565b60405180910390f35b6101ca610ad6565b6040516101d79190611049565b60405180910390f35b6101fa60048036038101906101f59190610d90565b610aff565b005b6000808290508073ffffffffffffffffffffffffffffffffffffffff1663dd62ed3e33600960009054906101000a900473ffffffffffffffffffffffffffffffffffffffff166040518363ffffffff1660e01b815260040161025f929190611064565b60206040518083038186803b15801561027757600080fd5b505afa15801561028b573d6000803e3d6000fd5b505050506040513d601f19601f820116820180604052508101906102af9190610fab565b915050919050565b6000806102c384610a18565b90508073ffffffffffffffffffffffffffffffffffffffff166370a08231846040518263ffffffff1660e01b81526004016102fe9190611049565b60206040518083038186803b15801561031657600080fd5b505afa15801561032a573d6000803e3d6000fd5b505050506040513d601f19601f8201168201806040525081019061034e9190610fab565b91505092915050565b60008490506001151582151514801561041e57506007548173ffffffffffffffffffffffffffffffffffffffff1663dd62ed3e86600260009054906101000a900473ffffffffffffffffffffffffffffffffffffffff166040518363ffffffff1660e01b81526004016103cb92919061108d565b60206040518083038186803b1580156103e357600080fd5b505afa1580156103f7573d6000803e3d6000fd5b505050506040513d601f19601f8201168201806040525081019061041b9190610fab565b11155b156104f8578073ffffffffffffffffffffffffffffffffffffffff1663095ea7b3600260009054906101000a900473ffffffffffffffffffffffffffffffffffffffff167fffffffffffffffffffffffffffffffffffffffffffffffffffffffffffffffff6040518363ffffffff1660e01b81526004016104a09291906110ed565b602060405180830381600087803b1580156104ba57600080fd5b505af11580156104ce573d6000803e3d6000fd5b505050506040513d601f19601f820116820180604052508101906104f29190610f59565b506105a9565b8073ffffffffffffffffffffffffffffffffffffffff1663095ea7b3600260009054906101000a900473ffffffffffffffffffffffffffffffffffffffff16856040518363ffffffff1660e01b81526004016105559291906110ed565b602060405180830381600087803b15801561056f57600080fd5b505af1158015610583573d6000803e3d6000fd5b505050506040513d601f19601f820116820180604052508101906105a79190610f59565b505b5050505050565b600881815481106105c057600080fd5b9060005260206000209060020201600091509050806000018054600181600116156101000203166002900480601f01602080910402602001604051908101604052809291908181526020018280546001816001161561010002031660029004801561066c5780601f106106415761010080835404028352916020019161066c565b820191906000526020600020905b81548152906001019060200180831161064f57829003601f168201915b5050505050908060010160009054906101000a900473ffffffffffffffffffffffffffffffffffffffff16905082565b60008490508073ffffffffffffffffffffffffffffffffffffffff166323b872dd8330866040518463ffffffff1660e01b81526004016106de939291906110b6565b602060405180830381600087803b1580156106f857600080fd5b505af115801561070c573d6000803e3d6000fd5b505050506040513d601f19601f820116820180604052508101906107309190610f59565b50600960009054906101000a900473ffffffffffffffffffffffffffffffffffffffff1673ffffffffffffffffffffffffffffffffffffffff1663e8eda9df868587600660149054906101000a900461ffff166040518563ffffffff1660e01b81526004016107a2949392919061114d565b600060405180830381600087803b1580156107bc57600080fd5b505af11580156107d0573d6000803e3d6000fd5b505050505050505050565b600960009054906101000a900473ffffffffffffffffffffffffffffffffffffffff1673ffffffffffffffffffffffffffffffffffffffff166369328dec8484846040518463ffffffff1660e01b815260040161083a93929190611116565b602060405180830381600087803b15801561085457600080fd5b505af1158015610868573d6000803e3d6000fd5b505050506040513d601f19601f8201168201806040525081019061088c9190610fab565b50505050565b61089a610d0a565b73ffffffffffffffffffffffffffffffffffffffff1660008054906101000a900473ffffffffffffffffffffffffffffffffffffffff1673ffffffffffffffffffffffffffffffffffffffff161461095a576040517f08c379a00000000000000000000000000000000000000000000000000000000081526004018080602001828103825260208152602001807f4f776e61626c653a2063616c6c6572206973206e6f7420746865206f776e657281525060200191505060405180910390fd5b600073ffffffffffffffffffffffffffffffffffffffff1660008054906101000a900473ffffffffffffffffffffffffffffffffffffffff1673ffffffffffffffffffffffffffffffffffffffff167f8be0079c531659141344cd1fd0a4f28419497f9722a3daafe3b4186f6b6457e060405160405180910390a360008060006101000a81548173ffffffffffffffffffffffffffffffffffffffff021916908373ffffffffffffffffffffffffffffffffffffffff160217905550565b600080600b60009054906101000a900473ffffffffffffffffffffffffffffffffffffffff1673ffffffffffffffffffffffffffffffffffffffff1663d2493b6c846040518263ffffffff1660e01b8152600401610a769190611049565b60606040518083038186803b158015610a8e57600080fd5b505afa158015610aa2573d6000803e3d6000fd5b505050506040513d601f19601f82011682018060405250810190610ac69190610df5565b9050508091505080915050919050565b60008060009054906101000a900473ffffffffffffffffffffffffffffffffffffffff16905090565b610b07610d0a565b73ffffffffffffffffffffffffffffffffffffffff1660008054906101000a900473ffffffffffffffffffffffffffffffffffffffff1673ffffffffffffffffffffffffffffffffffffffff1614610bc7576040517f08c379a00000000000000000000000000000000000000000000000000000000081526004018080602001828103825260208152602001807f4f776e61626c653a2063616c6c6572206973206e6f7420746865206f776e657281525060200191505060405180910390fd5b600073ffffffffffffffffffffffffffffffffffffffff168173ffffffffffffffffffffffffffffffffffffffff161415610c4d576040517f08c379a000000000000000000000000000000000000000000000000000000000815260040180806020018281038252602681526020018061130f6026913960400191505060405180910390fd5b8073ffffffffffffffffffffffffffffffffffffffff1660008054906101000a900473ffffffffffffffffffffffffffffffffffffffff1673ffffffffffffffffffffffffffffffffffffffff167f8be0079c531659141344cd1fd0a4f28419497f9722a3daafe3b4186f6b6457e060405160405180910390a3806000806101000a81548173ffffffffffffffffffffffffffffffffffffffff021916908373ffffffffffffffffffffffffffffffffffffffff16021790555050565b600033905090565b600081359050610d21816112c9565b92915050565b600081519050610d36816112c9565b92915050565b600081359050610d4b816112e0565b92915050565b600081519050610d60816112e0565b92915050565b600081359050610d75816112f7565b92915050565b600081519050610d8a816112f7565b92915050565b600060208284031215610da257600080fd5b6000610db084828501610d12565b91505092915050565b60008060408385031215610dcc57600080fd5b6000610dda85828601610d12565b9250506020610deb85828601610d12565b9150509250929050565b600080600060608486031215610e0a57600080fd5b6000610e1886828701610d27565b9350506020610e2986828701610d27565b9250506040610e3a86828701610d27565b9150509250925092565b60008060008060808587031215610e5a57600080fd5b6000610e6887828801610d12565b9450506020610e7987828801610d12565b9350506040610e8a87828801610d66565b9250506060610e9b87828801610d12565b91505092959194509250565b60008060008060808587031215610ebd57600080fd5b6000610ecb87828801610d12565b9450506020610edc87828801610d12565b9350506040610eed87828801610d66565b9250506060610efe87828801610d3c565b91505092959194509250565b600080600060608486031215610f1f57600080fd5b6000610f2d86828701610d12565b9350506020610f3e86828701610d66565b9250506040610f4f86828701610d12565b9150509250925092565b600060208284031215610f6b57600080fd5b6000610f7984828501610d51565b91505092915050565b600060208284031215610f9457600080fd5b6000610fa284828501610d66565b91505092915050565b600060208284031215610fbd57600080fd5b6000610fcb84828501610d7b565b91505092915050565b610fdd8161124f565b82525050565b610fec816111f9565b82525050565b6000610ffd826111dd565b61100781856111e8565b9350611017818560208601611285565b611020816112b8565b840191505092915050565b61103481611217565b82525050565b61104381611245565b82525050565b600060208201905061105e6000830184610fe3565b92915050565b60006040820190506110796000830185610fd4565b6110866020830184610fe3565b9392505050565b60006040820190506110a26000830185610fe3565b6110af6020830184610fe3565b9392505050565b60006060820190506110cb6000830186610fe3565b6110d86020830185610fe3565b6110e5604083018461103a565b949350505050565b60006040820190506111026000830185610fe3565b61110f602083018461103a565b9392505050565b600060608201905061112b6000830186610fe3565b611138602083018561103a565b6111456040830184610fe3565b949350505050565b60006080820190506111626000830187610fe3565b61116f602083018661103a565b61117c6040830185610fe3565b611189606083018461102b565b95945050505050565b600060408201905081810360008301526111ac8185610ff2565b90506111bb6020830184610fe3565b9392505050565b60006020820190506111d7600083018461103a565b92915050565b600081519050919050565b600082825260208201905092915050565b600061120482611225565b9050919050565b60008115159050919050565b600061ffff82169050919050565b600073ffffffffffffffffffffffffffffffffffffffff82169050919050565b6000819050919050565b600061125a82611261565b9050919050565b600061126c82611273565b9050919050565b600061127e82611225565b9050919050565b60005b838110156112a3578082015181840152602081019050611288565b838111156112b2576000848401525b50505050565b6000601f19601f8301169050919050565b6112d2816111f9565b81146112dd57600080fd5b50565b6112e98161120b565b81146112f457600080fd5b50565b61130081611245565b811461130b57600080fd5b5056fe4f776e61626c653a206e6577206f776e657220697320746865207a65726f2061646472657373a2646970667358221220cdce22dfb62eec0b2d744a957fe5d09dfd085a673a68ba475b4b0256af10e4e264736f6c63430007040033",
  "immutableReferences": {},
  "source": "// SPDX-License-Identifier: MIT\r\npragma solidity ^0.7.0;\r\npragma experimental ABIEncoderV2;\r\n\r\nimport \"interfaces/ILendingPool.sol\";\r\nimport \"interfaces/IProtocolDataProvider.sol\";\r\nimport \"@openzeppelin/contracts/access/Ownable.sol\";\r\n//import \"@openzeppelin/contracts/drafts/ERC20Permit.sol\"; \r\nimport \"@openzeppelin/contracts/token/ERC20/IERC20.sol\";\r\n//import \"@openzeppelin/contracts/token/ERC20/ERC20.sol\";\r\nimport \"@openzeppelin/contracts/math/SafeMath.sol\";\r\nimport \"@openzeppelin/contracts/utils/SafeCast.sol\";\r\n\r\n  /**\r\n   * @title Manages depositing and withdrawing from Aave\r\n   * @notice part of the StakeYourName DApp\r\n   * @author Daniel Chilvers\r\n   **/\r\ncontract InvestmentManager is Ownable {\r\n\r\n    using SafeMath for uint256;\r\n\r\n    //address internal kovanLendingPool = 0x9FE532197ad76c5a68961439604C037EB79681F0;\r\n    //address internal mainLendingPool = 0x7d2768dE32b0b80b7a3454c06BdAc94A69DDc7A9;\r\n    address internal zeroAddress = address(0);\r\n    address internal lendingPooladdress = zeroAddress;\r\n    address internal kovanLendingPoolAddressProviderAddress = 0x88757f2f99175387aB4C6a4b3067c77A695b0349;\r\n    address internal mainLendingPoolAddressProviderAddress = 0xB53C1a33016B2DC2fF3653530bfF1848a515c8c5;\r\n    address internal lendingPoolAddressProviderAddress = zeroAddress;\r\n    address internal ProtocolDataProviderAddress = zeroAddress;\r\n\r\n    uint16 referralCode = 0;\r\n    uint256 constant MAX_INT = type(uint256).max;\r\n    uint256 internal MIN_APPROVAL = type(uint256).max/2;\r\n\r\n    IProtocolDataProvider.TokenData[] public aTokens;\r\n\r\n    ILendingPool lendingPool;\r\n    ILendingPoolAddressesProvider lendingPoolAddressesProvider;\r\n    IProtocolDataProvider protocolDataProvider;\r\n    IERC20 ierc20;\r\n\r\n    constructor(uint _networkID) {\r\n        /// @dev truffle will pass in the networkID when migrated, use this to select the correct addresses\r\n        /// @dev uprgading to ^0.8.0 we could use block.chainid instead\r\n        if (_networkID == 1){\r\n            lendingPoolAddressProviderAddress = mainLendingPoolAddressProviderAddress;\r\n            protocolDataProvider = IProtocolDataProvider(0x057835Ad21a177dbdd3090bB1CAE03EaCF78Fc6d);\r\n        } else if (_networkID == 42){\r\n            lendingPoolAddressProviderAddress = kovanLendingPoolAddressProviderAddress;\r\n            protocolDataProvider = IProtocolDataProvider(0x3c73A5E5785cAC854D468F727c606C07488a29D6);\r\n        } \r\n        lendingPoolAddressesProvider = ILendingPoolAddressesProvider(lendingPoolAddressProviderAddress);\r\n        lendingPooladdress =  lendingPoolAddressesProvider.getLendingPool();\r\n        //protocolDataProvider = IProtocolDataProvider(lendingPoolAddressesProvider.getAddress(bytes32('0x1')));\r\n        lendingPool = ILendingPool(lendingPooladdress);\r\n    }\r\n\r\n    event debug(address _address, uint256 state);\r\n\r\n    /// @notice Approves sending _asset ERC20 tokens to the lendingPool\r\n    /// @param _asset the address of asset contract\r\n    /// @param _userVault the address of the user vault\r\n    /// @param _amount the amount to approve\r\n    /// @param _max if true ignore _amount and approve for a large amount\r\n    /// @dev this needs to be called for each new asset purchased\r\n    function approveLendingPool(address _asset, address _userVault, uint256 _amount, bool _max) external {\r\n        IERC20 _erc20 = IERC20(_asset);\r\n        if (_max == true && _erc20.allowance(_userVault, lendingPooladdress) <= MIN_APPROVAL){\r\n            _erc20.approve(lendingPooladdress, MAX_INT);\r\n        } else {\r\n        _erc20.approve(lendingPooladdress, _amount);\r\n        }\r\n    }\r\n\r\n    function getAToken(address _asset) public view returns(address){\r\n        address _aTokenAddress;\r\n        (_aTokenAddress,,) = protocolDataProvider.getReserveTokensAddresses(_asset);\r\n        return _aTokenAddress;\r\n    }\r\n\r\n    function getATokenBalance(address _asset, address _userVault) external view returns(uint256){\r\n        IERC20 _erc20 = IERC20(getAToken(_asset));\r\n        return _erc20.balanceOf(_userVault);\r\n    }\r\n\r\n    /// @dev User must have approved this contract before this is called\r\n    function deposit(address _asset, address _userVault, uint256 _amount, address _from) external {\r\n        IERC20 _erc20 = IERC20(_asset);\r\n        _erc20.transferFrom(_from, address(this), _amount);\r\n        lendingPool.deposit(_asset, _amount, _userVault, referralCode);\r\n    }\r\n\r\n    function checkAllowance(address _asset) external view returns(uint256){\r\n        IERC20 _erc20 = IERC20(_asset);\r\n        return _erc20.allowance(msg.sender, address(lendingPool));\r\n    }\r\n\r\n    ///@dev put these transfers into require statements\r\n    function withdraw(address _asset, uint256 _amount, address _user) external {\r\n        lendingPool.withdraw(_asset, _amount, _user);\r\n    }\r\n}",
  "sourcePath": "C:/Users/anyth/Documents/GitHub/StakeYourName/contracts/InvestmentManager.sol",
  "compiler": {
    "name": "solc",
    "version": "0.7.4+commit.3f05b770.Emscripten.clang"
  },
  "schemaVersion": "3.3.3",
  "updatedAt": "2021-01-26T22:00:53.192Z",
  "networkType": "ethereum",
  "devdoc": {
    "author": "Daniel Chilvers*",
    "kind": "dev",
    "methods": {
      "approveLendingPool(address,address,uint256,bool)": {
        "details": "this needs to be called for each new asset purchased",
        "params": {
          "_amount": "the amount to approve",
          "_asset": "the address of asset contract",
          "_max": "if true ignore _amount and approve for a large amount",
          "_userVault": "the address of the user vault"
        }
      },
      "deposit(address,address,uint256,address)": {
        "details": "User must have approved this contract before this is called"
      },
      "owner()": {
        "details": "Returns the address of the current owner."
      },
      "renounceOwnership()": {
        "details": "Leaves the contract without owner. It will not be possible to call `onlyOwner` functions anymore. Can only be called by the current owner. NOTE: Renouncing ownership will leave the contract without an owner, thereby removing any functionality that is only available to the owner."
      },
      "transferOwnership(address)": {
        "details": "Transfers ownership of the contract to a new account (`newOwner`). Can only be called by the current owner."
      },
      "withdraw(address,uint256,address)": {
        "details": "put these transfers into require statements"
      }
    },
    "title": "Manages depositing and withdrawing from Aave",
    "version": 1
  },
  "userdoc": {
    "kind": "user",
    "methods": {
      "approveLendingPool(address,address,uint256,bool)": {
        "notice": "Approves sending _asset ERC20 tokens to the lendingPool"
      }
    },
    "notice": "part of the StakeYourName DApp",
    "version": 1
  }
}