{
  "contractName": "InvestmentManager",
  "abi": [
    {
      "inputs": [
        {
          "internalType": "uint256",
          "name": "_networkID",
          "type": "uint256"
        }
      ],
      "stateMutability": "nonpayable",
      "type": "constructor"
    },
    {
      "anonymous": false,
      "inputs": [
        {
          "indexed": true,
          "internalType": "address",
          "name": "previousOwner",
          "type": "address"
        },
        {
          "indexed": true,
          "internalType": "address",
          "name": "newOwner",
          "type": "address"
        }
      ],
      "name": "OwnershipTransferred",
      "type": "event"
    },
    {
      "anonymous": false,
      "inputs": [
        {
          "indexed": false,
          "internalType": "address",
          "name": "_address",
          "type": "address"
        },
        {
          "indexed": false,
          "internalType": "uint256",
          "name": "state",
          "type": "uint256"
        }
      ],
      "name": "debug",
      "type": "event"
    },
    {
      "inputs": [
        {
          "internalType": "uint256",
          "name": "",
          "type": "uint256"
        }
      ],
      "name": "aTokens",
      "outputs": [
        {
          "internalType": "string",
          "name": "symbol",
          "type": "string"
        },
        {
          "internalType": "address",
          "name": "tokenAddress",
          "type": "address"
        }
      ],
      "stateMutability": "view",
      "type": "function",
      "constant": true
    },
    {
      "inputs": [
        {
          "internalType": "uint256",
          "name": "",
          "type": "uint256"
        }
      ],
      "name": "assetList",
      "outputs": [
        {
          "internalType": "address",
          "name": "",
          "type": "address"
        }
      ],
      "stateMutability": "view",
      "type": "function",
      "constant": true
    },
    {
      "inputs": [],
      "name": "owner",
      "outputs": [
        {
          "internalType": "address",
          "name": "",
          "type": "address"
        }
      ],
      "stateMutability": "view",
      "type": "function",
      "constant": true
    },
    {
      "inputs": [],
      "name": "renounceOwnership",
      "outputs": [],
      "stateMutability": "nonpayable",
      "type": "function"
    },
    {
      "inputs": [
        {
          "internalType": "address",
          "name": "newOwner",
          "type": "address"
        }
      ],
      "name": "transferOwnership",
      "outputs": [],
      "stateMutability": "nonpayable",
      "type": "function"
    },
    {
      "inputs": [
        {
          "internalType": "uint256",
          "name": "",
          "type": "uint256"
        }
      ],
      "name": "userList",
      "outputs": [
        {
          "internalType": "address",
          "name": "",
          "type": "address"
        }
      ],
      "stateMutability": "view",
      "type": "function",
      "constant": true
    },
    {
      "inputs": [
        {
          "internalType": "address",
          "name": "_asset",
          "type": "address"
        }
      ],
      "name": "approveLendingPool",
      "outputs": [],
      "stateMutability": "nonpayable",
      "type": "function"
    },
    {
      "inputs": [
        {
          "internalType": "address",
          "name": "_asset",
          "type": "address"
        }
      ],
      "name": "userBalance",
      "outputs": [
        {
          "internalType": "uint128",
          "name": "",
          "type": "uint128"
        }
      ],
      "stateMutability": "view",
      "type": "function",
      "constant": true
    },
    {
      "inputs": [
        {
          "internalType": "address",
          "name": "_asset",
          "type": "address"
        }
      ],
      "name": "userInterest",
      "outputs": [
        {
          "internalType": "uint128",
          "name": "",
          "type": "uint128"
        }
      ],
      "stateMutability": "view",
      "type": "function",
      "constant": true
    },
    {
      "inputs": [
        {
          "internalType": "address",
          "name": "_asset",
          "type": "address"
        }
      ],
      "name": "calculateInterest",
      "outputs": [],
      "stateMutability": "nonpayable",
      "type": "function"
    },
    {
      "inputs": [
        {
          "internalType": "address",
          "name": "_asset",
          "type": "address"
        },
        {
          "internalType": "uint256",
          "name": "_amount",
          "type": "uint256"
        }
      ],
      "name": "depositTest",
      "outputs": [],
      "stateMutability": "nonpayable",
      "type": "function"
    },
    {
      "inputs": [
        {
          "internalType": "address",
          "name": "_asset",
          "type": "address"
        },
        {
          "internalType": "uint256",
          "name": "_amount",
          "type": "uint256"
        }
      ],
      "name": "withdrawTest",
      "outputs": [],
      "stateMutability": "nonpayable",
      "type": "function"
    },
    {
      "inputs": [
        {
          "internalType": "address",
          "name": "_asset",
          "type": "address"
        },
        {
          "internalType": "uint128",
          "name": "_amount",
          "type": "uint128"
        }
      ],
      "name": "approveDeposit",
      "outputs": [],
      "stateMutability": "nonpayable",
      "type": "function"
    },
    {
      "inputs": [
        {
          "internalType": "address",
          "name": "_asset",
          "type": "address"
        }
      ],
      "name": "checkAssetList",
      "outputs": [
        {
          "internalType": "bool",
          "name": "",
          "type": "bool"
        }
      ],
      "stateMutability": "view",
      "type": "function",
      "constant": true
    },
    {
      "inputs": [
        {
          "internalType": "address",
          "name": "_asset",
          "type": "address"
        }
      ],
      "name": "addAsset",
      "outputs": [],
      "stateMutability": "nonpayable",
      "type": "function"
    },
    {
      "inputs": [
        {
          "internalType": "address",
          "name": "_asset",
          "type": "address"
        }
      ],
      "name": "checkUserList",
      "outputs": [
        {
          "internalType": "bool",
          "name": "",
          "type": "bool"
        }
      ],
      "stateMutability": "view",
      "type": "function",
      "constant": true
    },
    {
      "inputs": [
        {
          "internalType": "address",
          "name": "_asset",
          "type": "address"
        }
      ],
      "name": "addUser",
      "outputs": [],
      "stateMutability": "nonpayable",
      "type": "function"
    },
    {
      "inputs": [
        {
          "internalType": "address",
          "name": "_asset",
          "type": "address"
        }
      ],
      "name": "checkAllowance",
      "outputs": [
        {
          "internalType": "uint256",
          "name": "",
          "type": "uint256"
        }
      ],
      "stateMutability": "nonpayable",
      "type": "function"
    },
    {
      "inputs": [
        {
          "internalType": "address",
          "name": "_asset",
          "type": "address"
        },
        {
          "internalType": "uint128",
          "name": "_amount",
          "type": "uint128"
        }
      ],
      "name": "deposit",
      "outputs": [],
      "stateMutability": "nonpayable",
      "type": "function"
    },
    {
      "inputs": [
        {
          "internalType": "address",
          "name": "_asset",
          "type": "address"
        },
        {
          "internalType": "uint256",
          "name": "_amount",
          "type": "uint256"
        }
      ],
      "name": "approveATokenBurn",
      "outputs": [],
      "stateMutability": "nonpayable",
      "type": "function"
    },
    {
      "inputs": [
        {
          "internalType": "address",
          "name": "_asset",
          "type": "address"
        },
        {
          "internalType": "uint128",
          "name": "_amount",
          "type": "uint128"
        }
      ],
      "name": "withdraw",
      "outputs": [],
      "stateMutability": "nonpayable",
      "type": "function"
    },
    {
      "inputs": [
        {
          "internalType": "address",
          "name": "_asset",
          "type": "address"
        },
        {
          "internalType": "uint128",
          "name": "_amount",
          "type": "uint128"
        }
      ],
      "name": "convertInterestToBalance",
      "outputs": [],
      "stateMutability": "nonpayable",
      "type": "function"
    },
    {
      "inputs": [
        {
          "internalType": "address",
          "name": "_asset",
          "type": "address"
        }
      ],
      "name": "userTotal",
      "outputs": [
        {
          "internalType": "uint128",
          "name": "",
          "type": "uint128"
        }
      ],
      "stateMutability": "view",
      "type": "function",
      "constant": true
    },
    {
      "inputs": [],
      "name": "withdrawAll",
      "outputs": [],
      "stateMutability": "nonpayable",
      "type": "function"
    },
    {
      "inputs": [
        {
          "internalType": "uint16",
          "name": "_code",
          "type": "uint16"
        }
      ],
      "name": "updateReferalCode",
      "outputs": [],
      "stateMutability": "nonpayable",
      "type": "function"
    },
    {
      "inputs": [],
      "name": "checkLendingPoolAddress",
      "outputs": [
        {
          "internalType": "address",
          "name": "",
          "type": "address"
        }
      ],
      "stateMutability": "view",
      "type": "function",
      "constant": true
    },
    {
      "inputs": [],
      "name": "checkLendingPoolAddressProviderAddress",
      "outputs": [
        {
          "internalType": "address",
          "name": "",
          "type": "address"
        }
      ],
      "stateMutability": "view",
      "type": "function",
      "constant": true
    },
    {
      "inputs": [],
      "name": "checkProtocolDataProvider",
      "outputs": [
        {
          "internalType": "address",
          "name": "",
          "type": "address"
        }
      ],
      "stateMutability": "view",
      "type": "function",
      "constant": true
    },
    {
      "inputs": [
        {
          "internalType": "bytes1",
          "name": "_bytes",
          "type": "bytes1"
        }
      ],
      "name": "updateProtocolDataProvider",
      "outputs": [
        {
          "internalType": "address",
          "name": "",
          "type": "address"
        },
        {
          "internalType": "bytes32",
          "name": "",
          "type": "bytes32"
        }
      ],
      "stateMutability": "nonpayable",
      "type": "function"
    },
    {
      "inputs": [
        {
          "internalType": "address",
          "name": "_asset",
          "type": "address"
        }
      ],
      "name": "checkaTokenAddress",
      "outputs": [
        {
          "internalType": "address",
          "name": "",
          "type": "address"
        }
      ],
      "stateMutability": "view",
      "type": "function",
      "constant": true
    },
    {
      "inputs": [],
      "name": "updateLendingPoolAddress",
      "outputs": [
        {
          "internalType": "address",
          "name": "",
          "type": "address"
        }
      ],
      "stateMutability": "nonpayable",
      "type": "function"
    }
  ],
  "bytecode": "0x608060405261dead600160006101000a81548173ffffffffffffffffffffffffffffffffffffffff021916908373ffffffffffffffffffffffffffffffffffffffff160217905550600160009054906101000a900473ffffffffffffffffffffffffffffffffffffffff16600260006101000a81548173ffffffffffffffffffffffffffffffffffffffff021916908373ffffffffffffffffffffffffffffffffffffffff1602179055507388757f2f99175387ab4c6a4b3067c77a695b0349600360006101000a81548173ffffffffffffffffffffffffffffffffffffffff021916908373ffffffffffffffffffffffffffffffffffffffff16021790555073b53c1a33016b2dc2ff3653530bff1848a515c8c5600460006101000a81548173ffffffffffffffffffffffffffffffffffffffff021916908373ffffffffffffffffffffffffffffffffffffffff160217905550600160009054906101000a900473ffffffffffffffffffffffffffffffffffffffff16600560006101000a81548173ffffffffffffffffffffffffffffffffffffffff021916908373ffffffffffffffffffffffffffffffffffffffff160217905550600160009054906101000a900473ffffffffffffffffffffffffffffffffffffffff16600660006101000a81548173ffffffffffffffffffffffffffffffffffffffff021916908373ffffffffffffffffffffffffffffffffffffffff160217905550736b175474e89094c44da98b954eedeac495271d0f600760006101000a81548173ffffffffffffffffffffffffffffffffffffffff021916908373ffffffffffffffffffffffffffffffffffffffff16021790555073a0b86991c6218b36c1d19d4a2e9eb0ce3606eb48600860006101000a81548173ffffffffffffffffffffffffffffffffffffffff021916908373ffffffffffffffffffffffffffffffffffffffff1602179055506000600860146101000a81548161ffff021916908361ffff160217905550348015620002ef57600080fd5b506040516200544738038062005447833981810160405281019062000315919062000764565b6000620003276200070260201b60201c565b9050806000806101000a81548173ffffffffffffffffffffffffffffffffffffffff021916908373ffffffffffffffffffffffffffffffffffffffff1602179055508073ffffffffffffffffffffffffffffffffffffffff16600073ffffffffffffffffffffffffffffffffffffffff167f8be0079c531659141344cd1fd0a4f28419497f9722a3daafe3b4186f6b6457e060405160405180910390a35060018114156200048d57600460009054906101000a900473ffffffffffffffffffffffffffffffffffffffff16600560006101000a81548173ffffffffffffffffffffffffffffffffffffffff021916908373ffffffffffffffffffffffffffffffffffffffff16021790555073057835ad21a177dbdd3090bb1cae03eacf78fc6d601060006101000a81548173ffffffffffffffffffffffffffffffffffffffff021916908373ffffffffffffffffffffffffffffffffffffffff16021790555062000551565b602a8114156200055057600360009054906101000a900473ffffffffffffffffffffffffffffffffffffffff16600560006101000a81548173ffffffffffffffffffffffffffffffffffffffff021916908373ffffffffffffffffffffffffffffffffffffffff160217905550733c73a5e5785cac854d468f727c606c07488a29d6601060006101000a81548173ffffffffffffffffffffffffffffffffffffffff021916908373ffffffffffffffffffffffffffffffffffffffff1602179055505b5b600560009054906101000a900473ffffffffffffffffffffffffffffffffffffffff16600f60006101000a81548173ffffffffffffffffffffffffffffffffffffffff021916908373ffffffffffffffffffffffffffffffffffffffff160217905550600f60009054906101000a900473ffffffffffffffffffffffffffffffffffffffff1673ffffffffffffffffffffffffffffffffffffffff16630261bf8b6040518163ffffffff1660e01b815260040160206040518083038186803b1580156200061d57600080fd5b505afa15801562000632573d6000803e3d6000fd5b505050506040513d601f19601f8201168201806040525081019062000658919062000738565b600260006101000a81548173ffffffffffffffffffffffffffffffffffffffff021916908373ffffffffffffffffffffffffffffffffffffffff160217905550600260009054906101000a900473ffffffffffffffffffffffffffffffffffffffff16600e60006101000a81548173ffffffffffffffffffffffffffffffffffffffff021916908373ffffffffffffffffffffffffffffffffffffffff1602179055505062000802565b600033905090565b6000815190506200071b81620007ce565b92915050565b6000815190506200073281620007e8565b92915050565b6000602082840312156200074b57600080fd5b60006200075b848285016200070a565b91505092915050565b6000602082840312156200077757600080fd5b6000620007878482850162000721565b91505092915050565b60006200079d82620007a4565b9050919050565b600073ffffffffffffffffffffffffffffffffffffffff82169050919050565b6000819050919050565b620007d98162000790565b8114620007e557600080fd5b50565b620007f381620007c4565b8114620007ff57600080fd5b50565b614c3580620008126000396000f3fe608060405234801561001057600080fd5b50600436106101e55760003560e01c8063853828b61161010f578063aaf298a4116100a2578063d68076c311610071578063d68076c31461057a578063e11932cf146105aa578063e601cf44146105c6578063f2fde38b146105f6576101e5565b8063aaf298a4146104f2578063b3fb656414610510578063d15c89e81461052c578063d53f5c431461054a576101e5565b806390df87e8116100de57806390df87e8146104465780639f4216e814610476578063a0b4b301146104a6578063a94352a3146104d6576101e5565b8063853828b6146103bd5780638b66d5da146103c75780638da5cb5b146103f85780638edf3e2a14610416576101e5565b80633201e84911610187578063421b2d8b11610156578063421b2d8b1461035f5780636c0de4461461037b578063715018a614610397578063752850c1146103a1576101e5565b80633201e849146102d8578063324e4b57146102f4578063341a30d71461032557806339320f4414610341576101e5565b806317cad724116101c357806317cad724146102525780631a197a26146102705780631f880751146102a0578063298410e5146102bc576101e5565b80630103c92b146101ea57806308fab1671461021a57806310af519114610236575b600080fd5b61020460048036038101906101ff919061432f565b610612565b604051610211919061497e565b60405180910390f35b610234600480360381019061022f91906143d0565b6106b7565b005b610250600480360381019061024b919061449a565b611049565b005b61025a611131565b604051610267919061468a565b60405180910390f35b61028a6004803603810190610285919061432f565b6113c2565b6040516102979190614999565b60405180910390f35b6102ba60048036038101906102b5919061440c565b6114b9565b005b6102d660048036038101906102d1919061432f565b6116ee565b005b6102f260048036038101906102ed91906143d0565b611825565b005b61030e600480360381019061030991906144c3565b61198a565b60405161031c92919061490e565b60405180910390f35b61033f600480360381019061033a91906143d0565b611a76565b005b61034961214c565b604051610356919061468a565b60405180910390f35b6103796004803603810190610374919061432f565b612176565b005b6103956004803603810190610390919061440c565b6122e4565b005b61039f612462565b005b6103bb60048036038101906103b6919061440c565b6125e8565b005b6103c56127b4565b005b6103e160048036038101906103dc9190614471565b6128bc565b6040516103ef92919061473c565b60405180910390f35b6104006129fc565b60405161040d919061468a565b60405180910390f35b610430600480360381019061042b919061432f565b612a25565b60405161043d919061468a565b60405180910390f35b610460600480360381019061045b919061432f565b612ae3565b60405161046d91906148d8565b60405180910390f35b610490600480360381019061048b91906144c3565b612c01565b60405161049d919061468a565b60405180910390f35b6104c060048036038101906104bb91906144c3565b612c40565b6040516104cd919061468a565b60405180910390f35b6104f060048036038101906104eb919061432f565b612c7f565b005b6104fa612db5565b604051610507919061468a565b60405180910390f35b61052a600480360381019061052591906143d0565b612ddf565b005b61053461329a565b604051610541919061468a565b60405180910390f35b610564600480360381019061055f919061432f565b6132c4565b60405161057191906148d8565b60405180910390f35b610594600480360381019061058f919061432f565b613362565b6040516105a1919061497e565b60405180910390f35b6105c460048036038101906105bf919061432f565b613407565b005b6105e060048036038101906105db919061432f565b613a79565b6040516105ed919061497e565b60405180910390f35b610610600480360381019061060b919061432f565b613bc2565b005b6000600960003373ffffffffffffffffffffffffffffffffffffffff1673ffffffffffffffffffffffffffffffffffffffff16815260200190815260200160002060000160008373ffffffffffffffffffffffffffffffffffffffff1673ffffffffffffffffffffffffffffffffffffffff16815260200190815260200160002060009054906101000a90046fffffffffffffffffffffffffffffffff169050919050565b600073ffffffffffffffffffffffffffffffffffffffff168273ffffffffffffffffffffffffffffffffffffffff1614156106f157600080fd5b6000816fffffffffffffffffffffffffffffffff161161071057600080fd5b61071982613407565b600061085b600960003373ffffffffffffffffffffffffffffffffffffffff1673ffffffffffffffffffffffffffffffffffffffff16815260200190815260200160002060000160008573ffffffffffffffffffffffffffffffffffffffff1673ffffffffffffffffffffffffffffffffffffffff16815260200190815260200160002060009054906101000a90046fffffffffffffffffffffffffffffffff16600960003373ffffffffffffffffffffffffffffffffffffffff1673ffffffffffffffffffffffffffffffffffffffff16815260200190815260200160002060010160008673ffffffffffffffffffffffffffffffffffffffff1673ffffffffffffffffffffffffffffffffffffffff16815260200190815260200160002060009054906101000a90046fffffffffffffffffffffffffffffffff16613dcd565b90506000816fffffffffffffffffffffffffffffffff16836fffffffffffffffffffffffffffffffff161115610a01576000600960003373ffffffffffffffffffffffffffffffffffffffff1673ffffffffffffffffffffffffffffffffffffffff16815260200190815260200160002060000160008673ffffffffffffffffffffffffffffffffffffffff1673ffffffffffffffffffffffffffffffffffffffff16815260200190815260200160002060006101000a8154816fffffffffffffffffffffffffffffffff02191690836fffffffffffffffffffffffffffffffff1602179055506000600960003373ffffffffffffffffffffffffffffffffffffffff1673ffffffffffffffffffffffffffffffffffffffff16815260200190815260200160002060010160008673ffffffffffffffffffffffffffffffffffffffff1673ffffffffffffffffffffffffffffffffffffffff16815260200190815260200160002060006101000a8154816fffffffffffffffffffffffffffffffff02191690836fffffffffffffffffffffffffffffffff160217905550819050610ee4565b600960003373ffffffffffffffffffffffffffffffffffffffff1673ffffffffffffffffffffffffffffffffffffffff16815260200190815260200160002060000160008573ffffffffffffffffffffffffffffffffffffffff1673ffffffffffffffffffffffffffffffffffffffff16815260200190815260200160002060009054906101000a90046fffffffffffffffffffffffffffffffff166fffffffffffffffffffffffffffffffff16836fffffffffffffffffffffffffffffffff161115610d8557610c11600960003373ffffffffffffffffffffffffffffffffffffffff1673ffffffffffffffffffffffffffffffffffffffff16815260200190815260200160002060010160008673ffffffffffffffffffffffffffffffffffffffff1673ffffffffffffffffffffffffffffffffffffffff16815260200190815260200160002060009054906101000a90046fffffffffffffffffffffffffffffffff16610c0c85600960003373ffffffffffffffffffffffffffffffffffffffff1673ffffffffffffffffffffffffffffffffffffffff16815260200190815260200160002060000160008973ffffffffffffffffffffffffffffffffffffffff1673ffffffffffffffffffffffffffffffffffffffff16815260200190815260200160002060009054906101000a90046fffffffffffffffffffffffffffffffff16613e16565b613e16565b600960003373ffffffffffffffffffffffffffffffffffffffff1673ffffffffffffffffffffffffffffffffffffffff16815260200190815260200160002060010160008673ffffffffffffffffffffffffffffffffffffffff1673ffffffffffffffffffffffffffffffffffffffff16815260200190815260200160002060006101000a8154816fffffffffffffffffffffffffffffffff02191690836fffffffffffffffffffffffffffffffff1602179055506000600960003373ffffffffffffffffffffffffffffffffffffffff1673ffffffffffffffffffffffffffffffffffffffff16815260200190815260200160002060000160008673ffffffffffffffffffffffffffffffffffffffff1673ffffffffffffffffffffffffffffffffffffffff16815260200190815260200160002060006101000a8154816fffffffffffffffffffffffffffffffff02191690836fffffffffffffffffffffffffffffffff160217905550829050610ee3565b610e2a600960003373ffffffffffffffffffffffffffffffffffffffff1673ffffffffffffffffffffffffffffffffffffffff16815260200190815260200160002060000160008673ffffffffffffffffffffffffffffffffffffffff1673ffffffffffffffffffffffffffffffffffffffff16815260200190815260200160002060009054906101000a90046fffffffffffffffffffffffffffffffff1684613e16565b600960003373ffffffffffffffffffffffffffffffffffffffff1673ffffffffffffffffffffffffffffffffffffffff16815260200190815260200160002060000160008673ffffffffffffffffffffffffffffffffffffffff1673ffffffffffffffffffffffffffffffffffffffff16815260200190815260200160002060006101000a8154816fffffffffffffffffffffffffffffffff02191690836fffffffffffffffffffffffffffffffff1602179055508290505b5b600e60009054906101000a900473ffffffffffffffffffffffffffffffffffffffff1673ffffffffffffffffffffffffffffffffffffffff166369328dec8583336040518463ffffffff1660e01b8152600401610f43939291906147b7565b602060405180830381600087803b158015610f5d57600080fd5b505af1158015610f71573d6000803e3d6000fd5b505050506040513d601f19601f82011682018060405250810190610f9591906144ec565b50610ffd836fffffffffffffffffffffffffffffffff16600a60008773ffffffffffffffffffffffffffffffffffffffff1673ffffffffffffffffffffffffffffffffffffffff16815260200190815260200160002060000154613e5f90919063ffffffff16565b600a60008673ffffffffffffffffffffffffffffffffffffffff1673ffffffffffffffffffffffffffffffffffffffff1681526020019081526020016000206000018190555050505050565b611051613ea9565b73ffffffffffffffffffffffffffffffffffffffff1660008054906101000a900473ffffffffffffffffffffffffffffffffffffffff1673ffffffffffffffffffffffffffffffffffffffff1614611111576040517f08c379a00000000000000000000000000000000000000000000000000000000081526004018080602001828103825260208152602001807f4f776e61626c653a2063616c6c6572206973206e6f7420746865206f776e657281525060200191505060405180910390fd5b80600860146101000a81548161ffff021916908361ffff16021790555050565b600061113b613ea9565b73ffffffffffffffffffffffffffffffffffffffff1660008054906101000a900473ffffffffffffffffffffffffffffffffffffffff1673ffffffffffffffffffffffffffffffffffffffff16146111fb576040517f08c379a00000000000000000000000000000000000000000000000000000000081526004018080602001828103825260208152602001807f4f776e61626c653a2063616c6c6572206973206e6f7420746865206f776e657281525060200191505060405180910390fd5b600f60009054906101000a900473ffffffffffffffffffffffffffffffffffffffff1673ffffffffffffffffffffffffffffffffffffffff16630261bf8b6040518163ffffffff1660e01b815260040160206040518083038186803b15801561126357600080fd5b505afa158015611277573d6000803e3d6000fd5b505050506040513d601f19601f8201168201806040525081019061129b9190614358565b600260006101000a81548173ffffffffffffffffffffffffffffffffffffffff021916908373ffffffffffffffffffffffffffffffffffffffff160217905550600260009054906101000a900473ffffffffffffffffffffffffffffffffffffffff16600e60006101000a81548173ffffffffffffffffffffffffffffffffffffffff021916908373ffffffffffffffffffffffffffffffffffffffff1602179055507f5e425538c7e29a3d46eeeb3adb5e33e85e1548fb34404f88df642c95e2e0f9b7600260009054906101000a900473ffffffffffffffffffffffffffffffffffffffff16600a604051611392929190614765565b60405180910390a1600260009054906101000a900473ffffffffffffffffffffffffffffffffffffffff16905090565b600081601160006101000a81548173ffffffffffffffffffffffffffffffffffffffff021916908373ffffffffffffffffffffffffffffffffffffffff160217905550601160009054906101000a900473ffffffffffffffffffffffffffffffffffffffff1673ffffffffffffffffffffffffffffffffffffffff1663dd62ed3e33306040518363ffffffff1660e01b81526004016114629291906146a5565b60206040518083038186803b15801561147a57600080fd5b505afa15801561148e573d6000803e3d6000fd5b505050506040513d601f19601f820116820180604052508101906114b291906144ec565b9050919050565b81601160006101000a81548173ffffffffffffffffffffffffffffffffffffffff021916908373ffffffffffffffffffffffffffffffffffffffff160217905550601160009054906101000a900473ffffffffffffffffffffffffffffffffffffffff1673ffffffffffffffffffffffffffffffffffffffff166323b872dd3330846040518463ffffffff1660e01b815260040161155993929190614705565b602060405180830381600087803b15801561157357600080fd5b505af1158015611587573d6000803e3d6000fd5b505050506040513d601f19601f820116820180604052508101906115ab9190614448565b50600e60009054906101000a900473ffffffffffffffffffffffffffffffffffffffff1673ffffffffffffffffffffffffffffffffffffffff1663e8eda9df838330600860149054906101000a900461ffff166040518563ffffffff1660e01b815260040161161d9493929190614893565b600060405180830381600087803b15801561163757600080fd5b505af115801561164b573d6000803e3d6000fd5b505050506116a481600a60008573ffffffffffffffffffffffffffffffffffffffff1673ffffffffffffffffffffffffffffffffffffffff16815260200190815260200160002060000154613eb190919063ffffffff16565b600a60008473ffffffffffffffffffffffffffffffffffffffff1673ffffffffffffffffffffffffffffffffffffffff168152602001908152602001600020600001819055505050565b6116f6613ea9565b73ffffffffffffffffffffffffffffffffffffffff1660008054906101000a900473ffffffffffffffffffffffffffffffffffffffff1673ffffffffffffffffffffffffffffffffffffffff16146117b6576040517f08c379a00000000000000000000000000000000000000000000000000000000081526004018080602001828103825260208152602001807f4f776e61626c653a2063616c6c6572206973206e6f7420746865206f776e657281525060200191505060405180910390fd5b600b819080600181540180825580915050600190039060005260206000200160009091909190916101000a81548173ffffffffffffffffffffffffffffffffffffffff021916908373ffffffffffffffffffffffffffffffffffffffff16021790555061182281612c7f565b50565b600073ffffffffffffffffffffffffffffffffffffffff168273ffffffffffffffffffffffffffffffffffffffff16141561185f57600080fd5b6000816fffffffffffffffffffffffffffffffff161161187e57600080fd5b81601160006101000a81548173ffffffffffffffffffffffffffffffffffffffff021916908373ffffffffffffffffffffffffffffffffffffffff160217905550601160009054906101000a900473ffffffffffffffffffffffffffffffffffffffff1673ffffffffffffffffffffffffffffffffffffffff1663095ea7b330836040518363ffffffff1660e01b815260040161191c92919061478e565b602060405180830381600087803b15801561193657600080fd5b505af115801561194a573d6000803e3d6000fd5b505050506040513d601f19601f8201168201806040525081019061196e9190614448565b50611978826132c4565b61198657611985826116ee565b5b5050565b600d818154811061199a57600080fd5b9060005260206000209060020201600091509050806000018054600181600116156101000203166002900480601f016020809104026020016040519081016040528092919081815260200182805460018160011615610100020316600290048015611a465780601f10611a1b57610100808354040283529160200191611a46565b820191906000526020600020905b815481529060010190602001808311611a2957829003601f168201915b5050505050908060010160009054906101000a900473ffffffffffffffffffffffffffffffffffffffff16905082565b600073ffffffffffffffffffffffffffffffffffffffff168273ffffffffffffffffffffffffffffffffffffffff161415611ab057600080fd5b6000816fffffffffffffffffffffffffffffffff1611611acf57600080fd5b611ad882613407565b6000611ae383613a79565b9050600960003373ffffffffffffffffffffffffffffffffffffffff1673ffffffffffffffffffffffffffffffffffffffff16815260200190815260200160002060010160008473ffffffffffffffffffffffffffffffffffffffff1673ffffffffffffffffffffffffffffffffffffffff16815260200190815260200160002060009054906101000a90046fffffffffffffffffffffffffffffffff166fffffffffffffffffffffffffffffffff16826fffffffffffffffffffffffffffffffff161115611e5d57611cec600960003373ffffffffffffffffffffffffffffffffffffffff1673ffffffffffffffffffffffffffffffffffffffff16815260200190815260200160002060000160008573ffffffffffffffffffffffffffffffffffffffff1673ffffffffffffffffffffffffffffffffffffffff16815260200190815260200160002060009054906101000a90046fffffffffffffffffffffffffffffffff16600960003373ffffffffffffffffffffffffffffffffffffffff1673ffffffffffffffffffffffffffffffffffffffff16815260200190815260200160002060010160008673ffffffffffffffffffffffffffffffffffffffff1673ffffffffffffffffffffffffffffffffffffffff16815260200190815260200160002060009054906101000a90046fffffffffffffffffffffffffffffffff16613dcd565b600960003373ffffffffffffffffffffffffffffffffffffffff1673ffffffffffffffffffffffffffffffffffffffff16815260200190815260200160002060000160008573ffffffffffffffffffffffffffffffffffffffff1673ffffffffffffffffffffffffffffffffffffffff16815260200190815260200160002060006101000a8154816fffffffffffffffffffffffffffffffff02191690836fffffffffffffffffffffffffffffffff1602179055506000600960003373ffffffffffffffffffffffffffffffffffffffff1673ffffffffffffffffffffffffffffffffffffffff16815260200190815260200160002060010160008573ffffffffffffffffffffffffffffffffffffffff1673ffffffffffffffffffffffffffffffffffffffff16815260200190815260200160002060006101000a8154816fffffffffffffffffffffffffffffffff02191690836fffffffffffffffffffffffffffffffff160217905550612112565b611f02600960003373ffffffffffffffffffffffffffffffffffffffff1673ffffffffffffffffffffffffffffffffffffffff16815260200190815260200160002060010160008573ffffffffffffffffffffffffffffffffffffffff1673ffffffffffffffffffffffffffffffffffffffff16815260200190815260200160002060009054906101000a90046fffffffffffffffffffffffffffffffff1683613e16565b600960003373ffffffffffffffffffffffffffffffffffffffff1673ffffffffffffffffffffffffffffffffffffffff16815260200190815260200160002060010160008573ffffffffffffffffffffffffffffffffffffffff1673ffffffffffffffffffffffffffffffffffffffff16815260200190815260200160002060006101000a8154816fffffffffffffffffffffffffffffffff02191690836fffffffffffffffffffffffffffffffff16021790555061205c600960003373ffffffffffffffffffffffffffffffffffffffff1673ffffffffffffffffffffffffffffffffffffffff16815260200190815260200160002060000160008573ffffffffffffffffffffffffffffffffffffffff1673ffffffffffffffffffffffffffffffffffffffff16815260200190815260200160002060009054906101000a90046fffffffffffffffffffffffffffffffff1683613dcd565b600960003373ffffffffffffffffffffffffffffffffffffffff1673ffffffffffffffffffffffffffffffffffffffff16815260200190815260200160002060000160008573ffffffffffffffffffffffffffffffffffffffff1673ffffffffffffffffffffffffffffffffffffffff16815260200190815260200160002060006101000a8154816fffffffffffffffffffffffffffffffff02191690836fffffffffffffffffffffffffffffffff1602179055505b61211b83613a79565b6fffffffffffffffffffffffffffffffff16816fffffffffffffffffffffffffffffffff161461214757fe5b505050565b6000601060009054906101000a900473ffffffffffffffffffffffffffffffffffffffff16905090565b61217e613ea9565b73ffffffffffffffffffffffffffffffffffffffff1660008054906101000a900473ffffffffffffffffffffffffffffffffffffffff1673ffffffffffffffffffffffffffffffffffffffff161461223e576040517f08c379a00000000000000000000000000000000000000000000000000000000081526004018080602001828103825260208152602001807f4f776e61626c653a2063616c6c6572206973206e6f7420746865206f776e657281525060200191505060405180910390fd5b600a60008273ffffffffffffffffffffffffffffffffffffffff1673ffffffffffffffffffffffffffffffffffffffff168152602001908152602001600020600201339080600181540180825580915050600190039060005260206000200160009091909190916101000a81548173ffffffffffffffffffffffffffffffffffffffff021916908373ffffffffffffffffffffffffffffffffffffffff16021790555050565b6122ec613ea9565b73ffffffffffffffffffffffffffffffffffffffff1660008054906101000a900473ffffffffffffffffffffffffffffffffffffffff1673ffffffffffffffffffffffffffffffffffffffff16146123ac576040517f08c379a00000000000000000000000000000000000000000000000000000000081526004018080602001828103825260208152602001807f4f776e61626c653a2063616c6c6572206973206e6f7420746865206f776e657281525060200191505060405180910390fd5b600e60009054906101000a900473ffffffffffffffffffffffffffffffffffffffff1673ffffffffffffffffffffffffffffffffffffffff166369328dec8383336040518463ffffffff1660e01b815260040161240b9392919061485c565b602060405180830381600087803b15801561242557600080fd5b505af1158015612439573d6000803e3d6000fd5b505050506040513d601f19601f8201168201806040525081019061245d91906144ec565b505050565b61246a613ea9565b73ffffffffffffffffffffffffffffffffffffffff1660008054906101000a900473ffffffffffffffffffffffffffffffffffffffff1673ffffffffffffffffffffffffffffffffffffffff161461252a576040517f08c379a00000000000000000000000000000000000000000000000000000000081526004018080602001828103825260208152602001807f4f776e61626c653a2063616c6c6572206973206e6f7420746865206f776e657281525060200191505060405180910390fd5b600073ffffffffffffffffffffffffffffffffffffffff1660008054906101000a900473ffffffffffffffffffffffffffffffffffffffff1673ffffffffffffffffffffffffffffffffffffffff167f8be0079c531659141344cd1fd0a4f28419497f9722a3daafe3b4186f6b6457e060405160405180910390a360008060006101000a81548173ffffffffffffffffffffffffffffffffffffffff021916908373ffffffffffffffffffffffffffffffffffffffff160217905550565b6000601060009054906101000a900473ffffffffffffffffffffffffffffffffffffffff1673ffffffffffffffffffffffffffffffffffffffff1663d2493b6c846040518263ffffffff1660e01b8152600401612645919061468a565b60606040518083038186803b15801561265d57600080fd5b505afa158015612671573d6000803e3d6000fd5b505050506040513d601f19601f820116820180604052508101906126959190614381565b9050508091505080601160006101000a81548173ffffffffffffffffffffffffffffffffffffffff021916908373ffffffffffffffffffffffffffffffffffffffff160217905550601160009054906101000a900473ffffffffffffffffffffffffffffffffffffffff1673ffffffffffffffffffffffffffffffffffffffff1663095ea7b3600260009054906101000a900473ffffffffffffffffffffffffffffffffffffffff16846040518363ffffffff1660e01b815260040161275c929190614833565b602060405180830381600087803b15801561277657600080fd5b505af115801561278a573d6000803e3d6000fd5b505050506040513d601f19601f820116820180604052508101906127ae9190614448565b50505050565b6127bc613ea9565b73ffffffffffffffffffffffffffffffffffffffff1660008054906101000a900473ffffffffffffffffffffffffffffffffffffffff1673ffffffffffffffffffffffffffffffffffffffff161461287c576040517f08c379a00000000000000000000000000000000000000000000000000000000081526004018080602001828103825260208152602001807f4f776e61626c653a2063616c6c6572206973206e6f7420746865206f776e657281525060200191505060405180910390fd5b3373ffffffffffffffffffffffffffffffffffffffff166108fc479081150290604051600060405180830381858888f193505050506128ba57600080fd5b565b600080600f60009054906101000a900473ffffffffffffffffffffffffffffffffffffffff1673ffffffffffffffffffffffffffffffffffffffff166321f8a721846040518263ffffffff1660e01b815260040161291a91906148f3565b60206040518083038186803b15801561293257600080fd5b505afa158015612946573d6000803e3d6000fd5b505050506040513d601f19601f8201168201806040525081019061296a9190614358565b601060006101000a81548173ffffffffffffffffffffffffffffffffffffffff021916908373ffffffffffffffffffffffffffffffffffffffff160217905550601060009054906101000a900473ffffffffffffffffffffffffffffffffffffffff1683807effffffffffffffffffffffffffffffffffffffffffffffffffffffffffffff1916905091509150915091565b60008060009054906101000a900473ffffffffffffffffffffffffffffffffffffffff16905090565b600080601060009054906101000a900473ffffffffffffffffffffffffffffffffffffffff1673ffffffffffffffffffffffffffffffffffffffff1663d2493b6c846040518263ffffffff1660e01b8152600401612a83919061468a565b60606040518083038186803b158015612a9b57600080fd5b505afa158015612aaf573d6000803e3d6000fd5b505050506040513d601f19601f82011682018060405250810190612ad39190614381565b9050508091505080915050919050565b6000805b600a60008473ffffffffffffffffffffffffffffffffffffffff1673ffffffffffffffffffffffffffffffffffffffff16815260200190815260200160002060020180549050811015612bf6573373ffffffffffffffffffffffffffffffffffffffff16600a60008573ffffffffffffffffffffffffffffffffffffffff1673ffffffffffffffffffffffffffffffffffffffff1681526020019081526020016000206002018281548110612b9857fe5b9060005260206000200160009054906101000a900473ffffffffffffffffffffffffffffffffffffffff1673ffffffffffffffffffffffffffffffffffffffff161415612be9576001915050612bfc565b8080600101915050612ae7565b50600090505b919050565b600c8181548110612c1157600080fd5b906000526020600020016000915054906101000a900473ffffffffffffffffffffffffffffffffffffffff1681565b600b8181548110612c5057600080fd5b906000526020600020016000915054906101000a900473ffffffffffffffffffffffffffffffffffffffff1681565b80601160006101000a81548173ffffffffffffffffffffffffffffffffffffffff021916908373ffffffffffffffffffffffffffffffffffffffff160217905550601160009054906101000a900473ffffffffffffffffffffffffffffffffffffffff1673ffffffffffffffffffffffffffffffffffffffff1663095ea7b3600260009054906101000a900473ffffffffffffffffffffffffffffffffffffffff167fffffffffffffffffffffffffffffffffffffffffffffffffffffffffffffffff6040518363ffffffff1660e01b8152600401612d5f929190614833565b602060405180830381600087803b158015612d7957600080fd5b505af1158015612d8d573d6000803e3d6000fd5b505050506040513d601f19601f82011682018060405250810190612db19190614448565b5050565b6000600260009054906101000a900473ffffffffffffffffffffffffffffffffffffffff16905090565b600073ffffffffffffffffffffffffffffffffffffffff168273ffffffffffffffffffffffffffffffffffffffff161415612e1957600080fd5b806fffffffffffffffffffffffffffffffff16612e35836113c2565b1015612e76576040517f08c379a0000000000000000000000000000000000000000000000000000000008152600401612e6d9061495e565b60405180910390fd5b6000816fffffffffffffffffffffffffffffffff1611612ecb576040517f08c379a0000000000000000000000000000000000000000000000000000000008152600401612ec29061493e565b60405180910390fd5b612ed4826132c4565b612ee257612ee1826116ee565b5b81601160006101000a81548173ffffffffffffffffffffffffffffffffffffffff021916908373ffffffffffffffffffffffffffffffffffffffff160217905550601160009054906101000a900473ffffffffffffffffffffffffffffffffffffffff1673ffffffffffffffffffffffffffffffffffffffff166323b872dd3330846040518463ffffffff1660e01b8152600401612f82939291906146ce565b602060405180830381600087803b158015612f9c57600080fd5b505af1158015612fb0573d6000803e3d6000fd5b505050506040513d601f19601f82011682018060405250810190612fd49190614448565b50600e60009054906101000a900473ffffffffffffffffffffffffffffffffffffffff1673ffffffffffffffffffffffffffffffffffffffff1663e8eda9df838330600860149054906101000a900461ffff166040518563ffffffff1660e01b815260040161304694939291906147ee565b600060405180830381600087803b15801561306057600080fd5b505af1158015613074573d6000803e3d6000fd5b505050506130df816fffffffffffffffffffffffffffffffff16600a60008573ffffffffffffffffffffffffffffffffffffffff1673ffffffffffffffffffffffffffffffffffffffff16815260200190815260200160002060000154613eb190919063ffffffff16565b600a60008473ffffffffffffffffffffffffffffffffffffffff1673ffffffffffffffffffffffffffffffffffffffff1681526020019081526020016000206000018190555061312e82612ae3565b61313c5761313b82612176565b5b6131e1600960003373ffffffffffffffffffffffffffffffffffffffff1673ffffffffffffffffffffffffffffffffffffffff16815260200190815260200160002060000160008473ffffffffffffffffffffffffffffffffffffffff1673ffffffffffffffffffffffffffffffffffffffff16815260200190815260200160002060009054906101000a90046fffffffffffffffffffffffffffffffff1682613dcd565b600960003373ffffffffffffffffffffffffffffffffffffffff1673ffffffffffffffffffffffffffffffffffffffff16815260200190815260200160002060000160008473ffffffffffffffffffffffffffffffffffffffff1673ffffffffffffffffffffffffffffffffffffffff16815260200190815260200160002060006101000a8154816fffffffffffffffffffffffffffffffff02191690836fffffffffffffffffffffffffffffffff1602179055505050565b6000600560009054906101000a900473ffffffffffffffffffffffffffffffffffffffff16905090565b6000805b600b80549050811015613357578273ffffffffffffffffffffffffffffffffffffffff16600b82815481106132f957fe5b9060005260206000200160009054906101000a900473ffffffffffffffffffffffffffffffffffffffff1673ffffffffffffffffffffffffffffffffffffffff16141561334a57600191505061335d565b80806001019150506132c8565b50600090505b919050565b6000600960003373ffffffffffffffffffffffffffffffffffffffff1673ffffffffffffffffffffffffffffffffffffffff16815260200190815260200160002060010160008373ffffffffffffffffffffffffffffffffffffffff1673ffffffffffffffffffffffffffffffffffffffff16815260200190815260200160002060009054906101000a90046fffffffffffffffffffffffffffffffff169050919050565b6000601060009054906101000a900473ffffffffffffffffffffffffffffffffffffffff1673ffffffffffffffffffffffffffffffffffffffff1663d2493b6c836040518263ffffffff1660e01b8152600401613464919061468a565b60606040518083038186803b15801561347c57600080fd5b505afa158015613490573d6000803e3d6000fd5b505050506040513d601f19601f820116820180604052508101906134b49190614381565b9050508091505080601160006101000a81548173ffffffffffffffffffffffffffffffffffffffff021916908373ffffffffffffffffffffffffffffffffffffffff1602179055506000601160009054906101000a900473ffffffffffffffffffffffffffffffffffffffff1673ffffffffffffffffffffffffffffffffffffffff166370a08231306040518263ffffffff1660e01b8152600401613559919061468a565b60206040518083038186803b15801561357157600080fd5b505afa158015613585573d6000803e3d6000fd5b505050506040513d601f19601f820116820180604052508101906135a991906144ec565b9050613600600a60008573ffffffffffffffffffffffffffffffffffffffff1673ffffffffffffffffffffffffffffffffffffffff1681526020019081526020016000206000015482613e5f90919063ffffffff16565b9050613657600a60008573ffffffffffffffffffffffffffffffffffffffff1673ffffffffffffffffffffffffffffffffffffffff1681526020019081526020016000206001015482613e5f90919063ffffffff16565b905060006136b3600a60008673ffffffffffffffffffffffffffffffffffffffff1673ffffffffffffffffffffffffffffffffffffffff1681526020019081526020016000206002018054905083613f3990919063ffffffff16565b905061370d600a60008673ffffffffffffffffffffffffffffffffffffffff1673ffffffffffffffffffffffffffffffffffffffff1681526020019081526020016000206002018054905083613f8390919063ffffffff16565b915061376482600a60008773ffffffffffffffffffffffffffffffffffffffff1673ffffffffffffffffffffffffffffffffffffffff16815260200190815260200160002060010154613eb190919063ffffffff16565b600a60008673ffffffffffffffffffffffffffffffffffffffff1673ffffffffffffffffffffffffffffffffffffffff1681526020019081526020016000206001018190555060005b600a60008673ffffffffffffffffffffffffffffffffffffffff1673ffffffffffffffffffffffffffffffffffffffff16815260200190815260200160002060020180549050811015613a72576139396139348360096000600a60008b73ffffffffffffffffffffffffffffffffffffffff1673ffffffffffffffffffffffffffffffffffffffff168152602001908152602001600020600201868154811061385257fe5b9060005260206000200160009054906101000a900473ffffffffffffffffffffffffffffffffffffffff1673ffffffffffffffffffffffffffffffffffffffff1673ffffffffffffffffffffffffffffffffffffffff16815260200190815260200160002060010160008973ffffffffffffffffffffffffffffffffffffffff1673ffffffffffffffffffffffffffffffffffffffff16815260200190815260200160002060009054906101000a90046fffffffffffffffffffffffffffffffff166fffffffffffffffffffffffffffffffff16613eb190919063ffffffff16565b613fcd565b60096000600a60008973ffffffffffffffffffffffffffffffffffffffff1673ffffffffffffffffffffffffffffffffffffffff168152602001908152602001600020600201848154811061398a57fe5b9060005260206000200160009054906101000a900473ffffffffffffffffffffffffffffffffffffffff1673ffffffffffffffffffffffffffffffffffffffff1673ffffffffffffffffffffffffffffffffffffffff16815260200190815260200160002060010160008773ffffffffffffffffffffffffffffffffffffffff1673ffffffffffffffffffffffffffffffffffffffff16815260200190815260200160002060006101000a8154816fffffffffffffffffffffffffffffffff02191690836fffffffffffffffffffffffffffffffff16021790555080806001019150506137ad565b5050505050565b6000613bbb600960003373ffffffffffffffffffffffffffffffffffffffff1673ffffffffffffffffffffffffffffffffffffffff16815260200190815260200160002060000160008473ffffffffffffffffffffffffffffffffffffffff1673ffffffffffffffffffffffffffffffffffffffff16815260200190815260200160002060009054906101000a90046fffffffffffffffffffffffffffffffff16600960003373ffffffffffffffffffffffffffffffffffffffff1673ffffffffffffffffffffffffffffffffffffffff16815260200190815260200160002060010160008573ffffffffffffffffffffffffffffffffffffffff1673ffffffffffffffffffffffffffffffffffffffff16815260200190815260200160002060009054906101000a90046fffffffffffffffffffffffffffffffff16613dcd565b9050919050565b613bca613ea9565b73ffffffffffffffffffffffffffffffffffffffff1660008054906101000a900473ffffffffffffffffffffffffffffffffffffffff1673ffffffffffffffffffffffffffffffffffffffff1614613c8a576040517f08c379a00000000000000000000000000000000000000000000000000000000081526004018080602001828103825260208152602001807f4f776e61626c653a2063616c6c6572206973206e6f7420746865206f776e657281525060200191505060405180910390fd5b600073ffffffffffffffffffffffffffffffffffffffff168173ffffffffffffffffffffffffffffffffffffffff161415613d10576040517f08c379a0000000000000000000000000000000000000000000000000000000008152600401808060200182810382526026815260200180614bb36026913960400191505060405180910390fd5b8073ffffffffffffffffffffffffffffffffffffffff1660008054906101000a900473ffffffffffffffffffffffffffffffffffffffff1673ffffffffffffffffffffffffffffffffffffffff167f8be0079c531659141344cd1fd0a4f28419497f9722a3daafe3b4186f6b6457e060405160405180910390a3806000806101000a81548173ffffffffffffffffffffffffffffffffffffffff021916908373ffffffffffffffffffffffffffffffffffffffff16021790555050565b6000613e0e613e09836fffffffffffffffffffffffffffffffff16856fffffffffffffffffffffffffffffffff16613eb190919063ffffffff16565b613fcd565b905092915050565b6000613e57613e52836fffffffffffffffffffffffffffffffff16856fffffffffffffffffffffffffffffffff16613e5f90919063ffffffff16565b613fcd565b905092915050565b6000613ea183836040518060400160405280601e81526020017f536166654d6174683a207375627472616374696f6e206f766572666c6f770000815250614040565b905092915050565b600033905090565b600080828401905083811015613f2f576040517f08c379a000000000000000000000000000000000000000000000000000000000815260040180806020018281038252601b8152602001807f536166654d6174683a206164646974696f6e206f766572666c6f77000000000081525060200191505060405180910390fd5b8091505092915050565b6000613f7b83836040518060400160405280601a81526020017f536166654d6174683a206469766973696f6e206279207a65726f000000000000815250614100565b905092915050565b6000613fc583836040518060400160405280601881526020017f536166654d6174683a206d6f64756c6f206279207a65726f00000000000000008152506141c6565b905092915050565b60007001000000000000000000000000000000008210614038576040517f08c379a0000000000000000000000000000000000000000000000000000000008152600401808060200182810382526027815260200180614bd96027913960400191505060405180910390fd5b819050919050565b60008383111582906140ed576040517f08c379a00000000000000000000000000000000000000000000000000000000081526004018080602001828103825283818151815260200191508051906020019080838360005b838110156140b2578082015181840152602081019050614097565b50505050905090810190601f1680156140df5780820380516001836020036101000a031916815260200191505b509250505060405180910390fd5b5060008385039050809150509392505050565b600080831182906141ac576040517f08c379a00000000000000000000000000000000000000000000000000000000081526004018080602001828103825283818151815260200191508051906020019080838360005b83811015614171578082015181840152602081019050614156565b50505050905090810190601f16801561419e5780820380516001836020036101000a031916815260200191505b509250505060405180910390fd5b5060008385816141b857fe5b049050809150509392505050565b6000808314158290614273576040517f08c379a00000000000000000000000000000000000000000000000000000000081526004018080602001828103825283818151815260200191508051906020019080838360005b8381101561423857808201518184015260208101905061421d565b50505050905090810190601f1680156142655780820380516001836020036101000a031916815260200191505b509250505060405180910390fd5b5082848161427d57fe5b0690509392505050565b60008135905061429681614b28565b92915050565b6000815190506142ab81614b28565b92915050565b6000815190506142c081614b3f565b92915050565b6000813590506142d581614b56565b92915050565b6000813590506142ea81614b6d565b92915050565b6000813590506142ff81614b84565b92915050565b60008135905061431481614b9b565b92915050565b60008151905061432981614b9b565b92915050565b60006020828403121561434157600080fd5b600061434f84828501614287565b91505092915050565b60006020828403121561436a57600080fd5b60006143788482850161429c565b91505092915050565b60008060006060848603121561439657600080fd5b60006143a48682870161429c565b93505060206143b58682870161429c565b92505060406143c68682870161429c565b9150509250925092565b600080604083850312156143e357600080fd5b60006143f185828601614287565b9250506020614402858286016142db565b9150509250929050565b6000806040838503121561441f57600080fd5b600061442d85828601614287565b925050602061443e85828601614305565b9150509250929050565b60006020828403121561445a57600080fd5b6000614468848285016142b1565b91505092915050565b60006020828403121561448357600080fd5b6000614491848285016142c6565b91505092915050565b6000602082840312156144ac57600080fd5b60006144ba848285016142f0565b91505092915050565b6000602082840312156144d557600080fd5b60006144e384828501614305565b91505092915050565b6000602082840312156144fe57600080fd5b600061450c8482850161431a565b91505092915050565b61451e81614a78565b82525050565b61452d816149d0565b82525050565b61453c816149e2565b82525050565b61454b81614a8a565b82525050565b61455a81614a1a565b82525050565b61456981614a9c565b82525050565b600061457a826149b4565b61458481856149bf565b9350614594818560208601614ae4565b61459d81614b17565b840191505092915050565b60006145b56018836149bf565b91507f4465706f736974206d757374206265206e6f6e2d7a65726f00000000000000006000830152602082019050919050565b60006145f56025836149bf565b91507f55736572206e6f7420617070726f76656420746f2073656e642074686973206160008301527f6d6f756e740000000000000000000000000000000000000000000000000000006020830152604082019050919050565b61465781614a24565b82525050565b61466681614aae565b82525050565b61467581614a40565b82525050565b61468481614a6e565b82525050565b600060208201905061469f6000830184614524565b92915050565b60006040820190506146ba6000830185614515565b6146c76020830184614524565b9392505050565b60006060820190506146e36000830186614515565b6146f06020830185614524565b6146fd604083018461465d565b949350505050565b600060608201905061471a6000830186614515565b6147276020830185614524565b614734604083018461467b565b949350505050565b60006040820190506147516000830185614524565b61475e6020830184614551565b9392505050565b600060408201905061477a6000830185614524565b6147876020830184614560565b9392505050565b60006040820190506147a36000830185614524565b6147b0602083018461465d565b9392505050565b60006060820190506147cc6000830186614524565b6147d9602083018561465d565b6147e66040830184614515565b949350505050565b60006080820190506148036000830187614524565b614810602083018661465d565b61481d6040830185614524565b61482a606083018461466c565b95945050505050565b60006040820190506148486000830185614524565b614855602083018461467b565b9392505050565b60006060820190506148716000830186614524565b61487e602083018561467b565b61488b6040830184614515565b949350505050565b60006080820190506148a86000830187614524565b6148b5602083018661467b565b6148c26040830185614524565b6148cf606083018461466c565b95945050505050565b60006020820190506148ed6000830184614533565b92915050565b60006020820190506149086000830184614542565b92915050565b60006040820190508181036000830152614928818561456f565b90506149376020830184614524565b9392505050565b60006020820190508181036000830152614957816145a8565b9050919050565b60006020820190508181036000830152614977816145e8565b9050919050565b6000602082019050614993600083018461464e565b92915050565b60006020820190506149ae600083018461467b565b92915050565b600081519050919050565b600082825260208201905092915050565b60006149db82614a4e565b9050919050565b60008115159050919050565b60007fff0000000000000000000000000000000000000000000000000000000000000082169050919050565b6000819050919050565b60006fffffffffffffffffffffffffffffffff82169050919050565b600061ffff82169050919050565b600073ffffffffffffffffffffffffffffffffffffffff82169050919050565b6000819050919050565b6000614a8382614ac0565b9050919050565b6000614a95826149ee565b9050919050565b6000614aa782614a6e565b9050919050565b6000614ab982614a24565b9050919050565b6000614acb82614ad2565b9050919050565b6000614add82614a4e565b9050919050565b60005b83811015614b02578082015181840152602081019050614ae7565b83811115614b11576000848401525b50505050565b6000601f19601f8301169050919050565b614b31816149d0565b8114614b3c57600080fd5b50565b614b48816149e2565b8114614b5357600080fd5b50565b614b5f816149ee565b8114614b6a57600080fd5b50565b614b7681614a24565b8114614b8157600080fd5b50565b614b8d81614a40565b8114614b9857600080fd5b50565b614ba481614a6e565b8114614baf57600080fd5b5056fe4f776e61626c653a206e6577206f776e657220697320746865207a65726f206164647265737353616665436173743a2076616c756520646f65736e27742066697420696e203132382062697473a2646970667358221220c9cd7af1e28e2b13aa9f53a33a985c0ada3097cc4c98a822be4d2797f0fc086064736f6c63430007040033",
  "immutableReferences": {},
  "source": "// SPDX-License-Identifier: MIT\r\npragma solidity ^0.7.0;\r\npragma experimental ABIEncoderV2;\r\n\r\nimport \"interfaces/ILendingPool.sol\";\r\nimport \"interfaces/IProtocolDataProvider.sol\";\r\nimport \"@openzeppelin/contracts/access/Ownable.sol\";\r\n//import \"@openzeppelin/contracts/drafts/ERC20Permit.sol\"; \r\nimport \"@openzeppelin/contracts/token/ERC20/IERC20.sol\";\r\n//import \"@openzeppelin/contracts/token/ERC20/ERC20.sol\";\r\nimport \"@openzeppelin/contracts/math/SafeMath.sol\";\r\nimport \"@openzeppelin/contracts/utils/SafeCast.sol\";\r\n\r\n  /**\r\n   * @title Manages depositing and withdrawing from Aave\r\n   * @notice part of the StakeYourName DApp\r\n   * @author Daniel Chilvers\r\n   **/\r\ncontract InvestmentManager is Ownable {\r\n\r\n    using SafeMath for uint256;\r\n\r\n    //address internal kovanLendingPool = 0x9FE532197ad76c5a68961439604C037EB79681F0;\r\n    //address internal mainLendingPool = 0x7d2768dE32b0b80b7a3454c06BdAc94A69DDc7A9;\r\n    address internal deadAddress = 0x000000000000000000000000000000000000dEaD;\r\n    address internal lendingPooladdress = deadAddress;\r\n    address internal kovanLendingPoolAddressProviderAddress = 0x88757f2f99175387aB4C6a4b3067c77A695b0349;\r\n    address internal mainLendingPoolAddressProviderAddress = 0xB53C1a33016B2DC2fF3653530bfF1848a515c8c5;\r\n    address internal lendingPoolAddressProviderAddress = deadAddress;\r\n    address internal ProtocolDataProviderAddress = deadAddress;\r\n\r\n    /// @dev addresses saved here for testing, in final version the\r\n    /// @dev addresses will be passed in from the front end.\r\n    address internal DAIContract = 0x6B175474E89094C44Da98b954EedeAC495271d0F;\r\n    address internal USDCContract = 0xA0b86991c6218b36c1d19D4a2e9Eb0cE3606eB48;\r\n\r\n    uint16 referralCode = 0;\r\n    uint256 constant MAX_INT = type(uint256).max;\r\n\r\n    /// @notice User data, maps an assest contract address to their balance, interest earnt\r\n    /// @notice and if they've locked the original investment (no auto-switching, no loss investement)\r\n    /// @dev we can increase balance to uint256, changing to mappings removed the packing benefits\r\n    struct User {\r\n        mapping (address => uint128) balance;\r\n        mapping (address => uint128) interest;\r\n        mapping (address => bool) locked;\r\n    }\r\n\r\n    /// @dev map user addresses to our struct above\r\n    mapping (address => User) Users;\r\n\r\n    /// @dev balance, how many of each token bought\r\n    /// @dev interest, how much interest earnt so far\r\n    /// @dev interestCalcualtionTime, block.timestamp of last calculation\r\n    /// @dev TO:DO pack this struct better\r\n    struct Asset {\r\n        uint256 balance;\r\n        uint256 interest;\r\n        //uint256 interestCalculationTime;\r\n        address[] userList;\r\n    }\r\n\r\n    mapping (address => Asset) assets;\r\n\r\n\r\n    /// @dev save a list of any assests we've puchased\r\n    address[] public assetList;\r\n    /// @dev save a list of users that have purchased asset\r\n    address[] public userList;\r\n\r\n    IProtocolDataProvider.TokenData[] public aTokens;\r\n\r\n    ILendingPool lendingPool;\r\n    ILendingPoolAddressesProvider lendingPoolAddressesProvider;\r\n    IProtocolDataProvider protocolDataProvider;\r\n    IERC20 ierc20;\r\n\r\n    constructor(uint _networkID) {\r\n        /// @dev truffle will pass in the networkID when migrated, use this to select the correct addresses\r\n        /// @dev uprgading to ^0.8.0 we could use block.chainid instead\r\n        if (_networkID == 1){\r\n            lendingPoolAddressProviderAddress = mainLendingPoolAddressProviderAddress;\r\n            protocolDataProvider = IProtocolDataProvider(0x057835Ad21a177dbdd3090bB1CAE03EaCF78Fc6d);\r\n        } else if (_networkID == 42){\r\n            lendingPoolAddressProviderAddress = kovanLendingPoolAddressProviderAddress;\r\n            protocolDataProvider = IProtocolDataProvider(0x3c73A5E5785cAC854D468F727c606C07488a29D6);\r\n        } \r\n        lendingPoolAddressesProvider = ILendingPoolAddressesProvider(lendingPoolAddressProviderAddress);\r\n        lendingPooladdress =  lendingPoolAddressesProvider.getLendingPool();\r\n        //protocolDataProvider = IProtocolDataProvider(lendingPoolAddressesProvider.getAddress(bytes32('0x1')));\r\n        lendingPool = ILendingPool(lendingPooladdress);\r\n    }\r\n\r\n    event debug(address _address, uint256 state);\r\n\r\n    /// @notice Approves sending _asset ERC20 tokens to the lendingPool\r\n    /// @dev this needs to be called for each new asset purchased\r\n    function approveLendingPool(address _asset) public {\r\n        ierc20 = IERC20(_asset);\r\n        ierc20.approve(lendingPooladdress , MAX_INT);\r\n    }\r\n\r\n    function userBalance(address _asset) public view returns(uint128){\r\n        return(Users[msg.sender].balance[_asset]);\r\n    }\r\n\r\n    function userInterest(address _asset) public view returns(uint128){\r\n        return(Users[msg.sender].interest[_asset]);\r\n    }\r\n\r\n    /// @notice calculates how many extra aTokens we have i.e. interest\r\n    /// @notice divides and adds result to users balances\r\n    /// @dev do we need to collect the dust and distribute that later?\r\n    function calculateInterest(address _asset) public {\r\n        //require(assets[_asset].balance != 0);\r\n        address _aTokenAddress;\r\n        (_aTokenAddress,,) = protocolDataProvider.getReserveTokensAddresses(_asset);\r\n        //_aTokenAddress = 0xdCf0aF9e59C002FA3AA091a46196b37530FD48a8;\r\n        ierc20 = IERC20(_aTokenAddress);\r\n        uint256 _interest = ierc20.balanceOf(address(this));\r\n        _interest = _interest.sub(assets[_asset].balance);\r\n        _interest = _interest.sub(assets[_asset].interest);\r\n        uint256 _interestSplit = _interest.div(assets[_asset].userList.length);\r\n        /// @dev we want to leave any dust behind, so mod the _interest before updating the asset interest balance\r\n        /// @dev this is fine because the dust will be collected the next time interest is calculated\r\n        _interest = _interest.mod(assets[_asset].userList.length);\r\n        assets[_asset].interest = assets[_asset].interest.add(_interest);\r\n        for (uint i; i < assets[_asset].userList.length; i++){\r\n            Users[address(assets[_asset].userList[i])].interest[_asset] = SafeCast.toUint128(uint256(Users[address(assets[_asset].userList[i])].interest[_asset]).add(_interestSplit));\r\n        }\r\n    }\r\n\r\n    /// @notice just does a deposit, doesn't record to any users balance\r\n    /// @dev just for testing, remove later\r\n    function depositTest(address _asset, uint256 _amount) public {\r\n        ierc20 = IERC20(_asset);\r\n        ierc20.transferFrom(msg.sender, address(this), _amount);\r\n        lendingPool.deposit(_asset, _amount, address(this) , referralCode);\r\n        assets[_asset].balance = assets[_asset].balance.add(_amount);\r\n    }\r\n\r\n    /// @notice just does a withdrawl, doesn't record to a users balance\r\n    /// @dev just for testing, remove later\r\n    function withdrawTest(address _asset, uint256 _amount) public onlyOwner {\r\n        lendingPool.withdraw(_asset, _amount, msg.sender);\r\n    }\r\n\r\n\r\n    /// @dev this isn't how it works, the user needs to approve directly to the asset contract\r\n    function approveDeposit(address _asset, uint128 _amount) public {\r\n        require(_asset != address(0));\r\n        require(_amount > 0);\r\n        ierc20 = IERC20(_asset);\r\n        ierc20.approve(address(this), _amount);\r\n        if (!checkAssetList(_asset)) {\r\n            addAsset(_asset);\r\n        }\r\n    }\r\n\r\n    /// @notice checks if we've purchased this assest before, make internal later\r\n    function checkAssetList(address _asset) public view returns(bool){\r\n        for (uint i; i < assetList.length; i++ ){\r\n            if(address(assetList[i]) == _asset){\r\n                return true;\r\n            }\r\n        }\r\n        return false;\r\n    }\r\n\r\n    /// @notice adds an _asset to the assetList and approves sending to the lendingPool\r\n    function addAsset(address _asset) public onlyOwner{\r\n        assetList.push(_asset);\r\n        approveLendingPool(_asset);\r\n        //approveATokenBurn(_asset, MAX_INT);\r\n    }\r\n\r\n    /// @notice checks if this user has purchased this asset previously\r\n    function checkUserList(address _asset) public view returns(bool){\r\n        for (uint i; i < assets[_asset].userList.length; i++ ){\r\n            if(assets[_asset].userList[i] == msg.sender){\r\n                return true;\r\n            }\r\n        }\r\n        return false;\r\n    }\r\n\r\n    /// @notice records that the user has now purchased _asset\r\n    function addUser(address _asset) public onlyOwner{\r\n        assets[_asset].userList.push(msg.sender);\r\n        //approveLendingPool(_asset);\r\n        //approveATokenBurn(_asset, MAX_INT);\r\n    }\r\n\r\n    function checkAllowance (address _asset) public returns(uint256){\r\n        ierc20 = IERC20(_asset);\r\n        return ierc20.allowance(msg.sender, address(this));\r\n    }\r\n\r\n    /// @dev TO:DO add some more requires to potentially save gas\r\n    function deposit(address _asset, uint128 _amount) public {\r\n        require(_asset != address(0));\r\n        require(checkAllowance(_asset) >= _amount, \"User not approved to send this amount\");\r\n        require(_amount > 0, \"Deposit must be non-zero\");\r\n        if (!checkAssetList(_asset)) {\r\n            addAsset(_asset);\r\n        }\r\n        ierc20 = IERC20(_asset);\r\n        ierc20.transferFrom(msg.sender, address(this), _amount);\r\n        lendingPool.deposit(_asset, _amount, address(this) , referralCode);\r\n        assets[_asset].balance = assets[_asset].balance.add(_amount);\r\n        if (!checkUserList(_asset)) {\r\n            addUser(_asset);\r\n        }\r\n        Users[msg.sender].balance[_asset] = safeAddUint128(Users[msg.sender].balance[_asset], _amount );\r\n    }\r\n\r\n    /// @dev don't think we need to do this!?\r\n    function approveATokenBurn(address _asset, uint256 _amount) public {\r\n        address _aTokenAddress;\r\n        (_aTokenAddress,,) = protocolDataProvider.getReserveTokensAddresses(_asset);\r\n        ierc20 = IERC20(_aTokenAddress);\r\n        ierc20.approve(lendingPooladdress , _amount);\r\n    }\r\n\r\n    ///@dev current implemnetation withdraws balance before deposit.\r\n    function withdraw(address _asset, uint128 _amount) public {\r\n        require(_asset != address(0));\r\n        require(_amount > 0);\r\n        calculateInterest(_asset);\r\n        uint128 _maxWithdrawl = safeAddUint128(Users[msg.sender].balance[_asset],Users[msg.sender].interest[_asset]);\r\n        uint128 _withdrawl = 0;\r\n        if (_amount > _maxWithdrawl) {\r\n            Users[msg.sender].balance[_asset] = 0;\r\n            Users[msg.sender].interest[_asset] = 0;\r\n            _withdrawl = _maxWithdrawl;\r\n        } else if (_amount > Users[msg.sender].balance[_asset]) {\r\n            Users[msg.sender].interest[_asset] = safeSubUint128(Users[msg.sender].interest[_asset],safeSubUint128(_amount, Users[msg.sender].balance[_asset]));\r\n            Users[msg.sender].balance[_asset] = 0;\r\n            _withdrawl = _amount;\r\n        } else {\r\n            Users[msg.sender].balance[_asset] = safeSubUint128(Users[msg.sender].balance[_asset], _amount);\r\n            _withdrawl = _amount;\r\n        }\r\n        lendingPool.withdraw(_asset, _withdrawl, msg.sender);\r\n        assets[_asset].balance = assets[_asset].balance.sub(_amount);\r\n    }\r\n\r\n    function convertInterestToBalance(address _asset, uint128 _amount) public {\r\n        require(_asset != address(0));\r\n        require(_amount > 0);\r\n        calculateInterest(_asset);\r\n        uint128 _check = userTotal(_asset);\r\n        if (_amount > Users[msg.sender].interest[_asset]){\r\n            Users[msg.sender].balance[_asset] = safeAddUint128(Users[msg.sender].balance[_asset], Users[msg.sender].interest[_asset]);\r\n            Users[msg.sender].interest[_asset] = 0;    \r\n        } else {\r\n            Users[msg.sender].interest[_asset] = safeSubUint128(Users[msg.sender].interest[_asset], _amount);\r\n            Users[msg.sender].balance[_asset] = safeAddUint128(Users[msg.sender].balance[_asset], _amount);\r\n        }\r\n        assert(_check == userTotal(_asset));\r\n    }\r\n\r\n    /// @dev only call this after calculateInterest()\r\n    function userTotal(address _asset) public view returns(uint128) {\r\n        return(safeAddUint128(Users[msg.sender].balance[_asset], Users[msg.sender].interest[_asset]));\r\n    }\r\n\r\n    /// @notice uses the SafeMath and SafeCast libraries to safely add uint128s together\r\n    function safeAddUint128(uint128 _a, uint128 _b) internal pure returns(uint128){\r\n        return(SafeCast.toUint128(uint256(_a).add(uint256(_b))));\r\n    }\r\n    /// @notice uses the SafeMath and SafeCast libraries to safely subtract uint128s \r\n    function safeSubUint128(uint128 _a, uint128 _b) internal pure returns(uint128){\r\n        return(SafeCast.toUint128(uint256(_a).sub(uint256(_b))));\r\n    }\r\n\r\n    /// @notice don't send me funds if this function still exists\r\n    /// @dev for recovering test funds\r\n    function withdrawAll() public onlyOwner {\r\n        require(msg.sender.send(address(this).balance));\r\n    }\r\n\r\n    function updateReferalCode(uint16 _code) public onlyOwner {\r\n        referralCode = _code;\r\n    }\r\n\r\n    /// @notice verify the address of the lending pool in use\r\n    function checkLendingPoolAddress() public view returns(address){\r\n        return (lendingPooladdress);\r\n    }\r\n\r\n    /// @notice verify the address of the lending pool address provider\r\n    /// @dev maybe try and shorten the function name a bit\r\n    function checkLendingPoolAddressProviderAddress() public view returns(address){\r\n        return (lendingPoolAddressProviderAddress);\r\n    }\r\n    \r\n    function checkProtocolDataProvider() public view returns(address){\r\n        return (address(protocolDataProvider));\r\n    }\r\n\r\n    function updateProtocolDataProvider(bytes1 _bytes) public returns(address, bytes32){\r\n        protocolDataProvider = IProtocolDataProvider(lendingPoolAddressesProvider.getAddress(_bytes));\r\n        return (address(protocolDataProvider),_bytes);\r\n    }\r\n\r\n    function checkaTokenAddress(address _asset) public view returns(address){\r\n        address _aTokenAddress;\r\n        (_aTokenAddress,,) = protocolDataProvider.getReserveTokensAddresses(_asset);\r\n        return (address(_aTokenAddress));\r\n    }\r\n\r\n    /// @notice update the lending pool address from the address provider\r\n    function updateLendingPoolAddress() public onlyOwner returns(address){\r\n        lendingPooladdress = lendingPoolAddressesProvider.getLendingPool();\r\n        lendingPool = ILendingPool(lendingPooladdress);\r\n        emit debug(lendingPooladdress, 10);\r\n        return (lendingPooladdress);\r\n    }\r\n\r\n}",
  "sourcePath": "C:/Users/anyth/Documents/GitHub/StakeYourName/contracts/InvestmentManager.sol",
  "compiler": {
    "name": "solc",
    "version": "0.7.4+commit.3f05b770.Emscripten.clang"
  },
  "schemaVersion": "3.3.3",
  "updatedAt": "2021-01-22T20:12:02.165Z",
  "networkType": "ethereum",
  "devdoc": {
    "author": "Daniel Chilvers*",
    "kind": "dev",
    "methods": {
      "approveATokenBurn(address,uint256)": {
        "details": "don't think we need to do this!?"
      },
      "approveDeposit(address,uint128)": {
        "details": "this isn't how it works, the user needs to approve directly to the asset contract"
      },
      "approveLendingPool(address)": {
        "details": "this needs to be called for each new asset purchased"
      },
      "calculateInterest(address)": {
        "details": "do we need to collect the dust and distribute that later?"
      },
      "checkLendingPoolAddressProviderAddress()": {
        "details": "maybe try and shorten the function name a bit"
      },
      "deposit(address,uint128)": {
        "details": "TO:DO add some more requires to potentially save gas"
      },
      "depositTest(address,uint256)": {
        "details": "just for testing, remove later"
      },
      "owner()": {
        "details": "Returns the address of the current owner."
      },
      "renounceOwnership()": {
        "details": "Leaves the contract without owner. It will not be possible to call `onlyOwner` functions anymore. Can only be called by the current owner. NOTE: Renouncing ownership will leave the contract without an owner, thereby removing any functionality that is only available to the owner."
      },
      "transferOwnership(address)": {
        "details": "Transfers ownership of the contract to a new account (`newOwner`). Can only be called by the current owner."
      },
      "userTotal(address)": {
        "details": "only call this after calculateInterest()"
      },
      "withdraw(address,uint128)": {
        "details": "current implemnetation withdraws balance before deposit."
      },
      "withdrawAll()": {
        "details": "for recovering test funds"
      },
      "withdrawTest(address,uint256)": {
        "details": "just for testing, remove later"
      }
    },
    "stateVariables": {
      "DAIContract": {
        "details": "addresses saved here for testing, in final version theaddresses will be passed in from the front end."
      },
      "Users": {
        "details": "map user addresses to our struct above"
      },
      "assetList": {
        "details": "save a list of any assests we've puchased"
      },
      "userList": {
        "details": "save a list of users that have purchased asset"
      }
    },
    "title": "Manages depositing and withdrawing from Aave",
    "version": 1
  },
  "userdoc": {
    "kind": "user",
    "methods": {
      "addAsset(address)": {
        "notice": "adds an _asset to the assetList and approves sending to the lendingPool"
      },
      "addUser(address)": {
        "notice": "records that the user has now purchased _asset"
      },
      "approveLendingPool(address)": {
        "notice": "Approves sending _asset ERC20 tokens to the lendingPool"
      },
      "calculateInterest(address)": {
        "notice": "calculates how many extra aTokens we have i.e. interestdivides and adds result to users balances"
      },
      "checkAssetList(address)": {
        "notice": "checks if we've purchased this assest before, make internal later"
      },
      "checkLendingPoolAddress()": {
        "notice": "verify the address of the lending pool in use"
      },
      "checkLendingPoolAddressProviderAddress()": {
        "notice": "verify the address of the lending pool address provider"
      },
      "checkUserList(address)": {
        "notice": "checks if this user has purchased this asset previously"
      },
      "depositTest(address,uint256)": {
        "notice": "just does a deposit, doesn't record to any users balance"
      },
      "updateLendingPoolAddress()": {
        "notice": "update the lending pool address from the address provider"
      },
      "withdrawAll()": {
        "notice": "don't send me funds if this function still exists"
      },
      "withdrawTest(address,uint256)": {
        "notice": "just does a withdrawl, doesn't record to a users balance"
      }
    },
    "notice": "part of the StakeYourName DApp",
    "version": 1
  }
}