{
  "contractName": "InvestmentManager",
  "abi": [
    {
      "inputs": [
        {
          "internalType": "uint256",
          "name": "_networkID",
          "type": "uint256"
        }
      ],
      "stateMutability": "nonpayable",
      "type": "constructor"
    },
    {
      "anonymous": false,
      "inputs": [
        {
          "indexed": true,
          "internalType": "address",
          "name": "previousOwner",
          "type": "address"
        },
        {
          "indexed": true,
          "internalType": "address",
          "name": "newOwner",
          "type": "address"
        }
      ],
      "name": "OwnershipTransferred",
      "type": "event"
    },
    {
      "anonymous": false,
      "inputs": [
        {
          "indexed": false,
          "internalType": "address",
          "name": "_address",
          "type": "address"
        },
        {
          "indexed": false,
          "internalType": "uint256",
          "name": "state",
          "type": "uint256"
        }
      ],
      "name": "debug",
      "type": "event"
    },
    {
      "inputs": [
        {
          "internalType": "uint256",
          "name": "",
          "type": "uint256"
        }
      ],
      "name": "aTokens",
      "outputs": [
        {
          "internalType": "string",
          "name": "symbol",
          "type": "string"
        },
        {
          "internalType": "address",
          "name": "tokenAddress",
          "type": "address"
        }
      ],
      "stateMutability": "view",
      "type": "function",
      "constant": true
    },
    {
      "inputs": [],
      "name": "owner",
      "outputs": [
        {
          "internalType": "address",
          "name": "",
          "type": "address"
        }
      ],
      "stateMutability": "view",
      "type": "function",
      "constant": true
    },
    {
      "inputs": [],
      "name": "renounceOwnership",
      "outputs": [],
      "stateMutability": "nonpayable",
      "type": "function"
    },
    {
      "inputs": [
        {
          "internalType": "address",
          "name": "newOwner",
          "type": "address"
        }
      ],
      "name": "transferOwnership",
      "outputs": [],
      "stateMutability": "nonpayable",
      "type": "function"
    },
    {
      "stateMutability": "payable",
      "type": "receive",
      "payable": true
    },
    {
      "inputs": [
        {
          "internalType": "address",
          "name": "_asset",
          "type": "address"
        },
        {
          "internalType": "address",
          "name": "_userVault",
          "type": "address"
        }
      ],
      "name": "approveLendingPool",
      "outputs": [],
      "stateMutability": "nonpayable",
      "type": "function"
    },
    {
      "inputs": [
        {
          "internalType": "address",
          "name": "_asset",
          "type": "address"
        }
      ],
      "name": "getAToken",
      "outputs": [
        {
          "internalType": "address",
          "name": "",
          "type": "address"
        }
      ],
      "stateMutability": "view",
      "type": "function",
      "constant": true
    },
    {
      "inputs": [
        {
          "internalType": "address",
          "name": "_asset",
          "type": "address"
        },
        {
          "internalType": "address",
          "name": "_userVault",
          "type": "address"
        },
        {
          "internalType": "uint256",
          "name": "_amount",
          "type": "uint256"
        }
      ],
      "name": "deposit",
      "outputs": [],
      "stateMutability": "nonpayable",
      "type": "function"
    },
    {
      "inputs": [
        {
          "internalType": "address",
          "name": "_asset",
          "type": "address"
        }
      ],
      "name": "checkAllowance",
      "outputs": [
        {
          "internalType": "uint256",
          "name": "",
          "type": "uint256"
        }
      ],
      "stateMutability": "view",
      "type": "function",
      "constant": true
    },
    {
      "inputs": [
        {
          "internalType": "address",
          "name": "_asset",
          "type": "address"
        },
        {
          "internalType": "uint256",
          "name": "_amount",
          "type": "uint256"
        },
        {
          "internalType": "address",
          "name": "_user",
          "type": "address"
        }
      ],
      "name": "withdraw",
      "outputs": [],
      "stateMutability": "nonpayable",
      "type": "function"
    },
    {
      "inputs": [
        {
          "internalType": "address",
          "name": "_asset",
          "type": "address"
        },
        {
          "internalType": "address",
          "name": "_vault",
          "type": "address"
        }
      ],
      "name": "getBalance",
      "outputs": [
        {
          "internalType": "uint256",
          "name": "",
          "type": "uint256"
        }
      ],
      "stateMutability": "view",
      "type": "function",
      "constant": true
    },
    {
      "inputs": [
        {
          "internalType": "address",
          "name": "_asset",
          "type": "address"
        },
        {
          "internalType": "address",
          "name": "_vault",
          "type": "address"
        }
      ],
      "name": "getInterest",
      "outputs": [
        {
          "internalType": "uint256",
          "name": "",
          "type": "uint256"
        }
      ],
      "stateMutability": "view",
      "type": "function",
      "constant": true
    },
    {
      "inputs": [
        {
          "internalType": "address",
          "name": "_asset",
          "type": "address"
        },
        {
          "internalType": "address",
          "name": "_vault",
          "type": "address"
        }
      ],
      "name": "getTotal",
      "outputs": [
        {
          "internalType": "uint256",
          "name": "",
          "type": "uint256"
        }
      ],
      "stateMutability": "view",
      "type": "function",
      "constant": true
    },
    {
      "inputs": [],
      "name": "retrieveETH",
      "outputs": [],
      "stateMutability": "nonpayable",
      "type": "function"
    }
  ],
  "bytecode": "0x6080604052600180546001600160a01b031990811690915560028054821681556003805483167388757f2f99175387ab4c6a4b3067c77a695b034917905560048054831673b53c1a33016b2dc2ff3653530bff1848a515c8c517905560058054909216909155600680546001600160b01b03191690556000190460075534801561008857600080fd5b506040516110443803806110448339810160408190526100a79161028f565b60006100b161025d565b600080546001600160a01b0319166001600160a01b0383169081178255604051929350917f8be0079c531659141344cd1fd0a4f28419497f9722a3daafe3b4186f6b6457e0908290a350806001141561014b57600454600580546001600160a01b039092166001600160a01b0319928316179055600b805473057835ad21a177dbdd3090bb1cae03eacf78fc6d9216919091179055610197565b80602a141561019757600354600580546001600160a01b039092166001600160a01b0319928316179055600b8054733c73a5e5785cac854d468f727c606c07488a29d692169190911790555b600554600a80546001600160a01b0319166001600160a01b03928316179081905560408051630261bf8b60e01b815290519190921691630261bf8b916004808301926020929190829003018186803b1580156101f257600080fd5b505afa158015610206573d6000803e3d6000fd5b505050506040513d601f19601f8201168201806040525081019061022a9190610261565b600280546001600160a01b03199081166001600160a01b03938416179182905560098054929093169116179055506102a7565b3390565b600060208284031215610272578081fd5b81516001600160a01b0381168114610288578182fd5b9392505050565b6000602082840312156102a0578081fd5b5051919050565b610d8e806102b66000396000f3fe6080604052600436106100c65760003560e01c80638da5cb5b1161007f578063d4fac45d11610059578063d4fac45d1461020f578063d5b014c31461022f578063edd7ca6f14610244578063f2fde38b14610264576100cd565b80638da5cb5b146101ba578063ae6418b5146101cf578063c5d1aeb6146101ef576100cd565b80631a197a26146100d2578063324e4b571461010857806369328dec14610136578063715018a614610158578063732a52ee1461016d5780638340f5491461019a576100cd565b366100cd57005b600080fd5b3480156100de57600080fd5b506100f26100ed366004610ab3565b610284565b6040516100ff9190610d14565b60405180910390f35b34801561011457600080fd5b50610128610123366004610be9565b610312565b6040516100ff929190610cb0565b34801561014257600080fd5b50610156610151366004610b93565b6103d1565b005b34801561016457600080fd5b5061015661045d565b34801561017957600080fd5b5061018d610188366004610ab3565b610511565b6040516100ff9190610c19565b3480156101a657600080fd5b506101566101b5366004610b53565b6105a0565b3480156101c657600080fd5b5061018d61061a565b3480156101db57600080fd5b506101566101ea366004610acf565b610629565b3480156101fb57600080fd5b506100f261020a366004610acf565b610744565b34801561021b57600080fd5b506100f261022a366004610acf565b610759565b34801561023b57600080fd5b506101566107da565b34801561025057600080fd5b506100f261025f366004610acf565b610873565b34801561027057600080fd5b5061015661027f366004610ab3565b610896565b600954604051636eb1769f60e11b815260009183916001600160a01b038084169263dd62ed3e926102bb9233921690600401610c2d565b60206040518083038186803b1580156102d357600080fd5b505afa1580156102e7573d6000803e3d6000fd5b505050506040513d601f19601f8201168201806040525081019061030b9190610c01565b9392505050565b6008818154811061032257600080fd5b60009182526020918290206002918202018054604080516001831615610100026000190190921693909304601f8101859004850282018501909352828152909350918391908301828280156103b85780601f1061038d576101008083540402835291602001916103b8565b820191906000526020600020905b81548152906001019060200180831161039b57829003601f168201915b505050600190930154919250506001600160a01b031682565b600954604051631a4ca37b60e21b81526001600160a01b03909116906369328dec9061040590869086908690600401610c60565b602060405180830381600087803b15801561041f57600080fd5b505af1158015610433573d6000803e3d6000fd5b505050506040513d601f19601f820116820180604052508101906104579190610c01565b50505050565b6104656109a0565b6000546001600160a01b039081169116146104c7576040805162461bcd60e51b815260206004820181905260248201527f4f776e61626c653a2063616c6c6572206973206e6f7420746865206f776e6572604482015290519081900360640190fd5b600080546040516001600160a01b03909116907f8be0079c531659141344cd1fd0a4f28419497f9722a3daafe3b4186f6b6457e0908390a3600080546001600160a01b0319169055565b600b546040516334924edb60e21b815260009182916001600160a01b039091169063d2493b6c90610546908690600401610c19565b60606040518083038186803b15801561055e57600080fd5b505afa158015610572573d6000803e3d6000fd5b505050506040513d601f19601f820116820180604052508101906105969190610b07565b5090949350505050565b60095460065460405163e8eda9df60e01b81526001600160a01b039092169163e8eda9df916105e391879186918891600160a01b900461ffff1690600401610c83565b600060405180830381600087803b1580156105fd57600080fd5b505af1158015610611573d6000803e3d6000fd5b50505050505050565b6000546001600160a01b031690565b600754600254604051636eb1769f60e11b81528492916001600160a01b038085169263dd62ed3e92610662928892911690600401610c2d565b60206040518083038186803b15801561067a57600080fd5b505afa15801561068e573d6000803e3d6000fd5b505050506040513d601f19601f820116820180604052508101906106b29190610c01565b1161073f5760025460405163095ea7b360e01b81526001600160a01b038381169263095ea7b3926106ed929091169060001990600401610c47565b602060405180830381600087803b15801561070757600080fd5b505af115801561071b573d6000803e3d6000fd5b505050506040513d601f19601f820116820180604052508101906104579190610bc9565b505050565b60008061075184846109a4565b949350505050565b60405163e3d670d760e01b815260009082906001600160a01b0382169063e3d670d79061078a908790600401610c19565b60206040518083038186803b1580156107a257600080fd5b505afa1580156107b6573d6000803e3d6000fd5b505050506040513d601f19601f820116820180604052508101906107519190610c01565b6107e26109a0565b6000546001600160a01b03908116911614610844576040805162461bcd60e51b815260206004820181905260248201527f4f776e61626c653a2063616c6c6572206973206e6f7420746865206f776e6572604482015290519081900360640190fd5b60405133904780156108fc02916000818181858888f19350505050158015610870573d6000803e3d6000fd5b50565b60008061088084846109a4565b905061075161088f8585610759565b82906109df565b61089e6109a0565b6000546001600160a01b03908116911614610900576040805162461bcd60e51b815260206004820181905260248201527f4f776e61626c653a2063616c6c6572206973206e6f7420746865206f776e6572604482015290519081900360640190fd5b6001600160a01b0381166109455760405162461bcd60e51b8152600401808060200182810382526026815260200180610d336026913960400191505060405180910390fd5b600080546040516001600160a01b03808516939216917f8be0079c531659141344cd1fd0a4f28419497f9722a3daafe3b4186f6b6457e091a3600080546001600160a01b0319166001600160a01b0392909216919091179055565b3390565b6000806109b084610511565b6040516370a0823160e01b81529091506001600160a01b038216906370a082319061078a908690600401610c19565b600061030b83836040518060400160405280601e81526020017f536166654d6174683a207375627472616374696f6e206f766572666c6f77000081525060008184841115610aab5760405162461bcd60e51b81526004018080602001828103825283818151815260200191508051906020019080838360005b83811015610a70578181015183820152602001610a58565b50505050905090810190601f168015610a9d5780820380516001836020036101000a031916815260200191505b509250505060405180910390fd5b505050900390565b600060208284031215610ac4578081fd5b813561030b81610d1d565b60008060408385031215610ae1578081fd5b8235610aec81610d1d565b91506020830135610afc81610d1d565b809150509250929050565b600080600060608486031215610b1b578081fd5b8351610b2681610d1d565b6020850151909350610b3781610d1d565b6040850151909250610b4881610d1d565b809150509250925092565b600080600060608486031215610b67578283fd5b8335610b7281610d1d565b92506020840135610b8281610d1d565b929592945050506040919091013590565b600080600060608486031215610ba7578283fd5b8335610bb281610d1d565b9250602084013591506040840135610b4881610d1d565b600060208284031215610bda578081fd5b8151801515811461030b578182fd5b600060208284031215610bfa578081fd5b5035919050565b600060208284031215610c12578081fd5b5051919050565b6001600160a01b0391909116815260200190565b6001600160a01b0392831681529116602082015260400190565b6001600160a01b03929092168252602082015260400190565b6001600160a01b0393841681526020810192909252909116604082015260600190565b6001600160a01b03948516815260208101939093529216604082015261ffff909116606082015260800190565b6000604082528351806040840152815b81811015610cdd5760208187018101516060868401015201610cc0565b81811115610cee5782606083860101525b506001600160a01b0393909316602083015250601f91909101601f191601606001919050565b90815260200190565b6001600160a01b038116811461087057600080fdfe4f776e61626c653a206e6577206f776e657220697320746865207a65726f2061646472657373a26469706673582212209bf1696e1f47aa43100a5aee21e9365cb9f2da39109b100b859d5c2c8155620c64736f6c63430007060033",
  "immutableReferences": {},
  "source": "// SPDX-License-Identifier: MIT\r\npragma solidity ^0.7.6;\r\npragma abicoder v2;\r\n\r\nimport \"./interfaces/ILendingPool.sol\";\r\nimport \"./interfaces/IProtocolDataProvider.sol\";\r\nimport \"./interfaces/IUserVault.sol\";\r\nimport \"@openzeppelin/contracts/access/Ownable.sol\";\r\n//import \"@openzeppelin/contracts/drafts/ERC20Permit.sol\";\r\nimport \"@openzeppelin/contracts/token/ERC20/IERC20.sol\";\r\n//import \"@openzeppelin/contracts/token/ERC20/ERC20.sol\";\r\nimport \"@openzeppelin/contracts/math/SafeMath.sol\";\r\nimport \"@openzeppelin/contracts/utils/SafeCast.sol\";\r\n\r\n/**\r\n * @title Manages depositing and withdrawing from Aave\r\n * @notice part of the StakeYourName DApp\r\n * @author Daniel Chilvers\r\n **/\r\ncontract InvestmentManager is Ownable {\r\n    using SafeMath for uint256;\r\n\r\n    //address internal kovanLendingPool = 0x9FE532197ad76c5a68961439604C037EB79681F0;\r\n    //address internal mainLendingPool = 0x7d2768dE32b0b80b7a3454c06BdAc94A69DDc7A9;\r\n    address internal zeroAddress = address(0);\r\n    address internal lendingPooladdress = zeroAddress;\r\n    address internal kovanLendingPoolAddressProviderAddress =\r\n        0x88757f2f99175387aB4C6a4b3067c77A695b0349;\r\n    address internal mainLendingPoolAddressProviderAddress =\r\n        0xB53C1a33016B2DC2fF3653530bfF1848a515c8c5;\r\n    address internal lendingPoolAddressProviderAddress = zeroAddress;\r\n    address internal ProtocolDataProviderAddress = zeroAddress;\r\n\r\n    uint16 referralCode = 0;\r\n    uint256 constant MAX_INT = type(uint256).max;\r\n    uint256 internal MIN_APPROVAL = type(uint256).max / 2;\r\n\r\n    IProtocolDataProvider.TokenData[] public aTokens;\r\n\r\n    ILendingPool lendingPool;\r\n    ILendingPoolAddressesProvider lendingPoolAddressesProvider;\r\n    IProtocolDataProvider protocolDataProvider;\r\n    IERC20 ierc20;\r\n\r\n    constructor(uint256 _networkID) {\r\n        /// @dev truffle will pass in the networkID when migrated, use this to select the correct addresses\r\n        /// @dev uprgading to ^0.8.0 we could use block.chainid instead\r\n        if (_networkID == 1) {\r\n            lendingPoolAddressProviderAddress = mainLendingPoolAddressProviderAddress;\r\n            protocolDataProvider = IProtocolDataProvider(\r\n                0x057835Ad21a177dbdd3090bB1CAE03EaCF78Fc6d\r\n            );\r\n        } else if (_networkID == 42) {\r\n            lendingPoolAddressProviderAddress = kovanLendingPoolAddressProviderAddress;\r\n            protocolDataProvider = IProtocolDataProvider(\r\n                0x3c73A5E5785cAC854D468F727c606C07488a29D6\r\n            );\r\n        }\r\n        lendingPoolAddressesProvider = ILendingPoolAddressesProvider(\r\n            lendingPoolAddressProviderAddress\r\n        );\r\n        lendingPooladdress = lendingPoolAddressesProvider.getLendingPool();\r\n        //protocolDataProvider = IProtocolDataProvider(lendingPoolAddressesProvider.getAddress(bytes32('0x1')));\r\n        lendingPool = ILendingPool(lendingPooladdress);\r\n    }\r\n\r\n    // we shouldn't need this on this contract\r\n    receive() external payable {}\r\n\r\n    event debug(address _address, uint256 state);\r\n\r\n    /// @notice Approves sending _asset ERC20 tokens to the lendingPool\r\n    /// @param _asset the address of asset contract\r\n    /// @param _userVault the address of the user vault\r\n    /// @dev this needs to be called for each new asset purchased\r\n    function approveLendingPool(address _asset, address _userVault) external {\r\n        IERC20 _erc20 = IERC20(_asset);\r\n        if (_erc20.allowance(_userVault, lendingPooladdress) <= MIN_APPROVAL) {\r\n            _erc20.approve(lendingPooladdress, MAX_INT);\r\n        }\r\n    }\r\n\r\n    function getAToken(address _asset) public view returns (address) {\r\n        address _aTokenAddress;\r\n        (_aTokenAddress, , ) = protocolDataProvider.getReserveTokensAddresses(\r\n            _asset\r\n        );\r\n        return _aTokenAddress;\r\n    }\r\n\r\n    function getATokenBalance(address _asset, address _userVault)\r\n        internal\r\n        view\r\n        returns (uint256)\r\n    {\r\n        IERC20 _erc20 = IERC20(getAToken(_asset));\r\n        return _erc20.balanceOf(_userVault);\r\n    }\r\n\r\n    /// @dev\r\n    function deposit(\r\n        address _asset,\r\n        address _userVault,\r\n        uint256 _amount\r\n    ) external {\r\n        lendingPool.deposit(_asset, _amount, _userVault, referralCode);\r\n    }\r\n\r\n    function checkAllowance(address _asset) external view returns (uint256) {\r\n        IERC20 _erc20 = IERC20(_asset);\r\n        return _erc20.allowance(msg.sender, address(lendingPool));\r\n    }\r\n\r\n    ///@dev put these transfers into require statements\r\n    function withdraw(\r\n        address _asset,\r\n        uint256 _amount,\r\n        address _user\r\n    ) external {\r\n        lendingPool.withdraw(_asset, _amount, _user);\r\n    }\r\n\r\n    function getBalance(address _asset, address _vault)\r\n        public\r\n        view\r\n        returns (uint256)\r\n    {\r\n        IUserVault _userVault = IUserVault(_vault);\r\n        return _userVault.balance(_asset);\r\n    }\r\n\r\n    function getInterest(address _asset, address _vault)\r\n        external\r\n        view\r\n        returns (uint256)\r\n    {\r\n        uint256 _tokenBalance = getATokenBalance(_asset, _vault);\r\n        return _tokenBalance.sub(getBalance(_asset, _vault));\r\n    }\r\n\r\n    function getTotal(address _asset, address _vault)\r\n        external\r\n        view\r\n        returns (uint256)\r\n    {\r\n        uint256 _tokenBalance = getATokenBalance(_asset, _vault);\r\n        return _tokenBalance;\r\n    }\r\n\r\n    function retrieveETH() external onlyOwner {\r\n        msg.sender.transfer(address(this).balance);\r\n    }\r\n}\r\n",
  "sourcePath": "C:/Users/anyth/Documents/GitHub/StakeYourName/contracts/InvestmentManager.sol",
  "compiler": {
    "name": "solc",
    "version": "0.7.6+commit.7338295f.Emscripten.clang"
  },
  "schemaVersion": "3.3.3",
  "updatedAt": "2021-02-01T17:32:17.665Z",
  "networkType": "ethereum",
  "devdoc": {
    "author": "Daniel Chilvers*",
    "kind": "dev",
    "methods": {
      "approveLendingPool(address,address)": {
        "details": "this needs to be called for each new asset purchased",
        "params": {
          "_asset": "the address of asset contract",
          "_userVault": "the address of the user vault"
        }
      },
      "owner()": {
        "details": "Returns the address of the current owner."
      },
      "renounceOwnership()": {
        "details": "Leaves the contract without owner. It will not be possible to call `onlyOwner` functions anymore. Can only be called by the current owner. NOTE: Renouncing ownership will leave the contract without an owner, thereby removing any functionality that is only available to the owner."
      },
      "transferOwnership(address)": {
        "details": "Transfers ownership of the contract to a new account (`newOwner`). Can only be called by the current owner."
      },
      "withdraw(address,uint256,address)": {
        "details": "put these transfers into require statements"
      }
    },
    "title": "Manages depositing and withdrawing from Aave",
    "version": 1
  },
  "userdoc": {
    "kind": "user",
    "methods": {
      "approveLendingPool(address,address)": {
        "notice": "Approves sending _asset ERC20 tokens to the lendingPool"
      }
    },
    "notice": "part of the StakeYourName DApp",
    "version": 1
  }
}