{
  "contractName": "InvestmentManager",
  "abi": [
    {
      "inputs": [
        {
          "internalType": "uint256",
          "name": "_networkID",
          "type": "uint256"
        }
      ],
      "stateMutability": "nonpayable",
      "type": "constructor"
    },
    {
      "inputs": [],
      "name": "checkLendingPoolAddress",
      "outputs": [
        {
          "internalType": "address",
          "name": "",
          "type": "address"
        }
      ],
      "stateMutability": "view",
      "type": "function",
      "constant": true
    }
  ],
  "bytecode": "0x6080604052739fe532197ad76c5a68961439604c037eb79681f06000806101000a81548173ffffffffffffffffffffffffffffffffffffffff021916908373ffffffffffffffffffffffffffffffffffffffff160217905550737d2768de32b0b80b7a3454c06bdac94a69ddc7a9600160006101000a81548173ffffffffffffffffffffffffffffffffffffffff021916908373ffffffffffffffffffffffffffffffffffffffff16021790555061dead600260006101000a81548173ffffffffffffffffffffffffffffffffffffffff021916908373ffffffffffffffffffffffffffffffffffffffff1602179055503480156100fc57600080fd5b506040516102d63803806102d68339818101604052602081101561011f57600080fd5b8101908080519060200190929190505050600181141561019d57600160009054906101000a900473ffffffffffffffffffffffffffffffffffffffff16600260006101000a81548173ffffffffffffffffffffffffffffffffffffffff021916908373ffffffffffffffffffffffffffffffffffffffff1602179055505b602a8114156102085760008054906101000a900473ffffffffffffffffffffffffffffffffffffffff16600260006101000a81548173ffffffffffffffffffffffffffffffffffffffff021916908373ffffffffffffffffffffffffffffffffffffffff1602179055505b5060bf806102176000396000f3fe6080604052348015600f57600080fd5b506004361060285760003560e01c8063aaf298a414602d575b600080fd5b6033605f565b604051808273ffffffffffffffffffffffffffffffffffffffff16815260200191505060405180910390f35b6000600260009054906101000a900473ffffffffffffffffffffffffffffffffffffffff1690509056fea2646970667358221220825c24fdbf266bde7373e25d918f7509c6702d87d48881364f160fe6813d505764736f6c63430007040033",
  "immutableReferences": {},
  "source": "// SPDX-License-Identifier: MIT\r\npragma solidity ^0.7.0;\r\n\r\n//@title Manages investments on Aave\r\n//@creator Daniel Chilvers\r\n\r\ncontract InvestmentManager {\r\n    address internal kovanLendingPool = 0x9FE532197ad76c5a68961439604C037EB79681F0;\r\n    address internal mainLendingPool = 0x7d2768dE32b0b80b7a3454c06BdAc94A69DDc7A9;\r\n    address internal lendingPooladdress = 0x000000000000000000000000000000000000dEaD;\r\n\r\n    //@dev truffle will pass in the networkID when migrated, use this to select the correct address\r\n    constructor(uint _networkID) {\r\n        if (_networkID == 1){\r\n            lendingPooladdress = mainLendingPool;\r\n        }\r\n        if (_networkID == 42){\r\n            lendingPooladdress = kovanLendingPool;\r\n        }\r\n    }\r\n\r\n    function checkLendingPoolAddress() public view returns(address){\r\n        return (lendingPooladdress);\r\n    }\r\n\r\n}",
  "sourcePath": "C:/Users/anyth/Documents/GitHub/StakeYourName/contracts/InvestmentManager.sol",
  "compiler": {
    "name": "solc",
    "version": "0.7.4+commit.3f05b770.Emscripten.clang"
  },
  "schemaVersion": "3.3.3",
  "updatedAt": "2021-01-17T18:51:22.771Z",
  "networkType": "ethereum",
  "devdoc": {
    "kind": "dev",
    "methods": {},
    "version": 1
  },
  "userdoc": {
    "kind": "user",
    "methods": {},
    "version": 1
  }
}