{
  "contractName": "InvestmentManager",
  "abi": [
    {
      "inputs": [
        {
          "internalType": "uint256",
          "name": "_networkID",
          "type": "uint256"
        }
      ],
      "stateMutability": "nonpayable",
      "type": "constructor"
    },
    {
      "anonymous": false,
      "inputs": [
        {
          "indexed": true,
          "internalType": "address",
          "name": "previousOwner",
          "type": "address"
        },
        {
          "indexed": true,
          "internalType": "address",
          "name": "newOwner",
          "type": "address"
        }
      ],
      "name": "OwnershipTransferred",
      "type": "event"
    },
    {
      "anonymous": false,
      "inputs": [
        {
          "indexed": false,
          "internalType": "address",
          "name": "_address",
          "type": "address"
        }
      ],
      "name": "debug",
      "type": "event"
    },
    {
      "inputs": [
        {
          "internalType": "uint256",
          "name": "",
          "type": "uint256"
        }
      ],
      "name": "aTokens",
      "outputs": [
        {
          "internalType": "string",
          "name": "symbol",
          "type": "string"
        },
        {
          "internalType": "address",
          "name": "tokenAddress",
          "type": "address"
        }
      ],
      "stateMutability": "view",
      "type": "function",
      "constant": true
    },
    {
      "inputs": [],
      "name": "owner",
      "outputs": [
        {
          "internalType": "address",
          "name": "",
          "type": "address"
        }
      ],
      "stateMutability": "view",
      "type": "function",
      "constant": true
    },
    {
      "inputs": [],
      "name": "renounceOwnership",
      "outputs": [],
      "stateMutability": "nonpayable",
      "type": "function"
    },
    {
      "inputs": [
        {
          "internalType": "address",
          "name": "newOwner",
          "type": "address"
        }
      ],
      "name": "transferOwnership",
      "outputs": [],
      "stateMutability": "nonpayable",
      "type": "function"
    },
    {
      "inputs": [
        {
          "internalType": "address",
          "name": "_reserve",
          "type": "address"
        },
        {
          "internalType": "uint128",
          "name": "_amount",
          "type": "uint128"
        }
      ],
      "name": "deposit",
      "outputs": [],
      "stateMutability": "payable",
      "type": "function",
      "payable": true
    },
    {
      "inputs": [
        {
          "internalType": "address",
          "name": "_reserve",
          "type": "address"
        },
        {
          "internalType": "uint128",
          "name": "_amount",
          "type": "uint128"
        }
      ],
      "name": "withdraw",
      "outputs": [],
      "stateMutability": "nonpayable",
      "type": "function"
    },
    {
      "inputs": [],
      "name": "withdrawAll",
      "outputs": [],
      "stateMutability": "nonpayable",
      "type": "function"
    },
    {
      "inputs": [
        {
          "internalType": "uint16",
          "name": "_code",
          "type": "uint16"
        }
      ],
      "name": "updateReferalCode",
      "outputs": [],
      "stateMutability": "nonpayable",
      "type": "function"
    },
    {
      "inputs": [],
      "name": "checkLendingPoolAddress",
      "outputs": [
        {
          "internalType": "address",
          "name": "",
          "type": "address"
        }
      ],
      "stateMutability": "view",
      "type": "function",
      "constant": true
    },
    {
      "inputs": [],
      "name": "checkLendingPoolAddressProviderAddress",
      "outputs": [
        {
          "internalType": "address",
          "name": "",
          "type": "address"
        }
      ],
      "stateMutability": "view",
      "type": "function",
      "constant": true
    },
    {
      "inputs": [],
      "name": "updateLendingPoolAddress",
      "outputs": [
        {
          "internalType": "address",
          "name": "",
          "type": "address"
        }
      ],
      "stateMutability": "nonpayable",
      "type": "function"
    }
  ],
  "bytecode": "0x608060405261dead600160006101000a81548173ffffffffffffffffffffffffffffffffffffffff021916908373ffffffffffffffffffffffffffffffffffffffff160217905550600160009054906101000a900473ffffffffffffffffffffffffffffffffffffffff16600260006101000a81548173ffffffffffffffffffffffffffffffffffffffff021916908373ffffffffffffffffffffffffffffffffffffffff1602179055507388757f2f99175387ab4c6a4b3067c77a695b0349600360006101000a81548173ffffffffffffffffffffffffffffffffffffffff021916908373ffffffffffffffffffffffffffffffffffffffff16021790555073b53c1a33016b2dc2ff3653530bff1848a515c8c5600460006101000a81548173ffffffffffffffffffffffffffffffffffffffff021916908373ffffffffffffffffffffffffffffffffffffffff160217905550600160009054906101000a900473ffffffffffffffffffffffffffffffffffffffff16600560006101000a81548173ffffffffffffffffffffffffffffffffffffffff021916908373ffffffffffffffffffffffffffffffffffffffff160217905550600160009054906101000a900473ffffffffffffffffffffffffffffffffffffffff16600660006101000a81548173ffffffffffffffffffffffffffffffffffffffff021916908373ffffffffffffffffffffffffffffffffffffffff160217905550736b175474e89094c44da98b954eedeac495271d0f600760006101000a81548173ffffffffffffffffffffffffffffffffffffffff021916908373ffffffffffffffffffffffffffffffffffffffff16021790555073a0b86991c6218b36c1d19d4a2e9eb0ce3606eb48600860006101000a81548173ffffffffffffffffffffffffffffffffffffffff021916908373ffffffffffffffffffffffffffffffffffffffff1602179055506000600860146101000a81548161ffff021916908361ffff160217905550348015620002ef57600080fd5b5060405162001de238038062001de2833981810160405281019062000315919062000768565b6000620003276200070660201b60201c565b9050806000806101000a81548173ffffffffffffffffffffffffffffffffffffffff021916908373ffffffffffffffffffffffffffffffffffffffff1602179055508073ffffffffffffffffffffffffffffffffffffffff16600073ffffffffffffffffffffffffffffffffffffffff167f8be0079c531659141344cd1fd0a4f28419497f9722a3daafe3b4186f6b6457e060405160405180910390a35060018114156200043857600460009054906101000a900473ffffffffffffffffffffffffffffffffffffffff16600560006101000a81548173ffffffffffffffffffffffffffffffffffffffff021916908373ffffffffffffffffffffffffffffffffffffffff160217905550620004a7565b602a811415620004a657600360009054906101000a900473ffffffffffffffffffffffffffffffffffffffff16600560006101000a81548173ffffffffffffffffffffffffffffffffffffffff021916908373ffffffffffffffffffffffffffffffffffffffff1602179055505b5b600560009054906101000a900473ffffffffffffffffffffffffffffffffffffffff16600c60006101000a81548173ffffffffffffffffffffffffffffffffffffffff021916908373ffffffffffffffffffffffffffffffffffffffff160217905550600c60009054906101000a900473ffffffffffffffffffffffffffffffffffffffff1673ffffffffffffffffffffffffffffffffffffffff16630261bf8b6040518163ffffffff1660e01b815260040160206040518083038186803b1580156200057357600080fd5b505afa15801562000588573d6000803e3d6000fd5b505050506040513d601f19601f82011682018060405250810190620005ae91906200073c565b600260006101000a81548173ffffffffffffffffffffffffffffffffffffffff021916908373ffffffffffffffffffffffffffffffffffffffff160217905550600c60009054906101000a900473ffffffffffffffffffffffffffffffffffffffff1673ffffffffffffffffffffffffffffffffffffffff166321f8a7217f30783100000000000000000000000000000000000000000000000000000000006040518263ffffffff1660e01b81526004016200066b9190620007a5565b60206040518083038186803b1580156200068457600080fd5b505afa15801562000699573d6000803e3d6000fd5b505050506040513d601f19601f82011682018060405250810190620006bf91906200073c565b600d60006101000a81548173ffffffffffffffffffffffffffffffffffffffff021916908373ffffffffffffffffffffffffffffffffffffffff160217905550506200083e565b600033905090565b6000815190506200071f816200080a565b92915050565b600081519050620007368162000824565b92915050565b6000602082840312156200074f57600080fd5b60006200075f848285016200070e565b91505092915050565b6000602082840312156200077b57600080fd5b60006200078b8482850162000725565b91505092915050565b6200079f81620007d6565b82525050565b6000602082019050620007bc600083018462000794565b92915050565b6000620007cf82620007e0565b9050919050565b6000819050919050565b600073ffffffffffffffffffffffffffffffffffffffff82169050919050565b6000819050919050565b6200081581620007c2565b81146200082157600080fd5b50565b6200082f8162000800565b81146200083b57600080fd5b50565b611594806200084e6000396000f3fe60806040526004361061009c5760003560e01c8063853828b611610064578063853828b6146101735780638da5cb5b1461018a578063aaf298a4146101b5578063b3fb6564146101e0578063d15c89e8146101fc578063f2fde38b146102275761009c565b806308fab167146100a157806310af5191146100ca57806317cad724146100f3578063324e4b571461011e578063715018a61461015c575b600080fd5b3480156100ad57600080fd5b506100c860048036038101906100c391906111db565b610250565b005b3480156100d657600080fd5b506100f160048036038101906100ec9190611217565b6104cd565b005b3480156100ff57600080fd5b506101086105b5565b6040516101159190611307565b60405180910390f35b34801561012a57600080fd5b5061014560048036038101906101409190611240565b6107e0565b60405161015392919061139e565b60405180910390f35b34801561016857600080fd5b506101716108cc565b005b34801561017f57600080fd5b50610188610a52565b005b34801561019657600080fd5b5061019f610b5a565b6040516101ac9190611307565b60405180910390f35b3480156101c157600080fd5b506101ca610b83565b6040516101d79190611307565b60405180910390f35b6101fa60048036038101906101f591906111db565b610bad565b005b34801561020857600080fd5b50610211610ece565b60405161021e9190611307565b60405180910390f35b34801561023357600080fd5b5061024e60048036038101906102499190611189565b610ef8565b005b60008060005b600960003373ffffffffffffffffffffffffffffffffffffffff1673ffffffffffffffffffffffffffffffffffffffff168152602001908152602001600020805490508111610363578473ffffffffffffffffffffffffffffffffffffffff16600960003373ffffffffffffffffffffffffffffffffffffffff1673ffffffffffffffffffffffffffffffffffffffff168152602001908152602001600020828154811061030057fe5b906000526020600020906002020160000160009054906101000a900473ffffffffffffffffffffffffffffffffffffffff1673ffffffffffffffffffffffffffffffffffffffff16141561035657809250600191505b8080600101915050610256565b5060018061040c5750826fffffffffffffffffffffffffffffffff16600960003373ffffffffffffffffffffffffffffffffffffffff1673ffffffffffffffffffffffffffffffffffffffff16815260200190815260200160002083815481106103c957fe5b906000526020600020906002020160010160009054906101000a90046fffffffffffffffffffffffffffffffff166fffffffffffffffffffffffffffffffff1610155b905080156104c757600b60009054906101000a900473ffffffffffffffffffffffffffffffffffffffff1673ffffffffffffffffffffffffffffffffffffffff166369328dec8585336040518463ffffffff1660e01b815260040161047393929190611322565b602060405180830381600087803b15801561048d57600080fd5b505af11580156104a1573d6000803e3d6000fd5b505050506040513d601f19601f820116820180604052508101906104c59190611269565b505b50505050565b6104d5611103565b73ffffffffffffffffffffffffffffffffffffffff1660008054906101000a900473ffffffffffffffffffffffffffffffffffffffff1673ffffffffffffffffffffffffffffffffffffffff1614610595576040517f08c379a00000000000000000000000000000000000000000000000000000000081526004018080602001828103825260208152602001807f4f776e61626c653a2063616c6c6572206973206e6f7420746865206f776e657281525060200191505060405180910390fd5b80600860146101000a81548161ffff021916908361ffff16021790555050565b60006105bf611103565b73ffffffffffffffffffffffffffffffffffffffff1660008054906101000a900473ffffffffffffffffffffffffffffffffffffffff1673ffffffffffffffffffffffffffffffffffffffff161461067f576040517f08c379a00000000000000000000000000000000000000000000000000000000081526004018080602001828103825260208152602001807f4f776e61626c653a2063616c6c6572206973206e6f7420746865206f776e657281525060200191505060405180910390fd5b600c60009054906101000a900473ffffffffffffffffffffffffffffffffffffffff1673ffffffffffffffffffffffffffffffffffffffff16630261bf8b6040518163ffffffff1660e01b815260040160206040518083038186803b1580156106e757600080fd5b505afa1580156106fb573d6000803e3d6000fd5b505050506040513d601f19601f8201168201806040525081019061071f91906111b2565b600260006101000a81548173ffffffffffffffffffffffffffffffffffffffff021916908373ffffffffffffffffffffffffffffffffffffffff1602179055507f6714a34ec8a9172d2ad9228b7a21a08ff9d784b515a6348762ffc6c67b922ce8600260009054906101000a900473ffffffffffffffffffffffffffffffffffffffff166040516107b09190611307565b60405180910390a1600260009054906101000a900473ffffffffffffffffffffffffffffffffffffffff16905090565b600a81815481106107f057600080fd5b9060005260206000209060020201600091509050806000018054600181600116156101000203166002900480601f01602080910402602001604051908101604052809291908181526020018280546001816001161561010002031660029004801561089c5780601f106108715761010080835404028352916020019161089c565b820191906000526020600020905b81548152906001019060200180831161087f57829003601f168201915b5050505050908060010160009054906101000a900473ffffffffffffffffffffffffffffffffffffffff16905082565b6108d4611103565b73ffffffffffffffffffffffffffffffffffffffff1660008054906101000a900473ffffffffffffffffffffffffffffffffffffffff1673ffffffffffffffffffffffffffffffffffffffff1614610994576040517f08c379a00000000000000000000000000000000000000000000000000000000081526004018080602001828103825260208152602001807f4f776e61626c653a2063616c6c6572206973206e6f7420746865206f776e657281525060200191505060405180910390fd5b600073ffffffffffffffffffffffffffffffffffffffff1660008054906101000a900473ffffffffffffffffffffffffffffffffffffffff1673ffffffffffffffffffffffffffffffffffffffff167f8be0079c531659141344cd1fd0a4f28419497f9722a3daafe3b4186f6b6457e060405160405180910390a360008060006101000a81548173ffffffffffffffffffffffffffffffffffffffff021916908373ffffffffffffffffffffffffffffffffffffffff160217905550565b610a5a611103565b73ffffffffffffffffffffffffffffffffffffffff1660008054906101000a900473ffffffffffffffffffffffffffffffffffffffff1673ffffffffffffffffffffffffffffffffffffffff1614610b1a576040517f08c379a00000000000000000000000000000000000000000000000000000000081526004018080602001828103825260208152602001807f4f776e61626c653a2063616c6c6572206973206e6f7420746865206f776e657281525060200191505060405180910390fd5b3373ffffffffffffffffffffffffffffffffffffffff166108fc479081150290604051600060405180830381858888f19350505050610b5857600080fd5b565b60008060009054906101000a900473ffffffffffffffffffffffffffffffffffffffff16905090565b6000600260009054906101000a900473ffffffffffffffffffffffffffffffffffffffff16905090565b6000805b600960003373ffffffffffffffffffffffffffffffffffffffff1673ffffffffffffffffffffffffffffffffffffffff168152602001908152602001600020805490508111610ec8578373ffffffffffffffffffffffffffffffffffffffff16600960003373ffffffffffffffffffffffffffffffffffffffff1673ffffffffffffffffffffffffffffffffffffffff1681526020019081526020016000208281548110610c5b57fe5b906000526020600020906002020160000160009054906101000a900473ffffffffffffffffffffffffffffffffffffffff1673ffffffffffffffffffffffffffffffffffffffff161415610cb157809150610d0d565b600960003373ffffffffffffffffffffffffffffffffffffffff1673ffffffffffffffffffffffffffffffffffffffff168152602001908152602001600020600181600181540180825580915050039060005260206000209050505b600b60009054906101000a900473ffffffffffffffffffffffffffffffffffffffff1673ffffffffffffffffffffffffffffffffffffffff1663e8eda9df858530600860149054906101000a900461ffff166040518563ffffffff1660e01b8152600401610d7e9493929190611359565b600060405180830381600087803b158015610d9857600080fd5b505af1158015610dac573d6000803e3d6000fd5b5050505082600960003373ffffffffffffffffffffffffffffffffffffffff1673ffffffffffffffffffffffffffffffffffffffff1681526020019081526020016000208381548110610dfb57fe5b906000526020600020906002020160010160009054906101000a90046fffffffffffffffffffffffffffffffff1601600960003373ffffffffffffffffffffffffffffffffffffffff1673ffffffffffffffffffffffffffffffffffffffff1681526020019081526020016000208381548110610e7457fe5b906000526020600020906002020160010160006101000a8154816fffffffffffffffffffffffffffffffff02191690836fffffffffffffffffffffffffffffffff1602179055508080600101915050610bb1565b50505050565b6000600560009054906101000a900473ffffffffffffffffffffffffffffffffffffffff16905090565b610f00611103565b73ffffffffffffffffffffffffffffffffffffffff1660008054906101000a900473ffffffffffffffffffffffffffffffffffffffff1673ffffffffffffffffffffffffffffffffffffffff1614610fc0576040517f08c379a00000000000000000000000000000000000000000000000000000000081526004018080602001828103825260208152602001807f4f776e61626c653a2063616c6c6572206973206e6f7420746865206f776e657281525060200191505060405180910390fd5b600073ffffffffffffffffffffffffffffffffffffffff168173ffffffffffffffffffffffffffffffffffffffff161415611046576040517f08c379a00000000000000000000000000000000000000000000000000000000081526004018080602001828103825260268152602001806115396026913960400191505060405180910390fd5b8073ffffffffffffffffffffffffffffffffffffffff1660008054906101000a900473ffffffffffffffffffffffffffffffffffffffff1673ffffffffffffffffffffffffffffffffffffffff167f8be0079c531659141344cd1fd0a4f28419497f9722a3daafe3b4186f6b6457e060405160405180910390a3806000806101000a81548173ffffffffffffffffffffffffffffffffffffffff021916908373ffffffffffffffffffffffffffffffffffffffff16021790555050565b600033905090565b60008135905061111a816114dc565b92915050565b60008151905061112f816114dc565b92915050565b600081359050611144816114f3565b92915050565b6000813590506111598161150a565b92915050565b60008135905061116e81611521565b92915050565b60008151905061118381611521565b92915050565b60006020828403121561119b57600080fd5b60006111a98482850161110b565b91505092915050565b6000602082840312156111c457600080fd5b60006111d284828501611120565b91505092915050565b600080604083850312156111ee57600080fd5b60006111fc8582860161110b565b925050602061120d85828601611135565b9150509250929050565b60006020828403121561122957600080fd5b60006112378482850161114a565b91505092915050565b60006020828403121561125257600080fd5b60006112608482850161115f565b91505092915050565b60006020828403121561127b57600080fd5b600061128984828501611174565b91505092915050565b61129b81611450565b82525050565b6112aa816113ea565b82525050565b60006112bb826113ce565b6112c581856113d9565b93506112d5818560208601611498565b6112de816114cb565b840191505092915050565b6112f281611462565b82525050565b61130181611418565b82525050565b600060208201905061131c60008301846112a1565b92915050565b600060608201905061133760008301866112a1565b61134460208301856112e9565b6113516040830184611292565b949350505050565b600060808201905061136e60008301876112a1565b61137b60208301866112e9565b61138860408301856112a1565b61139560608301846112f8565b95945050505050565b600060408201905081810360008301526113b881856112b0565b90506113c760208301846112a1565b9392505050565b600081519050919050565b600082825260208201905092915050565b60006113f582611426565b9050919050565b60006fffffffffffffffffffffffffffffffff82169050919050565b600061ffff82169050919050565b600073ffffffffffffffffffffffffffffffffffffffff82169050919050565b6000819050919050565b600061145b82611474565b9050919050565b600061146d826113fc565b9050919050565b600061147f82611486565b9050919050565b600061149182611426565b9050919050565b60005b838110156114b657808201518184015260208101905061149b565b838111156114c5576000848401525b50505050565b6000601f19601f8301169050919050565b6114e5816113ea565b81146114f057600080fd5b50565b6114fc816113fc565b811461150757600080fd5b50565b61151381611418565b811461151e57600080fd5b50565b61152a81611446565b811461153557600080fd5b5056fe4f776e61626c653a206e6577206f776e657220697320746865207a65726f2061646472657373a26469706673582212203d0f68c205ece48a2f7d2a9a34e1e7654a0329122c9fc85b6fa2ba6b20c7b70c64736f6c63430007040033",
  "immutableReferences": {},
  "source": "// SPDX-License-Identifier: MIT\r\npragma solidity ^0.7.0;\r\npragma experimental ABIEncoderV2;\r\n\r\nimport \"interfaces/ILendingPool.sol\";\r\nimport \"interfaces/IProtocolDataProvider.sol\";\r\nimport \"@openzeppelin/contracts/access/Ownable.sol\";\r\n\r\n  /**\r\n   * @title Manages depositing and withdrawing from Aave\r\n   * @notice part of the StakeYourName DApp\r\n   * @author Daniel Chilvers\r\n   **/\r\ncontract InvestmentManager is Ownable {\r\n    //address internal kovanLendingPool = 0x9FE532197ad76c5a68961439604C037EB79681F0;\r\n    //address internal mainLendingPool = 0x7d2768dE32b0b80b7a3454c06BdAc94A69DDc7A9;\r\n    address internal deadAddress = 0x000000000000000000000000000000000000dEaD;\r\n    address internal lendingPooladdress = deadAddress;\r\n    address internal kovanLendingPoolAddressProviderAddress = 0x88757f2f99175387aB4C6a4b3067c77A695b0349;\r\n    address internal mainLendingPoolAddressProviderAddress = 0xB53C1a33016B2DC2fF3653530bfF1848a515c8c5;\r\n    address internal lendingPoolAddressProviderAddress = deadAddress;\r\n    address internal ProtocolDataProviderAddress = deadAddress;\r\n\r\n    /// @dev addresses saved here for testing, in final version the\r\n    /// @dev addresses will be passed in from the front end.\r\n    address internal DAIContract = 0x6B175474E89094C44Da98b954EedeAC495271d0F;\r\n    address internal USDCContract = 0xA0b86991c6218b36c1d19D4a2e9Eb0cE3606eB48;\r\n\r\n    uint16 referralCode = 0;\r\n\r\n    /// @dev TO;DO change to saving the asset symbol instead \r\n    /// @dev then this will be packed and we save gas\r\n    struct User {\r\n        address asset;\r\n        uint128 balance;\r\n        bool locked;\r\n    }\r\n\r\n    /// @dev map user addresses to our struct above\r\n    mapping (address => User[]) Users;\r\n\r\n    IProtocolDataProvider.TokenData[] public aTokens;\r\n\r\n    ILendingPool lendingPool;\r\n    ILendingPoolAddressesProvider lendingPoolAddressesProvider;\r\n    IProtocolDataProvider protocolDataProvider;\r\n\r\n    constructor(uint _networkID) {\r\n        /// @dev truffle will pass in the networkID when migrated, use this to select the correct address\r\n        if (_networkID == 1){\r\n            lendingPoolAddressProviderAddress = mainLendingPoolAddressProviderAddress;\r\n        } else if (_networkID == 42){\r\n            lendingPoolAddressProviderAddress = kovanLendingPoolAddressProviderAddress;\r\n        } \r\n        lendingPoolAddressesProvider = ILendingPoolAddressesProvider(lendingPoolAddressProviderAddress);\r\n        lendingPooladdress =  lendingPoolAddressesProvider.getLendingPool();\r\n        protocolDataProvider = IProtocolDataProvider(lendingPoolAddressesProvider.getAddress(bytes32('0x1')));\r\n    }\r\n\r\n    event debug(address _address);\r\n\r\n\r\n    function deposit(address _reserve, uint128 _amount) public payable{\r\n        uint _index = 0;\r\n        /// @dev check if the user already has some of this asset   \r\n        for (uint i; i <= Users[msg.sender].length ; i++) {\r\n            if (Users[msg.sender][i].asset == _reserve ){\r\n                _index = i;\r\n            } else {\r\n                Users[msg.sender].push();\r\n            }\r\n            lendingPool.deposit(_reserve, _amount, address(this) , referralCode);\r\n            Users[msg.sender][_index].balance = Users[msg.sender][_index].balance + _amount;\r\n        }\r\n    }\r\n\r\n    function withdraw(address _reserve, uint128 _amount) public {\r\n        uint _index = 0;\r\n        bool _owned = false;\r\n        for (uint i; i <= Users[msg.sender].length ; i++) {\r\n            if (Users[msg.sender][i].asset == _reserve ){\r\n                _index = i;\r\n                _owned = true;\r\n            }\r\n        }\r\n        if (_owned = true || Users[msg.sender][_index].balance >= _amount){\r\n            lendingPool.withdraw(_reserve, _amount, msg.sender);\r\n        }\r\n        \r\n    }\r\n\r\n    /// @notice don't send me funds if this function still exists\r\n    /// @dev for recovering test funds\r\n    function withdrawAll() public onlyOwner {\r\n        require(msg.sender.send(address(this).balance));\r\n    }\r\n\r\n    function updateReferalCode(uint16 _code) public onlyOwner {\r\n        referralCode = _code;\r\n    }\r\n\r\n    /// @notice verify the address of the lending pool in use\r\n    function checkLendingPoolAddress() public view returns(address){\r\n        return (lendingPooladdress);\r\n    }\r\n\r\n    /// @notice verify the address of the lending pool address provider\r\n    /// @dev maybe try and shorten the function name a bit\r\n    function checkLendingPoolAddressProviderAddress() public view returns(address){\r\n        return (lendingPoolAddressProviderAddress);\r\n    }\r\n\r\n    /// @notice update the lending pool address from the address provider\r\n    function updateLendingPoolAddress() public onlyOwner returns(address){\r\n        lendingPooladdress = lendingPoolAddressesProvider.getLendingPool();\r\n        emit debug(lendingPooladdress);\r\n        return (lendingPooladdress);\r\n    }\r\n\r\n}",
  "sourcePath": "C:/Users/anyth/Documents/GitHub/StakeYourName/contracts/InvestmentManager.sol",
  "compiler": {
    "name": "solc",
    "version": "0.7.4+commit.3f05b770.Emscripten.clang"
  },
  "schemaVersion": "3.3.3",
  "updatedAt": "2021-01-20T17:25:13.544Z",
  "networkType": "ethereum",
  "devdoc": {
    "author": "Daniel Chilvers*",
    "kind": "dev",
    "methods": {
      "checkLendingPoolAddressProviderAddress()": {
        "details": "maybe try and shorten the function name a bit"
      },
      "owner()": {
        "details": "Returns the address of the current owner."
      },
      "renounceOwnership()": {
        "details": "Leaves the contract without owner. It will not be possible to call `onlyOwner` functions anymore. Can only be called by the current owner. NOTE: Renouncing ownership will leave the contract without an owner, thereby removing any functionality that is only available to the owner."
      },
      "transferOwnership(address)": {
        "details": "Transfers ownership of the contract to a new account (`newOwner`). Can only be called by the current owner."
      },
      "withdrawAll()": {
        "details": "for recovering test funds"
      }
    },
    "stateVariables": {
      "DAIContract": {
        "details": "addresses saved here for testing, in final version theaddresses will be passed in from the front end."
      },
      "Users": {
        "details": "map user addresses to our struct above"
      }
    },
    "title": "Manages depositing and withdrawing from Aave",
    "version": 1
  },
  "userdoc": {
    "kind": "user",
    "methods": {
      "checkLendingPoolAddress()": {
        "notice": "verify the address of the lending pool in use"
      },
      "checkLendingPoolAddressProviderAddress()": {
        "notice": "verify the address of the lending pool address provider"
      },
      "updateLendingPoolAddress()": {
        "notice": "update the lending pool address from the address provider"
      },
      "withdrawAll()": {
        "notice": "don't send me funds if this function still exists"
      }
    },
    "notice": "part of the StakeYourName DApp",
    "version": 1
  }
}