{
  "contractName": "InvestmentManager",
  "abi": [
    {
      "inputs": [
        {
          "internalType": "uint256",
          "name": "_networkID",
          "type": "uint256"
        }
      ],
      "stateMutability": "nonpayable",
      "type": "constructor"
    },
    {
      "anonymous": false,
      "inputs": [
        {
          "indexed": true,
          "internalType": "address",
          "name": "previousOwner",
          "type": "address"
        },
        {
          "indexed": true,
          "internalType": "address",
          "name": "newOwner",
          "type": "address"
        }
      ],
      "name": "OwnershipTransferred",
      "type": "event"
    },
    {
      "anonymous": false,
      "inputs": [
        {
          "indexed": false,
          "internalType": "address",
          "name": "_address",
          "type": "address"
        },
        {
          "indexed": false,
          "internalType": "uint256",
          "name": "state",
          "type": "uint256"
        }
      ],
      "name": "debug",
      "type": "event"
    },
    {
      "inputs": [
        {
          "internalType": "uint256",
          "name": "",
          "type": "uint256"
        }
      ],
      "name": "aTokens",
      "outputs": [
        {
          "internalType": "string",
          "name": "symbol",
          "type": "string"
        },
        {
          "internalType": "address",
          "name": "tokenAddress",
          "type": "address"
        }
      ],
      "stateMutability": "view",
      "type": "function",
      "constant": true
    },
    {
      "inputs": [],
      "name": "owner",
      "outputs": [
        {
          "internalType": "address",
          "name": "",
          "type": "address"
        }
      ],
      "stateMutability": "view",
      "type": "function",
      "constant": true
    },
    {
      "inputs": [],
      "name": "renounceOwnership",
      "outputs": [],
      "stateMutability": "nonpayable",
      "type": "function"
    },
    {
      "inputs": [
        {
          "internalType": "address",
          "name": "newOwner",
          "type": "address"
        }
      ],
      "name": "transferOwnership",
      "outputs": [],
      "stateMutability": "nonpayable",
      "type": "function"
    },
    {
      "inputs": [
        {
          "internalType": "uint128",
          "name": "_amount",
          "type": "uint128"
        },
        {
          "internalType": "address",
          "name": "_asset",
          "type": "address"
        }
      ],
      "name": "approveDeposit",
      "outputs": [
        {
          "internalType": "bool",
          "name": "",
          "type": "bool"
        }
      ],
      "stateMutability": "nonpayable",
      "type": "function"
    },
    {
      "inputs": [
        {
          "internalType": "address",
          "name": "_reserve",
          "type": "address"
        },
        {
          "internalType": "uint128",
          "name": "_amount",
          "type": "uint128"
        }
      ],
      "name": "deposit",
      "outputs": [],
      "stateMutability": "nonpayable",
      "type": "function"
    },
    {
      "inputs": [
        {
          "internalType": "uint128",
          "name": "_amount",
          "type": "uint128"
        },
        {
          "internalType": "address",
          "name": "_asset",
          "type": "address"
        }
      ],
      "name": "approveWithdraw",
      "outputs": [
        {
          "internalType": "bool",
          "name": "",
          "type": "bool"
        }
      ],
      "stateMutability": "nonpayable",
      "type": "function"
    },
    {
      "inputs": [
        {
          "internalType": "address",
          "name": "_reserve",
          "type": "address"
        },
        {
          "internalType": "uint128",
          "name": "_amount",
          "type": "uint128"
        }
      ],
      "name": "withdraw",
      "outputs": [],
      "stateMutability": "nonpayable",
      "type": "function"
    },
    {
      "inputs": [],
      "name": "withdrawAll",
      "outputs": [],
      "stateMutability": "nonpayable",
      "type": "function"
    },
    {
      "inputs": [
        {
          "internalType": "uint16",
          "name": "_code",
          "type": "uint16"
        }
      ],
      "name": "updateReferalCode",
      "outputs": [],
      "stateMutability": "nonpayable",
      "type": "function"
    },
    {
      "inputs": [],
      "name": "checkLendingPoolAddress",
      "outputs": [
        {
          "internalType": "address",
          "name": "",
          "type": "address"
        }
      ],
      "stateMutability": "view",
      "type": "function",
      "constant": true
    },
    {
      "inputs": [],
      "name": "checkLendingPoolAddressProviderAddress",
      "outputs": [
        {
          "internalType": "address",
          "name": "",
          "type": "address"
        }
      ],
      "stateMutability": "view",
      "type": "function",
      "constant": true
    },
    {
      "inputs": [],
      "name": "updateLendingPoolAddress",
      "outputs": [
        {
          "internalType": "address",
          "name": "",
          "type": "address"
        }
      ],
      "stateMutability": "nonpayable",
      "type": "function"
    }
  ],
  "bytecode": "0x608060405261dead600160006101000a81548173ffffffffffffffffffffffffffffffffffffffff021916908373ffffffffffffffffffffffffffffffffffffffff160217905550600160009054906101000a900473ffffffffffffffffffffffffffffffffffffffff16600260006101000a81548173ffffffffffffffffffffffffffffffffffffffff021916908373ffffffffffffffffffffffffffffffffffffffff1602179055507388757f2f99175387ab4c6a4b3067c77a695b0349600360006101000a81548173ffffffffffffffffffffffffffffffffffffffff021916908373ffffffffffffffffffffffffffffffffffffffff16021790555073b53c1a33016b2dc2ff3653530bff1848a515c8c5600460006101000a81548173ffffffffffffffffffffffffffffffffffffffff021916908373ffffffffffffffffffffffffffffffffffffffff160217905550600160009054906101000a900473ffffffffffffffffffffffffffffffffffffffff16600560006101000a81548173ffffffffffffffffffffffffffffffffffffffff021916908373ffffffffffffffffffffffffffffffffffffffff160217905550600160009054906101000a900473ffffffffffffffffffffffffffffffffffffffff16600660006101000a81548173ffffffffffffffffffffffffffffffffffffffff021916908373ffffffffffffffffffffffffffffffffffffffff160217905550736b175474e89094c44da98b954eedeac495271d0f600760006101000a81548173ffffffffffffffffffffffffffffffffffffffff021916908373ffffffffffffffffffffffffffffffffffffffff16021790555073a0b86991c6218b36c1d19d4a2e9eb0ce3606eb48600860006101000a81548173ffffffffffffffffffffffffffffffffffffffff021916908373ffffffffffffffffffffffffffffffffffffffff1602179055506000600860146101000a81548161ffff021916908361ffff160217905550348015620002ef57600080fd5b5060405162002ec238038062002ec2833981810160405281019062000315919062000768565b6000620003276200070660201b60201c565b9050806000806101000a81548173ffffffffffffffffffffffffffffffffffffffff021916908373ffffffffffffffffffffffffffffffffffffffff1602179055508073ffffffffffffffffffffffffffffffffffffffff16600073ffffffffffffffffffffffffffffffffffffffff167f8be0079c531659141344cd1fd0a4f28419497f9722a3daafe3b4186f6b6457e060405160405180910390a35060018114156200043857600460009054906101000a900473ffffffffffffffffffffffffffffffffffffffff16600560006101000a81548173ffffffffffffffffffffffffffffffffffffffff021916908373ffffffffffffffffffffffffffffffffffffffff160217905550620004a7565b602a811415620004a657600360009054906101000a900473ffffffffffffffffffffffffffffffffffffffff16600560006101000a81548173ffffffffffffffffffffffffffffffffffffffff021916908373ffffffffffffffffffffffffffffffffffffffff1602179055505b5b600560009054906101000a900473ffffffffffffffffffffffffffffffffffffffff16600c60006101000a81548173ffffffffffffffffffffffffffffffffffffffff021916908373ffffffffffffffffffffffffffffffffffffffff160217905550600c60009054906101000a900473ffffffffffffffffffffffffffffffffffffffff1673ffffffffffffffffffffffffffffffffffffffff16630261bf8b6040518163ffffffff1660e01b815260040160206040518083038186803b1580156200057357600080fd5b505afa15801562000588573d6000803e3d6000fd5b505050506040513d601f19601f82011682018060405250810190620005ae91906200073c565b600260006101000a81548173ffffffffffffffffffffffffffffffffffffffff021916908373ffffffffffffffffffffffffffffffffffffffff160217905550600c60009054906101000a900473ffffffffffffffffffffffffffffffffffffffff1673ffffffffffffffffffffffffffffffffffffffff166321f8a7217f30783100000000000000000000000000000000000000000000000000000000006040518263ffffffff1660e01b81526004016200066b9190620007a5565b60206040518083038186803b1580156200068457600080fd5b505afa15801562000699573d6000803e3d6000fd5b505050506040513d601f19601f82011682018060405250810190620006bf91906200073c565b600d60006101000a81548173ffffffffffffffffffffffffffffffffffffffff021916908373ffffffffffffffffffffffffffffffffffffffff160217905550506200083e565b600033905090565b6000815190506200071f816200080a565b92915050565b600081519050620007368162000824565b92915050565b6000602082840312156200074f57600080fd5b60006200075f848285016200070e565b91505092915050565b6000602082840312156200077b57600080fd5b60006200078b8482850162000725565b91505092915050565b6200079f81620007d6565b82525050565b6000602082019050620007bc600083018462000794565b92915050565b6000620007cf82620007e0565b9050919050565b6000819050919050565b600073ffffffffffffffffffffffffffffffffffffffff82169050919050565b6000819050919050565b6200081581620007c2565b81146200082157600080fd5b50565b6200082f8162000800565b81146200083b57600080fd5b50565b612674806200084e6000396000f3fe608060405234801561001057600080fd5b50600436106100cf5760003560e01c8063853828b61161008c578063aaf298a411610066578063aaf298a4146101ed578063b3fb65641461020b578063d15c89e814610227578063f2fde38b14610245576100cf565b8063853828b6146101955780638da5cb5b1461019f578063a01c474f146101bd576100cf565b806308fab167146100d457806310af5191146100f057806317cad7241461010c57806319f999ad1461012a578063324e4b571461015a578063715018a61461018b575b600080fd5b6100ee60048036038101906100e99190611fb3565b610261565b005b61010a60048036038101906101059190612054565b610523565b005b61011461060b565b60405161012191906121bc565b60405180910390f35b610144600480360381019061013f9190612018565b610839565b604051610151919061239b565b60405180910390f35b610174600480360381019061016f919061207d565b610d3e565b6040516101829291906123b6565b60405180910390f35b610193610e2a565b005b61019d610fb0565b005b6101a76110b8565b6040516101b491906121bc565b60405180910390f35b6101d760048036038101906101d29190612018565b6110e1565b6040516101e4919061239b565b60405180910390f35b6101f561166d565b60405161020291906121bc565b60405180910390f35b61022560048036038101906102209190611fb3565b611697565b005b61022f6119ab565b60405161023c91906121bc565b60405180910390f35b61025f600480360381019061025a9190611f12565b6119d5565b005b60008060005b600960003373ffffffffffffffffffffffffffffffffffffffff1673ffffffffffffffffffffffffffffffffffffffff168152602001908152602001600020600001805490508111610373578473ffffffffffffffffffffffffffffffffffffffff16600960003373ffffffffffffffffffffffffffffffffffffffff1673ffffffffffffffffffffffffffffffffffffffff168152602001908152602001600020600001828154811061031757fe5b9060005260206000200160009054906101000a900473ffffffffffffffffffffffffffffffffffffffff1673ffffffffffffffffffffffffffffffffffffffff16141561036657809250600191505b8080600101915050610267565b506001806104235750826fffffffffffffffffffffffffffffffff16600960003373ffffffffffffffffffffffffffffffffffffffff1673ffffffffffffffffffffffffffffffffffffffff16815260200190815260200160002060010183815481106103dc57fe5b90600052602060002090600291828204019190066010029054906101000a90046fffffffffffffffffffffffffffffffff166fffffffffffffffffffffffffffffffff1610155b905080156104e257600b60009054906101000a900473ffffffffffffffffffffffffffffffffffffffff1673ffffffffffffffffffffffffffffffffffffffff166369328dec8585336040518463ffffffff1660e01b815260040161048a9392919061231f565b602060405180830381600087803b1580156104a457600080fd5b505af11580156104b8573d6000803e3d6000fd5b505050506040513d601f19601f820116820180604052508101906104dc91906120a6565b5061051d565b7f5e425538c7e29a3d46eeeb3adb5e33e85e1548fb34404f88df642c95e2e0f9b73360066040516105149291906122a4565b60405180910390a15b50505050565b61052b611be0565b73ffffffffffffffffffffffffffffffffffffffff1660008054906101000a900473ffffffffffffffffffffffffffffffffffffffff1673ffffffffffffffffffffffffffffffffffffffff16146105eb576040517f08c379a00000000000000000000000000000000000000000000000000000000081526004018080602001828103825260208152602001807f4f776e61626c653a2063616c6c6572206973206e6f7420746865206f776e657281525060200191505060405180910390fd5b80600860146101000a81548161ffff021916908361ffff16021790555050565b6000610615611be0565b73ffffffffffffffffffffffffffffffffffffffff1660008054906101000a900473ffffffffffffffffffffffffffffffffffffffff1673ffffffffffffffffffffffffffffffffffffffff16146106d5576040517f08c379a00000000000000000000000000000000000000000000000000000000081526004018080602001828103825260208152602001807f4f776e61626c653a2063616c6c6572206973206e6f7420746865206f776e657281525060200191505060405180910390fd5b600c60009054906101000a900473ffffffffffffffffffffffffffffffffffffffff1673ffffffffffffffffffffffffffffffffffffffff16630261bf8b6040518163ffffffff1660e01b815260040160206040518083038186803b15801561073d57600080fd5b505afa158015610751573d6000803e3d6000fd5b505050506040513d601f19601f820116820180604052508101906107759190611f3b565b600260006101000a81548173ffffffffffffffffffffffffffffffffffffffff021916908373ffffffffffffffffffffffffffffffffffffffff1602179055507f5e425538c7e29a3d46eeeb3adb5e33e85e1548fb34404f88df642c95e2e0f9b7600260009054906101000a900473ffffffffffffffffffffffffffffffffffffffff16600a6040516108099291906122f6565b60405180910390a1600260009054906101000a900473ffffffffffffffffffffffffffffffffffffffff16905090565b60008060009050600080600d60009054906101000a900473ffffffffffffffffffffffffffffffffffffffff1673ffffffffffffffffffffffffffffffffffffffff1663d2493b6c866040518263ffffffff1660e01b815260040161089e91906121bc565b60606040518083038186803b1580156108b657600080fd5b505afa1580156108ca573d6000803e3d6000fd5b505050506040513d601f19601f820116820180604052508101906108ee9190611f64565b9050508091505080600e60006101000a81548173ffffffffffffffffffffffffffffffffffffffff021916908373ffffffffffffffffffffffffffffffffffffffff16021790555060005b600960003373ffffffffffffffffffffffffffffffffffffffff1673ffffffffffffffffffffffffffffffffffffffff168152602001908152602001600020600001805490508111610a8f578573ffffffffffffffffffffffffffffffffffffffff16600960003373ffffffffffffffffffffffffffffffffffffffff1673ffffffffffffffffffffffffffffffffffffffff16815260200190815260200160002060000182815481106109e957fe5b9060005260206000200160009054906101000a900473ffffffffffffffffffffffffffffffffffffffff1673ffffffffffffffffffffffffffffffffffffffff161415610a3857809350610a82565b7f5e425538c7e29a3d46eeeb3adb5e33e85e1548fb34404f88df642c95e2e0f9b7336004604051610a6a929190612252565b60405180910390a16000925082945050505050610d38565b8080600101915050610939565b5084600960003373ffffffffffffffffffffffffffffffffffffffff1673ffffffffffffffffffffffffffffffffffffffff1681526020019081526020016000206000018481548110610ade57fe5b9060005260206000200160006101000a81548173ffffffffffffffffffffffffffffffffffffffff021916908373ffffffffffffffffffffffffffffffffffffffff160217905550610bae600960003373ffffffffffffffffffffffffffffffffffffffff1673ffffffffffffffffffffffffffffffffffffffff1681526020019081526020016000206002018481548110610b7657fe5b90600052602060002090600291828204019190066010029054906101000a90046fffffffffffffffffffffffffffffffff1687611be8565b600960003373ffffffffffffffffffffffffffffffffffffffff1673ffffffffffffffffffffffffffffffffffffffff1681526020019081526020016000206002018481548110610bfb57fe5b90600052602060002090600291828204019190066010026101000a8154816fffffffffffffffffffffffffffffffff02191690836fffffffffffffffffffffffffffffffff160217905550600e60009054906101000a900473ffffffffffffffffffffffffffffffffffffffff1673ffffffffffffffffffffffffffffffffffffffff1663095ea7b333886040518363ffffffff1660e01b8152600401610ca39291906122cd565b602060405180830381600087803b158015610cbd57600080fd5b505af1158015610cd1573d6000803e3d6000fd5b505050506040513d601f19601f82011682018060405250810190610cf59190611fef565b91507f5e425538c7e29a3d46eeeb3adb5e33e85e1548fb34404f88df642c95e2e0f9b7336005604051610d2992919061227b565b60405180910390a18193505050505b92915050565b600a8181548110610d4e57600080fd5b9060005260206000209060020201600091509050806000018054600181600116156101000203166002900480601f016020809104026020016040519081016040528092919081815260200182805460018160011615610100020316600290048015610dfa5780601f10610dcf57610100808354040283529160200191610dfa565b820191906000526020600020905b815481529060010190602001808311610ddd57829003601f168201915b5050505050908060010160009054906101000a900473ffffffffffffffffffffffffffffffffffffffff16905082565b610e32611be0565b73ffffffffffffffffffffffffffffffffffffffff1660008054906101000a900473ffffffffffffffffffffffffffffffffffffffff1673ffffffffffffffffffffffffffffffffffffffff1614610ef2576040517f08c379a00000000000000000000000000000000000000000000000000000000081526004018080602001828103825260208152602001807f4f776e61626c653a2063616c6c6572206973206e6f7420746865206f776e657281525060200191505060405180910390fd5b600073ffffffffffffffffffffffffffffffffffffffff1660008054906101000a900473ffffffffffffffffffffffffffffffffffffffff1673ffffffffffffffffffffffffffffffffffffffff167f8be0079c531659141344cd1fd0a4f28419497f9722a3daafe3b4186f6b6457e060405160405180910390a360008060006101000a81548173ffffffffffffffffffffffffffffffffffffffff021916908373ffffffffffffffffffffffffffffffffffffffff160217905550565b610fb8611be0565b73ffffffffffffffffffffffffffffffffffffffff1660008054906101000a900473ffffffffffffffffffffffffffffffffffffffff1673ffffffffffffffffffffffffffffffffffffffff1614611078576040517f08c379a00000000000000000000000000000000000000000000000000000000081526004018080602001828103825260208152602001807f4f776e61626c653a2063616c6c6572206973206e6f7420746865206f776e657281525060200191505060405180910390fd5b3373ffffffffffffffffffffffffffffffffffffffff166108fc479081150290604051600060405180830381858888f193505050506110b657600080fd5b565b60008060009054906101000a900473ffffffffffffffffffffffffffffffffffffffff16905090565b60008060009050600083600e60006101000a81548173ffffffffffffffffffffffffffffffffffffffff021916908373ffffffffffffffffffffffffffffffffffffffff16021790555060005b600960003373ffffffffffffffffffffffffffffffffffffffff1673ffffffffffffffffffffffffffffffffffffffff1681526020019081526020016000206000018054905081116113c3578473ffffffffffffffffffffffffffffffffffffffff16600960003373ffffffffffffffffffffffffffffffffffffffff1673ffffffffffffffffffffffffffffffffffffffff16815260200190815260200160002060000182815481106111de57fe5b9060005260206000200160009054906101000a900473ffffffffffffffffffffffffffffffffffffffff1673ffffffffffffffffffffffffffffffffffffffff16141561122d578092506113b6565b600960003373ffffffffffffffffffffffffffffffffffffffff1673ffffffffffffffffffffffffffffffffffffffff168152602001908152602001600020600001600181600181540180825580915050039060005260206000200160009054906101000a905050600960003373ffffffffffffffffffffffffffffffffffffffff1673ffffffffffffffffffffffffffffffffffffffff1681526020019081526020016000206001016001816001815401808255809150500390600052602060002090600291828204019190066010029054906101000a905050600960003373ffffffffffffffffffffffffffffffffffffffff1673ffffffffffffffffffffffffffffffffffffffff1681526020019081526020016000206002016001816001815401808255809150500390600052602060002090600291828204019190066010029054906101000a9050507f5e425538c7e29a3d46eeeb3adb5e33e85e1548fb34404f88df642c95e2e0f9b73360026040516113ad929190612200565b60405180910390a15b808060010191505061112e565b50600e60009054906101000a900473ffffffffffffffffffffffffffffffffffffffff1673ffffffffffffffffffffffffffffffffffffffff1663095ea7b333876040518363ffffffff1660e01b81526004016114219291906122cd565b602060405180830381600087803b15801561143b57600080fd5b505af115801561144f573d6000803e3d6000fd5b505050506040513d601f19601f820116820180604052508101906114739190611fef565b905083600960003373ffffffffffffffffffffffffffffffffffffffff1673ffffffffffffffffffffffffffffffffffffffff16815260200190815260200160002060000183815481106114c357fe5b9060005260206000200160006101000a81548173ffffffffffffffffffffffffffffffffffffffff021916908373ffffffffffffffffffffffffffffffffffffffff160217905550611593600960003373ffffffffffffffffffffffffffffffffffffffff1673ffffffffffffffffffffffffffffffffffffffff168152602001908152602001600020600201838154811061155b57fe5b90600052602060002090600291828204019190066010029054906101000a90046fffffffffffffffffffffffffffffffff1686611c31565b600960003373ffffffffffffffffffffffffffffffffffffffff1673ffffffffffffffffffffffffffffffffffffffff16815260200190815260200160002060020183815481106115e057fe5b90600052602060002090600291828204019190066010026101000a8154816fffffffffffffffffffffffffffffffff02191690836fffffffffffffffffffffffffffffffff1602179055507f5e425538c7e29a3d46eeeb3adb5e33e85e1548fb34404f88df642c95e2e0f9b733600360405161165d929190612229565b60405180910390a1505092915050565b6000600260009054906101000a900473ffffffffffffffffffffffffffffffffffffffff16905090565b6000805b600960003373ffffffffffffffffffffffffffffffffffffffff1673ffffffffffffffffffffffffffffffffffffffff1681526020019081526020016000206000018054905081116119a5578373ffffffffffffffffffffffffffffffffffffffff16600960003373ffffffffffffffffffffffffffffffffffffffff1673ffffffffffffffffffffffffffffffffffffffff168152602001908152602001600020600001828154811061174b57fe5b9060005260206000200160009054906101000a900473ffffffffffffffffffffffffffffffffffffffff1673ffffffffffffffffffffffffffffffffffffffff16141561179a578091506117d5565b7f5e425538c7e29a3d46eeeb3adb5e33e85e1548fb34404f88df642c95e2e0f9b73360016040516117cc9291906121d7565b60405180910390a15b600b60009054906101000a900473ffffffffffffffffffffffffffffffffffffffff1673ffffffffffffffffffffffffffffffffffffffff1663e8eda9df858530600860149054906101000a900461ffff166040518563ffffffff1660e01b81526004016118469493929190612356565b600060405180830381600087803b15801561186057600080fd5b505af1158015611874573d6000803e3d6000fd5b50505050611900600960003373ffffffffffffffffffffffffffffffffffffffff1673ffffffffffffffffffffffffffffffffffffffff16815260200190815260200160002060010183815481106118c857fe5b90600052602060002090600291828204019190066010029054906101000a90046fffffffffffffffffffffffffffffffff1684611c31565b600960003373ffffffffffffffffffffffffffffffffffffffff1673ffffffffffffffffffffffffffffffffffffffff168152602001908152602001600020600101838154811061194d57fe5b90600052602060002090600291828204019190066010026101000a8154816fffffffffffffffffffffffffffffffff02191690836fffffffffffffffffffffffffffffffff160217905550808060010191505061169b565b50505050565b6000600560009054906101000a900473ffffffffffffffffffffffffffffffffffffffff16905090565b6119dd611be0565b73ffffffffffffffffffffffffffffffffffffffff1660008054906101000a900473ffffffffffffffffffffffffffffffffffffffff1673ffffffffffffffffffffffffffffffffffffffff1614611a9d576040517f08c379a00000000000000000000000000000000000000000000000000000000081526004018080602001828103825260208152602001807f4f776e61626c653a2063616c6c6572206973206e6f7420746865206f776e657281525060200191505060405180910390fd5b600073ffffffffffffffffffffffffffffffffffffffff168173ffffffffffffffffffffffffffffffffffffffff161415611b23576040517f08c379a00000000000000000000000000000000000000000000000000000000081526004018080602001828103825260268152602001806125f26026913960400191505060405180910390fd5b8073ffffffffffffffffffffffffffffffffffffffff1660008054906101000a900473ffffffffffffffffffffffffffffffffffffffff1673ffffffffffffffffffffffffffffffffffffffff167f8be0079c531659141344cd1fd0a4f28419497f9722a3daafe3b4186f6b6457e060405160405180910390a3806000806101000a81548173ffffffffffffffffffffffffffffffffffffffff021916908373ffffffffffffffffffffffffffffffffffffffff16021790555050565b600033905090565b6000611c29611c24836fffffffffffffffffffffffffffffffff16856fffffffffffffffffffffffffffffffff16611c7a90919063ffffffff16565b611cc4565b905092915050565b6000611c72611c6d836fffffffffffffffffffffffffffffffff16856fffffffffffffffffffffffffffffffff16611d3790919063ffffffff16565b611cc4565b905092915050565b6000611cbc83836040518060400160405280601e81526020017f536166654d6174683a207375627472616374696f6e206f766572666c6f770000815250611dbf565b905092915050565b60007001000000000000000000000000000000008210611d2f576040517f08c379a00000000000000000000000000000000000000000000000000000000081526004018080602001828103825260278152602001806126186027913960400191505060405180910390fd5b819050919050565b600080828401905083811015611db5576040517f08c379a000000000000000000000000000000000000000000000000000000000815260040180806020018281038252601b8152602001807f536166654d6174683a206164646974696f6e206f766572666c6f77000000000081525060200191505060405180910390fd5b8091505092915050565b6000838311158290611e6c576040517f08c379a00000000000000000000000000000000000000000000000000000000081526004018080602001828103825283818151815260200191508051906020019080838360005b83811015611e31578082015181840152602081019050611e16565b50505050905090810190601f168015611e5e5780820380516001836020036101000a031916815260200191505b509250505060405180910390fd5b5060008385039050809150509392505050565b600081359050611e8e8161257e565b92915050565b600081519050611ea38161257e565b92915050565b600081519050611eb881612595565b92915050565b600081359050611ecd816125ac565b92915050565b600081359050611ee2816125c3565b92915050565b600081359050611ef7816125da565b92915050565b600081519050611f0c816125da565b92915050565b600060208284031215611f2457600080fd5b6000611f3284828501611e7f565b91505092915050565b600060208284031215611f4d57600080fd5b6000611f5b84828501611e94565b91505092915050565b600080600060608486031215611f7957600080fd5b6000611f8786828701611e94565b9350506020611f9886828701611e94565b9250506040611fa986828701611e94565b9150509250925092565b60008060408385031215611fc657600080fd5b6000611fd485828601611e7f565b9250506020611fe585828601611ebe565b9150509250929050565b60006020828403121561200157600080fd5b600061200f84828501611ea9565b91505092915050565b6000806040838503121561202b57600080fd5b600061203985828601611ebe565b925050602061204a85828601611e7f565b9150509250929050565b60006020828403121561206657600080fd5b600061207484828501611ed3565b91505092915050565b60006020828403121561208f57600080fd5b600061209d84828501611ee8565b91505092915050565b6000602082840312156120b857600080fd5b60006120c684828501611efd565b91505092915050565b6120d881612474565b82525050565b6120e781612402565b82525050565b6120f681612414565b82525050565b61210581612486565b82525050565b61211481612498565b82525050565b612123816124aa565b82525050565b612132816124bc565b82525050565b612141816124ce565b82525050565b612150816124e0565b82525050565b61215f816124f2565b82525050565b6000612170826123e6565b61217a81856123f1565b935061218a81856020860161253a565b6121938161256d565b840191505092915050565b6121a781612504565b82525050565b6121b68161243c565b82525050565b60006020820190506121d160008301846120de565b92915050565b60006040820190506121ec60008301856120cf565b6121f9602083018461210b565b9392505050565b600060408201905061221560008301856120cf565b612222602083018461211a565b9392505050565b600060408201905061223e60008301856120cf565b61224b6020830184612129565b9392505050565b600060408201905061226760008301856120cf565b6122746020830184612138565b9392505050565b600060408201905061229060008301856120cf565b61229d6020830184612147565b9392505050565b60006040820190506122b960008301856120cf565b6122c66020830184612156565b9392505050565b60006040820190506122e260008301856120cf565b6122ef602083018461219e565b9392505050565b600060408201905061230b60008301856120de565b61231860208301846120fc565b9392505050565b600060608201905061233460008301866120de565b612341602083018561219e565b61234e60408301846120cf565b949350505050565b600060808201905061236b60008301876120de565b612378602083018661219e565b61238560408301856120de565b61239260608301846121ad565b95945050505050565b60006020820190506123b060008301846120ed565b92915050565b600060408201905081810360008301526123d08185612165565b90506123df60208301846120de565b9392505050565b600081519050919050565b600082825260208201905092915050565b600061240d8261244a565b9050919050565b60008115159050919050565b60006fffffffffffffffffffffffffffffffff82169050919050565b600061ffff82169050919050565b600073ffffffffffffffffffffffffffffffffffffffff82169050919050565b6000819050919050565b600061247f82612516565b9050919050565b60006124918261246a565b9050919050565b60006124a38261246a565b9050919050565b60006124b58261246a565b9050919050565b60006124c78261246a565b9050919050565b60006124d98261246a565b9050919050565b60006124eb8261246a565b9050919050565b60006124fd8261246a565b9050919050565b600061250f82612420565b9050919050565b600061252182612528565b9050919050565b60006125338261244a565b9050919050565b60005b8381101561255857808201518184015260208101905061253d565b83811115612567576000848401525b50505050565b6000601f19601f8301169050919050565b61258781612402565b811461259257600080fd5b50565b61259e81612414565b81146125a957600080fd5b50565b6125b581612420565b81146125c057600080fd5b50565b6125cc8161243c565b81146125d757600080fd5b50565b6125e38161246a565b81146125ee57600080fd5b5056fe4f776e61626c653a206e6577206f776e657220697320746865207a65726f206164647265737353616665436173743a2076616c756520646f65736e27742066697420696e203132382062697473a26469706673582212202d654c9161a13245e6d5b87878c1a7c89df4fed6ca54646b84fdb7ea1a4cf9e464736f6c63430007040033",
  "immutableReferences": {},
  "source": "// SPDX-License-Identifier: MIT\r\npragma solidity ^0.7.0;\r\npragma experimental ABIEncoderV2;\r\n\r\nimport \"interfaces/ILendingPool.sol\";\r\nimport \"interfaces/IProtocolDataProvider.sol\";\r\nimport \"@openzeppelin/contracts/access/Ownable.sol\";\r\n//import \"@openzeppelin/contracts/drafts/ERC20Permit.sol\"; \r\nimport \"@openzeppelin/contracts/token/ERC20/IERC20.sol\";\r\nimport \"@openzeppelin/contracts/math/SafeMath.sol\";\r\nimport \"@openzeppelin/contracts/utils/SafeCast.sol\";\r\n\r\n  /**\r\n   * @title Manages depositing and withdrawing from Aave\r\n   * @notice part of the StakeYourName DApp\r\n   * @author Daniel Chilvers\r\n   **/\r\ncontract InvestmentManager is Ownable {\r\n\r\n    using SafeMath for uint256;\r\n\r\n    //address internal kovanLendingPool = 0x9FE532197ad76c5a68961439604C037EB79681F0;\r\n    //address internal mainLendingPool = 0x7d2768dE32b0b80b7a3454c06BdAc94A69DDc7A9;\r\n    address internal deadAddress = 0x000000000000000000000000000000000000dEaD;\r\n    address internal lendingPooladdress = deadAddress;\r\n    address internal kovanLendingPoolAddressProviderAddress = 0x88757f2f99175387aB4C6a4b3067c77A695b0349;\r\n    address internal mainLendingPoolAddressProviderAddress = 0xB53C1a33016B2DC2fF3653530bfF1848a515c8c5;\r\n    address internal lendingPoolAddressProviderAddress = deadAddress;\r\n    address internal ProtocolDataProviderAddress = deadAddress;\r\n\r\n    /// @dev addresses saved here for testing, in final version the\r\n    /// @dev addresses will be passed in from the front end.\r\n    address internal DAIContract = 0x6B175474E89094C44Da98b954EedeAC495271d0F;\r\n    address internal USDCContract = 0xA0b86991c6218b36c1d19D4a2e9Eb0cE3606eB48;\r\n\r\n    uint16 referralCode = 0;\r\n\r\n    /// @dev TO;DO change to saving the asset symbol instead \r\n    /// @dev then this will be packed and we save gas\r\n    struct User {\r\n        address[] asset;\r\n        uint128[] balance;\r\n        uint128[] allowance;\r\n        bool locked;\r\n    }\r\n\r\n    /// @dev map user addresses to our struct above\r\n    mapping (address => User) Users;\r\n\r\n    IProtocolDataProvider.TokenData[] public aTokens;\r\n\r\n    ILendingPool lendingPool;\r\n    ILendingPoolAddressesProvider lendingPoolAddressesProvider;\r\n    IProtocolDataProvider protocolDataProvider;\r\n    IERC20 erc20;\r\n\r\n    constructor(uint _networkID) {\r\n        /// @dev truffle will pass in the networkID when migrated, use this to select the correct address\r\n        if (_networkID == 1){\r\n            lendingPoolAddressProviderAddress = mainLendingPoolAddressProviderAddress;\r\n        } else if (_networkID == 42){\r\n            lendingPoolAddressProviderAddress = kovanLendingPoolAddressProviderAddress;\r\n        } \r\n        lendingPoolAddressesProvider = ILendingPoolAddressesProvider(lendingPoolAddressProviderAddress);\r\n        lendingPooladdress =  lendingPoolAddressesProvider.getLendingPool();\r\n        protocolDataProvider = IProtocolDataProvider(lendingPoolAddressesProvider.getAddress(bytes32('0x1')));\r\n    }\r\n\r\n    event debug(address _address, uint256 state);\r\n\r\n    function approveDeposit(uint128 _amount, address _asset) public returns(bool) {\r\n        uint256 _index = 0;\r\n        bool _success;\r\n        erc20 = IERC20(_asset);\r\n        /// @dev check if the user already has some of this asset\r\n        for (uint i; i <= Users[msg.sender].asset.length ; i++) {\r\n            if (Users[msg.sender].asset[i] == _asset ){\r\n                _index = i;\r\n            }else {\r\n                /// @dev they don't own any yet, lets add a record\r\n                Users[msg.sender].asset.push();\r\n                Users[msg.sender].balance.push();\r\n                Users[msg.sender].allowance.push();\r\n                emit debug(msg.sender, 2);\r\n            }\r\n        }\r\n        _success = erc20.approve(msg.sender, _amount);\r\n        Users[msg.sender].asset[_index] = _asset;\r\n        Users[msg.sender].allowance[_index] = safeAddUint128(Users[msg.sender].allowance[_index], _amount );\r\n        emit debug(msg.sender, 3);\r\n    }\r\n\r\n\r\n\r\n    function deposit(address _reserve, uint128 _amount) public {\r\n        uint256 _index = 0;\r\n\r\n        for (uint i; i <= Users[msg.sender].asset.length ; i++) {\r\n            if (Users[msg.sender].asset[i] == _reserve ){\r\n                _index = i;\r\n            } else {\r\n                /// @dev they must not have approved yet.\r\n                emit debug(msg.sender, 1);\r\n            }\r\n            lendingPool.deposit(_reserve, _amount, address(this) , referralCode);\r\n            Users[msg.sender].balance[_index] = safeAddUint128(Users[msg.sender].balance[_index], _amount );\r\n        }\r\n    }\r\n\r\n    function approveWithdraw(uint128 _amount, address _asset) public returns(bool) {\r\n        uint256 _index = 0;\r\n        bool _success;\r\n        address aToken;\r\n        (aToken,,) = protocolDataProvider.getReserveTokensAddresses(_asset);\r\n        erc20 = IERC20(aToken);\r\n        /// @dev check if the user has some of this asset to withdraw\r\n        for (uint i; i <= Users[msg.sender].asset.length ; i++) {\r\n            if (Users[msg.sender].asset[i] == _asset ){\r\n                _index = i;\r\n            }else {\r\n                /// @dev they don't own any\r\n                //Users[msg.sender].asset.push();\r\n                //Users[msg.sender].balance.push();\r\n                //Users[msg.sender].allowance.push();\r\n                emit debug(msg.sender, 4);\r\n                _success = false;\r\n                return (_success);\r\n            }\r\n        }\r\n        Users[msg.sender].asset[_index] = _asset;\r\n        Users[msg.sender].allowance[_index] = safeSubUint128(Users[msg.sender].allowance[_index], _amount );\r\n        _success = erc20.approve(msg.sender, _amount);\r\n        emit debug(msg.sender, 5);\r\n        return(_success);\r\n    }\r\n\r\n    function withdraw(address _reserve, uint128 _amount) public {\r\n        uint _index = 0;\r\n        bool _owned = false;\r\n        for (uint i; i <= Users[msg.sender].asset.length ; i++) {\r\n            if (Users[msg.sender].asset[i] == _reserve ){\r\n                _index = i;\r\n                _owned = true;\r\n            }\r\n        }\r\n        if (_owned = true || Users[msg.sender].balance[_index] >= _amount){\r\n            lendingPool.withdraw(_reserve, _amount, msg.sender);\r\n        } else {\r\n            emit debug(msg.sender, 6);\r\n        }\r\n        \r\n    }\r\n\r\n    /// @notice uses the SafeMath and SafeCast libraries to safely add uint128s together\r\n    function safeAddUint128(uint128 _a, uint128 _b) internal pure returns(uint128){\r\n        return(SafeCast.toUint128(uint256(_a).add(uint256(_b))));\r\n    }\r\n    /// @notice uses the SafeMath and SafeCast libraries to safely subtract uint128s \r\n    function safeSubUint128(uint128 _a, uint128 _b) internal pure returns(uint128){\r\n        return(SafeCast.toUint128(uint256(_a).sub(uint256(_b))));\r\n    }\r\n\r\n    /// @notice don't send me funds if this function still exists\r\n    /// @dev for recovering test funds\r\n    function withdrawAll() public onlyOwner {\r\n        require(msg.sender.send(address(this).balance));\r\n    }\r\n\r\n    function updateReferalCode(uint16 _code) public onlyOwner {\r\n        referralCode = _code;\r\n    }\r\n\r\n    /// @notice verify the address of the lending pool in use\r\n    function checkLendingPoolAddress() public view returns(address){\r\n        return (lendingPooladdress);\r\n    }\r\n\r\n    /// @notice verify the address of the lending pool address provider\r\n    /// @dev maybe try and shorten the function name a bit\r\n    function checkLendingPoolAddressProviderAddress() public view returns(address){\r\n        return (lendingPoolAddressProviderAddress);\r\n    }\r\n\r\n    /// @notice update the lending pool address from the address provider\r\n    function updateLendingPoolAddress() public onlyOwner returns(address){\r\n        lendingPooladdress = lendingPoolAddressesProvider.getLendingPool();\r\n        emit debug(lendingPooladdress, 10);\r\n        return (lendingPooladdress);\r\n    }\r\n\r\n}",
  "sourcePath": "C:/Users/anyth/Documents/GitHub/StakeYourName/contracts/InvestmentManager.sol",
  "compiler": {
    "name": "solc",
    "version": "0.7.4+commit.3f05b770.Emscripten.clang"
  },
  "schemaVersion": "3.3.3",
  "updatedAt": "2021-01-21T11:53:53.234Z",
  "networkType": "ethereum",
  "devdoc": {
    "author": "Daniel Chilvers*",
    "kind": "dev",
    "methods": {
      "checkLendingPoolAddressProviderAddress()": {
        "details": "maybe try and shorten the function name a bit"
      },
      "owner()": {
        "details": "Returns the address of the current owner."
      },
      "renounceOwnership()": {
        "details": "Leaves the contract without owner. It will not be possible to call `onlyOwner` functions anymore. Can only be called by the current owner. NOTE: Renouncing ownership will leave the contract without an owner, thereby removing any functionality that is only available to the owner."
      },
      "transferOwnership(address)": {
        "details": "Transfers ownership of the contract to a new account (`newOwner`). Can only be called by the current owner."
      },
      "withdrawAll()": {
        "details": "for recovering test funds"
      }
    },
    "stateVariables": {
      "DAIContract": {
        "details": "addresses saved here for testing, in final version theaddresses will be passed in from the front end."
      },
      "Users": {
        "details": "map user addresses to our struct above"
      }
    },
    "title": "Manages depositing and withdrawing from Aave",
    "version": 1
  },
  "userdoc": {
    "kind": "user",
    "methods": {
      "checkLendingPoolAddress()": {
        "notice": "verify the address of the lending pool in use"
      },
      "checkLendingPoolAddressProviderAddress()": {
        "notice": "verify the address of the lending pool address provider"
      },
      "updateLendingPoolAddress()": {
        "notice": "update the lending pool address from the address provider"
      },
      "withdrawAll()": {
        "notice": "don't send me funds if this function still exists"
      }
    },
    "notice": "part of the StakeYourName DApp",
    "version": 1
  }
}