{
  "contractName": "InvestmentManager",
  "abi": [
    {
      "inputs": [
        {
          "internalType": "uint256",
          "name": "_networkID",
          "type": "uint256"
        }
      ],
      "stateMutability": "nonpayable",
      "type": "constructor"
    },
    {
      "anonymous": false,
      "inputs": [
        {
          "indexed": true,
          "internalType": "address",
          "name": "previousOwner",
          "type": "address"
        },
        {
          "indexed": true,
          "internalType": "address",
          "name": "newOwner",
          "type": "address"
        }
      ],
      "name": "OwnershipTransferred",
      "type": "event"
    },
    {
      "anonymous": false,
      "inputs": [
        {
          "indexed": false,
          "internalType": "address",
          "name": "_address",
          "type": "address"
        },
        {
          "indexed": false,
          "internalType": "uint256",
          "name": "state",
          "type": "uint256"
        }
      ],
      "name": "debug",
      "type": "event"
    },
    {
      "inputs": [
        {
          "internalType": "uint256",
          "name": "",
          "type": "uint256"
        }
      ],
      "name": "aTokens",
      "outputs": [
        {
          "internalType": "string",
          "name": "symbol",
          "type": "string"
        },
        {
          "internalType": "address",
          "name": "tokenAddress",
          "type": "address"
        }
      ],
      "stateMutability": "view",
      "type": "function",
      "constant": true
    },
    {
      "inputs": [
        {
          "internalType": "uint256",
          "name": "",
          "type": "uint256"
        }
      ],
      "name": "assetList",
      "outputs": [
        {
          "internalType": "address",
          "name": "",
          "type": "address"
        }
      ],
      "stateMutability": "view",
      "type": "function",
      "constant": true
    },
    {
      "inputs": [],
      "name": "owner",
      "outputs": [
        {
          "internalType": "address",
          "name": "",
          "type": "address"
        }
      ],
      "stateMutability": "view",
      "type": "function",
      "constant": true
    },
    {
      "inputs": [],
      "name": "renounceOwnership",
      "outputs": [],
      "stateMutability": "nonpayable",
      "type": "function"
    },
    {
      "inputs": [
        {
          "internalType": "address",
          "name": "newOwner",
          "type": "address"
        }
      ],
      "name": "transferOwnership",
      "outputs": [],
      "stateMutability": "nonpayable",
      "type": "function"
    },
    {
      "inputs": [
        {
          "internalType": "uint256",
          "name": "",
          "type": "uint256"
        }
      ],
      "name": "userList",
      "outputs": [
        {
          "internalType": "address",
          "name": "",
          "type": "address"
        }
      ],
      "stateMutability": "view",
      "type": "function",
      "constant": true
    },
    {
      "inputs": [
        {
          "internalType": "address",
          "name": "_asset",
          "type": "address"
        }
      ],
      "name": "approveLendingPool",
      "outputs": [],
      "stateMutability": "nonpayable",
      "type": "function"
    },
    {
      "inputs": [
        {
          "internalType": "address",
          "name": "_asset",
          "type": "address"
        }
      ],
      "name": "userBalance",
      "outputs": [
        {
          "internalType": "uint128",
          "name": "",
          "type": "uint128"
        }
      ],
      "stateMutability": "view",
      "type": "function",
      "constant": true
    },
    {
      "inputs": [
        {
          "internalType": "address",
          "name": "_asset",
          "type": "address"
        }
      ],
      "name": "userInterest",
      "outputs": [
        {
          "internalType": "uint128",
          "name": "",
          "type": "uint128"
        }
      ],
      "stateMutability": "view",
      "type": "function",
      "constant": true
    },
    {
      "inputs": [
        {
          "internalType": "address",
          "name": "_asset",
          "type": "address"
        }
      ],
      "name": "calculateInterest",
      "outputs": [],
      "stateMutability": "nonpayable",
      "type": "function"
    },
    {
      "inputs": [
        {
          "internalType": "address",
          "name": "_asset",
          "type": "address"
        },
        {
          "internalType": "uint256",
          "name": "_amount",
          "type": "uint256"
        }
      ],
      "name": "depositTest",
      "outputs": [],
      "stateMutability": "nonpayable",
      "type": "function"
    },
    {
      "inputs": [
        {
          "internalType": "address",
          "name": "_asset",
          "type": "address"
        },
        {
          "internalType": "uint256",
          "name": "_amount",
          "type": "uint256"
        }
      ],
      "name": "withdrawTest",
      "outputs": [],
      "stateMutability": "nonpayable",
      "type": "function"
    },
    {
      "inputs": [
        {
          "internalType": "address",
          "name": "_asset",
          "type": "address"
        },
        {
          "internalType": "uint128",
          "name": "_amount",
          "type": "uint128"
        }
      ],
      "name": "approveDeposit",
      "outputs": [],
      "stateMutability": "nonpayable",
      "type": "function"
    },
    {
      "inputs": [
        {
          "internalType": "address",
          "name": "_asset",
          "type": "address"
        }
      ],
      "name": "checkAssetList",
      "outputs": [
        {
          "internalType": "bool",
          "name": "",
          "type": "bool"
        }
      ],
      "stateMutability": "view",
      "type": "function",
      "constant": true
    },
    {
      "inputs": [
        {
          "internalType": "address",
          "name": "_asset",
          "type": "address"
        }
      ],
      "name": "addAsset",
      "outputs": [],
      "stateMutability": "nonpayable",
      "type": "function"
    },
    {
      "inputs": [
        {
          "internalType": "address",
          "name": "_asset",
          "type": "address"
        }
      ],
      "name": "checkUserList",
      "outputs": [
        {
          "internalType": "bool",
          "name": "",
          "type": "bool"
        }
      ],
      "stateMutability": "view",
      "type": "function",
      "constant": true
    },
    {
      "inputs": [
        {
          "internalType": "address",
          "name": "_asset",
          "type": "address"
        }
      ],
      "name": "addUser",
      "outputs": [],
      "stateMutability": "nonpayable",
      "type": "function"
    },
    {
      "inputs": [
        {
          "internalType": "address",
          "name": "_asset",
          "type": "address"
        }
      ],
      "name": "checkAllowance",
      "outputs": [
        {
          "internalType": "uint256",
          "name": "",
          "type": "uint256"
        }
      ],
      "stateMutability": "nonpayable",
      "type": "function"
    },
    {
      "inputs": [
        {
          "internalType": "address",
          "name": "_asset",
          "type": "address"
        },
        {
          "internalType": "uint128",
          "name": "_amount",
          "type": "uint128"
        }
      ],
      "name": "deposit",
      "outputs": [],
      "stateMutability": "nonpayable",
      "type": "function"
    },
    {
      "inputs": [
        {
          "internalType": "address",
          "name": "_asset",
          "type": "address"
        },
        {
          "internalType": "uint256",
          "name": "_amount",
          "type": "uint256"
        }
      ],
      "name": "approveATokenBurn",
      "outputs": [],
      "stateMutability": "nonpayable",
      "type": "function"
    },
    {
      "inputs": [
        {
          "internalType": "address",
          "name": "_asset",
          "type": "address"
        },
        {
          "internalType": "uint128",
          "name": "_amount",
          "type": "uint128"
        }
      ],
      "name": "withdraw",
      "outputs": [],
      "stateMutability": "nonpayable",
      "type": "function"
    },
    {
      "inputs": [
        {
          "internalType": "address",
          "name": "_asset",
          "type": "address"
        },
        {
          "internalType": "uint128",
          "name": "_amount",
          "type": "uint128"
        }
      ],
      "name": "convertInterestToBalance",
      "outputs": [],
      "stateMutability": "nonpayable",
      "type": "function"
    },
    {
      "inputs": [
        {
          "internalType": "address",
          "name": "_asset",
          "type": "address"
        }
      ],
      "name": "userTotal",
      "outputs": [
        {
          "internalType": "uint128",
          "name": "",
          "type": "uint128"
        }
      ],
      "stateMutability": "view",
      "type": "function",
      "constant": true
    },
    {
      "inputs": [],
      "name": "withdrawAll",
      "outputs": [],
      "stateMutability": "nonpayable",
      "type": "function"
    },
    {
      "inputs": [
        {
          "internalType": "uint16",
          "name": "_code",
          "type": "uint16"
        }
      ],
      "name": "updateReferalCode",
      "outputs": [],
      "stateMutability": "nonpayable",
      "type": "function"
    },
    {
      "inputs": [],
      "name": "checkLendingPoolAddress",
      "outputs": [
        {
          "internalType": "address",
          "name": "",
          "type": "address"
        }
      ],
      "stateMutability": "view",
      "type": "function",
      "constant": true
    },
    {
      "inputs": [],
      "name": "checkLendingPoolAddressProviderAddress",
      "outputs": [
        {
          "internalType": "address",
          "name": "",
          "type": "address"
        }
      ],
      "stateMutability": "view",
      "type": "function",
      "constant": true
    },
    {
      "inputs": [],
      "name": "checkProtocolDataProvider",
      "outputs": [
        {
          "internalType": "address",
          "name": "",
          "type": "address"
        }
      ],
      "stateMutability": "view",
      "type": "function",
      "constant": true
    },
    {
      "inputs": [
        {
          "internalType": "bytes1",
          "name": "_bytes",
          "type": "bytes1"
        }
      ],
      "name": "updateProtocolDataProvider",
      "outputs": [
        {
          "internalType": "address",
          "name": "",
          "type": "address"
        },
        {
          "internalType": "bytes32",
          "name": "",
          "type": "bytes32"
        }
      ],
      "stateMutability": "nonpayable",
      "type": "function"
    },
    {
      "inputs": [
        {
          "internalType": "address",
          "name": "_asset",
          "type": "address"
        }
      ],
      "name": "checkaTokenAddress",
      "outputs": [
        {
          "internalType": "address",
          "name": "",
          "type": "address"
        }
      ],
      "stateMutability": "view",
      "type": "function",
      "constant": true
    },
    {
      "inputs": [],
      "name": "updateLendingPoolAddress",
      "outputs": [
        {
          "internalType": "address",
          "name": "",
          "type": "address"
        }
      ],
      "stateMutability": "nonpayable",
      "type": "function"
    }
  ],
  "bytecode": "0x608060405261dead600160006101000a81548173ffffffffffffffffffffffffffffffffffffffff021916908373ffffffffffffffffffffffffffffffffffffffff160217905550600160009054906101000a900473ffffffffffffffffffffffffffffffffffffffff16600260006101000a81548173ffffffffffffffffffffffffffffffffffffffff021916908373ffffffffffffffffffffffffffffffffffffffff1602179055507388757f2f99175387ab4c6a4b3067c77a695b0349600360006101000a81548173ffffffffffffffffffffffffffffffffffffffff021916908373ffffffffffffffffffffffffffffffffffffffff16021790555073b53c1a33016b2dc2ff3653530bff1848a515c8c5600460006101000a81548173ffffffffffffffffffffffffffffffffffffffff021916908373ffffffffffffffffffffffffffffffffffffffff160217905550600160009054906101000a900473ffffffffffffffffffffffffffffffffffffffff16600560006101000a81548173ffffffffffffffffffffffffffffffffffffffff021916908373ffffffffffffffffffffffffffffffffffffffff160217905550600160009054906101000a900473ffffffffffffffffffffffffffffffffffffffff16600660006101000a81548173ffffffffffffffffffffffffffffffffffffffff021916908373ffffffffffffffffffffffffffffffffffffffff160217905550736b175474e89094c44da98b954eedeac495271d0f600760006101000a81548173ffffffffffffffffffffffffffffffffffffffff021916908373ffffffffffffffffffffffffffffffffffffffff16021790555073a0b86991c6218b36c1d19d4a2e9eb0ce3606eb48600860006101000a81548173ffffffffffffffffffffffffffffffffffffffff021916908373ffffffffffffffffffffffffffffffffffffffff1602179055506000600860146101000a81548161ffff021916908361ffff160217905550348015620002ef57600080fd5b5060405162005b7938038062005b79833981810160405281019062000315919062000764565b6000620003276200070260201b60201c565b9050806000806101000a81548173ffffffffffffffffffffffffffffffffffffffff021916908373ffffffffffffffffffffffffffffffffffffffff1602179055508073ffffffffffffffffffffffffffffffffffffffff16600073ffffffffffffffffffffffffffffffffffffffff167f8be0079c531659141344cd1fd0a4f28419497f9722a3daafe3b4186f6b6457e060405160405180910390a35060018114156200048d57600460009054906101000a900473ffffffffffffffffffffffffffffffffffffffff16600560006101000a81548173ffffffffffffffffffffffffffffffffffffffff021916908373ffffffffffffffffffffffffffffffffffffffff16021790555073057835ad21a177dbdd3090bb1cae03eacf78fc6d601060006101000a81548173ffffffffffffffffffffffffffffffffffffffff021916908373ffffffffffffffffffffffffffffffffffffffff16021790555062000551565b602a8114156200055057600360009054906101000a900473ffffffffffffffffffffffffffffffffffffffff16600560006101000a81548173ffffffffffffffffffffffffffffffffffffffff021916908373ffffffffffffffffffffffffffffffffffffffff160217905550733c73a5e5785cac854d468f727c606c07488a29d6601060006101000a81548173ffffffffffffffffffffffffffffffffffffffff021916908373ffffffffffffffffffffffffffffffffffffffff1602179055505b5b600560009054906101000a900473ffffffffffffffffffffffffffffffffffffffff16600f60006101000a81548173ffffffffffffffffffffffffffffffffffffffff021916908373ffffffffffffffffffffffffffffffffffffffff160217905550600f60009054906101000a900473ffffffffffffffffffffffffffffffffffffffff1673ffffffffffffffffffffffffffffffffffffffff16630261bf8b6040518163ffffffff1660e01b815260040160206040518083038186803b1580156200061d57600080fd5b505afa15801562000632573d6000803e3d6000fd5b505050506040513d601f19601f8201168201806040525081019062000658919062000738565b600260006101000a81548173ffffffffffffffffffffffffffffffffffffffff021916908373ffffffffffffffffffffffffffffffffffffffff160217905550600260009054906101000a900473ffffffffffffffffffffffffffffffffffffffff16600e60006101000a81548173ffffffffffffffffffffffffffffffffffffffff021916908373ffffffffffffffffffffffffffffffffffffffff1602179055505062000802565b600033905090565b6000815190506200071b81620007ce565b92915050565b6000815190506200073281620007e8565b92915050565b6000602082840312156200074b57600080fd5b60006200075b848285016200070a565b91505092915050565b6000602082840312156200077757600080fd5b6000620007878482850162000721565b91505092915050565b60006200079d82620007a4565b9050919050565b600073ffffffffffffffffffffffffffffffffffffffff82169050919050565b6000819050919050565b620007d98162000790565b8114620007e557600080fd5b50565b620007f381620007c4565b8114620007ff57600080fd5b50565b61536780620008126000396000f3fe608060405234801561001057600080fd5b50600436106101e55760003560e01c8063853828b61161010f578063aaf298a4116100a2578063d68076c311610071578063d68076c31461057a578063e11932cf146105aa578063e601cf44146105c6578063f2fde38b146105f6576101e5565b8063aaf298a4146104f2578063b3fb656414610510578063d15c89e81461052c578063d53f5c431461054a576101e5565b806390df87e8116100de57806390df87e8146104465780639f4216e814610476578063a0b4b301146104a6578063a94352a3146104d6576101e5565b8063853828b6146103bd5780638b66d5da146103c75780638da5cb5b146103f85780638edf3e2a14610416576101e5565b80633201e84911610187578063421b2d8b11610156578063421b2d8b1461035f5780636c0de4461461037b578063715018a614610397578063752850c1146103a1576101e5565b80633201e849146102d8578063324e4b57146102f4578063341a30d71461032557806339320f4414610341576101e5565b806317cad724116101c357806317cad724146102525780631a197a26146102705780631f880751146102a0578063298410e5146102bc576101e5565b80630103c92b146101ea57806308fab1671461021a57806310af519114610236575b600080fd5b61020460048036038101906101ff9190614a61565b610612565b60405161021191906150b0565b60405180910390f35b610234600480360381019061022f9190614b02565b6106b7565b005b610250600480360381019061024b9190614bcc565b61137f565b005b61025a611467565b6040516102679190614dbc565b60405180910390f35b61028a60048036038101906102859190614a61565b6116f8565b60405161029791906150cb565b60405180910390f35b6102ba60048036038101906102b59190614b3e565b6117ef565b005b6102d660048036038101906102d19190614a61565b611a24565b005b6102f260048036038101906102ed9190614b02565b611b5b565b005b61030e60048036038101906103099190614bf5565b611cc0565b60405161031c929190615040565b60405180910390f35b61033f600480360381019061033a9190614b02565b611dac565b005b61034961286c565b6040516103569190614dbc565b60405180910390f35b61037960048036038101906103749190614a61565b612896565b005b61039560048036038101906103909190614b3e565b612a04565b005b61039f612b82565b005b6103bb60048036038101906103b69190614b3e565b612d08565b005b6103c5612ed4565b005b6103e160048036038101906103dc9190614ba3565b612fdc565b6040516103ef929190614e6e565b60405180910390f35b61040061311c565b60405161040d9190614dbc565b60405180910390f35b610430600480360381019061042b9190614a61565b613145565b60405161043d9190614dbc565b60405180910390f35b610460600480360381019061045b9190614a61565b613203565b60405161046d919061500a565b60405180910390f35b610490600480360381019061048b9190614bf5565b613321565b60405161049d9190614dbc565b60405180910390f35b6104c060048036038101906104bb9190614bf5565b613360565b6040516104cd9190614dbc565b60405180910390f35b6104f060048036038101906104eb9190614a61565b61339f565b005b6104fa6134d5565b6040516105079190614dbc565b60405180910390f35b61052a60048036038101906105259190614b02565b6134ff565b005b6105346139ba565b6040516105419190614dbc565b60405180910390f35b610564600480360381019061055f9190614a61565b6139e4565b604051610571919061500a565b60405180910390f35b610594600480360381019061058f9190614a61565b613a82565b6040516105a191906150b0565b60405180910390f35b6105c460048036038101906105bf9190614a61565b613b27565b005b6105e060048036038101906105db9190614a61565b6141ab565b6040516105ed91906150b0565b60405180910390f35b610610600480360381019061060b9190614a61565b6142f4565b005b6000600960003373ffffffffffffffffffffffffffffffffffffffff1673ffffffffffffffffffffffffffffffffffffffff16815260200190815260200160002060000160008373ffffffffffffffffffffffffffffffffffffffff1673ffffffffffffffffffffffffffffffffffffffff16815260200190815260200160002060009054906101000a90046fffffffffffffffffffffffffffffffff169050919050565b600073ffffffffffffffffffffffffffffffffffffffff168273ffffffffffffffffffffffffffffffffffffffff1614156106f157600080fd5b6000816fffffffffffffffffffffffffffffffff161161071057600080fd5b61071982613b27565b600061085b600960003373ffffffffffffffffffffffffffffffffffffffff1673ffffffffffffffffffffffffffffffffffffffff16815260200190815260200160002060000160008573ffffffffffffffffffffffffffffffffffffffff1673ffffffffffffffffffffffffffffffffffffffff16815260200190815260200160002060009054906101000a90046fffffffffffffffffffffffffffffffff16600960003373ffffffffffffffffffffffffffffffffffffffff1673ffffffffffffffffffffffffffffffffffffffff16815260200190815260200160002060010160008673ffffffffffffffffffffffffffffffffffffffff1673ffffffffffffffffffffffffffffffffffffffff16815260200190815260200160002060009054906101000a90046fffffffffffffffffffffffffffffffff166144ff565b90506000806000836fffffffffffffffffffffffffffffffff16856fffffffffffffffffffffffffffffffff161115610b4057600960003373ffffffffffffffffffffffffffffffffffffffff1673ffffffffffffffffffffffffffffffffffffffff16815260200190815260200160002060000160008773ffffffffffffffffffffffffffffffffffffffff1673ffffffffffffffffffffffffffffffffffffffff16815260200190815260200160002060009054906101000a90046fffffffffffffffffffffffffffffffff169150600960003373ffffffffffffffffffffffffffffffffffffffff1673ffffffffffffffffffffffffffffffffffffffff16815260200190815260200160002060010160008773ffffffffffffffffffffffffffffffffffffffff1673ffffffffffffffffffffffffffffffffffffffff16815260200190815260200160002060009054906101000a90046fffffffffffffffffffffffffffffffff1690506000600960003373ffffffffffffffffffffffffffffffffffffffff1673ffffffffffffffffffffffffffffffffffffffff16815260200190815260200160002060000160008873ffffffffffffffffffffffffffffffffffffffff1673ffffffffffffffffffffffffffffffffffffffff16815260200190815260200160002060006101000a8154816fffffffffffffffffffffffffffffffff02191690836fffffffffffffffffffffffffffffffff1602179055506000600960003373ffffffffffffffffffffffffffffffffffffffff1673ffffffffffffffffffffffffffffffffffffffff16815260200190815260200160002060010160008873ffffffffffffffffffffffffffffffffffffffff1673ffffffffffffffffffffffffffffffffffffffff16815260200190815260200160002060006101000a8154816fffffffffffffffffffffffffffffffff02191690836fffffffffffffffffffffffffffffffff16021790555083925061116b565b600960003373ffffffffffffffffffffffffffffffffffffffff1673ffffffffffffffffffffffffffffffffffffffff16815260200190815260200160002060000160008773ffffffffffffffffffffffffffffffffffffffff1673ffffffffffffffffffffffffffffffffffffffff16815260200190815260200160002060009054906101000a90046fffffffffffffffffffffffffffffffff166fffffffffffffffffffffffffffffffff16856fffffffffffffffffffffffffffffffff16111561100957600960003373ffffffffffffffffffffffffffffffffffffffff1673ffffffffffffffffffffffffffffffffffffffff16815260200190815260200160002060000160008773ffffffffffffffffffffffffffffffffffffffff1673ffffffffffffffffffffffffffffffffffffffff16815260200190815260200160002060009054906101000a90046fffffffffffffffffffffffffffffffff169150610d4a85600960003373ffffffffffffffffffffffffffffffffffffffff1673ffffffffffffffffffffffffffffffffffffffff16815260200190815260200160002060000160008973ffffffffffffffffffffffffffffffffffffffff1673ffffffffffffffffffffffffffffffffffffffff16815260200190815260200160002060009054906101000a90046fffffffffffffffffffffffffffffffff16614548565b9050610e95600960003373ffffffffffffffffffffffffffffffffffffffff1673ffffffffffffffffffffffffffffffffffffffff16815260200190815260200160002060010160008873ffffffffffffffffffffffffffffffffffffffff1673ffffffffffffffffffffffffffffffffffffffff16815260200190815260200160002060009054906101000a90046fffffffffffffffffffffffffffffffff16610e9087600960003373ffffffffffffffffffffffffffffffffffffffff1673ffffffffffffffffffffffffffffffffffffffff16815260200190815260200160002060000160008b73ffffffffffffffffffffffffffffffffffffffff1673ffffffffffffffffffffffffffffffffffffffff16815260200190815260200160002060009054906101000a90046fffffffffffffffffffffffffffffffff16614548565b614548565b600960003373ffffffffffffffffffffffffffffffffffffffff1673ffffffffffffffffffffffffffffffffffffffff16815260200190815260200160002060010160008873ffffffffffffffffffffffffffffffffffffffff1673ffffffffffffffffffffffffffffffffffffffff16815260200190815260200160002060006101000a8154816fffffffffffffffffffffffffffffffff02191690836fffffffffffffffffffffffffffffffff1602179055506000600960003373ffffffffffffffffffffffffffffffffffffffff1673ffffffffffffffffffffffffffffffffffffffff16815260200190815260200160002060000160008873ffffffffffffffffffffffffffffffffffffffff1673ffffffffffffffffffffffffffffffffffffffff16815260200190815260200160002060006101000a8154816fffffffffffffffffffffffffffffffff02191690836fffffffffffffffffffffffffffffffff16021790555084925061116a565b8491506110b1600960003373ffffffffffffffffffffffffffffffffffffffff1673ffffffffffffffffffffffffffffffffffffffff16815260200190815260200160002060000160008873ffffffffffffffffffffffffffffffffffffffff1673ffffffffffffffffffffffffffffffffffffffff16815260200190815260200160002060009054906101000a90046fffffffffffffffffffffffffffffffff1686614548565b600960003373ffffffffffffffffffffffffffffffffffffffff1673ffffffffffffffffffffffffffffffffffffffff16815260200190815260200160002060000160008873ffffffffffffffffffffffffffffffffffffffff1673ffffffffffffffffffffffffffffffffffffffff16815260200190815260200160002060006101000a8154816fffffffffffffffffffffffffffffffff02191690836fffffffffffffffffffffffffffffffff1602179055508492505b5b600e60009054906101000a900473ffffffffffffffffffffffffffffffffffffffff1673ffffffffffffffffffffffffffffffffffffffff166369328dec8785336040518463ffffffff1660e01b81526004016111ca93929190614ee9565b602060405180830381600087803b1580156111e457600080fd5b505af11580156111f8573d6000803e3d6000fd5b505050506040513d601f19601f8201168201806040525081019061121c9190614c1e565b50611284826fffffffffffffffffffffffffffffffff16600a60008973ffffffffffffffffffffffffffffffffffffffff1673ffffffffffffffffffffffffffffffffffffffff1681526020019081526020016000206000015461459190919063ffffffff16565b600a60008873ffffffffffffffffffffffffffffffffffffffff1673ffffffffffffffffffffffffffffffffffffffff16815260200190815260200160002060000181905550611331816fffffffffffffffffffffffffffffffff16600a60008973ffffffffffffffffffffffffffffffffffffffff1673ffffffffffffffffffffffffffffffffffffffff1681526020019081526020016000206001015461459190919063ffffffff16565b600a60008873ffffffffffffffffffffffffffffffffffffffff1673ffffffffffffffffffffffffffffffffffffffff16815260200190815260200160002060010181905550505050505050565b6113876145db565b73ffffffffffffffffffffffffffffffffffffffff1660008054906101000a900473ffffffffffffffffffffffffffffffffffffffff1673ffffffffffffffffffffffffffffffffffffffff1614611447576040517f08c379a00000000000000000000000000000000000000000000000000000000081526004018080602001828103825260208152602001807f4f776e61626c653a2063616c6c6572206973206e6f7420746865206f776e657281525060200191505060405180910390fd5b80600860146101000a81548161ffff021916908361ffff16021790555050565b60006114716145db565b73ffffffffffffffffffffffffffffffffffffffff1660008054906101000a900473ffffffffffffffffffffffffffffffffffffffff1673ffffffffffffffffffffffffffffffffffffffff1614611531576040517f08c379a00000000000000000000000000000000000000000000000000000000081526004018080602001828103825260208152602001807f4f776e61626c653a2063616c6c6572206973206e6f7420746865206f776e657281525060200191505060405180910390fd5b600f60009054906101000a900473ffffffffffffffffffffffffffffffffffffffff1673ffffffffffffffffffffffffffffffffffffffff16630261bf8b6040518163ffffffff1660e01b815260040160206040518083038186803b15801561159957600080fd5b505afa1580156115ad573d6000803e3d6000fd5b505050506040513d601f19601f820116820180604052508101906115d19190614a8a565b600260006101000a81548173ffffffffffffffffffffffffffffffffffffffff021916908373ffffffffffffffffffffffffffffffffffffffff160217905550600260009054906101000a900473ffffffffffffffffffffffffffffffffffffffff16600e60006101000a81548173ffffffffffffffffffffffffffffffffffffffff021916908373ffffffffffffffffffffffffffffffffffffffff1602179055507f5e425538c7e29a3d46eeeb3adb5e33e85e1548fb34404f88df642c95e2e0f9b7600260009054906101000a900473ffffffffffffffffffffffffffffffffffffffff16600a6040516116c8929190614e97565b60405180910390a1600260009054906101000a900473ffffffffffffffffffffffffffffffffffffffff16905090565b600081601160006101000a81548173ffffffffffffffffffffffffffffffffffffffff021916908373ffffffffffffffffffffffffffffffffffffffff160217905550601160009054906101000a900473ffffffffffffffffffffffffffffffffffffffff1673ffffffffffffffffffffffffffffffffffffffff1663dd62ed3e33306040518363ffffffff1660e01b8152600401611798929190614dd7565b60206040518083038186803b1580156117b057600080fd5b505afa1580156117c4573d6000803e3d6000fd5b505050506040513d601f19601f820116820180604052508101906117e89190614c1e565b9050919050565b81601160006101000a81548173ffffffffffffffffffffffffffffffffffffffff021916908373ffffffffffffffffffffffffffffffffffffffff160217905550601160009054906101000a900473ffffffffffffffffffffffffffffffffffffffff1673ffffffffffffffffffffffffffffffffffffffff166323b872dd3330846040518463ffffffff1660e01b815260040161188f93929190614e37565b602060405180830381600087803b1580156118a957600080fd5b505af11580156118bd573d6000803e3d6000fd5b505050506040513d601f19601f820116820180604052508101906118e19190614b7a565b50600e60009054906101000a900473ffffffffffffffffffffffffffffffffffffffff1673ffffffffffffffffffffffffffffffffffffffff1663e8eda9df838330600860149054906101000a900461ffff166040518563ffffffff1660e01b81526004016119539493929190614fc5565b600060405180830381600087803b15801561196d57600080fd5b505af1158015611981573d6000803e3d6000fd5b505050506119da81600a60008573ffffffffffffffffffffffffffffffffffffffff1673ffffffffffffffffffffffffffffffffffffffff168152602001908152602001600020600001546145e390919063ffffffff16565b600a60008473ffffffffffffffffffffffffffffffffffffffff1673ffffffffffffffffffffffffffffffffffffffff168152602001908152602001600020600001819055505050565b611a2c6145db565b73ffffffffffffffffffffffffffffffffffffffff1660008054906101000a900473ffffffffffffffffffffffffffffffffffffffff1673ffffffffffffffffffffffffffffffffffffffff1614611aec576040517f08c379a00000000000000000000000000000000000000000000000000000000081526004018080602001828103825260208152602001807f4f776e61626c653a2063616c6c6572206973206e6f7420746865206f776e657281525060200191505060405180910390fd5b600b819080600181540180825580915050600190039060005260206000200160009091909190916101000a81548173ffffffffffffffffffffffffffffffffffffffff021916908373ffffffffffffffffffffffffffffffffffffffff160217905550611b588161339f565b50565b600073ffffffffffffffffffffffffffffffffffffffff168273ffffffffffffffffffffffffffffffffffffffff161415611b9557600080fd5b6000816fffffffffffffffffffffffffffffffff1611611bb457600080fd5b81601160006101000a81548173ffffffffffffffffffffffffffffffffffffffff021916908373ffffffffffffffffffffffffffffffffffffffff160217905550601160009054906101000a900473ffffffffffffffffffffffffffffffffffffffff1673ffffffffffffffffffffffffffffffffffffffff1663095ea7b330836040518363ffffffff1660e01b8152600401611c52929190614ec0565b602060405180830381600087803b158015611c6c57600080fd5b505af1158015611c80573d6000803e3d6000fd5b505050506040513d601f19601f82011682018060405250810190611ca49190614b7a565b50611cae826139e4565b611cbc57611cbb82611a24565b5b5050565b600d8181548110611cd057600080fd5b9060005260206000209060020201600091509050806000018054600181600116156101000203166002900480601f016020809104026020016040519081016040528092919081815260200182805460018160011615610100020316600290048015611d7c5780601f10611d5157610100808354040283529160200191611d7c565b820191906000526020600020905b815481529060010190602001808311611d5f57829003601f168201915b5050505050908060010160009054906101000a900473ffffffffffffffffffffffffffffffffffffffff16905082565b600073ffffffffffffffffffffffffffffffffffffffff168273ffffffffffffffffffffffffffffffffffffffff161415611de657600080fd5b6000816fffffffffffffffffffffffffffffffff1611611e0557600080fd5b611e0e82613b27565b6000611e19836141ab565b9050600960003373ffffffffffffffffffffffffffffffffffffffff1673ffffffffffffffffffffffffffffffffffffffff16815260200190815260200160002060010160008473ffffffffffffffffffffffffffffffffffffffff1673ffffffffffffffffffffffffffffffffffffffff16815260200190815260200160002060009054906101000a90046fffffffffffffffffffffffffffffffff166fffffffffffffffffffffffffffffffff16826fffffffffffffffffffffffffffffffff16111561242357611fe4600960003373ffffffffffffffffffffffffffffffffffffffff1673ffffffffffffffffffffffffffffffffffffffff16815260200190815260200160002060010160008573ffffffffffffffffffffffffffffffffffffffff1673ffffffffffffffffffffffffffffffffffffffff16815260200190815260200160002060009054906101000a90046fffffffffffffffffffffffffffffffff166fffffffffffffffffffffffffffffffff16600a60008673ffffffffffffffffffffffffffffffffffffffff1673ffffffffffffffffffffffffffffffffffffffff168152602001908152602001600020600001546145e390919063ffffffff16565b600a60008573ffffffffffffffffffffffffffffffffffffffff1673ffffffffffffffffffffffffffffffffffffffff1681526020019081526020016000206000018190555061212c600960003373ffffffffffffffffffffffffffffffffffffffff1673ffffffffffffffffffffffffffffffffffffffff16815260200190815260200160002060010160008573ffffffffffffffffffffffffffffffffffffffff1673ffffffffffffffffffffffffffffffffffffffff16815260200190815260200160002060009054906101000a90046fffffffffffffffffffffffffffffffff166fffffffffffffffffffffffffffffffff16600a60008673ffffffffffffffffffffffffffffffffffffffff1673ffffffffffffffffffffffffffffffffffffffff1681526020019081526020016000206001015461459190919063ffffffff16565b600a60008573ffffffffffffffffffffffffffffffffffffffff1673ffffffffffffffffffffffffffffffffffffffff168152602001908152602001600020600101819055506122b2600960003373ffffffffffffffffffffffffffffffffffffffff1673ffffffffffffffffffffffffffffffffffffffff16815260200190815260200160002060000160008573ffffffffffffffffffffffffffffffffffffffff1673ffffffffffffffffffffffffffffffffffffffff16815260200190815260200160002060009054906101000a90046fffffffffffffffffffffffffffffffff16600960003373ffffffffffffffffffffffffffffffffffffffff1673ffffffffffffffffffffffffffffffffffffffff16815260200190815260200160002060010160008673ffffffffffffffffffffffffffffffffffffffff1673ffffffffffffffffffffffffffffffffffffffff16815260200190815260200160002060009054906101000a90046fffffffffffffffffffffffffffffffff166144ff565b600960003373ffffffffffffffffffffffffffffffffffffffff1673ffffffffffffffffffffffffffffffffffffffff16815260200190815260200160002060000160008573ffffffffffffffffffffffffffffffffffffffff1673ffffffffffffffffffffffffffffffffffffffff16815260200190815260200160002060006101000a8154816fffffffffffffffffffffffffffffffff02191690836fffffffffffffffffffffffffffffffff1602179055506000600960003373ffffffffffffffffffffffffffffffffffffffff1673ffffffffffffffffffffffffffffffffffffffff16815260200190815260200160002060010160008573ffffffffffffffffffffffffffffffffffffffff1673ffffffffffffffffffffffffffffffffffffffff16815260200190815260200160002060006101000a8154816fffffffffffffffffffffffffffffffff02191690836fffffffffffffffffffffffffffffffff160217905550612832565b6124c8600960003373ffffffffffffffffffffffffffffffffffffffff1673ffffffffffffffffffffffffffffffffffffffff16815260200190815260200160002060010160008573ffffffffffffffffffffffffffffffffffffffff1673ffffffffffffffffffffffffffffffffffffffff16815260200190815260200160002060009054906101000a90046fffffffffffffffffffffffffffffffff1683614548565b600960003373ffffffffffffffffffffffffffffffffffffffff1673ffffffffffffffffffffffffffffffffffffffff16815260200190815260200160002060010160008573ffffffffffffffffffffffffffffffffffffffff1673ffffffffffffffffffffffffffffffffffffffff16815260200190815260200160002060006101000a8154816fffffffffffffffffffffffffffffffff02191690836fffffffffffffffffffffffffffffffff160217905550612622600960003373ffffffffffffffffffffffffffffffffffffffff1673ffffffffffffffffffffffffffffffffffffffff16815260200190815260200160002060000160008573ffffffffffffffffffffffffffffffffffffffff1673ffffffffffffffffffffffffffffffffffffffff16815260200190815260200160002060009054906101000a90046fffffffffffffffffffffffffffffffff16836144ff565b600960003373ffffffffffffffffffffffffffffffffffffffff1673ffffffffffffffffffffffffffffffffffffffff16815260200190815260200160002060000160008573ffffffffffffffffffffffffffffffffffffffff1673ffffffffffffffffffffffffffffffffffffffff16815260200190815260200160002060006101000a8154816fffffffffffffffffffffffffffffffff02191690836fffffffffffffffffffffffffffffffff16021790555061273e826fffffffffffffffffffffffffffffffff16600a60008673ffffffffffffffffffffffffffffffffffffffff1673ffffffffffffffffffffffffffffffffffffffff168152602001908152602001600020600001546145e390919063ffffffff16565b600a60008573ffffffffffffffffffffffffffffffffffffffff1673ffffffffffffffffffffffffffffffffffffffff168152602001908152602001600020600001819055506127eb826fffffffffffffffffffffffffffffffff16600a60008673ffffffffffffffffffffffffffffffffffffffff1673ffffffffffffffffffffffffffffffffffffffff1681526020019081526020016000206001015461459190919063ffffffff16565b600a60008573ffffffffffffffffffffffffffffffffffffffff1673ffffffffffffffffffffffffffffffffffffffff168152602001908152602001600020600101819055505b61283b836141ab565b6fffffffffffffffffffffffffffffffff16816fffffffffffffffffffffffffffffffff161461286757fe5b505050565b6000601060009054906101000a900473ffffffffffffffffffffffffffffffffffffffff16905090565b61289e6145db565b73ffffffffffffffffffffffffffffffffffffffff1660008054906101000a900473ffffffffffffffffffffffffffffffffffffffff1673ffffffffffffffffffffffffffffffffffffffff161461295e576040517f08c379a00000000000000000000000000000000000000000000000000000000081526004018080602001828103825260208152602001807f4f776e61626c653a2063616c6c6572206973206e6f7420746865206f776e657281525060200191505060405180910390fd5b600a60008273ffffffffffffffffffffffffffffffffffffffff1673ffffffffffffffffffffffffffffffffffffffff168152602001908152602001600020600201339080600181540180825580915050600190039060005260206000200160009091909190916101000a81548173ffffffffffffffffffffffffffffffffffffffff021916908373ffffffffffffffffffffffffffffffffffffffff16021790555050565b612a0c6145db565b73ffffffffffffffffffffffffffffffffffffffff1660008054906101000a900473ffffffffffffffffffffffffffffffffffffffff1673ffffffffffffffffffffffffffffffffffffffff1614612acc576040517f08c379a00000000000000000000000000000000000000000000000000000000081526004018080602001828103825260208152602001807f4f776e61626c653a2063616c6c6572206973206e6f7420746865206f776e657281525060200191505060405180910390fd5b600e60009054906101000a900473ffffffffffffffffffffffffffffffffffffffff1673ffffffffffffffffffffffffffffffffffffffff166369328dec8383336040518463ffffffff1660e01b8152600401612b2b93929190614f8e565b602060405180830381600087803b158015612b4557600080fd5b505af1158015612b59573d6000803e3d6000fd5b505050506040513d601f19601f82011682018060405250810190612b7d9190614c1e565b505050565b612b8a6145db565b73ffffffffffffffffffffffffffffffffffffffff1660008054906101000a900473ffffffffffffffffffffffffffffffffffffffff1673ffffffffffffffffffffffffffffffffffffffff1614612c4a576040517f08c379a00000000000000000000000000000000000000000000000000000000081526004018080602001828103825260208152602001807f4f776e61626c653a2063616c6c6572206973206e6f7420746865206f776e657281525060200191505060405180910390fd5b600073ffffffffffffffffffffffffffffffffffffffff1660008054906101000a900473ffffffffffffffffffffffffffffffffffffffff1673ffffffffffffffffffffffffffffffffffffffff167f8be0079c531659141344cd1fd0a4f28419497f9722a3daafe3b4186f6b6457e060405160405180910390a360008060006101000a81548173ffffffffffffffffffffffffffffffffffffffff021916908373ffffffffffffffffffffffffffffffffffffffff160217905550565b6000601060009054906101000a900473ffffffffffffffffffffffffffffffffffffffff1673ffffffffffffffffffffffffffffffffffffffff1663d2493b6c846040518263ffffffff1660e01b8152600401612d659190614dbc565b60606040518083038186803b158015612d7d57600080fd5b505afa158015612d91573d6000803e3d6000fd5b505050506040513d601f19601f82011682018060405250810190612db59190614ab3565b9050508091505080601160006101000a81548173ffffffffffffffffffffffffffffffffffffffff021916908373ffffffffffffffffffffffffffffffffffffffff160217905550601160009054906101000a900473ffffffffffffffffffffffffffffffffffffffff1673ffffffffffffffffffffffffffffffffffffffff1663095ea7b3600260009054906101000a900473ffffffffffffffffffffffffffffffffffffffff16846040518363ffffffff1660e01b8152600401612e7c929190614f65565b602060405180830381600087803b158015612e9657600080fd5b505af1158015612eaa573d6000803e3d6000fd5b505050506040513d601f19601f82011682018060405250810190612ece9190614b7a565b50505050565b612edc6145db565b73ffffffffffffffffffffffffffffffffffffffff1660008054906101000a900473ffffffffffffffffffffffffffffffffffffffff1673ffffffffffffffffffffffffffffffffffffffff1614612f9c576040517f08c379a00000000000000000000000000000000000000000000000000000000081526004018080602001828103825260208152602001807f4f776e61626c653a2063616c6c6572206973206e6f7420746865206f776e657281525060200191505060405180910390fd5b3373ffffffffffffffffffffffffffffffffffffffff166108fc479081150290604051600060405180830381858888f19350505050612fda57600080fd5b565b600080600f60009054906101000a900473ffffffffffffffffffffffffffffffffffffffff1673ffffffffffffffffffffffffffffffffffffffff166321f8a721846040518263ffffffff1660e01b815260040161303a9190615025565b60206040518083038186803b15801561305257600080fd5b505afa158015613066573d6000803e3d6000fd5b505050506040513d601f19601f8201168201806040525081019061308a9190614a8a565b601060006101000a81548173ffffffffffffffffffffffffffffffffffffffff021916908373ffffffffffffffffffffffffffffffffffffffff160217905550601060009054906101000a900473ffffffffffffffffffffffffffffffffffffffff1683807effffffffffffffffffffffffffffffffffffffffffffffffffffffffffffff1916905091509150915091565b60008060009054906101000a900473ffffffffffffffffffffffffffffffffffffffff16905090565b600080601060009054906101000a900473ffffffffffffffffffffffffffffffffffffffff1673ffffffffffffffffffffffffffffffffffffffff1663d2493b6c846040518263ffffffff1660e01b81526004016131a39190614dbc565b60606040518083038186803b1580156131bb57600080fd5b505afa1580156131cf573d6000803e3d6000fd5b505050506040513d601f19601f820116820180604052508101906131f39190614ab3565b9050508091505080915050919050565b6000805b600a60008473ffffffffffffffffffffffffffffffffffffffff1673ffffffffffffffffffffffffffffffffffffffff16815260200190815260200160002060020180549050811015613316573373ffffffffffffffffffffffffffffffffffffffff16600a60008573ffffffffffffffffffffffffffffffffffffffff1673ffffffffffffffffffffffffffffffffffffffff16815260200190815260200160002060020182815481106132b857fe5b9060005260206000200160009054906101000a900473ffffffffffffffffffffffffffffffffffffffff1673ffffffffffffffffffffffffffffffffffffffff16141561330957600191505061331c565b8080600101915050613207565b50600090505b919050565b600c818154811061333157600080fd5b906000526020600020016000915054906101000a900473ffffffffffffffffffffffffffffffffffffffff1681565b600b818154811061337057600080fd5b906000526020600020016000915054906101000a900473ffffffffffffffffffffffffffffffffffffffff1681565b80601160006101000a81548173ffffffffffffffffffffffffffffffffffffffff021916908373ffffffffffffffffffffffffffffffffffffffff160217905550601160009054906101000a900473ffffffffffffffffffffffffffffffffffffffff1673ffffffffffffffffffffffffffffffffffffffff1663095ea7b3600260009054906101000a900473ffffffffffffffffffffffffffffffffffffffff167fffffffffffffffffffffffffffffffffffffffffffffffffffffffffffffffff6040518363ffffffff1660e01b815260040161347f929190614f65565b602060405180830381600087803b15801561349957600080fd5b505af11580156134ad573d6000803e3d6000fd5b505050506040513d601f19601f820116820180604052508101906134d19190614b7a565b5050565b6000600260009054906101000a900473ffffffffffffffffffffffffffffffffffffffff16905090565b600073ffffffffffffffffffffffffffffffffffffffff168273ffffffffffffffffffffffffffffffffffffffff16141561353957600080fd5b806fffffffffffffffffffffffffffffffff16613555836116f8565b1015613596576040517f08c379a000000000000000000000000000000000000000000000000000000000815260040161358d90615090565b60405180910390fd5b6000816fffffffffffffffffffffffffffffffff16116135eb576040517f08c379a00000000000000000000000000000000000000000000000000000000081526004016135e290615070565b60405180910390fd5b6135f4826139e4565b6136025761360182611a24565b5b81601160006101000a81548173ffffffffffffffffffffffffffffffffffffffff021916908373ffffffffffffffffffffffffffffffffffffffff160217905550601160009054906101000a900473ffffffffffffffffffffffffffffffffffffffff1673ffffffffffffffffffffffffffffffffffffffff166323b872dd3330846040518463ffffffff1660e01b81526004016136a293929190614e00565b602060405180830381600087803b1580156136bc57600080fd5b505af11580156136d0573d6000803e3d6000fd5b505050506040513d601f19601f820116820180604052508101906136f49190614b7a565b50600e60009054906101000a900473ffffffffffffffffffffffffffffffffffffffff1673ffffffffffffffffffffffffffffffffffffffff1663e8eda9df838330600860149054906101000a900461ffff166040518563ffffffff1660e01b81526004016137669493929190614f20565b600060405180830381600087803b15801561378057600080fd5b505af1158015613794573d6000803e3d6000fd5b505050506137ff816fffffffffffffffffffffffffffffffff16600a60008573ffffffffffffffffffffffffffffffffffffffff1673ffffffffffffffffffffffffffffffffffffffff168152602001908152602001600020600001546145e390919063ffffffff16565b600a60008473ffffffffffffffffffffffffffffffffffffffff1673ffffffffffffffffffffffffffffffffffffffff1681526020019081526020016000206000018190555061384e82613203565b61385c5761385b82612896565b5b613901600960003373ffffffffffffffffffffffffffffffffffffffff1673ffffffffffffffffffffffffffffffffffffffff16815260200190815260200160002060000160008473ffffffffffffffffffffffffffffffffffffffff1673ffffffffffffffffffffffffffffffffffffffff16815260200190815260200160002060009054906101000a90046fffffffffffffffffffffffffffffffff16826144ff565b600960003373ffffffffffffffffffffffffffffffffffffffff1673ffffffffffffffffffffffffffffffffffffffff16815260200190815260200160002060000160008473ffffffffffffffffffffffffffffffffffffffff1673ffffffffffffffffffffffffffffffffffffffff16815260200190815260200160002060006101000a8154816fffffffffffffffffffffffffffffffff02191690836fffffffffffffffffffffffffffffffff1602179055505050565b6000600560009054906101000a900473ffffffffffffffffffffffffffffffffffffffff16905090565b6000805b600b80549050811015613a77578273ffffffffffffffffffffffffffffffffffffffff16600b8281548110613a1957fe5b9060005260206000200160009054906101000a900473ffffffffffffffffffffffffffffffffffffffff1673ffffffffffffffffffffffffffffffffffffffff161415613a6a576001915050613a7d565b80806001019150506139e8565b50600090505b919050565b6000600960003373ffffffffffffffffffffffffffffffffffffffff1673ffffffffffffffffffffffffffffffffffffffff16815260200190815260200160002060010160008373ffffffffffffffffffffffffffffffffffffffff1673ffffffffffffffffffffffffffffffffffffffff16815260200190815260200160002060009054906101000a90046fffffffffffffffffffffffffffffffff169050919050565b6000601060009054906101000a900473ffffffffffffffffffffffffffffffffffffffff1673ffffffffffffffffffffffffffffffffffffffff1663d2493b6c836040518263ffffffff1660e01b8152600401613b849190614dbc565b60606040518083038186803b158015613b9c57600080fd5b505afa158015613bb0573d6000803e3d6000fd5b505050506040513d601f19601f82011682018060405250810190613bd49190614ab3565b9050508091505080601160006101000a81548173ffffffffffffffffffffffffffffffffffffffff021916908373ffffffffffffffffffffffffffffffffffffffff1602179055506000601160009054906101000a900473ffffffffffffffffffffffffffffffffffffffff1673ffffffffffffffffffffffffffffffffffffffff166370a08231306040518263ffffffff1660e01b8152600401613c799190614dbc565b60206040518083038186803b158015613c9157600080fd5b505afa158015613ca5573d6000803e3d6000fd5b505050506040513d601f19601f82011682018060405250810190613cc99190614c1e565b9050613d20600a60008573ffffffffffffffffffffffffffffffffffffffff1673ffffffffffffffffffffffffffffffffffffffff168152602001908152602001600020600001548261459190919063ffffffff16565b9050613d77600a60008573ffffffffffffffffffffffffffffffffffffffff1673ffffffffffffffffffffffffffffffffffffffff168152602001908152602001600020600101548261459190919063ffffffff16565b90506000613dd3600a60008673ffffffffffffffffffffffffffffffffffffffff1673ffffffffffffffffffffffffffffffffffffffff168152602001908152602001600020600201805490508361466b90919063ffffffff16565b9050613e3f613e30600a60008773ffffffffffffffffffffffffffffffffffffffff1673ffffffffffffffffffffffffffffffffffffffff16815260200190815260200160002060020180549050846146b590919063ffffffff16565b8361459190919063ffffffff16565b9150613e9682600a60008773ffffffffffffffffffffffffffffffffffffffff1673ffffffffffffffffffffffffffffffffffffffff168152602001908152602001600020600101546145e390919063ffffffff16565b600a60008673ffffffffffffffffffffffffffffffffffffffff1673ffffffffffffffffffffffffffffffffffffffff1681526020019081526020016000206001018190555060005b600a60008673ffffffffffffffffffffffffffffffffffffffff1673ffffffffffffffffffffffffffffffffffffffff168152602001908152602001600020600201805490508110156141a45761406b6140668360096000600a60008b73ffffffffffffffffffffffffffffffffffffffff1673ffffffffffffffffffffffffffffffffffffffff1681526020019081526020016000206002018681548110613f8457fe5b9060005260206000200160009054906101000a900473ffffffffffffffffffffffffffffffffffffffff1673ffffffffffffffffffffffffffffffffffffffff1673ffffffffffffffffffffffffffffffffffffffff16815260200190815260200160002060010160008973ffffffffffffffffffffffffffffffffffffffff1673ffffffffffffffffffffffffffffffffffffffff16815260200190815260200160002060009054906101000a90046fffffffffffffffffffffffffffffffff166fffffffffffffffffffffffffffffffff166145e390919063ffffffff16565b6146ff565b60096000600a60008973ffffffffffffffffffffffffffffffffffffffff1673ffffffffffffffffffffffffffffffffffffffff16815260200190815260200160002060020184815481106140bc57fe5b9060005260206000200160009054906101000a900473ffffffffffffffffffffffffffffffffffffffff1673ffffffffffffffffffffffffffffffffffffffff1673ffffffffffffffffffffffffffffffffffffffff16815260200190815260200160002060010160008773ffffffffffffffffffffffffffffffffffffffff1673ffffffffffffffffffffffffffffffffffffffff16815260200190815260200160002060006101000a8154816fffffffffffffffffffffffffffffffff02191690836fffffffffffffffffffffffffffffffff1602179055508080600101915050613edf565b5050505050565b60006142ed600960003373ffffffffffffffffffffffffffffffffffffffff1673ffffffffffffffffffffffffffffffffffffffff16815260200190815260200160002060000160008473ffffffffffffffffffffffffffffffffffffffff1673ffffffffffffffffffffffffffffffffffffffff16815260200190815260200160002060009054906101000a90046fffffffffffffffffffffffffffffffff16600960003373ffffffffffffffffffffffffffffffffffffffff1673ffffffffffffffffffffffffffffffffffffffff16815260200190815260200160002060010160008573ffffffffffffffffffffffffffffffffffffffff1673ffffffffffffffffffffffffffffffffffffffff16815260200190815260200160002060009054906101000a90046fffffffffffffffffffffffffffffffff166144ff565b9050919050565b6142fc6145db565b73ffffffffffffffffffffffffffffffffffffffff1660008054906101000a900473ffffffffffffffffffffffffffffffffffffffff1673ffffffffffffffffffffffffffffffffffffffff16146143bc576040517f08c379a00000000000000000000000000000000000000000000000000000000081526004018080602001828103825260208152602001807f4f776e61626c653a2063616c6c6572206973206e6f7420746865206f776e657281525060200191505060405180910390fd5b600073ffffffffffffffffffffffffffffffffffffffff168173ffffffffffffffffffffffffffffffffffffffff161415614442576040517f08c379a00000000000000000000000000000000000000000000000000000000081526004018080602001828103825260268152602001806152e56026913960400191505060405180910390fd5b8073ffffffffffffffffffffffffffffffffffffffff1660008054906101000a900473ffffffffffffffffffffffffffffffffffffffff1673ffffffffffffffffffffffffffffffffffffffff167f8be0079c531659141344cd1fd0a4f28419497f9722a3daafe3b4186f6b6457e060405160405180910390a3806000806101000a81548173ffffffffffffffffffffffffffffffffffffffff021916908373ffffffffffffffffffffffffffffffffffffffff16021790555050565b600061454061453b836fffffffffffffffffffffffffffffffff16856fffffffffffffffffffffffffffffffff166145e390919063ffffffff16565b6146ff565b905092915050565b6000614589614584836fffffffffffffffffffffffffffffffff16856fffffffffffffffffffffffffffffffff1661459190919063ffffffff16565b6146ff565b905092915050565b60006145d383836040518060400160405280601e81526020017f536166654d6174683a207375627472616374696f6e206f766572666c6f770000815250614772565b905092915050565b600033905090565b600080828401905083811015614661576040517f08c379a000000000000000000000000000000000000000000000000000000000815260040180806020018281038252601b8152602001807f536166654d6174683a206164646974696f6e206f766572666c6f77000000000081525060200191505060405180910390fd5b8091505092915050565b60006146ad83836040518060400160405280601a81526020017f536166654d6174683a206469766973696f6e206279207a65726f000000000000815250614832565b905092915050565b60006146f783836040518060400160405280601881526020017f536166654d6174683a206d6f64756c6f206279207a65726f00000000000000008152506148f8565b905092915050565b6000700100000000000000000000000000000000821061476a576040517f08c379a000000000000000000000000000000000000000000000000000000000815260040180806020018281038252602781526020018061530b6027913960400191505060405180910390fd5b819050919050565b600083831115829061481f576040517f08c379a00000000000000000000000000000000000000000000000000000000081526004018080602001828103825283818151815260200191508051906020019080838360005b838110156147e45780820151818401526020810190506147c9565b50505050905090810190601f1680156148115780820380516001836020036101000a031916815260200191505b509250505060405180910390fd5b5060008385039050809150509392505050565b600080831182906148de576040517f08c379a00000000000000000000000000000000000000000000000000000000081526004018080602001828103825283818151815260200191508051906020019080838360005b838110156148a3578082015181840152602081019050614888565b50505050905090810190601f1680156148d05780820380516001836020036101000a031916815260200191505b509250505060405180910390fd5b5060008385816148ea57fe5b049050809150509392505050565b60008083141582906149a5576040517f08c379a00000000000000000000000000000000000000000000000000000000081526004018080602001828103825283818151815260200191508051906020019080838360005b8381101561496a57808201518184015260208101905061494f565b50505050905090810190601f1680156149975780820380516001836020036101000a031916815260200191505b509250505060405180910390fd5b508284816149af57fe5b0690509392505050565b6000813590506149c88161525a565b92915050565b6000815190506149dd8161525a565b92915050565b6000815190506149f281615271565b92915050565b600081359050614a0781615288565b92915050565b600081359050614a1c8161529f565b92915050565b600081359050614a31816152b6565b92915050565b600081359050614a46816152cd565b92915050565b600081519050614a5b816152cd565b92915050565b600060208284031215614a7357600080fd5b6000614a81848285016149b9565b91505092915050565b600060208284031215614a9c57600080fd5b6000614aaa848285016149ce565b91505092915050565b600080600060608486031215614ac857600080fd5b6000614ad6868287016149ce565b9350506020614ae7868287016149ce565b9250506040614af8868287016149ce565b9150509250925092565b60008060408385031215614b1557600080fd5b6000614b23858286016149b9565b9250506020614b3485828601614a0d565b9150509250929050565b60008060408385031215614b5157600080fd5b6000614b5f858286016149b9565b9250506020614b7085828601614a37565b9150509250929050565b600060208284031215614b8c57600080fd5b6000614b9a848285016149e3565b91505092915050565b600060208284031215614bb557600080fd5b6000614bc3848285016149f8565b91505092915050565b600060208284031215614bde57600080fd5b6000614bec84828501614a22565b91505092915050565b600060208284031215614c0757600080fd5b6000614c1584828501614a37565b91505092915050565b600060208284031215614c3057600080fd5b6000614c3e84828501614a4c565b91505092915050565b614c50816151aa565b82525050565b614c5f81615102565b82525050565b614c6e81615114565b82525050565b614c7d816151bc565b82525050565b614c8c8161514c565b82525050565b614c9b816151ce565b82525050565b6000614cac826150e6565b614cb681856150f1565b9350614cc6818560208601615216565b614ccf81615249565b840191505092915050565b6000614ce76018836150f1565b91507f4465706f736974206d757374206265206e6f6e2d7a65726f00000000000000006000830152602082019050919050565b6000614d276025836150f1565b91507f55736572206e6f7420617070726f76656420746f2073656e642074686973206160008301527f6d6f756e740000000000000000000000000000000000000000000000000000006020830152604082019050919050565b614d8981615156565b82525050565b614d98816151e0565b82525050565b614da781615172565b82525050565b614db6816151a0565b82525050565b6000602082019050614dd16000830184614c56565b92915050565b6000604082019050614dec6000830185614c47565b614df96020830184614c56565b9392505050565b6000606082019050614e156000830186614c47565b614e226020830185614c56565b614e2f6040830184614d8f565b949350505050565b6000606082019050614e4c6000830186614c47565b614e596020830185614c56565b614e666040830184614dad565b949350505050565b6000604082019050614e836000830185614c56565b614e906020830184614c83565b9392505050565b6000604082019050614eac6000830185614c56565b614eb96020830184614c92565b9392505050565b6000604082019050614ed56000830185614c56565b614ee26020830184614d8f565b9392505050565b6000606082019050614efe6000830186614c56565b614f0b6020830185614d8f565b614f186040830184614c47565b949350505050565b6000608082019050614f356000830187614c56565b614f426020830186614d8f565b614f4f6040830185614c56565b614f5c6060830184614d9e565b95945050505050565b6000604082019050614f7a6000830185614c56565b614f876020830184614dad565b9392505050565b6000606082019050614fa36000830186614c56565b614fb06020830185614dad565b614fbd6040830184614c47565b949350505050565b6000608082019050614fda6000830187614c56565b614fe76020830186614dad565b614ff46040830185614c56565b6150016060830184614d9e565b95945050505050565b600060208201905061501f6000830184614c65565b92915050565b600060208201905061503a6000830184614c74565b92915050565b6000604082019050818103600083015261505a8185614ca1565b90506150696020830184614c56565b9392505050565b6000602082019050818103600083015261508981614cda565b9050919050565b600060208201905081810360008301526150a981614d1a565b9050919050565b60006020820190506150c56000830184614d80565b92915050565b60006020820190506150e06000830184614dad565b92915050565b600081519050919050565b600082825260208201905092915050565b600061510d82615180565b9050919050565b60008115159050919050565b60007fff0000000000000000000000000000000000000000000000000000000000000082169050919050565b6000819050919050565b60006fffffffffffffffffffffffffffffffff82169050919050565b600061ffff82169050919050565b600073ffffffffffffffffffffffffffffffffffffffff82169050919050565b6000819050919050565b60006151b5826151f2565b9050919050565b60006151c782615120565b9050919050565b60006151d9826151a0565b9050919050565b60006151eb82615156565b9050919050565b60006151fd82615204565b9050919050565b600061520f82615180565b9050919050565b60005b83811015615234578082015181840152602081019050615219565b83811115615243576000848401525b50505050565b6000601f19601f8301169050919050565b61526381615102565b811461526e57600080fd5b50565b61527a81615114565b811461528557600080fd5b50565b61529181615120565b811461529c57600080fd5b50565b6152a881615156565b81146152b357600080fd5b50565b6152bf81615172565b81146152ca57600080fd5b50565b6152d6816151a0565b81146152e157600080fd5b5056fe4f776e61626c653a206e6577206f776e657220697320746865207a65726f206164647265737353616665436173743a2076616c756520646f65736e27742066697420696e203132382062697473a26469706673582212206ff6eec2525a51600d167005c508541a9542bbb23c2a39ed74879b1e7e03176464736f6c63430007040033",
  "immutableReferences": {},
  "source": "// SPDX-License-Identifier: MIT\r\npragma solidity ^0.7.0;\r\npragma experimental ABIEncoderV2;\r\n\r\nimport \"interfaces/ILendingPool.sol\";\r\nimport \"interfaces/IProtocolDataProvider.sol\";\r\nimport \"@openzeppelin/contracts/access/Ownable.sol\";\r\n//import \"@openzeppelin/contracts/drafts/ERC20Permit.sol\"; \r\nimport \"@openzeppelin/contracts/token/ERC20/IERC20.sol\";\r\n//import \"@openzeppelin/contracts/token/ERC20/ERC20.sol\";\r\nimport \"@openzeppelin/contracts/math/SafeMath.sol\";\r\nimport \"@openzeppelin/contracts/utils/SafeCast.sol\";\r\n\r\n  /**\r\n   * @title Manages depositing and withdrawing from Aave\r\n   * @notice part of the StakeYourName DApp\r\n   * @author Daniel Chilvers\r\n   **/\r\ncontract InvestmentManager is Ownable {\r\n\r\n    using SafeMath for uint256;\r\n\r\n    //address internal kovanLendingPool = 0x9FE532197ad76c5a68961439604C037EB79681F0;\r\n    //address internal mainLendingPool = 0x7d2768dE32b0b80b7a3454c06BdAc94A69DDc7A9;\r\n    address internal deadAddress = 0x000000000000000000000000000000000000dEaD;\r\n    address internal lendingPooladdress = deadAddress;\r\n    address internal kovanLendingPoolAddressProviderAddress = 0x88757f2f99175387aB4C6a4b3067c77A695b0349;\r\n    address internal mainLendingPoolAddressProviderAddress = 0xB53C1a33016B2DC2fF3653530bfF1848a515c8c5;\r\n    address internal lendingPoolAddressProviderAddress = deadAddress;\r\n    address internal ProtocolDataProviderAddress = deadAddress;\r\n\r\n    /// @dev addresses saved here for testing, in final version the\r\n    /// @dev addresses will be passed in from the front end.\r\n    address internal DAIContract = 0x6B175474E89094C44Da98b954EedeAC495271d0F;\r\n    address internal USDCContract = 0xA0b86991c6218b36c1d19D4a2e9Eb0cE3606eB48;\r\n\r\n    uint16 referralCode = 0;\r\n    uint256 constant MAX_INT = type(uint256).max;\r\n\r\n    /// @notice User data, maps an assest contract address to their balance, interest earnt\r\n    /// @notice and if they've locked the original investment (no auto-switching, no loss investement)\r\n    /// @dev we can increase balance to uint256, changing to mappings removed the packing benefits\r\n    struct User {\r\n        mapping (address => uint128) balance;\r\n        mapping (address => uint128) interest;\r\n        mapping (address => bool) locked;\r\n    }\r\n\r\n    /// @dev map user addresses to our struct above\r\n    mapping (address => User) Users;\r\n\r\n    /// @dev balance, how many of each token bought\r\n    /// @dev interest, how much interest earnt so far\r\n    /// @dev interestCalcualtionTime, block.timestamp of last calculation\r\n    /// @dev TO:DO pack this struct better\r\n    struct Asset {\r\n        uint256 balance;\r\n        uint256 interest;\r\n        //uint256 interestCalculationTime;\r\n        address[] userList;\r\n    }\r\n\r\n    mapping (address => Asset) assets;\r\n\r\n\r\n    /// @dev save a list of any assests we've puchased\r\n    address[] public assetList;\r\n    /// @dev save a list of users that have purchased asset\r\n    address[] public userList;\r\n\r\n    IProtocolDataProvider.TokenData[] public aTokens;\r\n\r\n    ILendingPool lendingPool;\r\n    ILendingPoolAddressesProvider lendingPoolAddressesProvider;\r\n    IProtocolDataProvider protocolDataProvider;\r\n    IERC20 ierc20;\r\n\r\n    constructor(uint _networkID) {\r\n        /// @dev truffle will pass in the networkID when migrated, use this to select the correct addresses\r\n        /// @dev uprgading to ^0.8.0 we could use block.chainid instead\r\n        if (_networkID == 1){\r\n            lendingPoolAddressProviderAddress = mainLendingPoolAddressProviderAddress;\r\n            protocolDataProvider = IProtocolDataProvider(0x057835Ad21a177dbdd3090bB1CAE03EaCF78Fc6d);\r\n        } else if (_networkID == 42){\r\n            lendingPoolAddressProviderAddress = kovanLendingPoolAddressProviderAddress;\r\n            protocolDataProvider = IProtocolDataProvider(0x3c73A5E5785cAC854D468F727c606C07488a29D6);\r\n        } \r\n        lendingPoolAddressesProvider = ILendingPoolAddressesProvider(lendingPoolAddressProviderAddress);\r\n        lendingPooladdress =  lendingPoolAddressesProvider.getLendingPool();\r\n        //protocolDataProvider = IProtocolDataProvider(lendingPoolAddressesProvider.getAddress(bytes32('0x1')));\r\n        lendingPool = ILendingPool(lendingPooladdress);\r\n    }\r\n\r\n    event debug(address _address, uint256 state);\r\n\r\n    /// @notice Approves sending _asset ERC20 tokens to the lendingPool\r\n    /// @dev this needs to be called for each new asset purchased\r\n    function approveLendingPool(address _asset) public {\r\n        ierc20 = IERC20(_asset);\r\n        ierc20.approve(lendingPooladdress , MAX_INT);\r\n    }\r\n\r\n    function userBalance(address _asset) public view returns(uint128){\r\n        return(Users[msg.sender].balance[_asset]);\r\n    }\r\n\r\n    function userInterest(address _asset) public view returns(uint128){\r\n        return(Users[msg.sender].interest[_asset]);\r\n    }\r\n\r\n    /// @notice calculates how many extra aTokens we have i.e. interest\r\n    /// @notice divides and adds result to users balances\r\n    /// @dev do we need to collect the dust and distribute that later?\r\n    function calculateInterest(address _asset) public {\r\n        //require(assets[_asset].balance != 0);\r\n        address _aTokenAddress;\r\n        (_aTokenAddress,,) = protocolDataProvider.getReserveTokensAddresses(_asset);\r\n        //_aTokenAddress = 0xdCf0aF9e59C002FA3AA091a46196b37530FD48a8;\r\n        ierc20 = IERC20(_aTokenAddress);\r\n        uint256 _interest = ierc20.balanceOf(address(this));\r\n        _interest = _interest.sub(assets[_asset].balance);\r\n        _interest = _interest.sub(assets[_asset].interest);\r\n        uint256 _interestSplit = _interest.div(assets[_asset].userList.length);\r\n        /// @dev we want to leave any dust behind, so mod the _interest before updating the asset interest balance\r\n        /// @dev this is fine because the dust will be collected the next time interest is calculated\r\n        _interest = _interest.sub(_interest.mod(assets[_asset].userList.length));\r\n        assets[_asset].interest = assets[_asset].interest.add(_interest);\r\n        for (uint i; i < assets[_asset].userList.length; i++){\r\n            Users[address(assets[_asset].userList[i])].interest[_asset] = \r\n            SafeCast.toUint128(uint256(Users[address(assets[_asset].\r\n            userList[i])].interest[_asset]).add(_interestSplit));\r\n        }\r\n    }\r\n\r\n    /// @notice just does a deposit, doesn't record to any users balance\r\n    /// @dev just for testing, remove later\r\n    function depositTest(address _asset, uint256 _amount) public {\r\n        ierc20 = IERC20(_asset);\r\n        ierc20.transferFrom(msg.sender, address(this), _amount);\r\n        lendingPool.deposit(_asset, _amount, address(this) , referralCode);\r\n        assets[_asset].balance = assets[_asset].balance.add(_amount);\r\n    }\r\n\r\n    /// @notice just does a withdrawl, doesn't record to a users balance\r\n    /// @dev just for testing, remove later\r\n    function withdrawTest(address _asset, uint256 _amount) public onlyOwner {\r\n        lendingPool.withdraw(_asset, _amount, msg.sender);\r\n    }\r\n\r\n\r\n    /// @dev this isn't how it works, the user needs to approve directly to the asset contract\r\n    function approveDeposit(address _asset, uint128 _amount) public {\r\n        require(_asset != address(0));\r\n        require(_amount > 0);\r\n        ierc20 = IERC20(_asset);\r\n        ierc20.approve(address(this), _amount);\r\n        if (!checkAssetList(_asset)) {\r\n            addAsset(_asset);\r\n        }\r\n    }\r\n\r\n    /// @notice checks if we've purchased this assest before, make internal later\r\n    function checkAssetList(address _asset) public view returns(bool){\r\n        for (uint i; i < assetList.length; i++ ){\r\n            if(address(assetList[i]) == _asset){\r\n                return true;\r\n            }\r\n        }\r\n        return false;\r\n    }\r\n\r\n    /// @notice adds an _asset to the assetList and approves sending to the lendingPool\r\n    function addAsset(address _asset) public onlyOwner{\r\n        assetList.push(_asset);\r\n        approveLendingPool(_asset);\r\n        //approveATokenBurn(_asset, MAX_INT);\r\n    }\r\n\r\n    /// @notice checks if this user has purchased this asset previously\r\n    function checkUserList(address _asset) public view returns(bool){\r\n        for (uint i; i < assets[_asset].userList.length; i++ ){\r\n            if(assets[_asset].userList[i] == msg.sender){\r\n                return true;\r\n            }\r\n        }\r\n        return false;\r\n    }\r\n\r\n    /// @notice records that the user has now purchased _asset\r\n    function addUser(address _asset) public onlyOwner{\r\n        assets[_asset].userList.push(msg.sender);\r\n        //approveLendingPool(_asset);\r\n        //approveATokenBurn(_asset, MAX_INT);\r\n    }\r\n\r\n    function checkAllowance (address _asset) public returns(uint256){\r\n        ierc20 = IERC20(_asset);\r\n        return ierc20.allowance(msg.sender, address(this));\r\n    }\r\n\r\n    /// @dev TO:DO add some more requires to potentially save gas\r\n    function deposit(address _asset, uint128 _amount) public {\r\n        require(_asset != address(0));\r\n        require(checkAllowance(_asset) >= _amount, \"User not approved to send this amount\");\r\n        require(_amount > 0, \"Deposit must be non-zero\");\r\n        if (!checkAssetList(_asset)) {\r\n            addAsset(_asset);\r\n        }\r\n        ierc20 = IERC20(_asset);\r\n        ierc20.transferFrom(msg.sender, address(this), _amount);\r\n        lendingPool.deposit(_asset, _amount, address(this) , referralCode);\r\n        assets[_asset].balance = assets[_asset].balance.add(_amount);\r\n        if (!checkUserList(_asset)) {\r\n            addUser(_asset);\r\n        }\r\n        Users[msg.sender].balance[_asset] = safeAddUint128(Users[msg.sender].balance[_asset], _amount );\r\n    }\r\n\r\n    /// @dev don't think we need to do this!?\r\n    function approveATokenBurn(address _asset, uint256 _amount) public {\r\n        address _aTokenAddress;\r\n        (_aTokenAddress,,) = protocolDataProvider.getReserveTokensAddresses(_asset);\r\n        ierc20 = IERC20(_aTokenAddress);\r\n        ierc20.approve(lendingPooladdress , _amount);\r\n    }\r\n\r\n    ///@dev current implemnetation withdraws balance before deposit.\r\n    function withdraw(address _asset, uint128 _amount) public {\r\n        require(_asset != address(0));\r\n        require(_amount > 0);\r\n        calculateInterest(_asset);\r\n        uint128 _maxWithdrawl = safeAddUint128(Users[msg.sender].balance[_asset],Users[msg.sender].interest[_asset]);\r\n        uint128 _withdrawl = 0;\r\n        uint128 _balanceReduction = 0;\r\n        uint128 _interestReduction = 0;\r\n        if (_amount > _maxWithdrawl) {\r\n            _balanceReduction = Users[msg.sender].balance[_asset];\r\n            _interestReduction = Users[msg.sender].interest[_asset];\r\n            Users[msg.sender].balance[_asset] = 0;\r\n            Users[msg.sender].interest[_asset] = 0;\r\n            _withdrawl = _maxWithdrawl;\r\n        } else if (_amount > Users[msg.sender].balance[_asset]) {\r\n            _balanceReduction = Users[msg.sender].balance[_asset];\r\n            _interestReduction = safeSubUint128(_amount, Users[msg.sender].balance[_asset]);           \r\n            Users[msg.sender].interest[_asset] = safeSubUint128(Users[msg.sender].interest[_asset],safeSubUint128(_amount, Users[msg.sender].balance[_asset]));\r\n            Users[msg.sender].balance[_asset] = 0;\r\n            _withdrawl = _amount;\r\n        } else {\r\n            _balanceReduction = _amount;\r\n            Users[msg.sender].balance[_asset] = safeSubUint128(Users[msg.sender].balance[_asset], _amount);\r\n            _withdrawl = _amount;\r\n        }\r\n        lendingPool.withdraw(_asset, _withdrawl, msg.sender);\r\n        assets[_asset].balance = assets[_asset].balance.sub(_balanceReduction);\r\n        assets[_asset].interest = assets[_asset].interest.sub(_interestReduction);\r\n    }\r\n\r\n    function convertInterestToBalance(address _asset, uint128 _amount) public {\r\n        require(_asset != address(0));\r\n        require(_amount > 0);\r\n        calculateInterest(_asset);\r\n        uint128 _check = userTotal(_asset);\r\n        if (_amount > Users[msg.sender].interest[_asset]){\r\n            assets[_asset].balance = assets[_asset].balance.add(Users[msg.sender].interest[_asset]);\r\n            assets[_asset].interest = assets[_asset].interest.sub(Users[msg.sender].interest[_asset]);\r\n            Users[msg.sender].balance[_asset] = safeAddUint128(Users[msg.sender].balance[_asset], Users[msg.sender].interest[_asset]);\r\n            Users[msg.sender].interest[_asset] = 0;    \r\n        } else {\r\n            Users[msg.sender].interest[_asset] = safeSubUint128(Users[msg.sender].interest[_asset], _amount);\r\n            Users[msg.sender].balance[_asset] = safeAddUint128(Users[msg.sender].balance[_asset], _amount);\r\n            assets[_asset].balance = assets[_asset].balance.add(_amount);\r\n            assets[_asset].interest = assets[_asset].interest.sub(_amount);   \r\n        }\r\n        assert(_check == userTotal(_asset));\r\n    }\r\n\r\n    /// @dev only call this after calculateInterest()\r\n    function userTotal(address _asset) public view returns(uint128) {\r\n        return(safeAddUint128(Users[msg.sender].balance[_asset], Users[msg.sender].interest[_asset]));\r\n    }\r\n\r\n    /// @notice uses the SafeMath and SafeCast libraries to safely add uint128s together\r\n    function safeAddUint128(uint128 _a, uint128 _b) internal pure returns(uint128){\r\n        return(SafeCast.toUint128(uint256(_a).add(uint256(_b))));\r\n    }\r\n    /// @notice uses the SafeMath and SafeCast libraries to safely subtract uint128s \r\n    function safeSubUint128(uint128 _a, uint128 _b) internal pure returns(uint128){\r\n        return(SafeCast.toUint128(uint256(_a).sub(uint256(_b))));\r\n    }\r\n\r\n    /// @notice don't send me funds if this function still exists\r\n    /// @dev for recovering test funds\r\n    function withdrawAll() public onlyOwner {\r\n        require(msg.sender.send(address(this).balance));\r\n    }\r\n\r\n    function updateReferalCode(uint16 _code) public onlyOwner {\r\n        referralCode = _code;\r\n    }\r\n\r\n    /// @notice verify the address of the lending pool in use\r\n    function checkLendingPoolAddress() public view returns(address){\r\n        return (lendingPooladdress);\r\n    }\r\n\r\n    /// @notice verify the address of the lending pool address provider\r\n    /// @dev maybe try and shorten the function name a bit\r\n    function checkLendingPoolAddressProviderAddress() public view returns(address){\r\n        return (lendingPoolAddressProviderAddress);\r\n    }\r\n    \r\n    function checkProtocolDataProvider() public view returns(address){\r\n        return (address(protocolDataProvider));\r\n    }\r\n\r\n    function updateProtocolDataProvider(bytes1 _bytes) public returns(address, bytes32){\r\n        protocolDataProvider = IProtocolDataProvider(lendingPoolAddressesProvider.getAddress(_bytes));\r\n        return (address(protocolDataProvider),_bytes);\r\n    }\r\n\r\n    function checkaTokenAddress(address _asset) public view returns(address){\r\n        address _aTokenAddress;\r\n        (_aTokenAddress,,) = protocolDataProvider.getReserveTokensAddresses(_asset);\r\n        return (address(_aTokenAddress));\r\n    }\r\n\r\n    /// @notice update the lending pool address from the address provider\r\n    function updateLendingPoolAddress() public onlyOwner returns(address){\r\n        lendingPooladdress = lendingPoolAddressesProvider.getLendingPool();\r\n        lendingPool = ILendingPool(lendingPooladdress);\r\n        emit debug(lendingPooladdress, 10);\r\n        return (lendingPooladdress);\r\n    }\r\n\r\n}",
  "sourcePath": "C:/Users/anyth/Documents/GitHub/StakeYourName/contracts/InvestmentManager.sol",
  "compiler": {
    "name": "solc",
    "version": "0.7.4+commit.3f05b770.Emscripten.clang"
  },
  "schemaVersion": "3.3.3",
  "updatedAt": "2021-01-23T16:17:42.730Z",
  "networkType": "ethereum",
  "devdoc": {
    "author": "Daniel Chilvers*",
    "kind": "dev",
    "methods": {
      "approveATokenBurn(address,uint256)": {
        "details": "don't think we need to do this!?"
      },
      "approveDeposit(address,uint128)": {
        "details": "this isn't how it works, the user needs to approve directly to the asset contract"
      },
      "approveLendingPool(address)": {
        "details": "this needs to be called for each new asset purchased"
      },
      "calculateInterest(address)": {
        "details": "do we need to collect the dust and distribute that later?"
      },
      "checkLendingPoolAddressProviderAddress()": {
        "details": "maybe try and shorten the function name a bit"
      },
      "deposit(address,uint128)": {
        "details": "TO:DO add some more requires to potentially save gas"
      },
      "depositTest(address,uint256)": {
        "details": "just for testing, remove later"
      },
      "owner()": {
        "details": "Returns the address of the current owner."
      },
      "renounceOwnership()": {
        "details": "Leaves the contract without owner. It will not be possible to call `onlyOwner` functions anymore. Can only be called by the current owner. NOTE: Renouncing ownership will leave the contract without an owner, thereby removing any functionality that is only available to the owner."
      },
      "transferOwnership(address)": {
        "details": "Transfers ownership of the contract to a new account (`newOwner`). Can only be called by the current owner."
      },
      "userTotal(address)": {
        "details": "only call this after calculateInterest()"
      },
      "withdraw(address,uint128)": {
        "details": "current implemnetation withdraws balance before deposit."
      },
      "withdrawAll()": {
        "details": "for recovering test funds"
      },
      "withdrawTest(address,uint256)": {
        "details": "just for testing, remove later"
      }
    },
    "stateVariables": {
      "DAIContract": {
        "details": "addresses saved here for testing, in final version theaddresses will be passed in from the front end."
      },
      "Users": {
        "details": "map user addresses to our struct above"
      },
      "assetList": {
        "details": "save a list of any assests we've puchased"
      },
      "userList": {
        "details": "save a list of users that have purchased asset"
      }
    },
    "title": "Manages depositing and withdrawing from Aave",
    "version": 1
  },
  "userdoc": {
    "kind": "user",
    "methods": {
      "addAsset(address)": {
        "notice": "adds an _asset to the assetList and approves sending to the lendingPool"
      },
      "addUser(address)": {
        "notice": "records that the user has now purchased _asset"
      },
      "approveLendingPool(address)": {
        "notice": "Approves sending _asset ERC20 tokens to the lendingPool"
      },
      "calculateInterest(address)": {
        "notice": "calculates how many extra aTokens we have i.e. interestdivides and adds result to users balances"
      },
      "checkAssetList(address)": {
        "notice": "checks if we've purchased this assest before, make internal later"
      },
      "checkLendingPoolAddress()": {
        "notice": "verify the address of the lending pool in use"
      },
      "checkLendingPoolAddressProviderAddress()": {
        "notice": "verify the address of the lending pool address provider"
      },
      "checkUserList(address)": {
        "notice": "checks if this user has purchased this asset previously"
      },
      "depositTest(address,uint256)": {
        "notice": "just does a deposit, doesn't record to any users balance"
      },
      "updateLendingPoolAddress()": {
        "notice": "update the lending pool address from the address provider"
      },
      "withdrawAll()": {
        "notice": "don't send me funds if this function still exists"
      },
      "withdrawTest(address,uint256)": {
        "notice": "just does a withdrawl, doesn't record to a users balance"
      }
    },
    "notice": "part of the StakeYourName DApp",
    "version": 1
  }
}