{
  "contractName": "InvestmentManager",
  "abi": [
    {
      "inputs": [
        {
          "internalType": "uint256",
          "name": "_networkID",
          "type": "uint256"
        }
      ],
      "stateMutability": "nonpayable",
      "type": "constructor"
    },
    {
      "anonymous": false,
      "inputs": [
        {
          "indexed": true,
          "internalType": "address",
          "name": "previousOwner",
          "type": "address"
        },
        {
          "indexed": true,
          "internalType": "address",
          "name": "newOwner",
          "type": "address"
        }
      ],
      "name": "OwnershipTransferred",
      "type": "event"
    },
    {
      "anonymous": false,
      "inputs": [
        {
          "indexed": false,
          "internalType": "address",
          "name": "_address",
          "type": "address"
        },
        {
          "indexed": false,
          "internalType": "uint256",
          "name": "state",
          "type": "uint256"
        }
      ],
      "name": "debug",
      "type": "event"
    },
    {
      "inputs": [
        {
          "internalType": "uint256",
          "name": "",
          "type": "uint256"
        }
      ],
      "name": "aTokens",
      "outputs": [
        {
          "internalType": "string",
          "name": "symbol",
          "type": "string"
        },
        {
          "internalType": "address",
          "name": "tokenAddress",
          "type": "address"
        }
      ],
      "stateMutability": "view",
      "type": "function",
      "constant": true
    },
    {
      "inputs": [],
      "name": "owner",
      "outputs": [
        {
          "internalType": "address",
          "name": "",
          "type": "address"
        }
      ],
      "stateMutability": "view",
      "type": "function",
      "constant": true
    },
    {
      "inputs": [],
      "name": "renounceOwnership",
      "outputs": [],
      "stateMutability": "nonpayable",
      "type": "function"
    },
    {
      "inputs": [
        {
          "internalType": "address",
          "name": "newOwner",
          "type": "address"
        }
      ],
      "name": "transferOwnership",
      "outputs": [],
      "stateMutability": "nonpayable",
      "type": "function"
    },
    {
      "inputs": [
        {
          "internalType": "address",
          "name": "_asset",
          "type": "address"
        },
        {
          "internalType": "address",
          "name": "_userVault",
          "type": "address"
        }
      ],
      "name": "approveLendingPool",
      "outputs": [],
      "stateMutability": "nonpayable",
      "type": "function"
    },
    {
      "inputs": [
        {
          "internalType": "address",
          "name": "_asset",
          "type": "address"
        }
      ],
      "name": "getAToken",
      "outputs": [
        {
          "internalType": "address",
          "name": "",
          "type": "address"
        }
      ],
      "stateMutability": "view",
      "type": "function",
      "constant": true
    },
    {
      "inputs": [
        {
          "internalType": "address",
          "name": "_asset",
          "type": "address"
        },
        {
          "internalType": "address",
          "name": "_userVault",
          "type": "address"
        }
      ],
      "name": "getATokenBalance",
      "outputs": [
        {
          "internalType": "uint256",
          "name": "",
          "type": "uint256"
        }
      ],
      "stateMutability": "view",
      "type": "function",
      "constant": true
    },
    {
      "inputs": [
        {
          "internalType": "address",
          "name": "_asset",
          "type": "address"
        },
        {
          "internalType": "address",
          "name": "_userVault",
          "type": "address"
        },
        {
          "internalType": "uint256",
          "name": "_amount",
          "type": "uint256"
        }
      ],
      "name": "deposit",
      "outputs": [],
      "stateMutability": "nonpayable",
      "type": "function"
    },
    {
      "inputs": [
        {
          "internalType": "address",
          "name": "_asset",
          "type": "address"
        }
      ],
      "name": "checkAllowance",
      "outputs": [
        {
          "internalType": "uint256",
          "name": "",
          "type": "uint256"
        }
      ],
      "stateMutability": "view",
      "type": "function",
      "constant": true
    },
    {
      "inputs": [
        {
          "internalType": "address",
          "name": "_asset",
          "type": "address"
        },
        {
          "internalType": "uint256",
          "name": "_amount",
          "type": "uint256"
        },
        {
          "internalType": "address",
          "name": "_user",
          "type": "address"
        }
      ],
      "name": "withdraw",
      "outputs": [],
      "stateMutability": "nonpayable",
      "type": "function"
    }
  ],
  "bytecode": "0x60806040526000600160006101000a81548173ffffffffffffffffffffffffffffffffffffffff021916908373ffffffffffffffffffffffffffffffffffffffff160217905550600160009054906101000a900473ffffffffffffffffffffffffffffffffffffffff16600260006101000a81548173ffffffffffffffffffffffffffffffffffffffff021916908373ffffffffffffffffffffffffffffffffffffffff1602179055507388757f2f99175387ab4c6a4b3067c77a695b0349600360006101000a81548173ffffffffffffffffffffffffffffffffffffffff021916908373ffffffffffffffffffffffffffffffffffffffff16021790555073b53c1a33016b2dc2ff3653530bff1848a515c8c5600460006101000a81548173ffffffffffffffffffffffffffffffffffffffff021916908373ffffffffffffffffffffffffffffffffffffffff160217905550600160009054906101000a900473ffffffffffffffffffffffffffffffffffffffff16600560006101000a81548173ffffffffffffffffffffffffffffffffffffffff021916908373ffffffffffffffffffffffffffffffffffffffff160217905550600160009054906101000a900473ffffffffffffffffffffffffffffffffffffffff16600660006101000a81548173ffffffffffffffffffffffffffffffffffffffff021916908373ffffffffffffffffffffffffffffffffffffffff1602179055506000600660146101000a81548161ffff021916908361ffff16021790555060027fffffffffffffffffffffffffffffffffffffffffffffffffffffffffffffffff816200026257fe5b046007553480156200027357600080fd5b50604051620018dd380380620018dd8339818101604052810190620002999190620006e8565b6000620002ab6200068660201b60201c565b9050806000806101000a81548173ffffffffffffffffffffffffffffffffffffffff021916908373ffffffffffffffffffffffffffffffffffffffff1602179055508073ffffffffffffffffffffffffffffffffffffffff16600073ffffffffffffffffffffffffffffffffffffffff167f8be0079c531659141344cd1fd0a4f28419497f9722a3daafe3b4186f6b6457e060405160405180910390a35060018114156200041157600460009054906101000a900473ffffffffffffffffffffffffffffffffffffffff16600560006101000a81548173ffffffffffffffffffffffffffffffffffffffff021916908373ffffffffffffffffffffffffffffffffffffffff16021790555073057835ad21a177dbdd3090bb1cae03eacf78fc6d600b60006101000a81548173ffffffffffffffffffffffffffffffffffffffff021916908373ffffffffffffffffffffffffffffffffffffffff160217905550620004d5565b602a811415620004d457600360009054906101000a900473ffffffffffffffffffffffffffffffffffffffff16600560006101000a81548173ffffffffffffffffffffffffffffffffffffffff021916908373ffffffffffffffffffffffffffffffffffffffff160217905550733c73a5e5785cac854d468f727c606c07488a29d6600b60006101000a81548173ffffffffffffffffffffffffffffffffffffffff021916908373ffffffffffffffffffffffffffffffffffffffff1602179055505b5b600560009054906101000a900473ffffffffffffffffffffffffffffffffffffffff16600a60006101000a81548173ffffffffffffffffffffffffffffffffffffffff021916908373ffffffffffffffffffffffffffffffffffffffff160217905550600a60009054906101000a900473ffffffffffffffffffffffffffffffffffffffff1673ffffffffffffffffffffffffffffffffffffffff16630261bf8b6040518163ffffffff1660e01b815260040160206040518083038186803b158015620005a157600080fd5b505afa158015620005b6573d6000803e3d6000fd5b505050506040513d601f19601f82011682018060405250810190620005dc9190620006bc565b600260006101000a81548173ffffffffffffffffffffffffffffffffffffffff021916908373ffffffffffffffffffffffffffffffffffffffff160217905550600260009054906101000a900473ffffffffffffffffffffffffffffffffffffffff16600960006101000a81548173ffffffffffffffffffffffffffffffffffffffff021916908373ffffffffffffffffffffffffffffffffffffffff1602179055505062000786565b600033905090565b6000815190506200069f8162000752565b92915050565b600081519050620006b6816200076c565b92915050565b600060208284031215620006cf57600080fd5b6000620006df848285016200068e565b91505092915050565b600060208284031215620006fb57600080fd5b60006200070b84828501620006a5565b91505092915050565b6000620007218262000728565b9050919050565b600073ffffffffffffffffffffffffffffffffffffffff82169050919050565b6000819050919050565b6200075d8162000714565b81146200076957600080fd5b50565b620007778162000748565b81146200078357600080fd5b50565b61114780620007966000396000f3fe608060405234801561001057600080fd5b506004361061009e5760003560e01c8063732a52ee11610066578063732a52ee1461015a5780638340f5491461018a5780638da5cb5b146101a6578063ae6418b5146101c4578063f2fde38b146101e05761009e565b80631a197a26146100a3578063203660df146100d3578063324e4b571461010357806369328dec14610134578063715018a614610150575b600080fd5b6100bd60048036038101906100b89190610c1b565b6101fc565b6040516100ca9190610f9f565b60405180910390f35b6100ed60048036038101906100e89190610c44565b6102b7565b6040516100fa9190610f9f565b60405180910390f35b61011d60048036038101906101189190610d96565b610357565b60405161012b929190610f6f565b60405180910390f35b61014e60048036038101906101499190610d1e565b610443565b005b6101586104fa565b005b610174600480360381019061016f9190610c1b565b610680565b6040516101819190610e5d565b60405180910390f35b6101a4600480360381019061019f9190610ccf565b61073e565b005b6101ae6107e6565b6040516101bb9190610e5d565b60405180910390f35b6101de60048036038101906101d99190610c44565b61080f565b005b6101fa60048036038101906101f59190610c1b565b61099f565b005b6000808290508073ffffffffffffffffffffffffffffffffffffffff1663dd62ed3e33600960009054906101000a900473ffffffffffffffffffffffffffffffffffffffff166040518363ffffffff1660e01b815260040161025f929190610e78565b60206040518083038186803b15801561027757600080fd5b505afa15801561028b573d6000803e3d6000fd5b505050506040513d601f19601f820116820180604052508101906102af9190610dbf565b915050919050565b6000806102c384610680565b90508073ffffffffffffffffffffffffffffffffffffffff166370a08231846040518263ffffffff1660e01b81526004016102fe9190610e5d565b60206040518083038186803b15801561031657600080fd5b505afa15801561032a573d6000803e3d6000fd5b505050506040513d601f19601f8201168201806040525081019061034e9190610dbf565b91505092915050565b6008818154811061036757600080fd5b9060005260206000209060020201600091509050806000018054600181600116156101000203166002900480601f0160208091040260200160405190810160405280929190818152602001828054600181600116156101000203166002900480156104135780601f106103e857610100808354040283529160200191610413565b820191906000526020600020905b8154815290600101906020018083116103f657829003601f168201915b5050505050908060010160009054906101000a900473ffffffffffffffffffffffffffffffffffffffff16905082565b600960009054906101000a900473ffffffffffffffffffffffffffffffffffffffff1673ffffffffffffffffffffffffffffffffffffffff166369328dec8484846040518463ffffffff1660e01b81526004016104a293929190610ef3565b602060405180830381600087803b1580156104bc57600080fd5b505af11580156104d0573d6000803e3d6000fd5b505050506040513d601f19601f820116820180604052508101906104f49190610dbf565b50505050565b610502610baa565b73ffffffffffffffffffffffffffffffffffffffff1660008054906101000a900473ffffffffffffffffffffffffffffffffffffffff1673ffffffffffffffffffffffffffffffffffffffff16146105c2576040517f08c379a00000000000000000000000000000000000000000000000000000000081526004018080602001828103825260208152602001807f4f776e61626c653a2063616c6c6572206973206e6f7420746865206f776e657281525060200191505060405180910390fd5b600073ffffffffffffffffffffffffffffffffffffffff1660008054906101000a900473ffffffffffffffffffffffffffffffffffffffff1673ffffffffffffffffffffffffffffffffffffffff167f8be0079c531659141344cd1fd0a4f28419497f9722a3daafe3b4186f6b6457e060405160405180910390a360008060006101000a81548173ffffffffffffffffffffffffffffffffffffffff021916908373ffffffffffffffffffffffffffffffffffffffff160217905550565b600080600b60009054906101000a900473ffffffffffffffffffffffffffffffffffffffff1673ffffffffffffffffffffffffffffffffffffffff1663d2493b6c846040518263ffffffff1660e01b81526004016106de9190610e5d565b60606040518083038186803b1580156106f657600080fd5b505afa15801561070a573d6000803e3d6000fd5b505050506040513d601f19601f8201168201806040525081019061072e9190610c80565b9050508091505080915050919050565b600960009054906101000a900473ffffffffffffffffffffffffffffffffffffffff1673ffffffffffffffffffffffffffffffffffffffff1663e8eda9df848385600660149054906101000a900461ffff166040518563ffffffff1660e01b81526004016107af9493929190610f2a565b600060405180830381600087803b1580156107c957600080fd5b505af11580156107dd573d6000803e3d6000fd5b50505050505050565b60008060009054906101000a900473ffffffffffffffffffffffffffffffffffffffff16905090565b60008290506007548173ffffffffffffffffffffffffffffffffffffffff1663dd62ed3e84600260009054906101000a900473ffffffffffffffffffffffffffffffffffffffff166040518363ffffffff1660e01b8152600401610874929190610ea1565b60206040518083038186803b15801561088c57600080fd5b505afa1580156108a0573d6000803e3d6000fd5b505050506040513d601f19601f820116820180604052508101906108c49190610dbf565b1161099a578073ffffffffffffffffffffffffffffffffffffffff1663095ea7b3600260009054906101000a900473ffffffffffffffffffffffffffffffffffffffff167fffffffffffffffffffffffffffffffffffffffffffffffffffffffffffffffff6040518363ffffffff1660e01b8152600401610946929190610eca565b602060405180830381600087803b15801561096057600080fd5b505af1158015610974573d6000803e3d6000fd5b505050506040513d601f19601f820116820180604052508101906109989190610d6d565b505b505050565b6109a7610baa565b73ffffffffffffffffffffffffffffffffffffffff1660008054906101000a900473ffffffffffffffffffffffffffffffffffffffff1673ffffffffffffffffffffffffffffffffffffffff1614610a67576040517f08c379a00000000000000000000000000000000000000000000000000000000081526004018080602001828103825260208152602001807f4f776e61626c653a2063616c6c6572206973206e6f7420746865206f776e657281525060200191505060405180910390fd5b600073ffffffffffffffffffffffffffffffffffffffff168173ffffffffffffffffffffffffffffffffffffffff161415610aed576040517f08c379a00000000000000000000000000000000000000000000000000000000081526004018080602001828103825260268152602001806110ec6026913960400191505060405180910390fd5b8073ffffffffffffffffffffffffffffffffffffffff1660008054906101000a900473ffffffffffffffffffffffffffffffffffffffff1673ffffffffffffffffffffffffffffffffffffffff167f8be0079c531659141344cd1fd0a4f28419497f9722a3daafe3b4186f6b6457e060405160405180910390a3806000806101000a81548173ffffffffffffffffffffffffffffffffffffffff021916908373ffffffffffffffffffffffffffffffffffffffff16021790555050565b600033905090565b600081359050610bc1816110a6565b92915050565b600081519050610bd6816110a6565b92915050565b600081519050610beb816110bd565b92915050565b600081359050610c00816110d4565b92915050565b600081519050610c15816110d4565b92915050565b600060208284031215610c2d57600080fd5b6000610c3b84828501610bb2565b91505092915050565b60008060408385031215610c5757600080fd5b6000610c6585828601610bb2565b9250506020610c7685828601610bb2565b9150509250929050565b600080600060608486031215610c9557600080fd5b6000610ca386828701610bc7565b9350506020610cb486828701610bc7565b9250506040610cc586828701610bc7565b9150509250925092565b600080600060608486031215610ce457600080fd5b6000610cf286828701610bb2565b9350506020610d0386828701610bb2565b9250506040610d1486828701610bf1565b9150509250925092565b600080600060608486031215610d3357600080fd5b6000610d4186828701610bb2565b9350506020610d5286828701610bf1565b9250506040610d6386828701610bb2565b9150509250925092565b600060208284031215610d7f57600080fd5b6000610d8d84828501610bdc565b91505092915050565b600060208284031215610da857600080fd5b6000610db684828501610bf1565b91505092915050565b600060208284031215610dd157600080fd5b6000610ddf84828501610c06565b91505092915050565b610df18161102c565b82525050565b610e0081610fd6565b82525050565b6000610e1182610fba565b610e1b8185610fc5565b9350610e2b818560208601611062565b610e3481611095565b840191505092915050565b610e4881610ff4565b82525050565b610e5781611022565b82525050565b6000602082019050610e726000830184610df7565b92915050565b6000604082019050610e8d6000830185610de8565b610e9a6020830184610df7565b9392505050565b6000604082019050610eb66000830185610df7565b610ec36020830184610df7565b9392505050565b6000604082019050610edf6000830185610df7565b610eec6020830184610e4e565b9392505050565b6000606082019050610f086000830186610df7565b610f156020830185610e4e565b610f226040830184610df7565b949350505050565b6000608082019050610f3f6000830187610df7565b610f4c6020830186610e4e565b610f596040830185610df7565b610f666060830184610e3f565b95945050505050565b60006040820190508181036000830152610f898185610e06565b9050610f986020830184610df7565b9392505050565b6000602082019050610fb46000830184610e4e565b92915050565b600081519050919050565b600082825260208201905092915050565b6000610fe182611002565b9050919050565b60008115159050919050565b600061ffff82169050919050565b600073ffffffffffffffffffffffffffffffffffffffff82169050919050565b6000819050919050565b60006110378261103e565b9050919050565b600061104982611050565b9050919050565b600061105b82611002565b9050919050565b60005b83811015611080578082015181840152602081019050611065565b8381111561108f576000848401525b50505050565b6000601f19601f8301169050919050565b6110af81610fd6565b81146110ba57600080fd5b50565b6110c681610fe8565b81146110d157600080fd5b50565b6110dd81611022565b81146110e857600080fd5b5056fe4f776e61626c653a206e6577206f776e657220697320746865207a65726f2061646472657373a26469706673582212203ba9015f4b237a2c353ef708fbd8f7d7b62441ff18ce553de6e8d157f19c0c2764736f6c63430007040033",
  "immutableReferences": {},
  "source": "// SPDX-License-Identifier: MIT\r\npragma solidity ^0.7.0;\r\npragma experimental ABIEncoderV2;\r\n\r\nimport \"interfaces/ILendingPool.sol\";\r\nimport \"interfaces/IProtocolDataProvider.sol\";\r\nimport \"@openzeppelin/contracts/access/Ownable.sol\";\r\n//import \"@openzeppelin/contracts/drafts/ERC20Permit.sol\"; \r\nimport \"@openzeppelin/contracts/token/ERC20/IERC20.sol\";\r\n//import \"@openzeppelin/contracts/token/ERC20/ERC20.sol\";\r\nimport \"@openzeppelin/contracts/math/SafeMath.sol\";\r\nimport \"@openzeppelin/contracts/utils/SafeCast.sol\";\r\n\r\n  /**\r\n   * @title Manages depositing and withdrawing from Aave\r\n   * @notice part of the StakeYourName DApp\r\n   * @author Daniel Chilvers\r\n   **/\r\ncontract InvestmentManager is Ownable {\r\n\r\n    using SafeMath for uint256;\r\n\r\n    //address internal kovanLendingPool = 0x9FE532197ad76c5a68961439604C037EB79681F0;\r\n    //address internal mainLendingPool = 0x7d2768dE32b0b80b7a3454c06BdAc94A69DDc7A9;\r\n    address internal zeroAddress = address(0);\r\n    address internal lendingPooladdress = zeroAddress;\r\n    address internal kovanLendingPoolAddressProviderAddress = 0x88757f2f99175387aB4C6a4b3067c77A695b0349;\r\n    address internal mainLendingPoolAddressProviderAddress = 0xB53C1a33016B2DC2fF3653530bfF1848a515c8c5;\r\n    address internal lendingPoolAddressProviderAddress = zeroAddress;\r\n    address internal ProtocolDataProviderAddress = zeroAddress;\r\n\r\n    uint16 referralCode = 0;\r\n    uint256 constant MAX_INT = type(uint256).max;\r\n    uint256 internal MIN_APPROVAL = type(uint256).max/2;\r\n\r\n    IProtocolDataProvider.TokenData[] public aTokens;\r\n\r\n    ILendingPool lendingPool;\r\n    ILendingPoolAddressesProvider lendingPoolAddressesProvider;\r\n    IProtocolDataProvider protocolDataProvider;\r\n    IERC20 ierc20;\r\n\r\n    constructor(uint _networkID) {\r\n        /// @dev truffle will pass in the networkID when migrated, use this to select the correct addresses\r\n        /// @dev uprgading to ^0.8.0 we could use block.chainid instead\r\n        if (_networkID == 1){\r\n            lendingPoolAddressProviderAddress = mainLendingPoolAddressProviderAddress;\r\n            protocolDataProvider = IProtocolDataProvider(0x057835Ad21a177dbdd3090bB1CAE03EaCF78Fc6d);\r\n        } else if (_networkID == 42){\r\n            lendingPoolAddressProviderAddress = kovanLendingPoolAddressProviderAddress;\r\n            protocolDataProvider = IProtocolDataProvider(0x3c73A5E5785cAC854D468F727c606C07488a29D6);\r\n        } \r\n        lendingPoolAddressesProvider = ILendingPoolAddressesProvider(lendingPoolAddressProviderAddress);\r\n        lendingPooladdress =  lendingPoolAddressesProvider.getLendingPool();\r\n        //protocolDataProvider = IProtocolDataProvider(lendingPoolAddressesProvider.getAddress(bytes32('0x1')));\r\n        lendingPool = ILendingPool(lendingPooladdress);\r\n    }\r\n\r\n    event debug(address _address, uint256 state);\r\n\r\n    /// @notice Approves sending _asset ERC20 tokens to the lendingPool\r\n    /// @param _asset the address of asset contract\r\n    /// @param _userVault the address of the user vault\r\n    /// @dev this needs to be called for each new asset purchased\r\n    function approveLendingPool(address _asset, address _userVault) external {\r\n        IERC20 _erc20 = IERC20(_asset);\r\n        if (_erc20.allowance(_userVault, lendingPooladdress) <= MIN_APPROVAL){\r\n            _erc20.approve(lendingPooladdress, MAX_INT);\r\n        } \r\n    }\r\n\r\n    function getAToken(address _asset) public view returns(address){\r\n        address _aTokenAddress;\r\n        (_aTokenAddress,,) = protocolDataProvider.getReserveTokensAddresses(_asset);\r\n        return _aTokenAddress;\r\n    }\r\n\r\n    function getATokenBalance(address _asset, address _userVault) external view returns(uint256){\r\n        IERC20 _erc20 = IERC20(getAToken(_asset));\r\n        return _erc20.balanceOf(_userVault);\r\n    }\r\n\r\n    /// @dev User must have approved this contract before this is called\r\n    function deposit(address _asset, address _userVault, uint256 _amount) external {\r\n        lendingPool.deposit(_asset, _amount, _userVault, referralCode);\r\n    }\r\n\r\n    function checkAllowance(address _asset) external view returns(uint256){\r\n        IERC20 _erc20 = IERC20(_asset);\r\n        return _erc20.allowance(msg.sender, address(lendingPool));\r\n    }\r\n\r\n    ///@dev put these transfers into require statements\r\n    function withdraw(address _asset, uint256 _amount, address _user) external {\r\n        lendingPool.withdraw(_asset, _amount, _user);\r\n    }\r\n}",
  "sourcePath": "C:/Users/anyth/Documents/GitHub/StakeYourName/contracts/InvestmentManager.sol",
  "compiler": {
    "name": "solc",
    "version": "0.7.4+commit.3f05b770.Emscripten.clang"
  },
  "schemaVersion": "3.3.3",
  "updatedAt": "2021-01-27T09:48:37.068Z",
  "networkType": "ethereum",
  "devdoc": {
    "author": "Daniel Chilvers*",
    "kind": "dev",
    "methods": {
      "approveLendingPool(address,address)": {
        "details": "this needs to be called for each new asset purchased",
        "params": {
          "_asset": "the address of asset contract",
          "_userVault": "the address of the user vault"
        }
      },
      "deposit(address,address,uint256)": {
        "details": "User must have approved this contract before this is called"
      },
      "owner()": {
        "details": "Returns the address of the current owner."
      },
      "renounceOwnership()": {
        "details": "Leaves the contract without owner. It will not be possible to call `onlyOwner` functions anymore. Can only be called by the current owner. NOTE: Renouncing ownership will leave the contract without an owner, thereby removing any functionality that is only available to the owner."
      },
      "transferOwnership(address)": {
        "details": "Transfers ownership of the contract to a new account (`newOwner`). Can only be called by the current owner."
      },
      "withdraw(address,uint256,address)": {
        "details": "put these transfers into require statements"
      }
    },
    "title": "Manages depositing and withdrawing from Aave",
    "version": 1
  },
  "userdoc": {
    "kind": "user",
    "methods": {
      "approveLendingPool(address,address)": {
        "notice": "Approves sending _asset ERC20 tokens to the lendingPool"
      }
    },
    "notice": "part of the StakeYourName DApp",
    "version": 1
  }
}