{
  "contractName": "InvestmentManager",
  "abi": [
    {
      "inputs": [
        {
          "internalType": "uint256",
          "name": "_networkID",
          "type": "uint256"
        }
      ],
      "stateMutability": "nonpayable",
      "type": "constructor"
    },
    {
      "anonymous": false,
      "inputs": [
        {
          "indexed": true,
          "internalType": "address",
          "name": "previousOwner",
          "type": "address"
        },
        {
          "indexed": true,
          "internalType": "address",
          "name": "newOwner",
          "type": "address"
        }
      ],
      "name": "OwnershipTransferred",
      "type": "event"
    },
    {
      "anonymous": false,
      "inputs": [
        {
          "indexed": false,
          "internalType": "address",
          "name": "_address",
          "type": "address"
        },
        {
          "indexed": false,
          "internalType": "uint256",
          "name": "state",
          "type": "uint256"
        }
      ],
      "name": "debug",
      "type": "event"
    },
    {
      "inputs": [
        {
          "internalType": "uint256",
          "name": "",
          "type": "uint256"
        }
      ],
      "name": "aTokens",
      "outputs": [
        {
          "internalType": "string",
          "name": "symbol",
          "type": "string"
        },
        {
          "internalType": "address",
          "name": "tokenAddress",
          "type": "address"
        }
      ],
      "stateMutability": "view",
      "type": "function",
      "constant": true
    },
    {
      "inputs": [],
      "name": "owner",
      "outputs": [
        {
          "internalType": "address",
          "name": "",
          "type": "address"
        }
      ],
      "stateMutability": "view",
      "type": "function",
      "constant": true
    },
    {
      "inputs": [],
      "name": "renounceOwnership",
      "outputs": [],
      "stateMutability": "nonpayable",
      "type": "function"
    },
    {
      "inputs": [
        {
          "internalType": "address",
          "name": "newOwner",
          "type": "address"
        }
      ],
      "name": "transferOwnership",
      "outputs": [],
      "stateMutability": "nonpayable",
      "type": "function"
    },
    {
      "inputs": [
        {
          "internalType": "address",
          "name": "_asset",
          "type": "address"
        },
        {
          "internalType": "uint256",
          "name": "_amount",
          "type": "uint256"
        }
      ],
      "name": "approveLendingPool",
      "outputs": [],
      "stateMutability": "nonpayable",
      "type": "function"
    },
    {
      "inputs": [
        {
          "internalType": "address",
          "name": "_reserve",
          "type": "address"
        },
        {
          "internalType": "uint256",
          "name": "_amount",
          "type": "uint256"
        }
      ],
      "name": "depositTest",
      "outputs": [],
      "stateMutability": "nonpayable",
      "type": "function"
    },
    {
      "inputs": [
        {
          "internalType": "address",
          "name": "_reserve",
          "type": "address"
        },
        {
          "internalType": "uint256",
          "name": "_amount",
          "type": "uint256"
        }
      ],
      "name": "withdrawTest",
      "outputs": [],
      "stateMutability": "nonpayable",
      "type": "function"
    },
    {
      "inputs": [
        {
          "internalType": "uint128",
          "name": "_amount",
          "type": "uint128"
        },
        {
          "internalType": "address",
          "name": "_asset",
          "type": "address"
        }
      ],
      "name": "approveDeposit",
      "outputs": [
        {
          "internalType": "bool",
          "name": "",
          "type": "bool"
        }
      ],
      "stateMutability": "nonpayable",
      "type": "function"
    },
    {
      "inputs": [
        {
          "internalType": "address",
          "name": "_reserve",
          "type": "address"
        },
        {
          "internalType": "uint128",
          "name": "_amount",
          "type": "uint128"
        }
      ],
      "name": "deposit",
      "outputs": [],
      "stateMutability": "nonpayable",
      "type": "function"
    },
    {
      "inputs": [
        {
          "internalType": "uint128",
          "name": "_amount",
          "type": "uint128"
        },
        {
          "internalType": "address",
          "name": "_asset",
          "type": "address"
        }
      ],
      "name": "approveWithdraw",
      "outputs": [
        {
          "internalType": "bool",
          "name": "",
          "type": "bool"
        }
      ],
      "stateMutability": "nonpayable",
      "type": "function"
    },
    {
      "inputs": [
        {
          "internalType": "address",
          "name": "_reserve",
          "type": "address"
        },
        {
          "internalType": "uint128",
          "name": "_amount",
          "type": "uint128"
        }
      ],
      "name": "withdraw",
      "outputs": [],
      "stateMutability": "nonpayable",
      "type": "function"
    },
    {
      "inputs": [],
      "name": "withdrawAll",
      "outputs": [],
      "stateMutability": "nonpayable",
      "type": "function"
    },
    {
      "inputs": [
        {
          "internalType": "uint16",
          "name": "_code",
          "type": "uint16"
        }
      ],
      "name": "updateReferalCode",
      "outputs": [],
      "stateMutability": "nonpayable",
      "type": "function"
    },
    {
      "inputs": [],
      "name": "checkLendingPoolAddress",
      "outputs": [
        {
          "internalType": "address",
          "name": "",
          "type": "address"
        }
      ],
      "stateMutability": "view",
      "type": "function",
      "constant": true
    },
    {
      "inputs": [],
      "name": "checkLendingPoolAddressProviderAddress",
      "outputs": [
        {
          "internalType": "address",
          "name": "",
          "type": "address"
        }
      ],
      "stateMutability": "view",
      "type": "function",
      "constant": true
    },
    {
      "inputs": [],
      "name": "updateLendingPoolAddress",
      "outputs": [
        {
          "internalType": "address",
          "name": "",
          "type": "address"
        }
      ],
      "stateMutability": "nonpayable",
      "type": "function"
    }
  ],
  "bytecode": "0x608060405261dead600160006101000a81548173ffffffffffffffffffffffffffffffffffffffff021916908373ffffffffffffffffffffffffffffffffffffffff160217905550600160009054906101000a900473ffffffffffffffffffffffffffffffffffffffff16600260006101000a81548173ffffffffffffffffffffffffffffffffffffffff021916908373ffffffffffffffffffffffffffffffffffffffff1602179055507388757f2f99175387ab4c6a4b3067c77a695b0349600360006101000a81548173ffffffffffffffffffffffffffffffffffffffff021916908373ffffffffffffffffffffffffffffffffffffffff16021790555073b53c1a33016b2dc2ff3653530bff1848a515c8c5600460006101000a81548173ffffffffffffffffffffffffffffffffffffffff021916908373ffffffffffffffffffffffffffffffffffffffff160217905550600160009054906101000a900473ffffffffffffffffffffffffffffffffffffffff16600560006101000a81548173ffffffffffffffffffffffffffffffffffffffff021916908373ffffffffffffffffffffffffffffffffffffffff160217905550600160009054906101000a900473ffffffffffffffffffffffffffffffffffffffff16600660006101000a81548173ffffffffffffffffffffffffffffffffffffffff021916908373ffffffffffffffffffffffffffffffffffffffff160217905550736b175474e89094c44da98b954eedeac495271d0f600760006101000a81548173ffffffffffffffffffffffffffffffffffffffff021916908373ffffffffffffffffffffffffffffffffffffffff16021790555073a0b86991c6218b36c1d19d4a2e9eb0ce3606eb48600860006101000a81548173ffffffffffffffffffffffffffffffffffffffff021916908373ffffffffffffffffffffffffffffffffffffffff1602179055506000600860146101000a81548161ffff021916908361ffff160217905550348015620002ef57600080fd5b50604051620034a0380380620034a08339818101604052810190620003159190620007cb565b6000620003276200076960201b60201c565b9050806000806101000a81548173ffffffffffffffffffffffffffffffffffffffff021916908373ffffffffffffffffffffffffffffffffffffffff1602179055508073ffffffffffffffffffffffffffffffffffffffff16600073ffffffffffffffffffffffffffffffffffffffff167f8be0079c531659141344cd1fd0a4f28419497f9722a3daafe3b4186f6b6457e060405160405180910390a35060018114156200043857600460009054906101000a900473ffffffffffffffffffffffffffffffffffffffff16600560006101000a81548173ffffffffffffffffffffffffffffffffffffffff021916908373ffffffffffffffffffffffffffffffffffffffff160217905550620004a7565b602a811415620004a657600360009054906101000a900473ffffffffffffffffffffffffffffffffffffffff16600560006101000a81548173ffffffffffffffffffffffffffffffffffffffff021916908373ffffffffffffffffffffffffffffffffffffffff1602179055505b5b600560009054906101000a900473ffffffffffffffffffffffffffffffffffffffff16600c60006101000a81548173ffffffffffffffffffffffffffffffffffffffff021916908373ffffffffffffffffffffffffffffffffffffffff160217905550600c60009054906101000a900473ffffffffffffffffffffffffffffffffffffffff1673ffffffffffffffffffffffffffffffffffffffff16630261bf8b6040518163ffffffff1660e01b815260040160206040518083038186803b1580156200057357600080fd5b505afa15801562000588573d6000803e3d6000fd5b505050506040513d601f19601f82011682018060405250810190620005ae91906200079f565b600260006101000a81548173ffffffffffffffffffffffffffffffffffffffff021916908373ffffffffffffffffffffffffffffffffffffffff160217905550600c60009054906101000a900473ffffffffffffffffffffffffffffffffffffffff1673ffffffffffffffffffffffffffffffffffffffff166321f8a7217f30783100000000000000000000000000000000000000000000000000000000006040518263ffffffff1660e01b81526004016200066b919062000808565b60206040518083038186803b1580156200068457600080fd5b505afa15801562000699573d6000803e3d6000fd5b505050506040513d601f19601f82011682018060405250810190620006bf91906200079f565b600d60006101000a81548173ffffffffffffffffffffffffffffffffffffffff021916908373ffffffffffffffffffffffffffffffffffffffff160217905550600260009054906101000a900473ffffffffffffffffffffffffffffffffffffffff16600b60006101000a81548173ffffffffffffffffffffffffffffffffffffffff021916908373ffffffffffffffffffffffffffffffffffffffff16021790555050620008a1565b600033905090565b60008151905062000782816200086d565b92915050565b600081519050620007998162000887565b92915050565b600060208284031215620007b257600080fd5b6000620007c28482850162000771565b91505092915050565b600060208284031215620007de57600080fd5b6000620007ee8482850162000788565b91505092915050565b620008028162000839565b82525050565b60006020820190506200081f6000830184620007f7565b92915050565b6000620008328262000843565b9050919050565b6000819050919050565b600073ffffffffffffffffffffffffffffffffffffffff82169050919050565b6000819050919050565b620008788162000825565b81146200088457600080fd5b50565b620008928162000863565b81146200089e57600080fd5b50565b612bef80620008b16000396000f3fe608060405234801561001057600080fd5b50600436106101005760003560e01c8063853828b611610097578063aaf298a411610066578063aaf298a414610272578063b3fb656414610290578063d15c89e8146102ac578063f2fde38b146102ca57610100565b8063853828b6146101fe578063888c6867146102085780638da5cb5b14610224578063a01c474f1461024257610100565b80631f880751116100d35780631f8807511461018b578063324e4b57146101a75780636c0de446146101d8578063715018a6146101f457610100565b806308fab1671461010557806310af51911461012157806317cad7241461013d57806319f999ad1461015b575b600080fd5b61011f600480360381019061011a9190612407565b6102e6565b005b61013b600480360381019061013691906124e4565b6105a9565b005b610145610691565b604051610152919061265b565b60405180910390f35b610175600480360381019061017091906124a8565b610922565b6040516101829190612916565b60405180910390f35b6101a560048036038101906101a09190612443565b610e27565b005b6101c160048036038101906101bc919061250d565b610fc1565b6040516101cf929190612931565b60405180910390f35b6101f260048036038101906101ed9190612443565b6110ad565b005b6101fc611163565b005b6102066112e9565b005b610222600480360381019061021d9190612443565b6113f1565b005b61022c61150c565b604051610239919061265b565b60405180910390f35b61025c600480360381019061025791906124a8565b611535565b6040516102699190612916565b60405180910390f35b61027a611ac1565b604051610287919061265b565b60405180910390f35b6102aa60048036038101906102a59190612407565b611aeb565b005b6102b4611dff565b6040516102c1919061265b565b60405180910390f35b6102e460048036038101906102df9190612366565b611e29565b005b60008060005b600960003373ffffffffffffffffffffffffffffffffffffffff1673ffffffffffffffffffffffffffffffffffffffff1681526020019081526020016000206000018054905081116103f8578473ffffffffffffffffffffffffffffffffffffffff16600960003373ffffffffffffffffffffffffffffffffffffffff1673ffffffffffffffffffffffffffffffffffffffff168152602001908152602001600020600001828154811061039c57fe5b9060005260206000200160009054906101000a900473ffffffffffffffffffffffffffffffffffffffff1673ffffffffffffffffffffffffffffffffffffffff1614156103eb57809250600191505b80806001019150506102ec565b50600180156104a95750826fffffffffffffffffffffffffffffffff16600960003373ffffffffffffffffffffffffffffffffffffffff1673ffffffffffffffffffffffffffffffffffffffff168152602001908152602001600020600101838154811061046257fe5b90600052602060002090600291828204019190066010029054906101000a90046fffffffffffffffffffffffffffffffff166fffffffffffffffffffffffffffffffff1610155b9050801561056857600b60009054906101000a900473ffffffffffffffffffffffffffffffffffffffff1673ffffffffffffffffffffffffffffffffffffffff166369328dec8585336040518463ffffffff1660e01b8152600401610510939291906127f5565b602060405180830381600087803b15801561052a57600080fd5b505af115801561053e573d6000803e3d6000fd5b505050506040513d601f19601f820116820180604052508101906105629190612536565b506105a3565b7f5e425538c7e29a3d46eeeb3adb5e33e85e1548fb34404f88df642c95e2e0f9b733600660405161059a92919061277a565b60405180910390a15b50505050565b6105b1612034565b73ffffffffffffffffffffffffffffffffffffffff1660008054906101000a900473ffffffffffffffffffffffffffffffffffffffff1673ffffffffffffffffffffffffffffffffffffffff1614610671576040517f08c379a00000000000000000000000000000000000000000000000000000000081526004018080602001828103825260208152602001807f4f776e61626c653a2063616c6c6572206973206e6f7420746865206f776e657281525060200191505060405180910390fd5b80600860146101000a81548161ffff021916908361ffff16021790555050565b600061069b612034565b73ffffffffffffffffffffffffffffffffffffffff1660008054906101000a900473ffffffffffffffffffffffffffffffffffffffff1673ffffffffffffffffffffffffffffffffffffffff161461075b576040517f08c379a00000000000000000000000000000000000000000000000000000000081526004018080602001828103825260208152602001807f4f776e61626c653a2063616c6c6572206973206e6f7420746865206f776e657281525060200191505060405180910390fd5b600c60009054906101000a900473ffffffffffffffffffffffffffffffffffffffff1673ffffffffffffffffffffffffffffffffffffffff16630261bf8b6040518163ffffffff1660e01b815260040160206040518083038186803b1580156107c357600080fd5b505afa1580156107d7573d6000803e3d6000fd5b505050506040513d601f19601f820116820180604052508101906107fb919061238f565b600260006101000a81548173ffffffffffffffffffffffffffffffffffffffff021916908373ffffffffffffffffffffffffffffffffffffffff160217905550600260009054906101000a900473ffffffffffffffffffffffffffffffffffffffff16600b60006101000a81548173ffffffffffffffffffffffffffffffffffffffff021916908373ffffffffffffffffffffffffffffffffffffffff1602179055507f5e425538c7e29a3d46eeeb3adb5e33e85e1548fb34404f88df642c95e2e0f9b7600260009054906101000a900473ffffffffffffffffffffffffffffffffffffffff16600a6040516108f29291906127cc565b60405180910390a1600260009054906101000a900473ffffffffffffffffffffffffffffffffffffffff16905090565b60008060009050600080600d60009054906101000a900473ffffffffffffffffffffffffffffffffffffffff1673ffffffffffffffffffffffffffffffffffffffff1663d2493b6c866040518263ffffffff1660e01b8152600401610987919061265b565b60606040518083038186803b15801561099f57600080fd5b505afa1580156109b3573d6000803e3d6000fd5b505050506040513d601f19601f820116820180604052508101906109d791906123b8565b9050508091505080600e60006101000a81548173ffffffffffffffffffffffffffffffffffffffff021916908373ffffffffffffffffffffffffffffffffffffffff16021790555060005b600960003373ffffffffffffffffffffffffffffffffffffffff1673ffffffffffffffffffffffffffffffffffffffff168152602001908152602001600020600001805490508111610b78578573ffffffffffffffffffffffffffffffffffffffff16600960003373ffffffffffffffffffffffffffffffffffffffff1673ffffffffffffffffffffffffffffffffffffffff1681526020019081526020016000206000018281548110610ad257fe5b9060005260206000200160009054906101000a900473ffffffffffffffffffffffffffffffffffffffff1673ffffffffffffffffffffffffffffffffffffffff161415610b2157809350610b6b565b7f5e425538c7e29a3d46eeeb3adb5e33e85e1548fb34404f88df642c95e2e0f9b7336004604051610b53929190612728565b60405180910390a16000925082945050505050610e21565b8080600101915050610a22565b5084600960003373ffffffffffffffffffffffffffffffffffffffff1673ffffffffffffffffffffffffffffffffffffffff1681526020019081526020016000206000018481548110610bc757fe5b9060005260206000200160006101000a81548173ffffffffffffffffffffffffffffffffffffffff021916908373ffffffffffffffffffffffffffffffffffffffff160217905550610c97600960003373ffffffffffffffffffffffffffffffffffffffff1673ffffffffffffffffffffffffffffffffffffffff1681526020019081526020016000206002018481548110610c5f57fe5b90600052602060002090600291828204019190066010029054906101000a90046fffffffffffffffffffffffffffffffff168761203c565b600960003373ffffffffffffffffffffffffffffffffffffffff1673ffffffffffffffffffffffffffffffffffffffff1681526020019081526020016000206002018481548110610ce457fe5b90600052602060002090600291828204019190066010026101000a8154816fffffffffffffffffffffffffffffffff02191690836fffffffffffffffffffffffffffffffff160217905550600e60009054906101000a900473ffffffffffffffffffffffffffffffffffffffff1673ffffffffffffffffffffffffffffffffffffffff1663095ea7b333886040518363ffffffff1660e01b8152600401610d8c9291906127a3565b602060405180830381600087803b158015610da657600080fd5b505af1158015610dba573d6000803e3d6000fd5b505050506040513d601f19601f82011682018060405250810190610dde919061247f565b91507f5e425538c7e29a3d46eeeb3adb5e33e85e1548fb34404f88df642c95e2e0f9b7336005604051610e12929190612751565b60405180910390a18193505050505b92915050565b81600e60006101000a81548173ffffffffffffffffffffffffffffffffffffffff021916908373ffffffffffffffffffffffffffffffffffffffff160217905550600e60009054906101000a900473ffffffffffffffffffffffffffffffffffffffff1673ffffffffffffffffffffffffffffffffffffffff166323b872dd3330846040518463ffffffff1660e01b8152600401610ec793929190612676565b602060405180830381600087803b158015610ee157600080fd5b505af1158015610ef5573d6000803e3d6000fd5b505050506040513d601f19601f82011682018060405250810190610f19919061247f565b50600b60009054906101000a900473ffffffffffffffffffffffffffffffffffffffff1673ffffffffffffffffffffffffffffffffffffffff1663e8eda9df838330600860149054906101000a900461ffff166040518563ffffffff1660e01b8152600401610f8b94939291906128d1565b600060405180830381600087803b158015610fa557600080fd5b505af1158015610fb9573d6000803e3d6000fd5b505050505050565b600a8181548110610fd157600080fd5b9060005260206000209060020201600091509050806000018054600181600116156101000203166002900480601f01602080910402602001604051908101604052809291908181526020018280546001816001161561010002031660029004801561107d5780601f106110525761010080835404028352916020019161107d565b820191906000526020600020905b81548152906001019060200180831161106057829003601f168201915b5050505050908060010160009054906101000a900473ffffffffffffffffffffffffffffffffffffffff16905082565b600b60009054906101000a900473ffffffffffffffffffffffffffffffffffffffff1673ffffffffffffffffffffffffffffffffffffffff166369328dec8383336040518463ffffffff1660e01b815260040161110c9392919061289a565b602060405180830381600087803b15801561112657600080fd5b505af115801561113a573d6000803e3d6000fd5b505050506040513d601f19601f8201168201806040525081019061115e9190612536565b505050565b61116b612034565b73ffffffffffffffffffffffffffffffffffffffff1660008054906101000a900473ffffffffffffffffffffffffffffffffffffffff1673ffffffffffffffffffffffffffffffffffffffff161461122b576040517f08c379a00000000000000000000000000000000000000000000000000000000081526004018080602001828103825260208152602001807f4f776e61626c653a2063616c6c6572206973206e6f7420746865206f776e657281525060200191505060405180910390fd5b600073ffffffffffffffffffffffffffffffffffffffff1660008054906101000a900473ffffffffffffffffffffffffffffffffffffffff1673ffffffffffffffffffffffffffffffffffffffff167f8be0079c531659141344cd1fd0a4f28419497f9722a3daafe3b4186f6b6457e060405160405180910390a360008060006101000a81548173ffffffffffffffffffffffffffffffffffffffff021916908373ffffffffffffffffffffffffffffffffffffffff160217905550565b6112f1612034565b73ffffffffffffffffffffffffffffffffffffffff1660008054906101000a900473ffffffffffffffffffffffffffffffffffffffff1673ffffffffffffffffffffffffffffffffffffffff16146113b1576040517f08c379a00000000000000000000000000000000000000000000000000000000081526004018080602001828103825260208152602001807f4f776e61626c653a2063616c6c6572206973206e6f7420746865206f776e657281525060200191505060405180910390fd5b3373ffffffffffffffffffffffffffffffffffffffff166108fc479081150290604051600060405180830381858888f193505050506113ef57600080fd5b565b600082600e60006101000a81548173ffffffffffffffffffffffffffffffffffffffff021916908373ffffffffffffffffffffffffffffffffffffffff160217905550600e60009054906101000a900473ffffffffffffffffffffffffffffffffffffffff1673ffffffffffffffffffffffffffffffffffffffff1663095ea7b3600260009054906101000a900473ffffffffffffffffffffffffffffffffffffffff16846040518363ffffffff1660e01b81526004016114b3929190612871565b602060405180830381600087803b1580156114cd57600080fd5b505af11580156114e1573d6000803e3d6000fd5b505050506040513d601f19601f82011682018060405250810190611505919061247f565b9050505050565b60008060009054906101000a900473ffffffffffffffffffffffffffffffffffffffff16905090565b60008060009050600083600e60006101000a81548173ffffffffffffffffffffffffffffffffffffffff021916908373ffffffffffffffffffffffffffffffffffffffff16021790555060005b600960003373ffffffffffffffffffffffffffffffffffffffff1673ffffffffffffffffffffffffffffffffffffffff168152602001908152602001600020600001805490508111611817578473ffffffffffffffffffffffffffffffffffffffff16600960003373ffffffffffffffffffffffffffffffffffffffff1673ffffffffffffffffffffffffffffffffffffffff168152602001908152602001600020600001828154811061163257fe5b9060005260206000200160009054906101000a900473ffffffffffffffffffffffffffffffffffffffff1673ffffffffffffffffffffffffffffffffffffffff1614156116815780925061180a565b600960003373ffffffffffffffffffffffffffffffffffffffff1673ffffffffffffffffffffffffffffffffffffffff168152602001908152602001600020600001600181600181540180825580915050039060005260206000200160009054906101000a905050600960003373ffffffffffffffffffffffffffffffffffffffff1673ffffffffffffffffffffffffffffffffffffffff1681526020019081526020016000206001016001816001815401808255809150500390600052602060002090600291828204019190066010029054906101000a905050600960003373ffffffffffffffffffffffffffffffffffffffff1673ffffffffffffffffffffffffffffffffffffffff1681526020019081526020016000206002016001816001815401808255809150500390600052602060002090600291828204019190066010029054906101000a9050507f5e425538c7e29a3d46eeeb3adb5e33e85e1548fb34404f88df642c95e2e0f9b73360026040516118019291906126d6565b60405180910390a15b8080600101915050611582565b50600e60009054906101000a900473ffffffffffffffffffffffffffffffffffffffff1673ffffffffffffffffffffffffffffffffffffffff1663095ea7b333876040518363ffffffff1660e01b81526004016118759291906127a3565b602060405180830381600087803b15801561188f57600080fd5b505af11580156118a3573d6000803e3d6000fd5b505050506040513d601f19601f820116820180604052508101906118c7919061247f565b905083600960003373ffffffffffffffffffffffffffffffffffffffff1673ffffffffffffffffffffffffffffffffffffffff168152602001908152602001600020600001838154811061191757fe5b9060005260206000200160006101000a81548173ffffffffffffffffffffffffffffffffffffffff021916908373ffffffffffffffffffffffffffffffffffffffff1602179055506119e7600960003373ffffffffffffffffffffffffffffffffffffffff1673ffffffffffffffffffffffffffffffffffffffff16815260200190815260200160002060020183815481106119af57fe5b90600052602060002090600291828204019190066010029054906101000a90046fffffffffffffffffffffffffffffffff1686612085565b600960003373ffffffffffffffffffffffffffffffffffffffff1673ffffffffffffffffffffffffffffffffffffffff1681526020019081526020016000206002018381548110611a3457fe5b90600052602060002090600291828204019190066010026101000a8154816fffffffffffffffffffffffffffffffff02191690836fffffffffffffffffffffffffffffffff1602179055507f5e425538c7e29a3d46eeeb3adb5e33e85e1548fb34404f88df642c95e2e0f9b7336003604051611ab19291906126ff565b60405180910390a1505092915050565b6000600260009054906101000a900473ffffffffffffffffffffffffffffffffffffffff16905090565b6000805b600960003373ffffffffffffffffffffffffffffffffffffffff1673ffffffffffffffffffffffffffffffffffffffff168152602001908152602001600020600001805490508111611df9578373ffffffffffffffffffffffffffffffffffffffff16600960003373ffffffffffffffffffffffffffffffffffffffff1673ffffffffffffffffffffffffffffffffffffffff1681526020019081526020016000206000018281548110611b9f57fe5b9060005260206000200160009054906101000a900473ffffffffffffffffffffffffffffffffffffffff1673ffffffffffffffffffffffffffffffffffffffff161415611bee57809150611c29565b7f5e425538c7e29a3d46eeeb3adb5e33e85e1548fb34404f88df642c95e2e0f9b7336001604051611c209291906126ad565b60405180910390a15b600b60009054906101000a900473ffffffffffffffffffffffffffffffffffffffff1673ffffffffffffffffffffffffffffffffffffffff1663e8eda9df858530600860149054906101000a900461ffff166040518563ffffffff1660e01b8152600401611c9a949392919061282c565b600060405180830381600087803b158015611cb457600080fd5b505af1158015611cc8573d6000803e3d6000fd5b50505050611d54600960003373ffffffffffffffffffffffffffffffffffffffff1673ffffffffffffffffffffffffffffffffffffffff1681526020019081526020016000206001018381548110611d1c57fe5b90600052602060002090600291828204019190066010029054906101000a90046fffffffffffffffffffffffffffffffff1684612085565b600960003373ffffffffffffffffffffffffffffffffffffffff1673ffffffffffffffffffffffffffffffffffffffff1681526020019081526020016000206001018381548110611da157fe5b90600052602060002090600291828204019190066010026101000a8154816fffffffffffffffffffffffffffffffff02191690836fffffffffffffffffffffffffffffffff1602179055508080600101915050611aef565b50505050565b6000600560009054906101000a900473ffffffffffffffffffffffffffffffffffffffff16905090565b611e31612034565b73ffffffffffffffffffffffffffffffffffffffff1660008054906101000a900473ffffffffffffffffffffffffffffffffffffffff1673ffffffffffffffffffffffffffffffffffffffff1614611ef1576040517f08c379a00000000000000000000000000000000000000000000000000000000081526004018080602001828103825260208152602001807f4f776e61626c653a2063616c6c6572206973206e6f7420746865206f776e657281525060200191505060405180910390fd5b600073ffffffffffffffffffffffffffffffffffffffff168173ffffffffffffffffffffffffffffffffffffffff161415611f77576040517f08c379a0000000000000000000000000000000000000000000000000000000008152600401808060200182810382526026815260200180612b6d6026913960400191505060405180910390fd5b8073ffffffffffffffffffffffffffffffffffffffff1660008054906101000a900473ffffffffffffffffffffffffffffffffffffffff1673ffffffffffffffffffffffffffffffffffffffff167f8be0079c531659141344cd1fd0a4f28419497f9722a3daafe3b4186f6b6457e060405160405180910390a3806000806101000a81548173ffffffffffffffffffffffffffffffffffffffff021916908373ffffffffffffffffffffffffffffffffffffffff16021790555050565b600033905090565b600061207d612078836fffffffffffffffffffffffffffffffff16856fffffffffffffffffffffffffffffffff166120ce90919063ffffffff16565b612118565b905092915050565b60006120c66120c1836fffffffffffffffffffffffffffffffff16856fffffffffffffffffffffffffffffffff1661218b90919063ffffffff16565b612118565b905092915050565b600061211083836040518060400160405280601e81526020017f536166654d6174683a207375627472616374696f6e206f766572666c6f770000815250612213565b905092915050565b60007001000000000000000000000000000000008210612183576040517f08c379a0000000000000000000000000000000000000000000000000000000008152600401808060200182810382526027815260200180612b936027913960400191505060405180910390fd5b819050919050565b600080828401905083811015612209576040517f08c379a000000000000000000000000000000000000000000000000000000000815260040180806020018281038252601b8152602001807f536166654d6174683a206164646974696f6e206f766572666c6f77000000000081525060200191505060405180910390fd5b8091505092915050565b60008383111582906122c0576040517f08c379a00000000000000000000000000000000000000000000000000000000081526004018080602001828103825283818151815260200191508051906020019080838360005b8381101561228557808201518184015260208101905061226a565b50505050905090810190601f1680156122b25780820380516001836020036101000a031916815260200191505b509250505060405180910390fd5b5060008385039050809150509392505050565b6000813590506122e281612af9565b92915050565b6000815190506122f781612af9565b92915050565b60008151905061230c81612b10565b92915050565b60008135905061232181612b27565b92915050565b60008135905061233681612b3e565b92915050565b60008135905061234b81612b55565b92915050565b60008151905061236081612b55565b92915050565b60006020828403121561237857600080fd5b6000612386848285016122d3565b91505092915050565b6000602082840312156123a157600080fd5b60006123af848285016122e8565b91505092915050565b6000806000606084860312156123cd57600080fd5b60006123db868287016122e8565b93505060206123ec868287016122e8565b92505060406123fd868287016122e8565b9150509250925092565b6000806040838503121561241a57600080fd5b6000612428858286016122d3565b925050602061243985828601612312565b9150509250929050565b6000806040838503121561245657600080fd5b6000612464858286016122d3565b92505060206124758582860161233c565b9150509250929050565b60006020828403121561249157600080fd5b600061249f848285016122fd565b91505092915050565b600080604083850312156124bb57600080fd5b60006124c985828601612312565b92505060206124da858286016122d3565b9150509250929050565b6000602082840312156124f657600080fd5b600061250484828501612327565b91505092915050565b60006020828403121561251f57600080fd5b600061252d8482850161233c565b91505092915050565b60006020828403121561254857600080fd5b600061255684828501612351565b91505092915050565b612568816129ef565b82525050565b6125778161297d565b82525050565b6125868161298f565b82525050565b61259581612a01565b82525050565b6125a481612a13565b82525050565b6125b381612a25565b82525050565b6125c281612a37565b82525050565b6125d181612a49565b82525050565b6125e081612a5b565b82525050565b6125ef81612a6d565b82525050565b600061260082612961565b61260a818561296c565b935061261a818560208601612ab5565b61262381612ae8565b840191505092915050565b61263781612a7f565b82525050565b612646816129b7565b82525050565b612655816129e5565b82525050565b6000602082019050612670600083018461256e565b92915050565b600060608201905061268b600083018661255f565b612698602083018561256e565b6126a5604083018461264c565b949350505050565b60006040820190506126c2600083018561255f565b6126cf602083018461259b565b9392505050565b60006040820190506126eb600083018561255f565b6126f860208301846125aa565b9392505050565b6000604082019050612714600083018561255f565b61272160208301846125b9565b9392505050565b600060408201905061273d600083018561255f565b61274a60208301846125c8565b9392505050565b6000604082019050612766600083018561255f565b61277360208301846125d7565b9392505050565b600060408201905061278f600083018561255f565b61279c60208301846125e6565b9392505050565b60006040820190506127b8600083018561255f565b6127c5602083018461262e565b9392505050565b60006040820190506127e1600083018561256e565b6127ee602083018461258c565b9392505050565b600060608201905061280a600083018661256e565b612817602083018561262e565b612824604083018461255f565b949350505050565b6000608082019050612841600083018761256e565b61284e602083018661262e565b61285b604083018561256e565b612868606083018461263d565b95945050505050565b6000604082019050612886600083018561256e565b612893602083018461264c565b9392505050565b60006060820190506128af600083018661256e565b6128bc602083018561264c565b6128c9604083018461255f565b949350505050565b60006080820190506128e6600083018761256e565b6128f3602083018661264c565b612900604083018561256e565b61290d606083018461263d565b95945050505050565b600060208201905061292b600083018461257d565b92915050565b6000604082019050818103600083015261294b81856125f5565b905061295a602083018461256e565b9392505050565b600081519050919050565b600082825260208201905092915050565b6000612988826129c5565b9050919050565b60008115159050919050565b60006fffffffffffffffffffffffffffffffff82169050919050565b600061ffff82169050919050565b600073ffffffffffffffffffffffffffffffffffffffff82169050919050565b6000819050919050565b60006129fa82612a91565b9050919050565b6000612a0c826129e5565b9050919050565b6000612a1e826129e5565b9050919050565b6000612a30826129e5565b9050919050565b6000612a42826129e5565b9050919050565b6000612a54826129e5565b9050919050565b6000612a66826129e5565b9050919050565b6000612a78826129e5565b9050919050565b6000612a8a8261299b565b9050919050565b6000612a9c82612aa3565b9050919050565b6000612aae826129c5565b9050919050565b60005b83811015612ad3578082015181840152602081019050612ab8565b83811115612ae2576000848401525b50505050565b6000601f19601f8301169050919050565b612b028161297d565b8114612b0d57600080fd5b50565b612b198161298f565b8114612b2457600080fd5b50565b612b308161299b565b8114612b3b57600080fd5b50565b612b47816129b7565b8114612b5257600080fd5b50565b612b5e816129e5565b8114612b6957600080fd5b5056fe4f776e61626c653a206e6577206f776e657220697320746865207a65726f206164647265737353616665436173743a2076616c756520646f65736e27742066697420696e203132382062697473a2646970667358221220a13a1242933828dcb1bcf868c46eaaaf4937c912dcfda07a5b70f4389838916864736f6c63430007040033",
  "immutableReferences": {},
  "source": "// SPDX-License-Identifier: MIT\r\npragma solidity ^0.7.0;\r\npragma experimental ABIEncoderV2;\r\n\r\nimport \"interfaces/ILendingPool.sol\";\r\nimport \"interfaces/IProtocolDataProvider.sol\";\r\nimport \"@openzeppelin/contracts/access/Ownable.sol\";\r\n//import \"@openzeppelin/contracts/drafts/ERC20Permit.sol\"; \r\nimport \"@openzeppelin/contracts/token/ERC20/IERC20.sol\";\r\n//import \"@openzeppelin/contracts/token/ERC20/ERC20.sol\";\r\nimport \"@openzeppelin/contracts/math/SafeMath.sol\";\r\nimport \"@openzeppelin/contracts/utils/SafeCast.sol\";\r\n\r\n  /**\r\n   * @title Manages depositing and withdrawing from Aave\r\n   * @notice part of the StakeYourName DApp\r\n   * @author Daniel Chilvers\r\n   **/\r\ncontract InvestmentManager is Ownable {\r\n\r\n    using SafeMath for uint256;\r\n\r\n    //address internal kovanLendingPool = 0x9FE532197ad76c5a68961439604C037EB79681F0;\r\n    //address internal mainLendingPool = 0x7d2768dE32b0b80b7a3454c06BdAc94A69DDc7A9;\r\n    address internal deadAddress = 0x000000000000000000000000000000000000dEaD;\r\n    address internal lendingPooladdress = deadAddress;\r\n    address internal kovanLendingPoolAddressProviderAddress = 0x88757f2f99175387aB4C6a4b3067c77A695b0349;\r\n    address internal mainLendingPoolAddressProviderAddress = 0xB53C1a33016B2DC2fF3653530bfF1848a515c8c5;\r\n    address internal lendingPoolAddressProviderAddress = deadAddress;\r\n    address internal ProtocolDataProviderAddress = deadAddress;\r\n\r\n    /// @dev addresses saved here for testing, in final version the\r\n    /// @dev addresses will be passed in from the front end.\r\n    address internal DAIContract = 0x6B175474E89094C44Da98b954EedeAC495271d0F;\r\n    address internal USDCContract = 0xA0b86991c6218b36c1d19D4a2e9Eb0cE3606eB48;\r\n\r\n    uint16 referralCode = 0;\r\n\r\n    /// @dev TO;DO change to saving the asset symbol instead \r\n    /// @dev then this will be packed and we save gas\r\n    struct User {\r\n        address[] asset;\r\n        uint128[] balance;\r\n        uint128[] allowance;\r\n        bool locked;\r\n    }\r\n\r\n    /// @dev map user addresses to our struct above\r\n    mapping (address => User) Users;\r\n\r\n    IProtocolDataProvider.TokenData[] public aTokens;\r\n\r\n    ILendingPool lendingPool;\r\n    ILendingPoolAddressesProvider lendingPoolAddressesProvider;\r\n    IProtocolDataProvider protocolDataProvider;\r\n    IERC20 ierc20;\r\n\r\n    constructor(uint _networkID) {\r\n        /// @dev truffle will pass in the networkID when migrated, use this to select the correct address\r\n        if (_networkID == 1){\r\n            lendingPoolAddressProviderAddress = mainLendingPoolAddressProviderAddress;\r\n        } else if (_networkID == 42){\r\n            lendingPoolAddressProviderAddress = kovanLendingPoolAddressProviderAddress;\r\n        } \r\n        lendingPoolAddressesProvider = ILendingPoolAddressesProvider(lendingPoolAddressProviderAddress);\r\n        lendingPooladdress =  lendingPoolAddressesProvider.getLendingPool();\r\n        protocolDataProvider = IProtocolDataProvider(lendingPoolAddressesProvider.getAddress(bytes32('0x1')));\r\n        lendingPool = ILendingPool(lendingPooladdress);\r\n    }\r\n\r\n    event debug(address _address, uint256 state);\r\n\r\n    function approveLendingPool(address _asset, uint256 _amount) public {\r\n        bool _success;\r\n        ierc20 = IERC20(_asset);\r\n        _success = ierc20.approve( lendingPooladdress , _amount);\r\n    }\r\n\r\n    function depositTest(address _reserve, uint256 _amount) public {\r\n        ierc20 = IERC20(_reserve);\r\n        ierc20.transferFrom(msg.sender, address(this), _amount);\r\n        lendingPool.deposit(_reserve, _amount, address(this) , referralCode);\r\n    }\r\n\r\n    function withdrawTest(address _reserve, uint256 _amount) public {\r\n        lendingPool.withdraw(_reserve, _amount, msg.sender);\r\n    }\r\n\r\n    function approveDeposit(uint128 _amount, address _asset) public returns(bool) {\r\n        uint256 _index = 0;\r\n        bool _success;\r\n        ierc20 = IERC20(_asset);\r\n        /// @dev check if the user already has some of this asset\r\n        for (uint i; i <= Users[msg.sender].asset.length ; i++) {\r\n            if (Users[msg.sender].asset[i] == _asset ){\r\n                _index = i;\r\n            }else {\r\n                /// @dev they don't own any yet, lets add a record\r\n                Users[msg.sender].asset.push();\r\n                Users[msg.sender].balance.push();\r\n                Users[msg.sender].allowance.push();\r\n                emit debug(msg.sender, 2);\r\n            }\r\n        }\r\n        _success = ierc20.approve(msg.sender, _amount);\r\n        Users[msg.sender].asset[_index] = _asset;\r\n        Users[msg.sender].allowance[_index] = safeAddUint128(Users[msg.sender].allowance[_index], _amount );\r\n        emit debug(msg.sender, 3);\r\n    }\r\n\r\n\r\n\r\n    function deposit(address _reserve, uint128 _amount) public {\r\n        uint256 _index = 0;\r\n\r\n        for (uint i; i <= Users[msg.sender].asset.length ; i++) {\r\n            if (Users[msg.sender].asset[i] == _reserve ){\r\n                _index = i;\r\n            } else {\r\n                /// @dev they must not have approved yet.\r\n                emit debug(msg.sender, 1);\r\n            }\r\n            lendingPool.deposit(_reserve, _amount, address(this) , referralCode);\r\n            Users[msg.sender].balance[_index] = safeAddUint128(Users[msg.sender].balance[_index], _amount );\r\n        }\r\n    }\r\n\r\n    function approveWithdraw(uint128 _amount, address _asset) public returns(bool) {\r\n        uint256 _index = 0;\r\n        bool _success;\r\n        address aToken;\r\n        (aToken,,) = protocolDataProvider.getReserveTokensAddresses(_asset);\r\n        ierc20 = IERC20(aToken);\r\n        /// @dev check if the user has some of this asset to withdraw\r\n        for (uint i; i <= Users[msg.sender].asset.length ; i++) {\r\n            if (Users[msg.sender].asset[i] == _asset ){\r\n                _index = i;\r\n            }else {\r\n                /// @dev they don't own any\r\n                //Users[msg.sender].asset.push();\r\n                //Users[msg.sender].balance.push();\r\n                //Users[msg.sender].allowance.push();\r\n                emit debug(msg.sender, 4);\r\n                _success = false;\r\n                return (_success);\r\n            }\r\n        }\r\n        Users[msg.sender].asset[_index] = _asset;\r\n        Users[msg.sender].allowance[_index] = safeSubUint128(Users[msg.sender].allowance[_index], _amount );\r\n        _success = ierc20.approve(msg.sender, _amount);\r\n        emit debug(msg.sender, 5);\r\n        return(_success);\r\n    }\r\n\r\n    function withdraw(address _reserve, uint128 _amount) public {\r\n        uint _index = 0;\r\n        bool _owned = false;\r\n        for (uint i; i <= Users[msg.sender].asset.length ; i++) {\r\n            if (Users[msg.sender].asset[i] == _reserve ){\r\n                _index = i;\r\n                _owned = true;\r\n            }\r\n        }\r\n        if (_owned = true && Users[msg.sender].balance[_index] >= _amount){\r\n            lendingPool.withdraw(_reserve, _amount, msg.sender);\r\n        } else {\r\n            emit debug(msg.sender, 6);\r\n        }\r\n        \r\n    }\r\n\r\n    /// @notice uses the SafeMath and SafeCast libraries to safely add uint128s together\r\n    function safeAddUint128(uint128 _a, uint128 _b) internal pure returns(uint128){\r\n        return(SafeCast.toUint128(uint256(_a).add(uint256(_b))));\r\n    }\r\n    /// @notice uses the SafeMath and SafeCast libraries to safely subtract uint128s \r\n    function safeSubUint128(uint128 _a, uint128 _b) internal pure returns(uint128){\r\n        return(SafeCast.toUint128(uint256(_a).sub(uint256(_b))));\r\n    }\r\n\r\n    /// @notice don't send me funds if this function still exists\r\n    /// @dev for recovering test funds\r\n    function withdrawAll() public onlyOwner {\r\n        require(msg.sender.send(address(this).balance));\r\n    }\r\n\r\n    function updateReferalCode(uint16 _code) public onlyOwner {\r\n        referralCode = _code;\r\n    }\r\n\r\n    /// @notice verify the address of the lending pool in use\r\n    function checkLendingPoolAddress() public view returns(address){\r\n        return (lendingPooladdress);\r\n    }\r\n\r\n    /// @notice verify the address of the lending pool address provider\r\n    /// @dev maybe try and shorten the function name a bit\r\n    function checkLendingPoolAddressProviderAddress() public view returns(address){\r\n        return (lendingPoolAddressProviderAddress);\r\n    }\r\n\r\n    /// @notice update the lending pool address from the address provider\r\n    function updateLendingPoolAddress() public onlyOwner returns(address){\r\n        lendingPooladdress = lendingPoolAddressesProvider.getLendingPool();\r\n        lendingPool = ILendingPool(lendingPooladdress);\r\n        emit debug(lendingPooladdress, 10);\r\n        return (lendingPooladdress);\r\n    }\r\n\r\n}",
  "sourcePath": "C:/Users/anyth/Documents/GitHub/StakeYourName/contracts/InvestmentManager.sol",
  "compiler": {
    "name": "solc",
    "version": "0.7.4+commit.3f05b770.Emscripten.clang"
  },
  "schemaVersion": "3.3.3",
  "updatedAt": "2021-01-21T16:20:41.676Z",
  "networkType": "ethereum",
  "devdoc": {
    "author": "Daniel Chilvers*",
    "kind": "dev",
    "methods": {
      "checkLendingPoolAddressProviderAddress()": {
        "details": "maybe try and shorten the function name a bit"
      },
      "owner()": {
        "details": "Returns the address of the current owner."
      },
      "renounceOwnership()": {
        "details": "Leaves the contract without owner. It will not be possible to call `onlyOwner` functions anymore. Can only be called by the current owner. NOTE: Renouncing ownership will leave the contract without an owner, thereby removing any functionality that is only available to the owner."
      },
      "transferOwnership(address)": {
        "details": "Transfers ownership of the contract to a new account (`newOwner`). Can only be called by the current owner."
      },
      "withdrawAll()": {
        "details": "for recovering test funds"
      }
    },
    "stateVariables": {
      "DAIContract": {
        "details": "addresses saved here for testing, in final version theaddresses will be passed in from the front end."
      },
      "Users": {
        "details": "map user addresses to our struct above"
      }
    },
    "title": "Manages depositing and withdrawing from Aave",
    "version": 1
  },
  "userdoc": {
    "kind": "user",
    "methods": {
      "checkLendingPoolAddress()": {
        "notice": "verify the address of the lending pool in use"
      },
      "checkLendingPoolAddressProviderAddress()": {
        "notice": "verify the address of the lending pool address provider"
      },
      "updateLendingPoolAddress()": {
        "notice": "update the lending pool address from the address provider"
      },
      "withdrawAll()": {
        "notice": "don't send me funds if this function still exists"
      }
    },
    "notice": "part of the StakeYourName DApp",
    "version": 1
  }
}