{
  "contractName": "NameManager",
  "abi": [
    {
      "inputs": [],
      "stateMutability": "nonpayable",
      "type": "constructor"
    },
    {
      "anonymous": false,
      "inputs": [
        {
          "indexed": true,
          "internalType": "address",
          "name": "previousOwner",
          "type": "address"
        },
        {
          "indexed": true,
          "internalType": "address",
          "name": "newOwner",
          "type": "address"
        }
      ],
      "name": "OwnershipTransferred",
      "type": "event"
    },
    {
      "inputs": [],
      "name": "owner",
      "outputs": [
        {
          "internalType": "address",
          "name": "",
          "type": "address"
        }
      ],
      "stateMutability": "view",
      "type": "function",
      "constant": true
    },
    {
      "inputs": [],
      "name": "renounceOwnership",
      "outputs": [],
      "stateMutability": "nonpayable",
      "type": "function"
    },
    {
      "inputs": [
        {
          "internalType": "address",
          "name": "newOwner",
          "type": "address"
        }
      ],
      "name": "transferOwnership",
      "outputs": [],
      "stateMutability": "nonpayable",
      "type": "function"
    },
    {
      "inputs": [
        {
          "internalType": "string[]",
          "name": "_names",
          "type": "string[]"
        },
        {
          "internalType": "uint256",
          "name": "_duration",
          "type": "uint256"
        }
      ],
      "name": "checkBulkPrice",
      "outputs": [
        {
          "internalType": "uint256",
          "name": "",
          "type": "uint256"
        }
      ],
      "stateMutability": "view",
      "type": "function",
      "constant": true
    },
    {
      "inputs": [
        {
          "internalType": "string",
          "name": "_name",
          "type": "string"
        },
        {
          "internalType": "uint256",
          "name": "_duration",
          "type": "uint256"
        }
      ],
      "name": "checkPrice",
      "outputs": [
        {
          "internalType": "uint256",
          "name": "",
          "type": "uint256"
        }
      ],
      "stateMutability": "view",
      "type": "function",
      "constant": true
    },
    {
      "inputs": [
        {
          "internalType": "uint256[]",
          "name": "_ints",
          "type": "uint256[]"
        }
      ],
      "name": "uintArrayToStringsArray",
      "outputs": [
        {
          "internalType": "string[]",
          "name": "",
          "type": "string[]"
        }
      ],
      "stateMutability": "pure",
      "type": "function",
      "constant": true
    },
    {
      "inputs": [
        {
          "internalType": "uint256[]",
          "name": "_nameList",
          "type": "uint256[]"
        }
      ],
      "name": "checkForRenewals",
      "outputs": [
        {
          "internalType": "uint256[]",
          "name": "",
          "type": "uint256[]"
        },
        {
          "internalType": "uint256",
          "name": "",
          "type": "uint256"
        }
      ],
      "stateMutability": "view",
      "type": "function",
      "constant": true
    },
    {
      "inputs": [
        {
          "internalType": "string[]",
          "name": "_name",
          "type": "string[]"
        }
      ],
      "name": "resolveName",
      "outputs": [
        {
          "internalType": "address",
          "name": "",
          "type": "address"
        }
      ],
      "stateMutability": "view",
      "type": "function",
      "constant": true
    },
    {
      "inputs": [
        {
          "internalType": "uint256",
          "name": "_labelhash",
          "type": "uint256"
        }
      ],
      "name": "renewalDue",
      "outputs": [
        {
          "internalType": "bool",
          "name": "",
          "type": "bool"
        }
      ],
      "stateMutability": "view",
      "type": "function",
      "constant": true
    },
    {
      "inputs": [
        {
          "internalType": "uint256",
          "name": "_time",
          "type": "uint256"
        }
      ],
      "name": "updateRenewalPeriod",
      "outputs": [],
      "stateMutability": "nonpayable",
      "type": "function"
    },
    {
      "inputs": [
        {
          "internalType": "address",
          "name": "_address",
          "type": "address"
        }
      ],
      "name": "updateRegistrar",
      "outputs": [],
      "stateMutability": "nonpayable",
      "type": "function"
    },
    {
      "inputs": [
        {
          "internalType": "address",
          "name": "_address",
          "type": "address"
        }
      ],
      "name": "updateBulkRenewal",
      "outputs": [],
      "stateMutability": "nonpayable",
      "type": "function"
    },
    {
      "inputs": [
        {
          "internalType": "uint256",
          "name": "_name",
          "type": "uint256"
        }
      ],
      "name": "getNameExpiry",
      "outputs": [
        {
          "internalType": "uint256",
          "name": "",
          "type": "uint256"
        }
      ],
      "stateMutability": "view",
      "type": "function",
      "constant": true
    },
    {
      "inputs": [],
      "name": "returnEnsAddress",
      "outputs": [
        {
          "internalType": "address",
          "name": "",
          "type": "address"
        }
      ],
      "stateMutability": "view",
      "type": "function",
      "constant": true
    },
    {
      "inputs": [],
      "name": "returnEnsRegAddress",
      "outputs": [
        {
          "internalType": "address",
          "name": "",
          "type": "address"
        }
      ],
      "stateMutability": "view",
      "type": "function",
      "constant": true
    },
    {
      "inputs": [],
      "name": "returnBulkRenewalAddress",
      "outputs": [
        {
          "internalType": "address",
          "name": "",
          "type": "address"
        }
      ],
      "stateMutability": "view",
      "type": "function",
      "constant": true
    },
    {
      "inputs": [],
      "name": "checkRegistryMatches",
      "outputs": [
        {
          "internalType": "bool",
          "name": "",
          "type": "bool"
        }
      ],
      "stateMutability": "view",
      "type": "function",
      "constant": true
    },
    {
      "inputs": [
        {
          "internalType": "bytes32",
          "name": "_bytes",
          "type": "bytes32"
        }
      ],
      "name": "convertBytesToUint",
      "outputs": [
        {
          "internalType": "uint256",
          "name": "",
          "type": "uint256"
        }
      ],
      "stateMutability": "pure",
      "type": "function",
      "constant": true
    },
    {
      "inputs": [
        {
          "internalType": "uint256",
          "name": "_uint",
          "type": "uint256"
        }
      ],
      "name": "convertUintToBytes",
      "outputs": [
        {
          "internalType": "bytes32",
          "name": "",
          "type": "bytes32"
        }
      ],
      "stateMutability": "pure",
      "type": "function",
      "constant": true
    },
    {
      "inputs": [
        {
          "internalType": "string",
          "name": "_subdomain",
          "type": "string"
        },
        {
          "internalType": "bytes32",
          "name": "_name",
          "type": "bytes32"
        }
      ],
      "name": "computeHash",
      "outputs": [
        {
          "internalType": "bytes32",
          "name": "namehash",
          "type": "bytes32"
        }
      ],
      "stateMutability": "pure",
      "type": "function",
      "constant": true
    }
  ],
  "bytecode": "0x60806040526e0c2e074ec69a0dfb2997ba6c7d2e1e600160006101000a81548173ffffffffffffffffffffffffffffffffffffffff021916908373ffffffffffffffffffffffffffffffffffffffff1602179055507357f1887a8bf19b14fc0df6fd9b2acc9af147ea85600260006101000a81548173ffffffffffffffffffffffffffffffffffffffff021916908373ffffffffffffffffffffffffffffffffffffffff16021790555073ff252725f6122a92551a5fa9a6b6bf10eb0be035600360006101000a81548173ffffffffffffffffffffffffffffffffffffffff021916908373ffffffffffffffffffffffffffffffffffffffff16021790555073283af0b28c62c092c9727f1ee09c02ca627eb7f5600460006101000a81548173ffffffffffffffffffffffffffffffffffffffff021916908373ffffffffffffffffffffffffffffffffffffffff1602179055506224ea006005553480156200016757600080fd5b5060006200017a6200042b60201b60201c565b9050806000806101000a81548173ffffffffffffffffffffffffffffffffffffffff021916908373ffffffffffffffffffffffffffffffffffffffff1602179055508073ffffffffffffffffffffffffffffffffffffffff16600073ffffffffffffffffffffffffffffffffffffffff167f8be0079c531659141344cd1fd0a4f28419497f9722a3daafe3b4186f6b6457e060405160405180910390a350600260009054906101000a900473ffffffffffffffffffffffffffffffffffffffff16600660006101000a81548173ffffffffffffffffffffffffffffffffffffffff021916908373ffffffffffffffffffffffffffffffffffffffff160217905550600660009054906101000a900473ffffffffffffffffffffffffffffffffffffffff1673ffffffffffffffffffffffffffffffffffffffff16633f15457f6040518163ffffffff1660e01b815260040160206040518083038186803b158015620002e457600080fd5b505afa158015620002f9573d6000803e3d6000fd5b505050506040513d601f19601f820116820180604052508101906200031f91906200044a565b600760006101000a81548173ffffffffffffffffffffffffffffffffffffffff021916908373ffffffffffffffffffffffffffffffffffffffff160217905550600360009054906101000a900473ffffffffffffffffffffffffffffffffffffffff16600960006101000a81548173ffffffffffffffffffffffffffffffffffffffff021916908373ffffffffffffffffffffffffffffffffffffffff160217905550600460009054906101000a900473ffffffffffffffffffffffffffffffffffffffff16600860006101000a81548173ffffffffffffffffffffffffffffffffffffffff021916908373ffffffffffffffffffffffffffffffffffffffff160217905550620004c4565b600033905090565b6000815190506200044481620004aa565b92915050565b6000602082840312156200045d57600080fd5b60006200046d8482850162000433565b91505092915050565b600062000483826200048a565b9050919050565b600073ffffffffffffffffffffffffffffffffffffffff82169050919050565b620004b58162000476565b8114620004c157600080fd5b50565b61213980620004d46000396000f3fe608060405234801561001057600080fd5b506004361061012c5760003560e01c80638e8a40bd116100ad578063e01e53d011610071578063e01e53d014610358578063eb76509414610388578063f0e147d8146103a6578063f2fde38b146103d6578063f4037468146103f25761012c565b80638e8a40bd1461028e578063a474346c146102ac578063ae76173e146102dc578063af27a39c1461030c578063bb452db4146103285761012c565b806368a4f5c2116100f457806368a4f5c2146101f95780636ef4309f1461022a578063715018a61461024857806375e2598d146102525780638da5cb5b146102705761012c565b80630309cfa3146101315780633031baaf146101615780633a5fc0f21461017d578063592b700a146101ad57806361f6bc2c146101c9575b600080fd5b61014b60048036038101906101469190611a57565b610422565b6040516101589190611de9565b60405180910390f35b61017b6004803603810190610176919061182d565b6104d6565b005b61019760048036038101906101929190611a03565b6105e2565b6040516101a49190611de9565b60405180910390f35b6101c760048036038101906101c2919061182d565b610699565b005b6101e360048036038101906101de91906119ab565b610885565b6040516101f09190611d9e565b60405180910390f35b610213600480360381019061020e9190611941565b6108e1565b604051610221929190611d53565b60405180910390f35b610232610a5e565b60405161023f9190611d83565b60405180910390f35b610250610bd2565b005b61025a610d58565b6040516102679190611ce6565b60405180910390f35b610278610d82565b6040516102859190611ce6565b60405180910390f35b610296610dab565b6040516102a39190611ce6565b60405180910390f35b6102c660048036038101906102c191906118ed565b610dd5565b6040516102d39190611de9565b60405180910390f35b6102f660048036038101906102f19190611a57565b610e8c565b6040516103039190611d9e565b60405180910390f35b61032660048036038101906103219190611a57565b610e9e565b005b610342600480360381019061033d9190611982565b610f70565b60405161034f9190611de9565b60405180910390f35b610372600480360381019061036d9190611941565b610f82565b60405161037f9190611d01565b60405180910390f35b610390611172565b60405161039d9190611ce6565b60405180910390f35b6103c060048036038101906103bb9190611a57565b61119c565b6040516103cd9190611d83565b60405180910390f35b6103f060048036038101906103eb919061182d565b6111b5565b005b61040c600480360381019061040791906118a8565b6113c0565b6040516104199190611ce6565b60405180910390f35b6000600660009054906101000a900473ffffffffffffffffffffffffffffffffffffffff1673ffffffffffffffffffffffffffffffffffffffff1663d6e4fa86836040518263ffffffff1660e01b815260040161047f9190611de9565b60206040518083038186803b15801561049757600080fd5b505afa1580156104ab573d6000803e3d6000fd5b505050506040513d601f19601f820116820180604052508101906104cf9190611a80565b9050919050565b6104de611578565b73ffffffffffffffffffffffffffffffffffffffff1660008054906101000a900473ffffffffffffffffffffffffffffffffffffffff1673ffffffffffffffffffffffffffffffffffffffff161461059e576040517f08c379a00000000000000000000000000000000000000000000000000000000081526004018080602001828103825260208152602001807f4f776e61626c653a2063616c6c6572206973206e6f7420746865206f776e657281525060200191505060405180910390fd5b80600960006101000a81548173ffffffffffffffffffffffffffffffffffffffff021916908373ffffffffffffffffffffffffffffffffffffffff16021790555050565b6000600860009054906101000a900473ffffffffffffffffffffffffffffffffffffffff1673ffffffffffffffffffffffffffffffffffffffff166383e7f6ff84846040518363ffffffff1660e01b8152600401610641929190611db9565b60206040518083038186803b15801561065957600080fd5b505afa15801561066d573d6000803e3d6000fd5b505050506040513d601f19601f820116820180604052508101906106919190611a80565b905092915050565b6106a1611578565b73ffffffffffffffffffffffffffffffffffffffff1660008054906101000a900473ffffffffffffffffffffffffffffffffffffffff1673ffffffffffffffffffffffffffffffffffffffff1614610761576040517f08c379a00000000000000000000000000000000000000000000000000000000081526004018080602001828103825260208152602001807f4f776e61626c653a2063616c6c6572206973206e6f7420746865206f776e657281525060200191505060405180910390fd5b80600660006101000a81548173ffffffffffffffffffffffffffffffffffffffff021916908373ffffffffffffffffffffffffffffffffffffffff160217905550600660009054906101000a900473ffffffffffffffffffffffffffffffffffffffff1673ffffffffffffffffffffffffffffffffffffffff16633f15457f6040518163ffffffff1660e01b815260040160206040518083038186803b15801561080a57600080fd5b505afa15801561081e573d6000803e3d6000fd5b505050506040513d601f19601f820116820180604052508101906108429190611856565b600760006101000a81548173ffffffffffffffffffffffffffffffffffffffff021916908373ffffffffffffffffffffffffffffffffffffffff16021790555050565b600081848460405160200161089b929190611ccd565b604051602081830303815290604052805190602001206040516020016108c2929190611ca1565b6040516020818303038152906040528051906020012090509392505050565b60606000806108ef84611580565b9050600060608267ffffffffffffffff8111801561090c57600080fd5b5060405190808252806020026020018201604052801561093b5781602001602082028036833780820191505090505b5090506000805b87518110156109ae5761096788828151811061095a57fe5b602002602001015161119c565b156109a15787818151811061097857fe5b602002602001015183838151811061098c57fe5b60200260200101818152505081806001019250505b8080600101915050610942565b506060808567ffffffffffffffff811180156109c957600080fd5b506040519080825280602002602001820160405280156109fd57816020015b60608152602001906001900390816109e85790505b509050610a0984610f82565b90506001861415610a3e5780600081518110610a2157fe5b60200260200101519150610a37826005546105e2565b9450610a4d565b610a4a81600554610dd5565b94505b838597509750505050505050915091565b6000600960009054906101000a900473ffffffffffffffffffffffffffffffffffffffff1673ffffffffffffffffffffffffffffffffffffffff16633f15457f6040518163ffffffff1660e01b815260040160206040518083038186803b158015610ac857600080fd5b505afa158015610adc573d6000803e3d6000fd5b505050506040513d601f19601f82011682018060405250810190610b009190611856565b73ffffffffffffffffffffffffffffffffffffffff16600660009054906101000a900473ffffffffffffffffffffffffffffffffffffffff1673ffffffffffffffffffffffffffffffffffffffff16633f15457f6040518163ffffffff1660e01b815260040160206040518083038186803b158015610b7e57600080fd5b505afa158015610b92573d6000803e3d6000fd5b505050506040513d601f19601f82011682018060405250810190610bb69190611856565b73ffffffffffffffffffffffffffffffffffffffff1614905090565b610bda611578565b73ffffffffffffffffffffffffffffffffffffffff1660008054906101000a900473ffffffffffffffffffffffffffffffffffffffff1673ffffffffffffffffffffffffffffffffffffffff1614610c9a576040517f08c379a00000000000000000000000000000000000000000000000000000000081526004018080602001828103825260208152602001807f4f776e61626c653a2063616c6c6572206973206e6f7420746865206f776e657281525060200191505060405180910390fd5b600073ffffffffffffffffffffffffffffffffffffffff1660008054906101000a900473ffffffffffffffffffffffffffffffffffffffff1673ffffffffffffffffffffffffffffffffffffffff167f8be0079c531659141344cd1fd0a4f28419497f9722a3daafe3b4186f6b6457e060405160405180910390a360008060006101000a81548173ffffffffffffffffffffffffffffffffffffffff021916908373ffffffffffffffffffffffffffffffffffffffff160217905550565b6000600960009054906101000a900473ffffffffffffffffffffffffffffffffffffffff16905090565b60008060009054906101000a900473ffffffffffffffffffffffffffffffffffffffff16905090565b6000600760009054906101000a900473ffffffffffffffffffffffffffffffffffffffff16905090565b6000600960009054906101000a900473ffffffffffffffffffffffffffffffffffffffff1673ffffffffffffffffffffffffffffffffffffffff16633971d46784846040518363ffffffff1660e01b8152600401610e34929190611d23565b60206040518083038186803b158015610e4c57600080fd5b505afa158015610e60573d6000803e3d6000fd5b505050506040513d601f19601f82011682018060405250810190610e849190611a80565b905092915050565b6000808260001b905080915050919050565b610ea6611578565b73ffffffffffffffffffffffffffffffffffffffff1660008054906101000a900473ffffffffffffffffffffffffffffffffffffffff1673ffffffffffffffffffffffffffffffffffffffff1614610f66576040517f08c379a00000000000000000000000000000000000000000000000000000000081526004018080602001828103825260208152602001807f4f776e61626c653a2063616c6c6572206973206e6f7420746865206f776e657281525060200191505060405180910390fd5b8060058190555050565b6000808260001c905080915050919050565b606080825167ffffffffffffffff81118015610f9d57600080fd5b50604051908082528060200260200182016040528015610fd157816020015b6060815260200190600190039081610fbc5790505b50905060005b8351811015611168576000848281518110610fee57fe5b60200260200101519050600081141561104f576040518060400160405280600181526020017f300000000000000000000000000000000000000000000000000000000000000081525083838151811061104357fe5b60200260200101819052505b600081905060005b60008214611079578080600101915050600a828161107157fe5b049150611057565b60608167ffffffffffffffff8111801561109257600080fd5b506040519080825280601f01601f1916602001820160405280156110c55781602001600182028036833780820191505090505b50905060006001830390505b6000851461113e57600a85816110e357fe5b0660300160f81b828280600190039350815181106110fd57fe5b60200101907effffffffffffffffffffffffffffffffffffffffffffffffffffffffffffff1916908160001a905350600a858161113657fe5b0494506110d1565b8187878151811061114b57fe5b602002602001018190525050505050508080600101915050610fd7565b5080915050919050565b6000600660009054906101000a900473ffffffffffffffffffffffffffffffffffffffff16905090565b600060055442036111ac83610422565b11159050919050565b6111bd611578565b73ffffffffffffffffffffffffffffffffffffffff1660008054906101000a900473ffffffffffffffffffffffffffffffffffffffff1673ffffffffffffffffffffffffffffffffffffffff161461127d576040517f08c379a00000000000000000000000000000000000000000000000000000000081526004018080602001828103825260208152602001807f4f776e61626c653a2063616c6c6572206973206e6f7420746865206f776e657281525060200191505060405180910390fd5b600073ffffffffffffffffffffffffffffffffffffffff168173ffffffffffffffffffffffffffffffffffffffff161415611303576040517f08c379a00000000000000000000000000000000000000000000000000000000081526004018080602001828103825260268152602001806120de6026913960400191505060405180910390fd5b8073ffffffffffffffffffffffffffffffffffffffff1660008054906101000a900473ffffffffffffffffffffffffffffffffffffffff1673ffffffffffffffffffffffffffffffffffffffff167f8be0079c531659141344cd1fd0a4f28419497f9722a3daafe3b4186f6b6457e060405160405180910390a3806000806101000a81548173ffffffffffffffffffffffffffffffffffffffff021916908373ffffffffffffffffffffffffffffffffffffffff16021790555050565b6000806113eb848460008181106113d357fe5b90506020028101906113e59190611e04565b83610885565b90506000600190505b848490508110156114355761142685858381811061140e57fe5b90506020028101906114209190611e04565b84610885565b915080806001019150506113f4565b506000600760009054906101000a900473ffffffffffffffffffffffffffffffffffffffff1673ffffffffffffffffffffffffffffffffffffffff16630178b8bf836040518263ffffffff1660e01b81526004016114939190611d9e565b60206040518083038186803b1580156114ab57600080fd5b505afa1580156114bf573d6000803e3d6000fd5b505050506040513d601f19601f820116820180604052508101906114e39190611856565b90508073ffffffffffffffffffffffffffffffffffffffff16633b3b57de836040518263ffffffff1660e01b815260040161151e9190611d9e565b60206040518083038186803b15801561153657600080fd5b505afa15801561154a573d6000803e3d6000fd5b505050506040513d601f19601f8201168201806040525081019061156e919061187f565b9250505092915050565b600033905090565b60008060005b83518110156115c6576115ab84828151811061159e57fe5b602002602001015161119c565b156115b95781806001019250505b8080600101915050611586565b5080915050919050565b6000813590506115df81612081565b92915050565b6000815190506115f481612081565b92915050565b60008151905061160981612098565b92915050565b60008083601f84011261162157600080fd5b8235905067ffffffffffffffff81111561163a57600080fd5b60208301915083602082028301111561165257600080fd5b9250929050565b600082601f83011261166a57600080fd5b813561167d61167882611e8c565b611e5b565b9150818183526020840193506020810190508360005b838110156116c357813586016116a988826117af565b845260208401935060208301925050600181019050611693565b5050505092915050565b600082601f8301126116de57600080fd5b81356116f16116ec82611eb8565b611e5b565b9150818183526020840193506020810190508385602084028201111561171657600080fd5b60005b83811015611746578161172c8882611803565b845260208401935060208301925050600181019050611719565b5050505092915050565b60008135905061175f816120af565b92915050565b60008083601f84011261177757600080fd5b8235905067ffffffffffffffff81111561179057600080fd5b6020830191508360018202830111156117a857600080fd5b9250929050565b600082601f8301126117c057600080fd5b81356117d36117ce82611ee4565b611e5b565b915080825260208301602083018583830111156117ef57600080fd5b6117fa838284612022565b50505092915050565b600081359050611812816120c6565b92915050565b600081519050611827816120c6565b92915050565b60006020828403121561183f57600080fd5b600061184d848285016115d0565b91505092915050565b60006020828403121561186857600080fd5b6000611876848285016115e5565b91505092915050565b60006020828403121561189157600080fd5b600061189f848285016115fa565b91505092915050565b600080602083850312156118bb57600080fd5b600083013567ffffffffffffffff8111156118d557600080fd5b6118e18582860161160f565b92509250509250929050565b6000806040838503121561190057600080fd5b600083013567ffffffffffffffff81111561191a57600080fd5b61192685828601611659565b925050602061193785828601611803565b9150509250929050565b60006020828403121561195357600080fd5b600082013567ffffffffffffffff81111561196d57600080fd5b611979848285016116cd565b91505092915050565b60006020828403121561199457600080fd5b60006119a284828501611750565b91505092915050565b6000806000604084860312156119c057600080fd5b600084013567ffffffffffffffff8111156119da57600080fd5b6119e686828701611765565b935093505060206119f986828701611750565b9150509250925092565b60008060408385031215611a1657600080fd5b600083013567ffffffffffffffff811115611a3057600080fd5b611a3c858286016117af565b9250506020611a4d85828601611803565b9150509250929050565b600060208284031215611a6957600080fd5b6000611a7784828501611803565b91505092915050565b600060208284031215611a9257600080fd5b6000611aa084828501611818565b91505092915050565b6000611ab58383611c11565b905092915050565b6000611ac98383611c83565b60208301905092915050565b611ade81611fbe565b82525050565b6000611aef82611f34565b611af98185611f6f565b935083602082028501611b0b85611f14565b8060005b85811015611b475784840389528151611b288582611aa9565b9450611b3383611f55565b925060208a01995050600181019050611b0f565b50829750879550505050505092915050565b6000611b6482611f3f565b611b6e8185611f80565b9350611b7983611f24565b8060005b83811015611baa578151611b918882611abd565b9750611b9c83611f62565b925050600181019050611b7d565b5085935050505092915050565b611bc081611fe2565b82525050565b611bcf81611fee565b82525050565b611be6611be182611fee565b612064565b82525050565b6000611bf88385611fb3565b9350611c05838584612022565b82840190509392505050565b6000611c1c82611f4a565b611c268185611f91565b9350611c36818560208601612031565b611c3f81612070565b840191505092915050565b6000611c5582611f4a565b611c5f8185611fa2565b9350611c6f818560208601612031565b611c7881612070565b840191505092915050565b611c8c81612018565b82525050565b611c9b81612018565b82525050565b6000611cad8285611bd5565b602082019150611cbd8284611bd5565b6020820191508190509392505050565b6000611cda828486611bec565b91508190509392505050565b6000602082019050611cfb6000830184611ad5565b92915050565b60006020820190508181036000830152611d1b8184611ae4565b905092915050565b60006040820190508181036000830152611d3d8185611ae4565b9050611d4c6020830184611c92565b9392505050565b60006040820190508181036000830152611d6d8185611b59565b9050611d7c6020830184611c92565b9392505050565b6000602082019050611d986000830184611bb7565b92915050565b6000602082019050611db36000830184611bc6565b92915050565b60006040820190508181036000830152611dd38185611c4a565b9050611de26020830184611c92565b9392505050565b6000602082019050611dfe6000830184611c92565b92915050565b60008083356001602003843603038112611e1d57600080fd5b80840192508235915067ffffffffffffffff821115611e3b57600080fd5b602083019250600182023603831315611e5357600080fd5b509250929050565b6000604051905081810181811067ffffffffffffffff82111715611e8257611e8161206e565b5b8060405250919050565b600067ffffffffffffffff821115611ea757611ea661206e565b5b602082029050602081019050919050565b600067ffffffffffffffff821115611ed357611ed261206e565b5b602082029050602081019050919050565b600067ffffffffffffffff821115611eff57611efe61206e565b5b601f19601f8301169050602081019050919050565b6000819050602082019050919050565b6000819050602082019050919050565b600081519050919050565b600081519050919050565b600081519050919050565b6000602082019050919050565b6000602082019050919050565b600082825260208201905092915050565b600082825260208201905092915050565b600082825260208201905092915050565b600082825260208201905092915050565b600081905092915050565b6000611fc982611ff8565b9050919050565b6000611fdb82611ff8565b9050919050565b60008115159050919050565b6000819050919050565b600073ffffffffffffffffffffffffffffffffffffffff82169050919050565b6000819050919050565b82818337600083830152505050565b60005b8381101561204f578082015181840152602081019050612034565b8381111561205e576000848401525b50505050565b6000819050919050565bfe5b6000601f19601f8301169050919050565b61208a81611fbe565b811461209557600080fd5b50565b6120a181611fd0565b81146120ac57600080fd5b50565b6120b881611fee565b81146120c357600080fd5b50565b6120cf81612018565b81146120da57600080fd5b5056fe4f776e61626c653a206e6577206f776e657220697320746865207a65726f2061646472657373a2646970667358221220d98e76ffc311849e59ce47aacebe88d1d8b280b960e496c5bdcffd540cfc905864736f6c63430007040033",
  "immutableReferences": {},
  "source": "// SPDX-License-Identifier: MIT\r\npragma solidity ^0.7.4;\r\npragma experimental ABIEncoderV2;\r\n\r\nimport \"@openzeppelin/contracts/math/SafeMath.sol\";\r\nimport \"@openzeppelin/contracts/access/Ownable.sol\";\r\nimport \"interfaces/ENS_Registry.sol\";\r\nimport \"interfaces/ENS_BaseRegistrar.sol\";\r\nimport \"interfaces/ENS_BulkRenewal.sol\";\r\nimport \"interfaces/ENS_Resolver.sol\";\r\nimport \"interfaces/ENS_RegistrarController.sol\";\r\n\r\n/// @title StakeYourName - NameManager\r\n/// @notice Maintains a list of users and names they want to keep renewed\r\n/// @notice Can check for name expiry and pay for renewals\r\n/// @author Daniel Chilvers\r\n\r\ncontract NameManager is Ownable {\r\n    /// @dev can probably remove ensRegistryAddress as it can be discovered from the Registrar\r\n    address internal ensRegistryAddress = 0x00000000000C2E074eC69A0dFb2997BA6C7d2e1e;\r\n    address internal baseRegistrarAddress = 0x57f1887a8BF19b14fC0dF6Fd9B2acc9Af147eA85;\r\n    address internal bulkRenewalAddress = 0xfF252725f6122A92551A5FA9a6b6bf10eb0Be035;\r\n    address internal RegistrarControllerAddress = 0x283Af0B28c62C092C9727F1Ee09c02CA627EB7F5;\r\n    uint256 internal renewalPeriod = 28 days; \r\n\r\n    BaseRegistrar ensReg;\r\n    ENS ens;\r\n    ENSRegistrarController ensRegController;\r\n    BulkRenewal ensBulkRenewal;\r\n    ENSResolver ensResolver;\r\n\r\n    /// @dev map user address to arrays of their names and expiry times\r\n    //mapping (address => uint256[]) names;\r\n\r\n    /// @dev map names to the users that are funding them\r\n    //mapping (uint256 => address[]) users;\r\n\r\n    uint256[] nameList;\r\n\r\n    constructor() {\r\n        ensReg = BaseRegistrar(baseRegistrarAddress);\r\n        ens = ENS(ensReg.ens());\r\n        ensBulkRenewal = BulkRenewal(bulkRenewalAddress);\r\n        ensRegController = ENSRegistrarController(RegistrarControllerAddress);\r\n        \r\n    }\r\n\r\n    function checkBulkPrice(string[] memory _names, uint256 _duration) public view returns(uint256) {\r\n        return ensBulkRenewal.rentPrice(_names, _duration);\r\n    }\r\n\r\n    function checkPrice(string memory _name, uint256 _duration) public view returns(uint256) {\r\n        return ensRegController.rentPrice(_name, _duration);\r\n    }\r\n\r\n    function uintArrayToStringsArray(uint256[] memory _ints) public pure returns(string[] memory){\r\n        string[] memory _strings = new string[](_ints.length);    \r\n        for (uint i; i < _ints.length; i++){\r\n            uint256 _i = _ints[i];\r\n            if (_i == 0) {\r\n                _strings[i] = \"0\";\r\n            }\r\n            uint j = _i;\r\n            uint len;\r\n            while (j != 0) {\r\n                len++;\r\n                j /= 10;\r\n            }\r\n            bytes memory bstr = new bytes(len);\r\n            uint k = len - 1;\r\n            while (_i != 0) {\r\n                bstr[k--] = byte(uint8(48 + _i % 10));\r\n                _i /= 10;\r\n            }\r\n            _strings[i] = string(bstr);\r\n        }\r\n        return _strings;\r\n    }\r\n\r\n    function checkForRenewals(uint256[] memory _nameList) public view returns(uint256[] memory, uint256){\r\n        uint256 _count = countRenewals(_nameList);\r\n        uint256 _price;\r\n        uint256[] memory _names = new uint256[](_count);\r\n        uint256 _j;\r\n        for (uint i; i < _nameList.length; i++) {\r\n            if(renewalDue(_nameList[i])) {\r\n                _names[_j] = _nameList[i];\r\n                _j++;\r\n            }\r\n        }\r\n        string memory _name;\r\n        string[] memory _strNames = new string[](_count);\r\n        _strNames = uintArrayToStringsArray(_names);\r\n        if(_count == 1){\r\n            _name = _strNames[0];\r\n            _price = checkPrice(_name, renewalPeriod);\r\n        } else {\r\n            _price = checkBulkPrice(_strNames, renewalPeriod); \r\n        }\r\n        return (_names, _price);\r\n    }\r\n\r\n    function countRenewals(uint256[] memory _nameList) internal view returns (uint256){\r\n        uint256 _count;\r\n        for (uint i; i < _nameList.length; i++) {\r\n            if(renewalDue(_nameList[i])) {\r\n                _count++;\r\n            }\r\n        }\r\n        return (_count);\r\n    }\r\n\r\n \r\n    /*\r\n    *\r\n    *   ENS Related Functions\r\n    *\r\n    */\r\n\r\n    /// @notice pass in either the _name or _nameHash to resolve an address\r\n    function resolveName(string[] calldata _name) public view returns(address){\r\n        bytes32 _nameHash;\r\n        _nameHash = computeHash(_name[0], _nameHash);\r\n        for (uint256 i = 1; i < _name.length; i++){\r\n            _nameHash = computeHash(_name[i], _nameHash); \r\n        }\r\n        ENSResolver _ensResolver =  ENSResolver(ens.resolver(_nameHash));\r\n        return(_ensResolver.addr(_nameHash));\r\n    }\r\n\r\n    function renewalDue(uint256 _labelhash) public view returns(bool) {\r\n        return (getNameExpiry(_labelhash) <= block.timestamp - renewalPeriod);\r\n    }\r\n\r\n    function updateRenewalPeriod(uint256 _time) public onlyOwner {\r\n        renewalPeriod = _time;\r\n    }\r\n\r\n    // @notice Update registrar and/or associated registry\r\n    // @dev Hopefully never needed\r\n    function updateRegistrar(address _address) external onlyOwner {\r\n        ensReg = BaseRegistrar(_address);\r\n        ens = ENS(ensReg.ens());\r\n    } \r\n    function updateBulkRenewal(address _address) external onlyOwner {\r\n        ensBulkRenewal = BulkRenewal(_address);\r\n    } \r\n    // @dev make me internal once testing is done\r\n    function getNameExpiry(uint256 _name) public view returns(uint256){\r\n        return ensReg.nameExpires(_name);\r\n    }\r\n\r\n    // @notice find out which contracts we're talking to\r\n    function returnEnsAddress() public view returns(address){\r\n        return address(ens);\r\n    }\r\n    function returnEnsRegAddress() public view returns(address){\r\n        return address(ensReg);\r\n    }\r\n    function returnBulkRenewalAddress() public view returns(address){\r\n        return address(ensBulkRenewal);\r\n    }\r\n    /// @dev always fails on testnet because they didn't impletment bulk renewal there\r\n    function checkRegistryMatches() public view returns(bool){\r\n        return (ensReg.ens() == ensBulkRenewal.ens());\r\n    }\r\n\r\n    /// @notice funtions to help out with ENS integration\r\n    function convertBytesToUint(bytes32 _bytes) public pure returns(uint256){\r\n        uint256 _uint = uint256(_bytes);\r\n        return (_uint);\r\n    }\r\n    function convertUintToBytes(uint256 _uint) public pure returns(bytes32){\r\n        bytes32 _bytes = bytes32(_uint);\r\n        return (_bytes);\r\n    }\r\n\r\n    // @dev this could be expensive, lets do this off-chain where possible\r\n    function computeHash(string calldata _subdomain, bytes32 _name) public pure returns (bytes32 namehash) {\r\n        namehash = keccak256(abi.encodePacked(_name, keccak256(abi.encodePacked(_subdomain))));\r\n    }\r\n\r\n}\r\n",
  "sourcePath": "C:/Users/anyth/Documents/GitHub/StakeYourName/contracts/NameManager.sol",
  "compiler": {
    "name": "solc",
    "version": "0.7.4+commit.3f05b770.Emscripten.clang"
  },
  "schemaVersion": "3.3.3",
  "updatedAt": "2021-01-28T15:55:16.752Z",
  "networkType": "ethereum",
  "devdoc": {
    "author": "Daniel Chilvers",
    "kind": "dev",
    "methods": {
      "checkRegistryMatches()": {
        "details": "always fails on testnet because they didn't impletment bulk renewal there"
      },
      "owner()": {
        "details": "Returns the address of the current owner."
      },
      "renounceOwnership()": {
        "details": "Leaves the contract without owner. It will not be possible to call `onlyOwner` functions anymore. Can only be called by the current owner. NOTE: Renouncing ownership will leave the contract without an owner, thereby removing any functionality that is only available to the owner."
      },
      "transferOwnership(address)": {
        "details": "Transfers ownership of the contract to a new account (`newOwner`). Can only be called by the current owner."
      }
    },
    "stateVariables": {
      "ensRegistryAddress": {
        "details": "can probably remove ensRegistryAddress as it can be discovered from the Registrar"
      },
      "nameList": {
        "details": "map names to the users that are funding them"
      }
    },
    "title": "StakeYourName - NameManager",
    "version": 1
  },
  "userdoc": {
    "kind": "user",
    "methods": {
      "convertBytesToUint(bytes32)": {
        "notice": "funtions to help out with ENS integration"
      },
      "resolveName(string[])": {
        "notice": "pass in either the _name or _nameHash to resolve an address"
      }
    },
    "notice": "Maintains a list of users and names they want to keep renewedCan check for name expiry and pay for renewals",
    "version": 1
  }
}