{
  "contractName": "NameManager",
  "abi": [
    {
      "inputs": [
        {
          "internalType": "uint256",
          "name": "_networkID",
          "type": "uint256"
        }
      ],
      "stateMutability": "nonpayable",
      "type": "constructor"
    },
    {
      "anonymous": false,
      "inputs": [
        {
          "indexed": true,
          "internalType": "address",
          "name": "previousOwner",
          "type": "address"
        },
        {
          "indexed": true,
          "internalType": "address",
          "name": "newOwner",
          "type": "address"
        }
      ],
      "name": "OwnershipTransferred",
      "type": "event"
    },
    {
      "inputs": [],
      "name": "owner",
      "outputs": [
        {
          "internalType": "address",
          "name": "",
          "type": "address"
        }
      ],
      "stateMutability": "view",
      "type": "function",
      "constant": true
    },
    {
      "inputs": [],
      "name": "renounceOwnership",
      "outputs": [],
      "stateMutability": "nonpayable",
      "type": "function"
    },
    {
      "inputs": [
        {
          "internalType": "address",
          "name": "newOwner",
          "type": "address"
        }
      ],
      "name": "transferOwnership",
      "outputs": [],
      "stateMutability": "nonpayable",
      "type": "function"
    },
    {
      "stateMutability": "payable",
      "type": "receive",
      "payable": true
    },
    {
      "inputs": [
        {
          "internalType": "string[]",
          "name": "_names",
          "type": "string[]"
        },
        {
          "internalType": "uint256",
          "name": "_duration",
          "type": "uint256"
        }
      ],
      "name": "executeBulkRenewal",
      "outputs": [],
      "stateMutability": "nonpayable",
      "type": "function"
    },
    {
      "inputs": [
        {
          "internalType": "string[]",
          "name": "_names",
          "type": "string[]"
        },
        {
          "internalType": "uint256",
          "name": "_duration",
          "type": "uint256"
        }
      ],
      "name": "checkBulkPrice",
      "outputs": [
        {
          "internalType": "uint256",
          "name": "",
          "type": "uint256"
        }
      ],
      "stateMutability": "view",
      "type": "function",
      "constant": true
    },
    {
      "inputs": [
        {
          "internalType": "string",
          "name": "_name",
          "type": "string"
        },
        {
          "internalType": "uint256",
          "name": "_duration",
          "type": "uint256"
        }
      ],
      "name": "checkPrice",
      "outputs": [
        {
          "internalType": "uint256",
          "name": "",
          "type": "uint256"
        }
      ],
      "stateMutability": "view",
      "type": "function",
      "constant": true
    },
    {
      "inputs": [
        {
          "internalType": "uint256[]",
          "name": "_ints",
          "type": "uint256[]"
        }
      ],
      "name": "uintArrayToStringsArray",
      "outputs": [
        {
          "internalType": "string[]",
          "name": "",
          "type": "string[]"
        }
      ],
      "stateMutability": "pure",
      "type": "function",
      "constant": true
    },
    {
      "inputs": [
        {
          "internalType": "uint256[]",
          "name": "_nameList",
          "type": "uint256[]"
        }
      ],
      "name": "checkForRenewals",
      "outputs": [
        {
          "internalType": "uint256[]",
          "name": "",
          "type": "uint256[]"
        },
        {
          "internalType": "uint256",
          "name": "",
          "type": "uint256"
        }
      ],
      "stateMutability": "view",
      "type": "function",
      "constant": true
    },
    {
      "inputs": [
        {
          "internalType": "uint256[]",
          "name": "_nameList",
          "type": "uint256[]"
        }
      ],
      "name": "countRenewals",
      "outputs": [
        {
          "internalType": "uint256",
          "name": "",
          "type": "uint256"
        }
      ],
      "stateMutability": "view",
      "type": "function",
      "constant": true
    },
    {
      "inputs": [
        {
          "internalType": "string[]",
          "name": "_name",
          "type": "string[]"
        }
      ],
      "name": "resolveName",
      "outputs": [
        {
          "internalType": "address",
          "name": "",
          "type": "address"
        }
      ],
      "stateMutability": "view",
      "type": "function",
      "constant": true
    },
    {
      "inputs": [
        {
          "internalType": "uint256",
          "name": "_labelhash",
          "type": "uint256"
        }
      ],
      "name": "renewalDue",
      "outputs": [
        {
          "internalType": "bool",
          "name": "",
          "type": "bool"
        }
      ],
      "stateMutability": "view",
      "type": "function",
      "constant": true
    },
    {
      "inputs": [
        {
          "internalType": "uint256",
          "name": "_time",
          "type": "uint256"
        }
      ],
      "name": "updateRenewalPeriod",
      "outputs": [],
      "stateMutability": "nonpayable",
      "type": "function"
    },
    {
      "inputs": [
        {
          "internalType": "address",
          "name": "_address",
          "type": "address"
        }
      ],
      "name": "updateRegistrar",
      "outputs": [],
      "stateMutability": "nonpayable",
      "type": "function"
    },
    {
      "inputs": [
        {
          "internalType": "address",
          "name": "_address",
          "type": "address"
        }
      ],
      "name": "updateBulkRenewal",
      "outputs": [],
      "stateMutability": "nonpayable",
      "type": "function"
    },
    {
      "inputs": [
        {
          "internalType": "uint256",
          "name": "_name",
          "type": "uint256"
        }
      ],
      "name": "getNameExpiry",
      "outputs": [
        {
          "internalType": "uint256",
          "name": "",
          "type": "uint256"
        }
      ],
      "stateMutability": "view",
      "type": "function",
      "constant": true
    },
    {
      "inputs": [],
      "name": "returnEnsAddress",
      "outputs": [
        {
          "internalType": "address",
          "name": "",
          "type": "address"
        }
      ],
      "stateMutability": "view",
      "type": "function",
      "constant": true
    },
    {
      "inputs": [],
      "name": "returnEnsRegAddress",
      "outputs": [
        {
          "internalType": "address",
          "name": "",
          "type": "address"
        }
      ],
      "stateMutability": "view",
      "type": "function",
      "constant": true
    },
    {
      "inputs": [],
      "name": "returnBulkRenewalAddress",
      "outputs": [
        {
          "internalType": "address",
          "name": "",
          "type": "address"
        }
      ],
      "stateMutability": "view",
      "type": "function",
      "constant": true
    },
    {
      "inputs": [],
      "name": "checkRegistryMatches",
      "outputs": [
        {
          "internalType": "bool",
          "name": "",
          "type": "bool"
        }
      ],
      "stateMutability": "view",
      "type": "function",
      "constant": true
    },
    {
      "inputs": [
        {
          "internalType": "bytes32",
          "name": "_bytes",
          "type": "bytes32"
        }
      ],
      "name": "convertBytesToUint",
      "outputs": [
        {
          "internalType": "uint256",
          "name": "",
          "type": "uint256"
        }
      ],
      "stateMutability": "pure",
      "type": "function",
      "constant": true
    },
    {
      "inputs": [
        {
          "internalType": "uint256",
          "name": "_uint",
          "type": "uint256"
        }
      ],
      "name": "convertUintToBytes",
      "outputs": [
        {
          "internalType": "bytes32",
          "name": "",
          "type": "bytes32"
        }
      ],
      "stateMutability": "pure",
      "type": "function",
      "constant": true
    },
    {
      "inputs": [
        {
          "internalType": "string",
          "name": "_subdomain",
          "type": "string"
        },
        {
          "internalType": "bytes32",
          "name": "_name",
          "type": "bytes32"
        }
      ],
      "name": "computeHash",
      "outputs": [
        {
          "internalType": "bytes32",
          "name": "namehash",
          "type": "bytes32"
        }
      ],
      "stateMutability": "pure",
      "type": "function",
      "constant": true
    },
    {
      "inputs": [],
      "name": "retrieveETH",
      "outputs": [],
      "stateMutability": "nonpayable",
      "type": "function"
    },
    {
      "inputs": [
        {
          "internalType": "address",
          "name": "_ens",
          "type": "address"
        }
      ],
      "name": "updateAddresses",
      "outputs": [],
      "stateMutability": "nonpayable",
      "type": "function"
    }
  ],
  "bytecode": "0x60806040526e0c2e074ec69a0dfb2997ba6c7d2e1e600160006101000a81548173ffffffffffffffffffffffffffffffffffffffff021916908373ffffffffffffffffffffffffffffffffffffffff1602179055507357f1887a8bf19b14fc0df6fd9b2acc9af147ea85600260006101000a81548173ffffffffffffffffffffffffffffffffffffffff021916908373ffffffffffffffffffffffffffffffffffffffff16021790555073ff252725f6122a92551a5fa9a6b6bf10eb0be035600360006101000a81548173ffffffffffffffffffffffffffffffffffffffff021916908373ffffffffffffffffffffffffffffffffffffffff16021790555073283af0b28c62c092c9727f1ee09c02ca627eb7f5600460006101000a81548173ffffffffffffffffffffffffffffffffffffffff021916908373ffffffffffffffffffffffffffffffffffffffff1602179055506224ea006005553480156200016757600080fd5b5060405162002f8738038062002f8783398181016040528101906200018d9190620004ca565b60006200019f6200046860201b60201c565b9050806000806101000a81548173ffffffffffffffffffffffffffffffffffffffff021916908373ffffffffffffffffffffffffffffffffffffffff1602179055508073ffffffffffffffffffffffffffffffffffffffff16600073ffffffffffffffffffffffffffffffffffffffff167f8be0079c531659141344cd1fd0a4f28419497f9722a3daafe3b4186f6b6457e060405160405180910390a35060018114806200024d5750600381145b156200046157600260009054906101000a900473ffffffffffffffffffffffffffffffffffffffff16600660006101000a81548173ffffffffffffffffffffffffffffffffffffffff021916908373ffffffffffffffffffffffffffffffffffffffff160217905550600660009054906101000a900473ffffffffffffffffffffffffffffffffffffffff1673ffffffffffffffffffffffffffffffffffffffff16633f15457f6040518163ffffffff1660e01b815260040160206040518083038186803b1580156200031f57600080fd5b505afa15801562000334573d6000803e3d6000fd5b505050506040513d601f19601f820116820180604052508101906200035a91906200049e565b600760006101000a81548173ffffffffffffffffffffffffffffffffffffffff021916908373ffffffffffffffffffffffffffffffffffffffff160217905550600360009054906101000a900473ffffffffffffffffffffffffffffffffffffffff16600960006101000a81548173ffffffffffffffffffffffffffffffffffffffff021916908373ffffffffffffffffffffffffffffffffffffffff160217905550600460009054906101000a900473ffffffffffffffffffffffffffffffffffffffff16600860006101000a81548173ffffffffffffffffffffffffffffffffffffffff021916908373ffffffffffffffffffffffffffffffffffffffff1602179055505b5062000568565b600033905090565b600081519050620004818162000534565b92915050565b60008151905062000498816200054e565b92915050565b600060208284031215620004b157600080fd5b6000620004c18482850162000470565b91505092915050565b600060208284031215620004dd57600080fd5b6000620004ed8482850162000487565b91505092915050565b600062000503826200050a565b9050919050565b600073ffffffffffffffffffffffffffffffffffffffff82169050919050565b6000819050919050565b6200053f81620004f6565b81146200054b57600080fd5b50565b62000559816200052a565b81146200056557600080fd5b50565b612a0f80620005786000396000f3fe60806040526004361061014f5760003560e01c8063a474346c116100b6578063d5b014c31161006f578063d5b014c3146104d4578063e01e53d0146104eb578063eb76509414610528578063f0e147d814610553578063f2fde38b14610590578063f4037468146105b957610156565b8063a474346c146103a2578063a643c1a0146103df578063ae76173e14610408578063af27a39c14610445578063b7dcee071461046e578063bb452db41461049757610156565b806368a4f5c21161010857806368a4f5c2146102a15780636ef4309f146102df578063715018a61461030a57806375e2598d146103215780638da5cb5b1461034c5780638e8a40bd1461037757610156565b80630309cfa31461015b5780633031baaf146101985780633a5fc0f2146101c15780635884472e146101fe578063592b700a1461023b57806361f6bc2c1461026457610156565b3661015657005b600080fd5b34801561016757600080fd5b50610182600480360381019061017d919061223a565b6105f6565b60405161018f919061267c565b60405180910390f35b3480156101a457600080fd5b506101bf60048036038101906101ba9190611fe7565b6106aa565b005b3480156101cd57600080fd5b506101e860048036038101906101e391906121e6565b6107b6565b6040516101f5919061267c565b60405180910390f35b34801561020a57600080fd5b50610225600480360381019061022091906120fb565b61086d565b604051610232919061267c565b60405180910390f35b34801561024757600080fd5b50610262600480360381019061025d9190611fe7565b6108bd565b005b34801561027057600080fd5b5061028b6004803603810190610286919061218e565b610aa9565b60405161029891906125f6565b60405180910390f35b3480156102ad57600080fd5b506102c860048036038101906102c391906120fb565b610b05565b6040516102d69291906125ab565b60405180910390f35b3480156102eb57600080fd5b506102f4610c7d565b60405161030191906125db565b60405180910390f35b34801561031657600080fd5b5061031f610df1565b005b34801561032d57600080fd5b50610336610f77565b604051610343919061253e565b60405180910390f35b34801561035857600080fd5b50610361610fa1565b60405161036e919061253e565b60405180910390f35b34801561038357600080fd5b5061038c610fca565b604051610399919061253e565b60405180910390f35b3480156103ae57600080fd5b506103c960048036038101906103c491906120a7565b610ff4565b6040516103d6919061267c565b60405180910390f35b3480156103eb57600080fd5b5061040660048036038101906104019190611fe7565b6110ab565b005b34801561041457600080fd5b5061042f600480360381019061042a919061223a565b61138f565b60405161043c91906125f6565b60405180910390f35b34801561045157600080fd5b5061046c6004803603810190610467919061223a565b6113a1565b005b34801561047a57600080fd5b50610495600480360381019061049091906120a7565b611473565b005b3480156104a357600080fd5b506104be60048036038101906104b99190612165565b611654565b6040516104cb919061267c565b60405180910390f35b3480156104e057600080fd5b506104e9611666565b005b3480156104f757600080fd5b50610512600480360381019061050d91906120fb565b611777565b60405161051f9190612559565b60405180910390f35b34801561053457600080fd5b5061053d611967565b60405161054a919061253e565b60405180910390f35b34801561055f57600080fd5b5061057a6004803603810190610575919061223a565b611991565b60405161058791906125db565b60405180910390f35b34801561059c57600080fd5b506105b760048036038101906105b29190611fe7565b6119aa565b005b3480156105c557600080fd5b506105e060048036038101906105db9190612062565b611bb5565b6040516105ed919061253e565b60405180910390f35b6000600660009054906101000a900473ffffffffffffffffffffffffffffffffffffffff1673ffffffffffffffffffffffffffffffffffffffff1663d6e4fa86836040518263ffffffff1660e01b8152600401610653919061267c565b60206040518083038186803b15801561066b57600080fd5b505afa15801561067f573d6000803e3d6000fd5b505050506040513d601f19601f820116820180604052508101906106a39190612263565b9050919050565b6106b2611d6d565b73ffffffffffffffffffffffffffffffffffffffff1660008054906101000a900473ffffffffffffffffffffffffffffffffffffffff1673ffffffffffffffffffffffffffffffffffffffff1614610772576040517f08c379a00000000000000000000000000000000000000000000000000000000081526004018080602001828103825260208152602001807f4f776e61626c653a2063616c6c6572206973206e6f7420746865206f776e657281525060200191505060405180910390fd5b80600960006101000a81548173ffffffffffffffffffffffffffffffffffffffff021916908373ffffffffffffffffffffffffffffffffffffffff16021790555050565b6000600860009054906101000a900473ffffffffffffffffffffffffffffffffffffffff1673ffffffffffffffffffffffffffffffffffffffff166383e7f6ff84846040518363ffffffff1660e01b815260040161081592919061262c565b60206040518083038186803b15801561082d57600080fd5b505afa158015610841573d6000803e3d6000fd5b505050506040513d601f19601f820116820180604052508101906108659190612263565b905092915050565b60008060005b83518110156108b35761089884828151811061088b57fe5b6020026020010151611991565b156108a65781806001019250505b8080600101915050610873565b5080915050919050565b6108c5611d6d565b73ffffffffffffffffffffffffffffffffffffffff1660008054906101000a900473ffffffffffffffffffffffffffffffffffffffff1673ffffffffffffffffffffffffffffffffffffffff1614610985576040517f08c379a00000000000000000000000000000000000000000000000000000000081526004018080602001828103825260208152602001807f4f776e61626c653a2063616c6c6572206973206e6f7420746865206f776e657281525060200191505060405180910390fd5b80600660006101000a81548173ffffffffffffffffffffffffffffffffffffffff021916908373ffffffffffffffffffffffffffffffffffffffff160217905550600660009054906101000a900473ffffffffffffffffffffffffffffffffffffffff1673ffffffffffffffffffffffffffffffffffffffff16633f15457f6040518163ffffffff1660e01b815260040160206040518083038186803b158015610a2e57600080fd5b505afa158015610a42573d6000803e3d6000fd5b505050506040513d601f19601f82011682018060405250810190610a669190612010565b600760006101000a81548173ffffffffffffffffffffffffffffffffffffffff021916908373ffffffffffffffffffffffffffffffffffffffff16021790555050565b6000818484604051602001610abf929190612525565b60405160208183030381529060405280519060200120604051602001610ae69291906124f9565b6040516020818303038152906040528051906020012090509392505050565b6060600080610b138461086d565b9050600060608267ffffffffffffffff81118015610b3057600080fd5b50604051908082528060200260200182016040528015610b5f5781602001602082028036833780820191505090505b5090506000805b8751811015610bd257610b8b888281518110610b7e57fe5b6020026020010151611991565b15610bc557878181518110610b9c57fe5b6020026020010151838381518110610bb057fe5b60200260200101818152505081806001019250505b8080600101915050610b66565b5060608467ffffffffffffffff81118015610bec57600080fd5b50604051908082528060200260200182016040528015610c2057816020015b6060815260200190600190039081610c0b5790505b509050610c2c83611777565b90506001851415610c5e57610c5781600081518110610c4757fe5b60200260200101516005546107b6565b9350610c6d565b610c6a81600554610ff4565b93505b8284965096505050505050915091565b6000600960009054906101000a900473ffffffffffffffffffffffffffffffffffffffff1673ffffffffffffffffffffffffffffffffffffffff16633f15457f6040518163ffffffff1660e01b815260040160206040518083038186803b158015610ce757600080fd5b505afa158015610cfb573d6000803e3d6000fd5b505050506040513d601f19601f82011682018060405250810190610d1f9190612010565b73ffffffffffffffffffffffffffffffffffffffff16600660009054906101000a900473ffffffffffffffffffffffffffffffffffffffff1673ffffffffffffffffffffffffffffffffffffffff16633f15457f6040518163ffffffff1660e01b815260040160206040518083038186803b158015610d9d57600080fd5b505afa158015610db1573d6000803e3d6000fd5b505050506040513d601f19601f82011682018060405250810190610dd59190612010565b73ffffffffffffffffffffffffffffffffffffffff1614905090565b610df9611d6d565b73ffffffffffffffffffffffffffffffffffffffff1660008054906101000a900473ffffffffffffffffffffffffffffffffffffffff1673ffffffffffffffffffffffffffffffffffffffff1614610eb9576040517f08c379a00000000000000000000000000000000000000000000000000000000081526004018080602001828103825260208152602001807f4f776e61626c653a2063616c6c6572206973206e6f7420746865206f776e657281525060200191505060405180910390fd5b600073ffffffffffffffffffffffffffffffffffffffff1660008054906101000a900473ffffffffffffffffffffffffffffffffffffffff1673ffffffffffffffffffffffffffffffffffffffff167f8be0079c531659141344cd1fd0a4f28419497f9722a3daafe3b4186f6b6457e060405160405180910390a360008060006101000a81548173ffffffffffffffffffffffffffffffffffffffff021916908373ffffffffffffffffffffffffffffffffffffffff160217905550565b6000600960009054906101000a900473ffffffffffffffffffffffffffffffffffffffff16905090565b60008060009054906101000a900473ffffffffffffffffffffffffffffffffffffffff16905090565b6000600760009054906101000a900473ffffffffffffffffffffffffffffffffffffffff16905090565b6000600960009054906101000a900473ffffffffffffffffffffffffffffffffffffffff1673ffffffffffffffffffffffffffffffffffffffff16633971d46784846040518363ffffffff1660e01b815260040161105392919061257b565b60206040518083038186803b15801561106b57600080fd5b505afa15801561107f573d6000803e3d6000fd5b505050506040513d601f19601f820116820180604052508101906110a39190612263565b905092915050565b80600760006101000a81548173ffffffffffffffffffffffffffffffffffffffff021916908373ffffffffffffffffffffffffffffffffffffffff160217905550600760009054906101000a900473ffffffffffffffffffffffffffffffffffffffff1673ffffffffffffffffffffffffffffffffffffffff1663ecea46ee6040518163ffffffff1660e01b815260040160206040518083038186803b15801561115457600080fd5b505afa158015611168573d6000803e3d6000fd5b505050506040513d601f19601f8201168201806040525081019061118c9190612010565b600660006101000a81548173ffffffffffffffffffffffffffffffffffffffff021916908373ffffffffffffffffffffffffffffffffffffffff160217905550600760009054906101000a900473ffffffffffffffffffffffffffffffffffffffff1673ffffffffffffffffffffffffffffffffffffffff1663e14750226040518163ffffffff1660e01b815260040160206040518083038186803b15801561123457600080fd5b505afa158015611248573d6000803e3d6000fd5b505050506040513d601f19601f8201168201806040525081019061126c9190612010565b600960006101000a81548173ffffffffffffffffffffffffffffffffffffffff021916908373ffffffffffffffffffffffffffffffffffffffff160217905550600760009054906101000a900473ffffffffffffffffffffffffffffffffffffffff1673ffffffffffffffffffffffffffffffffffffffff166388ff726c6040518163ffffffff1660e01b815260040160206040518083038186803b15801561131457600080fd5b505afa158015611328573d6000803e3d6000fd5b505050506040513d601f19601f8201168201806040525081019061134c9190612010565b600860006101000a81548173ffffffffffffffffffffffffffffffffffffffff021916908373ffffffffffffffffffffffffffffffffffffffff16021790555050565b6000808260001b905080915050919050565b6113a9611d6d565b73ffffffffffffffffffffffffffffffffffffffff1660008054906101000a900473ffffffffffffffffffffffffffffffffffffffff1673ffffffffffffffffffffffffffffffffffffffff1614611469576040517f08c379a00000000000000000000000000000000000000000000000000000000081526004018080602001828103825260208152602001807f4f776e61626c653a2063616c6c6572206973206e6f7420746865206f776e657281525060200191505060405180910390fd5b8060058190555050565b60008114156114825760055490505b6000633150bfba60e01b9050600960009054906101000a900473ffffffffffffffffffffffffffffffffffffffff1673ffffffffffffffffffffffffffffffffffffffff166301ffc9a7826040518263ffffffff1660e01b81526004016114e99190612611565b60206040518083038186803b15801561150157600080fd5b505afa158015611515573d6000803e3d6000fd5b505050506040513d601f19601f82011682018060405250810190611539919061213c565b611578576040517f08c379a000000000000000000000000000000000000000000000000000000000815260040161156f9061265c565b60405180910390fd5b600960009054906101000a900473ffffffffffffffffffffffffffffffffffffffff1673ffffffffffffffffffffffffffffffffffffffff1663e8d6dbb44785856040518463ffffffff1660e01b81526004016115d692919061257b565b6000604051808303818588803b1580156115ef57600080fd5b505af1158015611603573d6000803e3d6000fd5b50505050503373ffffffffffffffffffffffffffffffffffffffff166108fc479081150290604051600060405180830381858888f1935050505015801561164e573d6000803e3d6000fd5b50505050565b6000808260001c905080915050919050565b61166e611d6d565b73ffffffffffffffffffffffffffffffffffffffff1660008054906101000a900473ffffffffffffffffffffffffffffffffffffffff1673ffffffffffffffffffffffffffffffffffffffff161461172e576040517f08c379a00000000000000000000000000000000000000000000000000000000081526004018080602001828103825260208152602001807f4f776e61626c653a2063616c6c6572206973206e6f7420746865206f776e657281525060200191505060405180910390fd5b3373ffffffffffffffffffffffffffffffffffffffff166108fc479081150290604051600060405180830381858888f19350505050158015611774573d6000803e3d6000fd5b50565b606080825167ffffffffffffffff8111801561179257600080fd5b506040519080825280602002602001820160405280156117c657816020015b60608152602001906001900390816117b15790505b50905060005b835181101561195d5760008482815181106117e357fe5b602002602001015190506000811415611844576040518060400160405280600181526020017f300000000000000000000000000000000000000000000000000000000000000081525083838151811061183857fe5b60200260200101819052505b600081905060005b6000821461186e578080600101915050600a828161186657fe5b04915061184c565b60608167ffffffffffffffff8111801561188757600080fd5b506040519080825280601f01601f1916602001820160405280156118ba5781602001600182028036833780820191505090505b50905060006001830390505b6000851461193357600a85816118d857fe5b0660300160f81b828280600190039350815181106118f257fe5b60200101907effffffffffffffffffffffffffffffffffffffffffffffffffffffffffffff1916908160001a905350600a858161192b57fe5b0494506118c6565b8187878151811061194057fe5b6020026020010181905250505050505080806001019150506117cc565b5080915050919050565b6000600660009054906101000a900473ffffffffffffffffffffffffffffffffffffffff16905090565b600060055442036119a1836105f6565b11159050919050565b6119b2611d6d565b73ffffffffffffffffffffffffffffffffffffffff1660008054906101000a900473ffffffffffffffffffffffffffffffffffffffff1673ffffffffffffffffffffffffffffffffffffffff1614611a72576040517f08c379a00000000000000000000000000000000000000000000000000000000081526004018080602001828103825260208152602001807f4f776e61626c653a2063616c6c6572206973206e6f7420746865206f776e657281525060200191505060405180910390fd5b600073ffffffffffffffffffffffffffffffffffffffff168173ffffffffffffffffffffffffffffffffffffffff161415611af8576040517f08c379a00000000000000000000000000000000000000000000000000000000081526004018080602001828103825260268152602001806129b46026913960400191505060405180910390fd5b8073ffffffffffffffffffffffffffffffffffffffff1660008054906101000a900473ffffffffffffffffffffffffffffffffffffffff1673ffffffffffffffffffffffffffffffffffffffff167f8be0079c531659141344cd1fd0a4f28419497f9722a3daafe3b4186f6b6457e060405160405180910390a3806000806101000a81548173ffffffffffffffffffffffffffffffffffffffff021916908373ffffffffffffffffffffffffffffffffffffffff16021790555050565b600080611be084846000818110611bc857fe5b9050602002810190611bda9190612697565b83610aa9565b90506000600190505b84849050811015611c2a57611c1b858583818110611c0357fe5b9050602002810190611c159190612697565b84610aa9565b91508080600101915050611be9565b506000600760009054906101000a900473ffffffffffffffffffffffffffffffffffffffff1673ffffffffffffffffffffffffffffffffffffffff16630178b8bf836040518263ffffffff1660e01b8152600401611c8891906125f6565b60206040518083038186803b158015611ca057600080fd5b505afa158015611cb4573d6000803e3d6000fd5b505050506040513d601f19601f82011682018060405250810190611cd89190612010565b90508073ffffffffffffffffffffffffffffffffffffffff16633b3b57de836040518263ffffffff1660e01b8152600401611d1391906125f6565b60206040518083038186803b158015611d2b57600080fd5b505afa158015611d3f573d6000803e3d6000fd5b505050506040513d601f19601f82011682018060405250810190611d639190612039565b9250505092915050565b600033905090565b600081359050611d8481612940565b92915050565b600081519050611d9981612940565b92915050565b600081519050611dae81612957565b92915050565b60008083601f840112611dc657600080fd5b8235905067ffffffffffffffff811115611ddf57600080fd5b602083019150836020820283011115611df757600080fd5b9250929050565b600082601f830112611e0f57600080fd5b8135611e22611e1d8261271f565b6126ee565b9150818183526020840193506020810190508360005b83811015611e685781358601611e4e8882611f69565b845260208401935060208301925050600181019050611e38565b5050505092915050565b600082601f830112611e8357600080fd5b8135611e96611e918261274b565b6126ee565b91508181835260208401935060208101905083856020840282011115611ebb57600080fd5b60005b83811015611eeb5781611ed18882611fbd565b845260208401935060208301925050600181019050611ebe565b5050505092915050565b600081519050611f048161296e565b92915050565b600081359050611f1981612985565b92915050565b60008083601f840112611f3157600080fd5b8235905067ffffffffffffffff811115611f4a57600080fd5b602083019150836001820283011115611f6257600080fd5b9250929050565b600082601f830112611f7a57600080fd5b8135611f8d611f8882612777565b6126ee565b91508082526020830160208301858383011115611fa957600080fd5b611fb48382846128e1565b50505092915050565b600081359050611fcc8161299c565b92915050565b600081519050611fe18161299c565b92915050565b600060208284031215611ff957600080fd5b600061200784828501611d75565b91505092915050565b60006020828403121561202257600080fd5b600061203084828501611d8a565b91505092915050565b60006020828403121561204b57600080fd5b600061205984828501611d9f565b91505092915050565b6000806020838503121561207557600080fd5b600083013567ffffffffffffffff81111561208f57600080fd5b61209b85828601611db4565b92509250509250929050565b600080604083850312156120ba57600080fd5b600083013567ffffffffffffffff8111156120d457600080fd5b6120e085828601611dfe565b92505060206120f185828601611fbd565b9150509250929050565b60006020828403121561210d57600080fd5b600082013567ffffffffffffffff81111561212757600080fd5b61213384828501611e72565b91505092915050565b60006020828403121561214e57600080fd5b600061215c84828501611ef5565b91505092915050565b60006020828403121561217757600080fd5b600061218584828501611f0a565b91505092915050565b6000806000604084860312156121a357600080fd5b600084013567ffffffffffffffff8111156121bd57600080fd5b6121c986828701611f1f565b935093505060206121dc86828701611f0a565b9150509250925092565b600080604083850312156121f957600080fd5b600083013567ffffffffffffffff81111561221357600080fd5b61221f85828601611f69565b925050602061223085828601611fbd565b9150509250929050565b60006020828403121561224c57600080fd5b600061225a84828501611fbd565b91505092915050565b60006020828403121561227557600080fd5b600061228384828501611fd2565b91505092915050565b60006122988383612403565b905092915050565b60006122ac83836124db565b60208301905092915050565b6122c181612851565b82525050565b60006122d2826127c7565b6122dc8185612802565b9350836020820285016122ee856127a7565b8060005b8581101561232a578484038952815161230b858261228c565b9450612316836127e8565b925060208a019950506001810190506122f2565b50829750879550505050505092915050565b6000612347826127d2565b6123518185612813565b935061235c836127b7565b8060005b8381101561238d57815161237488826122a0565b975061237f836127f5565b925050600181019050612360565b5085935050505092915050565b6123a381612875565b82525050565b6123b281612881565b82525050565b6123c96123c482612881565b612923565b82525050565b6123d88161288b565b82525050565b60006123ea8385612846565b93506123f78385846128e1565b82840190509392505050565b600061240e826127dd565b6124188185612824565b93506124288185602086016128f0565b6124318161292f565b840191505092915050565b6000612447826127dd565b6124518185612835565b93506124618185602086016128f0565b61246a8161292f565b840191505092915050565b6000612482602183612835565b91507f496e636f727265637420454e532042756c6b52656e6577616c2061646472657360008301527f73000000000000000000000000000000000000000000000000000000000000006020830152604082019050919050565b6124e4816128d7565b82525050565b6124f3816128d7565b82525050565b600061250582856123b8565b60208201915061251582846123b8565b6020820191508190509392505050565b60006125328284866123de565b91508190509392505050565b600060208201905061255360008301846122b8565b92915050565b6000602082019050818103600083015261257381846122c7565b905092915050565b6000604082019050818103600083015261259581856122c7565b90506125a460208301846124ea565b9392505050565b600060408201905081810360008301526125c5818561233c565b90506125d460208301846124ea565b9392505050565b60006020820190506125f0600083018461239a565b92915050565b600060208201905061260b60008301846123a9565b92915050565b600060208201905061262660008301846123cf565b92915050565b60006040820190508181036000830152612646818561243c565b905061265560208301846124ea565b9392505050565b6000602082019050818103600083015261267581612475565b9050919050565b600060208201905061269160008301846124ea565b92915050565b600080833560016020038436030381126126b057600080fd5b80840192508235915067ffffffffffffffff8211156126ce57600080fd5b6020830192506001820236038313156126e657600080fd5b509250929050565b6000604051905081810181811067ffffffffffffffff821117156127155761271461292d565b5b8060405250919050565b600067ffffffffffffffff82111561273a5761273961292d565b5b602082029050602081019050919050565b600067ffffffffffffffff8211156127665761276561292d565b5b602082029050602081019050919050565b600067ffffffffffffffff8211156127925761279161292d565b5b601f19601f8301169050602081019050919050565b6000819050602082019050919050565b6000819050602082019050919050565b600081519050919050565b600081519050919050565b600081519050919050565b6000602082019050919050565b6000602082019050919050565b600082825260208201905092915050565b600082825260208201905092915050565b600082825260208201905092915050565b600082825260208201905092915050565b600081905092915050565b600061285c826128b7565b9050919050565b600061286e826128b7565b9050919050565b60008115159050919050565b6000819050919050565b60007fffffffff0000000000000000000000000000000000000000000000000000000082169050919050565b600073ffffffffffffffffffffffffffffffffffffffff82169050919050565b6000819050919050565b82818337600083830152505050565b60005b8381101561290e5780820151818401526020810190506128f3565b8381111561291d576000848401525b50505050565b6000819050919050565bfe5b6000601f19601f8301169050919050565b61294981612851565b811461295457600080fd5b50565b61296081612863565b811461296b57600080fd5b50565b61297781612875565b811461298257600080fd5b50565b61298e81612881565b811461299957600080fd5b50565b6129a5816128d7565b81146129b057600080fd5b5056fe4f776e61626c653a206e6577206f776e657220697320746865207a65726f2061646472657373a2646970667358221220c799ecdd426e874e170028efd52668addbcb8fd026fbe5a06e45f96447beae7564736f6c63430007040033",
  "immutableReferences": {},
  "source": "// SPDX-License-Identifier: MIT\r\npragma solidity ^0.7.4;\r\npragma experimental ABIEncoderV2;\r\n\r\nimport \"@openzeppelin/contracts/math/SafeMath.sol\";\r\nimport \"@openzeppelin/contracts/access/Ownable.sol\";\r\nimport \"interfaces/ENS_Registry.sol\";\r\nimport \"interfaces/ENS_BaseRegistrar.sol\";\r\nimport \"interfaces/ENS_BulkRenewal.sol\";\r\nimport \"interfaces/ENS_Resolver.sol\";\r\nimport \"interfaces/ENS_RegistrarController.sol\";\r\n\r\n/// @title StakeYourName - NameManager\r\n/// @notice Maintains a list of users and names they want to keep renewed\r\n/// @notice Can check for name expiry and pay for renewals\r\n/// @author Daniel Chilvers\r\n\r\n\r\ncontract NameManager is Ownable {\r\n    /// @dev can probably remove ensRegistryAddress as it can be discovered from the Registrar\r\n    address internal ensRegistryAddress = 0x00000000000C2E074eC69A0dFb2997BA6C7d2e1e;\r\n    address internal baseRegistrarAddress = 0x57f1887a8BF19b14fC0dF6Fd9B2acc9Af147eA85;\r\n    address internal bulkRenewalAddress = 0xfF252725f6122A92551A5FA9a6b6bf10eb0Be035;\r\n    address internal RegistrarControllerAddress = 0x283Af0B28c62C092C9727F1Ee09c02CA627EB7F5;\r\n    uint256 internal renewalPeriod = 28 days;\r\n\r\n    BaseRegistrar ensReg;\r\n    ENS ens;\r\n    ENSRegistrarController ensRegController;\r\n    BulkRenewal ensBulkRenewal;\r\n    ENSResolver ensResolver;\r\n\r\n    /// @dev map user address to arrays of their names and expiry times\r\n    //mapping (address => uint256[]) names;\r\n\r\n    /// @dev map names to the users that are funding them\r\n    //mapping (uint256 => address[]) users;\r\n\r\n    uint256[] nameList;\r\n\r\n    constructor(uint256 _networkID) {\r\n        if (_networkID == 1 || _networkID == 3){\r\n            ensReg = BaseRegistrar(baseRegistrarAddress);\r\n            ens = ENS(ensReg.ens());\r\n            ensBulkRenewal = BulkRenewal(bulkRenewalAddress);\r\n            ensRegController = ENSRegistrarController(RegistrarControllerAddress);\r\n        }\r\n    }\r\n\r\n    receive() external payable {}\r\n\r\n    function executeBulkRenewal(string[] memory _names, uint256 _duration) external {\r\n        if(_duration == 0){ _duration = renewalPeriod;}\r\n        bytes4 _interfaceID = 0x3150bfba;\r\n        require(ensBulkRenewal.supportsInterface(_interfaceID),\"Incorrect ENS BulkRenewal address\");\r\n        ensBulkRenewal.renewAll{value:address(this).balance}(_names, _duration);\r\n        msg.sender.transfer(address(this).balance);\r\n    }\r\n\r\n    function checkBulkPrice(string[] memory _names, uint256 _duration) public view returns(uint256) {\r\n        return ensBulkRenewal.rentPrice(_names, _duration);\r\n    }\r\n\r\n    function checkPrice(string memory _name, uint256 _duration) public view returns(uint256) {\r\n        return ensRegController.rentPrice(_name, _duration);\r\n    }\r\n\r\n\r\n    function uintArrayToStringsArray(uint256[] memory _ints) public pure returns(string[] memory){\r\n        string[] memory _strings = new string[](_ints.length);    \r\n        for (uint i; i < _ints.length; i++){\r\n            uint256 _i = _ints[i];\r\n            if (_i == 0) {\r\n                _strings[i] = \"0\";\r\n            }\r\n            uint j = _i;\r\n            uint len;\r\n            while (j != 0) {\r\n                len++;\r\n                j /= 10;\r\n            }\r\n            bytes memory bstr = new bytes(len);\r\n            uint k = len - 1;\r\n            while (_i != 0) {\r\n                bstr[k--] = byte(uint8(48 + _i % 10));\r\n                _i /= 10;\r\n            }\r\n            _strings[i] = string(bstr);\r\n        }\r\n        return _strings;\r\n    }\r\n\r\n    /// @notice pass in an array of names and return the ones that are due for renewal and the total cost.\r\n    function checkForRenewals(uint256[] memory _nameList) public view returns(uint256[] memory, uint256){\r\n        uint256 _count = countRenewals(_nameList);\r\n        uint256 _price;\r\n        uint256[] memory _names = new uint256[](_count);\r\n        uint256 _j;\r\n        for (uint i; i < _nameList.length; i++) {\r\n            if(renewalDue(_nameList[i])) {\r\n                _names[_j] = _nameList[i];\r\n                _j++;\r\n            }\r\n        }\r\n        string[] memory _strNames = new string[](_count);\r\n        _strNames = uintArrayToStringsArray(_names);\r\n        if(_count == 1){\r\n            _price = checkPrice(_strNames[0], renewalPeriod);\r\n        } else {\r\n            _price = checkBulkPrice(_strNames, renewalPeriod); \r\n        }\r\n        return (_names, _price);\r\n    }\r\n\r\n    function countRenewals(uint256[] memory _nameList) public view returns (uint256){\r\n        uint256 _count;\r\n        for (uint i; i < _nameList.length; i++) {\r\n            if(renewalDue(_nameList[i])) {\r\n                _count++;\r\n            }\r\n        }\r\n        return (_count);\r\n    }\r\n\r\n \r\n    /*\r\n    *\r\n    *   ENS Related Functions\r\n    *\r\n    */\r\n\r\n    /// @notice pass in either the _name or _nameHash to resolve an address\r\n    function resolveName(string[] calldata _name) public view returns(address){\r\n        bytes32 _nameHash;\r\n        _nameHash = computeHash(_name[0], _nameHash);\r\n        for (uint256 i = 1; i < _name.length; i++){\r\n            _nameHash = computeHash(_name[i], _nameHash); \r\n        }\r\n        ENSResolver _ensResolver =  ENSResolver(ens.resolver(_nameHash));\r\n        return(_ensResolver.addr(_nameHash));\r\n    }\r\n\r\n    function renewalDue(uint256 _labelhash) public view returns(bool) {\r\n        return (getNameExpiry(_labelhash) <= block.timestamp - renewalPeriod);\r\n    }\r\n\r\n    function updateRenewalPeriod(uint256 _time) public onlyOwner {\r\n        renewalPeriod = _time;\r\n    }\r\n\r\n    // @notice Update registrar and/or associated registry\r\n    // @dev Hopefully never needed\r\n    function updateRegistrar(address _address) external onlyOwner {\r\n        ensReg = BaseRegistrar(_address);\r\n        ens = ENS(ensReg.ens());\r\n    } \r\n    function updateBulkRenewal(address _address) external onlyOwner {\r\n        ensBulkRenewal = BulkRenewal(_address);\r\n    } \r\n    // @dev make me internal once testing is done\r\n    function getNameExpiry(uint256 _name) public view returns(uint256){\r\n        return ensReg.nameExpires(_name);\r\n    }\r\n\r\n    // @notice find out which contracts we're talking to\r\n    function returnEnsAddress() public view returns(address){\r\n        return address(ens);\r\n    }\r\n    function returnEnsRegAddress() public view returns(address){\r\n        return address(ensReg);\r\n    }\r\n    function returnBulkRenewalAddress() public view returns(address){\r\n        return address(ensBulkRenewal);\r\n    }\r\n    /// @dev always fails on testnet because they didn't impletment bulk renewal there\r\n    function checkRegistryMatches() public view returns(bool){\r\n        return (ensReg.ens() == ensBulkRenewal.ens());\r\n    }\r\n\r\n    /// @notice funtions to help out with ENS integration\r\n    function convertBytesToUint(bytes32 _bytes) public pure returns(uint256){\r\n        uint256 _uint = uint256(_bytes);\r\n        return (_uint);\r\n    }\r\n    function convertUintToBytes(uint256 _uint) public pure returns(bytes32){\r\n        bytes32 _bytes = bytes32(_uint);\r\n        return (_bytes);\r\n    }\r\n\r\n    // @dev this could be expensive, lets do this off-chain where possible\r\n    function computeHash(string calldata _subdomain, bytes32 _name) public pure returns (bytes32 namehash) {\r\n        namehash = keccak256(abi.encodePacked(_name, keccak256(abi.encodePacked(_subdomain))));\r\n    }\r\n\r\n    // for testing purposes\r\n    function retrieveETH() external onlyOwner {\r\n        msg.sender.transfer(address(this).balance);\r\n    }\r\n\r\n    function updateAddresses(address _ens) public {\r\n            ens = ENS(_ens);\r\n            ensReg = BaseRegistrar(ens.baseRegAddress());\r\n            ensBulkRenewal = BulkRenewal(ens.bulkRegAddress());\r\n            ensRegController = ENSRegistrarController(ens.regContAddress());\r\n    }\r\n}\r\n",
  "sourcePath": "C:/Users/anyth/Documents/GitHub/StakeYourName/contracts/NameManager.sol",
  "compiler": {
    "name": "solc",
    "version": "0.7.4+commit.3f05b770.Emscripten.clang"
  },
  "schemaVersion": "3.3.3",
  "updatedAt": "2021-01-31T14:09:49.898Z",
  "networkType": "ethereum",
  "devdoc": {
    "author": "Daniel Chilvers",
    "kind": "dev",
    "methods": {
      "checkRegistryMatches()": {
        "details": "always fails on testnet because they didn't impletment bulk renewal there"
      },
      "owner()": {
        "details": "Returns the address of the current owner."
      },
      "renounceOwnership()": {
        "details": "Leaves the contract without owner. It will not be possible to call `onlyOwner` functions anymore. Can only be called by the current owner. NOTE: Renouncing ownership will leave the contract without an owner, thereby removing any functionality that is only available to the owner."
      },
      "transferOwnership(address)": {
        "details": "Transfers ownership of the contract to a new account (`newOwner`). Can only be called by the current owner."
      }
    },
    "stateVariables": {
      "ensRegistryAddress": {
        "details": "can probably remove ensRegistryAddress as it can be discovered from the Registrar"
      },
      "nameList": {
        "details": "map names to the users that are funding them"
      }
    },
    "title": "StakeYourName - NameManager",
    "version": 1
  },
  "userdoc": {
    "kind": "user",
    "methods": {
      "checkForRenewals(uint256[])": {
        "notice": "pass in an array of names and return the ones that are due for renewal and the total cost."
      },
      "convertBytesToUint(bytes32)": {
        "notice": "funtions to help out with ENS integration"
      },
      "resolveName(string[])": {
        "notice": "pass in either the _name or _nameHash to resolve an address"
      }
    },
    "notice": "Maintains a list of users and names they want to keep renewedCan check for name expiry and pay for renewals",
    "version": 1
  }
}