{
  "contractName": "NameManager",
  "abi": [
    {
      "inputs": [],
      "stateMutability": "nonpayable",
      "type": "constructor"
    },
    {
      "anonymous": false,
      "inputs": [
        {
          "indexed": true,
          "internalType": "address",
          "name": "previousOwner",
          "type": "address"
        },
        {
          "indexed": true,
          "internalType": "address",
          "name": "newOwner",
          "type": "address"
        }
      ],
      "name": "OwnershipTransferred",
      "type": "event"
    },
    {
      "inputs": [],
      "name": "owner",
      "outputs": [
        {
          "internalType": "address",
          "name": "",
          "type": "address"
        }
      ],
      "stateMutability": "view",
      "type": "function",
      "constant": true
    },
    {
      "inputs": [],
      "name": "renounceOwnership",
      "outputs": [],
      "stateMutability": "nonpayable",
      "type": "function"
    },
    {
      "inputs": [
        {
          "internalType": "address",
          "name": "newOwner",
          "type": "address"
        }
      ],
      "name": "transferOwnership",
      "outputs": [],
      "stateMutability": "nonpayable",
      "type": "function"
    },
    {
      "inputs": [],
      "name": "checkForRenewals",
      "outputs": [
        {
          "internalType": "uint256[]",
          "name": "",
          "type": "uint256[]"
        }
      ],
      "stateMutability": "view",
      "type": "function",
      "constant": true
    },
    {
      "inputs": [
        {
          "internalType": "uint256",
          "name": "_name",
          "type": "uint256"
        }
      ],
      "name": "addRecord",
      "outputs": [],
      "stateMutability": "nonpayable",
      "type": "function"
    },
    {
      "inputs": [
        {
          "internalType": "uint256",
          "name": "_name",
          "type": "uint256"
        }
      ],
      "name": "removeRecord",
      "outputs": [],
      "stateMutability": "nonpayable",
      "type": "function"
    },
    {
      "inputs": [
        {
          "internalType": "uint256",
          "name": "_name",
          "type": "uint256"
        }
      ],
      "name": "checkForName",
      "outputs": [
        {
          "internalType": "bool",
          "name": "",
          "type": "bool"
        },
        {
          "internalType": "uint256",
          "name": "",
          "type": "uint256"
        }
      ],
      "stateMutability": "view",
      "type": "function",
      "constant": true
    },
    {
      "inputs": [
        {
          "internalType": "uint256",
          "name": "_name",
          "type": "uint256"
        }
      ],
      "name": "countFunders",
      "outputs": [
        {
          "internalType": "uint256",
          "name": "",
          "type": "uint256"
        }
      ],
      "stateMutability": "view",
      "type": "function",
      "constant": true
    },
    {
      "inputs": [],
      "name": "countNames",
      "outputs": [
        {
          "internalType": "uint256",
          "name": "",
          "type": "uint256"
        }
      ],
      "stateMutability": "view",
      "type": "function",
      "constant": true
    },
    {
      "inputs": [
        {
          "internalType": "uint256",
          "name": "_name",
          "type": "uint256"
        }
      ],
      "name": "checkForUser",
      "outputs": [
        {
          "internalType": "bool",
          "name": "",
          "type": "bool"
        },
        {
          "internalType": "uint256",
          "name": "",
          "type": "uint256"
        }
      ],
      "stateMutability": "view",
      "type": "function",
      "constant": true
    },
    {
      "inputs": [
        {
          "internalType": "uint256",
          "name": "_labelhash",
          "type": "uint256"
        }
      ],
      "name": "renewalDue",
      "outputs": [
        {
          "internalType": "bool",
          "name": "",
          "type": "bool"
        }
      ],
      "stateMutability": "view",
      "type": "function",
      "constant": true
    },
    {
      "inputs": [
        {
          "internalType": "uint256",
          "name": "_time",
          "type": "uint256"
        }
      ],
      "name": "updateRenewalPeriod",
      "outputs": [],
      "stateMutability": "nonpayable",
      "type": "function"
    },
    {
      "inputs": [
        {
          "internalType": "address",
          "name": "_address",
          "type": "address"
        }
      ],
      "name": "updateRegistrar",
      "outputs": [],
      "stateMutability": "nonpayable",
      "type": "function"
    },
    {
      "inputs": [
        {
          "internalType": "address",
          "name": "_address",
          "type": "address"
        }
      ],
      "name": "updateBulkRenewal",
      "outputs": [],
      "stateMutability": "nonpayable",
      "type": "function"
    },
    {
      "inputs": [
        {
          "internalType": "uint256",
          "name": "_name",
          "type": "uint256"
        }
      ],
      "name": "getNameExpiry",
      "outputs": [
        {
          "internalType": "uint256",
          "name": "",
          "type": "uint256"
        }
      ],
      "stateMutability": "view",
      "type": "function",
      "constant": true
    },
    {
      "inputs": [],
      "name": "returnEnsAddress",
      "outputs": [
        {
          "internalType": "address",
          "name": "",
          "type": "address"
        }
      ],
      "stateMutability": "view",
      "type": "function",
      "constant": true
    },
    {
      "inputs": [],
      "name": "returnEnsRegAddress",
      "outputs": [
        {
          "internalType": "address",
          "name": "",
          "type": "address"
        }
      ],
      "stateMutability": "view",
      "type": "function",
      "constant": true
    },
    {
      "inputs": [],
      "name": "returnBulkRenewalAddress",
      "outputs": [
        {
          "internalType": "address",
          "name": "",
          "type": "address"
        }
      ],
      "stateMutability": "view",
      "type": "function",
      "constant": true
    },
    {
      "inputs": [],
      "name": "checkRegistryMatches",
      "outputs": [
        {
          "internalType": "bool",
          "name": "",
          "type": "bool"
        }
      ],
      "stateMutability": "view",
      "type": "function",
      "constant": true
    },
    {
      "inputs": [
        {
          "internalType": "bytes32",
          "name": "_bytes",
          "type": "bytes32"
        }
      ],
      "name": "convertBytesToUint",
      "outputs": [
        {
          "internalType": "uint256",
          "name": "",
          "type": "uint256"
        }
      ],
      "stateMutability": "pure",
      "type": "function",
      "constant": true
    },
    {
      "inputs": [
        {
          "internalType": "uint256",
          "name": "_uint",
          "type": "uint256"
        }
      ],
      "name": "convertUintToBytes",
      "outputs": [
        {
          "internalType": "bytes32",
          "name": "",
          "type": "bytes32"
        }
      ],
      "stateMutability": "pure",
      "type": "function",
      "constant": true
    },
    {
      "inputs": [
        {
          "internalType": "string",
          "name": "_name",
          "type": "string"
        }
      ],
      "name": "computeNamehash",
      "outputs": [
        {
          "internalType": "bytes32",
          "name": "namehash",
          "type": "bytes32"
        }
      ],
      "stateMutability": "pure",
      "type": "function",
      "constant": true
    },
    {
      "inputs": [
        {
          "internalType": "string",
          "name": "_name",
          "type": "string"
        }
      ],
      "name": "computeLabelhash",
      "outputs": [
        {
          "internalType": "bytes32",
          "name": "namehash",
          "type": "bytes32"
        }
      ],
      "stateMutability": "pure",
      "type": "function",
      "constant": true
    }
  ],
  "bytecode": "0x60806040526e0c2e074ec69a0dfb2997ba6c7d2e1e600160006101000a81548173ffffffffffffffffffffffffffffffffffffffff021916908373ffffffffffffffffffffffffffffffffffffffff1602179055507357f1887a8bf19b14fc0df6fd9b2acc9af147ea85600260006101000a81548173ffffffffffffffffffffffffffffffffffffffff021916908373ffffffffffffffffffffffffffffffffffffffff16021790555073ff252725f6122a92551a5fa9a6b6bf10eb0be035600360006101000a81548173ffffffffffffffffffffffffffffffffffffffff021916908373ffffffffffffffffffffffffffffffffffffffff1602179055506224ea0060045534801561011157600080fd5b50600061012261028b60201b60201c565b9050806000806101000a81548173ffffffffffffffffffffffffffffffffffffffff021916908373ffffffffffffffffffffffffffffffffffffffff1602179055508073ffffffffffffffffffffffffffffffffffffffff16600073ffffffffffffffffffffffffffffffffffffffff167f8be0079c531659141344cd1fd0a4f28419497f9722a3daafe3b4186f6b6457e060405160405180910390a350600260009054906101000a900473ffffffffffffffffffffffffffffffffffffffff16600560006101000a81548173ffffffffffffffffffffffffffffffffffffffff021916908373ffffffffffffffffffffffffffffffffffffffff160217905550600360009054906101000a900473ffffffffffffffffffffffffffffffffffffffff16600760006101000a81548173ffffffffffffffffffffffffffffffffffffffff021916908373ffffffffffffffffffffffffffffffffffffffff160217905550610293565b600033905090565b611b1c806102a26000396000f3fe608060405234801561001057600080fd5b506004361061014d5760003560e01c80638e8a40bd116100c3578063c671fd071161007c578063c671fd07146104fa578063cf99597014610587578063d3c08b13146105d2578063eb7650941461065f578063f0e147d814610693578063f2fde38b146106d75761014d565b80638e8a40bd14610397578063ad36e0c9146103cb578063ae76173e146103e9578063af27a39c1461042b578063b582e2e614610459578063bb452db4146104b85761014d565b8063606005871161011557806360600587146102955780636ef4309f146102d7578063715018a6146102f757806375e2598d146103015780638693a683146103355780638da5cb5b146103635761014d565b80630309cfa3146101525780633031baaf1461019457806337e15240146101d85780633f35f0ca14610206578063592b700a14610251575b600080fd5b61017e6004803603602081101561016857600080fd5b810190808035906020019092919050505061071b565b6040518082815260200191505060405180910390f35b6101d6600480360360208110156101aa57600080fd5b81019080803573ffffffffffffffffffffffffffffffffffffffff1690602001909291905050506107d2565b005b610204600480360360208110156101ee57600080fd5b81019080803590602001909291905050506108de565b005b6102326004803603602081101561021c57600080fd5b8101908080359060200190929190505050610a7a565b6040518083151581526020018281526020019250505060405180910390f35b6102936004803603602081101561026757600080fd5b81019080803573ffffffffffffffffffffffffffffffffffffffff169060200190929190505050610b44565b005b6102c1600480360360208110156102ab57600080fd5b8101908080359060200190929190505050610d33565b6040518082815260200191505060405180910390f35b6102df610d53565b60405180821515815260200191505060405180910390f35b6102ff610ecd565b005b610309611053565b604051808273ffffffffffffffffffffffffffffffffffffffff16815260200191505060405180910390f35b6103616004803603602081101561034b57600080fd5b810190808035906020019092919050505061107d565b005b61036b6113ea565b604051808273ffffffffffffffffffffffffffffffffffffffff16815260200191505060405180910390f35b61039f611413565b604051808273ffffffffffffffffffffffffffffffffffffffff16815260200191505060405180910390f35b6103d361143d565b6040518082815260200191505060405180910390f35b610415600480360360208110156103ff57600080fd5b810190808035906020019092919050505061144a565b6040518082815260200191505060405180910390f35b6104576004803603602081101561044157600080fd5b810190808035906020019092919050505061145c565b005b61046161152e565b6040518080602001828103825283818151815260200191508051906020019060200280838360005b838110156104a4578082015181840152602081019050610489565b505050509050019250505060405180910390f35b6104e4600480360360208110156104ce57600080fd5b810190808035906020019092919050505061160d565b6040518082815260200191505060405180910390f35b6105716004803603602081101561051057600080fd5b810190808035906020019064010000000081111561052d57600080fd5b82018360208201111561053f57600080fd5b8035906020019184600183028401116401000000008311171561056157600080fd5b909192939192939050505061161f565b6040518082815260200191505060405180910390f35b6105b36004803603602081101561059d57600080fd5b8101908080359060200190929190505050611659565b6040518083151581526020018281526020019250505060405180910390f35b610649600480360360208110156105e857600080fd5b810190808035906020019064010000000081111561060557600080fd5b82018360208201111561061757600080fd5b8035906020019184600183028401116401000000008311171561063957600080fd5b909192939192939050505061172f565b6040518082815260200191505060405180910390f35b610667611814565b604051808273ffffffffffffffffffffffffffffffffffffffff16815260200191505060405180910390f35b6106bf600480360360208110156106a957600080fd5b810190808035906020019092919050505061183e565b60405180821515815260200191505060405180910390f35b610719600480360360208110156106ed57600080fd5b81019080803573ffffffffffffffffffffffffffffffffffffffff169060200190929190505050611857565b005b6000600560009054906101000a900473ffffffffffffffffffffffffffffffffffffffff1673ffffffffffffffffffffffffffffffffffffffff1663d6e4fa86836040518263ffffffff1660e01b81526004018082815260200191505060206040518083038186803b15801561079057600080fd5b505afa1580156107a4573d6000803e3d6000fd5b505050506040513d60208110156107ba57600080fd5b81019080805190602001909291905050509050919050565b6107da611a62565b73ffffffffffffffffffffffffffffffffffffffff1660008054906101000a900473ffffffffffffffffffffffffffffffffffffffff1673ffffffffffffffffffffffffffffffffffffffff161461089a576040517f08c379a00000000000000000000000000000000000000000000000000000000081526004018080602001828103825260208152602001807f4f776e61626c653a2063616c6c6572206973206e6f7420746865206f776e657281525060200191505060405180910390fd5b80600760006101000a81548173ffffffffffffffffffffffffffffffffffffffff021916908373ffffffffffffffffffffffffffffffffffffffff16021790555050565b6000806108ea83610a7a565b80925081935050506000151582151514156109745760096000848152602001908152602001600020339080600181540180825580915050600190039060005260206000200160009091909190916101000a81548173ffffffffffffffffffffffffffffffffffffffff021916908373ffffffffffffffffffffffffffffffffffffffff1602179055505b61097d83611659565b80925081935050506000151582151514156109f957600860003373ffffffffffffffffffffffffffffffffffffffff1673ffffffffffffffffffffffffffffffffffffffff1681526020019081526020016000208390806001815401808255809150506001900390600052602060002001600090919091909150555b6000805b600b80549050811015610a3f5784600b8281548110610a1857fe5b90600052602060002001541415610a325760019150610a3f565b80806001019150506109fd565b50600090508015610a7457600b8490806001815401808255809150506001900390600052602060002001600090919091909150555b50505050565b60008060008060005b6009600087815260200190815260200160002080549050811015610b36573373ffffffffffffffffffffffffffffffffffffffff16600960008881526020019081526020016000208281548110610ad657fe5b9060005260206000200160009054906101000a900473ffffffffffffffffffffffffffffffffffffffff1673ffffffffffffffffffffffffffffffffffffffff161415610b295780915060019250610b36565b8080600101915050610a83565b508181935093505050915091565b610b4c611a62565b73ffffffffffffffffffffffffffffffffffffffff1660008054906101000a900473ffffffffffffffffffffffffffffffffffffffff1673ffffffffffffffffffffffffffffffffffffffff1614610c0c576040517f08c379a00000000000000000000000000000000000000000000000000000000081526004018080602001828103825260208152602001807f4f776e61626c653a2063616c6c6572206973206e6f7420746865206f776e657281525060200191505060405180910390fd5b80600560006101000a81548173ffffffffffffffffffffffffffffffffffffffff021916908373ffffffffffffffffffffffffffffffffffffffff160217905550600560009054906101000a900473ffffffffffffffffffffffffffffffffffffffff1673ffffffffffffffffffffffffffffffffffffffff16633f15457f6040518163ffffffff1660e01b815260040160206040518083038186803b158015610cb557600080fd5b505afa158015610cc9573d6000803e3d6000fd5b505050506040513d6020811015610cdf57600080fd5b8101908080519060200190929190505050600660006101000a81548173ffffffffffffffffffffffffffffffffffffffff021916908373ffffffffffffffffffffffffffffffffffffffff16021790555050565b600060096000838152602001908152602001600020805490509050919050565b6000600760009054906101000a900473ffffffffffffffffffffffffffffffffffffffff1673ffffffffffffffffffffffffffffffffffffffff16633f15457f6040518163ffffffff1660e01b815260040160206040518083038186803b158015610dbd57600080fd5b505afa158015610dd1573d6000803e3d6000fd5b505050506040513d6020811015610de757600080fd5b810190808051906020019092919050505073ffffffffffffffffffffffffffffffffffffffff16600560009054906101000a900473ffffffffffffffffffffffffffffffffffffffff1673ffffffffffffffffffffffffffffffffffffffff16633f15457f6040518163ffffffff1660e01b815260040160206040518083038186803b158015610e7657600080fd5b505afa158015610e8a573d6000803e3d6000fd5b505050506040513d6020811015610ea057600080fd5b810190808051906020019092919050505073ffffffffffffffffffffffffffffffffffffffff1614905090565b610ed5611a62565b73ffffffffffffffffffffffffffffffffffffffff1660008054906101000a900473ffffffffffffffffffffffffffffffffffffffff1673ffffffffffffffffffffffffffffffffffffffff1614610f95576040517f08c379a00000000000000000000000000000000000000000000000000000000081526004018080602001828103825260208152602001807f4f776e61626c653a2063616c6c6572206973206e6f7420746865206f776e657281525060200191505060405180910390fd5b600073ffffffffffffffffffffffffffffffffffffffff1660008054906101000a900473ffffffffffffffffffffffffffffffffffffffff1673ffffffffffffffffffffffffffffffffffffffff167f8be0079c531659141344cd1fd0a4f28419497f9722a3daafe3b4186f6b6457e060405160405180910390a360008060006101000a81548173ffffffffffffffffffffffffffffffffffffffff021916908373ffffffffffffffffffffffffffffffffffffffff160217905550565b6000600760009054906101000a900473ffffffffffffffffffffffffffffffffffffffff16905090565b60008061108983610a7a565b80925081935050506001151582151514156111b857600960008481526020019081526020016000206001600960008681526020019081526020016000208054905003815481106110d557fe5b9060005260206000200160009054906101000a900473ffffffffffffffffffffffffffffffffffffffff1660096000858152602001908152602001600020828154811061111e57fe5b9060005260206000200160006101000a81548173ffffffffffffffffffffffffffffffffffffffff021916908373ffffffffffffffffffffffffffffffffffffffff1602179055506009600084815260200190815260200160002080548061118257fe5b6001900381819060005260206000200160006101000a81549073ffffffffffffffffffffffffffffffffffffffff021916905590555b6111c183611659565b809250819350505060011515821515141561132757600860003373ffffffffffffffffffffffffffffffffffffffff1673ffffffffffffffffffffffffffffffffffffffff1681526020019081526020016000206001600860003373ffffffffffffffffffffffffffffffffffffffff1673ffffffffffffffffffffffffffffffffffffffff16815260200190815260200160002080549050038154811061126557fe5b9060005260206000200154600860003373ffffffffffffffffffffffffffffffffffffffff1673ffffffffffffffffffffffffffffffffffffffff16815260200190815260200160002082815481106112ba57fe5b9060005260206000200181905550600860003373ffffffffffffffffffffffffffffffffffffffff1673ffffffffffffffffffffffffffffffffffffffff16815260200190815260200160002080548061131057fe5b600190038181906000526020600020016000905590555b6000600960008581526020019081526020016000208054905014156113e55760005b600b805490508110156113e35783600b828154811061136457fe5b906000526020600020015414156113d657600b6001600b80549050038154811061138a57fe5b9060005260206000200154600b82815481106113a257fe5b9060005260206000200181905550600b8054806113bb57fe5b600190038181906000526020600020016000905590556113e3565b8080600101915050611349565b505b505050565b60008060009054906101000a900473ffffffffffffffffffffffffffffffffffffffff16905090565b6000600660009054906101000a900473ffffffffffffffffffffffffffffffffffffffff16905090565b6000600b80549050905090565b6000808260001b905080915050919050565b611464611a62565b73ffffffffffffffffffffffffffffffffffffffff1660008054906101000a900473ffffffffffffffffffffffffffffffffffffffff1673ffffffffffffffffffffffffffffffffffffffff1614611524576040517f08c379a00000000000000000000000000000000000000000000000000000000081526004018080602001828103825260208152602001807f4f776e61626c653a2063616c6c6572206973206e6f7420746865206f776e657281525060200191505060405180910390fd5b8060048190555050565b6060600061153a611a6a565b905060608167ffffffffffffffff8111801561155557600080fd5b506040519080825280602002602001820160405280156115845781602001602082028036833780820191505090505b5090506000805b600b80549050811015611603576115b8600b82815481106115a857fe5b906000526020600020015461183e565b156115f657600b81815481106115ca57fe5b90600052602060002001548383815181106115e157fe5b60200260200101818152505081806001019250505b808060010191505061158b565b5081935050505090565b6000808260001c905080915050919050565b6000828260405160200180838380828437808301925050509250505060405160208183030381529060405280519060200120905092915050565b60008060008060005b600860003373ffffffffffffffffffffffffffffffffffffffff1673ffffffffffffffffffffffffffffffffffffffff168152602001908152602001600020805490508110156117215785600860003373ffffffffffffffffffffffffffffffffffffffff1673ffffffffffffffffffffffffffffffffffffffff16815260200190815260200160002082815481106116f757fe5b906000526020600020015414156117145780915060019250611721565b8080600101915050611662565b508181935093505050915091565b60008060001b90508060405160200180807f6574680000000000000000000000000000000000000000000000000000000000815250600301905060405160208183030381529060405280519060200120604051602001808381526020018281526020019250505060405160208183030381529060405280519060200120905080838360405160200180838380828437808301925050509250505060405160208183030381529060405280519060200120604051602001808381526020018281526020019250505060405160208183030381529060405280519060200120905092915050565b6000600560009054906101000a900473ffffffffffffffffffffffffffffffffffffffff16905090565b6000600454420361184e8361071b565b11159050919050565b61185f611a62565b73ffffffffffffffffffffffffffffffffffffffff1660008054906101000a900473ffffffffffffffffffffffffffffffffffffffff1673ffffffffffffffffffffffffffffffffffffffff161461191f576040517f08c379a00000000000000000000000000000000000000000000000000000000081526004018080602001828103825260208152602001807f4f776e61626c653a2063616c6c6572206973206e6f7420746865206f776e657281525060200191505060405180910390fd5b600073ffffffffffffffffffffffffffffffffffffffff168173ffffffffffffffffffffffffffffffffffffffff1614156119a5576040517f08c379a0000000000000000000000000000000000000000000000000000000008152600401808060200182810382526026815260200180611ac16026913960400191505060405180910390fd5b8073ffffffffffffffffffffffffffffffffffffffff1660008054906101000a900473ffffffffffffffffffffffffffffffffffffffff1673ffffffffffffffffffffffffffffffffffffffff167f8be0079c531659141344cd1fd0a4f28419497f9722a3daafe3b4186f6b6457e060405160405180910390a3806000806101000a81548173ffffffffffffffffffffffffffffffffffffffff021916908373ffffffffffffffffffffffffffffffffffffffff16021790555050565b600033905090565b60008060005b600b80549050811015611ab857611a9d600b8281548110611a8d57fe5b906000526020600020015461183e565b15611aab5781806001019250505b8080600101915050611a70565b50809150509056fe4f776e61626c653a206e6577206f776e657220697320746865207a65726f2061646472657373a264697066735822122005c62de96afa2300247abb429d773faa2424d4502b6d5d16d30595907a9f317d64736f6c63430007040033",
  "immutableReferences": {},
  "source": "// SPDX-License-Identifier: MIT\r\npragma solidity ^0.7.4;\r\n\r\nimport \"@openzeppelin/contracts/math/SafeMath.sol\";\r\nimport \"@openzeppelin/contracts/access/Ownable.sol\";\r\nimport \"interfaces/ENS_Registry.sol\";\r\nimport \"interfaces/ENS_BaseRegistrar.sol\";\r\nimport \"interfaces/ENS_BulkRenewal.sol\";\r\n\r\n/// @title StakeYourName - NameManager\r\n/// @notice Maintains a list of users and names they want to keep renewed\r\n/// @notice Can check for name expiry and pay for renewals\r\n/// @author Daniel Chilvers\r\n\r\ncontract NameManager is Ownable {\r\n    /// @dev can probably remove ensRegistryAddress as it can be discovered from the Registrar\r\n    address internal ensRegistryAddress = 0x00000000000C2E074eC69A0dFb2997BA6C7d2e1e;\r\n    address internal baseRegistrarAddress = 0x57f1887a8BF19b14fC0dF6Fd9B2acc9Af147eA85;\r\n    address internal bulkRenewalAddress = 0xfF252725f6122A92551A5FA9a6b6bf10eb0Be035;\r\n    uint256 internal renewalPeriod = 28 days; \r\n\r\n    BaseRegistrar ensReg;\r\n    ENS ens;\r\n    BulkRenewal ensBulkRenewal;\r\n\r\n    /// @dev map user address to arrays of their names and expiry times\r\n    mapping (address => uint256[]) names;\r\n\r\n    /// @dev map names to the users that are funding them\r\n    mapping (uint256 => address[]) users;\r\n\r\n    mapping (uint256 => uint256[]) testArray;\r\n\r\n    uint256[] nameList;\r\n\r\n    constructor() {\r\n        ensReg = BaseRegistrar(baseRegistrarAddress);\r\n        //ens = ENS(ensReg.ens());\r\n        ensBulkRenewal = BulkRenewal(bulkRenewalAddress);\r\n        \r\n    }\r\n\r\n    function checkForRenewals() public view returns(uint256[] memory){\r\n        uint _count = countRenewals();\r\n        uint256[] memory _names = new uint256[](_count);\r\n        uint256 j;\r\n        for (uint i; i < nameList.length; i++) {\r\n            if(renewalDue(nameList[i])) {\r\n                _names[j] = nameList[i];\r\n                j++;\r\n            }\r\n        }\r\n        return (_names);\r\n    }\r\n\r\n    function countRenewals() internal view returns (uint256){\r\n        uint256 _count;\r\n        for (uint i; i < nameList.length; i++) {\r\n            if(renewalDue(nameList[i])) {\r\n                _count++;\r\n            }\r\n        }\r\n        return (_count);\r\n    }\r\n\r\n\r\n    /*\r\n    *\r\n    *   User and name related functions\r\n    *\r\n    */\r\n\r\n    /// @dev records msg.sender as a funder of _name\r\n    /// @dev and records _name as funded by msg.sender\r\n    /// @dev adds to the list of names we're overseing\r\n    function addRecord(uint256 _name) public {\r\n        bool _exists;\r\n        uint256 _index;\r\n        (_exists, _index) = checkForUser(_name);\r\n        if (_exists == false) {\r\n            users[_name].push(msg.sender);\r\n        }\r\n\r\n        (_exists, _index) = checkForName(_name);\r\n        if (_exists == false) {\r\n            names[msg.sender].push(_name);\r\n            //names[msg.sender].expiry.push();\r\n        }\r\n        bool _found = false;\r\n        for (uint i; i < nameList.length; i++){\r\n            if(nameList[i] == _name){\r\n                _found = true;\r\n                break;\r\n            }\r\n        }\r\n        if (_found = false) {\r\n            nameList.push(_name);\r\n        }\r\n\r\n    }\r\n\r\n    /// @dev Removes from users the record matching _name\r\n    /// @dev Removes from names the record matching msg.sender\r\n    /// @dev Removes from list of names we're overseing IF nobody else is funding it\r\n    function removeRecord(uint256 _name) public {\r\n        bool _exists = false;\r\n        uint256 _index;\r\n        (_exists, _index) = checkForUser(_name);\r\n        if (_exists == true) {\r\n            users[_name][_index] = users[_name][users[_name].length-1];\r\n            users[_name].pop();\r\n        }\r\n\r\n        (_exists, _index) = checkForName(_name);\r\n        if (_exists == true) {\r\n            names[msg.sender][_index] = names[msg.sender][names[msg.sender].length-1];\r\n            names[msg.sender].pop();\r\n        }\r\n\r\n        if(users[_name].length == 0){\r\n            for (uint i; i < nameList.length; i++){\r\n                if (nameList[i] == _name) {\r\n                    nameList[i] = nameList[nameList.length-1];\r\n                    nameList.pop();\r\n                    break;\r\n                }\r\n            }\r\n        }\r\n    }\r\n\r\n    /// @dev check if msg.sender is already funding _name\r\n    function checkForName(uint256 _name) public view returns(bool, uint256) {\r\n        bool _found = false;\r\n        uint256 _index = 0;\r\n        for (uint i; i < names[msg.sender].length; i++){\r\n            if(names[msg.sender][i] == _name){\r\n                _index = i;\r\n                _found = true;\r\n                break;\r\n            }\r\n        }\r\n        return (_found, _index);\r\n    }   \r\n\r\n    /// @notice returns the number of users funding _name\r\n    function countFunders(uint256 _name) public view returns(uint256){\r\n        return users[_name].length;\r\n    }\r\n\r\n    function countNames() public view returns(uint256){\r\n        return nameList.length;\r\n    }\r\n\r\n    /// @dev checks if msg.sender is already funding _name\r\n    function checkForUser(uint256 _name) public view returns(bool, uint256) {\r\n        bool _found = false;\r\n        uint256 _index = 0;\r\n        for (uint i; i < users[_name].length; i++){\r\n            if(users[_name][i] == msg.sender){\r\n                _index = i;\r\n                _found = true;\r\n                break;\r\n            }\r\n        }\r\n        return (_found, _index);\r\n    }\r\n\r\n    /*\r\n    *\r\n    *   ENS Related Functions\r\n    *\r\n    */\r\n\r\n    function renewalDue(uint256 _labelhash) public view returns(bool) {\r\n        return (getNameExpiry(_labelhash) <= block.timestamp - renewalPeriod);\r\n    }\r\n\r\n    function updateRenewalPeriod(uint256 _time) public onlyOwner {\r\n        renewalPeriod = _time;\r\n    }\r\n\r\n    // @notice Update registrar and/or associated registry\r\n    // @dev Hopefully never needed\r\n    function updateRegistrar(address _address) external onlyOwner {\r\n        ensReg = BaseRegistrar(_address);\r\n        ens = ENS(ensReg.ens());\r\n    } \r\n    function updateBulkRenewal(address _address) external onlyOwner {\r\n        ensBulkRenewal = BulkRenewal(_address);\r\n    } \r\n    // @dev make me internal once testing is done\r\n    function getNameExpiry(uint256 _name) public view returns(uint256){\r\n        return ensReg.nameExpires(_name);\r\n    }\r\n\r\n    // @notice find out which contracts we're talking to\r\n    function returnEnsAddress() public view returns(address){\r\n        return address(ens);\r\n    }\r\n    function returnEnsRegAddress() public view returns(address){\r\n        return address(ensReg);\r\n    }\r\n    function returnBulkRenewalAddress() public view returns(address){\r\n        return address(ensBulkRenewal);\r\n    }\r\n    // @devs always fails on testnet because they didn't impletment bulk renewal there\r\n    function checkRegistryMatches() public view returns(bool){\r\n        return (ensReg.ens() == ensBulkRenewal.ens());\r\n    }\r\n\r\n    // @notice funtions to help out with ENS integration\r\n    function convertBytesToUint(bytes32 _bytes) public pure returns(uint256){\r\n        uint256 _uint = uint256(_bytes);\r\n        return (_uint);\r\n    }\r\n    function convertUintToBytes(uint256 _uint) public pure returns(bytes32){\r\n        bytes32 _bytes = bytes32(_uint);\r\n        return (_bytes);\r\n    }\r\n    // @dev this could be expensive, lets do this off-chain where possible\r\n    function computeNamehash(string calldata _name) public pure returns (bytes32 namehash) {\r\n        namehash = 0x0000000000000000000000000000000000000000000000000000000000000000;\r\n        namehash = keccak256(abi.encodePacked(namehash, keccak256(abi.encodePacked('eth'))));\r\n        namehash = keccak256(abi.encodePacked(namehash, keccak256(abi.encodePacked(_name))));\r\n    }\r\n    function computeLabelhash(string calldata _name) public pure returns (bytes32 namehash) {\r\n        namehash = keccak256(abi.encodePacked(_name));\r\n    }\r\n\r\n}\r\n",
  "sourcePath": "C:/Users/anyth/Documents/GitHub/StakeYourName/contracts/NameManager.sol",
  "compiler": {
    "name": "solc",
    "version": "0.7.4+commit.3f05b770.Emscripten.clang"
  },
  "schemaVersion": "3.3.3",
  "updatedAt": "2021-01-23T17:47:08.162Z",
  "networkType": "ethereum",
  "devdoc": {
    "author": "Daniel Chilvers",
    "kind": "dev",
    "methods": {
      "addRecord(uint256)": {
        "details": "records msg.sender as a funder of _nameand records _name as funded by msg.senderadds to the list of names we're overseing"
      },
      "checkForName(uint256)": {
        "details": "check if msg.sender is already funding _name"
      },
      "checkForUser(uint256)": {
        "details": "checks if msg.sender is already funding _name"
      },
      "owner()": {
        "details": "Returns the address of the current owner."
      },
      "removeRecord(uint256)": {
        "details": "Removes from users the record matching _nameRemoves from names the record matching msg.senderRemoves from list of names we're overseing IF nobody else is funding it"
      },
      "renounceOwnership()": {
        "details": "Leaves the contract without owner. It will not be possible to call `onlyOwner` functions anymore. Can only be called by the current owner. NOTE: Renouncing ownership will leave the contract without an owner, thereby removing any functionality that is only available to the owner."
      },
      "transferOwnership(address)": {
        "details": "Transfers ownership of the contract to a new account (`newOwner`). Can only be called by the current owner."
      }
    },
    "stateVariables": {
      "ensRegistryAddress": {
        "details": "can probably remove ensRegistryAddress as it can be discovered from the Registrar"
      },
      "names": {
        "details": "map user address to arrays of their names and expiry times"
      },
      "users": {
        "details": "map names to the users that are funding them"
      }
    },
    "title": "StakeYourName - NameManager",
    "version": 1
  },
  "userdoc": {
    "kind": "user",
    "methods": {
      "countFunders(uint256)": {
        "notice": "returns the number of users funding _name"
      }
    },
    "notice": "Maintains a list of users and names they want to keep renewedCan check for name expiry and pay for renewals",
    "version": 1
  }
}