{
  "contractName": "NameManager",
  "abi": [
    {
      "inputs": [
        {
          "internalType": "uint256",
          "name": "_networkID",
          "type": "uint256"
        }
      ],
      "stateMutability": "nonpayable",
      "type": "constructor"
    },
    {
      "anonymous": false,
      "inputs": [
        {
          "indexed": true,
          "internalType": "address",
          "name": "previousOwner",
          "type": "address"
        },
        {
          "indexed": true,
          "internalType": "address",
          "name": "newOwner",
          "type": "address"
        }
      ],
      "name": "OwnershipTransferred",
      "type": "event"
    },
    {
      "inputs": [],
      "name": "owner",
      "outputs": [
        {
          "internalType": "address",
          "name": "",
          "type": "address"
        }
      ],
      "stateMutability": "view",
      "type": "function"
    },
    {
      "inputs": [],
      "name": "renounceOwnership",
      "outputs": [],
      "stateMutability": "nonpayable",
      "type": "function"
    },
    {
      "inputs": [
        {
          "internalType": "address",
          "name": "newOwner",
          "type": "address"
        }
      ],
      "name": "transferOwnership",
      "outputs": [],
      "stateMutability": "nonpayable",
      "type": "function"
    },
    {
      "stateMutability": "payable",
      "type": "receive"
    },
    {
      "inputs": [
        {
          "internalType": "string[]",
          "name": "_names",
          "type": "string[]"
        },
        {
          "internalType": "uint256",
          "name": "_duration",
          "type": "uint256"
        }
      ],
      "name": "executeBulkRenewal",
      "outputs": [],
      "stateMutability": "nonpayable",
      "type": "function"
    },
    {
      "inputs": [
        {
          "internalType": "string[]",
          "name": "_names",
          "type": "string[]"
        },
        {
          "internalType": "uint256",
          "name": "_duration",
          "type": "uint256"
        }
      ],
      "name": "checkBulkPrice",
      "outputs": [
        {
          "internalType": "uint256",
          "name": "",
          "type": "uint256"
        }
      ],
      "stateMutability": "view",
      "type": "function"
    },
    {
      "inputs": [
        {
          "internalType": "string",
          "name": "_name",
          "type": "string"
        },
        {
          "internalType": "uint256",
          "name": "_duration",
          "type": "uint256"
        }
      ],
      "name": "checkPrice",
      "outputs": [
        {
          "internalType": "uint256",
          "name": "",
          "type": "uint256"
        }
      ],
      "stateMutability": "view",
      "type": "function"
    },
    {
      "inputs": [
        {
          "internalType": "uint256[]",
          "name": "_ints",
          "type": "uint256[]"
        }
      ],
      "name": "uintArrayToStringsArray",
      "outputs": [
        {
          "internalType": "string[]",
          "name": "",
          "type": "string[]"
        }
      ],
      "stateMutability": "pure",
      "type": "function"
    },
    {
      "inputs": [
        {
          "internalType": "uint256[]",
          "name": "_nameList",
          "type": "uint256[]"
        }
      ],
      "name": "checkForRenewals",
      "outputs": [
        {
          "internalType": "uint256[]",
          "name": "",
          "type": "uint256[]"
        },
        {
          "internalType": "uint256",
          "name": "",
          "type": "uint256"
        }
      ],
      "stateMutability": "view",
      "type": "function"
    },
    {
      "inputs": [
        {
          "internalType": "uint256[]",
          "name": "_nameList",
          "type": "uint256[]"
        }
      ],
      "name": "countRenewals",
      "outputs": [
        {
          "internalType": "uint256",
          "name": "",
          "type": "uint256"
        }
      ],
      "stateMutability": "view",
      "type": "function"
    },
    {
      "inputs": [
        {
          "internalType": "string[]",
          "name": "_name",
          "type": "string[]"
        }
      ],
      "name": "resolveName",
      "outputs": [
        {
          "internalType": "address",
          "name": "",
          "type": "address"
        }
      ],
      "stateMutability": "view",
      "type": "function"
    },
    {
      "inputs": [
        {
          "internalType": "uint256",
          "name": "_labelhash",
          "type": "uint256"
        }
      ],
      "name": "renewalDue",
      "outputs": [
        {
          "internalType": "bool",
          "name": "",
          "type": "bool"
        }
      ],
      "stateMutability": "view",
      "type": "function"
    },
    {
      "inputs": [
        {
          "internalType": "uint256",
          "name": "_time",
          "type": "uint256"
        }
      ],
      "name": "updateRenewalPeriod",
      "outputs": [],
      "stateMutability": "nonpayable",
      "type": "function"
    },
    {
      "inputs": [
        {
          "internalType": "address",
          "name": "_address",
          "type": "address"
        }
      ],
      "name": "updateRegistrar",
      "outputs": [],
      "stateMutability": "nonpayable",
      "type": "function"
    },
    {
      "inputs": [
        {
          "internalType": "address",
          "name": "_address",
          "type": "address"
        }
      ],
      "name": "updateBulkRenewal",
      "outputs": [],
      "stateMutability": "nonpayable",
      "type": "function"
    },
    {
      "inputs": [
        {
          "internalType": "uint256",
          "name": "_name",
          "type": "uint256"
        }
      ],
      "name": "getNameExpiry",
      "outputs": [
        {
          "internalType": "uint256",
          "name": "",
          "type": "uint256"
        }
      ],
      "stateMutability": "view",
      "type": "function"
    },
    {
      "inputs": [],
      "name": "returnEnsAddress",
      "outputs": [
        {
          "internalType": "address",
          "name": "",
          "type": "address"
        }
      ],
      "stateMutability": "view",
      "type": "function"
    },
    {
      "inputs": [],
      "name": "returnEnsRegAddress",
      "outputs": [
        {
          "internalType": "address",
          "name": "",
          "type": "address"
        }
      ],
      "stateMutability": "view",
      "type": "function"
    },
    {
      "inputs": [],
      "name": "returnBulkRenewalAddress",
      "outputs": [
        {
          "internalType": "address",
          "name": "",
          "type": "address"
        }
      ],
      "stateMutability": "view",
      "type": "function"
    },
    {
      "inputs": [],
      "name": "checkRegistryMatches",
      "outputs": [
        {
          "internalType": "bool",
          "name": "",
          "type": "bool"
        }
      ],
      "stateMutability": "view",
      "type": "function"
    },
    {
      "inputs": [
        {
          "internalType": "bytes32",
          "name": "_bytes",
          "type": "bytes32"
        }
      ],
      "name": "convertBytesToUint",
      "outputs": [
        {
          "internalType": "uint256",
          "name": "",
          "type": "uint256"
        }
      ],
      "stateMutability": "pure",
      "type": "function"
    },
    {
      "inputs": [
        {
          "internalType": "uint256",
          "name": "_uint",
          "type": "uint256"
        }
      ],
      "name": "convertUintToBytes",
      "outputs": [
        {
          "internalType": "bytes32",
          "name": "",
          "type": "bytes32"
        }
      ],
      "stateMutability": "pure",
      "type": "function"
    },
    {
      "inputs": [
        {
          "internalType": "string",
          "name": "_subdomain",
          "type": "string"
        },
        {
          "internalType": "bytes32",
          "name": "_name",
          "type": "bytes32"
        }
      ],
      "name": "computeHash",
      "outputs": [
        {
          "internalType": "bytes32",
          "name": "namehash",
          "type": "bytes32"
        }
      ],
      "stateMutability": "pure",
      "type": "function"
    },
    {
      "inputs": [],
      "name": "retrieveETH",
      "outputs": [],
      "stateMutability": "nonpayable",
      "type": "function"
    }
  ],
  "bytecode": "0x60806040526e0c2e074ec69a0dfb2997ba6c7d2e1e600160006101000a81548173ffffffffffffffffffffffffffffffffffffffff021916908373ffffffffffffffffffffffffffffffffffffffff1602179055507357f1887a8bf19b14fc0df6fd9b2acc9af147ea85600260006101000a81548173ffffffffffffffffffffffffffffffffffffffff021916908373ffffffffffffffffffffffffffffffffffffffff16021790555073ff252725f6122a92551a5fa9a6b6bf10eb0be035600360006101000a81548173ffffffffffffffffffffffffffffffffffffffff021916908373ffffffffffffffffffffffffffffffffffffffff16021790555073283af0b28c62c092c9727f1ee09c02ca627eb7f5600460006101000a81548173ffffffffffffffffffffffffffffffffffffffff021916908373ffffffffffffffffffffffffffffffffffffffff1602179055506224ea006005553480156200016757600080fd5b5060405162002e6c38038062002e6c83398181016040528101906200018d9190620006c7565b60006200019f6200066560201b60201c565b9050806000806101000a81548173ffffffffffffffffffffffffffffffffffffffff021916908373ffffffffffffffffffffffffffffffffffffffff1602179055508073ffffffffffffffffffffffffffffffffffffffff16600073ffffffffffffffffffffffffffffffffffffffff167f8be0079c531659141344cd1fd0a4f28419497f9722a3daafe3b4186f6b6457e060405160405180910390a35060018114806200024d5750600381145b156200046657600260009054906101000a900473ffffffffffffffffffffffffffffffffffffffff16600660006101000a81548173ffffffffffffffffffffffffffffffffffffffff021916908373ffffffffffffffffffffffffffffffffffffffff160217905550600660009054906101000a900473ffffffffffffffffffffffffffffffffffffffff1673ffffffffffffffffffffffffffffffffffffffff16633f15457f6040518163ffffffff1660e01b815260040160206040518083038186803b1580156200031f57600080fd5b505afa15801562000334573d6000803e3d6000fd5b505050506040513d601f19601f820116820180604052508101906200035a91906200069b565b600760006101000a81548173ffffffffffffffffffffffffffffffffffffffff021916908373ffffffffffffffffffffffffffffffffffffffff160217905550600360009054906101000a900473ffffffffffffffffffffffffffffffffffffffff16600960006101000a81548173ffffffffffffffffffffffffffffffffffffffff021916908373ffffffffffffffffffffffffffffffffffffffff160217905550600460009054906101000a900473ffffffffffffffffffffffffffffffffffffffff16600860006101000a81548173ffffffffffffffffffffffffffffffffffffffff021916908373ffffffffffffffffffffffffffffffffffffffff1602179055506200065e565b602a8114156200065d576000600660006101000a81548173ffffffffffffffffffffffffffffffffffffffff021916908373ffffffffffffffffffffffffffffffffffffffff160217905550600660009054906101000a900473ffffffffffffffffffffffffffffffffffffffff1673ffffffffffffffffffffffffffffffffffffffff16633f15457f6040518163ffffffff1660e01b815260040160206040518083038186803b1580156200051b57600080fd5b505afa15801562000530573d6000803e3d6000fd5b505050506040513d601f19601f820116820180604052508101906200055691906200069b565b600760006101000a81548173ffffffffffffffffffffffffffffffffffffffff021916908373ffffffffffffffffffffffffffffffffffffffff160217905550600360009054906101000a900473ffffffffffffffffffffffffffffffffffffffff16600960006101000a81548173ffffffffffffffffffffffffffffffffffffffff021916908373ffffffffffffffffffffffffffffffffffffffff160217905550600460009054906101000a900473ffffffffffffffffffffffffffffffffffffffff16600860006101000a81548173ffffffffffffffffffffffffffffffffffffffff021916908373ffffffffffffffffffffffffffffffffffffffff1602179055505b5b5062000765565b600033905090565b6000815190506200067e8162000731565b92915050565b60008151905062000695816200074b565b92915050565b600060208284031215620006ae57600080fd5b6000620006be848285016200066d565b91505092915050565b600060208284031215620006da57600080fd5b6000620006ea8482850162000684565b91505092915050565b6000620007008262000707565b9050919050565b600073ffffffffffffffffffffffffffffffffffffffff82169050919050565b6000819050919050565b6200073c81620006f3565b81146200074857600080fd5b50565b620007568162000727565b81146200076257600080fd5b50565b6126f780620007756000396000f3fe6080604052600436106101445760003560e01c80638e8a40bd116100b6578063d5b014c31161006f578063d5b014c3146104a0578063e01e53d0146104b7578063eb765094146104f4578063f0e147d81461051f578063f2fde38b1461055c578063f4037468146105855761014b565b80638e8a40bd1461036c578063a474346c14610397578063ae76173e146103d4578063af27a39c14610411578063b7dcee071461043a578063bb452db4146104635761014b565b806361f6bc2c1161010857806361f6bc2c1461025957806368a4f5c2146102965780636ef4309f146102d4578063715018a6146102ff57806375e2598d146103165780638da5cb5b146103415761014b565b80630309cfa3146101505780633031baaf1461018d5780633a5fc0f2146101b65780635884472e146101f3578063592b700a146102305761014b565b3661014b57005b600080fd5b34801561015c57600080fd5b5061017760048036038101906101729190611f22565b6105c2565b6040516101849190612364565b60405180910390f35b34801561019957600080fd5b506101b460048036038101906101af9190611ccf565b610676565b005b3480156101c257600080fd5b506101dd60048036038101906101d89190611ece565b610782565b6040516101ea9190612364565b60405180910390f35b3480156101ff57600080fd5b5061021a60048036038101906102159190611de3565b610839565b6040516102279190612364565b60405180910390f35b34801561023c57600080fd5b5061025760048036038101906102529190611ccf565b610889565b005b34801561026557600080fd5b50610280600480360381019061027b9190611e76565b610a75565b60405161028d91906122de565b60405180910390f35b3480156102a257600080fd5b506102bd60048036038101906102b89190611de3565b610ad1565b6040516102cb929190612293565b60405180910390f35b3480156102e057600080fd5b506102e9610c49565b6040516102f691906122c3565b60405180910390f35b34801561030b57600080fd5b50610314610dbd565b005b34801561032257600080fd5b5061032b610f43565b6040516103389190612226565b60405180910390f35b34801561034d57600080fd5b50610356610f6d565b6040516103639190612226565b60405180910390f35b34801561037857600080fd5b50610381610f96565b60405161038e9190612226565b60405180910390f35b3480156103a357600080fd5b506103be60048036038101906103b99190611d8f565b610fc0565b6040516103cb9190612364565b60405180910390f35b3480156103e057600080fd5b506103fb60048036038101906103f69190611f22565b611077565b60405161040891906122de565b60405180910390f35b34801561041d57600080fd5b5061043860048036038101906104339190611f22565b611089565b005b34801561044657600080fd5b50610461600480360381019061045c9190611d8f565b61115b565b005b34801561046f57600080fd5b5061048a60048036038101906104859190611e4d565b61133c565b6040516104979190612364565b60405180910390f35b3480156104ac57600080fd5b506104b561134e565b005b3480156104c357600080fd5b506104de60048036038101906104d99190611de3565b61145f565b6040516104eb9190612241565b60405180910390f35b34801561050057600080fd5b5061050961164f565b6040516105169190612226565b60405180910390f35b34801561052b57600080fd5b5061054660048036038101906105419190611f22565b611679565b60405161055391906122c3565b60405180910390f35b34801561056857600080fd5b50610583600480360381019061057e9190611ccf565b611692565b005b34801561059157600080fd5b506105ac60048036038101906105a79190611d4a565b61189d565b6040516105b99190612226565b60405180910390f35b6000600660009054906101000a900473ffffffffffffffffffffffffffffffffffffffff1673ffffffffffffffffffffffffffffffffffffffff1663d6e4fa86836040518263ffffffff1660e01b815260040161061f9190612364565b60206040518083038186803b15801561063757600080fd5b505afa15801561064b573d6000803e3d6000fd5b505050506040513d601f19601f8201168201806040525081019061066f9190611f4b565b9050919050565b61067e611a55565b73ffffffffffffffffffffffffffffffffffffffff1660008054906101000a900473ffffffffffffffffffffffffffffffffffffffff1673ffffffffffffffffffffffffffffffffffffffff161461073e576040517f08c379a00000000000000000000000000000000000000000000000000000000081526004018080602001828103825260208152602001807f4f776e61626c653a2063616c6c6572206973206e6f7420746865206f776e657281525060200191505060405180910390fd5b80600960006101000a81548173ffffffffffffffffffffffffffffffffffffffff021916908373ffffffffffffffffffffffffffffffffffffffff16021790555050565b6000600860009054906101000a900473ffffffffffffffffffffffffffffffffffffffff1673ffffffffffffffffffffffffffffffffffffffff166383e7f6ff84846040518363ffffffff1660e01b81526004016107e1929190612314565b60206040518083038186803b1580156107f957600080fd5b505afa15801561080d573d6000803e3d6000fd5b505050506040513d601f19601f820116820180604052508101906108319190611f4b565b905092915050565b60008060005b835181101561087f5761086484828151811061085757fe5b6020026020010151611679565b156108725781806001019250505b808060010191505061083f565b5080915050919050565b610891611a55565b73ffffffffffffffffffffffffffffffffffffffff1660008054906101000a900473ffffffffffffffffffffffffffffffffffffffff1673ffffffffffffffffffffffffffffffffffffffff1614610951576040517f08c379a00000000000000000000000000000000000000000000000000000000081526004018080602001828103825260208152602001807f4f776e61626c653a2063616c6c6572206973206e6f7420746865206f776e657281525060200191505060405180910390fd5b80600660006101000a81548173ffffffffffffffffffffffffffffffffffffffff021916908373ffffffffffffffffffffffffffffffffffffffff160217905550600660009054906101000a900473ffffffffffffffffffffffffffffffffffffffff1673ffffffffffffffffffffffffffffffffffffffff16633f15457f6040518163ffffffff1660e01b815260040160206040518083038186803b1580156109fa57600080fd5b505afa158015610a0e573d6000803e3d6000fd5b505050506040513d601f19601f82011682018060405250810190610a329190611cf8565b600760006101000a81548173ffffffffffffffffffffffffffffffffffffffff021916908373ffffffffffffffffffffffffffffffffffffffff16021790555050565b6000818484604051602001610a8b92919061220d565b60405160208183030381529060405280519060200120604051602001610ab29291906121e1565b6040516020818303038152906040528051906020012090509392505050565b6060600080610adf84610839565b9050600060608267ffffffffffffffff81118015610afc57600080fd5b50604051908082528060200260200182016040528015610b2b5781602001602082028036833780820191505090505b5090506000805b8751811015610b9e57610b57888281518110610b4a57fe5b6020026020010151611679565b15610b9157878181518110610b6857fe5b6020026020010151838381518110610b7c57fe5b60200260200101818152505081806001019250505b8080600101915050610b32565b5060608467ffffffffffffffff81118015610bb857600080fd5b50604051908082528060200260200182016040528015610bec57816020015b6060815260200190600190039081610bd75790505b509050610bf88361145f565b90506001851415610c2a57610c2381600081518110610c1357fe5b6020026020010151600554610782565b9350610c39565b610c3681600554610fc0565b93505b8284965096505050505050915091565b6000600960009054906101000a900473ffffffffffffffffffffffffffffffffffffffff1673ffffffffffffffffffffffffffffffffffffffff16633f15457f6040518163ffffffff1660e01b815260040160206040518083038186803b158015610cb357600080fd5b505afa158015610cc7573d6000803e3d6000fd5b505050506040513d601f19601f82011682018060405250810190610ceb9190611cf8565b73ffffffffffffffffffffffffffffffffffffffff16600660009054906101000a900473ffffffffffffffffffffffffffffffffffffffff1673ffffffffffffffffffffffffffffffffffffffff16633f15457f6040518163ffffffff1660e01b815260040160206040518083038186803b158015610d6957600080fd5b505afa158015610d7d573d6000803e3d6000fd5b505050506040513d601f19601f82011682018060405250810190610da19190611cf8565b73ffffffffffffffffffffffffffffffffffffffff1614905090565b610dc5611a55565b73ffffffffffffffffffffffffffffffffffffffff1660008054906101000a900473ffffffffffffffffffffffffffffffffffffffff1673ffffffffffffffffffffffffffffffffffffffff1614610e85576040517f08c379a00000000000000000000000000000000000000000000000000000000081526004018080602001828103825260208152602001807f4f776e61626c653a2063616c6c6572206973206e6f7420746865206f776e657281525060200191505060405180910390fd5b600073ffffffffffffffffffffffffffffffffffffffff1660008054906101000a900473ffffffffffffffffffffffffffffffffffffffff1673ffffffffffffffffffffffffffffffffffffffff167f8be0079c531659141344cd1fd0a4f28419497f9722a3daafe3b4186f6b6457e060405160405180910390a360008060006101000a81548173ffffffffffffffffffffffffffffffffffffffff021916908373ffffffffffffffffffffffffffffffffffffffff160217905550565b6000600960009054906101000a900473ffffffffffffffffffffffffffffffffffffffff16905090565b60008060009054906101000a900473ffffffffffffffffffffffffffffffffffffffff16905090565b6000600760009054906101000a900473ffffffffffffffffffffffffffffffffffffffff16905090565b6000600960009054906101000a900473ffffffffffffffffffffffffffffffffffffffff1673ffffffffffffffffffffffffffffffffffffffff16633971d46784846040518363ffffffff1660e01b815260040161101f929190612263565b60206040518083038186803b15801561103757600080fd5b505afa15801561104b573d6000803e3d6000fd5b505050506040513d601f19601f8201168201806040525081019061106f9190611f4b565b905092915050565b6000808260001b905080915050919050565b611091611a55565b73ffffffffffffffffffffffffffffffffffffffff1660008054906101000a900473ffffffffffffffffffffffffffffffffffffffff1673ffffffffffffffffffffffffffffffffffffffff1614611151576040517f08c379a00000000000000000000000000000000000000000000000000000000081526004018080602001828103825260208152602001807f4f776e61626c653a2063616c6c6572206973206e6f7420746865206f776e657281525060200191505060405180910390fd5b8060058190555050565b600081141561116a5760055490505b6000633150bfba60e01b9050600960009054906101000a900473ffffffffffffffffffffffffffffffffffffffff1673ffffffffffffffffffffffffffffffffffffffff166301ffc9a7826040518263ffffffff1660e01b81526004016111d191906122f9565b60206040518083038186803b1580156111e957600080fd5b505afa1580156111fd573d6000803e3d6000fd5b505050506040513d601f19601f820116820180604052508101906112219190611e24565b611260576040517f08c379a000000000000000000000000000000000000000000000000000000000815260040161125790612344565b60405180910390fd5b600960009054906101000a900473ffffffffffffffffffffffffffffffffffffffff1673ffffffffffffffffffffffffffffffffffffffff1663e8d6dbb44785856040518463ffffffff1660e01b81526004016112be929190612263565b6000604051808303818588803b1580156112d757600080fd5b505af11580156112eb573d6000803e3d6000fd5b50505050503373ffffffffffffffffffffffffffffffffffffffff166108fc479081150290604051600060405180830381858888f19350505050158015611336573d6000803e3d6000fd5b50505050565b6000808260001c905080915050919050565b611356611a55565b73ffffffffffffffffffffffffffffffffffffffff1660008054906101000a900473ffffffffffffffffffffffffffffffffffffffff1673ffffffffffffffffffffffffffffffffffffffff1614611416576040517f08c379a00000000000000000000000000000000000000000000000000000000081526004018080602001828103825260208152602001807f4f776e61626c653a2063616c6c6572206973206e6f7420746865206f776e657281525060200191505060405180910390fd5b3373ffffffffffffffffffffffffffffffffffffffff166108fc479081150290604051600060405180830381858888f1935050505015801561145c573d6000803e3d6000fd5b50565b606080825167ffffffffffffffff8111801561147a57600080fd5b506040519080825280602002602001820160405280156114ae57816020015b60608152602001906001900390816114995790505b50905060005b83518110156116455760008482815181106114cb57fe5b60200260200101519050600081141561152c576040518060400160405280600181526020017f300000000000000000000000000000000000000000000000000000000000000081525083838151811061152057fe5b60200260200101819052505b600081905060005b60008214611556578080600101915050600a828161154e57fe5b049150611534565b60608167ffffffffffffffff8111801561156f57600080fd5b506040519080825280601f01601f1916602001820160405280156115a25781602001600182028036833780820191505090505b50905060006001830390505b6000851461161b57600a85816115c057fe5b0660300160f81b828280600190039350815181106115da57fe5b60200101907effffffffffffffffffffffffffffffffffffffffffffffffffffffffffffff1916908160001a905350600a858161161357fe5b0494506115ae565b8187878151811061162857fe5b6020026020010181905250505050505080806001019150506114b4565b5080915050919050565b6000600660009054906101000a900473ffffffffffffffffffffffffffffffffffffffff16905090565b60006005544203611689836105c2565b11159050919050565b61169a611a55565b73ffffffffffffffffffffffffffffffffffffffff1660008054906101000a900473ffffffffffffffffffffffffffffffffffffffff1673ffffffffffffffffffffffffffffffffffffffff161461175a576040517f08c379a00000000000000000000000000000000000000000000000000000000081526004018080602001828103825260208152602001807f4f776e61626c653a2063616c6c6572206973206e6f7420746865206f776e657281525060200191505060405180910390fd5b600073ffffffffffffffffffffffffffffffffffffffff168173ffffffffffffffffffffffffffffffffffffffff1614156117e0576040517f08c379a000000000000000000000000000000000000000000000000000000000815260040180806020018281038252602681526020018061269c6026913960400191505060405180910390fd5b8073ffffffffffffffffffffffffffffffffffffffff1660008054906101000a900473ffffffffffffffffffffffffffffffffffffffff1673ffffffffffffffffffffffffffffffffffffffff167f8be0079c531659141344cd1fd0a4f28419497f9722a3daafe3b4186f6b6457e060405160405180910390a3806000806101000a81548173ffffffffffffffffffffffffffffffffffffffff021916908373ffffffffffffffffffffffffffffffffffffffff16021790555050565b6000806118c8848460008181106118b057fe5b90506020028101906118c2919061237f565b83610a75565b90506000600190505b84849050811015611912576119038585838181106118eb57fe5b90506020028101906118fd919061237f565b84610a75565b915080806001019150506118d1565b506000600760009054906101000a900473ffffffffffffffffffffffffffffffffffffffff1673ffffffffffffffffffffffffffffffffffffffff16630178b8bf836040518263ffffffff1660e01b815260040161197091906122de565b60206040518083038186803b15801561198857600080fd5b505afa15801561199c573d6000803e3d6000fd5b505050506040513d601f19601f820116820180604052508101906119c09190611cf8565b90508073ffffffffffffffffffffffffffffffffffffffff16633b3b57de836040518263ffffffff1660e01b81526004016119fb91906122de565b60206040518083038186803b158015611a1357600080fd5b505afa158015611a27573d6000803e3d6000fd5b505050506040513d601f19601f82011682018060405250810190611a4b9190611d21565b9250505092915050565b600033905090565b600081359050611a6c81612628565b92915050565b600081519050611a8181612628565b92915050565b600081519050611a968161263f565b92915050565b60008083601f840112611aae57600080fd5b8235905067ffffffffffffffff811115611ac757600080fd5b602083019150836020820283011115611adf57600080fd5b9250929050565b600082601f830112611af757600080fd5b8135611b0a611b0582612407565b6123d6565b9150818183526020840193506020810190508360005b83811015611b505781358601611b368882611c51565b845260208401935060208301925050600181019050611b20565b5050505092915050565b600082601f830112611b6b57600080fd5b8135611b7e611b7982612433565b6123d6565b91508181835260208401935060208101905083856020840282011115611ba357600080fd5b60005b83811015611bd35781611bb98882611ca5565b845260208401935060208301925050600181019050611ba6565b5050505092915050565b600081519050611bec81612656565b92915050565b600081359050611c018161266d565b92915050565b60008083601f840112611c1957600080fd5b8235905067ffffffffffffffff811115611c3257600080fd5b602083019150836001820283011115611c4a57600080fd5b9250929050565b600082601f830112611c6257600080fd5b8135611c75611c708261245f565b6123d6565b91508082526020830160208301858383011115611c9157600080fd5b611c9c8382846125c9565b50505092915050565b600081359050611cb481612684565b92915050565b600081519050611cc981612684565b92915050565b600060208284031215611ce157600080fd5b6000611cef84828501611a5d565b91505092915050565b600060208284031215611d0a57600080fd5b6000611d1884828501611a72565b91505092915050565b600060208284031215611d3357600080fd5b6000611d4184828501611a87565b91505092915050565b60008060208385031215611d5d57600080fd5b600083013567ffffffffffffffff811115611d7757600080fd5b611d8385828601611a9c565b92509250509250929050565b60008060408385031215611da257600080fd5b600083013567ffffffffffffffff811115611dbc57600080fd5b611dc885828601611ae6565b9250506020611dd985828601611ca5565b9150509250929050565b600060208284031215611df557600080fd5b600082013567ffffffffffffffff811115611e0f57600080fd5b611e1b84828501611b5a565b91505092915050565b600060208284031215611e3657600080fd5b6000611e4484828501611bdd565b91505092915050565b600060208284031215611e5f57600080fd5b6000611e6d84828501611bf2565b91505092915050565b600080600060408486031215611e8b57600080fd5b600084013567ffffffffffffffff811115611ea557600080fd5b611eb186828701611c07565b93509350506020611ec486828701611bf2565b9150509250925092565b60008060408385031215611ee157600080fd5b600083013567ffffffffffffffff811115611efb57600080fd5b611f0785828601611c51565b9250506020611f1885828601611ca5565b9150509250929050565b600060208284031215611f3457600080fd5b6000611f4284828501611ca5565b91505092915050565b600060208284031215611f5d57600080fd5b6000611f6b84828501611cba565b91505092915050565b6000611f8083836120eb565b905092915050565b6000611f9483836121c3565b60208301905092915050565b611fa981612539565b82525050565b6000611fba826124af565b611fc481856124ea565b935083602082028501611fd68561248f565b8060005b858110156120125784840389528151611ff38582611f74565b9450611ffe836124d0565b925060208a01995050600181019050611fda565b50829750879550505050505092915050565b600061202f826124ba565b61203981856124fb565b93506120448361249f565b8060005b8381101561207557815161205c8882611f88565b9750612067836124dd565b925050600181019050612048565b5085935050505092915050565b61208b8161255d565b82525050565b61209a81612569565b82525050565b6120b16120ac82612569565b61260b565b82525050565b6120c081612573565b82525050565b60006120d2838561252e565b93506120df8385846125c9565b82840190509392505050565b60006120f6826124c5565b612100818561250c565b93506121108185602086016125d8565b61211981612617565b840191505092915050565b600061212f826124c5565b612139818561251d565b93506121498185602086016125d8565b61215281612617565b840191505092915050565b600061216a60218361251d565b91507f496e636f727265637420454e532042756c6b52656e6577616c2061646472657360008301527f73000000000000000000000000000000000000000000000000000000000000006020830152604082019050919050565b6121cc816125bf565b82525050565b6121db816125bf565b82525050565b60006121ed82856120a0565b6020820191506121fd82846120a0565b6020820191508190509392505050565b600061221a8284866120c6565b91508190509392505050565b600060208201905061223b6000830184611fa0565b92915050565b6000602082019050818103600083015261225b8184611faf565b905092915050565b6000604082019050818103600083015261227d8185611faf565b905061228c60208301846121d2565b9392505050565b600060408201905081810360008301526122ad8185612024565b90506122bc60208301846121d2565b9392505050565b60006020820190506122d86000830184612082565b92915050565b60006020820190506122f36000830184612091565b92915050565b600060208201905061230e60008301846120b7565b92915050565b6000604082019050818103600083015261232e8185612124565b905061233d60208301846121d2565b9392505050565b6000602082019050818103600083015261235d8161215d565b9050919050565b600060208201905061237960008301846121d2565b92915050565b6000808335600160200384360303811261239857600080fd5b80840192508235915067ffffffffffffffff8211156123b657600080fd5b6020830192506001820236038313156123ce57600080fd5b509250929050565b6000604051905081810181811067ffffffffffffffff821117156123fd576123fc612615565b5b8060405250919050565b600067ffffffffffffffff82111561242257612421612615565b5b602082029050602081019050919050565b600067ffffffffffffffff82111561244e5761244d612615565b5b602082029050602081019050919050565b600067ffffffffffffffff82111561247a57612479612615565b5b601f19601f8301169050602081019050919050565b6000819050602082019050919050565b6000819050602082019050919050565b600081519050919050565b600081519050919050565b600081519050919050565b6000602082019050919050565b6000602082019050919050565b600082825260208201905092915050565b600082825260208201905092915050565b600082825260208201905092915050565b600082825260208201905092915050565b600081905092915050565b60006125448261259f565b9050919050565b60006125568261259f565b9050919050565b60008115159050919050565b6000819050919050565b60007fffffffff0000000000000000000000000000000000000000000000000000000082169050919050565b600073ffffffffffffffffffffffffffffffffffffffff82169050919050565b6000819050919050565b82818337600083830152505050565b60005b838110156125f65780820151818401526020810190506125db565b83811115612605576000848401525b50505050565b6000819050919050565bfe5b6000601f19601f8301169050919050565b61263181612539565b811461263c57600080fd5b50565b6126488161254b565b811461265357600080fd5b50565b61265f8161255d565b811461266a57600080fd5b50565b61267681612569565b811461268157600080fd5b50565b61268d816125bf565b811461269857600080fd5b5056fe4f776e61626c653a206e6577206f776e657220697320746865207a65726f2061646472657373a26469706673582212207d2de39a3fd7c5404e4da7a2504fd509e0015b517924f34d977413544325a59d64736f6c63430007040033",
  "immutableReferences": {},
  "source": "// SPDX-License-Identifier: MIT\r\npragma solidity ^0.7.4;\r\npragma experimental ABIEncoderV2;\r\n\r\nimport \"@openzeppelin/contracts/math/SafeMath.sol\";\r\nimport \"@openzeppelin/contracts/access/Ownable.sol\";\r\nimport \"interfaces/ENS_Registry.sol\";\r\nimport \"interfaces/ENS_BaseRegistrar.sol\";\r\nimport \"interfaces/ENS_BulkRenewal.sol\";\r\nimport \"interfaces/ENS_Resolver.sol\";\r\nimport \"interfaces/ENS_RegistrarController.sol\";\r\n\r\n/// @title StakeYourName - NameManager\r\n/// @notice Maintains a list of users and names they want to keep renewed\r\n/// @notice Can check for name expiry and pay for renewals\r\n/// @author Daniel Chilvers\r\n\r\n\r\ncontract NameManager is Ownable {\r\n    /// @dev can probably remove ensRegistryAddress as it can be discovered from the Registrar\r\n    address internal ensRegistryAddress = 0x00000000000C2E074eC69A0dFb2997BA6C7d2e1e;\r\n    address internal baseRegistrarAddress = 0x57f1887a8BF19b14fC0dF6Fd9B2acc9Af147eA85;\r\n    address internal bulkRenewalAddress = 0xfF252725f6122A92551A5FA9a6b6bf10eb0Be035;\r\n    address internal RegistrarControllerAddress = 0x283Af0B28c62C092C9727F1Ee09c02CA627EB7F5;\r\n    uint256 internal renewalPeriod = 28 days;\r\n\r\n    BaseRegistrar ensReg;\r\n    ENS ens;\r\n    ENSRegistrarController ensRegController;\r\n    BulkRenewal ensBulkRenewal;\r\n    ENSResolver ensResolver;\r\n\r\n    /// @dev map user address to arrays of their names and expiry times\r\n    //mapping (address => uint256[]) names;\r\n\r\n    /// @dev map names to the users that are funding them\r\n    //mapping (uint256 => address[]) users;\r\n\r\n    uint256[] nameList;\r\n\r\n    constructor(uint256 _networkID) {\r\n        if (_networkID == 1 || _networkID == 3){\r\n            ensReg = BaseRegistrar(baseRegistrarAddress);\r\n            ens = ENS(ensReg.ens());\r\n            ensBulkRenewal = BulkRenewal(bulkRenewalAddress);\r\n            ensRegController = ENSRegistrarController(RegistrarControllerAddress);\r\n        } else if (_networkID == 42){\r\n            ensReg = BaseRegistrar(address(0));\r\n            ens = ENS(ensReg.ens());\r\n            ensBulkRenewal = BulkRenewal(bulkRenewalAddress);\r\n            ensRegController = ENSRegistrarController(RegistrarControllerAddress);\r\n        } \r\n    }\r\n\r\n    receive() external payable {}\r\n\r\n    function executeBulkRenewal(string[] memory _names, uint256 _duration) external {\r\n        if(_duration == 0){ _duration = renewalPeriod;}\r\n        bytes4 _interfaceID = 0x3150bfba;\r\n        require(ensBulkRenewal.supportsInterface(_interfaceID),\"Incorrect ENS BulkRenewal address\");\r\n        ensBulkRenewal.renewAll{value:address(this).balance}(_names, _duration);\r\n        msg.sender.transfer(address(this).balance);\r\n    }\r\n\r\n    function checkBulkPrice(string[] memory _names, uint256 _duration) public view returns(uint256) {\r\n        return ensBulkRenewal.rentPrice(_names, _duration);\r\n    }\r\n\r\n    function checkPrice(string memory _name, uint256 _duration) public view returns(uint256) {\r\n        return ensRegController.rentPrice(_name, _duration);\r\n    }\r\n\r\n\r\n    function uintArrayToStringsArray(uint256[] memory _ints) public pure returns(string[] memory){\r\n        string[] memory _strings = new string[](_ints.length);    \r\n        for (uint i; i < _ints.length; i++){\r\n            uint256 _i = _ints[i];\r\n            if (_i == 0) {\r\n                _strings[i] = \"0\";\r\n            }\r\n            uint j = _i;\r\n            uint len;\r\n            while (j != 0) {\r\n                len++;\r\n                j /= 10;\r\n            }\r\n            bytes memory bstr = new bytes(len);\r\n            uint k = len - 1;\r\n            while (_i != 0) {\r\n                bstr[k--] = byte(uint8(48 + _i % 10));\r\n                _i /= 10;\r\n            }\r\n            _strings[i] = string(bstr);\r\n        }\r\n        return _strings;\r\n    }\r\n\r\n    /// @notice pass in an array of names and return the ones that are due for renewal and the total cost.\r\n    function checkForRenewals(uint256[] memory _nameList) public view returns(uint256[] memory, uint256){\r\n        uint256 _count = countRenewals(_nameList);\r\n        uint256 _price;\r\n        uint256[] memory _names = new uint256[](_count);\r\n        uint256 _j;\r\n        for (uint i; i < _nameList.length; i++) {\r\n            if(renewalDue(_nameList[i])) {\r\n                _names[_j] = _nameList[i];\r\n                _j++;\r\n            }\r\n        }\r\n        string[] memory _strNames = new string[](_count);\r\n        _strNames = uintArrayToStringsArray(_names);\r\n        if(_count == 1){\r\n            _price = checkPrice(_strNames[0], renewalPeriod);\r\n        } else {\r\n            _price = checkBulkPrice(_strNames, renewalPeriod); \r\n        }\r\n        return (_names, _price);\r\n    }\r\n\r\n    function countRenewals(uint256[] memory _nameList) public view returns (uint256){\r\n        uint256 _count;\r\n        for (uint i; i < _nameList.length; i++) {\r\n            if(renewalDue(_nameList[i])) {\r\n                _count++;\r\n            }\r\n        }\r\n        return (_count);\r\n    }\r\n\r\n \r\n    /*\r\n    *\r\n    *   ENS Related Functions\r\n    *\r\n    */\r\n\r\n    /// @notice pass in either the _name or _nameHash to resolve an address\r\n    function resolveName(string[] calldata _name) public view returns(address){\r\n        bytes32 _nameHash;\r\n        _nameHash = computeHash(_name[0], _nameHash);\r\n        for (uint256 i = 1; i < _name.length; i++){\r\n            _nameHash = computeHash(_name[i], _nameHash); \r\n        }\r\n        ENSResolver _ensResolver =  ENSResolver(ens.resolver(_nameHash));\r\n        return(_ensResolver.addr(_nameHash));\r\n    }\r\n\r\n    function renewalDue(uint256 _labelhash) public view returns(bool) {\r\n        return (getNameExpiry(_labelhash) <= block.timestamp - renewalPeriod);\r\n    }\r\n\r\n    function updateRenewalPeriod(uint256 _time) public onlyOwner {\r\n        renewalPeriod = _time;\r\n    }\r\n\r\n    // @notice Update registrar and/or associated registry\r\n    // @dev Hopefully never needed\r\n    function updateRegistrar(address _address) external onlyOwner {\r\n        ensReg = BaseRegistrar(_address);\r\n        ens = ENS(ensReg.ens());\r\n    } \r\n    function updateBulkRenewal(address _address) external onlyOwner {\r\n        ensBulkRenewal = BulkRenewal(_address);\r\n    } \r\n    // @dev make me internal once testing is done\r\n    function getNameExpiry(uint256 _name) public view returns(uint256){\r\n        return ensReg.nameExpires(_name);\r\n    }\r\n\r\n    // @notice find out which contracts we're talking to\r\n    function returnEnsAddress() public view returns(address){\r\n        return address(ens);\r\n    }\r\n    function returnEnsRegAddress() public view returns(address){\r\n        return address(ensReg);\r\n    }\r\n    function returnBulkRenewalAddress() public view returns(address){\r\n        return address(ensBulkRenewal);\r\n    }\r\n    /// @dev always fails on testnet because they didn't impletment bulk renewal there\r\n    function checkRegistryMatches() public view returns(bool){\r\n        return (ensReg.ens() == ensBulkRenewal.ens());\r\n    }\r\n\r\n    /// @notice funtions to help out with ENS integration\r\n    function convertBytesToUint(bytes32 _bytes) public pure returns(uint256){\r\n        uint256 _uint = uint256(_bytes);\r\n        return (_uint);\r\n    }\r\n    function convertUintToBytes(uint256 _uint) public pure returns(bytes32){\r\n        bytes32 _bytes = bytes32(_uint);\r\n        return (_bytes);\r\n    }\r\n\r\n    // @dev this could be expensive, lets do this off-chain where possible\r\n    function computeHash(string calldata _subdomain, bytes32 _name) public pure returns (bytes32 namehash) {\r\n        namehash = keccak256(abi.encodePacked(_name, keccak256(abi.encodePacked(_subdomain))));\r\n    }\r\n\r\n    // for testing purposes\r\n    function retrieveETH() external onlyOwner {\r\n        msg.sender.transfer(address(this).balance);\r\n    }\r\n\r\n}\r\n",
  "sourcePath": "C:/Users/anyth/Documents/GitHub/StakeYourName/contracts/NameManager.sol",
  "compiler": {
    "name": "solc",
    "version": "0.7.4+commit.3f05b770.Emscripten.clang"
  },
  "schemaVersion": "3.3.3",
  "updatedAt": "2021-01-30T14:15:55.440Z",
  "devdoc": {
    "author": "Daniel Chilvers",
    "kind": "dev",
    "methods": {
      "checkRegistryMatches()": {
        "details": "always fails on testnet because they didn't impletment bulk renewal there"
      },
      "owner()": {
        "details": "Returns the address of the current owner."
      },
      "renounceOwnership()": {
        "details": "Leaves the contract without owner. It will not be possible to call `onlyOwner` functions anymore. Can only be called by the current owner. NOTE: Renouncing ownership will leave the contract without an owner, thereby removing any functionality that is only available to the owner."
      },
      "transferOwnership(address)": {
        "details": "Transfers ownership of the contract to a new account (`newOwner`). Can only be called by the current owner."
      }
    },
    "stateVariables": {
      "ensRegistryAddress": {
        "details": "can probably remove ensRegistryAddress as it can be discovered from the Registrar"
      },
      "nameList": {
        "details": "map names to the users that are funding them"
      }
    },
    "title": "StakeYourName - NameManager",
    "version": 1
  },
  "userdoc": {
    "kind": "user",
    "methods": {
      "checkForRenewals(uint256[])": {
        "notice": "pass in an array of names and return the ones that are due for renewal and the total cost."
      },
      "convertBytesToUint(bytes32)": {
        "notice": "funtions to help out with ENS integration"
      },
      "resolveName(string[])": {
        "notice": "pass in either the _name or _nameHash to resolve an address"
      }
    },
    "notice": "Maintains a list of users and names they want to keep renewedCan check for name expiry and pay for renewals",
    "version": 1
  }
}