{
  "contractName": "NameManager",
  "abi": [
    {
      "inputs": [],
      "stateMutability": "nonpayable",
      "type": "constructor"
    },
    {
      "anonymous": false,
      "inputs": [
        {
          "indexed": true,
          "internalType": "address",
          "name": "previousOwner",
          "type": "address"
        },
        {
          "indexed": true,
          "internalType": "address",
          "name": "newOwner",
          "type": "address"
        }
      ],
      "name": "OwnershipTransferred",
      "type": "event"
    },
    {
      "inputs": [],
      "name": "owner",
      "outputs": [
        {
          "internalType": "address",
          "name": "",
          "type": "address"
        }
      ],
      "stateMutability": "view",
      "type": "function"
    },
    {
      "inputs": [],
      "name": "renounceOwnership",
      "outputs": [],
      "stateMutability": "nonpayable",
      "type": "function"
    },
    {
      "inputs": [
        {
          "internalType": "address",
          "name": "newOwner",
          "type": "address"
        }
      ],
      "name": "transferOwnership",
      "outputs": [],
      "stateMutability": "nonpayable",
      "type": "function"
    },
    {
      "inputs": [
        {
          "internalType": "string[]",
          "name": "_names",
          "type": "string[]"
        },
        {
          "internalType": "uint256",
          "name": "_duration",
          "type": "uint256"
        }
      ],
      "name": "checkBulkPrice",
      "outputs": [
        {
          "internalType": "uint256",
          "name": "",
          "type": "uint256"
        }
      ],
      "stateMutability": "view",
      "type": "function"
    },
    {
      "inputs": [
        {
          "internalType": "string",
          "name": "_name",
          "type": "string"
        },
        {
          "internalType": "uint256",
          "name": "_duration",
          "type": "uint256"
        }
      ],
      "name": "checkPrice",
      "outputs": [
        {
          "internalType": "uint256",
          "name": "",
          "type": "uint256"
        }
      ],
      "stateMutability": "view",
      "type": "function"
    },
    {
      "inputs": [
        {
          "internalType": "uint256[]",
          "name": "_ints",
          "type": "uint256[]"
        }
      ],
      "name": "uintArrayToStringsArray",
      "outputs": [
        {
          "internalType": "string[]",
          "name": "",
          "type": "string[]"
        }
      ],
      "stateMutability": "pure",
      "type": "function"
    },
    {
      "inputs": [
        {
          "internalType": "uint256[]",
          "name": "_nameList",
          "type": "uint256[]"
        }
      ],
      "name": "checkForRenewals",
      "outputs": [
        {
          "internalType": "uint256[]",
          "name": "",
          "type": "uint256[]"
        },
        {
          "internalType": "uint256",
          "name": "",
          "type": "uint256"
        }
      ],
      "stateMutability": "view",
      "type": "function"
    },
    {
      "inputs": [
        {
          "internalType": "string",
          "name": "_name",
          "type": "string"
        },
        {
          "internalType": "bytes32",
          "name": "_nameHash",
          "type": "bytes32"
        }
      ],
      "name": "resolveName",
      "outputs": [
        {
          "internalType": "address",
          "name": "",
          "type": "address"
        }
      ],
      "stateMutability": "nonpayable",
      "type": "function"
    },
    {
      "inputs": [
        {
          "internalType": "uint256",
          "name": "_labelhash",
          "type": "uint256"
        }
      ],
      "name": "renewalDue",
      "outputs": [
        {
          "internalType": "bool",
          "name": "",
          "type": "bool"
        }
      ],
      "stateMutability": "view",
      "type": "function"
    },
    {
      "inputs": [
        {
          "internalType": "uint256",
          "name": "_time",
          "type": "uint256"
        }
      ],
      "name": "updateRenewalPeriod",
      "outputs": [],
      "stateMutability": "nonpayable",
      "type": "function"
    },
    {
      "inputs": [
        {
          "internalType": "address",
          "name": "_address",
          "type": "address"
        }
      ],
      "name": "updateRegistrar",
      "outputs": [],
      "stateMutability": "nonpayable",
      "type": "function"
    },
    {
      "inputs": [
        {
          "internalType": "address",
          "name": "_address",
          "type": "address"
        }
      ],
      "name": "updateBulkRenewal",
      "outputs": [],
      "stateMutability": "nonpayable",
      "type": "function"
    },
    {
      "inputs": [
        {
          "internalType": "uint256",
          "name": "_name",
          "type": "uint256"
        }
      ],
      "name": "getNameExpiry",
      "outputs": [
        {
          "internalType": "uint256",
          "name": "",
          "type": "uint256"
        }
      ],
      "stateMutability": "view",
      "type": "function"
    },
    {
      "inputs": [],
      "name": "returnEnsAddress",
      "outputs": [
        {
          "internalType": "address",
          "name": "",
          "type": "address"
        }
      ],
      "stateMutability": "view",
      "type": "function"
    },
    {
      "inputs": [],
      "name": "returnEnsRegAddress",
      "outputs": [
        {
          "internalType": "address",
          "name": "",
          "type": "address"
        }
      ],
      "stateMutability": "view",
      "type": "function"
    },
    {
      "inputs": [],
      "name": "returnBulkRenewalAddress",
      "outputs": [
        {
          "internalType": "address",
          "name": "",
          "type": "address"
        }
      ],
      "stateMutability": "view",
      "type": "function"
    },
    {
      "inputs": [],
      "name": "checkRegistryMatches",
      "outputs": [
        {
          "internalType": "bool",
          "name": "",
          "type": "bool"
        }
      ],
      "stateMutability": "view",
      "type": "function"
    },
    {
      "inputs": [
        {
          "internalType": "bytes32",
          "name": "_bytes",
          "type": "bytes32"
        }
      ],
      "name": "convertBytesToUint",
      "outputs": [
        {
          "internalType": "uint256",
          "name": "",
          "type": "uint256"
        }
      ],
      "stateMutability": "pure",
      "type": "function"
    },
    {
      "inputs": [
        {
          "internalType": "uint256",
          "name": "_uint",
          "type": "uint256"
        }
      ],
      "name": "convertUintToBytes",
      "outputs": [
        {
          "internalType": "bytes32",
          "name": "",
          "type": "bytes32"
        }
      ],
      "stateMutability": "pure",
      "type": "function"
    },
    {
      "inputs": [
        {
          "internalType": "string",
          "name": "_name",
          "type": "string"
        }
      ],
      "name": "computeNamehash",
      "outputs": [
        {
          "internalType": "bytes32",
          "name": "namehash",
          "type": "bytes32"
        }
      ],
      "stateMutability": "pure",
      "type": "function"
    },
    {
      "inputs": [
        {
          "internalType": "string",
          "name": "_name",
          "type": "string"
        }
      ],
      "name": "computeLabelhash",
      "outputs": [
        {
          "internalType": "bytes32",
          "name": "namehash",
          "type": "bytes32"
        }
      ],
      "stateMutability": "pure",
      "type": "function"
    }
  ],
  "bytecode": "0x60806040526e0c2e074ec69a0dfb2997ba6c7d2e1e600160006101000a81548173ffffffffffffffffffffffffffffffffffffffff021916908373ffffffffffffffffffffffffffffffffffffffff1602179055507357f1887a8bf19b14fc0df6fd9b2acc9af147ea85600260006101000a81548173ffffffffffffffffffffffffffffffffffffffff021916908373ffffffffffffffffffffffffffffffffffffffff16021790555073ff252725f6122a92551a5fa9a6b6bf10eb0be035600360006101000a81548173ffffffffffffffffffffffffffffffffffffffff021916908373ffffffffffffffffffffffffffffffffffffffff16021790555073283af0b28c62c092c9727f1ee09c02ca627eb7f5600460006101000a81548173ffffffffffffffffffffffffffffffffffffffff021916908373ffffffffffffffffffffffffffffffffffffffff1602179055506224ea006005553480156200016757600080fd5b5060006200017a6200042b60201b60201c565b9050806000806101000a81548173ffffffffffffffffffffffffffffffffffffffff021916908373ffffffffffffffffffffffffffffffffffffffff1602179055508073ffffffffffffffffffffffffffffffffffffffff16600073ffffffffffffffffffffffffffffffffffffffff167f8be0079c531659141344cd1fd0a4f28419497f9722a3daafe3b4186f6b6457e060405160405180910390a350600260009054906101000a900473ffffffffffffffffffffffffffffffffffffffff16600660006101000a81548173ffffffffffffffffffffffffffffffffffffffff021916908373ffffffffffffffffffffffffffffffffffffffff160217905550600660009054906101000a900473ffffffffffffffffffffffffffffffffffffffff1673ffffffffffffffffffffffffffffffffffffffff16633f15457f6040518163ffffffff1660e01b815260040160206040518083038186803b158015620002e457600080fd5b505afa158015620002f9573d6000803e3d6000fd5b505050506040513d601f19601f820116820180604052508101906200031f91906200044a565b600760006101000a81548173ffffffffffffffffffffffffffffffffffffffff021916908373ffffffffffffffffffffffffffffffffffffffff160217905550600360009054906101000a900473ffffffffffffffffffffffffffffffffffffffff16600960006101000a81548173ffffffffffffffffffffffffffffffffffffffff021916908373ffffffffffffffffffffffffffffffffffffffff160217905550600460009054906101000a900473ffffffffffffffffffffffffffffffffffffffff16600860006101000a81548173ffffffffffffffffffffffffffffffffffffffff021916908373ffffffffffffffffffffffffffffffffffffffff160217905550620004c4565b600033905090565b6000815190506200044481620004aa565b92915050565b6000602082840312156200045d57600080fd5b60006200046d8482850162000433565b91505092915050565b600062000483826200048a565b9050919050565b600073ffffffffffffffffffffffffffffffffffffffff82169050919050565b620004b58162000476565b8114620004c157600080fd5b50565b6121b080620004d46000396000f3fe608060405234801561001057600080fd5b50600436106101375760003560e01c80638e8a40bd116100b8578063c671fd071161007c578063c671fd0714610363578063d3c08b1314610393578063e01e53d0146103c3578063eb765094146103f3578063f0e147d814610411578063f2fde38b1461044157610137565b80638e8a40bd14610299578063a474346c146102b7578063ae76173e146102e7578063af27a39c14610317578063bb452db41461033357610137565b80636ef4309f116100ff5780636ef4309f14610205578063715018a61461022357806375e2598d1461022d5780638bf4e3911461024b5780638da5cb5b1461027b57610137565b80630309cfa31461013c5780633031baaf1461016c5780633a5fc0f214610188578063592b700a146101b857806368a4f5c2146101d4575b600080fd5b61015660048036038101906101519190611ad0565b61045d565b6040516101639190611eb7565b60405180910390f35b610186600480360381019061018191906118a6565b610511565b005b6101a2600480360381019061019d9190611a7c565b61061d565b6040516101af9190611eb7565b60405180910390f35b6101d260048036038101906101cd91906118a6565b6106d4565b005b6101ee60048036038101906101e99190611975565b6108c0565b6040516101fc929190611e21565b60405180910390f35b61020d610a3d565b60405161021a9190611e51565b60405180910390f35b61022b610bb1565b005b610235610d37565b6040516102429190611db4565b60405180910390f35b61026560048036038101906102609190611a24565b610d61565b6040516102729190611db4565b60405180910390f35b610283610f1a565b6040516102909190611db4565b60405180910390f35b6102a1610f43565b6040516102ae9190611db4565b60405180910390f35b6102d160048036038101906102cc9190611921565b610f6d565b6040516102de9190611eb7565b60405180910390f35b61030160048036038101906102fc9190611ad0565b611024565b60405161030e9190611e6c565b60405180910390f35b610331600480360381019061032c9190611ad0565b611036565b005b61034d600480360381019061034891906119b6565b611108565b60405161035a9190611eb7565b60405180910390f35b61037d600480360381019061037891906119df565b61111a565b60405161038a9190611e6c565b60405180910390f35b6103ad60048036038101906103a891906119df565b61114d565b6040516103ba9190611e6c565b60405180910390f35b6103dd60048036038101906103d89190611975565b6111fd565b6040516103ea9190611dcf565b60405180910390f35b6103fb6113ed565b6040516104089190611db4565b60405180910390f35b61042b60048036038101906104269190611ad0565b611417565b6040516104389190611e51565b60405180910390f35b61045b600480360381019061045691906118a6565b611430565b005b6000600660009054906101000a900473ffffffffffffffffffffffffffffffffffffffff1673ffffffffffffffffffffffffffffffffffffffff1663d6e4fa86836040518263ffffffff1660e01b81526004016104ba9190611eb7565b60206040518083038186803b1580156104d257600080fd5b505afa1580156104e6573d6000803e3d6000fd5b505050506040513d601f19601f8201168201806040525081019061050a9190611af9565b9050919050565b61051961163b565b73ffffffffffffffffffffffffffffffffffffffff1660008054906101000a900473ffffffffffffffffffffffffffffffffffffffff1673ffffffffffffffffffffffffffffffffffffffff16146105d9576040517f08c379a00000000000000000000000000000000000000000000000000000000081526004018080602001828103825260208152602001807f4f776e61626c653a2063616c6c6572206973206e6f7420746865206f776e657281525060200191505060405180910390fd5b80600960006101000a81548173ffffffffffffffffffffffffffffffffffffffff021916908373ffffffffffffffffffffffffffffffffffffffff16021790555050565b6000600860009054906101000a900473ffffffffffffffffffffffffffffffffffffffff1673ffffffffffffffffffffffffffffffffffffffff166383e7f6ff84846040518363ffffffff1660e01b815260040161067c929190611e87565b60206040518083038186803b15801561069457600080fd5b505afa1580156106a8573d6000803e3d6000fd5b505050506040513d601f19601f820116820180604052508101906106cc9190611af9565b905092915050565b6106dc61163b565b73ffffffffffffffffffffffffffffffffffffffff1660008054906101000a900473ffffffffffffffffffffffffffffffffffffffff1673ffffffffffffffffffffffffffffffffffffffff161461079c576040517f08c379a00000000000000000000000000000000000000000000000000000000081526004018080602001828103825260208152602001807f4f776e61626c653a2063616c6c6572206973206e6f7420746865206f776e657281525060200191505060405180910390fd5b80600660006101000a81548173ffffffffffffffffffffffffffffffffffffffff021916908373ffffffffffffffffffffffffffffffffffffffff160217905550600660009054906101000a900473ffffffffffffffffffffffffffffffffffffffff1673ffffffffffffffffffffffffffffffffffffffff16633f15457f6040518163ffffffff1660e01b815260040160206040518083038186803b15801561084557600080fd5b505afa158015610859573d6000803e3d6000fd5b505050506040513d601f19601f8201168201806040525081019061087d91906118cf565b600760006101000a81548173ffffffffffffffffffffffffffffffffffffffff021916908373ffffffffffffffffffffffffffffffffffffffff16021790555050565b60606000806108ce84611643565b9050600060608267ffffffffffffffff811180156108eb57600080fd5b5060405190808252806020026020018201604052801561091a5781602001602082028036833780820191505090505b5090506000805b875181101561098d5761094688828151811061093957fe5b6020026020010151611417565b156109805787818151811061095757fe5b602002602001015183838151811061096b57fe5b60200260200101818152505081806001019250505b8080600101915050610921565b506060808567ffffffffffffffff811180156109a857600080fd5b506040519080825280602002602001820160405280156109dc57816020015b60608152602001906001900390816109c75790505b5090506109e8846111fd565b90506001861415610a1d5780600081518110610a0057fe5b60200260200101519150610a168260055461061d565b9450610a2c565b610a2981600554610f6d565b94505b838597509750505050505050915091565b6000600960009054906101000a900473ffffffffffffffffffffffffffffffffffffffff1673ffffffffffffffffffffffffffffffffffffffff16633f15457f6040518163ffffffff1660e01b815260040160206040518083038186803b158015610aa757600080fd5b505afa158015610abb573d6000803e3d6000fd5b505050506040513d601f19601f82011682018060405250810190610adf91906118cf565b73ffffffffffffffffffffffffffffffffffffffff16600660009054906101000a900473ffffffffffffffffffffffffffffffffffffffff1673ffffffffffffffffffffffffffffffffffffffff16633f15457f6040518163ffffffff1660e01b815260040160206040518083038186803b158015610b5d57600080fd5b505afa158015610b71573d6000803e3d6000fd5b505050506040513d601f19601f82011682018060405250810190610b9591906118cf565b73ffffffffffffffffffffffffffffffffffffffff1614905090565b610bb961163b565b73ffffffffffffffffffffffffffffffffffffffff1660008054906101000a900473ffffffffffffffffffffffffffffffffffffffff1673ffffffffffffffffffffffffffffffffffffffff1614610c79576040517f08c379a00000000000000000000000000000000000000000000000000000000081526004018080602001828103825260208152602001807f4f776e61626c653a2063616c6c6572206973206e6f7420746865206f776e657281525060200191505060405180910390fd5b600073ffffffffffffffffffffffffffffffffffffffff1660008054906101000a900473ffffffffffffffffffffffffffffffffffffffff1673ffffffffffffffffffffffffffffffffffffffff167f8be0079c531659141344cd1fd0a4f28419497f9722a3daafe3b4186f6b6457e060405160405180910390a360008060006101000a81548173ffffffffffffffffffffffffffffffffffffffff021916908373ffffffffffffffffffffffffffffffffffffffff160217905550565b6000600960009054906101000a900473ffffffffffffffffffffffffffffffffffffffff16905090565b60008060001b821415610d7b57610d78848461114d565b91505b600760009054906101000a900473ffffffffffffffffffffffffffffffffffffffff1673ffffffffffffffffffffffffffffffffffffffff16630178b8bf836040518263ffffffff1660e01b8152600401610dd69190611e6c565b60206040518083038186803b158015610dee57600080fd5b505afa158015610e02573d6000803e3d6000fd5b505050506040513d601f19601f82011682018060405250810190610e2691906118cf565b600a60006101000a81548173ffffffffffffffffffffffffffffffffffffffff021916908373ffffffffffffffffffffffffffffffffffffffff160217905550600a60009054906101000a900473ffffffffffffffffffffffffffffffffffffffff1673ffffffffffffffffffffffffffffffffffffffff16633b3b57de836040518263ffffffff1660e01b8152600401610ec19190611e6c565b60206040518083038186803b158015610ed957600080fd5b505afa158015610eed573d6000803e3d6000fd5b505050506040513d601f19601f82011682018060405250810190610f1191906118f8565b90509392505050565b60008060009054906101000a900473ffffffffffffffffffffffffffffffffffffffff16905090565b6000600760009054906101000a900473ffffffffffffffffffffffffffffffffffffffff16905090565b6000600960009054906101000a900473ffffffffffffffffffffffffffffffffffffffff1673ffffffffffffffffffffffffffffffffffffffff16633971d46784846040518363ffffffff1660e01b8152600401610fcc929190611df1565b60206040518083038186803b158015610fe457600080fd5b505afa158015610ff8573d6000803e3d6000fd5b505050506040513d601f19601f8201168201806040525081019061101c9190611af9565b905092915050565b6000808260001b905080915050919050565b61103e61163b565b73ffffffffffffffffffffffffffffffffffffffff1660008054906101000a900473ffffffffffffffffffffffffffffffffffffffff1673ffffffffffffffffffffffffffffffffffffffff16146110fe576040517f08c379a00000000000000000000000000000000000000000000000000000000081526004018080602001828103825260208152602001807f4f776e61626c653a2063616c6c6572206973206e6f7420746865206f776e657281525060200191505060405180910390fd5b8060058190555050565b6000808260001c905080915050919050565b6000828260405160200161112f929190611d86565b60405160208183030381529060405280519060200120905092915050565b60008060001b90508060405160200161116590611d9f565b6040516020818303038152906040528051906020012060405160200161118c929190611d5a565b6040516020818303038152906040528051906020012090508083836040516020016111b8929190611d86565b604051602081830303815290604052805190602001206040516020016111df929190611d5a565b60405160208183030381529060405280519060200120905092915050565b606080825167ffffffffffffffff8111801561121857600080fd5b5060405190808252806020026020018201604052801561124c57816020015b60608152602001906001900390816112375790505b50905060005b83518110156113e357600084828151811061126957fe5b6020026020010151905060008114156112ca576040518060400160405280600181526020017f30000000000000000000000000000000000000000000000000000000000000008152508383815181106112be57fe5b60200260200101819052505b600081905060005b600082146112f4578080600101915050600a82816112ec57fe5b0491506112d2565b60608167ffffffffffffffff8111801561130d57600080fd5b506040519080825280601f01601f1916602001820160405280156113405781602001600182028036833780820191505090505b50905060006001830390505b600085146113b957600a858161135e57fe5b0660300160f81b8282806001900393508151811061137857fe5b60200101907effffffffffffffffffffffffffffffffffffffffffffffffffffffffffffff1916908160001a905350600a85816113b157fe5b04945061134c565b818787815181106113c657fe5b602002602001018190525050505050508080600101915050611252565b5080915050919050565b6000600660009054906101000a900473ffffffffffffffffffffffffffffffffffffffff16905090565b600060055442036114278361045d565b11159050919050565b61143861163b565b73ffffffffffffffffffffffffffffffffffffffff1660008054906101000a900473ffffffffffffffffffffffffffffffffffffffff1673ffffffffffffffffffffffffffffffffffffffff16146114f8576040517f08c379a00000000000000000000000000000000000000000000000000000000081526004018080602001828103825260208152602001807f4f776e61626c653a2063616c6c6572206973206e6f7420746865206f776e657281525060200191505060405180910390fd5b600073ffffffffffffffffffffffffffffffffffffffff168173ffffffffffffffffffffffffffffffffffffffff16141561157e576040517f08c379a00000000000000000000000000000000000000000000000000000000081526004018080602001828103825260268152602001806121556026913960400191505060405180910390fd5b8073ffffffffffffffffffffffffffffffffffffffff1660008054906101000a900473ffffffffffffffffffffffffffffffffffffffff1673ffffffffffffffffffffffffffffffffffffffff167f8be0079c531659141344cd1fd0a4f28419497f9722a3daafe3b4186f6b6457e060405160405180910390a3806000806101000a81548173ffffffffffffffffffffffffffffffffffffffff021916908373ffffffffffffffffffffffffffffffffffffffff16021790555050565b600033905090565b60008060005b83518110156116895761166e84828151811061166157fe5b6020026020010151611417565b1561167c5781806001019250505b8080600101915050611649565b5080915050919050565b6000813590506116a2816120f8565b92915050565b6000815190506116b7816120f8565b92915050565b6000815190506116cc8161210f565b92915050565b600082601f8301126116e357600080fd5b81356116f66116f182611f03565b611ed2565b9150818183526020840193506020810190508360005b8381101561173c57813586016117228882611828565b84526020840193506020830192505060018101905061170c565b5050505092915050565b600082601f83011261175757600080fd5b813561176a61176582611f2f565b611ed2565b9150818183526020840193506020810190508385602084028201111561178f57600080fd5b60005b838110156117bf57816117a5888261187c565b845260208401935060208301925050600181019050611792565b5050505092915050565b6000813590506117d881612126565b92915050565b60008083601f8401126117f057600080fd5b8235905067ffffffffffffffff81111561180957600080fd5b60208301915083600182028301111561182157600080fd5b9250929050565b600082601f83011261183957600080fd5b813561184c61184782611f5b565b611ed2565b9150808252602083016020830185838301111561186857600080fd5b611873838284612099565b50505092915050565b60008135905061188b8161213d565b92915050565b6000815190506118a08161213d565b92915050565b6000602082840312156118b857600080fd5b60006118c684828501611693565b91505092915050565b6000602082840312156118e157600080fd5b60006118ef848285016116a8565b91505092915050565b60006020828403121561190a57600080fd5b6000611918848285016116bd565b91505092915050565b6000806040838503121561193457600080fd5b600083013567ffffffffffffffff81111561194e57600080fd5b61195a858286016116d2565b925050602061196b8582860161187c565b9150509250929050565b60006020828403121561198757600080fd5b600082013567ffffffffffffffff8111156119a157600080fd5b6119ad84828501611746565b91505092915050565b6000602082840312156119c857600080fd5b60006119d6848285016117c9565b91505092915050565b600080602083850312156119f257600080fd5b600083013567ffffffffffffffff811115611a0c57600080fd5b611a18858286016117de565b92509250509250929050565b600080600060408486031215611a3957600080fd5b600084013567ffffffffffffffff811115611a5357600080fd5b611a5f868287016117de565b93509350506020611a72868287016117c9565b9150509250925092565b60008060408385031215611a8f57600080fd5b600083013567ffffffffffffffff811115611aa957600080fd5b611ab585828601611828565b9250506020611ac68582860161187c565b9150509250929050565b600060208284031215611ae257600080fd5b6000611af08482850161187c565b91505092915050565b600060208284031215611b0b57600080fd5b6000611b1984828501611891565b91505092915050565b6000611b2e8383611c8a565b905092915050565b6000611b428383611d3c565b60208301905092915050565b611b5781612035565b82525050565b6000611b6882611fab565b611b728185611fe6565b935083602082028501611b8485611f8b565b8060005b85811015611bc05784840389528151611ba18582611b22565b9450611bac83611fcc565b925060208a01995050600181019050611b88565b50829750879550505050505092915050565b6000611bdd82611fb6565b611be78185611ff7565b9350611bf283611f9b565b8060005b83811015611c23578151611c0a8882611b36565b9750611c1583611fd9565b925050600181019050611bf6565b5085935050505092915050565b611c3981612059565b82525050565b611c4881612065565b82525050565b611c5f611c5a82612065565b6120db565b82525050565b6000611c71838561202a565b9350611c7e838584612099565b82840190509392505050565b6000611c9582611fc1565b611c9f8185612008565b9350611caf8185602086016120a8565b611cb8816120e7565b840191505092915050565b6000611cce82611fc1565b611cd88185612019565b9350611ce88185602086016120a8565b611cf1816120e7565b840191505092915050565b6000611d0960038361202a565b91507f65746800000000000000000000000000000000000000000000000000000000006000830152600382019050919050565b611d458161208f565b82525050565b611d548161208f565b82525050565b6000611d668285611c4e565b602082019150611d768284611c4e565b6020820191508190509392505050565b6000611d93828486611c65565b91508190509392505050565b6000611daa82611cfc565b9150819050919050565b6000602082019050611dc96000830184611b4e565b92915050565b60006020820190508181036000830152611de98184611b5d565b905092915050565b60006040820190508181036000830152611e0b8185611b5d565b9050611e1a6020830184611d4b565b9392505050565b60006040820190508181036000830152611e3b8185611bd2565b9050611e4a6020830184611d4b565b9392505050565b6000602082019050611e666000830184611c30565b92915050565b6000602082019050611e816000830184611c3f565b92915050565b60006040820190508181036000830152611ea18185611cc3565b9050611eb06020830184611d4b565b9392505050565b6000602082019050611ecc6000830184611d4b565b92915050565b6000604051905081810181811067ffffffffffffffff82111715611ef957611ef86120e5565b5b8060405250919050565b600067ffffffffffffffff821115611f1e57611f1d6120e5565b5b602082029050602081019050919050565b600067ffffffffffffffff821115611f4a57611f496120e5565b5b602082029050602081019050919050565b600067ffffffffffffffff821115611f7657611f756120e5565b5b601f19601f8301169050602081019050919050565b6000819050602082019050919050565b6000819050602082019050919050565b600081519050919050565b600081519050919050565b600081519050919050565b6000602082019050919050565b6000602082019050919050565b600082825260208201905092915050565b600082825260208201905092915050565b600082825260208201905092915050565b600082825260208201905092915050565b600081905092915050565b60006120408261206f565b9050919050565b60006120528261206f565b9050919050565b60008115159050919050565b6000819050919050565b600073ffffffffffffffffffffffffffffffffffffffff82169050919050565b6000819050919050565b82818337600083830152505050565b60005b838110156120c65780820151818401526020810190506120ab565b838111156120d5576000848401525b50505050565b6000819050919050565bfe5b6000601f19601f8301169050919050565b61210181612035565b811461210c57600080fd5b50565b61211881612047565b811461212357600080fd5b50565b61212f81612065565b811461213a57600080fd5b50565b6121468161208f565b811461215157600080fd5b5056fe4f776e61626c653a206e6577206f776e657220697320746865207a65726f2061646472657373a2646970667358221220786afea9e609696bd0f308d98d365f14794bdcc1d409ab6d55c603fcd6eb52b364736f6c63430007040033",
  "immutableReferences": {},
  "source": "// SPDX-License-Identifier: MIT\r\npragma solidity ^0.7.4;\r\npragma experimental ABIEncoderV2;\r\n\r\nimport \"@openzeppelin/contracts/math/SafeMath.sol\";\r\nimport \"@openzeppelin/contracts/access/Ownable.sol\";\r\nimport \"interfaces/ENS_Registry.sol\";\r\nimport \"interfaces/ENS_BaseRegistrar.sol\";\r\nimport \"interfaces/ENS_BulkRenewal.sol\";\r\nimport \"interfaces/ENS_Resolver.sol\";\r\nimport \"interfaces/ENS_RegistrarController.sol\";\r\n\r\n/// @title StakeYourName - NameManager\r\n/// @notice Maintains a list of users and names they want to keep renewed\r\n/// @notice Can check for name expiry and pay for renewals\r\n/// @author Daniel Chilvers\r\n\r\ncontract NameManager is Ownable {\r\n    /// @dev can probably remove ensRegistryAddress as it can be discovered from the Registrar\r\n    address internal ensRegistryAddress = 0x00000000000C2E074eC69A0dFb2997BA6C7d2e1e;\r\n    address internal baseRegistrarAddress = 0x57f1887a8BF19b14fC0dF6Fd9B2acc9Af147eA85;\r\n    address internal bulkRenewalAddress = 0xfF252725f6122A92551A5FA9a6b6bf10eb0Be035;\r\n    address internal RegistrarControllerAddress = 0x283Af0B28c62C092C9727F1Ee09c02CA627EB7F5;\r\n    uint256 internal renewalPeriod = 28 days; \r\n\r\n    BaseRegistrar ensReg;\r\n    ENS ens;\r\n    ENSRegistrarController ensRegController;\r\n    BulkRenewal ensBulkRenewal;\r\n    ENSResolver ensResolver;\r\n\r\n    /// @dev map user address to arrays of their names and expiry times\r\n    //mapping (address => uint256[]) names;\r\n\r\n    /// @dev map names to the users that are funding them\r\n    //mapping (uint256 => address[]) users;\r\n\r\n    uint256[] nameList;\r\n\r\n    constructor() {\r\n        ensReg = BaseRegistrar(baseRegistrarAddress);\r\n        ens = ENS(ensReg.ens());\r\n        ensBulkRenewal = BulkRenewal(bulkRenewalAddress);\r\n        ensRegController = ENSRegistrarController(RegistrarControllerAddress);\r\n        \r\n    }\r\n\r\n    function checkBulkPrice(string[] memory _names, uint256 _duration) public view returns(uint256) {\r\n        return ensBulkRenewal.rentPrice(_names, _duration);\r\n    }\r\n\r\n    function checkPrice(string memory _name, uint256 _duration) public view returns(uint256) {\r\n        return ensRegController.rentPrice(_name, _duration);\r\n    }\r\n\r\n    function uintArrayToStringsArray(uint256[] memory _ints) public pure returns(string[] memory){\r\n        string[] memory _strings = new string[](_ints.length);    \r\n        for (uint i; i < _ints.length; i++){\r\n            uint256 _i = _ints[i];\r\n            if (_i == 0) {\r\n                _strings[i] = \"0\";\r\n            }\r\n            uint j = _i;\r\n            uint len;\r\n            while (j != 0) {\r\n                len++;\r\n                j /= 10;\r\n            }\r\n            bytes memory bstr = new bytes(len);\r\n            uint k = len - 1;\r\n            while (_i != 0) {\r\n                bstr[k--] = byte(uint8(48 + _i % 10));\r\n                _i /= 10;\r\n            }\r\n            _strings[i] = string(bstr);\r\n        }\r\n        return _strings;\r\n    }\r\n\r\n    function checkForRenewals(uint256[] memory _nameList) public view returns(uint256[] memory, uint256){\r\n        uint256 _count = countRenewals(_nameList);\r\n        uint256 _price;\r\n        uint256[] memory _names = new uint256[](_count);\r\n        uint256 _j;\r\n        for (uint i; i < _nameList.length; i++) {\r\n            if(renewalDue(_nameList[i])) {\r\n                _names[_j] = _nameList[i];\r\n                _j++;\r\n            }\r\n        }\r\n        string memory _name;\r\n        string[] memory _strNames = new string[](_count);\r\n        _strNames = uintArrayToStringsArray(_names);\r\n        if(_count == 1){\r\n            _name = _strNames[0];\r\n            _price = checkPrice(_name, renewalPeriod);\r\n        } else {\r\n            _price = checkBulkPrice(_strNames, renewalPeriod); \r\n        }\r\n        return (_names, _price);\r\n    }\r\n\r\n    function countRenewals(uint256[] memory _nameList) internal view returns (uint256){\r\n        uint256 _count;\r\n        for (uint i; i < _nameList.length; i++) {\r\n            if(renewalDue(_nameList[i])) {\r\n                _count++;\r\n            }\r\n        }\r\n        return (_count);\r\n    }\r\n\r\n \r\n    /*\r\n    *\r\n    *   ENS Related Functions\r\n    *\r\n    */\r\n\r\n    /// @notice pass in either the _name or _nameHash to resolve an address\r\n    function resolveName(string calldata _name, bytes32 _nameHash) public returns(address){\r\n        if (_nameHash == 0){\r\n            _nameHash = computeNamehash(_name);\r\n        }\r\n        ensResolver =  ENSResolver(ens.resolver(_nameHash));\r\n        return(ensResolver.addr(_nameHash));\r\n    }\r\n\r\n    function renewalDue(uint256 _labelhash) public view returns(bool) {\r\n        return (getNameExpiry(_labelhash) <= block.timestamp - renewalPeriod);\r\n    }\r\n\r\n    function updateRenewalPeriod(uint256 _time) public onlyOwner {\r\n        renewalPeriod = _time;\r\n    }\r\n\r\n    // @notice Update registrar and/or associated registry\r\n    // @dev Hopefully never needed\r\n    function updateRegistrar(address _address) external onlyOwner {\r\n        ensReg = BaseRegistrar(_address);\r\n        ens = ENS(ensReg.ens());\r\n    } \r\n    function updateBulkRenewal(address _address) external onlyOwner {\r\n        ensBulkRenewal = BulkRenewal(_address);\r\n    } \r\n    // @dev make me internal once testing is done\r\n    function getNameExpiry(uint256 _name) public view returns(uint256){\r\n        return ensReg.nameExpires(_name);\r\n    }\r\n\r\n    // @notice find out which contracts we're talking to\r\n    function returnEnsAddress() public view returns(address){\r\n        return address(ens);\r\n    }\r\n    function returnEnsRegAddress() public view returns(address){\r\n        return address(ensReg);\r\n    }\r\n    function returnBulkRenewalAddress() public view returns(address){\r\n        return address(ensBulkRenewal);\r\n    }\r\n    /// @dev always fails on testnet because they didn't impletment bulk renewal there\r\n    function checkRegistryMatches() public view returns(bool){\r\n        return (ensReg.ens() == ensBulkRenewal.ens());\r\n    }\r\n\r\n    /// @notice funtions to help out with ENS integration\r\n    function convertBytesToUint(bytes32 _bytes) public pure returns(uint256){\r\n        uint256 _uint = uint256(_bytes);\r\n        return (_uint);\r\n    }\r\n    function convertUintToBytes(uint256 _uint) public pure returns(bytes32){\r\n        bytes32 _bytes = bytes32(_uint);\r\n        return (_bytes);\r\n    }\r\n    // @dev this could be expensive, lets do this off-chain where possible\r\n    function computeNamehash(string calldata _name) public pure returns (bytes32 namehash) {\r\n        namehash = 0x0000000000000000000000000000000000000000000000000000000000000000;\r\n        namehash = keccak256(abi.encodePacked(namehash, keccak256(abi.encodePacked('eth'))));\r\n        namehash = keccak256(abi.encodePacked(namehash, keccak256(abi.encodePacked(_name))));\r\n    }\r\n    function computeLabelhash(string calldata _name) public pure returns (bytes32 namehash) {\r\n        namehash = keccak256(abi.encodePacked(_name));\r\n    }\r\n\r\n}\r\n",
  "sourcePath": "C:/Users/anyth/Documents/GitHub/StakeYourName/contracts/NameManager.sol",
  "compiler": {
    "name": "solc",
    "version": "0.7.4+commit.3f05b770.Emscripten.clang"
  },
  "schemaVersion": "3.3.3",
  "updatedAt": "2021-01-26T11:22:06.374Z",
  "devdoc": {
    "author": "Daniel Chilvers",
    "kind": "dev",
    "methods": {
      "checkRegistryMatches()": {
        "details": "always fails on testnet because they didn't impletment bulk renewal there"
      },
      "owner()": {
        "details": "Returns the address of the current owner."
      },
      "renounceOwnership()": {
        "details": "Leaves the contract without owner. It will not be possible to call `onlyOwner` functions anymore. Can only be called by the current owner. NOTE: Renouncing ownership will leave the contract without an owner, thereby removing any functionality that is only available to the owner."
      },
      "transferOwnership(address)": {
        "details": "Transfers ownership of the contract to a new account (`newOwner`). Can only be called by the current owner."
      }
    },
    "stateVariables": {
      "ensRegistryAddress": {
        "details": "can probably remove ensRegistryAddress as it can be discovered from the Registrar"
      },
      "nameList": {
        "details": "map names to the users that are funding them"
      }
    },
    "title": "StakeYourName - NameManager",
    "version": 1
  },
  "userdoc": {
    "kind": "user",
    "methods": {
      "convertBytesToUint(bytes32)": {
        "notice": "funtions to help out with ENS integration"
      },
      "resolveName(string,bytes32)": {
        "notice": "pass in either the _name or _nameHash to resolve an address"
      }
    },
    "notice": "Maintains a list of users and names they want to keep renewedCan check for name expiry and pay for renewals",
    "version": 1
  }
}