{
  "contractName": "NameManager",
  "abi": [
    {
      "inputs": [
        {
          "internalType": "uint256",
          "name": "_networkID",
          "type": "uint256"
        }
      ],
      "stateMutability": "nonpayable",
      "type": "constructor"
    },
    {
      "anonymous": false,
      "inputs": [
        {
          "indexed": true,
          "internalType": "address",
          "name": "previousOwner",
          "type": "address"
        },
        {
          "indexed": true,
          "internalType": "address",
          "name": "newOwner",
          "type": "address"
        }
      ],
      "name": "OwnershipTransferred",
      "type": "event"
    },
    {
      "inputs": [],
      "name": "owner",
      "outputs": [
        {
          "internalType": "address",
          "name": "",
          "type": "address"
        }
      ],
      "stateMutability": "view",
      "type": "function"
    },
    {
      "inputs": [],
      "name": "renounceOwnership",
      "outputs": [],
      "stateMutability": "nonpayable",
      "type": "function"
    },
    {
      "inputs": [
        {
          "internalType": "address",
          "name": "newOwner",
          "type": "address"
        }
      ],
      "name": "transferOwnership",
      "outputs": [],
      "stateMutability": "nonpayable",
      "type": "function"
    },
    {
      "stateMutability": "payable",
      "type": "receive"
    },
    {
      "inputs": [
        {
          "internalType": "string[]",
          "name": "_names",
          "type": "string[]"
        },
        {
          "internalType": "uint256",
          "name": "_duration",
          "type": "uint256"
        }
      ],
      "name": "executeBulkRenewal",
      "outputs": [],
      "stateMutability": "nonpayable",
      "type": "function"
    },
    {
      "inputs": [
        {
          "internalType": "string[]",
          "name": "_names",
          "type": "string[]"
        },
        {
          "internalType": "uint256",
          "name": "_duration",
          "type": "uint256"
        }
      ],
      "name": "checkBulkPrice",
      "outputs": [
        {
          "internalType": "uint256",
          "name": "",
          "type": "uint256"
        }
      ],
      "stateMutability": "view",
      "type": "function"
    },
    {
      "inputs": [
        {
          "internalType": "string",
          "name": "_name",
          "type": "string"
        },
        {
          "internalType": "uint256",
          "name": "_duration",
          "type": "uint256"
        }
      ],
      "name": "checkPrice",
      "outputs": [
        {
          "internalType": "uint256",
          "name": "",
          "type": "uint256"
        }
      ],
      "stateMutability": "view",
      "type": "function"
    },
    {
      "inputs": [
        {
          "internalType": "uint256[]",
          "name": "_ints",
          "type": "uint256[]"
        }
      ],
      "name": "uintArrayToStringsArray",
      "outputs": [
        {
          "internalType": "string[]",
          "name": "",
          "type": "string[]"
        }
      ],
      "stateMutability": "pure",
      "type": "function"
    },
    {
      "inputs": [
        {
          "internalType": "uint256[]",
          "name": "_nameList",
          "type": "uint256[]"
        }
      ],
      "name": "checkForRenewals",
      "outputs": [
        {
          "internalType": "uint256[]",
          "name": "",
          "type": "uint256[]"
        },
        {
          "internalType": "uint256",
          "name": "",
          "type": "uint256"
        }
      ],
      "stateMutability": "view",
      "type": "function"
    },
    {
      "inputs": [
        {
          "internalType": "uint256[]",
          "name": "_nameList",
          "type": "uint256[]"
        }
      ],
      "name": "countRenewals",
      "outputs": [
        {
          "internalType": "uint256",
          "name": "",
          "type": "uint256"
        }
      ],
      "stateMutability": "view",
      "type": "function"
    },
    {
      "inputs": [
        {
          "internalType": "string[]",
          "name": "_name",
          "type": "string[]"
        }
      ],
      "name": "returnHash",
      "outputs": [
        {
          "internalType": "bytes32",
          "name": "",
          "type": "bytes32"
        }
      ],
      "stateMutability": "pure",
      "type": "function"
    },
    {
      "inputs": [
        {
          "internalType": "string[]",
          "name": "_name",
          "type": "string[]"
        }
      ],
      "name": "resolveName",
      "outputs": [
        {
          "internalType": "address",
          "name": "",
          "type": "address"
        }
      ],
      "stateMutability": "view",
      "type": "function"
    },
    {
      "inputs": [
        {
          "internalType": "uint256",
          "name": "_labelhash",
          "type": "uint256"
        }
      ],
      "name": "renewalDue",
      "outputs": [
        {
          "internalType": "bool",
          "name": "",
          "type": "bool"
        }
      ],
      "stateMutability": "view",
      "type": "function"
    },
    {
      "inputs": [
        {
          "internalType": "uint256",
          "name": "_time",
          "type": "uint256"
        }
      ],
      "name": "updateRenewalPeriod",
      "outputs": [],
      "stateMutability": "nonpayable",
      "type": "function"
    },
    {
      "inputs": [
        {
          "internalType": "address",
          "name": "_address",
          "type": "address"
        }
      ],
      "name": "updateRegistrar",
      "outputs": [],
      "stateMutability": "nonpayable",
      "type": "function"
    },
    {
      "inputs": [
        {
          "internalType": "address",
          "name": "_address",
          "type": "address"
        }
      ],
      "name": "updateBulkRenewal",
      "outputs": [],
      "stateMutability": "nonpayable",
      "type": "function"
    },
    {
      "inputs": [
        {
          "internalType": "uint256",
          "name": "_name",
          "type": "uint256"
        }
      ],
      "name": "getNameExpiry",
      "outputs": [
        {
          "internalType": "uint256",
          "name": "",
          "type": "uint256"
        }
      ],
      "stateMutability": "view",
      "type": "function"
    },
    {
      "inputs": [],
      "name": "returnEnsAddress",
      "outputs": [
        {
          "internalType": "address",
          "name": "",
          "type": "address"
        }
      ],
      "stateMutability": "view",
      "type": "function"
    },
    {
      "inputs": [],
      "name": "returnEnsRegAddress",
      "outputs": [
        {
          "internalType": "address",
          "name": "",
          "type": "address"
        }
      ],
      "stateMutability": "view",
      "type": "function"
    },
    {
      "inputs": [],
      "name": "returnBulkRenewalAddress",
      "outputs": [
        {
          "internalType": "address",
          "name": "",
          "type": "address"
        }
      ],
      "stateMutability": "view",
      "type": "function"
    },
    {
      "inputs": [],
      "name": "checkRegistryMatches",
      "outputs": [
        {
          "internalType": "bool",
          "name": "",
          "type": "bool"
        }
      ],
      "stateMutability": "view",
      "type": "function"
    },
    {
      "inputs": [
        {
          "internalType": "bytes32",
          "name": "_bytes",
          "type": "bytes32"
        }
      ],
      "name": "convertBytesToUint",
      "outputs": [
        {
          "internalType": "uint256",
          "name": "",
          "type": "uint256"
        }
      ],
      "stateMutability": "pure",
      "type": "function"
    },
    {
      "inputs": [
        {
          "internalType": "uint256",
          "name": "_uint",
          "type": "uint256"
        }
      ],
      "name": "convertUintToBytes",
      "outputs": [
        {
          "internalType": "bytes32",
          "name": "",
          "type": "bytes32"
        }
      ],
      "stateMutability": "pure",
      "type": "function"
    },
    {
      "inputs": [
        {
          "internalType": "string",
          "name": "_subdomain",
          "type": "string"
        },
        {
          "internalType": "bytes32",
          "name": "_name",
          "type": "bytes32"
        }
      ],
      "name": "computeHash",
      "outputs": [
        {
          "internalType": "bytes32",
          "name": "namehash",
          "type": "bytes32"
        }
      ],
      "stateMutability": "pure",
      "type": "function"
    },
    {
      "inputs": [],
      "name": "retrieveETH",
      "outputs": [],
      "stateMutability": "nonpayable",
      "type": "function"
    },
    {
      "inputs": [
        {
          "internalType": "address",
          "name": "_ens",
          "type": "address"
        }
      ],
      "name": "updateAddresses",
      "outputs": [],
      "stateMutability": "nonpayable",
      "type": "function"
    }
  ],
  "bytecode": "0x6080604052600180546001600160a01b03199081166e0c2e074ec69a0dfb2997ba6c7d2e1e179091556002805482167357f1887a8bf19b14fc0df6fd9b2acc9af147ea8517905560038054821673ff252725f6122a92551a5fa9a6b6bf10eb0be0351790556004805490911673283af0b28c62c092c9727f1ee09c02ca627eb7f51790556224ea006005553480156200009757600080fd5b5060405162001be438038062001be4833981016040819052620000ba916200023b565b6000620000c662000207565b600080546001600160a01b0319166001600160a01b0383169081178255604051929350917f8be0079c531659141344cd1fd0a4f28419497f9722a3daafe3b4186f6b6457e0908290a3508060011480620001205750806003145b156200020057600254600680546001600160a01b0319166001600160a01b03928316179081905560408051633f15457f60e01b815290519190921691633f15457f916004808301926020929190829003018186803b1580156200018257600080fd5b505afa15801562000197573d6000803e3d6000fd5b505050506040513d601f19601f82011682018060405250810190620001bd91906200020b565b600780546001600160a01b03199081166001600160a01b039384161790915560035460098054918416918316919091179055600454600880549190931691161790555b5062000254565b3390565b6000602082840312156200021d578081fd5b81516001600160a01b038116811462000234578182fd5b9392505050565b6000602082840312156200024d578081fd5b5051919050565b61198080620002646000396000f3fe60806040526004361061016a5760003560e01c8063a474346c116100d1578063bb452db41161008a578063eb76509411610064578063eb76509414610401578063f0e147d814610416578063f2fde38b14610436578063f40374681461045657610171565b8063bb452db41461033f578063d5b014c3146103bf578063e01e53d0146103d457610171565b8063a474346c146102ff578063a643c1a01461031f578063ae76173e1461033f578063af27a39c1461035f578063b7dcee071461037f578063b914737d1461039f57610171565b806368a4f5c21161012357806368a4f5c21461024e5780636ef4309f1461027c578063715018a61461029e57806375e2598d146102b35780638da5cb5b146102d55780638e8a40bd146102ea57610171565b80630309cfa3146101765780633031baaf146101ac5780633a5fc0f2146101ce5780635884472e146101ee578063592b700a1461020e57806361f6bc2c1461022e57610171565b3661017157005b600080fd5b34801561018257600080fd5b506101966101913660046115b6565b610476565b6040516101a391906117f2565b60405180910390f35b3480156101b857600080fd5b506101cc6101c73660046113ce565b6104fd565b005b3480156101da57600080fd5b506101966101e9366004611640565b610577565b3480156101fa57600080fd5b50610196610209366004611507565b610601565b34801561021a57600080fd5b506101cc6102293660046113ce565b610647565b34801561023a57600080fd5b506101966102493660046115ce565b610756565b34801561025a57600080fd5b5061026e610269366004611507565b6107b2565b6040516101a392919061179f565b34801561028857600080fd5b5061029161090b565b6040516101a391906117e7565b3480156102aa57600080fd5b506101cc610a26565b3480156102bf57600080fd5b506102c8610ac8565b6040516101a39190611756565b3480156102e157600080fd5b506102c8610ad7565b3480156102f657600080fd5b506102c8610ae6565b34801561030b57600080fd5b5061019661031a366004611474565b610af5565b34801561032b57600080fd5b506101cc61033a3660046113ce565b610b28565b34801561034b57600080fd5b5061019661035a3660046115b6565b610d01565b34801561036b57600080fd5b506101cc61037a3660046115b6565b610d04565b34801561038b57600080fd5b506101cc61039a366004611474565b610d61565b3480156103ab57600080fd5b506101966103ba366004611406565b610eb0565b3480156103cb57600080fd5b506101cc610f21565b3480156103e057600080fd5b506103f46103ef366004611507565b610fa8565b6040516101a3919061176a565b34801561040d57600080fd5b506102c861112c565b34801561042257600080fd5b506102916104313660046115b6565b61113b565b34801561044257600080fd5b506101cc6104513660046113ce565b611153565b34801561046257600080fd5b506102c8610471366004611406565b61124b565b600654604051636b727d4360e11b81526000916001600160a01b03169063d6e4fa86906104a79085906004016117f2565b60206040518083038186803b1580156104bf57600080fd5b505afa1580156104d3573d6000803e3d6000fd5b505050506040513d601f19601f820116820180604052508101906104f79190611682565b92915050565b610505611366565b6000546001600160a01b03908116911614610555576040805162461bcd60e51b8152602060048201819052602482015260008051602061192b833981519152604482015290519081900360640190fd5b600980546001600160a01b0319166001600160a01b0392909216919091179055565b6008546040516383e7f6ff60e01b81526000916001600160a01b0316906383e7f6ff906105aa9086908690600401611810565b60206040518083038186803b1580156105c257600080fd5b505afa1580156105d6573d6000803e3d6000fd5b505050506040513d601f19601f820116820180604052508101906105fa9190611682565b9392505050565b60008060005b83518110156106405761062c84828151811061061f57fe5b602002602001015161113b565b15610638576001909101905b600101610607565b5092915050565b61064f611366565b6000546001600160a01b0390811691161461069f576040805162461bcd60e51b8152602060048201819052602482015260008051602061192b833981519152604482015290519081900360640190fd5b600680546001600160a01b0319166001600160a01b03838116919091179182905560408051633f15457f60e01b815290519290911691633f15457f91600480820192602092909190829003018186803b1580156106fb57600080fd5b505afa15801561070f573d6000803e3d6000fd5b505050506040513d601f19601f8201168201806040525081019061073391906113ea565b600780546001600160a01b0319166001600160a01b039290921691909117905550565b600081848460405160200161076c929190611746565b60405160208183030381529060405280519060200120604051602001610793929190611738565b6040516020818303038152906040528051906020012090509392505050565b60606000806107c084610601565b9050600080826001600160401b03811180156107db57600080fd5b50604051908082528060200260200182016040528015610805578160200160208202803683370190505b5090506000805b87518110156108635761082488828151811061061f57fe5b1561085b5787818151811061083557fe5b602002602001015183838151811061084957fe5b60209081029190910101526001909101905b60010161080c565b506000846001600160401b038111801561087c57600080fd5b506040519080825280602002602001820160405280156108b057816020015b606081526020019060019003908161089b5790505b5090506108bc83610fa8565b905084600114156108ee576108e7816000815181106108d757fe5b6020026020010151600554610577565b93506108fd565b6108fa81600554610af5565b93505b509094509092505050915091565b60095460408051633f15457f60e01b815290516000926001600160a01b031691633f15457f916004808301926020929190829003018186803b15801561095057600080fd5b505afa158015610964573d6000803e3d6000fd5b505050506040513d601f19601f8201168201806040525081019061098891906113ea565b6001600160a01b0316600660009054906101000a90046001600160a01b03166001600160a01b0316633f15457f6040518163ffffffff1660e01b815260040160206040518083038186803b1580156109df57600080fd5b505afa1580156109f3573d6000803e3d6000fd5b505050506040513d601f19601f82011682018060405250810190610a1791906113ea565b6001600160a01b031614905090565b610a2e611366565b6000546001600160a01b03908116911614610a7e576040805162461bcd60e51b8152602060048201819052602482015260008051602061192b833981519152604482015290519081900360640190fd5b600080546040516001600160a01b03909116907f8be0079c531659141344cd1fd0a4f28419497f9722a3daafe3b4186f6b6457e0908390a3600080546001600160a01b0319169055565b6009546001600160a01b031690565b6000546001600160a01b031690565b6007546001600160a01b031690565b600954604051633971d46760e01b81526000916001600160a01b031690633971d467906105aa908690869060040161177d565b600780546001600160a01b0319166001600160a01b03838116919091179182905560408051637675237760e11b81529051929091169163ecea46ee91600480820192602092909190829003018186803b158015610b8457600080fd5b505afa158015610b98573d6000803e3d6000fd5b505050506040513d601f19601f82011682018060405250810190610bbc91906113ea565b600680546001600160a01b0319166001600160a01b03928316179055600754604080516370a3a81160e11b81529051919092169163e1475022916004808301926020929190829003018186803b158015610c1557600080fd5b505afa158015610c29573d6000803e3d6000fd5b505050506040513d601f19601f82011682018060405250810190610c4d91906113ea565b600980546001600160a01b0319166001600160a01b039283161790556007546040805163223fdc9b60e21b8152905191909216916388ff726c916004808301926020929190829003018186803b158015610ca657600080fd5b505afa158015610cba573d6000803e3d6000fd5b505050506040513d601f19601f82011682018060405250810190610cde91906113ea565b600880546001600160a01b0319166001600160a01b039290921691909117905550565b90565b610d0c611366565b6000546001600160a01b03908116911614610d5c576040805162461bcd60e51b8152602060048201819052602482015260008051602061192b833981519152604482015290519081900360640190fd5b600555565b80610d6b57506005545b6009546040516301ffc9a760e01b81526318a85fdd60e11b916001600160a01b0316906301ffc9a790610da29084906004016117fb565b60206040518083038186803b158015610dba57600080fd5b505afa158015610dce573d6000803e3d6000fd5b505050506040513d601f19601f82011682018060405250810190610df29190611596565b610e175760405162461bcd60e51b8152600401610e0e90611823565b60405180910390fd5b600954604051633a35b6ed60e21b81526001600160a01b039091169063e8d6dbb4904790610e4b908790879060040161177d565b6000604051808303818588803b158015610e6457600080fd5b505af1158015610e78573d6000803e3d6000fd5b50506040513393504780156108fc02935091506000818181858888f19350505050158015610eaa573d6000803e3d6000fd5b50505050565b600080610edb84846000818110610ec357fe5b9050602002810190610ed59190611864565b83610756565b905060015b83811015610f1957610f0f858583818110610ef757fe5b9050602002810190610f099190611864565b84610756565b9150600101610ee0565b509392505050565b610f29611366565b6000546001600160a01b03908116911614610f79576040805162461bcd60e51b8152602060048201819052602482015260008051602061192b833981519152604482015290519081900360640190fd5b60405133904780156108fc02916000818181858888f19350505050158015610fa5573d6000803e3d6000fd5b50565b6060600082516001600160401b0381118015610fc357600080fd5b50604051908082528060200260200182016040528015610ff757816020015b6060815260200190600190039081610fe25790505b50905060005b835181101561064057600084828151811061101457fe5b60200260200101519050806000141561105957604051806040016040528060018152602001600360fc1b81525083838151811061104d57fe5b60200260200101819052505b8060005b811561107157600101600a8204915061105d565b6000816001600160401b038111801561108957600080fd5b506040519080825280601f01601f1916602001820160405280156110b4576020820181803683370190505b50905060001982015b841561110257600a850660300160f81b828280600190039350815181106110e057fe5b60200101906001600160f81b031916908160001a905350600a850494506110bd565b8187878151811061110f57fe5b602002602001018190525050505050508080600101915050610ffd565b6006546001600160a01b031690565b6000600554420361114b83610476565b111592915050565b61115b611366565b6000546001600160a01b039081169116146111ab576040805162461bcd60e51b8152602060048201819052602482015260008051602061192b833981519152604482015290519081900360640190fd5b6001600160a01b0381166111f05760405162461bcd60e51b81526004018080602001828103825260268152602001806119056026913960400191505060405180910390fd5b600080546040516001600160a01b03808516939216917f8be0079c531659141344cd1fd0a4f28419497f9722a3daafe3b4186f6b6457e091a3600080546001600160a01b0319166001600160a01b0392909216919091179055565b6000806112588484610eb0565b600754604051630178b8bf60e01b81529192506000916001600160a01b0390911690630178b8bf9061128e9085906004016117f2565b60206040518083038186803b1580156112a657600080fd5b505afa1580156112ba573d6000803e3d6000fd5b505050506040513d601f19601f820116820180604052508101906112de91906113ea565b604051631d9dabef60e11b81529091506001600160a01b03821690633b3b57de9061130d9085906004016117f2565b60206040518083038186803b15801561132557600080fd5b505afa158015611339573d6000803e3d6000fd5b505050506040513d601f19601f8201168201806040525081019061135d91906113ea565b95945050505050565b3390565b600082601f83011261137a578081fd5b81356001600160401b0381111561138d57fe5b6113a0601f8201601f19166020016118af565b8181528460208386010111156113b4578283fd5b816020850160208301379081016020019190915292915050565b6000602082840312156113df578081fd5b81356105fa816118ef565b6000602082840312156113fb578081fd5b81516105fa816118ef565b60008060208385031215611418578081fd5b82356001600160401b038082111561142e578283fd5b818501915085601f830112611441578283fd5b81358181111561144f578384fd5b8660208083028501011115611462578384fd5b60209290920196919550909350505050565b60008060408385031215611486578182fd5b82356001600160401b0381111561149b578283fd5b8301601f810185136114ab578283fd5b803560206114c06114bb836118d2565b6118af565b82815281810190848301875b858110156114f5576114e38b8684358a010161136a565b845292840192908401906001016114cc565b50909997909201359750505050505050565b60006020808385031215611519578182fd5b82356001600160401b0381111561152e578283fd5b8301601f8101851361153e578283fd5b803561154c6114bb826118d2565b8181528381019083850185840285018601891015611568578687fd5b8694505b8385101561158a57803583526001949094019391850191850161156c565b50979650505050505050565b6000602082840312156115a7578081fd5b815180151581146105fa578182fd5b6000602082840312156115c7578081fd5b5035919050565b6000806000604084860312156115e2578081fd5b83356001600160401b03808211156115f8578283fd5b818601915086601f83011261160b578283fd5b813581811115611619578384fd5b87602082850101111561162a578384fd5b6020928301989097509590910135949350505050565b60008060408385031215611652578182fd5b82356001600160401b03811115611667578283fd5b6116738582860161136a565b95602094909401359450505050565b600060208284031215611693578081fd5b5051919050565b6000815180845260208085018081965082840281019150828601855b858110156116e05782840389526116ce8483516116ed565b988501989350908401906001016116b6565b5091979650505050505050565b60008151808452815b81811015611712576020818501810151868301820152016116f6565b818111156117235782602083870101525b50601f01601f19169290920160200192915050565b918252602082015260400190565b6000828483379101908152919050565b6001600160a01b0391909116815260200190565b6000602082526105fa602083018461169a565b600060408252611790604083018561169a565b90508260208301529392505050565b604080825283519082018190526000906020906060840190828701845b828110156117d8578151845292840192908401906001016117bc565b50505092019290925292915050565b901515815260200190565b90815260200190565b6001600160e01b031991909116815260200190565b60006040825261179060408301856116ed565b60208082526021908201527f496e636f727265637420454e532042756c6b52656e6577616c206164647265736040820152607360f81b606082015260800190565b6000808335601e1984360301811261187a578283fd5b8301803591506001600160401b03821115611893578283fd5b6020019150368190038213156118a857600080fd5b9250929050565b6040518181016001600160401b03811182821017156118ca57fe5b604052919050565b60006001600160401b038211156118e557fe5b5060209081020190565b6001600160a01b0381168114610fa557600080fdfe4f776e61626c653a206e6577206f776e657220697320746865207a65726f20616464726573734f776e61626c653a2063616c6c6572206973206e6f7420746865206f776e6572a2646970667358221220e18cf6f75e3cf4959cb7ee24c5454c93b46225137f1a1459f73e56f05bff39f764736f6c63430007060033",
  "immutableReferences": {},
  "source": "// SPDX-License-Identifier: MIT\r\npragma solidity ^0.7.6;\r\npragma abicoder v2;\r\n\r\nimport \"@openzeppelin/contracts/math/SafeMath.sol\";\r\nimport \"@openzeppelin/contracts/access/Ownable.sol\";\r\nimport \"./interfaces/ENS_Registry.sol\";\r\nimport \"./interfaces/ENS_BaseRegistrar.sol\";\r\nimport \"./interfaces/ENS_BulkRenewal.sol\";\r\nimport \"./interfaces/ENS_Resolver.sol\";\r\nimport \"./interfaces/ENS_RegistrarController.sol\";\r\n\r\n/// @title StakeYourName - NameManager\r\n/// @notice Maintains a list of users and names they want to keep renewed\r\n/// @notice Can check for name expiry and pay for renewals\r\n/// @author Daniel Chilvers\r\n\r\n\r\ncontract NameManager is Ownable {\r\n    /// @dev can probably remove ensRegistryAddress as it can be discovered from the Registrar\r\n    address internal ensRegistryAddress = 0x00000000000C2E074eC69A0dFb2997BA6C7d2e1e;\r\n    address internal baseRegistrarAddress = 0x57f1887a8BF19b14fC0dF6Fd9B2acc9Af147eA85;\r\n    address internal bulkRenewalAddress = 0xfF252725f6122A92551A5FA9a6b6bf10eb0Be035;\r\n    address internal RegistrarControllerAddress = 0x283Af0B28c62C092C9727F1Ee09c02CA627EB7F5;\r\n    uint256 internal renewalPeriod = 28 days;\r\n\r\n    BaseRegistrar ensReg;\r\n    ENS ens;\r\n    ENSRegistrarController ensRegController;\r\n    BulkRenewal ensBulkRenewal;\r\n    ENSResolver ensResolver;\r\n\r\n    /// @dev map user address to arrays of their names and expiry times\r\n    //mapping (address => uint256[]) names;\r\n\r\n    /// @dev map names to the users that are funding them\r\n    //mapping (uint256 => address[]) users;\r\n\r\n    uint256[] nameList;\r\n\r\n    constructor(uint256 _networkID) {\r\n        if (_networkID == 1 || _networkID == 3){\r\n            ensReg = BaseRegistrar(baseRegistrarAddress);\r\n            ens = ENS(ensReg.ens());\r\n            ensBulkRenewal = BulkRenewal(bulkRenewalAddress);\r\n            ensRegController = ENSRegistrarController(RegistrarControllerAddress);\r\n        }\r\n    }\r\n\r\n    receive() external payable {}\r\n\r\n    function executeBulkRenewal(string[] memory _names, uint256 _duration) external {\r\n        if(_duration == 0){ _duration = renewalPeriod;}\r\n        bytes4 _interfaceID = 0x3150bfba;\r\n        require(ensBulkRenewal.supportsInterface(_interfaceID),\"Incorrect ENS BulkRenewal address\");\r\n        ensBulkRenewal.renewAll{value:address(this).balance}(_names, _duration);\r\n        msg.sender.transfer(address(this).balance);\r\n    }\r\n\r\n    function checkBulkPrice(string[] memory _names, uint256 _duration) public view returns(uint256) {\r\n        return ensBulkRenewal.rentPrice(_names, _duration);\r\n    }\r\n\r\n    function checkPrice(string memory _name, uint256 _duration) public view returns(uint256) {\r\n        return ensRegController.rentPrice(_name, _duration);\r\n    }\r\n\r\n\r\n    function uintArrayToStringsArray(uint256[] memory _ints) public pure returns(string[] memory){\r\n        string[] memory _strings = new string[](_ints.length);    \r\n        for (uint i; i < _ints.length; i++){\r\n            uint256 _i = _ints[i];\r\n            if (_i == 0) {\r\n                _strings[i] = \"0\";\r\n            }\r\n            uint j = _i;\r\n            uint len;\r\n            while (j != 0) {\r\n                len++;\r\n                j /= 10;\r\n            }\r\n            bytes memory bstr = new bytes(len);\r\n            uint k = len - 1;\r\n            while (_i != 0) {\r\n                bstr[k--] = byte(uint8(48 + _i % 10));\r\n                _i /= 10;\r\n            }\r\n            _strings[i] = string(bstr);\r\n        }\r\n        return _strings;\r\n    }\r\n\r\n    /// @notice pass in an array of names and return the ones that are due for renewal and the total cost.\r\n    function checkForRenewals(uint256[] memory _nameList) public view returns(uint256[] memory, uint256){\r\n        uint256 _count = countRenewals(_nameList);\r\n        uint256 _price;\r\n        uint256[] memory _names = new uint256[](_count);\r\n        uint256 _j;\r\n        for (uint i; i < _nameList.length; i++) {\r\n            if(renewalDue(_nameList[i])) {\r\n                _names[_j] = _nameList[i];\r\n                _j++;\r\n            }\r\n        }\r\n        string[] memory _strNames = new string[](_count);\r\n        _strNames = uintArrayToStringsArray(_names);\r\n        if(_count == 1){\r\n            _price = checkPrice(_strNames[0], renewalPeriod);\r\n        } else {\r\n            _price = checkBulkPrice(_strNames, renewalPeriod); \r\n        }\r\n        return (_names, _price);\r\n    }\r\n\r\n    function countRenewals(uint256[] memory _nameList) public view returns (uint256){\r\n        uint256 _count;\r\n        for (uint i; i < _nameList.length; i++) {\r\n            if(renewalDue(_nameList[i])) {\r\n                _count++;\r\n            }\r\n        }\r\n        return (_count);\r\n    }\r\n\r\n \r\n    /*\r\n    *\r\n    *   ENS Related Functions\r\n    *\r\n    */\r\n\r\n    function returnHash(string[] calldata _name) public pure returns(bytes32){\r\n        bytes32 _nameHash;\r\n        _nameHash = computeHash(_name[0], _nameHash);\r\n        for (uint256 i = 1; i < _name.length; i++){\r\n            _nameHash = computeHash(_name[i], _nameHash); \r\n        }\r\n        return _nameHash;\r\n    }\r\n\r\n    /// @notice pass in either the _name or _nameHash to resolve an address\r\n    function resolveName(string[] calldata _name) public view returns(address){\r\n        bytes32 _nameHash = returnHash(_name);\r\n        ENSResolver _ensResolver =  ENSResolver(ens.resolver(_nameHash));\r\n        return(_ensResolver.addr(_nameHash));\r\n    }\r\n\r\n    function renewalDue(uint256 _labelhash) public view returns(bool) {\r\n        return (getNameExpiry(_labelhash) <= block.timestamp - renewalPeriod);\r\n    }\r\n\r\n    function updateRenewalPeriod(uint256 _time) public onlyOwner {\r\n        renewalPeriod = _time;\r\n    }\r\n\r\n    // @notice Update registrar and/or associated registry\r\n    // @dev Hopefully never needed\r\n    function updateRegistrar(address _address) external onlyOwner {\r\n        ensReg = BaseRegistrar(_address);\r\n        ens = ENS(ensReg.ens());\r\n    } \r\n    function updateBulkRenewal(address _address) external onlyOwner {\r\n        ensBulkRenewal = BulkRenewal(_address);\r\n    } \r\n    // @dev make me internal once testing is done\r\n    function getNameExpiry(uint256 _name) public view returns(uint256){\r\n        return ensReg.nameExpires(_name);\r\n    }\r\n\r\n    // @notice find out which contracts we're talking to\r\n    function returnEnsAddress() public view returns(address){\r\n        return address(ens);\r\n    }\r\n    function returnEnsRegAddress() public view returns(address){\r\n        return address(ensReg);\r\n    }\r\n    function returnBulkRenewalAddress() public view returns(address){\r\n        return address(ensBulkRenewal);\r\n    }\r\n    /// @dev always fails on testnet because they didn't impletment bulk renewal there\r\n    function checkRegistryMatches() public view returns(bool){\r\n        return (ensReg.ens() == ensBulkRenewal.ens());\r\n    }\r\n\r\n    /// @notice funtions to help out with ENS integration\r\n    function convertBytesToUint(bytes32 _bytes) public pure returns(uint256){\r\n        uint256 _uint = uint256(_bytes);\r\n        return (_uint);\r\n    }\r\n    function convertUintToBytes(uint256 _uint) public pure returns(bytes32){\r\n        bytes32 _bytes = bytes32(_uint);\r\n        return (_bytes);\r\n    }\r\n\r\n    // @dev this could be expensive, lets do this off-chain where possible\r\n    function computeHash(string calldata _subdomain, bytes32 _name) public pure returns (bytes32 namehash) {\r\n        namehash = keccak256(abi.encodePacked(_name, keccak256(abi.encodePacked(_subdomain))));\r\n    }\r\n\r\n    // for testing purposes\r\n    function retrieveETH() external onlyOwner {\r\n        msg.sender.transfer(address(this).balance);\r\n    }\r\n\r\n    function updateAddresses(address _ens) public {\r\n            ens = ENS(_ens);\r\n            ensReg = BaseRegistrar(ens.baseRegAddress());\r\n            ensBulkRenewal = BulkRenewal(ens.bulkRegAddress());\r\n            ensRegController = ENSRegistrarController(ens.regContAddress());\r\n    }\r\n}\r\n",
  "sourcePath": "C:/Users/anyth/Documents/GitHub/StakeYourName/contracts/NameManager.sol",
  "compiler": {
    "name": "solc",
    "version": "0.7.6+commit.7338295f.Emscripten.clang"
  },
  "schemaVersion": "3.3.3",
  "updatedAt": "2021-02-02T18:34:31.361Z",
  "devdoc": {
    "author": "Daniel Chilvers",
    "kind": "dev",
    "methods": {
      "checkRegistryMatches()": {
        "details": "always fails on testnet because they didn't impletment bulk renewal there"
      },
      "owner()": {
        "details": "Returns the address of the current owner."
      },
      "renounceOwnership()": {
        "details": "Leaves the contract without owner. It will not be possible to call `onlyOwner` functions anymore. Can only be called by the current owner. NOTE: Renouncing ownership will leave the contract without an owner, thereby removing any functionality that is only available to the owner."
      },
      "transferOwnership(address)": {
        "details": "Transfers ownership of the contract to a new account (`newOwner`). Can only be called by the current owner."
      }
    },
    "stateVariables": {
      "ensRegistryAddress": {
        "details": "can probably remove ensRegistryAddress as it can be discovered from the Registrar"
      },
      "nameList": {
        "details": "map names to the users that are funding them"
      }
    },
    "title": "StakeYourName - NameManager",
    "version": 1
  },
  "userdoc": {
    "kind": "user",
    "methods": {
      "checkForRenewals(uint256[])": {
        "notice": "pass in an array of names and return the ones that are due for renewal and the total cost."
      },
      "convertBytesToUint(bytes32)": {
        "notice": "funtions to help out with ENS integration"
      },
      "resolveName(string[])": {
        "notice": "pass in either the _name or _nameHash to resolve an address"
      }
    },
    "notice": "Maintains a list of users and names they want to keep renewedCan check for name expiry and pay for renewals",
    "version": 1
  }
}