{
  "contractName": "oneSplitSim",
  "abi": [
    {
      "anonymous": false,
      "inputs": [
        {
          "indexed": true,
          "internalType": "address",
          "name": "previousOwner",
          "type": "address"
        },
        {
          "indexed": true,
          "internalType": "address",
          "name": "newOwner",
          "type": "address"
        }
      ],
      "name": "OwnershipTransferred",
      "type": "event"
    },
    {
      "inputs": [],
      "name": "owner",
      "outputs": [
        {
          "internalType": "address",
          "name": "",
          "type": "address"
        }
      ],
      "stateMutability": "view",
      "type": "function",
      "constant": true
    },
    {
      "inputs": [],
      "name": "renounceOwnership",
      "outputs": [],
      "stateMutability": "nonpayable",
      "type": "function"
    },
    {
      "inputs": [
        {
          "internalType": "address",
          "name": "newOwner",
          "type": "address"
        }
      ],
      "name": "transferOwnership",
      "outputs": [],
      "stateMutability": "nonpayable",
      "type": "function"
    },
    {
      "stateMutability": "payable",
      "type": "receive",
      "payable": true
    },
    {
      "inputs": [
        {
          "internalType": "uint256",
          "name": "_offset",
          "type": "uint256"
        }
      ],
      "name": "changeOffset",
      "outputs": [],
      "stateMutability": "nonpayable",
      "type": "function"
    },
    {
      "inputs": [
        {
          "internalType": "address",
          "name": "_token",
          "type": "address"
        }
      ],
      "name": "fetchTokens",
      "outputs": [],
      "stateMutability": "nonpayable",
      "type": "function"
    },
    {
      "inputs": [],
      "name": "retrieveETH",
      "outputs": [],
      "stateMutability": "nonpayable",
      "type": "function"
    },
    {
      "inputs": [
        {
          "internalType": "address payable",
          "name": "_exchangeManager",
          "type": "address"
        }
      ],
      "name": "setExchangeManager",
      "outputs": [],
      "stateMutability": "nonpayable",
      "type": "function"
    },
    {
      "inputs": [
        {
          "internalType": "address",
          "name": "fromToken",
          "type": "address"
        },
        {
          "internalType": "address",
          "name": "destToken",
          "type": "address"
        },
        {
          "internalType": "uint256",
          "name": "amount",
          "type": "uint256"
        },
        {
          "internalType": "uint256",
          "name": "parts",
          "type": "uint256"
        },
        {
          "internalType": "uint256",
          "name": "flags",
          "type": "uint256"
        }
      ],
      "name": "getExpectedReturn",
      "outputs": [
        {
          "internalType": "uint256",
          "name": "returnAmount",
          "type": "uint256"
        },
        {
          "internalType": "uint256[]",
          "name": "distribution",
          "type": "uint256[]"
        }
      ],
      "stateMutability": "view",
      "type": "function",
      "constant": true
    },
    {
      "inputs": [
        {
          "internalType": "address",
          "name": "fromToken",
          "type": "address"
        },
        {
          "internalType": "address",
          "name": "destToken",
          "type": "address"
        },
        {
          "internalType": "uint256",
          "name": "amount",
          "type": "uint256"
        },
        {
          "internalType": "uint256",
          "name": "minReturn",
          "type": "uint256"
        },
        {
          "internalType": "uint256[]",
          "name": "distribution",
          "type": "uint256[]"
        },
        {
          "internalType": "uint256",
          "name": "flags",
          "type": "uint256"
        }
      ],
      "name": "swap",
      "outputs": [
        {
          "internalType": "uint256",
          "name": "returnAmount",
          "type": "uint256"
        }
      ],
      "stateMutability": "payable",
      "type": "function",
      "payable": true
    }
  ],
  "bytecode": "0x6080604052600180546001600160a01b031990811673ff795577d9ac8bd7d90ee22b6c1703490b6512fd1790915560028054821673016750ac630f711882812f24dba6c95b9d35856d17905560038054821673075a36ba8846c6b6f53644fdd3bf17e5151789dc17905560048054821673e22da380ee6b445bb8273c81944adeb6e84504221790556005805482167313512979ade267ab5100878e2e0f485b568328a41790556006805490911673b597cd8d3217ea6477232f9217fa70837ff667af17905560006007553480156100d557600080fd5b5060006100e061012f565b600080546001600160a01b0319166001600160a01b0383169081178255604051929350917f8be0079c531659141344cd1fd0a4f28419497f9722a3daafe3b4186f6b6457e0908290a350610133565b3390565b610ff2806101426000396000f3fe60806040526004361061008a5760003560e01c80638da5cb5b116100595780638da5cb5b146101b45780638e73f874146101e5578063d5b014c314610218578063e2a7515e1461022d578063f2fde38b1461030957610091565b8063085e2c5b146100965780633b311ee0146101405780634e63c66714610175578063715018a61461019f57610091565b3661009157005b600080fd5b3480156100a257600080fd5b506100e5600480360360a08110156100b957600080fd5b506001600160a01b0381358116916020810135909116906040810135906060810135906080013561033c565b6040518083815260200180602001828103825283818151815260200191508051906020019060200280838360005b8381101561012b578181015183820152602001610113565b50505050905001935050505060405180910390f35b34801561014c57600080fd5b506101736004803603602081101561016357600080fd5b50356001600160a01b03166105ea565b005b34801561018157600080fd5b506101736004803603602081101561019857600080fd5b503561073f565b3480156101ab57600080fd5b5061017361079c565b3480156101c057600080fd5b506101c961083e565b604080516001600160a01b039092168252519081900360200190f35b3480156101f157600080fd5b506101736004803603602081101561020857600080fd5b50356001600160a01b031661084d565b34801561022457600080fd5b5061017361086f565b6102f7600480360360c081101561024357600080fd5b6001600160a01b03823581169260208101359091169160408201359160608101359181019060a08101608082013564010000000081111561028357600080fd5b82018360208201111561029557600080fd5b803590602001918460208302840111640100000000831117156102b757600080fd5b91908080602002602001604051908101604052809392919081815260200183836020028082843760009201919091525092955050913592506108f6915050565b60408051918252519081900360200190f35b34801561031557600080fd5b506101736004803603602081101561032c57600080fd5b50356001600160a01b0316610cbb565b60085460009060609082908190819081906001600160a01b031663aa0e36566103648d610db3565b6040518263ffffffff1660e01b81526004018080602001828103825283818151815260200191508051906020019080838360005b838110156103b0578181015183820152602001610398565b50505050905090810190601f1680156103dd5780820380516001836020036101000a031916815260200191505b509250505060206040518083038186803b1580156103fa57600080fd5b505afa15801561040e573d6000803e3d6000fd5b505050506040513d602081101561042457600080fd5b505160408051633fabe5a360e21b815290519192506001600160a01b0383169163feaf968c9160048082019260a092909190829003018186803b15801561046a57600080fd5b505afa15801561047e573d6000803e3d6000fd5b505050506040513d60a081101561049457600080fd5b505160075460408051639a6fc8f560e01b815269ffffffffffffffffffff938416929092039283166004830152519194506001600160a01b03831691639a6fc8f59160248082019260a092909190829003018186803b1580156104f657600080fd5b505afa15801561050a573d6000803e3d6000fd5b505050506040513d60a081101561052057600080fd5b506020908101516040805163313ce56760e01b815290519196506001600160a01b0384169263313ce56792600480840193829003018186803b15801561056557600080fd5b505afa158015610579573d6000803e3d6000fd5b505050506040513d602081101561058f57600080fd5b505160ff16915061059f84610f17565b8902955081600a0a86816105af57fe5b6040805160168082526102e0820190925292909104975060009190602082016102c08036833701905050955050505050509550959350505050565b6105f2610f72565b6000546001600160a01b03908116911614610642576040805162461bcd60e51b81526020600482018190526024820152600080516020610f9d833981519152604482015290519081900360640190fd5b604080516370a0823160e01b8152306004820152905182916001600160a01b0383169163a9059cbb91339184916370a08231916024808301926020929190829003018186803b15801561069457600080fd5b505afa1580156106a8573d6000803e3d6000fd5b505050506040513d60208110156106be57600080fd5b5051604080516001600160e01b031960e086901b1681526001600160a01b03909316600484015260248301919091525160448083019260209291908290030181600087803b15801561070f57600080fd5b505af1158015610723573d6000803e3d6000fd5b505050506040513d602081101561073957600080fd5b50505050565b610747610f72565b6000546001600160a01b03908116911614610797576040805162461bcd60e51b81526020600482018190526024820152600080516020610f9d833981519152604482015290519081900360640190fd5b600755565b6107a4610f72565b6000546001600160a01b039081169116146107f4576040805162461bcd60e51b81526020600482018190526024820152600080516020610f9d833981519152604482015290519081900360640190fd5b600080546040516001600160a01b03909116907f8be0079c531659141344cd1fd0a4f28419497f9722a3daafe3b4186f6b6457e0908390a3600080546001600160a01b0319169055565b6000546001600160a01b031690565b600880546001600160a01b0319166001600160a01b0392909216919091179055565b610877610f72565b6000546001600160a01b039081169116146108c7576040805162461bcd60e51b81526020600482018190526024820152600080516020610f9d833981519152604482015290519081900360640190fd5b60405133904780156108fc02916000818181858888f193505050501580156108f3573d6000803e3d6000fd5b50565b604080516323b872dd60e01b815233600482015230602482015260448101869052905160009188916001600160a01b038316916323b872dd91606480830192602092919082900301818887803b15801561094f57600080fd5b505af1158015610963573d6000803e3d6000fd5b505050506040513d602081101561097957600080fd5b50506008546000908190819081906001600160a01b031663aa0e365661099e8e610db3565b6040518263ffffffff1660e01b81526004018080602001828103825283818151815260200191508051906020019080838360005b838110156109ea5781810151838201526020016109d2565b50505050905090810190601f168015610a175780820380516001836020036101000a031916815260200191505b509250505060206040518083038186803b158015610a3457600080fd5b505afa158015610a48573d6000803e3d6000fd5b505050506040513d6020811015610a5e57600080fd5b505160408051633fabe5a360e21b815290519192506001600160a01b0383169163feaf968c9160048082019260a092909190829003018186803b158015610aa457600080fd5b505afa158015610ab8573d6000803e3d6000fd5b505050506040513d60a0811015610ace57600080fd5b505160075460408051639a6fc8f560e01b815269ffffffffffffffffffff938416929092039283166004830152519194506001600160a01b03831691639a6fc8f59160248082019260a092909190829003018186803b158015610b3057600080fd5b505afa158015610b44573d6000803e3d6000fd5b505050506040513d60a0811015610b5a57600080fd5b506020908101516040805163313ce56760e01b815290519196506001600160a01b0384169263313ce56792600480840193829003018186803b158015610b9f57600080fd5b505afa158015610bb3573d6000803e3d6000fd5b505050506040513d6020811015610bc957600080fd5b505160ff169150610bd984610f17565b8a02955081600a0a8681610be957fe5b0495506001600160a01b038b16610c2d57604051339087156108fc029088906000818181858888f19350505050158015610c27573d6000803e3d6000fd5b50610cac565b6040805163a9059cbb60e01b81523360048201526024810188905290518c96506001600160a01b0387169163a9059cbb9160448083019260209291908290030181600087803b158015610c7f57600080fd5b505af1158015610c93573d6000803e3d6000fd5b505050506040513d6020811015610ca957600080fd5b50505b50505050509695505050505050565b610cc3610f72565b6000546001600160a01b03908116911614610d13576040805162461bcd60e51b81526020600482018190526024820152600080516020610f9d833981519152604482015290519081900360640190fd5b6001600160a01b038116610d585760405162461bcd60e51b8152600401808060200182810382526026815260200180610f776026913960400191505060405180910390fd5b600080546040516001600160a01b03808516939216917f8be0079c531659141344cd1fd0a4f28419497f9722a3daafe3b4186f6b6457e091a3600080546001600160a01b0319166001600160a01b0392909216919091179055565b6001546060906001600160a01b0383811691161415610df057506040805180820190915260078152660c8c2d25acae8d60cb1b6020820152610f12565b6002546001600160a01b0383811691161415610e2b575060408051808201909152600881526719185a4b5d1d5cd960c21b6020820152610f12565b6003546001600160a01b0383811691161415610e6557506040805180820190915260078152666461692d756e6960c81b6020820152610f12565b6004546001600160a01b0383811691161415610ea057506040805180820190915260088152676461692d7573646360c01b6020820152610f12565b6005546001600160a01b0383811691161415610edb575060408051808201909152600881526719185a4b5d5cd91d60c21b6020820152610f12565b6006546001600160a01b0383811691161415610f1257506040805180820190915260088152676461692d6161766560c01b60208201525b919050565b600080821215610f6e576040805162461bcd60e51b815260206004820181905260248201527f53616665436173743a2076616c7565206d75737420626520706f736974697665604482015290519081900360640190fd5b5090565b339056fe4f776e61626c653a206e6577206f776e657220697320746865207a65726f20616464726573734f776e61626c653a2063616c6c6572206973206e6f7420746865206f776e6572a2646970667358221220c172e60c250bd071e70175e41f70e71fa5c5e4814a9deef07c2e8ca19b4b144e64736f6c63430007060033",
  "immutableReferences": {},
  "source": "// SPDX-License-Identifier: MIT\r\npragma solidity ^0.7.0;\r\n\r\nimport \"@openzeppelin/contracts/token/ERC20/IERC20.sol\";\r\nimport \"@openzeppelin/contracts/access/Ownable.sol\";\r\nimport \"@openzeppelin/contracts/utils/SafeCast.sol\";\r\nimport \"@chainlink/contracts/v0.7/interfaces/AggregatorV3Interface.sol\";\r\nimport \"../interfaces/IExchangeManager.sol\";\r\n\r\n\r\ncontract oneSplitSim is Ownable {\r\n    address dai = 0xFf795577d9AC8bD7D90Ee22b6C1703490b6512FD;\r\n    address tusd = 0x016750AC630F711882812f24Dba6c95b9D35856d;\r\n    address uniswap = 0x075A36BA8846C6B6F53644fDd3bf17E5151789DC;\r\n    address usdc = 0xe22da380ee6B445bb8273C81944ADEB6E8450422;\r\n    address usdt = 0x13512979ADE267AB5100878E2e0f485B568328a4;\r\n    address aave = 0xB597cd8D3217ea6477232F9217fa70837ff667Af;\r\n\r\n    uint256 roundOffset = 0;\r\n\r\n    IExchangeManager exchangeManager;\r\n\r\n    function changeOffset(uint256 _offset) external onlyOwner{\r\n        roundOffset = _offset;\r\n    }\r\n\r\n    function fetchTokens(address _token) external onlyOwner {\r\n        IERC20 _erc20 = IERC20(_token);\r\n        _erc20.transfer(msg.sender, _erc20.balanceOf(address(this)));\r\n    }\r\n\r\n    function retrieveETH() external onlyOwner {\r\n        msg.sender.transfer(address(this).balance);\r\n    }\r\n\r\n    function setExchangeManager(address payable _exchangeManager) external {\r\n        exchangeManager = IExchangeManager(_exchangeManager);\r\n    }\r\n\r\n    receive() external payable {}\r\n\r\n    function getpair(address _token) internal view returns(string memory _pair){\r\n        if (_token == dai) {\r\n            _pair = \"dai-eth\";\r\n        } else if (_token == tusd) {\r\n            _pair = \"dai-tusd\";\r\n        } else if (_token == uniswap) {\r\n            _pair = \"dai-uni\";\r\n        } else if (_token == usdc) {\r\n            _pair = \"dai-usdc\";\r\n        } else if (_token == usdt) {\r\n            _pair = \"dai-usdt\";\r\n        } else if (_token == aave) {\r\n            _pair = \"dai-aave\";\r\n        }\r\n    }\r\n\r\n    /// @notice Calculate expected returning amount of `destToken`\r\n    /// @param fromToken (IERC20) Address of token or `address(0)` for Ether\r\n    /// @param destToken (IERC20) Address of token or `address(0)` for Ether\r\n    /// @param amount (uint256) Amount for `fromToken`\r\n    /// @param parts (uint256) Number of pieces source volume could be splitted,\r\n    /// works like granularity, higly affects gas usage. Should be called offchain,\r\n    /// but could be called onchain if user swaps not his own funds, but this is still considered as not safe.\r\n    /// @param flags (uint256) Flags for enabling and disabling some features, default 0\r\n    function getExpectedReturn(\r\n        address fromToken,\r\n        address destToken,\r\n        uint256 amount,\r\n        uint256 parts,\r\n        uint256 flags // See constants in IOneSplit.sol\r\n    )\r\n        external\r\n        view\r\n        returns (uint256 returnAmount, uint256[] memory distribution)\r\n    {\r\n        destToken;\r\n        parts;\r\n        flags;\r\n        \r\n        int256 _intPrice;\r\n        uint256 _round;\r\n        uint256 _decimals;\r\n        \r\n        AggregatorV3Interface _aggregator = AggregatorV3Interface(exchangeManager.getOracleAddress(getpair(fromToken)));\r\n        (_round,,,,) = _aggregator.latestRoundData();\r\n        _round = _round - roundOffset;\r\n        (,_intPrice,,,) = _aggregator.getRoundData(uint80(_round));\r\n        _decimals = _aggregator.decimals();\r\n        returnAmount = amount * SafeCast.toUint256(_intPrice);\r\n        returnAmount = returnAmount / (10**_decimals);\r\n        uint256[] memory _distribution = new uint256[](22);\r\n        return (returnAmount, _distribution);\r\n    }\r\n\r\n    /// @notice Swap `amount` of `fromToken` to `destToken`\r\n    /// @param fromToken (IERC20) Address of token or `address(0)` for Ether\r\n    /// @param destToken (IERC20) Address of token or `address(0)` for Ether\r\n    /// @param amount (uint256) Amount for `fromToken`\r\n    /// @param minReturn (uint256) Minimum expected return, else revert\r\n    /// @param distribution (uint256[]) Array of weights for volume distribution returned by `getExpectedReturn`\r\n    /// @param flags (uint256) Flags for enabling and disabling some features, default 0\r\n    function swap(\r\n        address fromToken,\r\n        address destToken,\r\n        uint256 amount,\r\n        uint256 minReturn,\r\n        uint256[] memory distribution,\r\n        uint256 flags\r\n    ) external payable returns (uint256 returnAmount) {\r\n        IERC20 _erc20 = IERC20(fromToken);\r\n        _erc20.transferFrom(msg.sender, address(this), amount);\r\n        flags;\r\n        minReturn;\r\n        distribution;\r\n\r\n        int256 _intPrice;\r\n        uint256 _round;\r\n        uint256 _decimals;\r\n        AggregatorV3Interface _aggregator = AggregatorV3Interface(exchangeManager.getOracleAddress(getpair(fromToken)));\r\n        (_round,,,,) = _aggregator.latestRoundData();\r\n        _round = _round - roundOffset;\r\n        (,_intPrice,,,) = _aggregator.getRoundData(uint80(_round));\r\n        _decimals = _aggregator.decimals();\r\n        returnAmount = amount * SafeCast.toUint256(_intPrice);\r\n        returnAmount = returnAmount / (10**_decimals);\r\n\r\n        if(destToken == address(0)){\r\n            msg.sender.transfer(returnAmount);\r\n        } else {\r\n            _erc20 = IERC20(destToken);\r\n            _erc20.transfer(msg.sender, returnAmount);\r\n        }\r\n        return returnAmount;\r\n    }\r\n}\r\n",
  "sourcePath": "C:/Users/anyth/Documents/GitHub/StakeYourName/contracts/SimulatedContracts/oneSplitSim.sol",
  "compiler": {
    "name": "solc",
    "version": "0.7.6+commit.7338295f.Emscripten.clang"
  },
  "schemaVersion": "3.3.3",
  "updatedAt": "2021-02-02T18:52:05.445Z",
  "networkType": "ethereum",
  "devdoc": {
    "kind": "dev",
    "methods": {
      "getExpectedReturn(address,address,uint256,uint256,uint256)": {
        "params": {
          "amount": "(uint256) Amount for `fromToken`",
          "destToken": "(IERC20) Address of token or `address(0)` for Ether",
          "flags": "(uint256) Flags for enabling and disabling some features, default 0",
          "fromToken": "(IERC20) Address of token or `address(0)` for Ether",
          "parts": "(uint256) Number of pieces source volume could be splitted, works like granularity, higly affects gas usage. Should be called offchain, but could be called onchain if user swaps not his own funds, but this is still considered as not safe."
        }
      },
      "owner()": {
        "details": "Returns the address of the current owner."
      },
      "renounceOwnership()": {
        "details": "Leaves the contract without owner. It will not be possible to call `onlyOwner` functions anymore. Can only be called by the current owner. NOTE: Renouncing ownership will leave the contract without an owner, thereby removing any functionality that is only available to the owner."
      },
      "swap(address,address,uint256,uint256,uint256[],uint256)": {
        "params": {
          "amount": "(uint256) Amount for `fromToken`",
          "destToken": "(IERC20) Address of token or `address(0)` for Ether",
          "distribution": "(uint256[]) Array of weights for volume distribution returned by `getExpectedReturn`",
          "flags": "(uint256) Flags for enabling and disabling some features, default 0",
          "fromToken": "(IERC20) Address of token or `address(0)` for Ether",
          "minReturn": "(uint256) Minimum expected return, else revert"
        }
      },
      "transferOwnership(address)": {
        "details": "Transfers ownership of the contract to a new account (`newOwner`). Can only be called by the current owner."
      }
    },
    "version": 1
  },
  "userdoc": {
    "kind": "user",
    "methods": {
      "getExpectedReturn(address,address,uint256,uint256,uint256)": {
        "notice": "Calculate expected returning amount of `destToken`"
      },
      "swap(address,address,uint256,uint256,uint256[],uint256)": {
        "notice": "Swap `amount` of `fromToken` to `destToken`"
      }
    },
    "version": 1
  }
}