{
  "contractName": "oneSplitSim",
  "abi": [
    {
      "anonymous": false,
      "inputs": [
        {
          "indexed": true,
          "internalType": "address",
          "name": "previousOwner",
          "type": "address"
        },
        {
          "indexed": true,
          "internalType": "address",
          "name": "newOwner",
          "type": "address"
        }
      ],
      "name": "OwnershipTransferred",
      "type": "event"
    },
    {
      "inputs": [],
      "name": "owner",
      "outputs": [
        {
          "internalType": "address",
          "name": "",
          "type": "address"
        }
      ],
      "stateMutability": "view",
      "type": "function",
      "constant": true
    },
    {
      "inputs": [],
      "name": "renounceOwnership",
      "outputs": [],
      "stateMutability": "nonpayable",
      "type": "function"
    },
    {
      "inputs": [
        {
          "internalType": "address",
          "name": "newOwner",
          "type": "address"
        }
      ],
      "name": "transferOwnership",
      "outputs": [],
      "stateMutability": "nonpayable",
      "type": "function"
    },
    {
      "stateMutability": "payable",
      "type": "receive",
      "payable": true
    },
    {
      "inputs": [
        {
          "internalType": "address",
          "name": "_token",
          "type": "address"
        }
      ],
      "name": "fetchTokens",
      "outputs": [],
      "stateMutability": "nonpayable",
      "type": "function"
    },
    {
      "inputs": [],
      "name": "retrieveETH",
      "outputs": [],
      "stateMutability": "nonpayable",
      "type": "function"
    },
    {
      "inputs": [
        {
          "internalType": "address",
          "name": "fromToken",
          "type": "address"
        },
        {
          "internalType": "address",
          "name": "destToken",
          "type": "address"
        },
        {
          "internalType": "uint256",
          "name": "amount",
          "type": "uint256"
        },
        {
          "internalType": "uint256",
          "name": "parts",
          "type": "uint256"
        },
        {
          "internalType": "uint256",
          "name": "flags",
          "type": "uint256"
        }
      ],
      "name": "getExpectedReturn",
      "outputs": [
        {
          "internalType": "uint256",
          "name": "returnAmount",
          "type": "uint256"
        },
        {
          "internalType": "uint256[]",
          "name": "distribution",
          "type": "uint256[]"
        }
      ],
      "stateMutability": "view",
      "type": "function",
      "constant": true
    },
    {
      "inputs": [
        {
          "internalType": "address",
          "name": "fromToken",
          "type": "address"
        },
        {
          "internalType": "address",
          "name": "destToken",
          "type": "address"
        },
        {
          "internalType": "uint256",
          "name": "amount",
          "type": "uint256"
        },
        {
          "internalType": "uint256",
          "name": "minReturn",
          "type": "uint256"
        },
        {
          "internalType": "uint256[]",
          "name": "distribution",
          "type": "uint256[]"
        },
        {
          "internalType": "uint256",
          "name": "flags",
          "type": "uint256"
        }
      ],
      "name": "swap",
      "outputs": [
        {
          "internalType": "uint256",
          "name": "returnAmount",
          "type": "uint256"
        }
      ],
      "stateMutability": "payable",
      "type": "function",
      "payable": true
    }
  ],
  "bytecode": "0x6080604052600180546001600160a01b031990811673ff795577d9ac8bd7d90ee22b6c1703490b6512fd1790915560028054821673016750ac630f711882812f24dba6c95b9d35856d17905560038054821673075a36ba8846c6b6f53644fdd3bf17e5151789dc17905560048054821673e22da380ee6b445bb8273c81944adeb6e84504221790556005805482167313512979ade267ab5100878e2e0f485b568328a41790556006805490911673b597cd8d3217ea6477232f9217fa70837ff667af179055660294aa8202e4006007556602942f1b8cb000600855662670bb90784000600955660291f5d3848166600a55660295a14eef4c00600b556702e0d5337e6a8000600c5534801561011357600080fd5b50600061011e61016d565b600080546001600160a01b0319166001600160a01b0383169081178255604051929350917f8be0079c531659141344cd1fd0a4f28419497f9722a3daafe3b4186f6b6457e0908290a350610171565b3390565b610a13806101806000396000f3fe6080604052600436106100745760003560e01c80638da5cb5b1161004e5780638da5cb5b14610174578063d5b014c3146101a5578063e2a7515e146101ba578063f2fde38b146102965761007b565b8063085e2c5b146100805780633b311ee01461012a578063715018a61461015f5761007b565b3661007b57005b600080fd5b34801561008c57600080fd5b506100cf600480360360a08110156100a357600080fd5b506001600160a01b038135811691602081013590911690604081013590606081013590608001356102c9565b6040518083815260200180602001828103825283818151815260200191508051906020019060200280838360005b838110156101155781810151838201526020016100fd565b50505050905001935050505060405180910390f35b34801561013657600080fd5b5061015d6004803603602081101561014d57600080fd5b50356001600160a01b0316610420565b005b34801561016b57600080fd5b5061015d610575565b34801561018057600080fd5b50610189610617565b604080516001600160a01b039092168252519081900360200190f35b3480156101b157600080fd5b5061015d610626565b610284600480360360c08110156101d057600080fd5b6001600160a01b03823581169260208101359091169160408201359160608101359181019060a08101608082013564010000000081111561021057600080fd5b82018360208201111561022257600080fd5b8035906020019184602083028401116401000000008311171561024457600080fd5b91908080602002602001604051908101604052809392919081815260200183836020028082843760009201919091525092955050913592506106ad915050565b60408051918252519081900360200190f35b3480156102a257600080fd5b5061015d600480360360208110156102b957600080fd5b50356001600160a01b031661089b565b6001546000906060906001600160a01b03888116911614156103055760075485029450670de0b6b3a764000085816102fd57fe5b0494506103ef565b6002546001600160a01b03888116911614156103335760085485029450670de0b6b3a764000085816102fd57fe5b6003546001600160a01b03888116911614156103615760095485029450670de0b6b3a764000085816102fd57fe5b6004546001600160a01b038881169116141561038f57600a5485029450670de0b6b3a764000085816102fd57fe5b6005546001600160a01b03888116911614156103bd57600b5485029450670de0b6b3a764000085816102fd57fe5b6006546001600160a01b03888116911614156103ef57600c5485029450670de0b6b3a764000085816103eb57fe5b0494505b6040805160168082526102e08201909252600091602082016102c08036833750979a91995090975050505050505050565b610428610993565b6000546001600160a01b03908116911614610478576040805162461bcd60e51b815260206004820181905260248201526000805160206109be833981519152604482015290519081900360640190fd5b604080516370a0823160e01b8152306004820152905182916001600160a01b0383169163a9059cbb91339184916370a08231916024808301926020929190829003018186803b1580156104ca57600080fd5b505afa1580156104de573d6000803e3d6000fd5b505050506040513d60208110156104f457600080fd5b5051604080516001600160e01b031960e086901b1681526001600160a01b03909316600484015260248301919091525160448083019260209291908290030181600087803b15801561054557600080fd5b505af1158015610559573d6000803e3d6000fd5b505050506040513d602081101561056f57600080fd5b50505050565b61057d610993565b6000546001600160a01b039081169116146105cd576040805162461bcd60e51b815260206004820181905260248201526000805160206109be833981519152604482015290519081900360640190fd5b600080546040516001600160a01b03909116907f8be0079c531659141344cd1fd0a4f28419497f9722a3daafe3b4186f6b6457e0908390a3600080546001600160a01b0319169055565b6000546001600160a01b031690565b61062e610993565b6000546001600160a01b0390811691161461067e576040805162461bcd60e51b815260206004820181905260248201526000805160206109be833981519152604482015290519081900360640190fd5b60405133904780156108fc02916000818181858888f193505050501580156106aa573d6000803e3d6000fd5b50565b604080516323b872dd60e01b815233600482015230602482015260448101869052905160009188916001600160a01b038316916323b872dd91606480830192602092919082900301818887803b15801561070657600080fd5b505af115801561071a573d6000803e3d6000fd5b505050506040513d602081101561073057600080fd5b50506001546001600160a01b03898116911614156107685760075486029550670de0b6b3a7640000868161076057fe5b049550610852565b6002546001600160a01b03898116911614156107965760085486029550670de0b6b3a7640000868161076057fe5b6003546001600160a01b03898116911614156107c45760095486029550670de0b6b3a7640000868161076057fe5b6004546001600160a01b03898116911614156107f257600a5486029550670de0b6b3a7640000868161076057fe5b6005546001600160a01b038981169116141561082057600b5486029550670de0b6b3a7640000868161076057fe5b6006546001600160a01b038981169116141561085257600c5486029550670de0b6b3a7640000868161084e57fe5b0495505b6001600160a01b03871661088f57604051339087156108fc029088906000818181858888f1935050505015801561088d573d6000803e3d6000fd5b505b50939695505050505050565b6108a3610993565b6000546001600160a01b039081169116146108f3576040805162461bcd60e51b815260206004820181905260248201526000805160206109be833981519152604482015290519081900360640190fd5b6001600160a01b0381166109385760405162461bcd60e51b81526004018080602001828103825260268152602001806109986026913960400191505060405180910390fd5b600080546040516001600160a01b03808516939216917f8be0079c531659141344cd1fd0a4f28419497f9722a3daafe3b4186f6b6457e091a3600080546001600160a01b0319166001600160a01b0392909216919091179055565b339056fe4f776e61626c653a206e6577206f776e657220697320746865207a65726f20616464726573734f776e61626c653a2063616c6c6572206973206e6f7420746865206f776e6572a264697066735822122012581047196d8287cb9d05cf4963c642ebd23271fd74b55ba9dfbdcefc50efe064736f6c63430007060033",
  "immutableReferences": {},
  "source": "// SPDX-License-Identifier: MIT\r\npragma solidity ^0.7.0;\r\n\r\nimport \"@openzeppelin/contracts/token/ERC20/IERC20.sol\";\r\nimport \"@openzeppelin/contracts/access/Ownable.sol\";\r\n\r\ncontract oneSplitSim is Ownable {\r\n    address dai = 0xFf795577d9AC8bD7D90Ee22b6C1703490b6512FD;\r\n    address tusd = 0x016750AC630F711882812f24Dba6c95b9D35856d;\r\n    address uniswap = 0x075A36BA8846C6B6F53644fDd3bf17E5151789DC;\r\n    address usdc = 0xe22da380ee6B445bb8273C81944ADEB6E8450422;\r\n    address usdt = 0x13512979ADE267AB5100878E2e0f485B568328a4;\r\n    address aave = 0xB597cd8D3217ea6477232F9217fa70837ff667Af;\r\n\r\n    uint256 daiRate = 726410000000000;\r\n    uint256 tusdRate = 725880000000000;\r\n    uint256 uniswapRate = 10820000000000000;\r\n    uint256 usdcRate = 723434955112806;\r\n    uint256 usdtRate = 727470000000000;\r\n    uint256 aaveRate = 207400000000000000;\r\n\r\n    function fetchTokens(address _token) external onlyOwner {\r\n        IERC20 _erc20 = IERC20(_token);\r\n        _erc20.transfer(msg.sender, _erc20.balanceOf(address(this)));\r\n    }\r\n\r\n    function retrieveETH() external onlyOwner {\r\n        msg.sender.transfer(address(this).balance);\r\n    }\r\n\r\n    receive() external payable {}\r\n\r\n    /// @notice Calculate expected returning amount of `destToken`\r\n    /// @param fromToken (IERC20) Address of token or `address(0)` for Ether\r\n    /// @param destToken (IERC20) Address of token or `address(0)` for Ether\r\n    /// @param amount (uint256) Amount for `fromToken`\r\n    /// @param parts (uint256) Number of pieces source volume could be splitted,\r\n    /// works like granularity, higly affects gas usage. Should be called offchain,\r\n    /// but could be called onchain if user swaps not his own funds, but this is still considered as not safe.\r\n    /// @param flags (uint256) Flags for enabling and disabling some features, default 0\r\n    function getExpectedReturn(\r\n        address fromToken,\r\n        address destToken,\r\n        uint256 amount,\r\n        uint256 parts,\r\n        uint256 flags // See constants in IOneSplit.sol\r\n    )\r\n        external\r\n        view\r\n        returns (uint256 returnAmount, uint256[] memory distribution)\r\n    {\r\n        destToken;\r\n        parts;\r\n        flags;\r\n        if (fromToken == dai) {\r\n            amount = amount * daiRate;\r\n            amount = amount / 10**18;\r\n        } else if (fromToken == tusd) {\r\n            amount = amount * tusdRate;\r\n            amount = amount / 10**18;\r\n        } else if (fromToken == uniswap) {\r\n            amount = amount * uniswapRate;\r\n            amount = amount / 10**18;\r\n        } else if (fromToken == usdc) {\r\n            amount = amount * usdcRate;\r\n            amount = amount / 10**18;\r\n        } else if (fromToken == usdt) {\r\n            amount = amount * usdtRate;\r\n            amount = amount / 10**18;\r\n        } else if (fromToken == aave) {\r\n            amount = amount * aaveRate;\r\n            amount = amount / 10**18;\r\n        }\r\n\r\n        uint256[] memory _distribution = new uint256[](22);\r\n        return (amount, _distribution);\r\n    }\r\n\r\n    /// @notice Swap `amount` of `fromToken` to `destToken`\r\n    /// @param fromToken (IERC20) Address of token or `address(0)` for Ether\r\n    /// @param destToken (IERC20) Address of token or `address(0)` for Ether\r\n    /// @param amount (uint256) Amount for `fromToken`\r\n    /// @param minReturn (uint256) Minimum expected return, else revert\r\n    /// @param distribution (uint256[]) Array of weights for volume distribution returned by `getExpectedReturn`\r\n    /// @param flags (uint256) Flags for enabling and disabling some features, default 0\r\n    function swap(\r\n        address fromToken,\r\n        address destToken,\r\n        uint256 amount,\r\n        uint256 minReturn,\r\n        uint256[] memory distribution,\r\n        uint256 flags\r\n    ) external payable returns (uint256 returnAmount) {\r\n        IERC20 _erc20 = IERC20(fromToken);\r\n        _erc20.transferFrom(msg.sender, address(this), amount);\r\n        flags;\r\n        minReturn;\r\n        distribution;\r\n        if (fromToken == dai) {\r\n            amount = amount * daiRate;\r\n            amount = amount / 10**18;\r\n        } else if (fromToken == tusd) {\r\n            amount = amount * tusdRate;\r\n            amount = amount / 10**18;\r\n        } else if (fromToken == uniswap) {\r\n            amount = amount * uniswapRate;\r\n            amount = amount / 10**18;\r\n        } else if (fromToken == usdc) {\r\n            amount = amount * usdcRate;\r\n            amount = amount / 10**18;\r\n        } else if (fromToken == usdt) {\r\n            amount = amount * usdtRate;\r\n            amount = amount / 10**18;\r\n        } else if (fromToken == aave) {\r\n            amount = amount * aaveRate;\r\n            amount = amount / 10**18;\r\n        }\r\n        if(destToken == address(0)){\r\n            msg.sender.transfer(amount);\r\n        } \r\n        return (amount);\r\n    }\r\n}\r\n",
  "sourcePath": "C:/Users/anyth/Documents/GitHub/StakeYourName/contracts/SimulatedContracts/oneSplitSim.sol",
  "compiler": {
    "name": "solc",
    "version": "0.7.6+commit.7338295f.Emscripten.clang"
  },
  "schemaVersion": "3.3.3",
  "updatedAt": "2021-02-01T18:35:33.370Z",
  "networkType": "ethereum",
  "devdoc": {
    "kind": "dev",
    "methods": {
      "getExpectedReturn(address,address,uint256,uint256,uint256)": {
        "params": {
          "amount": "(uint256) Amount for `fromToken`",
          "destToken": "(IERC20) Address of token or `address(0)` for Ether",
          "flags": "(uint256) Flags for enabling and disabling some features, default 0",
          "fromToken": "(IERC20) Address of token or `address(0)` for Ether",
          "parts": "(uint256) Number of pieces source volume could be splitted, works like granularity, higly affects gas usage. Should be called offchain, but could be called onchain if user swaps not his own funds, but this is still considered as not safe."
        }
      },
      "owner()": {
        "details": "Returns the address of the current owner."
      },
      "renounceOwnership()": {
        "details": "Leaves the contract without owner. It will not be possible to call `onlyOwner` functions anymore. Can only be called by the current owner. NOTE: Renouncing ownership will leave the contract without an owner, thereby removing any functionality that is only available to the owner."
      },
      "swap(address,address,uint256,uint256,uint256[],uint256)": {
        "params": {
          "amount": "(uint256) Amount for `fromToken`",
          "destToken": "(IERC20) Address of token or `address(0)` for Ether",
          "distribution": "(uint256[]) Array of weights for volume distribution returned by `getExpectedReturn`",
          "flags": "(uint256) Flags for enabling and disabling some features, default 0",
          "fromToken": "(IERC20) Address of token or `address(0)` for Ether",
          "minReturn": "(uint256) Minimum expected return, else revert"
        }
      },
      "transferOwnership(address)": {
        "details": "Transfers ownership of the contract to a new account (`newOwner`). Can only be called by the current owner."
      }
    },
    "version": 1
  },
  "userdoc": {
    "kind": "user",
    "methods": {
      "getExpectedReturn(address,address,uint256,uint256,uint256)": {
        "notice": "Calculate expected returning amount of `destToken`"
      },
      "swap(address,address,uint256,uint256,uint256[],uint256)": {
        "notice": "Swap `amount` of `fromToken` to `destToken`"
      }
    },
    "version": 1
  }
}