{
  "contractName": "oneSplitSim",
  "abi": [
    {
      "inputs": [
        {
          "internalType": "address",
          "name": "fromToken",
          "type": "address"
        },
        {
          "internalType": "address",
          "name": "destToken",
          "type": "address"
        },
        {
          "internalType": "uint256",
          "name": "amount",
          "type": "uint256"
        },
        {
          "internalType": "uint256",
          "name": "parts",
          "type": "uint256"
        },
        {
          "internalType": "uint256",
          "name": "flags",
          "type": "uint256"
        }
      ],
      "name": "getExpectedReturn",
      "outputs": [
        {
          "internalType": "uint256",
          "name": "returnAmount",
          "type": "uint256"
        },
        {
          "internalType": "uint256[]",
          "name": "distribution",
          "type": "uint256[]"
        }
      ],
      "stateMutability": "view",
      "type": "function"
    },
    {
      "inputs": [
        {
          "internalType": "address",
          "name": "fromToken",
          "type": "address"
        },
        {
          "internalType": "address",
          "name": "destToken",
          "type": "address"
        },
        {
          "internalType": "uint256",
          "name": "amount",
          "type": "uint256"
        },
        {
          "internalType": "uint256",
          "name": "minReturn",
          "type": "uint256"
        },
        {
          "internalType": "uint256[]",
          "name": "distribution",
          "type": "uint256[]"
        },
        {
          "internalType": "uint256",
          "name": "flags",
          "type": "uint256"
        }
      ],
      "name": "swap",
      "outputs": [
        {
          "internalType": "uint256",
          "name": "returnAmount",
          "type": "uint256"
        }
      ],
      "stateMutability": "payable",
      "type": "function"
    }
  ],
  "bytecode": "0x6080604052600080546001600160a01b031990811673ff795577d9ac8bd7d90ee22b6c1703490b6512fd1790915560018054821673016750ac630f711882812f24dba6c95b9d35856d17905560028054821673075a36ba8846c6b6f53644fdd3bf17e5151789dc17905560038054821673e22da380ee6b445bb8273c81944adeb6e84504221790556004805482167313512979ade267ab5100878e2e0f485b568328a41790556005805490911673b597cd8d3217ea6477232f9217fa70837ff667af179055660294aa8202e4006006556602942f1b8cb000600755662670bb90784000600855660291f5d3848166600955660295a14eef4c00600a556702e0d5337e6a8000600b5534801561011357600080fd5b5061046b806101236000396000f3fe6080604052600436106100295760003560e01c8063085e2c5b1461002e578063e2a7515e146100d8575b600080fd5b34801561003a57600080fd5b5061007d600480360360a081101561005157600080fd5b506001600160a01b038135811691602081013590911690604081013590606081013590608001356101b4565b6040518083815260200180602001828103825283818151815260200191508051906020019060200280838360005b838110156100c35781810151838201526020016100ab565b50505050905001935050505060405180910390f35b6101a2600480360360c08110156100ee57600080fd5b6001600160a01b03823581169260208101359091169160408201359160608101359181019060a08101608082013564010000000081111561012e57600080fd5b82018360208201111561014057600080fd5b8035906020019184602083028401116401000000008311171561016257600080fd5b9190808060200260200160405190810160405280939291908181526020018383602002808284376000920191909152509295505091359250610309915050565b60408051918252519081900360200190f35b600080546060906001600160a01b03888116911614156101ee5760065485029450670de0b6b3a764000085816101e657fe5b0494506102d8565b6001546001600160a01b038881169116141561021c5760075485029450670de0b6b3a764000085816101e657fe5b6002546001600160a01b038881169116141561024a5760085485029450670de0b6b3a764000085816101e657fe5b6003546001600160a01b03888116911614156102785760095485029450670de0b6b3a764000085816101e657fe5b6004546001600160a01b03888116911614156102a657600a5485029450670de0b6b3a764000085816101e657fe5b6005546001600160a01b03888116911614156102d857600b5485029450670de0b6b3a764000085816102d457fe5b0494505b6040805160168082526102e08201909252600091602082016102c08036833750979a91995090975050505050505050565b600080546001600160a01b03888116911614156103405760065485029450670de0b6b3a7640000858161033857fe5b04945061042a565b6001546001600160a01b038881169116141561036e5760075485029450670de0b6b3a7640000858161033857fe5b6002546001600160a01b038881169116141561039c5760085485029450670de0b6b3a7640000858161033857fe5b6003546001600160a01b03888116911614156103ca5760095485029450670de0b6b3a7640000858161033857fe5b6004546001600160a01b03888116911614156103f857600a5485029450670de0b6b3a7640000858161033857fe5b6005546001600160a01b038881169116141561042a57600b5485029450670de0b6b3a7640000858161042657fe5b0494505b50929594505050505056fea26469706673582212204404f94d5d05940ab7b0ba9443a7614834540f0e26875c25ef3981521081237864736f6c63430007060033",
  "immutableReferences": {},
  "source": "// SPDX-License-Identifier: MIT\r\npragma solidity ^0.7.0;\r\n\r\n\r\ncontract oneSplitSim {\r\n\r\n    address dai = 0xFf795577d9AC8bD7D90Ee22b6C1703490b6512FD;\r\n    address tusd = 0x016750AC630F711882812f24Dba6c95b9D35856d;\r\n    address uniswap = 0x075A36BA8846C6B6F53644fDd3bf17E5151789DC;\r\n    address usdc = 0xe22da380ee6B445bb8273C81944ADEB6E8450422;\r\n    address usdt = 0x13512979ADE267AB5100878E2e0f485B568328a4;\r\n    address aave = 0xB597cd8D3217ea6477232F9217fa70837ff667Af;\r\n\r\n    uint256 daiRate = 726410000000000;\r\n    uint256 tusdRate = 725880000000000;\r\n    uint256 uniswapRate = 10820000000000000;\r\n    uint256 usdcRate = 723434955112806;\r\n    uint256 usdtRate = 727470000000000;\r\n    uint256 aaveRate = 207400000000000000;\r\n\r\n    /// @notice Calculate expected returning amount of `destToken`\r\n    /// @param fromToken (IERC20) Address of token or `address(0)` for Ether\r\n    /// @param destToken (IERC20) Address of token or `address(0)` for Ether\r\n    /// @param amount (uint256) Amount for `fromToken`\r\n    /// @param parts (uint256) Number of pieces source volume could be splitted,\r\n    /// works like granularity, higly affects gas usage. Should be called offchain,\r\n    /// but could be called onchain if user swaps not his own funds, but this is still considered as not safe.\r\n    /// @param flags (uint256) Flags for enabling and disabling some features, default 0\r\n    function getExpectedReturn(\r\n        address fromToken,\r\n        address destToken,\r\n        uint256 amount,\r\n        uint256 parts,\r\n        uint256 flags // See constants in IOneSplit.sol\r\n    )\r\n        external\r\n        view\r\n        returns(\r\n            uint256 returnAmount,\r\n            uint256[] memory distribution\r\n        ){\r\n            destToken;\r\n            parts;\r\n            flags;\r\n            if(fromToken == dai){\r\n                amount = amount*daiRate;\r\n                amount = amount/10**18;\r\n            } else if(fromToken == tusd){\r\n                amount = amount*tusdRate;\r\n                amount = amount/10**18;\r\n            } else if(fromToken == uniswap){\r\n                amount = amount*uniswapRate;\r\n                amount = amount/10**18;\r\n            } else if(fromToken == usdc){\r\n                amount = amount*usdcRate;\r\n                amount = amount/10**18;\r\n            } else if(fromToken == usdt){\r\n                amount = amount*usdtRate;\r\n                amount = amount/10**18;\r\n            } else if(fromToken == aave){\r\n                amount = amount*aaveRate;\r\n                amount = amount/10**18;\r\n            }\r\n\r\n            uint256[] memory _distribution = new uint256[](22);\r\n            return (amount,_distribution);\r\n        }\r\n\r\n    /// @notice Swap `amount` of `fromToken` to `destToken`\r\n    /// @param fromToken (IERC20) Address of token or `address(0)` for Ether\r\n    /// @param destToken (IERC20) Address of token or `address(0)` for Ether\r\n    /// @param amount (uint256) Amount for `fromToken`\r\n    /// @param minReturn (uint256) Minimum expected return, else revert\r\n    /// @param distribution (uint256[]) Array of weights for volume distribution returned by `getExpectedReturn`\r\n    /// @param flags (uint256) Flags for enabling and disabling some features, default 0\r\n    function swap(\r\n        address fromToken,\r\n        address destToken,\r\n        uint256 amount,\r\n        uint256 minReturn,\r\n        uint256[] memory distribution,\r\n        uint256 flags\r\n    )\r\n        external\r\n        payable\r\n        returns(uint256 returnAmount){\r\n            destToken;\r\n            flags;\r\n            minReturn;\r\n            distribution;\r\n            if(fromToken == dai){\r\n                amount = amount*daiRate;\r\n                amount = amount/10**18;\r\n            } else if(fromToken == tusd){\r\n                amount = amount*tusdRate;\r\n                amount = amount/10**18;\r\n            } else if(fromToken == uniswap){\r\n                amount = amount*uniswapRate;\r\n                amount = amount/10**18;\r\n            } else if(fromToken == usdc){\r\n                amount = amount*usdcRate;\r\n                amount = amount/10**18;\r\n            } else if(fromToken == usdt){\r\n                amount = amount*usdtRate;\r\n                amount = amount/10**18;\r\n            } else if(fromToken == aave){\r\n                amount = amount*aaveRate;\r\n                amount = amount/10**18;\r\n            }\r\n            return (amount);\r\n        }\r\n\r\n     \r\n}",
  "sourcePath": "C:/Users/anyth/Documents/GitHub/StakeYourName/contracts/SimulatedContracts/oneSplitSim.sol",
  "compiler": {
    "name": "solc",
    "version": "0.7.6+commit.7338295f.Emscripten.clang"
  },
  "schemaVersion": "3.3.3",
  "updatedAt": "2021-02-01T15:31:38.099Z",
  "devdoc": {
    "kind": "dev",
    "methods": {
      "getExpectedReturn(address,address,uint256,uint256,uint256)": {
        "params": {
          "amount": "(uint256) Amount for `fromToken`",
          "destToken": "(IERC20) Address of token or `address(0)` for Ether",
          "flags": "(uint256) Flags for enabling and disabling some features, default 0",
          "fromToken": "(IERC20) Address of token or `address(0)` for Ether",
          "parts": "(uint256) Number of pieces source volume could be splitted, works like granularity, higly affects gas usage. Should be called offchain, but could be called onchain if user swaps not his own funds, but this is still considered as not safe."
        }
      },
      "swap(address,address,uint256,uint256,uint256[],uint256)": {
        "params": {
          "amount": "(uint256) Amount for `fromToken`",
          "destToken": "(IERC20) Address of token or `address(0)` for Ether",
          "distribution": "(uint256[]) Array of weights for volume distribution returned by `getExpectedReturn`",
          "flags": "(uint256) Flags for enabling and disabling some features, default 0",
          "fromToken": "(IERC20) Address of token or `address(0)` for Ether",
          "minReturn": "(uint256) Minimum expected return, else revert"
        }
      }
    },
    "version": 1
  },
  "userdoc": {
    "kind": "user",
    "methods": {
      "getExpectedReturn(address,address,uint256,uint256,uint256)": {
        "notice": "Calculate expected returning amount of `destToken`"
      },
      "swap(address,address,uint256,uint256,uint256[],uint256)": {
        "notice": "Swap `amount` of `fromToken` to `destToken`"
      }
    },
    "version": 1
  }
}