{
  "contractName": "StakeYourName",
  "abi": [
    {
      "inputs": [],
      "stateMutability": "nonpayable",
      "type": "constructor"
    },
    {
      "anonymous": false,
      "inputs": [
        {
          "indexed": true,
          "internalType": "address",
          "name": "previousOwner",
          "type": "address"
        },
        {
          "indexed": true,
          "internalType": "address",
          "name": "newOwner",
          "type": "address"
        }
      ],
      "name": "OwnershipTransferred",
      "type": "event"
    },
    {
      "inputs": [],
      "name": "owner",
      "outputs": [
        {
          "internalType": "address",
          "name": "",
          "type": "address"
        }
      ],
      "stateMutability": "view",
      "type": "function",
      "constant": true
    },
    {
      "inputs": [],
      "name": "referralCode",
      "outputs": [
        {
          "internalType": "uint256",
          "name": "",
          "type": "uint256"
        }
      ],
      "stateMutability": "view",
      "type": "function",
      "constant": true
    },
    {
      "inputs": [],
      "name": "renounceOwnership",
      "outputs": [],
      "stateMutability": "nonpayable",
      "type": "function"
    },
    {
      "inputs": [
        {
          "internalType": "address",
          "name": "newOwner",
          "type": "address"
        }
      ],
      "name": "transferOwnership",
      "outputs": [],
      "stateMutability": "nonpayable",
      "type": "function"
    },
    {
      "inputs": [
        {
          "internalType": "uint256",
          "name": "_name",
          "type": "uint256"
        }
      ],
      "name": "addName",
      "outputs": [],
      "stateMutability": "nonpayable",
      "type": "function"
    },
    {
      "inputs": [
        {
          "internalType": "uint256[]",
          "name": "_names",
          "type": "uint256[]"
        }
      ],
      "name": "addMultipleNames",
      "outputs": [],
      "stateMutability": "nonpayable",
      "type": "function"
    },
    {
      "inputs": [
        {
          "internalType": "uint256",
          "name": "_name",
          "type": "uint256"
        }
      ],
      "name": "removeName",
      "outputs": [],
      "stateMutability": "nonpayable",
      "type": "function"
    },
    {
      "inputs": [
        {
          "internalType": "uint256[]",
          "name": "_names",
          "type": "uint256[]"
        }
      ],
      "name": "removeMultipleNames",
      "outputs": [],
      "stateMutability": "nonpayable",
      "type": "function"
    },
    {
      "inputs": [
        {
          "internalType": "address",
          "name": "_asset",
          "type": "address"
        },
        {
          "internalType": "uint256",
          "name": "_amount",
          "type": "uint256"
        },
        {
          "internalType": "bool",
          "name": "_newUser",
          "type": "bool"
        }
      ],
      "name": "deposit",
      "outputs": [],
      "stateMutability": "nonpayable",
      "type": "function"
    },
    {
      "inputs": [
        {
          "internalType": "address",
          "name": "_asset",
          "type": "address"
        },
        {
          "internalType": "uint256",
          "name": "_amount",
          "type": "uint256"
        }
      ],
      "name": "withdraw",
      "outputs": [],
      "stateMutability": "nonpayable",
      "type": "function"
    },
    {
      "inputs": [],
      "name": "deployVault",
      "outputs": [],
      "stateMutability": "nonpayable",
      "type": "function"
    },
    {
      "inputs": [
        {
          "internalType": "address",
          "name": "_vault",
          "type": "address"
        }
      ],
      "name": "setMasterVault",
      "outputs": [],
      "stateMutability": "nonpayable",
      "type": "function"
    },
    {
      "inputs": [
        {
          "internalType": "address",
          "name": "_asset",
          "type": "address"
        },
        {
          "internalType": "uint256",
          "name": "_balance",
          "type": "uint256"
        }
      ],
      "name": "setBalance",
      "outputs": [],
      "stateMutability": "nonpayable",
      "type": "function"
    },
    {
      "inputs": [
        {
          "internalType": "address",
          "name": "_asset",
          "type": "address"
        }
      ],
      "name": "getBalance",
      "outputs": [
        {
          "internalType": "uint256",
          "name": "",
          "type": "uint256"
        }
      ],
      "stateMutability": "view",
      "type": "function",
      "constant": true
    },
    {
      "inputs": [
        {
          "internalType": "address",
          "name": "_asset",
          "type": "address"
        }
      ],
      "name": "getInterest",
      "outputs": [
        {
          "internalType": "uint256",
          "name": "",
          "type": "uint256"
        }
      ],
      "stateMutability": "view",
      "type": "function",
      "constant": true
    },
    {
      "inputs": [
        {
          "internalType": "address",
          "name": "_asset",
          "type": "address"
        }
      ],
      "name": "getTotal",
      "outputs": [
        {
          "internalType": "uint256",
          "name": "",
          "type": "uint256"
        }
      ],
      "stateMutability": "view",
      "type": "function",
      "constant": true
    },
    {
      "inputs": [
        {
          "internalType": "address",
          "name": "_vault",
          "type": "address"
        }
      ],
      "name": "findVault",
      "outputs": [
        {
          "internalType": "address",
          "name": "",
          "type": "address"
        }
      ],
      "stateMutability": "view",
      "type": "function",
      "constant": true
    },
    {
      "inputs": [
        {
          "internalType": "address",
          "name": "_asset",
          "type": "address"
        }
      ],
      "name": "approveVault",
      "outputs": [],
      "stateMutability": "nonpayable",
      "type": "function"
    },
    {
      "inputs": [
        {
          "internalType": "address",
          "name": "_asset",
          "type": "address"
        }
      ],
      "name": "vaultAddAsset",
      "outputs": [],
      "stateMutability": "nonpayable",
      "type": "function"
    },
    {
      "inputs": [
        {
          "internalType": "address",
          "name": "_asset",
          "type": "address"
        }
      ],
      "name": "vaultRemoveAsset",
      "outputs": [],
      "stateMutability": "nonpayable",
      "type": "function"
    },
    {
      "inputs": [],
      "name": "getOwner",
      "outputs": [
        {
          "internalType": "address",
          "name": "",
          "type": "address"
        }
      ],
      "stateMutability": "view",
      "type": "function",
      "constant": true
    },
    {
      "inputs": [],
      "name": "renewNames",
      "outputs": [],
      "stateMutability": "view",
      "type": "function",
      "constant": true
    },
    {
      "inputs": [
        {
          "internalType": "uint256",
          "name": "_cost",
          "type": "uint256"
        },
        {
          "internalType": "address",
          "name": "_user",
          "type": "address"
        }
      ],
      "name": "checkAvailiableFunds",
      "outputs": [
        {
          "internalType": "bool",
          "name": "_accept",
          "type": "bool"
        },
        {
          "internalType": "address",
          "name": "_token",
          "type": "address"
        },
        {
          "internalType": "uint256[]",
          "name": "_distribution",
          "type": "uint256[]"
        }
      ],
      "stateMutability": "view",
      "type": "function",
      "constant": true
    },
    {
      "inputs": [],
      "name": "swapAssets",
      "outputs": [],
      "stateMutability": "view",
      "type": "function",
      "constant": true
    },
    {
      "inputs": [
        {
          "internalType": "uint256",
          "name": "_ref",
          "type": "uint256"
        }
      ],
      "name": "updateReferral",
      "outputs": [],
      "stateMutability": "nonpayable",
      "type": "function"
    },
    {
      "inputs": [
        {
          "internalType": "address",
          "name": "_address",
          "type": "address"
        }
      ],
      "name": "setNameManager",
      "outputs": [],
      "stateMutability": "nonpayable",
      "type": "function"
    },
    {
      "inputs": [
        {
          "internalType": "address",
          "name": "_address",
          "type": "address"
        }
      ],
      "name": "setExchangeManager",
      "outputs": [],
      "stateMutability": "nonpayable",
      "type": "function"
    },
    {
      "inputs": [
        {
          "internalType": "address",
          "name": "_address",
          "type": "address"
        }
      ],
      "name": "setInvestmentManager",
      "outputs": [],
      "stateMutability": "nonpayable",
      "type": "function"
    },
    {
      "inputs": [
        {
          "internalType": "address",
          "name": "_asset",
          "type": "address"
        }
      ],
      "name": "approveInvestmentManager",
      "outputs": [],
      "stateMutability": "nonpayable",
      "type": "function"
    }
  ],
  "bytecode": "0x60806040526000600660006101000a81548173ffffffffffffffffffffffffffffffffffffffff021916908373ffffffffffffffffffffffffffffffffffffffff160217905550600060085560027fffffffffffffffffffffffffffffffffffffffffffffffffffffffffffffffff816200007657fe5b046009556064600b553480156200008c57600080fd5b5060006200009f6200014360201b60201c565b9050806000806101000a81548173ffffffffffffffffffffffffffffffffffffffff021916908373ffffffffffffffffffffffffffffffffffffffff1602179055508073ffffffffffffffffffffffffffffffffffffffff16600073ffffffffffffffffffffffffffffffffffffffff167f8be0079c531659141344cd1fd0a4f28419497f9722a3daafe3b4186f6b6457e060405160405180910390a3506200014b565b600033905090565b6145e8806200015b6000396000f3fe608060405234801561001057600080fd5b50600436106101cf5760003560e01c80637d1c12e811610104578063d8b6d252116100a2578063ebb6dad811610071578063ebb6dad81461048c578063f2fde38b146104bc578063f3fef3a3146104d8578063f8b2cb4f146104f4576101cf565b8063d8b6d25214610404578063e0cc0d6814610422578063e106273c1461043e578063e30443bc14610470576101cf565b80638e73f874116100de5780638e73f874146103b8578063901c4e4f146103d4578063b5022707146103de578063ce1ee2c2146103e8576101cf565b80637d1c12e814610360578063893d20e81461037c5780638da5cb5b1461039a576101cf565b806366d626eb116101715780636df9d3791161014b5780636df9d37914610300578063715018a61461030a5780637a82794b146103145780637aaa347014610330576101cf565b806366d626eb146102ac5780636de43cc2146102c85780636de5de0f146102e4576101cf565b806349c9832a116101ad57806349c9832a1461023c5780634e75486a1461025857806353b08df6146102745780635878388014610290576101cf565b806302df7540146101d45780630fa73166146102045780633edd112814610220575b600080fd5b6101ee60048036038101906101e99190613b17565b610524565b6040516101fb91906140f1565b60405180910390f35b61021e60048036038101906102199190613b17565b61058d565b005b61023a60048036038101906102359190613ba5565b610699565b005b61025660048036038101906102519190613b17565b610b9a565b005b610272600480360381019061026d9190613d38565b610c6d565b005b61028e60048036038101906102899190613d38565b610e0f565b005b6102aa60048036038101906102a59190613b17565b610fb1565b005b6102c660048036038101906102c19190613d38565b611152565b005b6102e260048036038101906102dd9190613c35565b611224565b005b6102fe60048036038101906102f99190613b17565b6113c9565b005b6103086114d5565b005b6103126114d7565b005b61032e60048036038101906103299190613c35565b61165d565b005b61034a60048036038101906103459190613b17565b611802565b6040516103579190614387565b60405180910390f35b61037a60048036038101906103759190613b17565b611a05565b005b610384611ad8565b60405161039191906140f1565b60405180910390f35b6103a2611c90565b6040516103af91906140f1565b60405180910390f35b6103d260048036038101906103cd9190613b17565b611cb9565b005b6103dc611dc5565b005b6103e6611f61565b005b61040260048036038101906103fd9190613b17565b61238b565b005b61040c612497565b6040516104199190614387565b60405180910390f35b61043c60048036038101906104379190613b17565b61249d565b005b61045860048036038101906104539190613d8a565b61261a565b604051610467939291906142a9565b60405180910390f35b61048a60048036038101906104859190613b69565b6129c6565b005b6104a660048036038101906104a19190613b17565b612b8c565b6040516104b39190614387565b60405180910390f35b6104d660048036038101906104d19190613b17565b612d75565b005b6104f260048036038101906104ed9190613b69565b612f80565b005b61050e60048036038101906105099190613b17565b6133e0565b60405161051b9190614387565b60405180910390f35b6000600760008373ffffffffffffffffffffffffffffffffffffffff1673ffffffffffffffffffffffffffffffffffffffff16815260200190815260200160002060009054906101000a900473ffffffffffffffffffffffffffffffffffffffff169050919050565b6105956135a5565b73ffffffffffffffffffffffffffffffffffffffff1660008054906101000a900473ffffffffffffffffffffffffffffffffffffffff1673ffffffffffffffffffffffffffffffffffffffff1614610655576040517f08c379a00000000000000000000000000000000000000000000000000000000081526004018080602001828103825260208152602001807f4f776e61626c653a2063616c6c6572206973206e6f7420746865206f776e657281525060200191505060405180910390fd5b80600460006101000a81548173ffffffffffffffffffffffffffffffffffffffff021916908373ffffffffffffffffffffffffffffffffffffffff16021790555050565b600073ffffffffffffffffffffffffffffffffffffffff168373ffffffffffffffffffffffffffffffffffffffff161415610709576040517f08c379a000000000000000000000000000000000000000000000000000000000815260040161070090614327565b60405180910390fd5b6000821161074c576040517f08c379a0000000000000000000000000000000000000000000000000000000008152600401610743906142e7565b60405180910390fd5b6000839050828173ffffffffffffffffffffffffffffffffffffffff1663dd62ed3e33306040518363ffffffff1660e01b815260040161078d92919061410c565b60206040518083038186803b1580156107a557600080fd5b505afa1580156107b9573d6000803e3d6000fd5b505050506040513d601f19601f820116820180604052508101906107dd9190613d61565b101561081e576040517f08c379a000000000000000000000000000000000000000000000000000000000815260040161081590614367565b60405180910390fd5b600073ffffffffffffffffffffffffffffffffffffffff16600760003373ffffffffffffffffffffffffffffffffffffffff1673ffffffffffffffffffffffffffffffffffffffff16815260200190815260200160002060009054906101000a900473ffffffffffffffffffffffffffffffffffffffff1673ffffffffffffffffffffffffffffffffffffffff1614156108bb576108ba611dc5565b5b6001915081156108ce576108cd6135ad565b5b6108d784611a05565b6108e08461249d565b600360009054906101000a900473ffffffffffffffffffffffffffffffffffffffff1673ffffffffffffffffffffffffffffffffffffffff1663ae6418b585600760003373ffffffffffffffffffffffffffffffffffffffff1673ffffffffffffffffffffffffffffffffffffffff16815260200190815260200160002060009054906101000a900473ffffffffffffffffffffffffffffffffffffffff166040518363ffffffff1660e01b815260040161099c92919061416c565b600060405180830381600087803b1580156109b657600080fd5b505af11580156109ca573d6000803e3d6000fd5b505050506109f2846109ed856109df886133e0565b6136ad90919063ffffffff16565b6129c6565b8073ffffffffffffffffffffffffffffffffffffffff166323b872dd33600360009054906101000a900473ffffffffffffffffffffffffffffffffffffffff16866040518463ffffffff1660e01b8152600401610a5193929190614135565b602060405180830381600087803b158015610a6b57600080fd5b505af1158015610a7f573d6000803e3d6000fd5b505050506040513d601f19601f82011682018060405250810190610aa39190613d0f565b50600360009054906101000a900473ffffffffffffffffffffffffffffffffffffffff1673ffffffffffffffffffffffffffffffffffffffff16638340f54985600760003373ffffffffffffffffffffffffffffffffffffffff1673ffffffffffffffffffffffffffffffffffffffff16815260200190815260200160002060009054906101000a900473ffffffffffffffffffffffffffffffffffffffff16866040518463ffffffff1660e01b8152600401610b6293929190614195565b600060405180830381600087803b158015610b7c57600080fd5b505af1158015610b90573d6000803e3d6000fd5b5050505050505050565b6000600760003373ffffffffffffffffffffffffffffffffffffffff1673ffffffffffffffffffffffffffffffffffffffff16815260200190815260200160002060009054906101000a900473ffffffffffffffffffffffffffffffffffffffff1690508073ffffffffffffffffffffffffffffffffffffffff16634a5e42b1836040518263ffffffff1660e01b8152600401610c3791906140f1565b600060405180830381600087803b158015610c5157600080fd5b505af1158015610c65573d6000803e3d6000fd5b505050505050565b600073ffffffffffffffffffffffffffffffffffffffff16600760003373ffffffffffffffffffffffffffffffffffffffff1673ffffffffffffffffffffffffffffffffffffffff16815260200190815260200160002060009054906101000a900473ffffffffffffffffffffffffffffffffffffffff1673ffffffffffffffffffffffffffffffffffffffff161415610d3c576040517f08c379a0000000000000000000000000000000000000000000000000000000008152600401610d3390614347565b60405180910390fd5b6000600760003373ffffffffffffffffffffffffffffffffffffffff1673ffffffffffffffffffffffffffffffffffffffff16815260200190815260200160002060009054906101000a900473ffffffffffffffffffffffffffffffffffffffff1690508073ffffffffffffffffffffffffffffffffffffffff16634e75486a836040518263ffffffff1660e01b8152600401610dd99190614387565b600060405180830381600087803b158015610df357600080fd5b505af1158015610e07573d6000803e3d6000fd5b505050505050565b600073ffffffffffffffffffffffffffffffffffffffff16600760003373ffffffffffffffffffffffffffffffffffffffff1673ffffffffffffffffffffffffffffffffffffffff16815260200190815260200160002060009054906101000a900473ffffffffffffffffffffffffffffffffffffffff1673ffffffffffffffffffffffffffffffffffffffff161415610ede576040517f08c379a0000000000000000000000000000000000000000000000000000000008152600401610ed590614347565b60405180910390fd5b6000600760003373ffffffffffffffffffffffffffffffffffffffff1673ffffffffffffffffffffffffffffffffffffffff16815260200190815260200160002060009054906101000a900473ffffffffffffffffffffffffffffffffffffffff1690508073ffffffffffffffffffffffffffffffffffffffff166353b08df6836040518263ffffffff1660e01b8152600401610f7b9190614387565b600060405180830381600087803b158015610f9557600080fd5b505af1158015610fa9573d6000803e3d6000fd5b505050505050565b610fb96135a5565b73ffffffffffffffffffffffffffffffffffffffff1660008054906101000a900473ffffffffffffffffffffffffffffffffffffffff1673ffffffffffffffffffffffffffffffffffffffff1614611079576040517f08c379a00000000000000000000000000000000000000000000000000000000081526004018080602001828103825260208152602001807f4f776e61626c653a2063616c6c6572206973206e6f7420746865206f776e657281525060200191505060405180910390fd5b60008190508073ffffffffffffffffffffffffffffffffffffffff1663095ea7b3600360009054906101000a900473ffffffffffffffffffffffffffffffffffffffff167fffffffffffffffffffffffffffffffffffffffffffffffffffffffffffffffff6040518363ffffffff1660e01b81526004016110fb9291906141cc565b602060405180830381600087803b15801561111557600080fd5b505af1158015611129573d6000803e3d6000fd5b505050506040513d601f19601f8201168201806040525081019061114d9190613d0f565b505050565b61115a6135a5565b73ffffffffffffffffffffffffffffffffffffffff1660008054906101000a900473ffffffffffffffffffffffffffffffffffffffff1673ffffffffffffffffffffffffffffffffffffffff161461121a576040517f08c379a00000000000000000000000000000000000000000000000000000000081526004018080602001828103825260208152602001807f4f776e61626c653a2063616c6c6572206973206e6f7420746865206f776e657281525060200191505060405180910390fd5b8060088190555050565b600073ffffffffffffffffffffffffffffffffffffffff16600760003373ffffffffffffffffffffffffffffffffffffffff1673ffffffffffffffffffffffffffffffffffffffff16815260200190815260200160002060009054906101000a900473ffffffffffffffffffffffffffffffffffffffff1673ffffffffffffffffffffffffffffffffffffffff1614156112f3576040517f08c379a00000000000000000000000000000000000000000000000000000000081526004016112ea90614347565b60405180910390fd5b6000600760003373ffffffffffffffffffffffffffffffffffffffff1673ffffffffffffffffffffffffffffffffffffffff16815260200190815260200160002060009054906101000a900473ffffffffffffffffffffffffffffffffffffffff1690508073ffffffffffffffffffffffffffffffffffffffff16636de43cc284846040518363ffffffff1660e01b8152600401611392929190614263565b600060405180830381600087803b1580156113ac57600080fd5b505af11580156113c0573d6000803e3d6000fd5b50505050505050565b6113d16135a5565b73ffffffffffffffffffffffffffffffffffffffff1660008054906101000a900473ffffffffffffffffffffffffffffffffffffffff1673ffffffffffffffffffffffffffffffffffffffff1614611491576040517f08c379a00000000000000000000000000000000000000000000000000000000081526004018080602001828103825260208152602001807f4f776e61626c653a2063616c6c6572206973206e6f7420746865206f776e657281525060200191505060405180910390fd5b80600360006101000a81548173ffffffffffffffffffffffffffffffffffffffff021916908373ffffffffffffffffffffffffffffffffffffffff16021790555050565b565b6114df6135a5565b73ffffffffffffffffffffffffffffffffffffffff1660008054906101000a900473ffffffffffffffffffffffffffffffffffffffff1673ffffffffffffffffffffffffffffffffffffffff161461159f576040517f08c379a00000000000000000000000000000000000000000000000000000000081526004018080602001828103825260208152602001807f4f776e61626c653a2063616c6c6572206973206e6f7420746865206f776e657281525060200191505060405180910390fd5b600073ffffffffffffffffffffffffffffffffffffffff1660008054906101000a900473ffffffffffffffffffffffffffffffffffffffff1673ffffffffffffffffffffffffffffffffffffffff167f8be0079c531659141344cd1fd0a4f28419497f9722a3daafe3b4186f6b6457e060405160405180910390a360008060006101000a81548173ffffffffffffffffffffffffffffffffffffffff021916908373ffffffffffffffffffffffffffffffffffffffff160217905550565b600073ffffffffffffffffffffffffffffffffffffffff16600760003373ffffffffffffffffffffffffffffffffffffffff1673ffffffffffffffffffffffffffffffffffffffff16815260200190815260200160002060009054906101000a900473ffffffffffffffffffffffffffffffffffffffff1673ffffffffffffffffffffffffffffffffffffffff16141561172c576040517f08c379a000000000000000000000000000000000000000000000000000000000815260040161172390614347565b60405180910390fd5b6000600760003373ffffffffffffffffffffffffffffffffffffffff1673ffffffffffffffffffffffffffffffffffffffff16815260200190815260200160002060009054906101000a900473ffffffffffffffffffffffffffffffffffffffff1690508073ffffffffffffffffffffffffffffffffffffffff16637a82794b84846040518363ffffffff1660e01b81526004016117cb929190614263565b600060405180830381600087803b1580156117e557600080fd5b505af11580156117f9573d6000803e3d6000fd5b50505050505050565b60008073ffffffffffffffffffffffffffffffffffffffff16600760003373ffffffffffffffffffffffffffffffffffffffff1673ffffffffffffffffffffffffffffffffffffffff16815260200190815260200160002060009054906101000a900473ffffffffffffffffffffffffffffffffffffffff1673ffffffffffffffffffffffffffffffffffffffff1614156118d2576040517f08c379a00000000000000000000000000000000000000000000000000000000081526004016118c990614347565b60405180910390fd5b6000600360009054906101000a900473ffffffffffffffffffffffffffffffffffffffff1673ffffffffffffffffffffffffffffffffffffffff1663203660df84600760003373ffffffffffffffffffffffffffffffffffffffff1673ffffffffffffffffffffffffffffffffffffffff16815260200190815260200160002060009054906101000a900473ffffffffffffffffffffffffffffffffffffffff166040518363ffffffff1660e01b815260040161199092919061416c565b60206040518083038186803b1580156119a857600080fd5b505afa1580156119bc573d6000803e3d6000fd5b505050506040513d601f19601f820116820180604052508101906119e09190613d61565b90506119fd6119ee846133e0565b8261373590919063ffffffff16565b915050919050565b6000600760003373ffffffffffffffffffffffffffffffffffffffff1673ffffffffffffffffffffffffffffffffffffffff16815260200190815260200160002060009054906101000a900473ffffffffffffffffffffffffffffffffffffffff1690508073ffffffffffffffffffffffffffffffffffffffff1663298410e5836040518263ffffffff1660e01b8152600401611aa291906140f1565b600060405180830381600087803b158015611abc57600080fd5b505af1158015611ad0573d6000803e3d6000fd5b505050505050565b60008073ffffffffffffffffffffffffffffffffffffffff16600760003373ffffffffffffffffffffffffffffffffffffffff1673ffffffffffffffffffffffffffffffffffffffff16815260200190815260200160002060009054906101000a900473ffffffffffffffffffffffffffffffffffffffff1673ffffffffffffffffffffffffffffffffffffffff161415611ba8576040517f08c379a0000000000000000000000000000000000000000000000000000000008152600401611b9f90614347565b60405180910390fd5b6000600760003373ffffffffffffffffffffffffffffffffffffffff1673ffffffffffffffffffffffffffffffffffffffff16815260200190815260200160002060009054906101000a900473ffffffffffffffffffffffffffffffffffffffff1690508073ffffffffffffffffffffffffffffffffffffffff16638da5cb5b6040518163ffffffff1660e01b815260040160206040518083038186803b158015611c5257600080fd5b505afa158015611c66573d6000803e3d6000fd5b505050506040513d601f19601f82011682018060405250810190611c8a9190613b40565b91505090565b60008060009054906101000a900473ffffffffffffffffffffffffffffffffffffffff16905090565b611cc16135a5565b73ffffffffffffffffffffffffffffffffffffffff1660008054906101000a900473ffffffffffffffffffffffffffffffffffffffff1673ffffffffffffffffffffffffffffffffffffffff1614611d81576040517f08c379a00000000000000000000000000000000000000000000000000000000081526004018080602001828103825260208152602001807f4f776e61626c653a2063616c6c6572206973206e6f7420746865206f776e657281525060200191505060405180910390fd5b80600260006101000a81548173ffffffffffffffffffffffffffffffffffffffff021916908373ffffffffffffffffffffffffffffffffffffffff16021790555050565b600033604051602001611dd891906140d6565b604051602081830303815290604052805190602001209050611e1c600460009054906101000a900473ffffffffffffffffffffffffffffffffffffffff168261377f565b600760003373ffffffffffffffffffffffffffffffffffffffff1673ffffffffffffffffffffffffffffffffffffffff16815260200190815260200160002060006101000a81548173ffffffffffffffffffffffffffffffffffffffff021916908373ffffffffffffffffffffffffffffffffffffffff1602179055506000600760003373ffffffffffffffffffffffffffffffffffffffff1673ffffffffffffffffffffffffffffffffffffffff16815260200190815260200160002060009054906101000a900473ffffffffffffffffffffffffffffffffffffffff1690508073ffffffffffffffffffffffffffffffffffffffff16638129fc1c6040518163ffffffff1660e01b8152600401600060405180830381600087803b158015611f4557600080fd5b505af1158015611f59573d6000803e3d6000fd5b505050505050565b60005b6005805490508110156123885760006007600060058481548110611f8457fe5b9060005260206000200160009054906101000a900473ffffffffffffffffffffffffffffffffffffffff1673ffffffffffffffffffffffffffffffffffffffff1673ffffffffffffffffffffffffffffffffffffffff16815260200190815260200160002060009054906101000a900473ffffffffffffffffffffffffffffffffffffffff16905060008173ffffffffffffffffffffffffffffffffffffffff1663056da0486040518163ffffffff1660e01b815260040160006040518083038186803b15801561205457600080fd5b505afa158015612068573d6000803e3d6000fd5b505050506040513d6000823e3d601f19601f820116820180604052508101906120919190613c7a565b5114158015612124575060008173ffffffffffffffffffffffffffffffffffffffff166371a973056040518163ffffffff1660e01b815260040160006040518083038186803b1580156120e357600080fd5b505afa1580156120f7573d6000803e3d6000fd5b505050506040513d6000823e3d601f19601f820116820180604052508101906121209190613bf4565b5114155b1561237a57600060608273ffffffffffffffffffffffffffffffffffffffff1663056da0486040518163ffffffff1660e01b815260040160006040518083038186803b15801561217357600080fd5b505afa158015612187573d6000803e3d6000fd5b505050506040513d6000823e3d601f19601f820116820180604052508101906121b09190613c7a565b5167ffffffffffffffff811180156121c757600080fd5b506040519080825280602002602001820160405280156121f65781602001602082028036833780820191505090505b509050600160009054906101000a900473ffffffffffffffffffffffffffffffffffffffff1673ffffffffffffffffffffffffffffffffffffffff166368a4f5c28473ffffffffffffffffffffffffffffffffffffffff1663056da0486040518163ffffffff1660e01b815260040160006040518083038186803b15801561227d57600080fd5b505afa158015612291573d6000803e3d6000fd5b505050506040513d6000823e3d601f19601f820116820180604052508101906122ba9190613c7a565b6040518263ffffffff1660e01b81526004016122d69190614287565b60006040518083038186803b1580156122ee57600080fd5b505afa158015612302573d6000803e3d6000fd5b505050506040513d6000823e3d601f19601f8201168201806040525081019061232b9190613cbb565b8093508192505050612374826005868154811061234457fe5b9060005260206000200160009054906101000a900473ffffffffffffffffffffffffffffffffffffffff1661261a565b50505050505b508080600101915050611f64565b50565b6123936135a5565b73ffffffffffffffffffffffffffffffffffffffff1660008054906101000a900473ffffffffffffffffffffffffffffffffffffffff1673ffffffffffffffffffffffffffffffffffffffff1614612453576040517f08c379a00000000000000000000000000000000000000000000000000000000081526004018080602001828103825260208152602001807f4f776e61626c653a2063616c6c6572206973206e6f7420746865206f776e657281525060200191505060405180910390fd5b80600160006101000a81548173ffffffffffffffffffffffffffffffffffffffff021916908373ffffffffffffffffffffffffffffffffffffffff16021790555050565b60085481565b6000600760003373ffffffffffffffffffffffffffffffffffffffff1673ffffffffffffffffffffffffffffffffffffffff16815260200190815260200160002060009054906101000a900473ffffffffffffffffffffffffffffffffffffffff1690508073ffffffffffffffffffffffffffffffffffffffff1663daea85c5600360009054906101000a900473ffffffffffffffffffffffffffffffffffffffff1673ffffffffffffffffffffffffffffffffffffffff1663732a52ee856040518263ffffffff1660e01b815260040161257891906140f1565b60206040518083038186803b15801561259057600080fd5b505afa1580156125a4573d6000803e3d6000fd5b505050506040513d601f19601f820116820180604052508101906125c89190613b40565b6040518263ffffffff1660e01b81526004016125e491906140f1565b600060405180830381600087803b1580156125fe57600080fd5b505af1158015612612573d6000803e3d6000fd5b505050505050565b60008060606000600760008673ffffffffffffffffffffffffffffffffffffffff1673ffffffffffffffffffffffffffffffffffffffff16815260200190815260200160002060009054906101000a900473ffffffffffffffffffffffffffffffffffffffff1690506060601667ffffffffffffffff8111801561269d57600080fd5b506040519080825280602002602001820160405280156126cc5781602001602082028036833780820191505090505b5090506000805b8373ffffffffffffffffffffffffffffffffffffffff166371a973056040518163ffffffff1660e01b815260040160006040518083038186803b15801561271957600080fd5b505afa15801561272d573d6000803e3d6000fd5b505050506040513d6000823e3d601f19601f820116820180604052508101906127569190613bf4565b5181101561298e57600260009054906101000a900473ffffffffffffffffffffffffffffffffffffffff1673ffffffffffffffffffffffffffffffffffffffff1663d3e6e3e98573ffffffffffffffffffffffffffffffffffffffff166371a973056040518163ffffffff1660e01b815260040160006040518083038186803b1580156127e257600080fd5b505afa1580156127f6573d6000803e3d6000fd5b505050506040513d6000823e3d601f19601f8201168201806040525081019061281f9190613bf4565b838151811061282a57fe5b60200260200101518b600660009054906101000a900473ffffffffffffffffffffffffffffffffffffffff166040518463ffffffff1660e01b8152600401612874939291906141f5565b60006040518083038186803b15801561288c57600080fd5b505afa1580156128a0573d6000803e3d6000fd5b505050506040513d6000823e3d601f19601f820116820180604052508101906128c99190613dc6565b8094508193505050600082146129815760018473ffffffffffffffffffffffffffffffffffffffff166371a973056040518163ffffffff1660e01b815260040160006040518083038186803b15801561292157600080fd5b505afa158015612935573d6000803e3d6000fd5b505050506040513d6000823e3d601f19601f8201168201806040525081019061295e9190613bf4565b828151811061296957fe5b602002602001015184965096509650505050506129bf565b80806001019150506126d3565b506000600660009054906101000a900473ffffffffffffffffffffffffffffffffffffffff16839550955095505050505b9250925092565b600073ffffffffffffffffffffffffffffffffffffffff16600760003373ffffffffffffffffffffffffffffffffffffffff1673ffffffffffffffffffffffffffffffffffffffff16815260200190815260200160002060009054906101000a900473ffffffffffffffffffffffffffffffffffffffff1673ffffffffffffffffffffffffffffffffffffffff161415612a95576040517f08c379a0000000000000000000000000000000000000000000000000000000008152600401612a8c90614347565b60405180910390fd5b6000600760003373ffffffffffffffffffffffffffffffffffffffff1673ffffffffffffffffffffffffffffffffffffffff16815260200190815260200160002060009054906101000a900473ffffffffffffffffffffffffffffffffffffffff1690508073ffffffffffffffffffffffffffffffffffffffff1663e30443bc84846040518363ffffffff1660e01b8152600401612b349291906141cc565b602060405180830381600087803b158015612b4e57600080fd5b505af1158015612b62573d6000803e3d6000fd5b505050506040513d601f19601f82011682018060405250810190612b869190613d61565b50505050565b60008073ffffffffffffffffffffffffffffffffffffffff16600760003373ffffffffffffffffffffffffffffffffffffffff1673ffffffffffffffffffffffffffffffffffffffff16815260200190815260200160002060009054906101000a900473ffffffffffffffffffffffffffffffffffffffff1673ffffffffffffffffffffffffffffffffffffffff161415612c5c576040517f08c379a0000000000000000000000000000000000000000000000000000000008152600401612c5390614347565b60405180910390fd5b6000600360009054906101000a900473ffffffffffffffffffffffffffffffffffffffff1673ffffffffffffffffffffffffffffffffffffffff1663203660df84600760003373ffffffffffffffffffffffffffffffffffffffff1673ffffffffffffffffffffffffffffffffffffffff16815260200190815260200160002060009054906101000a900473ffffffffffffffffffffffffffffffffffffffff166040518363ffffffff1660e01b8152600401612d1a92919061416c565b60206040518083038186803b158015612d3257600080fd5b505afa158015612d46573d6000803e3d6000fd5b505050506040513d601f19601f82011682018060405250810190612d6a9190613d61565b905080915050919050565b612d7d6135a5565b73ffffffffffffffffffffffffffffffffffffffff1660008054906101000a900473ffffffffffffffffffffffffffffffffffffffff1673ffffffffffffffffffffffffffffffffffffffff1614612e3d576040517f08c379a00000000000000000000000000000000000000000000000000000000081526004018080602001828103825260208152602001807f4f776e61626c653a2063616c6c6572206973206e6f7420746865206f776e657281525060200191505060405180910390fd5b600073ffffffffffffffffffffffffffffffffffffffff168173ffffffffffffffffffffffffffffffffffffffff161415612ec3576040517f08c379a000000000000000000000000000000000000000000000000000000000815260040180806020018281038252602681526020018061458d6026913960400191505060405180910390fd5b8073ffffffffffffffffffffffffffffffffffffffff1660008054906101000a900473ffffffffffffffffffffffffffffffffffffffff1673ffffffffffffffffffffffffffffffffffffffff167f8be0079c531659141344cd1fd0a4f28419497f9722a3daafe3b4186f6b6457e060405160405180910390a3806000806101000a81548173ffffffffffffffffffffffffffffffffffffffff021916908373ffffffffffffffffffffffffffffffffffffffff16021790555050565b600073ffffffffffffffffffffffffffffffffffffffff16600760003373ffffffffffffffffffffffffffffffffffffffff1673ffffffffffffffffffffffffffffffffffffffff16815260200190815260200160002060009054906101000a900473ffffffffffffffffffffffffffffffffffffffff1673ffffffffffffffffffffffffffffffffffffffff16141561304f576040517f08c379a000000000000000000000000000000000000000000000000000000000815260040161304690614347565b60405180910390fd5b600073ffffffffffffffffffffffffffffffffffffffff168273ffffffffffffffffffffffffffffffffffffffff16141561308957600080fd5b600081116130cc576040517f08c379a00000000000000000000000000000000000000000000000000000000081526004016130c3906142e7565b60405180910390fd5b60006130d783612b8c565b90506000811161311c576040517f08c379a000000000000000000000000000000000000000000000000000000000815260040161311390614307565b60405180910390fd5b600081831115613168578192507fffffffffffffffffffffffffffffffffffffffffffffffffffffffffffffffff90506000915061315a84836129c6565b61316384610b9a565b613188565b82905061318784613182858561373590919063ffffffff16565b6129c6565b5b6000600360009054906101000a900473ffffffffffffffffffffffffffffffffffffffff1673ffffffffffffffffffffffffffffffffffffffff1663732a52ee866040518263ffffffff1660e01b81526004016131e591906140f1565b60206040518083038186803b1580156131fd57600080fd5b505afa158015613211573d6000803e3d6000fd5b505050506040513d601f19601f820116820180604052508101906132359190613b40565b90508073ffffffffffffffffffffffffffffffffffffffff166323b872dd600760003373ffffffffffffffffffffffffffffffffffffffff1673ffffffffffffffffffffffffffffffffffffffff16815260200190815260200160002060009054906101000a900473ffffffffffffffffffffffffffffffffffffffff16600360009054906101000a900473ffffffffffffffffffffffffffffffffffffffff16876040518463ffffffff1660e01b81526004016132f593929190614195565b602060405180830381600087803b15801561330f57600080fd5b505af1158015613323573d6000803e3d6000fd5b505050506040513d601f19601f820116820180604052508101906133479190613d0f565b50600360009054906101000a900473ffffffffffffffffffffffffffffffffffffffff1673ffffffffffffffffffffffffffffffffffffffff166369328dec8684336040518463ffffffff1660e01b81526004016133a79392919061422c565b600060405180830381600087803b1580156133c157600080fd5b505af11580156133d5573d6000803e3d6000fd5b505050505050505050565b60008073ffffffffffffffffffffffffffffffffffffffff16600760003373ffffffffffffffffffffffffffffffffffffffff1673ffffffffffffffffffffffffffffffffffffffff16815260200190815260200160002060009054906101000a900473ffffffffffffffffffffffffffffffffffffffff1673ffffffffffffffffffffffffffffffffffffffff1614156134b0576040517f08c379a00000000000000000000000000000000000000000000000000000000081526004016134a790614347565b60405180910390fd5b6000600760003373ffffffffffffffffffffffffffffffffffffffff1673ffffffffffffffffffffffffffffffffffffffff16815260200190815260200160002060009054906101000a900473ffffffffffffffffffffffffffffffffffffffff1690508073ffffffffffffffffffffffffffffffffffffffff1663e3d670d7846040518263ffffffff1660e01b815260040161354d91906140f1565b60206040518083038186803b15801561356557600080fd5b505afa158015613579573d6000803e3d6000fd5b505050506040513d601f19601f8201168201806040525081019061359d9190613d61565b915050919050565b600033905090565b6000805b60058054905081101561363b573373ffffffffffffffffffffffffffffffffffffffff16600582815481106135e257fe5b9060005260206000200160009054906101000a900473ffffffffffffffffffffffffffffffffffffffff1673ffffffffffffffffffffffffffffffffffffffff16141561362e57600191505b80806001019150506135b1565b506000905080156136aa576005339080600181540180825580915050600190039060005260206000200160009091909190916101000a81548173ffffffffffffffffffffffffffffffffffffffff021916908373ffffffffffffffffffffffffffffffffffffffff1602179055505b50565b60008082840190508381101561372b576040517f08c379a000000000000000000000000000000000000000000000000000000000815260040180806020018281038252601b8152602001807f536166654d6174683a206164646974696f6e206f766572666c6f77000000000081525060200191505060405180910390fd5b8091505092915050565b600061377783836040518060400160405280601e81526020017f536166654d6174683a207375627472616374696f6e206f766572666c6f770000815250613889565b905092915050565b60006040517f3d602d80600a3d3981f3363d3d373d3d3d363d7300000000000000000000000081528360601b60148201527f5af43d82803e903d91602b57fd5bf300000000000000000000000000000000006028820152826037826000f5915050600073ffffffffffffffffffffffffffffffffffffffff168173ffffffffffffffffffffffffffffffffffffffff161415613883576040517f08c379a00000000000000000000000000000000000000000000000000000000081526004018080602001828103825260178152602001807f455243313136373a2063726561746532206661696c656400000000000000000081525060200191505060405180910390fd5b92915050565b6000838311158290613936576040517f08c379a00000000000000000000000000000000000000000000000000000000081526004018080602001828103825283818151815260200191508051906020019080838360005b838110156138fb5780820151818401526020810190506138e0565b50505050905090810190601f1680156139285780820380516001836020036101000a031916815260200191505b509250505060405180910390fd5b5060008385039050809150509392505050565b60008135905061395881614547565b92915050565b60008151905061396d81614547565b92915050565b600082601f83011261398457600080fd5b8151613997613992826143d3565b6143a2565b915081818352602084019350602081019050838560208402820111156139bc57600080fd5b60005b838110156139ec57816139d2888261395e565b8452602084019350602083019250506001810190506139bf565b5050505092915050565b60008083601f840112613a0857600080fd5b8235905067ffffffffffffffff811115613a2157600080fd5b602083019150836020820283011115613a3957600080fd5b9250929050565b600082601f830112613a5157600080fd5b8151613a64613a5f826143ff565b6143a2565b91508181835260208401935060208101905083856020840282011115613a8957600080fd5b60005b83811015613ab95781613a9f8882613b02565b845260208401935060208301925050600181019050613a8c565b5050505092915050565b600081359050613ad28161455e565b92915050565b600081519050613ae78161455e565b92915050565b600081359050613afc81614575565b92915050565b600081519050613b1181614575565b92915050565b600060208284031215613b2957600080fd5b6000613b3784828501613949565b91505092915050565b600060208284031215613b5257600080fd5b6000613b608482850161395e565b91505092915050565b60008060408385031215613b7c57600080fd5b6000613b8a85828601613949565b9250506020613b9b85828601613aed565b9150509250929050565b600080600060608486031215613bba57600080fd5b6000613bc886828701613949565b9350506020613bd986828701613aed565b9250506040613bea86828701613ac3565b9150509250925092565b600060208284031215613c0657600080fd5b600082015167ffffffffffffffff811115613c2057600080fd5b613c2c84828501613973565b91505092915050565b60008060208385031215613c4857600080fd5b600083013567ffffffffffffffff811115613c6257600080fd5b613c6e858286016139f6565b92509250509250929050565b600060208284031215613c8c57600080fd5b600082015167ffffffffffffffff811115613ca657600080fd5b613cb284828501613a40565b91505092915050565b60008060408385031215613cce57600080fd5b600083015167ffffffffffffffff811115613ce857600080fd5b613cf485828601613a40565b9250506020613d0585828601613b02565b9150509250929050565b600060208284031215613d2157600080fd5b6000613d2f84828501613ad8565b91505092915050565b600060208284031215613d4a57600080fd5b6000613d5884828501613aed565b91505092915050565b600060208284031215613d7357600080fd5b6000613d8184828501613b02565b91505092915050565b60008060408385031215613d9d57600080fd5b6000613dab85828601613aed565b9250506020613dbc85828601613949565b9150509250929050565b60008060408385031215613dd957600080fd5b6000613de785828601613b02565b925050602083015167ffffffffffffffff811115613e0457600080fd5b613e1085828601613a40565b9150509250929050565b6000613e2683836140b8565b60208301905092915050565b613e3b816144cf565b82525050565b613e52613e4d82614487565b614514565b82525050565b613e6181614475565b82525050565b6000613e738385614453565b93507f07ffffffffffffffffffffffffffffffffffffffffffffffffffffffffffffff831115613ea257600080fd5b602083029250613eb3838584614505565b82840190509392505050565b6000613eca8261443b565b613ed48185614453565b9350613edf8361442b565b8060005b83811015613f10578151613ef78882613e1a565b9750613f0283614446565b925050600181019050613ee3565b5085935050505092915050565b613f2681614499565b82525050565b6000613f39601a83614464565b91507f416d6f756e74206d757374206265206d6f7265207468616e20300000000000006000830152602082019050919050565b6000613f79601b83614464565b91507f4e6f2062616c616e6365206c65667420746f20776974686472617700000000006000830152602082019050919050565b6000613fb9602883614464565b91507f417373657420636f6e74726163742063616e277420626520746865207a65726f60008301527f20616464726573730000000000000000000000000000000000000000000000006020830152604082019050919050565b600061401f600e83614464565b91507f55736572206e6f7420666f756e640000000000000000000000000000000000006000830152602082019050919050565b600061405f602583614464565b91507f55736572206e6f7420617070726f76656420746f2073656e642074686973206160008301527f6d6f756e740000000000000000000000000000000000000000000000000000006020830152604082019050919050565b6140c1816144c5565b82525050565b6140d0816144c5565b82525050565b60006140e28284613e41565b60148201915081905092915050565b60006020820190506141066000830184613e58565b92915050565b60006040820190506141216000830185613e32565b61412e6020830184613e58565b9392505050565b600060608201905061414a6000830186613e32565b6141576020830185613e58565b61416460408301846140c7565b949350505050565b60006040820190506141816000830185613e58565b61418e6020830184613e58565b9392505050565b60006060820190506141aa6000830186613e58565b6141b76020830185613e58565b6141c460408301846140c7565b949350505050565b60006040820190506141e16000830185613e58565b6141ee60208301846140c7565b9392505050565b600060608201905061420a6000830186613e58565b61421760208301856140c7565b6142246040830184613e58565b949350505050565b60006060820190506142416000830186613e58565b61424e60208301856140c7565b61425b6040830184613e32565b949350505050565b6000602082019050818103600083015261427e818486613e67565b90509392505050565b600060208201905081810360008301526142a18184613ebf565b905092915050565b60006060820190506142be6000830186613f1d565b6142cb6020830185613e58565b81810360408301526142dd8184613ebf565b9050949350505050565b6000602082019050818103600083015261430081613f2c565b9050919050565b6000602082019050818103600083015261432081613f6c565b9050919050565b6000602082019050818103600083015261434081613fac565b9050919050565b6000602082019050818103600083015261436081614012565b9050919050565b6000602082019050818103600083015261438081614052565b9050919050565b600060208201905061439c60008301846140c7565b92915050565b6000604051905081810181811067ffffffffffffffff821117156143c9576143c8614538565b5b8060405250919050565b600067ffffffffffffffff8211156143ee576143ed614538565b5b602082029050602081019050919050565b600067ffffffffffffffff82111561441a57614419614538565b5b602082029050602081019050919050565b6000819050602082019050919050565b600081519050919050565b6000602082019050919050565b600082825260208201905092915050565b600082825260208201905092915050565b6000614480826144a5565b9050919050565b6000614492826144a5565b9050919050565b60008115159050919050565b600073ffffffffffffffffffffffffffffffffffffffff82169050919050565b6000819050919050565b60006144da826144e1565b9050919050565b60006144ec826144f3565b9050919050565b60006144fe826144a5565b9050919050565b82818337600083830152505050565b600061451f82614526565b9050919050565b60006145318261453a565b9050919050565bfe5b60008160601b9050919050565b61455081614475565b811461455b57600080fd5b50565b61456781614499565b811461457257600080fd5b50565b61457e816144c5565b811461458957600080fd5b5056fe4f776e61626c653a206e6577206f776e657220697320746865207a65726f2061646472657373a264697066735822122061cdd970a8bf4cb35db069e1a66c292e053289fae94aa519e6e936f782cf277c64736f6c63430007040033",
  "immutableReferences": {},
  "source": "// SPDX-License-Identifier: MIT\r\npragma solidity ^0.7.4;\r\npragma experimental ABIEncoderV2;\r\n\r\nimport \"@openzeppelin/contracts/math/SafeMath.sol\";\r\nimport \"@openzeppelin/contracts/access/Ownable.sol\";\r\nimport \"@openzeppelin/contracts/proxy/Clones.sol\";\r\nimport \"@openzeppelin/contracts/token/ERC20/IERC20.sol\";\r\nimport \"interfaces/INameManager.sol\";\r\nimport \"interfaces/IInvestmentManager.sol\";\r\nimport \"interfaces/IExchangeManager.sol\";\r\nimport \"interfaces/IUserVault.sol\";\r\n//import \"interfaces/ENS_BulkRenewal.sol\";\r\n//import \"interfaces/ENS_Resolver.sol\";\r\n\r\n/// @title StakeYourName - Main Contract\r\n/// @notice Handles interations between the users and\r\n/// @notice other StakeYourName contracts.\r\n/// @author Daniel Chilvers\r\n\r\ncontract StakeYourName is Ownable {\r\n\r\n    NameManager nameManager;\r\n    ExchangeManager exchangeManager;\r\n    InvestmentManager investmentManager;\r\n\r\n    \r\n    constructor() {\r\n        /// @dev TO:DO set deployment addresses of the managers in here.\r\n\r\n    }\r\n\r\n    using SafeMath for uint256;\r\n    address internal masterVault;\r\n    address[] internal users;\r\n    address internal zeroAddress = 0x0000000000000000000000000000000000000000;\r\n    mapping (address => address) internal vault;\r\n    uint256 public referralCode = 0;\r\n    uint256 constant MAX_INT = type(uint256).max;\r\n    uint256 internal MIN_APPROVAL = type(uint256).max/2;\r\n    uint256 internal recordNumber;\r\n    uint256 internal recordIncrement = 100;\r\n\r\n    /// @notice only allow users with an active vault to do these functions\r\n    modifier onlyUser() {\r\n        require(vault[msg.sender] != address(0), \"User not found\");\r\n        _;\r\n    }\r\n\r\n    /******************************************** \r\n    *                                           *\r\n    *   User functions                          *\r\n    *                                           *\r\n    ********************************************/\r\n\r\n    function addName(uint256 _name) external onlyUser {\r\n        UserVault _userVault = UserVault(vault[msg.sender]);\r\n        _userVault.addName(_name);\r\n    }\r\n\r\n    function addMultipleNames(uint256[] calldata _names) external onlyUser {\r\n        UserVault _userVault = UserVault(vault[msg.sender]);\r\n        _userVault.addMultipleNames(_names);\r\n    }\r\n\r\n    function removeName(uint256 _name) external onlyUser {\r\n        UserVault _userVault = UserVault(vault[msg.sender]);\r\n        _userVault.removeName(_name);        \r\n    }\r\n\r\n    function removeMultipleNames(uint256[] calldata _names) external onlyUser {\r\n        UserVault _userVault = UserVault(vault[msg.sender]);\r\n        _userVault.removeMultipleNames(_names);\r\n    }\r\n\r\n    /// @notice deposits tokens to the Aave LendingPool contract\r\n    /// @notice updates vault with new balance\r\n    /// @param _asset the contract address of the token to deposit\r\n    /// @param _amount the amount to deposit in wei\r\n    /// @param _newUser if true this user is added to the userList\r\n    function deposit(address _asset, uint256 _amount, bool _newUser) external {\r\n        require(_asset != address(0), \"Asset contract can't be the zero address\");\r\n        require(_amount > 0, \"Amount must be more than 0\");\r\n        IERC20 _erc20 = IERC20(_asset);\r\n        require( _erc20.allowance(msg.sender, address(this)) >= _amount, \"User not approved to send this amount\");\r\n        if (vault[msg.sender] == address(0)){\r\n            deployVault();\r\n        }\r\n        if (_newUser = true){addUser();}\r\n        vaultAddAsset(_asset);\r\n        approveVault(_asset);\r\n        investmentManager.approveLendingPool(_asset, vault[msg.sender]);\r\n        setBalance(_asset, getBalance(_asset).add(_amount));\r\n        _erc20.transferFrom(msg.sender, address(investmentManager), _amount);\r\n        investmentManager.deposit(_asset, vault[msg.sender], _amount);\r\n    }\r\n\r\n    /// @notice withdraw tokens from the Aave LendingPool contract\r\n    /// @notice updates vault with new balance\r\n    /// @param _asset the contract address of the token to deposit\r\n    /// @param _amount the amount to deposit in wei\r\n    function withdraw(address _asset, uint256 _amount) external onlyUser {\r\n        require(_asset != address(0));\r\n        require(_amount > 0, \"Amount must be more than 0\");\r\n        uint256 _balance = getTotal(_asset);\r\n        require(_balance > 0, \"No balance left to withdraw\");\r\n        uint256 _transfer = 0;\r\n        if (_amount > _balance) {\r\n            _amount = _balance;\r\n            _transfer = MAX_INT;\r\n            _balance = 0;\r\n            setBalance(_asset, _balance);\r\n            vaultRemoveAsset(_asset);\r\n        } else {\r\n            _transfer = _amount;\r\n            setBalance(_asset, _balance.sub(_amount));\r\n        }\r\n        IERC20 _erc20 = IERC20(investmentManager.getAToken(_asset));\r\n        _erc20.transferFrom(vault[msg.sender], address(investmentManager), _amount);\r\n        investmentManager.withdraw(_asset, _transfer, msg.sender);\r\n    }\r\n\r\n    /******************************************** \r\n    *                                           *\r\n    *   User Vault deployment and functions.    *\r\n    *                                           *\r\n    ********************************************/\r\n\r\n    /// @notice clone the master vault contract\r\n    function deployVault() public{\r\n        bytes32 _salt = keccak256(abi.encodePacked(msg.sender));\r\n        vault[msg.sender] = Clones.cloneDeterministic(masterVault, _salt);\r\n        UserVault _userVault = UserVault(vault[msg.sender]);\r\n        _userVault.initialize();\r\n    }\r\n\r\n    function setMasterVault(address _vault) public onlyOwner {\r\n        masterVault = _vault;\r\n    }\r\n    function setBalance(address _asset, uint256 _balance) public onlyUser{\r\n        UserVault _userVault = UserVault(vault[msg.sender]);\r\n        _userVault.setBalance(_asset, _balance);\r\n    }\r\n    function getBalance(address _asset) public view onlyUser returns(uint256){\r\n        UserVault _userVault = UserVault(vault[msg.sender]);\r\n        return _userVault.balance(_asset);\r\n    }\r\n    function getInterest(address _asset) public view onlyUser returns(uint256) {\r\n        uint256 _tokenBalance = investmentManager.getATokenBalance(_asset, vault[msg.sender]);\r\n        return _tokenBalance.sub(getBalance(_asset));\r\n    }\r\n    function getTotal(address _asset) public view onlyUser returns(uint256){\r\n        uint256 _tokenBalance = investmentManager.getATokenBalance(_asset, vault[msg.sender]);\r\n        return _tokenBalance;\r\n    }\r\n    function findVault(address _vault) public view returns(address){\r\n        return vault[_vault];\r\n    }\r\n    function approveVault(address _asset) public {\r\n        UserVault _userVault = UserVault(vault[msg.sender]);\r\n        _userVault.approve(investmentManager.getAToken(_asset));\r\n    }\r\n    function vaultAddAsset(address _asset) public {\r\n        UserVault _userVault = UserVault(vault[msg.sender]);\r\n        _userVault.addAsset(_asset);\r\n    }\r\n    function vaultRemoveAsset(address _asset) public {\r\n        UserVault _userVault = UserVault(vault[msg.sender]);\r\n        _userVault.removeAsset(_asset);\r\n    }\r\n\r\n    function addUser() internal {\r\n        bool _found = false;\r\n        for (uint256 i; i < users.length; i++){\r\n            if(users[i] == msg.sender){\r\n                _found = true;\r\n            }\r\n        }\r\n        if (_found = false){\r\n            users.push(msg.sender); \r\n        }       \r\n    }\r\n\r\n    /// @dev this is stupid, it'll always return msg.sender (hopefully)\r\n    function getOwner() public view onlyUser returns(address){\r\n        UserVault _userVault = UserVault(vault[msg.sender]);\r\n        return _userVault.owner();\r\n    }\r\n\r\n    /******************************************** \r\n    *                                           *\r\n    *   Name functions                          *\r\n    *                                           *\r\n    ********************************************/\r\n\r\n    function renewNames() public view {\r\n        for(uint256 i; i < users.length; i++){\r\n            UserVault _userVault = UserVault(vault[users[i]]);\r\n            if(_userVault.names().length != 0 && _userVault.assets().length != 0){\r\n                uint256 _cost;\r\n                uint256[] memory _names = new uint256[](_userVault.names().length);\r\n                (_names,_cost) = nameManager.checkForRenewals(_userVault.names());\r\n                checkAvailiableFunds(_cost, users[i]);\r\n                \r\n            }\r\n        }\r\n    }\r\n\r\n    /******************************************** \r\n    *                                           *\r\n    *   Exchange functions                      *\r\n    *                                           *\r\n    ********************************************/\r\n\r\n    function checkAvailiableFunds(uint256 _cost, address _user) public view returns(bool _accept, address _token, uint256[] memory _distribution){\r\n        UserVault _userVault = UserVault(vault[_user]);\r\n        uint256[] memory _distributionArray = new uint256[](22);\r\n        uint256 _price;\r\n        for (uint256 i; i < _userVault.assets().length; i++){\r\n            (_price, _distributionArray) = exchangeManager.getExchangePrice(_userVault.assets()[i] , _cost, zeroAddress);\r\n            if(_price != 0){\r\n                return (true, _userVault.assets()[i], _distributionArray);\r\n            }\r\n        }\r\n        return (false, zeroAddress, _distributionArray);\r\n    }\r\n\r\n    function swapAssets() public view {\r\n\r\n    }\r\n\r\n    /******************************************** \r\n    *                                           *\r\n    *   Admin functions                         *\r\n    *                                           *\r\n    ********************************************/\r\n\r\n    function updateReferral(uint256 _ref) external onlyOwner {\r\n        referralCode = _ref;\r\n    }\r\n\r\n\r\n    /******************************************** \r\n    *                                           *\r\n    *   Test and/or temporary functions.        *\r\n    *                                           *\r\n    ********************************************/\r\n\r\n    function setNameManager(address _address) external onlyOwner {\r\n        nameManager = NameManager(_address);\r\n    }\r\n    function setExchangeManager(address _address) external onlyOwner {\r\n        exchangeManager = ExchangeManager(_address);\r\n    }\r\n    function setInvestmentManager(address _address) external onlyOwner {\r\n        investmentManager = InvestmentManager(_address);\r\n    }\r\n    function approveInvestmentManager(address _asset) public onlyOwner {\r\n        IERC20 _erc20 = IERC20(_asset);\r\n        _erc20.approve(address(investmentManager), MAX_INT);\r\n    }\r\n\r\n}",
  "sourcePath": "C:/Users/anyth/Documents/GitHub/StakeYourName/contracts/StakeYourName.sol",
  "compiler": {
    "name": "solc",
    "version": "0.7.4+commit.3f05b770.Emscripten.clang"
  },
  "schemaVersion": "3.3.3",
  "updatedAt": "2021-01-28T16:24:49.191Z",
  "networkType": "ethereum",
  "devdoc": {
    "author": "Daniel Chilvers",
    "kind": "dev",
    "methods": {
      "deposit(address,uint256,bool)": {
        "params": {
          "_amount": "the amount to deposit in wei",
          "_asset": "the contract address of the token to deposit",
          "_newUser": "if true this user is added to the userList"
        }
      },
      "getOwner()": {
        "details": "this is stupid, it'll always return msg.sender (hopefully)"
      },
      "owner()": {
        "details": "Returns the address of the current owner."
      },
      "renounceOwnership()": {
        "details": "Leaves the contract without owner. It will not be possible to call `onlyOwner` functions anymore. Can only be called by the current owner. NOTE: Renouncing ownership will leave the contract without an owner, thereby removing any functionality that is only available to the owner."
      },
      "transferOwnership(address)": {
        "details": "Transfers ownership of the contract to a new account (`newOwner`). Can only be called by the current owner."
      },
      "withdraw(address,uint256)": {
        "params": {
          "_amount": "the amount to deposit in wei",
          "_asset": "the contract address of the token to deposit"
        }
      }
    },
    "title": "StakeYourName - Main Contract",
    "version": 1
  },
  "userdoc": {
    "kind": "user",
    "methods": {
      "deployVault()": {
        "notice": "clone the master vault contract"
      },
      "deposit(address,uint256,bool)": {
        "notice": "deposits tokens to the Aave LendingPool contractupdates vault with new balance"
      },
      "withdraw(address,uint256)": {
        "notice": "withdraw tokens from the Aave LendingPool contractupdates vault with new balance"
      }
    },
    "notice": "Handles interations between the users andother StakeYourName contracts.",
    "version": 1
  }
}