{
  "contractName": "StakeYourName",
  "abi": [
    {
      "inputs": [],
      "stateMutability": "nonpayable",
      "type": "constructor"
    },
    {
      "anonymous": false,
      "inputs": [
        {
          "indexed": true,
          "internalType": "address",
          "name": "previousOwner",
          "type": "address"
        },
        {
          "indexed": true,
          "internalType": "address",
          "name": "newOwner",
          "type": "address"
        }
      ],
      "name": "OwnershipTransferred",
      "type": "event"
    },
    {
      "inputs": [],
      "name": "owner",
      "outputs": [
        {
          "internalType": "address",
          "name": "",
          "type": "address"
        }
      ],
      "stateMutability": "view",
      "type": "function",
      "constant": true
    },
    {
      "inputs": [],
      "name": "referralCode",
      "outputs": [
        {
          "internalType": "uint256",
          "name": "",
          "type": "uint256"
        }
      ],
      "stateMutability": "view",
      "type": "function",
      "constant": true
    },
    {
      "inputs": [],
      "name": "renounceOwnership",
      "outputs": [],
      "stateMutability": "nonpayable",
      "type": "function"
    },
    {
      "inputs": [
        {
          "internalType": "address",
          "name": "newOwner",
          "type": "address"
        }
      ],
      "name": "transferOwnership",
      "outputs": [],
      "stateMutability": "nonpayable",
      "type": "function"
    },
    {
      "stateMutability": "payable",
      "type": "receive",
      "payable": true
    },
    {
      "inputs": [
        {
          "internalType": "uint256",
          "name": "_name",
          "type": "uint256"
        }
      ],
      "name": "addName",
      "outputs": [],
      "stateMutability": "nonpayable",
      "type": "function"
    },
    {
      "inputs": [
        {
          "internalType": "uint256[]",
          "name": "_names",
          "type": "uint256[]"
        }
      ],
      "name": "addMultipleNames",
      "outputs": [],
      "stateMutability": "nonpayable",
      "type": "function"
    },
    {
      "inputs": [
        {
          "internalType": "uint256",
          "name": "_name",
          "type": "uint256"
        }
      ],
      "name": "removeName",
      "outputs": [],
      "stateMutability": "nonpayable",
      "type": "function"
    },
    {
      "inputs": [
        {
          "internalType": "uint256[]",
          "name": "_names",
          "type": "uint256[]"
        }
      ],
      "name": "removeMultipleNames",
      "outputs": [],
      "stateMutability": "nonpayable",
      "type": "function"
    },
    {
      "inputs": [
        {
          "internalType": "address",
          "name": "_asset",
          "type": "address"
        },
        {
          "internalType": "uint256",
          "name": "_amount",
          "type": "uint256"
        },
        {
          "internalType": "bool",
          "name": "_newUser",
          "type": "bool"
        }
      ],
      "name": "deposit",
      "outputs": [],
      "stateMutability": "nonpayable",
      "type": "function"
    },
    {
      "inputs": [
        {
          "internalType": "address",
          "name": "_asset",
          "type": "address"
        },
        {
          "internalType": "uint256",
          "name": "_amount",
          "type": "uint256"
        }
      ],
      "name": "withdraw",
      "outputs": [],
      "stateMutability": "nonpayable",
      "type": "function"
    },
    {
      "inputs": [],
      "name": "deployVault",
      "outputs": [],
      "stateMutability": "nonpayable",
      "type": "function"
    },
    {
      "inputs": [
        {
          "internalType": "address",
          "name": "_vault",
          "type": "address"
        }
      ],
      "name": "setMasterVault",
      "outputs": [],
      "stateMutability": "nonpayable",
      "type": "function"
    },
    {
      "inputs": [
        {
          "internalType": "address",
          "name": "_asset",
          "type": "address"
        },
        {
          "internalType": "uint256",
          "name": "_balance",
          "type": "uint256"
        }
      ],
      "name": "setBalance",
      "outputs": [],
      "stateMutability": "nonpayable",
      "type": "function"
    },
    {
      "inputs": [
        {
          "internalType": "address",
          "name": "_vault",
          "type": "address"
        }
      ],
      "name": "findVault",
      "outputs": [
        {
          "internalType": "address",
          "name": "",
          "type": "address"
        }
      ],
      "stateMutability": "view",
      "type": "function",
      "constant": true
    },
    {
      "inputs": [
        {
          "internalType": "address",
          "name": "_asset",
          "type": "address"
        }
      ],
      "name": "approveVault",
      "outputs": [],
      "stateMutability": "nonpayable",
      "type": "function"
    },
    {
      "inputs": [
        {
          "internalType": "address",
          "name": "_asset",
          "type": "address"
        }
      ],
      "name": "vaultAddAsset",
      "outputs": [],
      "stateMutability": "nonpayable",
      "type": "function"
    },
    {
      "inputs": [
        {
          "internalType": "address",
          "name": "_asset",
          "type": "address"
        }
      ],
      "name": "vaultRemoveAsset",
      "outputs": [],
      "stateMutability": "nonpayable",
      "type": "function"
    },
    {
      "inputs": [],
      "name": "getOwner",
      "outputs": [
        {
          "internalType": "address",
          "name": "",
          "type": "address"
        }
      ],
      "stateMutability": "view",
      "type": "function",
      "constant": true
    },
    {
      "inputs": [
        {
          "internalType": "address",
          "name": "_user",
          "type": "address"
        }
      ],
      "name": "renewNames",
      "outputs": [],
      "stateMutability": "nonpayable",
      "type": "function"
    },
    {
      "inputs": [],
      "name": "renewNamesGroupingUsers",
      "outputs": [],
      "stateMutability": "view",
      "type": "function",
      "constant": true
    },
    {
      "inputs": [
        {
          "internalType": "address[]",
          "name": "_users",
          "type": "address[]"
        }
      ],
      "name": "countRenewals",
      "outputs": [
        {
          "internalType": "uint256",
          "name": "_count",
          "type": "uint256"
        }
      ],
      "stateMutability": "view",
      "type": "function",
      "constant": true
    },
    {
      "inputs": [],
      "name": "swapAssets",
      "outputs": [],
      "stateMutability": "view",
      "type": "function",
      "constant": true
    },
    {
      "inputs": [
        {
          "internalType": "uint256",
          "name": "_ref",
          "type": "uint256"
        }
      ],
      "name": "updateReferral",
      "outputs": [],
      "stateMutability": "nonpayable",
      "type": "function"
    },
    {
      "inputs": [
        {
          "internalType": "address payable",
          "name": "_address",
          "type": "address"
        }
      ],
      "name": "setNameManager",
      "outputs": [],
      "stateMutability": "nonpayable",
      "type": "function"
    },
    {
      "inputs": [
        {
          "internalType": "address payable",
          "name": "_address",
          "type": "address"
        }
      ],
      "name": "setExchangeManager",
      "outputs": [],
      "stateMutability": "nonpayable",
      "type": "function"
    },
    {
      "inputs": [
        {
          "internalType": "address",
          "name": "_address",
          "type": "address"
        }
      ],
      "name": "setInvestmentManager",
      "outputs": [],
      "stateMutability": "nonpayable",
      "type": "function"
    },
    {
      "inputs": [
        {
          "internalType": "address",
          "name": "_asset",
          "type": "address"
        }
      ],
      "name": "approveInvestmentManager",
      "outputs": [],
      "stateMutability": "nonpayable",
      "type": "function"
    },
    {
      "inputs": [],
      "name": "retrieveETH",
      "outputs": [],
      "stateMutability": "nonpayable",
      "type": "function"
    },
    {
      "inputs": [
        {
          "internalType": "address",
          "name": "_vault",
          "type": "address"
        }
      ],
      "name": "emptyVault",
      "outputs": [],
      "stateMutability": "nonpayable",
      "type": "function"
    }
  ],
  "bytecode": "0x608060405260006007553480156200001657600080fd5b50600062000029620000cd60201b60201c565b9050806000806101000a81548173ffffffffffffffffffffffffffffffffffffffff021916908373ffffffffffffffffffffffffffffffffffffffff1602179055508073ffffffffffffffffffffffffffffffffffffffff16600073ffffffffffffffffffffffffffffffffffffffff167f8be0079c531659141344cd1fd0a4f28419497f9722a3daafe3b4186f6b6457e060405160405180910390a350620000d5565b600033905090565b615d6380620000e56000396000f3fe6080604052600436106101c65760003560e01c80637a82794b116100f7578063ce1ee2c211610095578063e0cc0d6811610064578063e0cc0d68146105a7578063e30443bc146105d0578063f2fde38b146105f9578063f3fef3a314610622576101cd565b8063ce1ee2c214610513578063d5b014c31461053c578063d8b6d25214610553578063dded07c71461057e576101cd565b80638b34e8e1116100d15780638b34e8e11461047f5780638da5cb5b146104a85780638e73f874146104d3578063901c4e4f146104fc576101cd565b80637a82794b146104025780637d1c12e81461042b578063893d20e814610454576101cd565b806353b08df6116101645780636de43cc21161013e5780636de43cc2146103825780636de5de0f146103ab5780636df9d379146103d4578063715018a6146103eb576101cd565b806353b08df614610307578063587838801461033057806366d626eb14610359576101cd565b80630fa73166116101a05780630fa73166146102635780633edd11281461028c57806349c9832a146102b55780634e75486a146102de576101cd565b806302df7540146101d257806303bef9ce1461020f578063054192d91461024c576101cd565b366101cd57005b600080fd5b3480156101de57600080fd5b506101f960048036038101906101f49190614dd3565b61064b565b6040516102069190615600565b60405180910390f35b34801561021b57600080fd5b5061023660048036038101906102319190614ed9565b6106b4565b60405161024391906159b0565b60405180910390f35b34801561025857600080fd5b506102616108ad565b005b34801561026f57600080fd5b5061028a60048036038101906102859190614dd3565b61164d565b005b34801561029857600080fd5b506102b360048036038101906102ae9190614e8a565b611759565b005b3480156102c157600080fd5b506102dc60048036038101906102d79190614dd3565b611cfe565b005b3480156102ea57600080fd5b50610305600480360381019061030091906150db565b611dd1565b005b34801561031357600080fd5b5061032e600480360381019061032991906150db565b611f73565b005b34801561033c57600080fd5b5061035760048036038101906103529190614dd3565b612115565b005b34801561036557600080fd5b50610380600480360381019061037b91906150db565b6122b6565b005b34801561038e57600080fd5b506103a960048036038101906103a49190614f5b565b612388565b005b3480156103b757600080fd5b506103d260048036038101906103cd9190614dd3565b61252d565b005b3480156103e057600080fd5b506103e9612639565b005b3480156103f757600080fd5b5061040061263b565b005b34801561040e57600080fd5b5061042960048036038101906104249190614f5b565b6127c1565b005b34801561043757600080fd5b50610452600480360381019061044d9190614dd3565b612966565b005b34801561046057600080fd5b50610469612a39565b6040516104769190615600565b60405180910390f35b34801561048b57600080fd5b506104a660048036038101906104a19190614dd3565b612bf1565b005b3480156104b457600080fd5b506104bd612d22565b6040516104ca9190615600565b60405180910390f35b3480156104df57600080fd5b506104fa60048036038101906104f59190614e25565b612d4b565b005b34801561050857600080fd5b50610511612e57565b005b34801561051f57600080fd5b5061053a60048036038101906105359190614e25565b612ff3565b005b34801561054857600080fd5b506105516130ff565b005b34801561055f57600080fd5b50610568613210565b60405161057591906159b0565b60405180910390f35b34801561058a57600080fd5b506105a560048036038101906105a09190614dd3565b613216565b005b3480156105b357600080fd5b506105ce60048036038101906105c99190614dd3565b613d23565b005b3480156105dc57600080fd5b506105f760048036038101906105f29190614e4e565b613ea0565b005b34801561060557600080fd5b50610620600480360381019061061b9190614dd3565b614066565b005b34801561062e57600080fd5b5061064960048036038101906106449190614e4e565b614271565b005b6000600660008373ffffffffffffffffffffffffffffffffffffffff1673ffffffffffffffffffffffffffffffffffffffff16815260200190815260200160002060009054906101000a900473ffffffffffffffffffffffffffffffffffffffff169050919050565b6000805b82518110156108a757600060066000600584815481106106d457fe5b9060005260206000200160009054906101000a900473ffffffffffffffffffffffffffffffffffffffff1673ffffffffffffffffffffffffffffffffffffffff1673ffffffffffffffffffffffffffffffffffffffff16815260200190815260200160002060009054906101000a900473ffffffffffffffffffffffffffffffffffffffff1690506000600160009054906101000a900473ffffffffffffffffffffffffffffffffffffffff1673ffffffffffffffffffffffffffffffffffffffff166368a4f5c28373ffffffffffffffffffffffffffffffffffffffff1663056da0486040518163ffffffff1660e01b815260040160006040518083038186803b1580156107e257600080fd5b505afa1580156107f6573d6000803e3d6000fd5b505050506040513d6000823e3d601f19601f8201168201806040525081019061081f9190614fa0565b6040518263ffffffff1660e01b815260040161083b919061588e565b60006040518083038186803b15801561085357600080fd5b505afa158015610867573d6000803e3d6000fd5b505050506040513d6000823e3d601f19601f820116820180604052508101906108909190614fe1565b9150508084019350505080806001019150506106b8565b50919050565b600080606060058054905067ffffffffffffffff811180156108ce57600080fd5b506040519080825280602002602001820160405280156108fd5781602001602082028036833780820191505090505b509050606060058054905067ffffffffffffffff8111801561091e57600080fd5b5060405190808252806020026020018201604052801561094d5781602001602082028036833780820191505090505b50905060005b60058054905081101561121d576000600660006005848154811061097357fe5b9060005260206000200160009054906101000a900473ffffffffffffffffffffffffffffffffffffffff1673ffffffffffffffffffffffffffffffffffffffff1673ffffffffffffffffffffffffffffffffffffffff16815260200190815260200160002060009054906101000a900473ffffffffffffffffffffffffffffffffffffffff16905060008173ffffffffffffffffffffffffffffffffffffffff1663056da0486040518163ffffffff1660e01b815260040160006040518083038186803b158015610a4357600080fd5b505afa158015610a57573d6000803e3d6000fd5b505050506040513d6000823e3d601f19601f82011682018060405250810190610a809190614fa0565b5114158015610b13575060008173ffffffffffffffffffffffffffffffffffffffff166371a973056040518163ffffffff1660e01b815260040160006040518083038186803b158015610ad257600080fd5b505afa158015610ae6573d6000803e3d6000fd5b505050506040513d6000823e3d601f19601f82011682018060405250810190610b0f9190614f1a565b5114155b1561120f5760008015158715151415610de257600160009054906101000a900473ffffffffffffffffffffffffffffffffffffffff1673ffffffffffffffffffffffffffffffffffffffff166368a4f5c28373ffffffffffffffffffffffffffffffffffffffff1663056da0486040518163ffffffff1660e01b815260040160006040518083038186803b158015610baa57600080fd5b505afa158015610bbe573d6000803e3d6000fd5b505050506040513d6000823e3d601f19601f82011682018060405250810190610be79190614fa0565b6040518263ffffffff1660e01b8152600401610c03919061588e565b60006040518083038186803b158015610c1b57600080fd5b505afa158015610c2f573d6000803e3d6000fd5b505050506040513d6000823e3d601f19601f82011682018060405250810190610c589190614fe1565b905085600081518110610c6757fe5b602002602001018181525050600260009054906101000a900473ffffffffffffffffffffffffffffffffffffffff1673ffffffffffffffffffffffffffffffffffffffff16638b1f3f5a8260058681548110610cbf57fe5b9060005260206000200160009054906101000a900473ffffffffffffffffffffffffffffffffffffffff166040518363ffffffff1660e01b8152600401610d079291906159cb565b604080518083038186803b158015610d1e57600080fd5b505afa158015610d32573d6000803e3d6000fd5b505050506040513d601f19601f82011682018060405250810190610d56919061505e565b809750819850505060058381548110610d6b57fe5b9060005260206000200160009054906101000a900473ffffffffffffffffffffffffffffffffffffffff1684600081518110610da357fe5b602002602001019073ffffffffffffffffffffffffffffffffffffffff16908173ffffffffffffffffffffffffffffffffffffffff168152505061120d565b60005b8273ffffffffffffffffffffffffffffffffffffffff166371a973056040518163ffffffff1660e01b815260040160006040518083038186803b158015610e2b57600080fd5b505afa158015610e3f573d6000803e3d6000fd5b505050506040513d6000823e3d601f19601f82011682018060405250810190610e689190614f1a565b5181101561120b578673ffffffffffffffffffffffffffffffffffffffff168373ffffffffffffffffffffffffffffffffffffffff166371a973056040518163ffffffff1660e01b815260040160006040518083038186803b158015610ecd57600080fd5b505afa158015610ee1573d6000803e3d6000fd5b505050506040513d6000823e3d601f19601f82011682018060405250810190610f0a9190614f1a565b8581518110610f1557fe5b602002602001015173ffffffffffffffffffffffffffffffffffffffff1614156111fe576000600160009054906101000a900473ffffffffffffffffffffffffffffffffffffffff1673ffffffffffffffffffffffffffffffffffffffff166368a4f5c28573ffffffffffffffffffffffffffffffffffffffff1663056da0486040518163ffffffff1660e01b815260040160006040518083038186803b158015610fbf57600080fd5b505afa158015610fd3573d6000803e3d6000fd5b505050506040513d6000823e3d601f19601f82011682018060405250810190610ffc9190614fa0565b6040518263ffffffff1660e01b8152600401611018919061588e565b60006040518083038186803b15801561103057600080fd5b505afa158015611044573d6000803e3d6000fd5b505050506040513d6000823e3d601f19601f8201168201806040525081019061106d9190614fe1565b905080915050600260009054906101000a900473ffffffffffffffffffffffffffffffffffffffff1673ffffffffffffffffffffffffffffffffffffffff1663777647fb82600588815481106110bf57fe5b9060005260206000200160009054906101000a900473ffffffffffffffffffffffffffffffffffffffff168b6040518463ffffffff1660e01b8152600401611109939291906159f4565b60206040518083038186803b15801561112157600080fd5b505afa158015611135573d6000803e3d6000fd5b505050506040513d601f19601f820116820180604052508101906111599190615035565b156111fc576005858154811061116b57fe5b9060005260206000200160009054906101000a900473ffffffffffffffffffffffffffffffffffffffff168660018401815181106111a557fe5b602002602001019073ffffffffffffffffffffffffffffffffffffffff16908173ffffffffffffffffffffffffffffffffffffffff1681525050808760018401815181106111ef57fe5b6020026020010181815250505b505b8080600101915050610de5565b505b505b508080600101915050610953565b506000611229826106b4565b9050600060608267ffffffffffffffff8111801561124657600080fd5b506040519080825280602002602001820160405280156112755781602001602082028036833780820191505090505b50905060005b845181101561164357600073ffffffffffffffffffffffffffffffffffffffff168582815181106112a857fe5b602002602001015173ffffffffffffffffffffffffffffffffffffffff1614611636576000600660008784815181106112dd57fe5b602002602001015173ffffffffffffffffffffffffffffffffffffffff1673ffffffffffffffffffffffffffffffffffffffff16815260200190815260200160002060009054906101000a900473ffffffffffffffffffffffffffffffffffffffff16905060608173ffffffffffffffffffffffffffffffffffffffff1663056da0486040518163ffffffff1660e01b815260040160006040518083038186803b15801561138a57600080fd5b505afa15801561139e573d6000803e3d6000fd5b505050506040513d6000823e3d601f19601f820116820180604052508101906113c79190614fa0565b5167ffffffffffffffff811180156113de57600080fd5b5060405190808252806020026020018201604052801561140d5781602001602082028036833780820191505090505b509050600160009054906101000a900473ffffffffffffffffffffffffffffffffffffffff1673ffffffffffffffffffffffffffffffffffffffff166368a4f5c28373ffffffffffffffffffffffffffffffffffffffff1663056da0486040518163ffffffff1660e01b815260040160006040518083038186803b15801561149457600080fd5b505afa1580156114a8573d6000803e3d6000fd5b505050506040513d6000823e3d601f19601f820116820180604052508101906114d19190614fa0565b6040518263ffffffff1660e01b81526004016114ed919061588e565b60006040518083038186803b15801561150557600080fd5b505afa158015611519573d6000803e3d6000fd5b505050506040513d6000823e3d601f19601f820116820180604052508101906115429190614fe1565b508091505060005b8273ffffffffffffffffffffffffffffffffffffffff1663056da0486040518163ffffffff1660e01b815260040160006040518083038186803b15801561159057600080fd5b505afa1580156115a4573d6000803e3d6000fd5b505050506040513d6000823e3d601f19601f820116820180604052508101906115cd9190614fa0565b518110156116325760008282815181106115e357fe5b602002602001015114611625578181815181106115fc57fe5b602002602001015185878151811061161057fe5b60200260200101818152505085806001019650505b808060010191505061154a565b5050505b808060010191505061127b565b5050505050505050565b611655614775565b73ffffffffffffffffffffffffffffffffffffffff1660008054906101000a900473ffffffffffffffffffffffffffffffffffffffff1673ffffffffffffffffffffffffffffffffffffffff1614611715576040517f08c379a00000000000000000000000000000000000000000000000000000000081526004018080602001828103825260208152602001807f4f776e61626c653a2063616c6c6572206973206e6f7420746865206f776e657281525060200191505060405180910390fd5b80600460006101000a81548173ffffffffffffffffffffffffffffffffffffffff021916908373ffffffffffffffffffffffffffffffffffffffff16021790555050565b600073ffffffffffffffffffffffffffffffffffffffff168373ffffffffffffffffffffffffffffffffffffffff1614156117c9576040517f08c379a00000000000000000000000000000000000000000000000000000000081526004016117c090615910565b60405180910390fd5b6000821161180c576040517f08c379a0000000000000000000000000000000000000000000000000000000008152600401611803906158d0565b60405180910390fd5b6000839050828173ffffffffffffffffffffffffffffffffffffffff1663dd62ed3e33306040518363ffffffff1660e01b815260040161184d92919061561b565b60206040518083038186803b15801561186557600080fd5b505afa158015611879573d6000803e3d6000fd5b505050506040513d601f19601f8201168201806040525081019061189d9190615104565b10156118de576040517f08c379a00000000000000000000000000000000000000000000000000000000081526004016118d590615950565b60405180910390fd5b600073ffffffffffffffffffffffffffffffffffffffff16600660003373ffffffffffffffffffffffffffffffffffffffff1673ffffffffffffffffffffffffffffffffffffffff16815260200190815260200160002060009054906101000a900473ffffffffffffffffffffffffffffffffffffffff1673ffffffffffffffffffffffffffffffffffffffff16141561197b5761197a612e57565b5b60019150811561198e5761198d61477d565b5b61199784612966565b6119a084613d23565b600360009054906101000a900473ffffffffffffffffffffffffffffffffffffffff1673ffffffffffffffffffffffffffffffffffffffff1663ae6418b585600660003373ffffffffffffffffffffffffffffffffffffffff1673ffffffffffffffffffffffffffffffffffffffff16815260200190815260200160002060009054906101000a900473ffffffffffffffffffffffffffffffffffffffff166040518363ffffffff1660e01b8152600401611a5c92919061567b565b600060405180830381600087803b158015611a7657600080fd5b505af1158015611a8a573d6000803e3d6000fd5b50505050611b5684611b5185600360009054906101000a900473ffffffffffffffffffffffffffffffffffffffff1673ffffffffffffffffffffffffffffffffffffffff1663d4fac45d89336040518363ffffffff1660e01b8152600401611af39291906156a4565b60206040518083038186803b158015611b0b57600080fd5b505afa158015611b1f573d6000803e3d6000fd5b505050506040513d601f19601f82011682018060405250810190611b439190615104565b61487d90919063ffffffff16565b613ea0565b8073ffffffffffffffffffffffffffffffffffffffff166323b872dd33600360009054906101000a900473ffffffffffffffffffffffffffffffffffffffff16866040518463ffffffff1660e01b8152600401611bb593929190615644565b602060405180830381600087803b158015611bcf57600080fd5b505af1158015611be3573d6000803e3d6000fd5b505050506040513d601f19601f82011682018060405250810190611c079190615035565b50600360009054906101000a900473ffffffffffffffffffffffffffffffffffffffff1673ffffffffffffffffffffffffffffffffffffffff16638340f54985600660003373ffffffffffffffffffffffffffffffffffffffff1673ffffffffffffffffffffffffffffffffffffffff16815260200190815260200160002060009054906101000a900473ffffffffffffffffffffffffffffffffffffffff16866040518463ffffffff1660e01b8152600401611cc693929190615704565b600060405180830381600087803b158015611ce057600080fd5b505af1158015611cf4573d6000803e3d6000fd5b5050505050505050565b6000600660003373ffffffffffffffffffffffffffffffffffffffff1673ffffffffffffffffffffffffffffffffffffffff16815260200190815260200160002060009054906101000a900473ffffffffffffffffffffffffffffffffffffffff1690508073ffffffffffffffffffffffffffffffffffffffff16634a5e42b1836040518263ffffffff1660e01b8152600401611d9b9190615600565b600060405180830381600087803b158015611db557600080fd5b505af1158015611dc9573d6000803e3d6000fd5b505050505050565b600073ffffffffffffffffffffffffffffffffffffffff16600660003373ffffffffffffffffffffffffffffffffffffffff1673ffffffffffffffffffffffffffffffffffffffff16815260200190815260200160002060009054906101000a900473ffffffffffffffffffffffffffffffffffffffff1673ffffffffffffffffffffffffffffffffffffffff161415611ea0576040517f08c379a0000000000000000000000000000000000000000000000000000000008152600401611e9790615930565b60405180910390fd5b6000600660003373ffffffffffffffffffffffffffffffffffffffff1673ffffffffffffffffffffffffffffffffffffffff16815260200190815260200160002060009054906101000a900473ffffffffffffffffffffffffffffffffffffffff1690508073ffffffffffffffffffffffffffffffffffffffff16634e75486a836040518263ffffffff1660e01b8152600401611f3d91906159b0565b600060405180830381600087803b158015611f5757600080fd5b505af1158015611f6b573d6000803e3d6000fd5b505050505050565b600073ffffffffffffffffffffffffffffffffffffffff16600660003373ffffffffffffffffffffffffffffffffffffffff1673ffffffffffffffffffffffffffffffffffffffff16815260200190815260200160002060009054906101000a900473ffffffffffffffffffffffffffffffffffffffff1673ffffffffffffffffffffffffffffffffffffffff161415612042576040517f08c379a000000000000000000000000000000000000000000000000000000000815260040161203990615930565b60405180910390fd5b6000600660003373ffffffffffffffffffffffffffffffffffffffff1673ffffffffffffffffffffffffffffffffffffffff16815260200190815260200160002060009054906101000a900473ffffffffffffffffffffffffffffffffffffffff1690508073ffffffffffffffffffffffffffffffffffffffff166353b08df6836040518263ffffffff1660e01b81526004016120df91906159b0565b600060405180830381600087803b1580156120f957600080fd5b505af115801561210d573d6000803e3d6000fd5b505050505050565b61211d614775565b73ffffffffffffffffffffffffffffffffffffffff1660008054906101000a900473ffffffffffffffffffffffffffffffffffffffff1673ffffffffffffffffffffffffffffffffffffffff16146121dd576040517f08c379a00000000000000000000000000000000000000000000000000000000081526004018080602001828103825260208152602001807f4f776e61626c653a2063616c6c6572206973206e6f7420746865206f776e657281525060200191505060405180910390fd5b60008190508073ffffffffffffffffffffffffffffffffffffffff1663095ea7b3600360009054906101000a900473ffffffffffffffffffffffffffffffffffffffff167fffffffffffffffffffffffffffffffffffffffffffffffffffffffffffffffff6040518363ffffffff1660e01b815260040161225f9291906157a3565b602060405180830381600087803b15801561227957600080fd5b505af115801561228d573d6000803e3d6000fd5b505050506040513d601f19601f820116820180604052508101906122b19190615035565b505050565b6122be614775565b73ffffffffffffffffffffffffffffffffffffffff1660008054906101000a900473ffffffffffffffffffffffffffffffffffffffff1673ffffffffffffffffffffffffffffffffffffffff161461237e576040517f08c379a00000000000000000000000000000000000000000000000000000000081526004018080602001828103825260208152602001807f4f776e61626c653a2063616c6c6572206973206e6f7420746865206f776e657281525060200191505060405180910390fd5b8060078190555050565b600073ffffffffffffffffffffffffffffffffffffffff16600660003373ffffffffffffffffffffffffffffffffffffffff1673ffffffffffffffffffffffffffffffffffffffff16815260200190815260200160002060009054906101000a900473ffffffffffffffffffffffffffffffffffffffff1673ffffffffffffffffffffffffffffffffffffffff161415612457576040517f08c379a000000000000000000000000000000000000000000000000000000000815260040161244e90615930565b60405180910390fd5b6000600660003373ffffffffffffffffffffffffffffffffffffffff1673ffffffffffffffffffffffffffffffffffffffff16815260200190815260200160002060009054906101000a900473ffffffffffffffffffffffffffffffffffffffff1690508073ffffffffffffffffffffffffffffffffffffffff16636de43cc284846040518363ffffffff1660e01b81526004016124f692919061586a565b600060405180830381600087803b15801561251057600080fd5b505af1158015612524573d6000803e3d6000fd5b50505050505050565b612535614775565b73ffffffffffffffffffffffffffffffffffffffff1660008054906101000a900473ffffffffffffffffffffffffffffffffffffffff1673ffffffffffffffffffffffffffffffffffffffff16146125f5576040517f08c379a00000000000000000000000000000000000000000000000000000000081526004018080602001828103825260208152602001807f4f776e61626c653a2063616c6c6572206973206e6f7420746865206f776e657281525060200191505060405180910390fd5b80600360006101000a81548173ffffffffffffffffffffffffffffffffffffffff021916908373ffffffffffffffffffffffffffffffffffffffff16021790555050565b565b612643614775565b73ffffffffffffffffffffffffffffffffffffffff1660008054906101000a900473ffffffffffffffffffffffffffffffffffffffff1673ffffffffffffffffffffffffffffffffffffffff1614612703576040517f08c379a00000000000000000000000000000000000000000000000000000000081526004018080602001828103825260208152602001807f4f776e61626c653a2063616c6c6572206973206e6f7420746865206f776e657281525060200191505060405180910390fd5b600073ffffffffffffffffffffffffffffffffffffffff1660008054906101000a900473ffffffffffffffffffffffffffffffffffffffff1673ffffffffffffffffffffffffffffffffffffffff167f8be0079c531659141344cd1fd0a4f28419497f9722a3daafe3b4186f6b6457e060405160405180910390a360008060006101000a81548173ffffffffffffffffffffffffffffffffffffffff021916908373ffffffffffffffffffffffffffffffffffffffff160217905550565b600073ffffffffffffffffffffffffffffffffffffffff16600660003373ffffffffffffffffffffffffffffffffffffffff1673ffffffffffffffffffffffffffffffffffffffff16815260200190815260200160002060009054906101000a900473ffffffffffffffffffffffffffffffffffffffff1673ffffffffffffffffffffffffffffffffffffffff161415612890576040517f08c379a000000000000000000000000000000000000000000000000000000000815260040161288790615930565b60405180910390fd5b6000600660003373ffffffffffffffffffffffffffffffffffffffff1673ffffffffffffffffffffffffffffffffffffffff16815260200190815260200160002060009054906101000a900473ffffffffffffffffffffffffffffffffffffffff1690508073ffffffffffffffffffffffffffffffffffffffff16637a82794b84846040518363ffffffff1660e01b815260040161292f92919061586a565b600060405180830381600087803b15801561294957600080fd5b505af115801561295d573d6000803e3d6000fd5b50505050505050565b6000600660003373ffffffffffffffffffffffffffffffffffffffff1673ffffffffffffffffffffffffffffffffffffffff16815260200190815260200160002060009054906101000a900473ffffffffffffffffffffffffffffffffffffffff1690508073ffffffffffffffffffffffffffffffffffffffff1663298410e5836040518263ffffffff1660e01b8152600401612a039190615600565b600060405180830381600087803b158015612a1d57600080fd5b505af1158015612a31573d6000803e3d6000fd5b505050505050565b60008073ffffffffffffffffffffffffffffffffffffffff16600660003373ffffffffffffffffffffffffffffffffffffffff1673ffffffffffffffffffffffffffffffffffffffff16815260200190815260200160002060009054906101000a900473ffffffffffffffffffffffffffffffffffffffff1673ffffffffffffffffffffffffffffffffffffffff161415612b09576040517f08c379a0000000000000000000000000000000000000000000000000000000008152600401612b0090615930565b60405180910390fd5b6000600660003373ffffffffffffffffffffffffffffffffffffffff1673ffffffffffffffffffffffffffffffffffffffff16815260200190815260200160002060009054906101000a900473ffffffffffffffffffffffffffffffffffffffff1690508073ffffffffffffffffffffffffffffffffffffffff16638da5cb5b6040518163ffffffff1660e01b815260040160206040518083038186803b158015612bb357600080fd5b505afa158015612bc7573d6000803e3d6000fd5b505050506040513d601f19601f82011682018060405250810190612beb9190614dfc565b91505090565b612bf9614775565b73ffffffffffffffffffffffffffffffffffffffff1660008054906101000a900473ffffffffffffffffffffffffffffffffffffffff1673ffffffffffffffffffffffffffffffffffffffff1614612cb9576040517f08c379a00000000000000000000000000000000000000000000000000000000081526004018080602001828103825260208152602001807f4f776e61626c653a2063616c6c6572206973206e6f7420746865206f776e657281525060200191505060405180910390fd5b60008190508073ffffffffffffffffffffffffffffffffffffffff1663fdff9b816040518163ffffffff1660e01b8152600401600060405180830381600087803b158015612d0657600080fd5b505af1158015612d1a573d6000803e3d6000fd5b505050505050565b60008060009054906101000a900473ffffffffffffffffffffffffffffffffffffffff16905090565b612d53614775565b73ffffffffffffffffffffffffffffffffffffffff1660008054906101000a900473ffffffffffffffffffffffffffffffffffffffff1673ffffffffffffffffffffffffffffffffffffffff1614612e13576040517f08c379a00000000000000000000000000000000000000000000000000000000081526004018080602001828103825260208152602001807f4f776e61626c653a2063616c6c6572206973206e6f7420746865206f776e657281525060200191505060405180910390fd5b80600260006101000a81548173ffffffffffffffffffffffffffffffffffffffff021916908373ffffffffffffffffffffffffffffffffffffffff16021790555050565b600033604051602001612e6a91906155e5565b604051602081830303815290604052805190602001209050612eae600460009054906101000a900473ffffffffffffffffffffffffffffffffffffffff1682614905565b600660003373ffffffffffffffffffffffffffffffffffffffff1673ffffffffffffffffffffffffffffffffffffffff16815260200190815260200160002060006101000a81548173ffffffffffffffffffffffffffffffffffffffff021916908373ffffffffffffffffffffffffffffffffffffffff1602179055506000600660003373ffffffffffffffffffffffffffffffffffffffff1673ffffffffffffffffffffffffffffffffffffffff16815260200190815260200160002060009054906101000a900473ffffffffffffffffffffffffffffffffffffffff1690508073ffffffffffffffffffffffffffffffffffffffff16638129fc1c6040518163ffffffff1660e01b8152600401600060405180830381600087803b158015612fd757600080fd5b505af1158015612feb573d6000803e3d6000fd5b505050505050565b612ffb614775565b73ffffffffffffffffffffffffffffffffffffffff1660008054906101000a900473ffffffffffffffffffffffffffffffffffffffff1673ffffffffffffffffffffffffffffffffffffffff16146130bb576040517f08c379a00000000000000000000000000000000000000000000000000000000081526004018080602001828103825260208152602001807f4f776e61626c653a2063616c6c6572206973206e6f7420746865206f776e657281525060200191505060405180910390fd5b80600160006101000a81548173ffffffffffffffffffffffffffffffffffffffff021916908373ffffffffffffffffffffffffffffffffffffffff16021790555050565b613107614775565b73ffffffffffffffffffffffffffffffffffffffff1660008054906101000a900473ffffffffffffffffffffffffffffffffffffffff1673ffffffffffffffffffffffffffffffffffffffff16146131c7576040517f08c379a00000000000000000000000000000000000000000000000000000000081526004018080602001828103825260208152602001807f4f776e61626c653a2063616c6c6572206973206e6f7420746865206f776e657281525060200191505060405180910390fd5b3373ffffffffffffffffffffffffffffffffffffffff166108fc479081150290604051600060405180830381858888f1935050505015801561320d573d6000803e3d6000fd5b50565b60075481565b600073ffffffffffffffffffffffffffffffffffffffff168173ffffffffffffffffffffffffffffffffffffffff16141561324f573390505b600081905060008173ffffffffffffffffffffffffffffffffffffffff1663056da0486040518163ffffffff1660e01b815260040160006040518083038186803b15801561329c57600080fd5b505afa1580156132b0573d6000803e3d6000fd5b505050506040513d6000823e3d601f19601f820116820180604052508101906132d99190614fa0565b511415801561336c575060008173ffffffffffffffffffffffffffffffffffffffff166371a973056040518163ffffffff1660e01b815260040160006040518083038186803b15801561332b57600080fd5b505afa15801561333f573d6000803e3d6000fd5b505050506040513d6000823e3d601f19601f820116820180604052508101906133689190614f1a565b5114155b6133ab576040517f08c379a00000000000000000000000000000000000000000000000000000000081526004016133a290615970565b60405180910390fd5b6060600160009054906101000a900473ffffffffffffffffffffffffffffffffffffffff1673ffffffffffffffffffffffffffffffffffffffff16635884472e8373ffffffffffffffffffffffffffffffffffffffff1663056da0486040518163ffffffff1660e01b815260040160006040518083038186803b15801561343157600080fd5b505afa158015613445573d6000803e3d6000fd5b505050506040513d6000823e3d601f19601f8201168201806040525081019061346e9190614fa0565b6040518263ffffffff1660e01b815260040161348a919061588e565b60206040518083038186803b1580156134a257600080fd5b505afa1580156134b6573d6000803e3d6000fd5b505050506040513d601f19601f820116820180604052508101906134da9190615104565b67ffffffffffffffff811180156134f057600080fd5b5060405190808252806020026020018201604052801561351f5781602001602082028036833780820191505090505b5090506000600160009054906101000a900473ffffffffffffffffffffffffffffffffffffffff1673ffffffffffffffffffffffffffffffffffffffff166368a4f5c28473ffffffffffffffffffffffffffffffffffffffff1663056da0486040518163ffffffff1660e01b815260040160006040518083038186803b1580156135a857600080fd5b505afa1580156135bc573d6000803e3d6000fd5b505050506040513d6000823e3d601f19601f820116820180604052508101906135e59190614fa0565b6040518263ffffffff1660e01b8152600401613601919061588e565b60006040518083038186803b15801561361957600080fd5b505afa15801561362d573d6000803e3d6000fd5b505050506040513d6000823e3d601f19601f820116820180604052508101906136569190614fe1565b8092508193505050600081116136a1576040517f08c379a000000000000000000000000000000000000000000000000000000000815260040161369890615990565b60405180910390fd5b600080600260009054906101000a900473ffffffffffffffffffffffffffffffffffffffff1673ffffffffffffffffffffffffffffffffffffffff16638b1f3f5a84876040518363ffffffff1660e01b81526004016137019291906159cb565b604080518083038186803b15801561371857600080fd5b505afa15801561372c573d6000803e3d6000fd5b505050506040513d601f19601f82011682018060405250810190613750919061505e565b809250819350505081613798576040517f08c379a000000000000000000000000000000000000000000000000000000000815260040161378f906158b0565b60405180910390fd5b6060601667ffffffffffffffff811180156137b257600080fd5b506040519080825280602002602001820160405280156137e15781602001602082028036833780820191505090505b50905060006060865167ffffffffffffffff8111801561380057600080fd5b5060405190808252806020026020018201604052801561383457816020015b606081526020019060019003908161381f5790505b50905060005b8751811015613908578873ffffffffffffffffffffffffffffffffffffffff1663e97b565389838151811061386b57fe5b60200260200101516040518263ffffffff1660e01b815260040161388f91906159b0565b60006040518083038186803b1580156138a757600080fd5b505afa1580156138bb573d6000803e3d6000fd5b505050506040513d6000823e3d601f19601f820116820180604052508101906138e4919061509a565b8282815181106138f057fe5b6020026020010181905250808060010191505061383a565b50600260009054906101000a900473ffffffffffffffffffffffffffffffffffffffff1673ffffffffffffffffffffffffffffffffffffffff1663d3e6e3e9858860006040518463ffffffff1660e01b8152600401613969939291906157cc565b60006040518083038186803b15801561398157600080fd5b505afa158015613995573d6000803e3d6000fd5b505050506040513d6000823e3d601f19601f820116820180604052508101906139be919061512d565b80945081935050506000600360009054906101000a900473ffffffffffffffffffffffffffffffffffffffff1673ffffffffffffffffffffffffffffffffffffffff1663732a52ee866040518263ffffffff1660e01b8152600401613a239190615600565b60206040518083038186803b158015613a3b57600080fd5b505afa158015613a4f573d6000803e3d6000fd5b505050506040513d601f19601f82011682018060405250810190613a739190614dfc565b90508073ffffffffffffffffffffffffffffffffffffffff166323b872dd600660008d73ffffffffffffffffffffffffffffffffffffffff1673ffffffffffffffffffffffffffffffffffffffff16815260200190815260200160002060009054906101000a900473ffffffffffffffffffffffffffffffffffffffff16600260009054906101000a900473ffffffffffffffffffffffffffffffffffffffff16866040518463ffffffff1660e01b8152600401613b33939291906156cd565b602060405180830381600087803b158015613b4d57600080fd5b505af1158015613b61573d6000803e3d6000fd5b505050506040513d601f19601f82011682018060405250810190613b859190615035565b50600260009054906101000a900473ffffffffffffffffffffffffffffffffffffffff1673ffffffffffffffffffffffffffffffffffffffff1663e2a7515e866000868b8960006040518763ffffffff1660e01b8152600401613bed9695949392919061573b565b602060405180830381600087803b158015613c0757600080fd5b505af1158015613c1b573d6000803e3d6000fd5b505050506040513d601f19601f82011682018060405250810190613c3f9190615104565b50600160009054906101000a900473ffffffffffffffffffffffffffffffffffffffff1673ffffffffffffffffffffffffffffffffffffffff1663b7dcee078360006040518363ffffffff1660e01b8152600401613c9e92919061583a565b600060405180830381600087803b158015613cb857600080fd5b505af1158015613ccc573d6000803e3d6000fd5b505050508873ffffffffffffffffffffffffffffffffffffffff166108fc479081150290604051600060405180830381858888f19350505050158015613d16573d6000803e3d6000fd5b5050505050505050505050565b6000600660003373ffffffffffffffffffffffffffffffffffffffff1673ffffffffffffffffffffffffffffffffffffffff16815260200190815260200160002060009054906101000a900473ffffffffffffffffffffffffffffffffffffffff1690508073ffffffffffffffffffffffffffffffffffffffff1663daea85c5600360009054906101000a900473ffffffffffffffffffffffffffffffffffffffff1673ffffffffffffffffffffffffffffffffffffffff1663732a52ee856040518263ffffffff1660e01b8152600401613dfe9190615600565b60206040518083038186803b158015613e1657600080fd5b505afa158015613e2a573d6000803e3d6000fd5b505050506040513d601f19601f82011682018060405250810190613e4e9190614dfc565b6040518263ffffffff1660e01b8152600401613e6a9190615600565b600060405180830381600087803b158015613e8457600080fd5b505af1158015613e98573d6000803e3d6000fd5b505050505050565b600073ffffffffffffffffffffffffffffffffffffffff16600660003373ffffffffffffffffffffffffffffffffffffffff1673ffffffffffffffffffffffffffffffffffffffff16815260200190815260200160002060009054906101000a900473ffffffffffffffffffffffffffffffffffffffff1673ffffffffffffffffffffffffffffffffffffffff161415613f6f576040517f08c379a0000000000000000000000000000000000000000000000000000000008152600401613f6690615930565b60405180910390fd5b6000600660003373ffffffffffffffffffffffffffffffffffffffff1673ffffffffffffffffffffffffffffffffffffffff16815260200190815260200160002060009054906101000a900473ffffffffffffffffffffffffffffffffffffffff1690508073ffffffffffffffffffffffffffffffffffffffff1663e30443bc84846040518363ffffffff1660e01b815260040161400e9291906157a3565b602060405180830381600087803b15801561402857600080fd5b505af115801561403c573d6000803e3d6000fd5b505050506040513d601f19601f820116820180604052508101906140609190615104565b50505050565b61406e614775565b73ffffffffffffffffffffffffffffffffffffffff1660008054906101000a900473ffffffffffffffffffffffffffffffffffffffff1673ffffffffffffffffffffffffffffffffffffffff161461412e576040517f08c379a00000000000000000000000000000000000000000000000000000000081526004018080602001828103825260208152602001807f4f776e61626c653a2063616c6c6572206973206e6f7420746865206f776e657281525060200191505060405180910390fd5b600073ffffffffffffffffffffffffffffffffffffffff168173ffffffffffffffffffffffffffffffffffffffff1614156141b4576040517f08c379a0000000000000000000000000000000000000000000000000000000008152600401808060200182810382526026815260200180615d086026913960400191505060405180910390fd5b8073ffffffffffffffffffffffffffffffffffffffff1660008054906101000a900473ffffffffffffffffffffffffffffffffffffffff1673ffffffffffffffffffffffffffffffffffffffff167f8be0079c531659141344cd1fd0a4f28419497f9722a3daafe3b4186f6b6457e060405160405180910390a3806000806101000a81548173ffffffffffffffffffffffffffffffffffffffff021916908373ffffffffffffffffffffffffffffffffffffffff16021790555050565b600073ffffffffffffffffffffffffffffffffffffffff16600660003373ffffffffffffffffffffffffffffffffffffffff1673ffffffffffffffffffffffffffffffffffffffff16815260200190815260200160002060009054906101000a900473ffffffffffffffffffffffffffffffffffffffff1673ffffffffffffffffffffffffffffffffffffffff161415614340576040517f08c379a000000000000000000000000000000000000000000000000000000000815260040161433790615930565b60405180910390fd5b600073ffffffffffffffffffffffffffffffffffffffff168273ffffffffffffffffffffffffffffffffffffffff16141561437a57600080fd5b600081116143bd576040517f08c379a00000000000000000000000000000000000000000000000000000000081526004016143b4906158d0565b60405180910390fd5b6000600360009054906101000a900473ffffffffffffffffffffffffffffffffffffffff1673ffffffffffffffffffffffffffffffffffffffff1663c5d1aeb684336040518363ffffffff1660e01b815260040161441c9291906156a4565b60206040518083038186803b15801561443457600080fd5b505afa158015614448573d6000803e3d6000fd5b505050506040513d601f19601f8201168201806040525081019061446c9190615104565b9050600081116144b1576040517f08c379a00000000000000000000000000000000000000000000000000000000081526004016144a8906158f0565b60405180910390fd5b6000818311156144fd578192507fffffffffffffffffffffffffffffffffffffffffffffffffffffffffffffffff9050600091506144ef8483613ea0565b6144f884611cfe565b61451d565b82905061451c846145178585614a0f90919063ffffffff16565b613ea0565b5b6000600360009054906101000a900473ffffffffffffffffffffffffffffffffffffffff1673ffffffffffffffffffffffffffffffffffffffff1663732a52ee866040518263ffffffff1660e01b815260040161457a9190615600565b60206040518083038186803b15801561459257600080fd5b505afa1580156145a6573d6000803e3d6000fd5b505050506040513d601f19601f820116820180604052508101906145ca9190614dfc565b90508073ffffffffffffffffffffffffffffffffffffffff166323b872dd600660003373ffffffffffffffffffffffffffffffffffffffff1673ffffffffffffffffffffffffffffffffffffffff16815260200190815260200160002060009054906101000a900473ffffffffffffffffffffffffffffffffffffffff16600360009054906101000a900473ffffffffffffffffffffffffffffffffffffffff16876040518463ffffffff1660e01b815260040161468a93929190615704565b602060405180830381600087803b1580156146a457600080fd5b505af11580156146b8573d6000803e3d6000fd5b505050506040513d601f19601f820116820180604052508101906146dc9190615035565b50600360009054906101000a900473ffffffffffffffffffffffffffffffffffffffff1673ffffffffffffffffffffffffffffffffffffffff166369328dec8684336040518463ffffffff1660e01b815260040161473c93929190615803565b600060405180830381600087803b15801561475657600080fd5b505af115801561476a573d6000803e3d6000fd5b505050505050505050565b600033905090565b6000805b60058054905081101561480b573373ffffffffffffffffffffffffffffffffffffffff16600582815481106147b257fe5b9060005260206000200160009054906101000a900473ffffffffffffffffffffffffffffffffffffffff1673ffffffffffffffffffffffffffffffffffffffff1614156147fe57600191505b8080600101915050614781565b5060009050801561487a576005339080600181540180825580915050600190039060005260206000200160009091909190916101000a81548173ffffffffffffffffffffffffffffffffffffffff021916908373ffffffffffffffffffffffffffffffffffffffff1602179055505b50565b6000808284019050838110156148fb576040517f08c379a000000000000000000000000000000000000000000000000000000000815260040180806020018281038252601b8152602001807f536166654d6174683a206164646974696f6e206f766572666c6f77000000000081525060200191505060405180910390fd5b8091505092915050565b60006040517f3d602d80600a3d3981f3363d3d373d3d3d363d7300000000000000000000000081528360601b60148201527f5af43d82803e903d91602b57fd5bf300000000000000000000000000000000006028820152826037826000f5915050600073ffffffffffffffffffffffffffffffffffffffff168173ffffffffffffffffffffffffffffffffffffffff161415614a09576040517f08c379a00000000000000000000000000000000000000000000000000000000081526004018080602001828103825260178152602001807f455243313136373a2063726561746532206661696c656400000000000000000081525060200191505060405180910390fd5b92915050565b6000614a5183836040518060400160405280601e81526020017f536166654d6174683a207375627472616374696f6e206f766572666c6f770000815250614a59565b905092915050565b6000838311158290614b06576040517f08c379a00000000000000000000000000000000000000000000000000000000081526004018080602001828103825283818151815260200191508051906020019080838360005b83811015614acb578082015181840152602081019050614ab0565b50505050905090810190601f168015614af85780820380516001836020036101000a031916815260200191505b509250505060405180910390fd5b5060008385039050809150509392505050565b600081359050614b2881615cab565b92915050565b600081519050614b3d81615cab565b92915050565b600081359050614b5281615cc2565b92915050565b600082601f830112614b6957600080fd5b8135614b7c614b7782615a5c565b615a2b565b91508181835260208401935060208101905083856020840282011115614ba157600080fd5b60005b83811015614bd15781614bb78882614b19565b845260208401935060208301925050600181019050614ba4565b5050505092915050565b600082601f830112614bec57600080fd5b8151614bff614bfa82615a5c565b615a2b565b91508181835260208401935060208101905083856020840282011115614c2457600080fd5b60005b83811015614c545781614c3a8882614b2e565b845260208401935060208301925050600181019050614c27565b5050505092915050565b60008083601f840112614c7057600080fd5b8235905067ffffffffffffffff811115614c8957600080fd5b602083019150836020820283011115614ca157600080fd5b9250929050565b600082601f830112614cb957600080fd5b8151614ccc614cc782615a88565b615a2b565b91508181835260208401935060208101905083856020840282011115614cf157600080fd5b60005b83811015614d215781614d078882614dbe565b845260208401935060208301925050600181019050614cf4565b5050505092915050565b600081359050614d3a81615cd9565b92915050565b600081519050614d4f81615cd9565b92915050565b600082601f830112614d6657600080fd5b8151614d79614d7482615ab4565b615a2b565b91508082526020830160208301858383011115614d9557600080fd5b614da0838284615c34565b50505092915050565b600081359050614db881615cf0565b92915050565b600081519050614dcd81615cf0565b92915050565b600060208284031215614de557600080fd5b6000614df384828501614b19565b91505092915050565b600060208284031215614e0e57600080fd5b6000614e1c84828501614b2e565b91505092915050565b600060208284031215614e3757600080fd5b6000614e4584828501614b43565b91505092915050565b60008060408385031215614e6157600080fd5b6000614e6f85828601614b19565b9250506020614e8085828601614da9565b9150509250929050565b600080600060608486031215614e9f57600080fd5b6000614ead86828701614b19565b9350506020614ebe86828701614da9565b9250506040614ecf86828701614d2b565b9150509250925092565b600060208284031215614eeb57600080fd5b600082013567ffffffffffffffff811115614f0557600080fd5b614f1184828501614b58565b91505092915050565b600060208284031215614f2c57600080fd5b600082015167ffffffffffffffff811115614f4657600080fd5b614f5284828501614bdb565b91505092915050565b60008060208385031215614f6e57600080fd5b600083013567ffffffffffffffff811115614f8857600080fd5b614f9485828601614c5e565b92509250509250929050565b600060208284031215614fb257600080fd5b600082015167ffffffffffffffff811115614fcc57600080fd5b614fd884828501614ca8565b91505092915050565b60008060408385031215614ff457600080fd5b600083015167ffffffffffffffff81111561500e57600080fd5b61501a85828601614ca8565b925050602061502b85828601614dbe565b9150509250929050565b60006020828403121561504757600080fd5b600061505584828501614d40565b91505092915050565b6000806040838503121561507157600080fd5b600061507f85828601614d40565b925050602061509085828601614b2e565b9150509250929050565b6000602082840312156150ac57600080fd5b600082015167ffffffffffffffff8111156150c657600080fd5b6150d284828501614d55565b91505092915050565b6000602082840312156150ed57600080fd5b60006150fb84828501614da9565b91505092915050565b60006020828403121561511657600080fd5b600061512484828501614dbe565b91505092915050565b6000806040838503121561514057600080fd5b600061514e85828601614dbe565b925050602083015167ffffffffffffffff81111561516b57600080fd5b61517785828601614ca8565b9150509250929050565b600061518d838361531c565b905092915050565b60006151a183836155c7565b60208301905092915050565b6151b681615bdd565b82525050565b6151cd6151c882615b95565b615c67565b82525050565b6151dc81615b83565b82525050565b60006151ed82615b04565b6151f78185615b3f565b93508360208202850161520985615ae4565b8060005b8581101561524557848403895281516152268582615181565b945061523183615b25565b925060208a0199505060018101905061520d565b50829750879550505050505092915050565b60006152638385615b50565b93507f07ffffffffffffffffffffffffffffffffffffffffffffffffffffffffffffff83111561529257600080fd5b6020830292506152a3838584615c25565b82840190509392505050565b60006152ba82615b0f565b6152c48185615b50565b93506152cf83615af4565b8060005b838110156153005781516152e78882615195565b97506152f283615b32565b9250506001810190506152d3565b5085935050505092915050565b61531681615bef565b82525050565b600061532782615b1a565b6153318185615b61565b9350615341818560208601615c34565b61534a81615c8d565b840191505092915050565b6000615362601083615b72565b91507f4e6f7420656e6f7567682066756e6473000000000000000000000000000000006000830152602082019050919050565b60006153a2601a83615b72565b91507f416d6f756e74206d757374206265206d6f7265207468616e20300000000000006000830152602082019050919050565b60006153e2601b83615b72565b91507f4e6f2062616c616e6365206c65667420746f20776974686472617700000000006000830152602082019050919050565b6000615422602883615b72565b91507f417373657420636f6e74726163742063616e277420626520746865207a65726f60008301527f20616464726573730000000000000000000000000000000000000000000000006020830152604082019050919050565b6000615488600e83615b72565b91507f55736572206e6f7420666f756e640000000000000000000000000000000000006000830152602082019050919050565b60006154c8602583615b72565b91507f55736572206e6f7420617070726f76656420746f2073656e642074686973206160008301527f6d6f756e740000000000000000000000000000000000000000000000000000006020830152604082019050919050565b600061552e602883615b72565b91507f5573657220686173206e6f2066756e6473206f72206e6f206e616d657320726560008301527f67697374657265640000000000000000000000000000000000000000000000006020830152604082019050919050565b6000615594601c83615b72565b91507f4e6f206e616d6573206172652064756520666f722072656e6577616c000000006000830152602082019050919050565b6155d081615bd3565b82525050565b6155df81615bd3565b82525050565b60006155f182846151bc565b60148201915081905092915050565b600060208201905061561560008301846151d3565b92915050565b600060408201905061563060008301856151ad565b61563d60208301846151ad565b9392505050565b600060608201905061565960008301866151ad565b61566660208301856151d3565b61567360408301846155d6565b949350505050565b600060408201905061569060008301856151d3565b61569d60208301846151d3565b9392505050565b60006040820190506156b960008301856151d3565b6156c660208301846151ad565b9392505050565b60006060820190506156e260008301866151d3565b6156ef60208301856151ad565b6156fc60408301846155d6565b949350505050565b600060608201905061571960008301866151d3565b61572660208301856151d3565b61573360408301846155d6565b949350505050565b600060c08201905061575060008301896151d3565b61575d60208301886151d3565b61576a60408301876155d6565b61577760608301866155d6565b818103608083015261578981856152af565b905061579860a083018461530d565b979650505050505050565b60006040820190506157b860008301856151d3565b6157c560208301846155d6565b9392505050565b60006060820190506157e160008301866151d3565b6157ee60208301856155d6565b6157fb60408301846151d3565b949350505050565b600060608201905061581860008301866151d3565b61582560208301856155d6565b61583260408301846151ad565b949350505050565b6000604082019050818103600083015261585481856151e2565b9050615863602083018461530d565b9392505050565b60006020820190508181036000830152615885818486615257565b90509392505050565b600060208201905081810360008301526158a881846152af565b905092915050565b600060208201905081810360008301526158c981615355565b9050919050565b600060208201905081810360008301526158e981615395565b9050919050565b60006020820190508181036000830152615909816153d5565b9050919050565b6000602082019050818103600083015261592981615415565b9050919050565b600060208201905081810360008301526159498161547b565b9050919050565b60006020820190508181036000830152615969816154bb565b9050919050565b6000602082019050818103600083015261598981615521565b9050919050565b600060208201905081810360008301526159a981615587565b9050919050565b60006020820190506159c560008301846155d6565b92915050565b60006040820190506159e060008301856155d6565b6159ed60208301846151d3565b9392505050565b6000606082019050615a0960008301866155d6565b615a1660208301856151d3565b615a2360408301846151d3565b949350505050565b6000604051905081810181811067ffffffffffffffff82111715615a5257615a51615c8b565b5b8060405250919050565b600067ffffffffffffffff821115615a7757615a76615c8b565b5b602082029050602081019050919050565b600067ffffffffffffffff821115615aa357615aa2615c8b565b5b602082029050602081019050919050565b600067ffffffffffffffff821115615acf57615ace615c8b565b5b601f19601f8301169050602081019050919050565b6000819050602082019050919050565b6000819050602082019050919050565b600081519050919050565b600081519050919050565b600081519050919050565b6000602082019050919050565b6000602082019050919050565b600082825260208201905092915050565b600082825260208201905092915050565b600082825260208201905092915050565b600082825260208201905092915050565b6000615b8e82615bb3565b9050919050565b6000615ba082615bb3565b9050919050565b60008115159050919050565b600073ffffffffffffffffffffffffffffffffffffffff82169050919050565b6000819050919050565b6000615be882615c01565b9050919050565b6000615bfa82615bd3565b9050919050565b6000615c0c82615c13565b9050919050565b6000615c1e82615bb3565b9050919050565b82818337600083830152505050565b60005b83811015615c52578082015181840152602081019050615c37565b83811115615c61576000848401525b50505050565b6000615c7282615c79565b9050919050565b6000615c8482615c9e565b9050919050565bfe5b6000601f19601f8301169050919050565b60008160601b9050919050565b615cb481615b83565b8114615cbf57600080fd5b50565b615ccb81615b95565b8114615cd657600080fd5b50565b615ce281615ba7565b8114615ced57600080fd5b50565b615cf981615bd3565b8114615d0457600080fd5b5056fe4f776e61626c653a206e6577206f776e657220697320746865207a65726f2061646472657373a2646970667358221220ba416c68c5b0495f9583bcf2567efb782bd705738d0aa4ec58eed6f067b7fafc64736f6c63430007040033",
  "immutableReferences": {},
  "source": "// SPDX-License-Identifier: MIT\r\npragma solidity ^0.7.4;\r\npragma experimental ABIEncoderV2;\r\n\r\nimport \"@openzeppelin/contracts/math/SafeMath.sol\";\r\nimport \"@openzeppelin/contracts/access/Ownable.sol\";\r\nimport \"@openzeppelin/contracts/proxy/Clones.sol\";\r\nimport \"@openzeppelin/contracts/token/ERC20/IERC20.sol\";\r\nimport \"interfaces/INameManager.sol\";\r\nimport \"interfaces/IInvestmentManager.sol\";\r\nimport \"interfaces/IExchangeManager.sol\";\r\nimport \"interfaces/IUserVault.sol\";\r\n//import \"interfaces/ENS_BulkRenewal.sol\";\r\n//import \"interfaces/ENS_Resolver.sol\";\r\n\r\n/// @title StakeYourName - Main Contract\r\n/// @notice Handles interations between the users and\r\n/// @notice other StakeYourName contracts.\r\n/// @author Daniel Chilvers\r\n\r\ncontract StakeYourName is Ownable {\r\n\r\n    NameManager nameManager;\r\n    ExchangeManager exchangeManager;\r\n    InvestmentManager investmentManager;\r\n\r\n    constructor() {\r\n        /// @dev TO:DO set deployment addresses of the managers in here.\r\n\r\n    }\r\n\r\n    using SafeMath for uint256;\r\n    address internal masterVault;\r\n    address[] internal users;\r\n    address constant zeroAddress = 0x0000000000000000000000000000000000000000;\r\n    mapping (address => address) internal vault;\r\n    uint256 public referralCode = 0;\r\n    uint256 constant MAX_INT = type(uint256).max;\r\n    uint256 constant MIN_APPROVAL = type(uint256).max/2;\r\n\r\n    struct Renewals{\r\n        string[] names;\r\n        address user;\r\n        uint256 cost;\r\n    }\r\n\r\n    /// @notice only allow users with an active vault to do these functions\r\n    modifier onlyUser() {\r\n        require(vault[msg.sender] != address(0), \"User not found\");\r\n        _;\r\n    }\r\n\r\n    /******************************************** \r\n    *                                           *\r\n    *   User functions                          *\r\n    *                                           *\r\n    ********************************************/\r\n\r\n    function addName(uint256 _name) external onlyUser {\r\n        UserVault _userVault = UserVault(vault[msg.sender]);\r\n        _userVault.addName(_name);\r\n    }\r\n\r\n    function addMultipleNames(uint256[] calldata _names) external onlyUser {\r\n        UserVault _userVault = UserVault(vault[msg.sender]);\r\n        _userVault.addMultipleNames(_names);\r\n    }\r\n\r\n    function removeName(uint256 _name) external onlyUser {\r\n        UserVault _userVault = UserVault(vault[msg.sender]);\r\n        _userVault.removeName(_name);        \r\n    }\r\n\r\n    function removeMultipleNames(uint256[] calldata _names) external onlyUser {\r\n        UserVault _userVault = UserVault(vault[msg.sender]);\r\n        _userVault.removeMultipleNames(_names);\r\n    }\r\n\r\n    /// @notice deposits tokens to the Aave LendingPool contract\r\n    /// @notice updates vault with new balance\r\n    /// @param _asset the contract address of the token to deposit\r\n    /// @param _amount the amount to deposit in wei\r\n    /// @param _newUser if true this user is added to the userList\r\n    function deposit(address _asset, uint256 _amount, bool _newUser) external {\r\n        require(_asset != address(0), \"Asset contract can't be the zero address\");\r\n        require(_amount > 0, \"Amount must be more than 0\");\r\n        IERC20 _erc20 = IERC20(_asset);\r\n        require( _erc20.allowance(msg.sender, address(this)) >= _amount, \"User not approved to send this amount\");\r\n        if (vault[msg.sender] == address(0)){\r\n            deployVault();\r\n        }\r\n        if (_newUser = true){addUser();}\r\n        vaultAddAsset(_asset);\r\n        approveVault(_asset);\r\n        investmentManager.approveLendingPool(_asset, vault[msg.sender]);\r\n        setBalance(_asset, investmentManager.getBalance(_asset, msg.sender).add(_amount));\r\n        _erc20.transferFrom(msg.sender, address(investmentManager), _amount);\r\n        investmentManager.deposit(_asset, vault[msg.sender], _amount);\r\n    }\r\n\r\n    /// @notice withdraw tokens from the Aave LendingPool contract\r\n    /// @notice updates vault with new balance\r\n    /// @param _asset the contract address of the token to deposit\r\n    /// @param _amount the amount to deposit in wei\r\n    function withdraw(address _asset, uint256 _amount) external onlyUser {\r\n        require(_asset != address(0));\r\n        require(_amount > 0, \"Amount must be more than 0\");\r\n        uint256 _balance = investmentManager.getTotal(_asset, msg.sender);\r\n        require(_balance > 0, \"No balance left to withdraw\");\r\n        uint256 _transfer = 0;\r\n        if (_amount > _balance) {\r\n            _amount = _balance;\r\n            _transfer = MAX_INT;\r\n            _balance = 0;\r\n            setBalance(_asset, _balance);\r\n            vaultRemoveAsset(_asset);\r\n        } else {\r\n            _transfer = _amount;\r\n            setBalance(_asset, _balance.sub(_amount));\r\n        }\r\n        IERC20 _erc20 = IERC20(investmentManager.getAToken(_asset));\r\n        _erc20.transferFrom(vault[msg.sender], address(investmentManager), _amount);\r\n        investmentManager.withdraw(_asset, _transfer, msg.sender);\r\n    }\r\n\r\n    /******************************************** \r\n    *                                           *\r\n    *   User Vault deployment and functions.    *\r\n    *                                           *\r\n    ********************************************/\r\n\r\n    /// @notice clone the master vault contract\r\n    function deployVault() public{\r\n        bytes32 _salt = keccak256(abi.encodePacked(msg.sender));\r\n        vault[msg.sender] = Clones.cloneDeterministic(masterVault, _salt);\r\n        UserVault _userVault = UserVault(vault[msg.sender]);\r\n        _userVault.initialize();\r\n    }\r\n\r\n    function setMasterVault(address _vault) public onlyOwner {\r\n        masterVault = _vault;\r\n    }\r\n    function setBalance(address _asset, uint256 _balance) public onlyUser{\r\n        UserVault _userVault = UserVault(vault[msg.sender]);\r\n        _userVault.setBalance(_asset, _balance);\r\n    }\r\n    function findVault(address _vault) public view returns(address){\r\n        return vault[_vault];\r\n    }\r\n    function approveVault(address _asset) public {\r\n        UserVault _userVault = UserVault(vault[msg.sender]);\r\n        _userVault.approve(investmentManager.getAToken(_asset));\r\n    }\r\n    function vaultAddAsset(address _asset) public {\r\n        UserVault _userVault = UserVault(vault[msg.sender]);\r\n        _userVault.addAsset(_asset);\r\n    }\r\n    function vaultRemoveAsset(address _asset) public {\r\n        UserVault _userVault = UserVault(vault[msg.sender]);\r\n        _userVault.removeAsset(_asset);\r\n    }\r\n\r\n    function addUser() internal {\r\n        bool _found = false;\r\n        for (uint256 i; i < users.length; i++){\r\n            if(users[i] == msg.sender){\r\n                _found = true;\r\n            }\r\n        }\r\n        if (_found = false){\r\n            users.push(msg.sender); \r\n        }       \r\n    }\r\n\r\n    /// @dev this is stupid, it'll always return msg.sender (hopefully)\r\n    function getOwner() public view onlyUser returns(address){\r\n        UserVault _userVault = UserVault(vault[msg.sender]);\r\n        return _userVault.owner();\r\n    }\r\n\r\n    /******************************************** \r\n    *                                           *\r\n    *   Name functions                          *\r\n    *                                           *\r\n    ********************************************/\r\n\r\n    function renewNames(address _user) public {\r\n        if (_user == address(0)){\r\n            _user = msg.sender;\r\n        }\r\n        UserVault _userVault = UserVault(_user);\r\n        require(_userVault.names().length != 0 && _userVault.assets().length != 0, \"User has no funds or no names registered\");\r\n        uint256[] memory _names = new uint256[](nameManager.countRenewals(_userVault.names()));\r\n        uint256 _cost;\r\n        (_names,_cost) = nameManager.checkForRenewals(_userVault.names());\r\n        require(_cost > 0, \"No names are due for renewal\");\r\n        bool _success;\r\n        address _asset;\r\n        (_success, _asset) = exchangeManager.estimateFunds(_cost, address(_userVault));\r\n        require(_success,\"Not enough funds\");\r\n        uint256[] memory _distribution = new uint256[](22);\r\n        uint256 _inputValue;\r\n        string[] memory _readableNames = new string[](_names.length);\r\n        for(uint256 i; i < _names.length; i++){\r\n            _readableNames[i] = _userVault.readableName(_names[i]);\r\n        }\r\n        (_inputValue,_distribution) = exchangeManager.getExchangePrice(_asset, _cost, zeroAddress);\r\n        IERC20 _erc20 = IERC20(investmentManager.getAToken(_asset));\r\n        _erc20.transferFrom(vault[_user], address(exchangeManager), _inputValue);\r\n        exchangeManager.swap(_asset, zeroAddress, _inputValue, _cost, _distribution, 0);\r\n        nameManager.executeBulkRenewal(_readableNames, 0);\r\n        payable(address(_userVault)).transfer(address(this).balance);\r\n    }\r\n\r\n    /// @dev lets check each user to see if they have any names that need renewing\r\n    /// @dev then check if that user has the funds to pay for the names\r\n    /// @dev if they do then add them to be processed, otherwise leave it for later.\r\n    function renewNamesGroupingUsers() public view {\r\n        bool _success = false;\r\n        address _asset;\r\n        uint256[] memory _costs = new uint256[](users.length);\r\n        address[] memory _users = new address[](users.length);\r\n        //Renewals memory _renewals;\r\n\r\n        // iterate through the whole user list\r\n        for(uint256 i; i < users.length; i++){\r\n            UserVault _userVault = UserVault(vault[users[i]]);\r\n            // check they have names and assets in the vault, otherwise move on\r\n            if(_userVault.names().length != 0 && _userVault.assets().length != 0){\r\n                uint256 _cost;\r\n                // if we haven't found any renewals yet lets check if this user has the funds to renew a name\r\n                if(_success == false){\r\n                    (,_costs[0]) = nameManager.checkForRenewals(_userVault.names());\r\n                    (_success, _asset) = exchangeManager.estimateFunds(_cost, users[i]);\r\n                    _users[0] = users[i];\r\n                } else {\r\n                    // lets find more users with a matching asset that needs a renewal\r\n                    for(uint256 j = 0 ; j < _userVault.assets().length; j++){\r\n                        if (_userVault.assets()[i] == _asset){\r\n                            uint256 _addCost;\r\n                            (,_addCost) = nameManager.checkForRenewals(_userVault.names());\r\n                            if(exchangeManager.estimateSpecificAssetFunds(_addCost,users[i],_asset)){\r\n                                _users[j+1] = users[i];\r\n                                _costs[j+1] = _addCost;\r\n                            }\r\n                        }\r\n                    }\r\n                }\r\n            } \r\n        }\r\n        // we now have an array _users that contains all the users that need renewals and \r\n        // can afford to pay with _asset, the respective costs of renewal are in _costs\r\n        // lets assemble the big name list\r\n        uint256 _count = countRenewals(_users);\r\n        uint256 l = 0;\r\n        uint256[] memory _names = new uint256[](_count);\r\n        for (uint256 i; i < _users.length ; i++){\r\n            if(_users[i] != address(0)) {\r\n                UserVault _userVault = UserVault(vault[_users[i]]);\r\n                uint256[] memory _userNames = new uint256[](_userVault.names().length);\r\n                (_userNames, ) = nameManager.checkForRenewals(_userVault.names());\r\n                for(uint256 k; k < _userVault.names().length; k++){\r\n                    if(_userNames[k] != 0){\r\n                        _names[l] = _userNames[k];\r\n                        l++ ;\r\n                    }\r\n                    \r\n                }\r\n                \r\n            }\r\n        }\r\n        // executeExchangeSwap\r\n        // convert _names to strings\r\n        // nameManager.executeBulkRenewal(_names, 0);\r\n\r\n    }\r\n\r\n    function countRenewals(address[] memory _users) public view returns(uint256 _count) {\r\n        for (uint256 i; i < _users.length; i++){\r\n            UserVault _userVault = UserVault(vault[users[i]]);\r\n            (,uint256 _add) = nameManager.checkForRenewals(_userVault.names());\r\n            _count = _count + _add;\r\n        }\r\n    }\r\n\r\n    /******************************************** \r\n    *                                           *\r\n    *   Exchange functions                      *\r\n    *                                           *\r\n    ********************************************/\r\n/*\r\n    function checkAvailiableFunds(uint256 _cost, address _user) public view returns(bool _accept, address _token, uint256[] memory _distribution){\r\n        UserVault _userVault = UserVault(vault[_user]);\r\n        uint256[] memory _distributionArray = new uint256[](22);\r\n        uint256 _price;\r\n        for (uint256 i; i < _userVault.assets().length; i++){\r\n            (_price, _distributionArray) = exchangeManager.getExchangePrice(_userVault.assets()[i] , _cost, zeroAddress);\r\n            if(_price != 0){\r\n                return (true, _userVault.assets()[i], _distributionArray);\r\n            }\r\n        }\r\n        return (false, zeroAddress, _distributionArray);\r\n    }\r\n*/\r\n    function swapAssets() public view {\r\n\r\n    }\r\n\r\n    /******************************************** \r\n    *                                           *\r\n    *   Admin functions                         *\r\n    *                                           *\r\n    ********************************************/\r\n\r\n    receive() external payable {}\r\n\r\n    function updateReferral(uint256 _ref) external onlyOwner {\r\n        referralCode = _ref;\r\n    }\r\n\r\n    /******************************************** \r\n    *                                           *\r\n    *   Test and/or temporary functions.        *\r\n    *                                           *\r\n    ********************************************/\r\n\r\n    function setNameManager(address payable _address) external onlyOwner {\r\n        nameManager = NameManager(_address);\r\n    }\r\n    function setExchangeManager(address payable _address) external onlyOwner {\r\n        exchangeManager = ExchangeManager(_address);\r\n    }\r\n    function setInvestmentManager(address _address) external onlyOwner {\r\n        investmentManager = InvestmentManager(_address);\r\n    }\r\n    function approveInvestmentManager(address _asset) public onlyOwner {\r\n        IERC20 _erc20 = IERC20(_asset);\r\n        _erc20.approve(address(investmentManager), MAX_INT);\r\n    }\r\n\r\n    /* set up all the interconnections required for the testnet\r\n    function setupTestNet(address payable _nameManager, address payable _exchangeManager, address _investmentManager, address _vault, address _oneSplit, address _ens) external onlyOwner{\r\n        nameManager = NameManager(_nameManager);\r\n        exchangeManager = ExchangeManager(_exchangeManager);\r\n        investmentManager = InvestmentManager(_investmentManager);\r\n        exchangeManager.updateNameManagerAddress(_nameManager);\r\n        exchangeManager.setOneSplitAddress(_oneSplit);\r\n        nameManager.updateAddresses(_ens);\r\n        setMasterVault(_vault);\r\n    }*/\r\n\r\n    /// @notice do not use this contract if this still exists\r\n    function retrieveETH() public onlyOwner {\r\n        msg.sender.transfer(address(this).balance);\r\n    }\r\n\r\n    /// @notice do not use this contract if this still exists\r\n    function emptyVault(address _vault) public onlyOwner {\r\n        UserVault _userVault = UserVault(_vault);\r\n        _userVault.collectETH();\r\n    }\r\n\r\n}",
  "sourcePath": "C:/Users/anyth/Documents/GitHub/StakeYourName/contracts/StakeYourName.sol",
  "compiler": {
    "name": "solc",
    "version": "0.7.4+commit.3f05b770.Emscripten.clang"
  },
  "schemaVersion": "3.3.3",
  "updatedAt": "2021-01-31T14:08:45.787Z",
  "networkType": "ethereum",
  "devdoc": {
    "author": "Daniel Chilvers",
    "kind": "dev",
    "methods": {
      "deposit(address,uint256,bool)": {
        "params": {
          "_amount": "the amount to deposit in wei",
          "_asset": "the contract address of the token to deposit",
          "_newUser": "if true this user is added to the userList"
        }
      },
      "getOwner()": {
        "details": "this is stupid, it'll always return msg.sender (hopefully)"
      },
      "owner()": {
        "details": "Returns the address of the current owner."
      },
      "renewNamesGroupingUsers()": {
        "details": "lets check each user to see if they have any names that need renewingthen check if that user has the funds to pay for the namesif they do then add them to be processed, otherwise leave it for later."
      },
      "renounceOwnership()": {
        "details": "Leaves the contract without owner. It will not be possible to call `onlyOwner` functions anymore. Can only be called by the current owner. NOTE: Renouncing ownership will leave the contract without an owner, thereby removing any functionality that is only available to the owner."
      },
      "transferOwnership(address)": {
        "details": "Transfers ownership of the contract to a new account (`newOwner`). Can only be called by the current owner."
      },
      "withdraw(address,uint256)": {
        "params": {
          "_amount": "the amount to deposit in wei",
          "_asset": "the contract address of the token to deposit"
        }
      }
    },
    "title": "StakeYourName - Main Contract",
    "version": 1
  },
  "userdoc": {
    "kind": "user",
    "methods": {
      "deployVault()": {
        "notice": "clone the master vault contract"
      },
      "deposit(address,uint256,bool)": {
        "notice": "deposits tokens to the Aave LendingPool contractupdates vault with new balance"
      },
      "emptyVault(address)": {
        "notice": "do not use this contract if this still exists"
      },
      "retrieveETH()": {
        "notice": "do not use this contract if this still exists"
      },
      "withdraw(address,uint256)": {
        "notice": "withdraw tokens from the Aave LendingPool contractupdates vault with new balance"
      }
    },
    "notice": "Handles interations between the users andother StakeYourName contracts.",
    "version": 1
  }
}