{
  "contractName": "StakeYourName",
  "abi": [
    {
      "inputs": [],
      "stateMutability": "nonpayable",
      "type": "constructor"
    },
    {
      "anonymous": false,
      "inputs": [
        {
          "indexed": true,
          "internalType": "address",
          "name": "previousOwner",
          "type": "address"
        },
        {
          "indexed": true,
          "internalType": "address",
          "name": "newOwner",
          "type": "address"
        }
      ],
      "name": "OwnershipTransferred",
      "type": "event"
    },
    {
      "inputs": [],
      "name": "cloneAddress",
      "outputs": [
        {
          "internalType": "address",
          "name": "",
          "type": "address"
        }
      ],
      "stateMutability": "view",
      "type": "function",
      "constant": true
    },
    {
      "inputs": [],
      "name": "owner",
      "outputs": [
        {
          "internalType": "address",
          "name": "",
          "type": "address"
        }
      ],
      "stateMutability": "view",
      "type": "function",
      "constant": true
    },
    {
      "inputs": [],
      "name": "renounceOwnership",
      "outputs": [],
      "stateMutability": "nonpayable",
      "type": "function"
    },
    {
      "inputs": [
        {
          "internalType": "address",
          "name": "newOwner",
          "type": "address"
        }
      ],
      "name": "transferOwnership",
      "outputs": [],
      "stateMutability": "nonpayable",
      "type": "function"
    },
    {
      "inputs": [
        {
          "internalType": "address",
          "name": "_master",
          "type": "address"
        }
      ],
      "name": "deployBasicClone",
      "outputs": [],
      "stateMutability": "nonpayable",
      "type": "function"
    },
    {
      "inputs": [
        {
          "internalType": "address",
          "name": "_master",
          "type": "address"
        }
      ],
      "name": "deployClone",
      "outputs": [],
      "stateMutability": "nonpayable",
      "type": "function"
    },
    {
      "inputs": [
        {
          "internalType": "uint256",
          "name": "_value",
          "type": "uint256"
        }
      ],
      "name": "makeCloneDoSomething",
      "outputs": [],
      "stateMutability": "nonpayable",
      "type": "function"
    },
    {
      "inputs": [],
      "name": "getResult",
      "outputs": [
        {
          "internalType": "uint256",
          "name": "",
          "type": "uint256"
        }
      ],
      "stateMutability": "view",
      "type": "function",
      "constant": true
    },
    {
      "inputs": [
        {
          "internalType": "address",
          "name": "_address",
          "type": "address"
        }
      ],
      "name": "setNameManager",
      "outputs": [],
      "stateMutability": "nonpayable",
      "type": "function"
    },
    {
      "inputs": [
        {
          "internalType": "address",
          "name": "_address",
          "type": "address"
        }
      ],
      "name": "setExchangeManager",
      "outputs": [],
      "stateMutability": "nonpayable",
      "type": "function"
    },
    {
      "inputs": [
        {
          "internalType": "address",
          "name": "_address",
          "type": "address"
        }
      ],
      "name": "setInvestmentManager",
      "outputs": [],
      "stateMutability": "nonpayable",
      "type": "function"
    }
  ],
  "bytecode": "0x608060405234801561001057600080fd5b5060006100216100c460201b60201c565b9050806000806101000a81548173ffffffffffffffffffffffffffffffffffffffff021916908373ffffffffffffffffffffffffffffffffffffffff1602179055508073ffffffffffffffffffffffffffffffffffffffff16600073ffffffffffffffffffffffffffffffffffffffff167f8be0079c531659141344cd1fd0a4f28419497f9722a3daafe3b4186f6b6457e060405160405180910390a3506100cc565b600033905090565b61103f806100db6000396000f3fe608060405234801561001057600080fd5b50600436106100a95760003560e01c8063c342c7f011610071578063c342c7f01461012c578063c423274214610148578063ce1ee2c214610164578063de29278914610180578063f2fde38b1461019e578063fe8d6396146101ba576100a9565b80636de5de0f146100ae578063715018a6146100ca57806371c52f02146100d45780638da5cb5b146100f25780638e73f87414610110575b600080fd5b6100c860048036038101906100c39190610e35565b6101d6565b005b6100d26102e2565b005b6100dc610468565b6040516100e99190610f00565b60405180910390f35b6100fa61048e565b6040516101079190610f00565b60405180910390f35b61012a60048036038101906101259190610e35565b6104b7565b005b61014660048036038101906101419190610e35565b6105c3565b005b610162600480360381019061015d9190610e5e565b61060f565b005b61017e60048036038101906101799190610e35565b6106c0565b005b6101886107cc565b6040516101959190610f1b565b60405180910390f35b6101b860048036038101906101b39190610e35565b610873565b005b6101d460048036038101906101cf9190610e35565b610a7e565b005b6101de610bdc565b73ffffffffffffffffffffffffffffffffffffffff1660008054906101000a900473ffffffffffffffffffffffffffffffffffffffff1673ffffffffffffffffffffffffffffffffffffffff161461029e576040517f08c379a00000000000000000000000000000000000000000000000000000000081526004018080602001828103825260208152602001807f4f776e61626c653a2063616c6c6572206973206e6f7420746865206f776e657281525060200191505060405180910390fd5b80600360006101000a81548173ffffffffffffffffffffffffffffffffffffffff021916908373ffffffffffffffffffffffffffffffffffffffff16021790555050565b6102ea610bdc565b73ffffffffffffffffffffffffffffffffffffffff1660008054906101000a900473ffffffffffffffffffffffffffffffffffffffff1673ffffffffffffffffffffffffffffffffffffffff16146103aa576040517f08c379a00000000000000000000000000000000000000000000000000000000081526004018080602001828103825260208152602001807f4f776e61626c653a2063616c6c6572206973206e6f7420746865206f776e657281525060200191505060405180910390fd5b600073ffffffffffffffffffffffffffffffffffffffff1660008054906101000a900473ffffffffffffffffffffffffffffffffffffffff1673ffffffffffffffffffffffffffffffffffffffff167f8be0079c531659141344cd1fd0a4f28419497f9722a3daafe3b4186f6b6457e060405160405180910390a360008060006101000a81548173ffffffffffffffffffffffffffffffffffffffff021916908373ffffffffffffffffffffffffffffffffffffffff160217905550565b600560009054906101000a900473ffffffffffffffffffffffffffffffffffffffff1681565b60008060009054906101000a900473ffffffffffffffffffffffffffffffffffffffff16905090565b6104bf610bdc565b73ffffffffffffffffffffffffffffffffffffffff1660008054906101000a900473ffffffffffffffffffffffffffffffffffffffff1673ffffffffffffffffffffffffffffffffffffffff161461057f576040517f08c379a00000000000000000000000000000000000000000000000000000000081526004018080602001828103825260208152602001807f4f776e61626c653a2063616c6c6572206973206e6f7420746865206f776e657281525060200191505060405180910390fd5b80600260006101000a81548173ffffffffffffffffffffffffffffffffffffffff021916908373ffffffffffffffffffffffffffffffffffffffff16021790555050565b6105cc81610be4565b600560006101000a81548173ffffffffffffffffffffffffffffffffffffffff021916908373ffffffffffffffffffffffffffffffffffffffff16021790555050565b600460009054906101000a900473ffffffffffffffffffffffffffffffffffffffff1673ffffffffffffffffffffffffffffffffffffffff1663a6b206bf826040518263ffffffff1660e01b815260040161066a9190610f1b565b602060405180830381600087803b15801561068457600080fd5b505af1158015610698573d6000803e3d6000fd5b505050506040513d601f19601f820116820180604052508101906106bc9190610e87565b5050565b6106c8610bdc565b73ffffffffffffffffffffffffffffffffffffffff1660008054906101000a900473ffffffffffffffffffffffffffffffffffffffff1673ffffffffffffffffffffffffffffffffffffffff1614610788576040517f08c379a00000000000000000000000000000000000000000000000000000000081526004018080602001828103825260208152602001807f4f776e61626c653a2063616c6c6572206973206e6f7420746865206f776e657281525060200191505060405180910390fd5b80600160006101000a81548173ffffffffffffffffffffffffffffffffffffffff021916908373ffffffffffffffffffffffffffffffffffffffff16021790555050565b6000600460009054906101000a900473ffffffffffffffffffffffffffffffffffffffff1673ffffffffffffffffffffffffffffffffffffffff1663653721476040518163ffffffff1660e01b815260040160206040518083038186803b15801561083657600080fd5b505afa15801561084a573d6000803e3d6000fd5b505050506040513d601f19601f8201168201806040525081019061086e9190610e87565b905090565b61087b610bdc565b73ffffffffffffffffffffffffffffffffffffffff1660008054906101000a900473ffffffffffffffffffffffffffffffffffffffff1673ffffffffffffffffffffffffffffffffffffffff161461093b576040517f08c379a00000000000000000000000000000000000000000000000000000000081526004018080602001828103825260208152602001807f4f776e61626c653a2063616c6c6572206973206e6f7420746865206f776e657281525060200191505060405180910390fd5b600073ffffffffffffffffffffffffffffffffffffffff168173ffffffffffffffffffffffffffffffffffffffff1614156109c1576040517f08c379a0000000000000000000000000000000000000000000000000000000008152600401808060200182810382526026815260200180610fe46026913960400191505060405180910390fd5b8073ffffffffffffffffffffffffffffffffffffffff1660008054906101000a900473ffffffffffffffffffffffffffffffffffffffff1673ffffffffffffffffffffffffffffffffffffffff167f8be0079c531659141344cd1fd0a4f28419497f9722a3daafe3b4186f6b6457e060405160405180910390a3806000806101000a81548173ffffffffffffffffffffffffffffffffffffffff021916908373ffffffffffffffffffffffffffffffffffffffff16021790555050565b600033604051602001610a919190610ee5565b604051602081830303815290604052805190602001209050610ab38282610cec565b600560006101000a81548173ffffffffffffffffffffffffffffffffffffffff021916908373ffffffffffffffffffffffffffffffffffffffff160217905550600560009054906101000a900473ffffffffffffffffffffffffffffffffffffffff16600460006101000a81548173ffffffffffffffffffffffffffffffffffffffff021916908373ffffffffffffffffffffffffffffffffffffffff160217905550600460009054906101000a900473ffffffffffffffffffffffffffffffffffffffff1673ffffffffffffffffffffffffffffffffffffffff16638129fc1c6040518163ffffffff1660e01b8152600401600060405180830381600087803b158015610bc057600080fd5b505af1158015610bd4573d6000803e3d6000fd5b505050505050565b600033905090565b60006040517f3d602d80600a3d3981f3363d3d373d3d3d363d7300000000000000000000000081528260601b60148201527f5af43d82803e903d91602b57fd5bf3000000000000000000000000000000000060288201526037816000f0915050600073ffffffffffffffffffffffffffffffffffffffff168173ffffffffffffffffffffffffffffffffffffffff161415610ce7576040517f08c379a00000000000000000000000000000000000000000000000000000000081526004018080602001828103825260168152602001807f455243313136373a20637265617465206661696c65640000000000000000000081525060200191505060405180910390fd5b919050565b60006040517f3d602d80600a3d3981f3363d3d373d3d3d363d7300000000000000000000000081528360601b60148201527f5af43d82803e903d91602b57fd5bf300000000000000000000000000000000006028820152826037826000f5915050600073ffffffffffffffffffffffffffffffffffffffff168173ffffffffffffffffffffffffffffffffffffffff161415610df0576040517f08c379a00000000000000000000000000000000000000000000000000000000081526004018080602001828103825260178152602001807f455243313136373a2063726561746532206661696c656400000000000000000081525060200191505060405180910390fd5b92915050565b600081359050610e0581610fb5565b92915050565b600081359050610e1a81610fcc565b92915050565b600081519050610e2f81610fcc565b92915050565b600060208284031215610e4757600080fd5b6000610e5584828501610df6565b91505092915050565b600060208284031215610e7057600080fd5b6000610e7e84828501610e0b565b91505092915050565b600060208284031215610e9957600080fd5b6000610ea784828501610e20565b91505092915050565b610ec1610ebc82610f48565b610f84565b82525050565b610ed081610f36565b82525050565b610edf81610f7a565b82525050565b6000610ef18284610eb0565b60148201915081905092915050565b6000602082019050610f156000830184610ec7565b92915050565b6000602082019050610f306000830184610ed6565b92915050565b6000610f4182610f5a565b9050919050565b6000610f5382610f5a565b9050919050565b600073ffffffffffffffffffffffffffffffffffffffff82169050919050565b6000819050919050565b6000610f8f82610f96565b9050919050565b6000610fa182610fa8565b9050919050565b60008160601b9050919050565b610fbe81610f36565b8114610fc957600080fd5b50565b610fd581610f7a565b8114610fe057600080fd5b5056fe4f776e61626c653a206e6577206f776e657220697320746865207a65726f2061646472657373a2646970667358221220e6f25c4abf0c54a9b403f050ccd1a4b636dfe076fbe0d6659db7619e0116adda64736f6c63430007040033",
  "immutableReferences": {},
  "source": "// SPDX-License-Identifier: MIT\r\npragma solidity ^0.7.4;\r\npragma experimental ABIEncoderV2;\r\n\r\nimport \"@openzeppelin/contracts/math/SafeMath.sol\";\r\nimport \"@openzeppelin/contracts/access/Ownable.sol\";\r\nimport {Clones} from \"@openzeppelin/contracts/proxy/Clones.sol\";\r\nimport \"interfaces/INameManager.sol\";\r\nimport \"interfaces/IInvestmentManager.sol\";\r\nimport \"interfaces/IExchangeManager.sol\";\r\nimport \"interfaces/IUserVault.sol\";\r\nimport \"interfaces/ENS_BulkRenewal.sol\";\r\nimport \"interfaces/ENS_Resolver.sol\";\r\n\r\n/// @title StakeYourName - Main Contract\r\n/// @notice Handles interations between the users and\r\n/// @notice other StakeYourName contracts.\r\n/// @author Daniel Chilvers\r\n\r\ncontract StakeYourName is Ownable {\r\n\r\n    NameManager nameManager;\r\n    ExchangeManager exchangeManager;\r\n    InvestmentManager investmentManager;\r\n    UserVault userVault; \r\n\r\n    \r\n    constructor() {\r\n        /// @dev TO:DO set deployment addresses of the managers in here.\r\n\r\n    }\r\n\r\n    address public cloneAddress;\r\n\r\n    function deployBasicClone(address _master) public{\r\n        cloneAddress = Clones.clone(_master);\r\n    }\r\n\r\n    function deployClone(address _master) public{\r\n        bytes32 _salt = keccak256(abi.encodePacked(msg.sender));\r\n        cloneAddress = Clones.cloneDeterministic(_master, _salt);\r\n        userVault = UserVault(cloneAddress);\r\n        userVault.initialize();\r\n    }\r\n\r\n    function makeCloneDoSomething(uint256 _value) public {\r\n        userVault.doSomething(_value);\r\n    }\r\n\r\n    function getResult() public view returns(uint256){\r\n        return userVault.result();\r\n    }\r\n\r\n    /*\r\n    *\r\n    *   Test/Temporary functions\r\n    *\r\n    */\r\n\r\n    function setNameManager(address _address) public onlyOwner {\r\n        nameManager = NameManager(_address);\r\n    }\r\n    function setExchangeManager(address _address) public onlyOwner {\r\n        exchangeManager = ExchangeManager(_address);\r\n    }\r\n    function setInvestmentManager(address _address) public onlyOwner {\r\n        investmentManager = InvestmentManager(_address);\r\n    }\r\n\r\n}",
  "sourcePath": "C:/Users/anyth/Documents/GitHub/StakeYourName/contracts/StakeYourName.sol",
  "compiler": {
    "name": "solc",
    "version": "0.7.4+commit.3f05b770.Emscripten.clang"
  },
  "schemaVersion": "3.3.3",
  "updatedAt": "2021-01-26T12:38:58.961Z",
  "networkType": "ethereum",
  "devdoc": {
    "author": "Daniel Chilvers",
    "kind": "dev",
    "methods": {
      "owner()": {
        "details": "Returns the address of the current owner."
      },
      "renounceOwnership()": {
        "details": "Leaves the contract without owner. It will not be possible to call `onlyOwner` functions anymore. Can only be called by the current owner. NOTE: Renouncing ownership will leave the contract without an owner, thereby removing any functionality that is only available to the owner."
      },
      "transferOwnership(address)": {
        "details": "Transfers ownership of the contract to a new account (`newOwner`). Can only be called by the current owner."
      }
    },
    "title": "StakeYourName - Main Contract",
    "version": 1
  },
  "userdoc": {
    "kind": "user",
    "methods": {},
    "notice": "Handles interations between the users andother StakeYourName contracts.",
    "version": 1
  }
}