{
  "contractName": "StakeYourName",
  "abi": [
    {
      "inputs": [],
      "stateMutability": "nonpayable",
      "type": "constructor"
    },
    {
      "anonymous": false,
      "inputs": [
        {
          "indexed": true,
          "internalType": "address",
          "name": "previousOwner",
          "type": "address"
        },
        {
          "indexed": true,
          "internalType": "address",
          "name": "newOwner",
          "type": "address"
        }
      ],
      "name": "OwnershipTransferred",
      "type": "event"
    },
    {
      "inputs": [],
      "name": "owner",
      "outputs": [
        {
          "internalType": "address",
          "name": "",
          "type": "address"
        }
      ],
      "stateMutability": "view",
      "type": "function"
    },
    {
      "inputs": [],
      "name": "referralCode",
      "outputs": [
        {
          "internalType": "uint256",
          "name": "",
          "type": "uint256"
        }
      ],
      "stateMutability": "view",
      "type": "function"
    },
    {
      "inputs": [],
      "name": "renounceOwnership",
      "outputs": [],
      "stateMutability": "nonpayable",
      "type": "function"
    },
    {
      "inputs": [
        {
          "internalType": "address",
          "name": "newOwner",
          "type": "address"
        }
      ],
      "name": "transferOwnership",
      "outputs": [],
      "stateMutability": "nonpayable",
      "type": "function"
    },
    {
      "stateMutability": "payable",
      "type": "receive"
    },
    {
      "inputs": [
        {
          "internalType": "string[]",
          "name": "_name",
          "type": "string[]"
        }
      ],
      "name": "addName",
      "outputs": [],
      "stateMutability": "nonpayable",
      "type": "function"
    },
    {
      "inputs": [
        {
          "internalType": "string[][]",
          "name": "_names",
          "type": "string[][]"
        }
      ],
      "name": "addMultipleNames",
      "outputs": [],
      "stateMutability": "nonpayable",
      "type": "function"
    },
    {
      "inputs": [
        {
          "internalType": "uint256",
          "name": "_name",
          "type": "uint256"
        }
      ],
      "name": "removeName",
      "outputs": [],
      "stateMutability": "nonpayable",
      "type": "function"
    },
    {
      "inputs": [
        {
          "internalType": "uint256[]",
          "name": "_names",
          "type": "uint256[]"
        }
      ],
      "name": "removeMultipleNames",
      "outputs": [],
      "stateMutability": "nonpayable",
      "type": "function"
    },
    {
      "inputs": [
        {
          "internalType": "address",
          "name": "_asset",
          "type": "address"
        },
        {
          "internalType": "uint256",
          "name": "_amount",
          "type": "uint256"
        }
      ],
      "name": "deposit",
      "outputs": [],
      "stateMutability": "nonpayable",
      "type": "function"
    },
    {
      "inputs": [
        {
          "internalType": "address",
          "name": "_asset",
          "type": "address"
        },
        {
          "internalType": "uint256",
          "name": "_amount",
          "type": "uint256"
        }
      ],
      "name": "withdraw",
      "outputs": [],
      "stateMutability": "nonpayable",
      "type": "function"
    },
    {
      "inputs": [],
      "name": "deployVault",
      "outputs": [],
      "stateMutability": "nonpayable",
      "type": "function"
    },
    {
      "inputs": [
        {
          "internalType": "address",
          "name": "_vault",
          "type": "address"
        }
      ],
      "name": "setMasterVault",
      "outputs": [],
      "stateMutability": "nonpayable",
      "type": "function"
    },
    {
      "inputs": [
        {
          "internalType": "address",
          "name": "_asset",
          "type": "address"
        },
        {
          "internalType": "uint256",
          "name": "_balance",
          "type": "uint256"
        }
      ],
      "name": "setBalance",
      "outputs": [],
      "stateMutability": "nonpayable",
      "type": "function"
    },
    {
      "inputs": [
        {
          "internalType": "address",
          "name": "_vault",
          "type": "address"
        }
      ],
      "name": "findVault",
      "outputs": [
        {
          "internalType": "address",
          "name": "",
          "type": "address"
        }
      ],
      "stateMutability": "view",
      "type": "function"
    },
    {
      "inputs": [
        {
          "internalType": "address",
          "name": "_asset",
          "type": "address"
        }
      ],
      "name": "approveVault",
      "outputs": [],
      "stateMutability": "nonpayable",
      "type": "function"
    },
    {
      "inputs": [
        {
          "internalType": "address",
          "name": "_asset",
          "type": "address"
        }
      ],
      "name": "vaultAddAsset",
      "outputs": [],
      "stateMutability": "nonpayable",
      "type": "function"
    },
    {
      "inputs": [
        {
          "internalType": "address",
          "name": "_asset",
          "type": "address"
        }
      ],
      "name": "vaultRemoveAsset",
      "outputs": [],
      "stateMutability": "nonpayable",
      "type": "function"
    },
    {
      "inputs": [],
      "name": "getOwner",
      "outputs": [
        {
          "internalType": "address",
          "name": "",
          "type": "address"
        }
      ],
      "stateMutability": "view",
      "type": "function"
    },
    {
      "inputs": [
        {
          "internalType": "address",
          "name": "_user",
          "type": "address"
        }
      ],
      "name": "renewNames",
      "outputs": [],
      "stateMutability": "nonpayable",
      "type": "function"
    },
    {
      "inputs": [],
      "name": "renewNamesGroupingUsers",
      "outputs": [],
      "stateMutability": "view",
      "type": "function"
    },
    {
      "inputs": [
        {
          "internalType": "address[]",
          "name": "_users",
          "type": "address[]"
        }
      ],
      "name": "countRenewals",
      "outputs": [
        {
          "internalType": "uint256",
          "name": "_count",
          "type": "uint256"
        }
      ],
      "stateMutability": "view",
      "type": "function"
    },
    {
      "inputs": [],
      "name": "swapAssets",
      "outputs": [],
      "stateMutability": "view",
      "type": "function"
    },
    {
      "inputs": [
        {
          "internalType": "uint256",
          "name": "_ref",
          "type": "uint256"
        }
      ],
      "name": "updateReferral",
      "outputs": [],
      "stateMutability": "nonpayable",
      "type": "function"
    },
    {
      "inputs": [
        {
          "internalType": "address payable",
          "name": "_address",
          "type": "address"
        }
      ],
      "name": "setNameManager",
      "outputs": [],
      "stateMutability": "nonpayable",
      "type": "function"
    },
    {
      "inputs": [
        {
          "internalType": "address payable",
          "name": "_address",
          "type": "address"
        }
      ],
      "name": "setExchangeManager",
      "outputs": [],
      "stateMutability": "nonpayable",
      "type": "function"
    },
    {
      "inputs": [
        {
          "internalType": "address",
          "name": "_address",
          "type": "address"
        }
      ],
      "name": "setInvestmentManager",
      "outputs": [],
      "stateMutability": "nonpayable",
      "type": "function"
    },
    {
      "inputs": [
        {
          "internalType": "address",
          "name": "_asset",
          "type": "address"
        }
      ],
      "name": "approveInvestmentManager",
      "outputs": [],
      "stateMutability": "nonpayable",
      "type": "function"
    },
    {
      "inputs": [
        {
          "internalType": "address payable",
          "name": "_nameManager",
          "type": "address"
        },
        {
          "internalType": "address payable",
          "name": "_exchangeManager",
          "type": "address"
        },
        {
          "internalType": "address",
          "name": "_investmentManager",
          "type": "address"
        },
        {
          "internalType": "address",
          "name": "_vault",
          "type": "address"
        },
        {
          "internalType": "address",
          "name": "_oneSplit",
          "type": "address"
        },
        {
          "internalType": "address",
          "name": "_ens",
          "type": "address"
        }
      ],
      "name": "setupTestNet",
      "outputs": [],
      "stateMutability": "nonpayable",
      "type": "function"
    },
    {
      "inputs": [],
      "name": "retrieveETH",
      "outputs": [],
      "stateMutability": "nonpayable",
      "type": "function"
    },
    {
      "inputs": [
        {
          "internalType": "address",
          "name": "_vault",
          "type": "address"
        }
      ],
      "name": "emptyVault",
      "outputs": [],
      "stateMutability": "nonpayable",
      "type": "function"
    }
  ],
  "bytecode": "0x608060405260006007553480156200001657600080fd5b5060006200002362000073565b600080546001600160a01b0319166001600160a01b0383169081178255604051929350917f8be0079c531659141344cd1fd0a4f28419497f9722a3daafe3b4186f6b6457e0908290a35062000077565b3390565b613d7880620000876000396000f3fe6080604052600436106101d15760003560e01c8063893d20e8116100f7578063d5b014c311610095578063e0cc0d6811610064578063e0cc0d68146104ea578063e30443bc1461050a578063f2fde38b1461052a578063f3fef3a31461054a576101d8565b8063d5b014c314610480578063d8b6d25214610495578063dded07c7146104aa578063ddeeb291146104ca576101d8565b80638e73f874116100d15780638e73f8741461040b578063901c4e4f1461042b578063cb11935514610440578063ce1ee2c214610460576101d8565b8063893d20e8146103c15780638b34e8e1146103d65780638da5cb5b146103f6576101d8565b80634e75486a1161016f5780636de5de0f1161013e5780636de5de0f146103575780636df9d37914610377578063715018a61461038c5780637d1c12e8146103a1576101d8565b80634e75486a146102d757806358783880146102f757806366d626eb146103175780636de43cc214610337576101d8565b8063054192d9116101ab578063054192d9146102625780630fa731661461027757806347e7ef241461029757806349c9832a146102b7576101d8565b8063017ad9c8146101dd57806302df7540146101ff57806303bef9ce14610235576101d8565b366101d857005b600080fd5b3480156101e957600080fd5b506101fd6101f83660046134a4565b61056a565b005b34801561020b57600080fd5b5061021f61021a36600461329c565b610773565b60405161022c919061379f565b60405180910390f35b34801561024157600080fd5b50610255610250366004613380565b610794565b60405161022c9190613bd3565b34801561026e57600080fd5b506101fd6108e8565b34801561028357600080fd5b506101fd61029236600461329c565b6113e6565b3480156102a357600080fd5b506101fd6102b2366004613355565b611460565b3480156102c357600080fd5b506101fd6102d236600461329c565b6117a7565b3480156102e357600080fd5b506101fd6102f2366004613652565b61181d565b34801561030357600080fd5b506101fd61031236600461329c565b611892565b34801561032357600080fd5b506101fd610332366004613652565b611977565b34801561034357600080fd5b506101fd6103523660046134a4565b6119d4565b34801561036357600080fd5b506101fd61037236600461329c565b611a4b565b34801561038357600080fd5b506101fd611ac5565b34801561039857600080fd5b506101fd611ac7565b3480156103ad57600080fd5b506101fd6103bc36600461329c565b611b69565b3480156103cd57600080fd5b5061021f611ba9565b3480156103e257600080fd5b506101fd6103f136600461329c565b611c6c565b34801561040257600080fd5b5061021f611d04565b34801561041757600080fd5b506101fd61042636600461329c565b611d13565b34801561043757600080fd5b506101fd611d8d565b34801561044c57600080fd5b506101fd61045b3660046132d4565b611e32565b34801561046c57600080fd5b506101fd61047b36600461329c565b611feb565b34801561048c57600080fd5b506101fd612065565b3480156104a157600080fd5b506102556120ec565b3480156104b657600080fd5b506101fd6104c536600461329c565b6120f2565b3480156104d657600080fd5b506101fd6104e53660046134a4565b612954565b3480156104f657600080fd5b506101fd61050536600461329c565b612a51565b34801561051657600080fd5b506101fd610525366004613355565b612b09565b34801561053657600080fd5b506101fd61054536600461329c565b612bd8565b34801561055657600080fd5b506101fd610565366004613355565b612cd0565b336000908152600660205260409020546001600160a01b03166105a85760405162461bcd60e51b815260040161059f90613ae7565b60405180910390fd5b6000828260008181106105b757fe5b90506020028101906105c99190613c35565b90506001600160401b03811180156105e057600080fd5b5060405190808252806020026020018201604052801561060a578160200160208202803683370190505b50905060005b8383600081811061061d57fe5b905060200281019061062f9190613c35565b90508110156106f6576001546001600160a01b031663b914737d85858481811061065557fe5b90506020028101906106679190613c35565b6040518363ffffffff1660e01b815260040161068492919061387a565b60206040518083038186803b15801561069c57600080fd5b505afa1580156106b0573d6000803e3d6000fd5b505050506040513d601f19601f820116820180604052508101906106d491906135b1565b60001c8282815181106106e357fe5b6020908102919091010152600101610610565b5033600090815260066020526040908190205490516329e6a98160e21b81526001600160a01b0390911690819063a79aa6049061073b9085908890889060040161395a565b600060405180830381600087803b15801561075557600080fd5b505af1158015610769573d6000803e3d6000fd5b5050505050505050565b6001600160a01b03808216600090815260066020526040902054165b919050565b6000805b82518110156108e257600060066000600584815481106107b457fe5b60009182526020808320909101546001600160a01b039081168452908301939093526040918201812054600154835162adb40960e31b815293519185169550919391909116916368a4f5c291859163056da0489160048083019288929190829003018186803b15801561082657600080fd5b505afa15801561083a573d6000803e3d6000fd5b505050506040513d6000823e601f3d908101601f1916820160405261086291908101906134e3565b6040518263ffffffff1660e01b815260040161087e9190613947565b60006040518083038186803b15801561089657600080fd5b505afa1580156108aa573d6000803e3d6000fd5b505050506040513d6000823e601f3d908101601f191682016040526108d2919081019061351d565b9490940193505050600101610798565b50919050565b600080806005805490506001600160401b038111801561090757600080fd5b50604051908082528060200260200182016040528015610931578160200160208202803683370190505b506005549091506000906001600160401b038111801561095057600080fd5b5060405190808252806020026020018201604052801561097a578160200160208202803683370190505b50905060005b600554811015611062576000600660006005848154811061099d57fe5b60009182526020808320909101546001600160a01b039081168452908301939093526040918201812054825162adb40960e31b8152925193169350839263056da048926004808201939291829003018186803b1580156109fc57600080fd5b505afa158015610a10573d6000803e3d6000fd5b505050506040513d6000823e601f3d908101601f19168201604052610a3891908101906134e3565b5115801590610abb5750806001600160a01b03166371a973056040518163ffffffff1660e01b815260040160006040518083038186803b158015610a7b57600080fd5b505afa158015610a8f573d6000803e3d6000fd5b505050506040513d6000823e601f3d908101601f19168201604052610ab79190810190613418565b5115155b1561105957600086610cf057600160009054906101000a90046001600160a01b03166001600160a01b03166368a4f5c2836001600160a01b031663056da0486040518163ffffffff1660e01b815260040160006040518083038186803b158015610b2457600080fd5b505afa158015610b38573d6000803e3d6000fd5b505050506040513d6000823e601f3d908101601f19168201604052610b6091908101906134e3565b6040518263ffffffff1660e01b8152600401610b7c9190613947565b60006040518083038186803b158015610b9457600080fd5b505afa158015610ba8573d6000803e3d6000fd5b505050506040513d6000823e601f3d908101601f19168201604052610bd0919081019061351d565b905085600081518110610bdf57fe5b6020908102919091010152600254600580546001600160a01b0390921691638b1f3f5a91849187908110610c0f57fe5b6000918252602090912001546040516001600160e01b031960e085901b168152610c4692916001600160a01b031690600401613bdc565b604080518083038186803b158015610c5d57600080fd5b505afa158015610c71573d6000803e3d6000fd5b505050506040513d601f19601f82011682018060405250810190610c95919061357b565b809750819850505060058381548110610caa57fe5b600091825260208220015485516001600160a01b03909116918691610ccb57fe5b60200260200101906001600160a01b031690816001600160a01b031681525050611057565b60005b826001600160a01b03166371a973056040518163ffffffff1660e01b815260040160006040518083038186803b158015610d2c57600080fd5b505afa158015610d40573d6000803e3d6000fd5b505050506040513d6000823e601f3d908101601f19168201604052610d689190810190613418565b5181101561105557866001600160a01b0316836001600160a01b03166371a973056040518163ffffffff1660e01b815260040160006040518083038186803b158015610db357600080fd5b505afa158015610dc7573d6000803e3d6000fd5b505050506040513d6000823e601f3d908101601f19168201604052610def9190810190613418565b8581518110610dfa57fe5b60200260200101516001600160a01b0316141561104d576000600160009054906101000a90046001600160a01b03166001600160a01b03166368a4f5c2856001600160a01b031663056da0486040518163ffffffff1660e01b815260040160006040518083038186803b158015610e7057600080fd5b505afa158015610e84573d6000803e3d6000fd5b505050506040513d6000823e601f3d908101601f19168201604052610eac91908101906134e3565b6040518263ffffffff1660e01b8152600401610ec89190613947565b60006040518083038186803b158015610ee057600080fd5b505afa158015610ef4573d6000803e3d6000fd5b505050506040513d6000823e601f3d908101601f19168201604052610f1c919081019061351d565b600254600580549294506001600160a01b03909116925063777647fb9184919089908110610f4657fe5b6000918252602090912001546040516001600160e01b031960e085901b168152610f7f92916001600160a01b0316908d90600401613bf3565b60206040518083038186803b158015610f9757600080fd5b505afa158015610fab573d6000803e3d6000fd5b505050506040513d601f19601f82011682018060405250810190610fcf9190613561565b1561104b5760058581548110610fe157fe5b9060005260206000200160009054906101000a90046001600160a01b031686836001018151811061100e57fe5b60200260200101906001600160a01b031690816001600160a01b0316815250508087836001018151811061103e57fe5b6020026020010181815250505b505b600101610cf3565b505b505b50600101610980565b50600061106e82610794565b9050600080826001600160401b038111801561108957600080fd5b506040519080825280602002602001820160405280156110b3578160200160208202803683370190505b50905060005b84518110156107695760006001600160a01b03168582815181106110d957fe5b60200260200101516001600160a01b0316146113de5760006006600087848151811061110157fe5b60200260200101516001600160a01b03166001600160a01b0316815260200190815260200160002060009054906101000a90046001600160a01b031690506000816001600160a01b031663056da0486040518163ffffffff1660e01b815260040160006040518083038186803b15801561117a57600080fd5b505afa15801561118e573d6000803e3d6000fd5b505050506040513d6000823e601f3d908101601f191682016040526111b691908101906134e3565b516001600160401b03811180156111cc57600080fd5b506040519080825280602002602001820160405280156111f6578160200160208202803683370190505b509050600160009054906101000a90046001600160a01b03166001600160a01b03166368a4f5c2836001600160a01b031663056da0486040518163ffffffff1660e01b815260040160006040518083038186803b15801561125657600080fd5b505afa15801561126a573d6000803e3d6000fd5b505050506040513d6000823e601f3d908101601f1916820160405261129291908101906134e3565b6040518263ffffffff1660e01b81526004016112ae9190613947565b60006040518083038186803b1580156112c657600080fd5b505afa1580156112da573d6000803e3d6000fd5b505050506040513d6000823e601f3d908101601f19168201604052611302919081019061351d565b50905060005b826001600160a01b031663056da0486040518163ffffffff1660e01b815260040160006040518083038186803b15801561134157600080fd5b505afa158015611355573d6000803e3d6000fd5b505050506040513d6000823e601f3d908101601f1916820160405261137d91908101906134e3565b518110156113da5781818151811061139157fe5b60200260200101516000146113d2578181815181106113ac57fe5b60200260200101518587815181106113c057fe5b60209081029190910101526001909501945b600101611308565b5050505b6001016110b9565b6113ee612fa1565b6000546001600160a01b0390811691161461143e576040805162461bcd60e51b81526020600482018190526024820152600080516020613d23833981519152604482015290519081900360640190fd5b600480546001600160a01b0319166001600160a01b0392909216919091179055565b6001600160a01b0382166114865760405162461bcd60e51b815260040161059f90613a2f565b600081116114a65760405162461bcd60e51b815260040161059f90613a79565b604051636eb1769f60e11b8152829082906001600160a01b0383169063dd62ed3e906114d890339030906004016137b3565b60206040518083038186803b1580156114f057600080fd5b505afa158015611504573d6000803e3d6000fd5b505050506040513d601f19601f8201168201806040525081019061152891906135b1565b10156115465760405162461bcd60e51b815260040161059f90613b0f565b336000908152600660205260409020546001600160a01b031661156b5761156b611d8d565b611573612fa5565b61157c83611b69565b61158583612a51565b600354336000908152600660205260409081902054905163ae6418b560e01b81526001600160a01b039283169263ae6418b5926115ca928892909116906004016137b3565b600060405180830381600087803b1580156115e457600080fd5b505af11580156115f8573d6000803e3d6000fd5b5050600354336000908152600660205260409081902054905163d4fac45d60e01b81526116a294508793506105259287926001600160a01b039182169263d4fac45d9261164c9288929116906004016137b3565b60206040518083038186803b15801561166457600080fd5b505afa158015611678573d6000803e3d6000fd5b505050506040513d601f19601f8201168201806040525081019061169c91906135b1565b90612ffc565b6003546040516323b872dd60e01b81526001600160a01b03808416926323b872dd926116d6923392169087906004016137cd565b602060405180830381600087803b1580156116f057600080fd5b505af1158015611704573d6000803e3d6000fd5b505050506040513d601f19601f820116820180604052508101906117289190613561565b506003543360009081526006602052604090819020549051638340f54960e01b81526001600160a01b0392831692638340f549926117709288929091169087906004016137cd565b600060405180830381600087803b15801561178a57600080fd5b505af115801561179e573d6000803e3d6000fd5b50505050505050565b3360009081526006602052604090819020549051634a5e42b160e01b81526001600160a01b03909116908190634a5e42b1906117e790859060040161379f565b600060405180830381600087803b15801561180157600080fd5b505af1158015611815573d6000803e3d6000fd5b505050505050565b336000908152600660205260409020546001600160a01b03166118525760405162461bcd60e51b815260040161059f90613ae7565b336000908152600660205260409081902054905163273aa43560e11b81526001600160a01b03909116908190634e75486a906117e7908590600401613bd3565b61189a612fa1565b6000546001600160a01b039081169116146118ea576040805162461bcd60e51b81526020600482018190526024820152600080516020613d23833981519152604482015290519081900360640190fd5b60035460405163095ea7b360e01b815282916001600160a01b038084169263095ea7b3926119209216906000199060040161383e565b602060405180830381600087803b15801561193a57600080fd5b505af115801561194e573d6000803e3d6000fd5b505050506040513d601f19601f820116820180604052508101906119729190613561565b505050565b61197f612fa1565b6000546001600160a01b039081169116146119cf576040805162461bcd60e51b81526020600482018190526024820152600080516020613d23833981519152604482015290519081900360640190fd5b600755565b336000908152600660205260409020546001600160a01b0316611a095760405162461bcd60e51b815260040161059f90613ae7565b33600090815260066020526040908190205490516336f21e6160e11b81526001600160a01b03909116908190636de43cc290611770908690869060040161390d565b611a53612fa1565b6000546001600160a01b03908116911614611aa3576040805162461bcd60e51b81526020600482018190526024820152600080516020613d23833981519152604482015290519081900360640190fd5b600380546001600160a01b0319166001600160a01b0392909216919091179055565b565b611acf612fa1565b6000546001600160a01b03908116911614611b1f576040805162461bcd60e51b81526020600482018190526024820152600080516020613d23833981519152604482015290519081900360640190fd5b600080546040516001600160a01b03909116907f8be0079c531659141344cd1fd0a4f28419497f9722a3daafe3b4186f6b6457e0908390a3600080546001600160a01b0319169055565b336000908152600660205260409081902054905163298410e560e01b81526001600160a01b0390911690819063298410e5906117e790859060040161379f565b336000908152600660205260408120546001600160a01b0316611bde5760405162461bcd60e51b815260040161059f90613ae7565b33600090815260066020908152604091829020548251638da5cb5b60e01b815292516001600160a01b03909116928392638da5cb5b92600480840193829003018186803b158015611c2e57600080fd5b505afa158015611c42573d6000803e3d6000fd5b505050506040513d601f19601f82011682018060405250810190611c6691906132b8565b91505090565b611c74612fa1565b6000546001600160a01b03908116911614611cc4576040805162461bcd60e51b81526020600482018190526024820152600080516020613d23833981519152604482015290519081900360640190fd5b6000819050806001600160a01b031663fdff9b816040518163ffffffff1660e01b8152600401600060405180830381600087803b15801561180157600080fd5b6000546001600160a01b031690565b611d1b612fa1565b6000546001600160a01b03908116911614611d6b576040805162461bcd60e51b81526020600482018190526024820152600080516020613d23833981519152604482015290519081900360640190fd5b600280546001600160a01b0319166001600160a01b0392909216919091179055565b600033604051602001611da09190613782565b60408051601f198184030181529190528051602090910120600454909150611dd1906001600160a01b03168261305f565b3360009081526006602052604080822080546001600160a01b0319166001600160a01b039485161790819055815163204a7f0760e21b815291519316928392638129fc1c926004808201939182900301818387803b15801561180157600080fd5b611e3a612fa1565b6000546001600160a01b03908116911614611e8a576040805162461bcd60e51b81526020600482018190526024820152600080516020613d23833981519152604482015290519081900360640190fd5b600180546001600160a01b038089166001600160a01b0319928316179092556002805488841690831617908190556003805488851693169290921790915560405163a8faeaaf60e01b815291169063a8faeaaf90611eec90899060040161379f565b600060405180830381600087803b158015611f0657600080fd5b505af1158015611f1a573d6000803e3d6000fd5b505060025460405163e7c308fd60e01b81526001600160a01b03909116925063e7c308fd9150611f4e90859060040161379f565b600060405180830381600087803b158015611f6857600080fd5b505af1158015611f7c573d6000803e3d6000fd5b50506001546040516305321e0d60e51b81526001600160a01b03909116925063a643c1a09150611fb090849060040161379f565b600060405180830381600087803b158015611fca57600080fd5b505af1158015611fde573d6000803e3d6000fd5b50505050611815836113e6565b611ff3612fa1565b6000546001600160a01b03908116911614612043576040805162461bcd60e51b81526020600482018190526024820152600080516020613d23833981519152604482015290519081900360640190fd5b600180546001600160a01b0319166001600160a01b0392909216919091179055565b61206d612fa1565b6000546001600160a01b039081169116146120bd576040805162461bcd60e51b81526020600482018190526024820152600080516020613d23833981519152604482015290519081900360640190fd5b60405133904780156108fc02916000818181858888f193505050501580156120e9573d6000803e3d6000fd5b50565b60075481565b6001600160a01b0381166121035750335b6000819050806001600160a01b031663056da0486040518163ffffffff1660e01b815260040160006040518083038186803b15801561214157600080fd5b505afa158015612155573d6000803e3d6000fd5b505050506040513d6000823e601f3d908101601f1916820160405261217d91908101906134e3565b51158015906122005750806001600160a01b03166371a973056040518163ffffffff1660e01b815260040160006040518083038186803b1580156121c057600080fd5b505afa1580156121d4573d6000803e3d6000fd5b505050506040513d6000823e601f3d908101601f191682016040526121fc9190810190613418565b5115155b61221c5760405162461bcd60e51b815260040161059f90613b54565b6000600160009054906101000a90046001600160a01b03166001600160a01b0316635884472e836001600160a01b031663056da0486040518163ffffffff1660e01b815260040160006040518083038186803b15801561227b57600080fd5b505afa15801561228f573d6000803e3d6000fd5b505050506040513d6000823e601f3d908101601f191682016040526122b791908101906134e3565b6040518263ffffffff1660e01b81526004016122d39190613947565b60206040518083038186803b1580156122eb57600080fd5b505afa1580156122ff573d6000803e3d6000fd5b505050506040513d601f19601f8201168201806040525081019061232391906135b1565b6001600160401b038111801561233857600080fd5b50604051908082528060200260200182016040528015612362578160200160208202803683370190505b5090506000600160009054906101000a90046001600160a01b03166001600160a01b03166368a4f5c2846001600160a01b031663056da0486040518163ffffffff1660e01b815260040160006040518083038186803b1580156123c457600080fd5b505afa1580156123d8573d6000803e3d6000fd5b505050506040513d6000823e601f3d908101601f1916820160405261240091908101906134e3565b6040518263ffffffff1660e01b815260040161241c9190613947565b60006040518083038186803b15801561243457600080fd5b505afa158015612448573d6000803e3d6000fd5b505050506040513d6000823e601f3d908101601f19168201604052612470919081019061351d565b9092509050806124925760405162461bcd60e51b815260040161059f90613b9c565b60025460405163458f9fad60e11b815260009182916001600160a01b0390911690638b1f3f5a906124c99086908990600401613bdc565b604080518083038186803b1580156124e057600080fd5b505afa1580156124f4573d6000803e3d6000fd5b505050506040513d601f19601f82011682018060405250810190612518919061357b565b90925090508161253a5760405162461bcd60e51b815260040161059f90613a05565b6040805160168082526102e08201909252600091602082016102c08036833701905050905060008086516001600160401b038111801561257957600080fd5b506040519080825280602002602001820160405280156125ad57816020015b60608152602001906001900390816125985790505b50905060005b875181101561266e57886001600160a01b031663e97b56538983815181106125d757fe5b60200260200101516040518263ffffffff1660e01b81526004016125fb9190613bd3565b60006040518083038186803b15801561261357600080fd5b505afa158015612627573d6000803e3d6000fd5b505050506040513d6000823e601f3d908101601f1916820160405261264f91908101906135c9565b82828151811061265b57fe5b60209081029190910101526001016125b3565b5060025460405163d3e6e3e960e01b81526001600160a01b039091169063d3e6e3e9906126a49087908a90600090600401613857565b60006040518083038186803b1580156126bc57600080fd5b505afa1580156126d0573d6000803e3d6000fd5b505050506040513d6000823e601f3d908101601f191682016040526126f8919081019061366a565b600354604051633995297760e11b81529195509193506000916001600160a01b03169063732a52ee9061272f90889060040161379f565b60206040518083038186803b15801561274757600080fd5b505afa15801561275b573d6000803e3d6000fd5b505050506040513d601f19601f8201168201806040525081019061277f91906132b8565b6001600160a01b038b8116600090815260066020526040908190205460025491516323b872dd60e01b8152939450828516936323b872dd936127cb9392811692169088906004016137cd565b602060405180830381600087803b1580156127e557600080fd5b505af11580156127f9573d6000803e3d6000fd5b505050506040513d601f19601f8201168201806040525081019061281d9190613561565b50600254604051637153a8af60e11b81526001600160a01b039091169063e2a7515e9061285990889060009088908d908b9084906004016137f1565b602060405180830381600087803b15801561287357600080fd5b505af1158015612887573d6000803e3d6000fd5b505050506040513d601f19601f820116820180604052508101906128ab91906135b1565b5060015460405163b7dcee0760e01b81526001600160a01b039091169063b7dcee07906128df90859060009060040161388e565b600060405180830381600087803b1580156128f957600080fd5b505af115801561290d573d6000803e3d6000fd5b50506040516001600160a01b038c1692504780156108fc029250906000818181858888f19350505050158015612947573d6000803e3d6000fd5b5050505050505050505050565b336000908152600660205260409020546001600160a01b03166129895760405162461bcd60e51b815260040161059f90613ae7565b60015460405163b914737d60e01b81526000916001600160a01b03169063b914737d906129bc908690869060040161387a565b60206040518083038186803b1580156129d457600080fd5b505afa1580156129e8573d6000803e3d6000fd5b505050506040513d601f19601f82011682018060405250810190612a0c91906135b1565b336000908152600660205260409081902054905163be07ebe960e01b81529192506001600160a01b031690819063be07ebe99061073b90859088908890600401613c12565b3360009081526006602052604090819020546003549151633995297760e11b81526001600160a01b0391821692839263daea85c59291169063732a52ee90612a9d90879060040161379f565b60206040518083038186803b158015612ab557600080fd5b505afa158015612ac9573d6000803e3d6000fd5b505050506040513d601f19601f82011682018060405250810190612aed91906132b8565b6040518263ffffffff1660e01b81526004016117e7919061379f565b336000908152600660205260409020546001600160a01b0316612b3e5760405162461bcd60e51b815260040161059f90613ae7565b33600090815260066020526040908190205490516338c110ef60e21b81526001600160a01b0390911690819063e30443bc90612b80908690869060040161383e565b602060405180830381600087803b158015612b9a57600080fd5b505af1158015612bae573d6000803e3d6000fd5b505050506040513d601f19601f82011682018060405250810190612bd291906135b1565b50505050565b612be0612fa1565b6000546001600160a01b03908116911614612c30576040805162461bcd60e51b81526020600482018190526024820152600080516020613d23833981519152604482015290519081900360640190fd5b6001600160a01b038116612c755760405162461bcd60e51b8152600401808060200182810382526026815260200180613cfd6026913960400191505060405180910390fd5b600080546040516001600160a01b03808516939216917f8be0079c531659141344cd1fd0a4f28419497f9722a3daafe3b4186f6b6457e091a3600080546001600160a01b0319166001600160a01b0392909216919091179055565b336000908152600660205260409020546001600160a01b0316612d055760405162461bcd60e51b815260040161059f90613ae7565b6001600160a01b038216612d1857600080fd5b60008111612d385760405162461bcd60e51b815260040161059f90613a79565b6003546040516362e8d75b60e11b81526000916001600160a01b03169063c5d1aeb690612d6b90869033906004016137b3565b60206040518083038186803b158015612d8357600080fd5b505afa158015612d97573d6000803e3d6000fd5b505050506040513d601f19601f82011682018060405250810190612dbb91906135b1565b905060008111612ddd5760405162461bcd60e51b815260040161059f90613ab0565b600081831115612e07575090506000600019612df98483612b09565b612e02846117a7565b612e17565b5081612e17846105258484613104565b600354604051633995297760e11b81526000916001600160a01b03169063732a52ee90612e4890889060040161379f565b60206040518083038186803b158015612e6057600080fd5b505afa158015612e74573d6000803e3d6000fd5b505050506040513d601f19601f82011682018060405250810190612e9891906132b8565b33600090815260066020526040908190205460035491516323b872dd60e01b81529293506001600160a01b03808516936323b872dd93612ee193831692169089906004016137cd565b602060405180830381600087803b158015612efb57600080fd5b505af1158015612f0f573d6000803e3d6000fd5b505050506040513d601f19601f82011682018060405250810190612f339190613561565b50600354604051631a4ca37b60e21b81526001600160a01b03909116906369328dec90612f6890889086903390600401613857565b600060405180830381600087803b158015612f8257600080fd5b505af1158015612f96573d6000803e3d6000fd5b505050505050505050565b3390565b6000805b600554811015612ff257336001600160a01b031660058281548110612fca57fe5b6000918252602090912001546001600160a01b03161415612fea57600191505b600101612fa9565b50600090506120e9565b600082820183811015613056576040805162461bcd60e51b815260206004820152601b60248201527f536166654d6174683a206164646974696f6e206f766572666c6f770000000000604482015290519081900360640190fd5b90505b92915050565b6000604051733d602d80600a3d3981f3363d3d373d3d3d363d7360601b81528360601b60148201526e5af43d82803e903d91602b57fd5bf360881b6028820152826037826000f59150506001600160a01b038116613059576040805162461bcd60e51b815260206004820152601760248201527f455243313136373a2063726561746532206661696c6564000000000000000000604482015290519081900360640190fd5b600061305683836040518060400160405280601e81526020017f536166654d6174683a207375627472616374696f6e206f766572666c6f770000815250600081848411156131d05760405162461bcd60e51b81526004018080602001828103825283818151815260200191508051906020019080838360005b8381101561319557818101518382015260200161317d565b50505050905090810190601f1680156131c25780820380516001836020036101000a031916815260200191505b509250505060405180910390fd5b505050900390565b60008083601f8401126131e9578182fd5b5081356001600160401b038111156131ff578182fd5b602083019150836020808302850101111561321957600080fd5b9250929050565b600082601f830112613230578081fd5b8151602061324561324083613c9e565b613c7b565b8281528181019085830183850287018401881015613261578586fd5b855b8581101561327f57815184529284019290840190600101613263565b5090979650505050505050565b8051801515811461078f57600080fd5b6000602082840312156132ad578081fd5b813561305681613ce7565b6000602082840312156132c9578081fd5b815161305681613ce7565b60008060008060008060c087890312156132ec578182fd5b86356132f781613ce7565b9550602087013561330781613ce7565b9450604087013561331781613ce7565b9350606087013561332781613ce7565b9250608087013561333781613ce7565b915060a087013561334781613ce7565b809150509295509295509295565b60008060408385031215613367578182fd5b823561337281613ce7565b946020939093013593505050565b60006020808385031215613392578182fd5b82356001600160401b038111156133a7578283fd5b8301601f810185136133b7578283fd5b80356133c561324082613c9e565b81815283810190838501858402850186018910156133e1578687fd5b8694505b8385101561340c5780356133f881613ce7565b8352600194909401939185019185016133e5565b50979650505050505050565b6000602080838503121561342a578182fd5b82516001600160401b0381111561343f578283fd5b8301601f8101851361344f578283fd5b805161345d61324082613c9e565b8181528381019083850185840285018601891015613479578687fd5b8694505b8385101561340c57805161349081613ce7565b83526001949094019391850191850161347d565b600080602083850312156134b6578182fd5b82356001600160401b038111156134cb578283fd5b6134d7858286016131d8565b90969095509350505050565b6000602082840312156134f4578081fd5b81516001600160401b03811115613509578182fd5b61351584828501613220565b949350505050565b6000806040838503121561352f578182fd5b82516001600160401b03811115613544578283fd5b61355085828601613220565b925050602083015190509250929050565b600060208284031215613572578081fd5b6130568261328c565b6000806040838503121561358d578182fd5b6135968361328c565b915060208301516135a681613ce7565b809150509250929050565b6000602082840312156135c2578081fd5b5051919050565b6000602082840312156135da578081fd5b81516001600160401b03808211156135f0578283fd5b818401915084601f830112613603578283fd5b81518181111561360f57fe5b613622601f8201601f1916602001613c7b565b9150808252856020828501011115613638578384fd5b613649816020840160208601613cbb565b50949350505050565b600060208284031215613663578081fd5b5035919050565b6000806040838503121561367c578182fd5b8251915060208301516001600160401b03811115613698578182fd5b6136a485828601613220565b9150509250929050565b818352602080840193600091908185020181018584845b8781101561373b5782840389528135601e198836030181126136e5578687fd5b870180356001600160401b038111156136fc578788fd5b80360389131561370a578788fd5b8086528087830188880137858101870188905299860199601f01601f191690940185019350908401906001016136c5565b5091979650505050505050565b6000815180845260208085019450808401835b838110156137775781518752958201959082019060010161375b565b509495945050505050565b60609190911b6bffffffffffffffffffffffff1916815260140190565b6001600160a01b0391909116815260200190565b6001600160a01b0392831681529116602082015260400190565b6001600160a01b039384168152919092166020820152604081019190915260600190565b6001600160a01b03878116825286166020820152604081018590526060810184905260c06080820181905260009061382b90830185613748565b90508260a0830152979650505050505050565b6001600160a01b03929092168252602082015260400190565b6001600160a01b0393841681526020810192909252909116604082015260600190565b6000602082526135156020830184866136ae565b60006040820160408352808551808352606085019150602092506060838202860101838801855b838110156138fb57878303605f19018552815180518085526138dc818987018a8501613cbb565b95870195601f01601f19169390930186019250908501906001016138b5565b50509290940194909452949350505050565b6020808252810182905260006001600160fb1b0383111561392c578081fd5b60208302808560408501379190910160400190815292915050565b6000602082526130566020830184613748565b60006040825261396d6040830186613748565b6020838203818501528185835281830190508182870284010187855b888110156139f657858303601f190184528135368b9003601e190181126139ae578788fd5b8a0180356001600160401b038111156139c5578889fd5b86810236038c13156139d5578889fd5b6139e285828985016136ae565b958701959450505090840190600101613989565b50909998505050505050505050565b60208082526010908201526f4e6f7420656e6f7567682066756e647360801b604082015260600190565b6020808252602a908201527f417373657420636f6e74726163742063616e206e6f7420626520746865207a65604082015269726f206164647265737360b01b606082015260800190565b6020808252601a908201527f416d6f756e74206d757374206265206d6f7265207468616e2030000000000000604082015260600190565b6020808252601b908201527f4e6f2062616c616e6365206c65667420746f2077697468647261770000000000604082015260600190565b6020808252600e908201526d155cd95c881b9bdd08199bdd5b9960921b604082015260600190565b60208082526025908201527f55736572206e6f7420617070726f76656420746f2073656e64207468697320616040820152641b5bdd5b9d60da1b606082015260800190565b60208082526028908201527f5573657220686173206e6f2066756e6473206f72206e6f206e616d657320726560408201526719da5cdd195c995960c21b606082015260800190565b6020808252601c908201527f4e6f206e616d6573206172652064756520666f722072656e6577616c00000000604082015260600190565b90815260200190565b9182526001600160a01b0316602082015260400190565b9283526001600160a01b03918216602084015216604082015260600190565b600084825260406020830152613c2c6040830184866136ae565b95945050505050565b6000808335601e19843603018112613c4b578283fd5b8301803591506001600160401b03821115613c64578283fd5b602090810192508102360382131561321957600080fd5b6040518181016001600160401b0381118282101715613c9657fe5b604052919050565b60006001600160401b03821115613cb157fe5b5060209081020190565b60005b83811015613cd6578181015183820152602001613cbe565b83811115612bd25750506000910152565b6001600160a01b03811681146120e957600080fdfe4f776e61626c653a206e6577206f776e657220697320746865207a65726f20616464726573734f776e61626c653a2063616c6c6572206973206e6f7420746865206f776e6572a2646970667358221220c06d803563340ad88c18574d6bc0ac53110377eea7ee7191961e50d6e3daf98964736f6c63430007060033",
  "immutableReferences": {},
  "source": "// SPDX-License-Identifier: MIT\r\npragma solidity ^0.7.6;\r\npragma abicoder v2;\r\n\r\nimport \"@openzeppelin/contracts/math/SafeMath.sol\";\r\nimport \"@openzeppelin/contracts/access/Ownable.sol\";\r\nimport \"@openzeppelin/contracts/proxy/Clones.sol\";\r\nimport \"@openzeppelin/contracts/token/ERC20/IERC20.sol\";\r\nimport \"./interfaces/INameManager.sol\";\r\nimport \"./interfaces/IInvestmentManager.sol\";\r\nimport \"./interfaces/IExchangeManager.sol\";\r\nimport \"./interfaces/IUserVault.sol\";\r\n\r\n//import \"interfaces/ENS_BulkRenewal.sol\";\r\n//import \"interfaces/ENS_Resolver.sol\";\r\n\r\n/// @title StakeYourName - Main Contract\r\n/// @notice Handles interations between the users and\r\n/// @notice other StakeYourName contracts.\r\n/// @author Daniel Chilvers\r\n\r\ncontract StakeYourName is Ownable {\r\n    INameManager nameManager;\r\n    IExchangeManager exchangeManager;\r\n    IInvestmentManager investmentManager;\r\n\r\n    constructor() {\r\n        /// @dev TO:DO set deployment addresses of the managers in here.\r\n    }\r\n\r\n    using SafeMath for uint256;\r\n    address internal masterVault;\r\n    address[] internal users;\r\n    address constant zeroAddress = 0x0000000000000000000000000000000000000000;\r\n    mapping(address => address) internal vault;\r\n    uint256 public referralCode = 0;\r\n    uint256 constant MAX_INT = type(uint256).max;\r\n    uint256 constant MIN_APPROVAL = type(uint256).max / 2;\r\n\r\n    struct Renewals {\r\n        string[] names;\r\n        address user;\r\n        uint256 cost;\r\n    }\r\n\r\n    /// @notice only allow users with an active vault to do these functions\r\n    modifier onlyUser() {\r\n        require(vault[msg.sender] != address(0), \"User not found\");\r\n        _;\r\n    }\r\n\r\n    /********************************************\r\n     *                                           *\r\n     *   User functions                          *\r\n     *                                           *\r\n     ********************************************/\r\n\r\n    /// @notice _name must in reverse order with each subdomain in the next index\r\n    /// @notice e.g. splidge.eth would be _name[0] = 'eth', _name[1] = 'splidge'\r\n    function addName(string[] calldata _name) external onlyUser {\r\n        uint256 _hash = uint256(nameManager.returnHash(_name));\r\n        IUserVault _userVault = IUserVault(vault[msg.sender]);\r\n        _userVault.addName(_hash, _name);\r\n    }\r\n\r\n    function addMultipleNames(string[][] calldata _names) external onlyUser {\r\n        uint256[] memory _hashs = new uint256[](_names[0].length);\r\n        for (uint256 i; i < _names[0].length; i++) {\r\n            _hashs[i] = uint256(nameManager.returnHash(_names[i]));\r\n        }\r\n        IUserVault _userVault = IUserVault(vault[msg.sender]);\r\n        _userVault.addMultipleNames(_hashs, _names);\r\n    }\r\n\r\n    function removeName(uint256 _name) external onlyUser {\r\n        IUserVault _userVault = IUserVault(vault[msg.sender]);\r\n        _userVault.removeName(_name);\r\n    }\r\n\r\n    function removeMultipleNames(uint256[] calldata _names) external onlyUser {\r\n        IUserVault _userVault = IUserVault(vault[msg.sender]);\r\n        _userVault.removeMultipleNames(_names);\r\n    }\r\n\r\n    /// @notice deposits tokens to the Aave LendingPool contract\r\n    /// @notice updates vault with new balance\r\n    /// @param _asset the contract address of the token to deposit\r\n    /// @param _amount the amount to deposit in wei\r\n    function deposit(address _asset, uint256 _amount) external {\r\n        require(\r\n            _asset != address(0),\r\n            \"Asset contract can not be the zero address\"\r\n        );\r\n        require(_amount > 0, \"Amount must be more than 0\");\r\n        IERC20 _erc20 = IERC20(_asset);\r\n        require(\r\n            _erc20.allowance(msg.sender, address(this)) >= _amount,\r\n            \"User not approved to send this amount\"\r\n        );\r\n        if (vault[msg.sender] == address(0)) {\r\n            deployVault();\r\n        }\r\n        addUser();\r\n        vaultAddAsset(_asset);\r\n        approveVault(_asset);\r\n        investmentManager.approveLendingPool(_asset, vault[msg.sender]);\r\n        setBalance(\r\n            _asset,\r\n            investmentManager.getBalance(_asset, vault[msg.sender]).add(_amount)\r\n        );\r\n        _erc20.transferFrom(msg.sender, address(investmentManager), _amount);\r\n        investmentManager.deposit(_asset, vault[msg.sender], _amount);\r\n    }\r\n\r\n    /// @notice withdraw tokens from the Aave LendingPool contract\r\n    /// @notice updates vault with new balance\r\n    /// @param _asset the contract address of the token to deposit\r\n    /// @param _amount the amount to deposit in wei\r\n    function withdraw(address _asset, uint256 _amount) external onlyUser {\r\n        require(_asset != address(0));\r\n        require(_amount > 0, \"Amount must be more than 0\");\r\n        uint256 _balance = investmentManager.getTotal(_asset, msg.sender);\r\n        require(_balance > 0, \"No balance left to withdraw\");\r\n        uint256 _transfer = 0;\r\n        if (_amount > _balance) {\r\n            _amount = _balance;\r\n            _transfer = MAX_INT;\r\n            _balance = 0;\r\n            setBalance(_asset, _balance);\r\n            vaultRemoveAsset(_asset);\r\n        } else {\r\n            _transfer = _amount;\r\n            setBalance(_asset, _balance.sub(_amount));\r\n        }\r\n        IERC20 _erc20 = IERC20(investmentManager.getAToken(_asset));\r\n        _erc20.transferFrom(\r\n            vault[msg.sender],\r\n            address(investmentManager),\r\n            _amount\r\n        );\r\n        investmentManager.withdraw(_asset, _transfer, msg.sender);\r\n    }\r\n\r\n    /********************************************\r\n     *                                           *\r\n     *   User Vault deployment and functions.    *\r\n     *                                           *\r\n     ********************************************/\r\n\r\n    /// @notice clone the master vault contract\r\n    function deployVault() public {\r\n        bytes32 _salt = keccak256(abi.encodePacked(msg.sender));\r\n        vault[msg.sender] = Clones.cloneDeterministic(masterVault, _salt);\r\n        IUserVault _userVault = IUserVault(vault[msg.sender]);\r\n        _userVault.initialize();\r\n    }\r\n\r\n    function setMasterVault(address _vault) public onlyOwner {\r\n        masterVault = _vault;\r\n    }\r\n\r\n    function setBalance(address _asset, uint256 _balance) public onlyUser {\r\n        IUserVault _userVault = IUserVault(vault[msg.sender]);\r\n        _userVault.setBalance(_asset, _balance);\r\n    }\r\n\r\n    function findVault(address _vault) public view returns (address) {\r\n        return vault[_vault];\r\n    }\r\n\r\n    function approveVault(address _asset) public {\r\n        IUserVault _userVault = IUserVault(vault[msg.sender]);\r\n        _userVault.approve(investmentManager.getAToken(_asset));\r\n    }\r\n\r\n    function vaultAddAsset(address _asset) public {\r\n        IUserVault _userVault = IUserVault(vault[msg.sender]);\r\n        _userVault.addAsset(_asset);\r\n    }\r\n\r\n    function vaultRemoveAsset(address _asset) public {\r\n        IUserVault _userVault = IUserVault(vault[msg.sender]);\r\n        _userVault.removeAsset(_asset);\r\n    }\r\n\r\n    function addUser() internal {\r\n        bool _found = false;\r\n        for (uint256 i; i < users.length; i++) {\r\n            if (users[i] == msg.sender) {\r\n                _found = true;\r\n            }\r\n        }\r\n        if (_found = false) {\r\n            users.push(msg.sender);\r\n        }\r\n    }\r\n\r\n    /// @dev this is stupid, it'll always return msg.sender (hopefully)\r\n    function getOwner() public view onlyUser returns (address) {\r\n        IUserVault _userVault = IUserVault(vault[msg.sender]);\r\n        return _userVault.owner();\r\n    }\r\n\r\n    /********************************************\r\n     *                                           *\r\n     *   Name functions                          *\r\n     *                                           *\r\n     ********************************************/\r\n\r\n    function renewNames(address _user) public {\r\n        if (_user == address(0)) {\r\n            _user = msg.sender;\r\n        }\r\n        IUserVault _userVault = IUserVault(_user);\r\n        require(\r\n            _userVault.names().length != 0 && _userVault.assets().length != 0,\r\n            \"User has no funds or no names registered\"\r\n        );\r\n        uint256[] memory _names =\r\n            new uint256[](nameManager.countRenewals(_userVault.names()));\r\n        uint256 _cost;\r\n        (_names, _cost) = nameManager.checkForRenewals(_userVault.names());\r\n        require(_cost > 0, \"No names are due for renewal\");\r\n        bool _success;\r\n        address _asset;\r\n        (_success, _asset) = exchangeManager.estimateFunds(\r\n            _cost,\r\n            address(_userVault)\r\n        );\r\n        require(_success, \"Not enough funds\");\r\n        uint256[] memory _distribution = new uint256[](22);\r\n        uint256 _inputValue;\r\n        string[] memory _readableNames = new string[](_names.length);\r\n        for (uint256 i; i < _names.length; i++) {\r\n            _readableNames[i] = _userVault.readableName(_names[i]);\r\n        }\r\n        (_inputValue, _distribution) = exchangeManager.getExchangePrice(\r\n            _asset,\r\n            _cost,\r\n            zeroAddress\r\n        );\r\n        IERC20 _erc20 = IERC20(investmentManager.getAToken(_asset));\r\n        _erc20.transferFrom(\r\n            vault[_user],\r\n            address(exchangeManager),\r\n            _inputValue\r\n        );\r\n        exchangeManager.swap(\r\n            _asset,\r\n            zeroAddress,\r\n            _inputValue,\r\n            _cost,\r\n            _distribution,\r\n            0\r\n        );\r\n        nameManager.executeBulkRenewal(_readableNames, 0);\r\n        payable(address(_userVault)).transfer(address(this).balance);\r\n    }\r\n\r\n    /// @dev lets check each user to see if they have any names that need renewing\r\n    /// @dev then check if that user has the funds to pay for the names\r\n    /// @dev if they do then add them to be processed, otherwise leave it for later.\r\n    function renewNamesGroupingUsers() public view {\r\n        bool _success = false;\r\n        address _asset;\r\n        uint256[] memory _costs = new uint256[](users.length);\r\n        address[] memory _users = new address[](users.length);\r\n        //Renewals memory _renewals;\r\n\r\n        // iterate through the whole user list\r\n        for (uint256 i; i < users.length; i++) {\r\n            IUserVault _userVault = IUserVault(vault[users[i]]);\r\n            // check they have names and assets in the vault, otherwise move on\r\n            if (\r\n                _userVault.names().length != 0 &&\r\n                _userVault.assets().length != 0\r\n            ) {\r\n                uint256 _cost;\r\n                // if we haven't found any renewals yet lets check if this user has the funds to renew a name\r\n                if (_success == false) {\r\n                    (, _costs[0]) = nameManager.checkForRenewals(\r\n                        _userVault.names()\r\n                    );\r\n                    (_success, _asset) = exchangeManager.estimateFunds(\r\n                        _cost,\r\n                        users[i]\r\n                    );\r\n                    _users[0] = users[i];\r\n                } else {\r\n                    // lets find more users with a matching asset that needs a renewal\r\n                    for (uint256 j = 0; j < _userVault.assets().length; j++) {\r\n                        if (_userVault.assets()[i] == _asset) {\r\n                            uint256 _addCost;\r\n                            (, _addCost) = nameManager.checkForRenewals(\r\n                                _userVault.names()\r\n                            );\r\n                            if (\r\n                                exchangeManager.estimateSpecificAssetFunds(\r\n                                    _addCost,\r\n                                    users[i],\r\n                                    _asset\r\n                                )\r\n                            ) {\r\n                                _users[j + 1] = users[i];\r\n                                _costs[j + 1] = _addCost;\r\n                            }\r\n                        }\r\n                    }\r\n                }\r\n            }\r\n        }\r\n        // we now have an array _users that contains all the users that need renewals and\r\n        // can afford to pay with _asset, the respective costs of renewal are in _costs\r\n        // lets assemble the big name list\r\n        uint256 _count = countRenewals(_users);\r\n        uint256 l = 0;\r\n        uint256[] memory _names = new uint256[](_count);\r\n        for (uint256 i; i < _users.length; i++) {\r\n            if (_users[i] != address(0)) {\r\n                IUserVault _userVault = IUserVault(vault[_users[i]]);\r\n                uint256[] memory _userNames =\r\n                    new uint256[](_userVault.names().length);\r\n                (_userNames, ) = nameManager.checkForRenewals(\r\n                    _userVault.names()\r\n                );\r\n                for (uint256 k; k < _userVault.names().length; k++) {\r\n                    if (_userNames[k] != 0) {\r\n                        _names[l] = _userNames[k];\r\n                        l++;\r\n                    }\r\n                }\r\n            }\r\n        }\r\n        // executeExchangeSwap\r\n        // convert _names to strings\r\n        // nameManager.executeBulkRenewal(_names, 0);\r\n    }\r\n\r\n    function countRenewals(address[] memory _users)\r\n        public\r\n        view\r\n        returns (uint256 _count)\r\n    {\r\n        for (uint256 i; i < _users.length; i++) {\r\n            IUserVault _userVault = IUserVault(vault[users[i]]);\r\n            (, uint256 _add) = nameManager.checkForRenewals(_userVault.names());\r\n            _count = _count + _add;\r\n        }\r\n    }\r\n\r\n    /********************************************\r\n     *                                           *\r\n     *   Exchange functions                      *\r\n     *                                           *\r\n     ********************************************/\r\n    /*\r\n    function checkAvailiableFunds(uint256 _cost, address _user) public view returns(bool _accept, address _token, uint256[] memory _distribution){\r\n        UserVault _userVault = UserVault(vault[_user]);\r\n        uint256[] memory _distributionArray = new uint256[](22);\r\n        uint256 _price;\r\n        for (uint256 i; i < _userVault.assets().length; i++){\r\n            (_price, _distributionArray) = exchangeManager.getExchangePrice(_userVault.assets()[i] , _cost, zeroAddress);\r\n            if(_price != 0){\r\n                return (true, _userVault.assets()[i], _distributionArray);\r\n            }\r\n        }\r\n        return (false, zeroAddress, _distributionArray);\r\n    }\r\n*/\r\n    function swapAssets() public view {}\r\n\r\n    /********************************************\r\n     *                                           *\r\n     *   Admin functions                         *\r\n     *                                           *\r\n     ********************************************/\r\n\r\n    receive() external payable {}\r\n\r\n    function updateReferral(uint256 _ref) external onlyOwner {\r\n        referralCode = _ref;\r\n    }\r\n\r\n    /********************************************\r\n     *                                           *\r\n     *   Test and/or temporary functions.        *\r\n     *                                           *\r\n     ********************************************/\r\n\r\n    function setNameManager(address payable _address) external onlyOwner {\r\n        nameManager = INameManager(_address);\r\n    }\r\n\r\n    function setExchangeManager(address payable _address) external onlyOwner {\r\n        exchangeManager = IExchangeManager(_address);\r\n    }\r\n\r\n    function setInvestmentManager(address _address) external onlyOwner {\r\n        investmentManager = IInvestmentManager(_address);\r\n    }\r\n\r\n    function approveInvestmentManager(address _asset) public onlyOwner {\r\n        IERC20 _erc20 = IERC20(_asset);\r\n        _erc20.approve(address(investmentManager), MAX_INT);\r\n    }\r\n\r\n    // set up all the interconnections required for the testnet\r\n    function setupTestNet(\r\n        address payable _nameManager,\r\n        address payable _exchangeManager,\r\n        address _investmentManager,\r\n        address _vault,\r\n        address _oneSplit,\r\n        address _ens\r\n    ) external onlyOwner {\r\n        nameManager = INameManager(_nameManager);\r\n        exchangeManager = IExchangeManager(_exchangeManager);\r\n        investmentManager = IInvestmentManager(_investmentManager);\r\n        exchangeManager.updateNameManagerAddress(_nameManager);\r\n        exchangeManager.setOneSplitAddress(_oneSplit);\r\n        nameManager.updateAddresses(_ens);\r\n        setMasterVault(_vault);\r\n    }\r\n\r\n    /// @notice do not use this contract if this still exists\r\n    function retrieveETH() public onlyOwner {\r\n        msg.sender.transfer(address(this).balance);\r\n    }\r\n\r\n    /// @notice do not use this contract if this still exists\r\n    function emptyVault(address _vault) public onlyOwner {\r\n        IUserVault _userVault = IUserVault(_vault);\r\n        _userVault.collectETH();\r\n    }\r\n}\r\n",
  "sourcePath": "C:/Users/anyth/Documents/GitHub/StakeYourName/contracts/StakeYourName.sol",
  "compiler": {
    "name": "solc",
    "version": "0.7.6+commit.7338295f.Emscripten.clang"
  },
  "schemaVersion": "3.3.3",
  "updatedAt": "2021-02-01T16:31:58.265Z",
  "devdoc": {
    "author": "Daniel Chilvers",
    "kind": "dev",
    "methods": {
      "deposit(address,uint256)": {
        "params": {
          "_amount": "the amount to deposit in wei",
          "_asset": "the contract address of the token to deposit"
        }
      },
      "getOwner()": {
        "details": "this is stupid, it'll always return msg.sender (hopefully)"
      },
      "owner()": {
        "details": "Returns the address of the current owner."
      },
      "renewNamesGroupingUsers()": {
        "details": "lets check each user to see if they have any names that need renewingthen check if that user has the funds to pay for the namesif they do then add them to be processed, otherwise leave it for later."
      },
      "renounceOwnership()": {
        "details": "Leaves the contract without owner. It will not be possible to call `onlyOwner` functions anymore. Can only be called by the current owner. NOTE: Renouncing ownership will leave the contract without an owner, thereby removing any functionality that is only available to the owner."
      },
      "transferOwnership(address)": {
        "details": "Transfers ownership of the contract to a new account (`newOwner`). Can only be called by the current owner."
      },
      "withdraw(address,uint256)": {
        "params": {
          "_amount": "the amount to deposit in wei",
          "_asset": "the contract address of the token to deposit"
        }
      }
    },
    "title": "StakeYourName - Main Contract",
    "version": 1
  },
  "userdoc": {
    "kind": "user",
    "methods": {
      "addName(string[])": {
        "notice": "_name must in reverse order with each subdomain in the next indexe.g. splidge.eth would be _name[0] = 'eth', _name[1] = 'splidge'"
      },
      "deployVault()": {
        "notice": "clone the master vault contract"
      },
      "deposit(address,uint256)": {
        "notice": "deposits tokens to the Aave LendingPool contractupdates vault with new balance"
      },
      "emptyVault(address)": {
        "notice": "do not use this contract if this still exists"
      },
      "retrieveETH()": {
        "notice": "do not use this contract if this still exists"
      },
      "withdraw(address,uint256)": {
        "notice": "withdraw tokens from the Aave LendingPool contractupdates vault with new balance"
      }
    },
    "notice": "Handles interations between the users andother StakeYourName contracts.",
    "version": 1
  }
}