{
  "contractName": "StakeYourName",
  "abi": [
    {
      "inputs": [],
      "stateMutability": "nonpayable",
      "type": "constructor"
    },
    {
      "anonymous": false,
      "inputs": [
        {
          "indexed": true,
          "internalType": "address",
          "name": "previousOwner",
          "type": "address"
        },
        {
          "indexed": true,
          "internalType": "address",
          "name": "newOwner",
          "type": "address"
        }
      ],
      "name": "OwnershipTransferred",
      "type": "event"
    },
    {
      "inputs": [],
      "name": "owner",
      "outputs": [
        {
          "internalType": "address",
          "name": "",
          "type": "address"
        }
      ],
      "stateMutability": "view",
      "type": "function",
      "constant": true
    },
    {
      "inputs": [],
      "name": "referralCode",
      "outputs": [
        {
          "internalType": "uint256",
          "name": "",
          "type": "uint256"
        }
      ],
      "stateMutability": "view",
      "type": "function",
      "constant": true
    },
    {
      "inputs": [],
      "name": "renounceOwnership",
      "outputs": [],
      "stateMutability": "nonpayable",
      "type": "function"
    },
    {
      "inputs": [
        {
          "internalType": "address",
          "name": "newOwner",
          "type": "address"
        }
      ],
      "name": "transferOwnership",
      "outputs": [],
      "stateMutability": "nonpayable",
      "type": "function"
    },
    {
      "stateMutability": "payable",
      "type": "receive",
      "payable": true
    },
    {
      "inputs": [
        {
          "internalType": "uint256",
          "name": "_name",
          "type": "uint256"
        }
      ],
      "name": "addName",
      "outputs": [],
      "stateMutability": "nonpayable",
      "type": "function"
    },
    {
      "inputs": [
        {
          "internalType": "uint256[]",
          "name": "_names",
          "type": "uint256[]"
        }
      ],
      "name": "addMultipleNames",
      "outputs": [],
      "stateMutability": "nonpayable",
      "type": "function"
    },
    {
      "inputs": [
        {
          "internalType": "uint256",
          "name": "_name",
          "type": "uint256"
        }
      ],
      "name": "removeName",
      "outputs": [],
      "stateMutability": "nonpayable",
      "type": "function"
    },
    {
      "inputs": [
        {
          "internalType": "uint256[]",
          "name": "_names",
          "type": "uint256[]"
        }
      ],
      "name": "removeMultipleNames",
      "outputs": [],
      "stateMutability": "nonpayable",
      "type": "function"
    },
    {
      "inputs": [
        {
          "internalType": "address",
          "name": "_asset",
          "type": "address"
        },
        {
          "internalType": "uint256",
          "name": "_amount",
          "type": "uint256"
        },
        {
          "internalType": "bool",
          "name": "_newUser",
          "type": "bool"
        }
      ],
      "name": "deposit",
      "outputs": [],
      "stateMutability": "nonpayable",
      "type": "function"
    },
    {
      "inputs": [
        {
          "internalType": "address",
          "name": "_asset",
          "type": "address"
        },
        {
          "internalType": "uint256",
          "name": "_amount",
          "type": "uint256"
        }
      ],
      "name": "withdraw",
      "outputs": [],
      "stateMutability": "nonpayable",
      "type": "function"
    },
    {
      "inputs": [],
      "name": "deployVault",
      "outputs": [],
      "stateMutability": "nonpayable",
      "type": "function"
    },
    {
      "inputs": [
        {
          "internalType": "address",
          "name": "_vault",
          "type": "address"
        }
      ],
      "name": "setMasterVault",
      "outputs": [],
      "stateMutability": "nonpayable",
      "type": "function"
    },
    {
      "inputs": [
        {
          "internalType": "address",
          "name": "_asset",
          "type": "address"
        },
        {
          "internalType": "uint256",
          "name": "_balance",
          "type": "uint256"
        }
      ],
      "name": "setBalance",
      "outputs": [],
      "stateMutability": "nonpayable",
      "type": "function"
    },
    {
      "inputs": [
        {
          "internalType": "address",
          "name": "_vault",
          "type": "address"
        }
      ],
      "name": "findVault",
      "outputs": [
        {
          "internalType": "address",
          "name": "",
          "type": "address"
        }
      ],
      "stateMutability": "view",
      "type": "function",
      "constant": true
    },
    {
      "inputs": [
        {
          "internalType": "address",
          "name": "_asset",
          "type": "address"
        }
      ],
      "name": "approveVault",
      "outputs": [],
      "stateMutability": "nonpayable",
      "type": "function"
    },
    {
      "inputs": [
        {
          "internalType": "address",
          "name": "_asset",
          "type": "address"
        }
      ],
      "name": "vaultAddAsset",
      "outputs": [],
      "stateMutability": "nonpayable",
      "type": "function"
    },
    {
      "inputs": [
        {
          "internalType": "address",
          "name": "_asset",
          "type": "address"
        }
      ],
      "name": "vaultRemoveAsset",
      "outputs": [],
      "stateMutability": "nonpayable",
      "type": "function"
    },
    {
      "inputs": [],
      "name": "getOwner",
      "outputs": [
        {
          "internalType": "address",
          "name": "",
          "type": "address"
        }
      ],
      "stateMutability": "view",
      "type": "function",
      "constant": true
    },
    {
      "inputs": [
        {
          "internalType": "address",
          "name": "_user",
          "type": "address"
        }
      ],
      "name": "renewNames",
      "outputs": [],
      "stateMutability": "nonpayable",
      "type": "function"
    },
    {
      "inputs": [],
      "name": "renewNamesGroupingUsers",
      "outputs": [],
      "stateMutability": "view",
      "type": "function",
      "constant": true
    },
    {
      "inputs": [
        {
          "internalType": "address[]",
          "name": "_users",
          "type": "address[]"
        }
      ],
      "name": "countRenewals",
      "outputs": [
        {
          "internalType": "uint256",
          "name": "_count",
          "type": "uint256"
        }
      ],
      "stateMutability": "view",
      "type": "function",
      "constant": true
    },
    {
      "inputs": [],
      "name": "swapAssets",
      "outputs": [],
      "stateMutability": "view",
      "type": "function",
      "constant": true
    },
    {
      "inputs": [
        {
          "internalType": "uint256",
          "name": "_ref",
          "type": "uint256"
        }
      ],
      "name": "updateReferral",
      "outputs": [],
      "stateMutability": "nonpayable",
      "type": "function"
    },
    {
      "inputs": [
        {
          "internalType": "address",
          "name": "_address",
          "type": "address"
        }
      ],
      "name": "setNameManager",
      "outputs": [],
      "stateMutability": "nonpayable",
      "type": "function"
    },
    {
      "inputs": [
        {
          "internalType": "address",
          "name": "_address",
          "type": "address"
        }
      ],
      "name": "setExchangeManager",
      "outputs": [],
      "stateMutability": "nonpayable",
      "type": "function"
    },
    {
      "inputs": [
        {
          "internalType": "address",
          "name": "_address",
          "type": "address"
        }
      ],
      "name": "setInvestmentManager",
      "outputs": [],
      "stateMutability": "nonpayable",
      "type": "function"
    },
    {
      "inputs": [
        {
          "internalType": "address",
          "name": "_asset",
          "type": "address"
        }
      ],
      "name": "approveInvestmentManager",
      "outputs": [],
      "stateMutability": "nonpayable",
      "type": "function"
    },
    {
      "inputs": [],
      "name": "retrieveETH",
      "outputs": [],
      "stateMutability": "nonpayable",
      "type": "function"
    },
    {
      "inputs": [
        {
          "internalType": "address",
          "name": "_vault",
          "type": "address"
        }
      ],
      "name": "emptyVault",
      "outputs": [],
      "stateMutability": "nonpayable",
      "type": "function"
    }
  ],
  "bytecode": "0x60806040526000600660006101000a81548173ffffffffffffffffffffffffffffffffffffffff021916908373ffffffffffffffffffffffffffffffffffffffff160217905550600060085560027fffffffffffffffffffffffffffffffffffffffffffffffffffffffffffffffff816200007657fe5b046009556064600b553480156200008c57600080fd5b5060006200009f6200014360201b60201c565b9050806000806101000a81548173ffffffffffffffffffffffffffffffffffffffff021916908373ffffffffffffffffffffffffffffffffffffffff1602179055508073ffffffffffffffffffffffffffffffffffffffff16600073ffffffffffffffffffffffffffffffffffffffff167f8be0079c531659141344cd1fd0a4f28419497f9722a3daafe3b4186f6b6457e060405160405180910390a3506200014b565b600033905090565b615b58806200015b6000396000f3fe6080604052600436106101c65760003560e01c80637a82794b116100f7578063ce1ee2c211610095578063e0cc0d6811610064578063e0cc0d68146105a7578063e30443bc146105d0578063f2fde38b146105f9578063f3fef3a314610622576101cd565b8063ce1ee2c214610513578063d5b014c31461053c578063d8b6d25214610553578063dded07c71461057e576101cd565b80638b34e8e1116100d15780638b34e8e11461047f5780638da5cb5b146104a85780638e73f874146104d3578063901c4e4f146104fc576101cd565b80637a82794b146104025780637d1c12e81461042b578063893d20e814610454576101cd565b806353b08df6116101645780636de43cc21161013e5780636de43cc2146103825780636de5de0f146103ab5780636df9d379146103d4578063715018a6146103eb576101cd565b806353b08df614610307578063587838801461033057806366d626eb14610359576101cd565b80630fa73166116101a05780630fa73166146102635780633edd11281461028c57806349c9832a146102b55780634e75486a146102de576101cd565b806302df7540146101d257806303bef9ce1461020f578063054192d91461024c576101cd565b366101cd57005b600080fd5b3480156101de57600080fd5b506101f960048036038101906101f49190614c3f565b61064b565b6040516102069190615443565b60405180910390f35b34801561021b57600080fd5b5061023660048036038101906102319190614d1c565b6106b4565b60405161024391906157bc565b60405180910390f35b34801561025857600080fd5b506102616108ad565b005b34801561026f57600080fd5b5061028a60048036038101906102859190614c3f565b61164d565b005b34801561029857600080fd5b506102b360048036038101906102ae9190614ccd565b611759565b005b3480156102c157600080fd5b506102dc60048036038101906102d79190614c3f565b611cfe565b005b3480156102ea57600080fd5b5061030560048036038101906103009190614f1e565b611dd1565b005b34801561031357600080fd5b5061032e60048036038101906103299190614f1e565b611f73565b005b34801561033c57600080fd5b5061035760048036038101906103529190614c3f565b612115565b005b34801561036557600080fd5b50610380600480360381019061037b9190614f1e565b6122b6565b005b34801561038e57600080fd5b506103a960048036038101906103a49190614d9e565b612388565b005b3480156103b757600080fd5b506103d260048036038101906103cd9190614c3f565b61252d565b005b3480156103e057600080fd5b506103e9612639565b005b3480156103f757600080fd5b5061040061263b565b005b34801561040e57600080fd5b5061042960048036038101906104249190614d9e565b6127c1565b005b34801561043757600080fd5b50610452600480360381019061044d9190614c3f565b612966565b005b34801561046057600080fd5b50610469612a39565b6040516104769190615443565b60405180910390f35b34801561048b57600080fd5b506104a660048036038101906104a19190614c3f565b612bf1565b005b3480156104b457600080fd5b506104bd612d22565b6040516104ca9190615443565b60405180910390f35b3480156104df57600080fd5b506104fa60048036038101906104f59190614c3f565b612d4b565b005b34801561050857600080fd5b50610511612e57565b005b34801561051f57600080fd5b5061053a60048036038101906105359190614c3f565b612ff3565b005b34801561054857600080fd5b506105516130ff565b005b34801561055f57600080fd5b50610568613210565b60405161057591906157bc565b60405180910390f35b34801561058a57600080fd5b506105a560048036038101906105a09190614c3f565b613216565b005b3480156105b357600080fd5b506105ce60048036038101906105c99190614c3f565b613ba4565b005b3480156105dc57600080fd5b506105f760048036038101906105f29190614c91565b613d21565b005b34801561060557600080fd5b50610620600480360381019061061b9190614c3f565b613ee7565b005b34801561062e57600080fd5b5061064960048036038101906106449190614c91565b6140f2565b005b6000600760008373ffffffffffffffffffffffffffffffffffffffff1673ffffffffffffffffffffffffffffffffffffffff16815260200190815260200160002060009054906101000a900473ffffffffffffffffffffffffffffffffffffffff169050919050565b6000805b82518110156108a757600060076000600584815481106106d457fe5b9060005260206000200160009054906101000a900473ffffffffffffffffffffffffffffffffffffffff1673ffffffffffffffffffffffffffffffffffffffff1673ffffffffffffffffffffffffffffffffffffffff16815260200190815260200160002060009054906101000a900473ffffffffffffffffffffffffffffffffffffffff1690506000600160009054906101000a900473ffffffffffffffffffffffffffffffffffffffff1673ffffffffffffffffffffffffffffffffffffffff166368a4f5c28373ffffffffffffffffffffffffffffffffffffffff1663056da0486040518163ffffffff1660e01b815260040160006040518083038186803b1580156107e257600080fd5b505afa1580156107f6573d6000803e3d6000fd5b505050506040513d6000823e3d601f19601f8201168201806040525081019061081f9190614de3565b6040518263ffffffff1660e01b815260040161083b919061569a565b60006040518083038186803b15801561085357600080fd5b505afa158015610867573d6000803e3d6000fd5b505050506040513d6000823e3d601f19601f820116820180604052508101906108909190614e24565b9150508084019350505080806001019150506106b8565b50919050565b600080606060058054905067ffffffffffffffff811180156108ce57600080fd5b506040519080825280602002602001820160405280156108fd5781602001602082028036833780820191505090505b509050606060058054905067ffffffffffffffff8111801561091e57600080fd5b5060405190808252806020026020018201604052801561094d5781602001602082028036833780820191505090505b50905060005b60058054905081101561121d576000600760006005848154811061097357fe5b9060005260206000200160009054906101000a900473ffffffffffffffffffffffffffffffffffffffff1673ffffffffffffffffffffffffffffffffffffffff1673ffffffffffffffffffffffffffffffffffffffff16815260200190815260200160002060009054906101000a900473ffffffffffffffffffffffffffffffffffffffff16905060008173ffffffffffffffffffffffffffffffffffffffff1663056da0486040518163ffffffff1660e01b815260040160006040518083038186803b158015610a4357600080fd5b505afa158015610a57573d6000803e3d6000fd5b505050506040513d6000823e3d601f19601f82011682018060405250810190610a809190614de3565b5114158015610b13575060008173ffffffffffffffffffffffffffffffffffffffff166371a973056040518163ffffffff1660e01b815260040160006040518083038186803b158015610ad257600080fd5b505afa158015610ae6573d6000803e3d6000fd5b505050506040513d6000823e3d601f19601f82011682018060405250810190610b0f9190614d5d565b5114155b1561120f5760008015158715151415610de257600160009054906101000a900473ffffffffffffffffffffffffffffffffffffffff1673ffffffffffffffffffffffffffffffffffffffff166368a4f5c28373ffffffffffffffffffffffffffffffffffffffff1663056da0486040518163ffffffff1660e01b815260040160006040518083038186803b158015610baa57600080fd5b505afa158015610bbe573d6000803e3d6000fd5b505050506040513d6000823e3d601f19601f82011682018060405250810190610be79190614de3565b6040518263ffffffff1660e01b8152600401610c03919061569a565b60006040518083038186803b158015610c1b57600080fd5b505afa158015610c2f573d6000803e3d6000fd5b505050506040513d6000823e3d601f19601f82011682018060405250810190610c589190614e24565b905085600081518110610c6757fe5b602002602001018181525050600260009054906101000a900473ffffffffffffffffffffffffffffffffffffffff1673ffffffffffffffffffffffffffffffffffffffff16638b1f3f5a8260058681548110610cbf57fe5b9060005260206000200160009054906101000a900473ffffffffffffffffffffffffffffffffffffffff166040518363ffffffff1660e01b8152600401610d079291906157d7565b604080518083038186803b158015610d1e57600080fd5b505afa158015610d32573d6000803e3d6000fd5b505050506040513d601f19601f82011682018060405250810190610d569190614ea1565b809750819850505060058381548110610d6b57fe5b9060005260206000200160009054906101000a900473ffffffffffffffffffffffffffffffffffffffff1684600081518110610da357fe5b602002602001019073ffffffffffffffffffffffffffffffffffffffff16908173ffffffffffffffffffffffffffffffffffffffff168152505061120d565b60005b8273ffffffffffffffffffffffffffffffffffffffff166371a973056040518163ffffffff1660e01b815260040160006040518083038186803b158015610e2b57600080fd5b505afa158015610e3f573d6000803e3d6000fd5b505050506040513d6000823e3d601f19601f82011682018060405250810190610e689190614d5d565b5181101561120b578673ffffffffffffffffffffffffffffffffffffffff168373ffffffffffffffffffffffffffffffffffffffff166371a973056040518163ffffffff1660e01b815260040160006040518083038186803b158015610ecd57600080fd5b505afa158015610ee1573d6000803e3d6000fd5b505050506040513d6000823e3d601f19601f82011682018060405250810190610f0a9190614d5d565b8581518110610f1557fe5b602002602001015173ffffffffffffffffffffffffffffffffffffffff1614156111fe576000600160009054906101000a900473ffffffffffffffffffffffffffffffffffffffff1673ffffffffffffffffffffffffffffffffffffffff166368a4f5c28573ffffffffffffffffffffffffffffffffffffffff1663056da0486040518163ffffffff1660e01b815260040160006040518083038186803b158015610fbf57600080fd5b505afa158015610fd3573d6000803e3d6000fd5b505050506040513d6000823e3d601f19601f82011682018060405250810190610ffc9190614de3565b6040518263ffffffff1660e01b8152600401611018919061569a565b60006040518083038186803b15801561103057600080fd5b505afa158015611044573d6000803e3d6000fd5b505050506040513d6000823e3d601f19601f8201168201806040525081019061106d9190614e24565b905080915050600260009054906101000a900473ffffffffffffffffffffffffffffffffffffffff1673ffffffffffffffffffffffffffffffffffffffff1663777647fb82600588815481106110bf57fe5b9060005260206000200160009054906101000a900473ffffffffffffffffffffffffffffffffffffffff168b6040518463ffffffff1660e01b815260040161110993929190615800565b60206040518083038186803b15801561112157600080fd5b505afa158015611135573d6000803e3d6000fd5b505050506040513d601f19601f820116820180604052508101906111599190614e78565b156111fc576005858154811061116b57fe5b9060005260206000200160009054906101000a900473ffffffffffffffffffffffffffffffffffffffff168660018401815181106111a557fe5b602002602001019073ffffffffffffffffffffffffffffffffffffffff16908173ffffffffffffffffffffffffffffffffffffffff1681525050808760018401815181106111ef57fe5b6020026020010181815250505b505b8080600101915050610de5565b505b505b508080600101915050610953565b506000611229826106b4565b9050600060608267ffffffffffffffff8111801561124657600080fd5b506040519080825280602002602001820160405280156112755781602001602082028036833780820191505090505b50905060005b845181101561164357600073ffffffffffffffffffffffffffffffffffffffff168582815181106112a857fe5b602002602001015173ffffffffffffffffffffffffffffffffffffffff1614611636576000600760008784815181106112dd57fe5b602002602001015173ffffffffffffffffffffffffffffffffffffffff1673ffffffffffffffffffffffffffffffffffffffff16815260200190815260200160002060009054906101000a900473ffffffffffffffffffffffffffffffffffffffff16905060608173ffffffffffffffffffffffffffffffffffffffff1663056da0486040518163ffffffff1660e01b815260040160006040518083038186803b15801561138a57600080fd5b505afa15801561139e573d6000803e3d6000fd5b505050506040513d6000823e3d601f19601f820116820180604052508101906113c79190614de3565b5167ffffffffffffffff811180156113de57600080fd5b5060405190808252806020026020018201604052801561140d5781602001602082028036833780820191505090505b509050600160009054906101000a900473ffffffffffffffffffffffffffffffffffffffff1673ffffffffffffffffffffffffffffffffffffffff166368a4f5c28373ffffffffffffffffffffffffffffffffffffffff1663056da0486040518163ffffffff1660e01b815260040160006040518083038186803b15801561149457600080fd5b505afa1580156114a8573d6000803e3d6000fd5b505050506040513d6000823e3d601f19601f820116820180604052508101906114d19190614de3565b6040518263ffffffff1660e01b81526004016114ed919061569a565b60006040518083038186803b15801561150557600080fd5b505afa158015611519573d6000803e3d6000fd5b505050506040513d6000823e3d601f19601f820116820180604052508101906115429190614e24565b508091505060005b8273ffffffffffffffffffffffffffffffffffffffff1663056da0486040518163ffffffff1660e01b815260040160006040518083038186803b15801561159057600080fd5b505afa1580156115a4573d6000803e3d6000fd5b505050506040513d6000823e3d601f19601f820116820180604052508101906115cd9190614de3565b518110156116325760008282815181106115e357fe5b602002602001015114611625578181815181106115fc57fe5b602002602001015185878151811061161057fe5b60200260200101818152505085806001019650505b808060010191505061154a565b5050505b808060010191505061127b565b5050505050505050565b6116556145f6565b73ffffffffffffffffffffffffffffffffffffffff1660008054906101000a900473ffffffffffffffffffffffffffffffffffffffff1673ffffffffffffffffffffffffffffffffffffffff1614611715576040517f08c379a00000000000000000000000000000000000000000000000000000000081526004018080602001828103825260208152602001807f4f776e61626c653a2063616c6c6572206973206e6f7420746865206f776e657281525060200191505060405180910390fd5b80600460006101000a81548173ffffffffffffffffffffffffffffffffffffffff021916908373ffffffffffffffffffffffffffffffffffffffff16021790555050565b600073ffffffffffffffffffffffffffffffffffffffff168373ffffffffffffffffffffffffffffffffffffffff1614156117c9576040517f08c379a00000000000000000000000000000000000000000000000000000000081526004016117c09061571c565b60405180910390fd5b6000821161180c576040517f08c379a0000000000000000000000000000000000000000000000000000000008152600401611803906156dc565b60405180910390fd5b6000839050828173ffffffffffffffffffffffffffffffffffffffff1663dd62ed3e33306040518363ffffffff1660e01b815260040161184d92919061545e565b60206040518083038186803b15801561186557600080fd5b505afa158015611879573d6000803e3d6000fd5b505050506040513d601f19601f8201168201806040525081019061189d9190614f47565b10156118de576040517f08c379a00000000000000000000000000000000000000000000000000000000081526004016118d59061575c565b60405180910390fd5b600073ffffffffffffffffffffffffffffffffffffffff16600760003373ffffffffffffffffffffffffffffffffffffffff1673ffffffffffffffffffffffffffffffffffffffff16815260200190815260200160002060009054906101000a900473ffffffffffffffffffffffffffffffffffffffff1673ffffffffffffffffffffffffffffffffffffffff16141561197b5761197a612e57565b5b60019150811561198e5761198d6145fe565b5b61199784612966565b6119a084613ba4565b600360009054906101000a900473ffffffffffffffffffffffffffffffffffffffff1673ffffffffffffffffffffffffffffffffffffffff1663ae6418b585600760003373ffffffffffffffffffffffffffffffffffffffff1673ffffffffffffffffffffffffffffffffffffffff16815260200190815260200160002060009054906101000a900473ffffffffffffffffffffffffffffffffffffffff166040518363ffffffff1660e01b8152600401611a5c9291906154be565b600060405180830381600087803b158015611a7657600080fd5b505af1158015611a8a573d6000803e3d6000fd5b50505050611b5684611b5185600360009054906101000a900473ffffffffffffffffffffffffffffffffffffffff1673ffffffffffffffffffffffffffffffffffffffff1663d4fac45d89336040518363ffffffff1660e01b8152600401611af39291906154e7565b60206040518083038186803b158015611b0b57600080fd5b505afa158015611b1f573d6000803e3d6000fd5b505050506040513d601f19601f82011682018060405250810190611b439190614f47565b6146fe90919063ffffffff16565b613d21565b8073ffffffffffffffffffffffffffffffffffffffff166323b872dd33600360009054906101000a900473ffffffffffffffffffffffffffffffffffffffff16866040518463ffffffff1660e01b8152600401611bb593929190615487565b602060405180830381600087803b158015611bcf57600080fd5b505af1158015611be3573d6000803e3d6000fd5b505050506040513d601f19601f82011682018060405250810190611c079190614e78565b50600360009054906101000a900473ffffffffffffffffffffffffffffffffffffffff1673ffffffffffffffffffffffffffffffffffffffff16638340f54985600760003373ffffffffffffffffffffffffffffffffffffffff1673ffffffffffffffffffffffffffffffffffffffff16815260200190815260200160002060009054906101000a900473ffffffffffffffffffffffffffffffffffffffff16866040518463ffffffff1660e01b8152600401611cc693929190615510565b600060405180830381600087803b158015611ce057600080fd5b505af1158015611cf4573d6000803e3d6000fd5b5050505050505050565b6000600760003373ffffffffffffffffffffffffffffffffffffffff1673ffffffffffffffffffffffffffffffffffffffff16815260200190815260200160002060009054906101000a900473ffffffffffffffffffffffffffffffffffffffff1690508073ffffffffffffffffffffffffffffffffffffffff16634a5e42b1836040518263ffffffff1660e01b8152600401611d9b9190615443565b600060405180830381600087803b158015611db557600080fd5b505af1158015611dc9573d6000803e3d6000fd5b505050505050565b600073ffffffffffffffffffffffffffffffffffffffff16600760003373ffffffffffffffffffffffffffffffffffffffff1673ffffffffffffffffffffffffffffffffffffffff16815260200190815260200160002060009054906101000a900473ffffffffffffffffffffffffffffffffffffffff1673ffffffffffffffffffffffffffffffffffffffff161415611ea0576040517f08c379a0000000000000000000000000000000000000000000000000000000008152600401611e979061573c565b60405180910390fd5b6000600760003373ffffffffffffffffffffffffffffffffffffffff1673ffffffffffffffffffffffffffffffffffffffff16815260200190815260200160002060009054906101000a900473ffffffffffffffffffffffffffffffffffffffff1690508073ffffffffffffffffffffffffffffffffffffffff16634e75486a836040518263ffffffff1660e01b8152600401611f3d91906157bc565b600060405180830381600087803b158015611f5757600080fd5b505af1158015611f6b573d6000803e3d6000fd5b505050505050565b600073ffffffffffffffffffffffffffffffffffffffff16600760003373ffffffffffffffffffffffffffffffffffffffff1673ffffffffffffffffffffffffffffffffffffffff16815260200190815260200160002060009054906101000a900473ffffffffffffffffffffffffffffffffffffffff1673ffffffffffffffffffffffffffffffffffffffff161415612042576040517f08c379a00000000000000000000000000000000000000000000000000000000081526004016120399061573c565b60405180910390fd5b6000600760003373ffffffffffffffffffffffffffffffffffffffff1673ffffffffffffffffffffffffffffffffffffffff16815260200190815260200160002060009054906101000a900473ffffffffffffffffffffffffffffffffffffffff1690508073ffffffffffffffffffffffffffffffffffffffff166353b08df6836040518263ffffffff1660e01b81526004016120df91906157bc565b600060405180830381600087803b1580156120f957600080fd5b505af115801561210d573d6000803e3d6000fd5b505050505050565b61211d6145f6565b73ffffffffffffffffffffffffffffffffffffffff1660008054906101000a900473ffffffffffffffffffffffffffffffffffffffff1673ffffffffffffffffffffffffffffffffffffffff16146121dd576040517f08c379a00000000000000000000000000000000000000000000000000000000081526004018080602001828103825260208152602001807f4f776e61626c653a2063616c6c6572206973206e6f7420746865206f776e657281525060200191505060405180910390fd5b60008190508073ffffffffffffffffffffffffffffffffffffffff1663095ea7b3600360009054906101000a900473ffffffffffffffffffffffffffffffffffffffff167fffffffffffffffffffffffffffffffffffffffffffffffffffffffffffffffff6040518363ffffffff1660e01b815260040161225f9291906155af565b602060405180830381600087803b15801561227957600080fd5b505af115801561228d573d6000803e3d6000fd5b505050506040513d601f19601f820116820180604052508101906122b19190614e78565b505050565b6122be6145f6565b73ffffffffffffffffffffffffffffffffffffffff1660008054906101000a900473ffffffffffffffffffffffffffffffffffffffff1673ffffffffffffffffffffffffffffffffffffffff161461237e576040517f08c379a00000000000000000000000000000000000000000000000000000000081526004018080602001828103825260208152602001807f4f776e61626c653a2063616c6c6572206973206e6f7420746865206f776e657281525060200191505060405180910390fd5b8060088190555050565b600073ffffffffffffffffffffffffffffffffffffffff16600760003373ffffffffffffffffffffffffffffffffffffffff1673ffffffffffffffffffffffffffffffffffffffff16815260200190815260200160002060009054906101000a900473ffffffffffffffffffffffffffffffffffffffff1673ffffffffffffffffffffffffffffffffffffffff161415612457576040517f08c379a000000000000000000000000000000000000000000000000000000000815260040161244e9061573c565b60405180910390fd5b6000600760003373ffffffffffffffffffffffffffffffffffffffff1673ffffffffffffffffffffffffffffffffffffffff16815260200190815260200160002060009054906101000a900473ffffffffffffffffffffffffffffffffffffffff1690508073ffffffffffffffffffffffffffffffffffffffff16636de43cc284846040518363ffffffff1660e01b81526004016124f6929190615676565b600060405180830381600087803b15801561251057600080fd5b505af1158015612524573d6000803e3d6000fd5b50505050505050565b6125356145f6565b73ffffffffffffffffffffffffffffffffffffffff1660008054906101000a900473ffffffffffffffffffffffffffffffffffffffff1673ffffffffffffffffffffffffffffffffffffffff16146125f5576040517f08c379a00000000000000000000000000000000000000000000000000000000081526004018080602001828103825260208152602001807f4f776e61626c653a2063616c6c6572206973206e6f7420746865206f776e657281525060200191505060405180910390fd5b80600360006101000a81548173ffffffffffffffffffffffffffffffffffffffff021916908373ffffffffffffffffffffffffffffffffffffffff16021790555050565b565b6126436145f6565b73ffffffffffffffffffffffffffffffffffffffff1660008054906101000a900473ffffffffffffffffffffffffffffffffffffffff1673ffffffffffffffffffffffffffffffffffffffff1614612703576040517f08c379a00000000000000000000000000000000000000000000000000000000081526004018080602001828103825260208152602001807f4f776e61626c653a2063616c6c6572206973206e6f7420746865206f776e657281525060200191505060405180910390fd5b600073ffffffffffffffffffffffffffffffffffffffff1660008054906101000a900473ffffffffffffffffffffffffffffffffffffffff1673ffffffffffffffffffffffffffffffffffffffff167f8be0079c531659141344cd1fd0a4f28419497f9722a3daafe3b4186f6b6457e060405160405180910390a360008060006101000a81548173ffffffffffffffffffffffffffffffffffffffff021916908373ffffffffffffffffffffffffffffffffffffffff160217905550565b600073ffffffffffffffffffffffffffffffffffffffff16600760003373ffffffffffffffffffffffffffffffffffffffff1673ffffffffffffffffffffffffffffffffffffffff16815260200190815260200160002060009054906101000a900473ffffffffffffffffffffffffffffffffffffffff1673ffffffffffffffffffffffffffffffffffffffff161415612890576040517f08c379a00000000000000000000000000000000000000000000000000000000081526004016128879061573c565b60405180910390fd5b6000600760003373ffffffffffffffffffffffffffffffffffffffff1673ffffffffffffffffffffffffffffffffffffffff16815260200190815260200160002060009054906101000a900473ffffffffffffffffffffffffffffffffffffffff1690508073ffffffffffffffffffffffffffffffffffffffff16637a82794b84846040518363ffffffff1660e01b815260040161292f929190615676565b600060405180830381600087803b15801561294957600080fd5b505af115801561295d573d6000803e3d6000fd5b50505050505050565b6000600760003373ffffffffffffffffffffffffffffffffffffffff1673ffffffffffffffffffffffffffffffffffffffff16815260200190815260200160002060009054906101000a900473ffffffffffffffffffffffffffffffffffffffff1690508073ffffffffffffffffffffffffffffffffffffffff1663298410e5836040518263ffffffff1660e01b8152600401612a039190615443565b600060405180830381600087803b158015612a1d57600080fd5b505af1158015612a31573d6000803e3d6000fd5b505050505050565b60008073ffffffffffffffffffffffffffffffffffffffff16600760003373ffffffffffffffffffffffffffffffffffffffff1673ffffffffffffffffffffffffffffffffffffffff16815260200190815260200160002060009054906101000a900473ffffffffffffffffffffffffffffffffffffffff1673ffffffffffffffffffffffffffffffffffffffff161415612b09576040517f08c379a0000000000000000000000000000000000000000000000000000000008152600401612b009061573c565b60405180910390fd5b6000600760003373ffffffffffffffffffffffffffffffffffffffff1673ffffffffffffffffffffffffffffffffffffffff16815260200190815260200160002060009054906101000a900473ffffffffffffffffffffffffffffffffffffffff1690508073ffffffffffffffffffffffffffffffffffffffff16638da5cb5b6040518163ffffffff1660e01b815260040160206040518083038186803b158015612bb357600080fd5b505afa158015612bc7573d6000803e3d6000fd5b505050506040513d601f19601f82011682018060405250810190612beb9190614c68565b91505090565b612bf96145f6565b73ffffffffffffffffffffffffffffffffffffffff1660008054906101000a900473ffffffffffffffffffffffffffffffffffffffff1673ffffffffffffffffffffffffffffffffffffffff1614612cb9576040517f08c379a00000000000000000000000000000000000000000000000000000000081526004018080602001828103825260208152602001807f4f776e61626c653a2063616c6c6572206973206e6f7420746865206f776e657281525060200191505060405180910390fd5b60008190508073ffffffffffffffffffffffffffffffffffffffff1663fdff9b816040518163ffffffff1660e01b8152600401600060405180830381600087803b158015612d0657600080fd5b505af1158015612d1a573d6000803e3d6000fd5b505050505050565b60008060009054906101000a900473ffffffffffffffffffffffffffffffffffffffff16905090565b612d536145f6565b73ffffffffffffffffffffffffffffffffffffffff1660008054906101000a900473ffffffffffffffffffffffffffffffffffffffff1673ffffffffffffffffffffffffffffffffffffffff1614612e13576040517f08c379a00000000000000000000000000000000000000000000000000000000081526004018080602001828103825260208152602001807f4f776e61626c653a2063616c6c6572206973206e6f7420746865206f776e657281525060200191505060405180910390fd5b80600260006101000a81548173ffffffffffffffffffffffffffffffffffffffff021916908373ffffffffffffffffffffffffffffffffffffffff16021790555050565b600033604051602001612e6a9190615428565b604051602081830303815290604052805190602001209050612eae600460009054906101000a900473ffffffffffffffffffffffffffffffffffffffff1682614786565b600760003373ffffffffffffffffffffffffffffffffffffffff1673ffffffffffffffffffffffffffffffffffffffff16815260200190815260200160002060006101000a81548173ffffffffffffffffffffffffffffffffffffffff021916908373ffffffffffffffffffffffffffffffffffffffff1602179055506000600760003373ffffffffffffffffffffffffffffffffffffffff1673ffffffffffffffffffffffffffffffffffffffff16815260200190815260200160002060009054906101000a900473ffffffffffffffffffffffffffffffffffffffff1690508073ffffffffffffffffffffffffffffffffffffffff16638129fc1c6040518163ffffffff1660e01b8152600401600060405180830381600087803b158015612fd757600080fd5b505af1158015612feb573d6000803e3d6000fd5b505050505050565b612ffb6145f6565b73ffffffffffffffffffffffffffffffffffffffff1660008054906101000a900473ffffffffffffffffffffffffffffffffffffffff1673ffffffffffffffffffffffffffffffffffffffff16146130bb576040517f08c379a00000000000000000000000000000000000000000000000000000000081526004018080602001828103825260208152602001807f4f776e61626c653a2063616c6c6572206973206e6f7420746865206f776e657281525060200191505060405180910390fd5b80600160006101000a81548173ffffffffffffffffffffffffffffffffffffffff021916908373ffffffffffffffffffffffffffffffffffffffff16021790555050565b6131076145f6565b73ffffffffffffffffffffffffffffffffffffffff1660008054906101000a900473ffffffffffffffffffffffffffffffffffffffff1673ffffffffffffffffffffffffffffffffffffffff16146131c7576040517f08c379a00000000000000000000000000000000000000000000000000000000081526004018080602001828103825260208152602001807f4f776e61626c653a2063616c6c6572206973206e6f7420746865206f776e657281525060200191505060405180910390fd5b3373ffffffffffffffffffffffffffffffffffffffff166108fc479081150290604051600060405180830381858888f1935050505015801561320d573d6000803e3d6000fd5b50565b60085481565b600073ffffffffffffffffffffffffffffffffffffffff168173ffffffffffffffffffffffffffffffffffffffff16141561324f573390505b600081905060008173ffffffffffffffffffffffffffffffffffffffff1663056da0486040518163ffffffff1660e01b815260040160006040518083038186803b15801561329c57600080fd5b505afa1580156132b0573d6000803e3d6000fd5b505050506040513d6000823e3d601f19601f820116820180604052508101906132d99190614de3565b511415801561336c575060008173ffffffffffffffffffffffffffffffffffffffff166371a973056040518163ffffffff1660e01b815260040160006040518083038186803b15801561332b57600080fd5b505afa15801561333f573d6000803e3d6000fd5b505050506040513d6000823e3d601f19601f820116820180604052508101906133689190614d5d565b5114155b6133ab576040517f08c379a00000000000000000000000000000000000000000000000000000000081526004016133a29061577c565b60405180910390fd5b6060600160009054906101000a900473ffffffffffffffffffffffffffffffffffffffff1673ffffffffffffffffffffffffffffffffffffffff16635884472e8373ffffffffffffffffffffffffffffffffffffffff1663056da0486040518163ffffffff1660e01b815260040160006040518083038186803b15801561343157600080fd5b505afa158015613445573d6000803e3d6000fd5b505050506040513d6000823e3d601f19601f8201168201806040525081019061346e9190614de3565b6040518263ffffffff1660e01b815260040161348a919061569a565b60206040518083038186803b1580156134a257600080fd5b505afa1580156134b6573d6000803e3d6000fd5b505050506040513d601f19601f820116820180604052508101906134da9190614f47565b67ffffffffffffffff811180156134f057600080fd5b5060405190808252806020026020018201604052801561351f5781602001602082028036833780820191505090505b5090506000600160009054906101000a900473ffffffffffffffffffffffffffffffffffffffff1673ffffffffffffffffffffffffffffffffffffffff166368a4f5c28473ffffffffffffffffffffffffffffffffffffffff1663056da0486040518163ffffffff1660e01b815260040160006040518083038186803b1580156135a857600080fd5b505afa1580156135bc573d6000803e3d6000fd5b505050506040513d6000823e3d601f19601f820116820180604052508101906135e59190614de3565b6040518263ffffffff1660e01b8152600401613601919061569a565b60006040518083038186803b15801561361957600080fd5b505afa15801561362d573d6000803e3d6000fd5b505050506040513d6000823e3d601f19601f820116820180604052508101906136569190614e24565b8092508193505050600081116136a1576040517f08c379a00000000000000000000000000000000000000000000000000000000081526004016136989061579c565b60405180910390fd5b600080600260009054906101000a900473ffffffffffffffffffffffffffffffffffffffff1673ffffffffffffffffffffffffffffffffffffffff16638b1f3f5a84876040518363ffffffff1660e01b81526004016137019291906157d7565b604080518083038186803b15801561371857600080fd5b505afa15801561372c573d6000803e3d6000fd5b505050506040513d601f19601f820116820180604052508101906137509190614ea1565b809250819350505081613798576040517f08c379a000000000000000000000000000000000000000000000000000000000815260040161378f906156bc565b60405180910390fd5b6060601667ffffffffffffffff811180156137b257600080fd5b506040519080825280602002602001820160405280156137e15781602001602082028036833780820191505090505b50905060006060865167ffffffffffffffff8111801561380057600080fd5b5060405190808252806020026020018201604052801561383457816020015b606081526020019060019003908161381f5790505b50905060005b8751811015613908578873ffffffffffffffffffffffffffffffffffffffff1663e97b565389838151811061386b57fe5b60200260200101516040518263ffffffff1660e01b815260040161388f91906157bc565b60006040518083038186803b1580156138a757600080fd5b505afa1580156138bb573d6000803e3d6000fd5b505050506040513d6000823e3d601f19601f820116820180604052508101906138e49190614edd565b8282815181106138f057fe5b6020026020010181905250808060010191505061383a565b50600260009054906101000a900473ffffffffffffffffffffffffffffffffffffffff1673ffffffffffffffffffffffffffffffffffffffff1663d3e6e3e98588600660009054906101000a900473ffffffffffffffffffffffffffffffffffffffff166040518463ffffffff1660e01b815260040161398a939291906155d8565b60006040518083038186803b1580156139a257600080fd5b505afa1580156139b6573d6000803e3d6000fd5b505050506040513d6000823e3d601f19601f820116820180604052508101906139df9190614f70565b8094508193505050600260009054906101000a900473ffffffffffffffffffffffffffffffffffffffff1673ffffffffffffffffffffffffffffffffffffffff1663e2a7515e85600660009054906101000a900473ffffffffffffffffffffffffffffffffffffffff16858a8860006040518763ffffffff1660e01b8152600401613a6f96959493929190615547565b602060405180830381600087803b158015613a8957600080fd5b505af1158015613a9d573d6000803e3d6000fd5b505050506040513d601f19601f82011682018060405250810190613ac19190614f47565b50600160009054906101000a900473ffffffffffffffffffffffffffffffffffffffff1673ffffffffffffffffffffffffffffffffffffffff1663b7dcee078260006040518363ffffffff1660e01b8152600401613b20929190615646565b600060405180830381600087803b158015613b3a57600080fd5b505af1158015613b4e573d6000803e3d6000fd5b505050508773ffffffffffffffffffffffffffffffffffffffff166108fc479081150290604051600060405180830381858888f19350505050158015613b98573d6000803e3d6000fd5b50505050505050505050565b6000600760003373ffffffffffffffffffffffffffffffffffffffff1673ffffffffffffffffffffffffffffffffffffffff16815260200190815260200160002060009054906101000a900473ffffffffffffffffffffffffffffffffffffffff1690508073ffffffffffffffffffffffffffffffffffffffff1663daea85c5600360009054906101000a900473ffffffffffffffffffffffffffffffffffffffff1673ffffffffffffffffffffffffffffffffffffffff1663732a52ee856040518263ffffffff1660e01b8152600401613c7f9190615443565b60206040518083038186803b158015613c9757600080fd5b505afa158015613cab573d6000803e3d6000fd5b505050506040513d601f19601f82011682018060405250810190613ccf9190614c68565b6040518263ffffffff1660e01b8152600401613ceb9190615443565b600060405180830381600087803b158015613d0557600080fd5b505af1158015613d19573d6000803e3d6000fd5b505050505050565b600073ffffffffffffffffffffffffffffffffffffffff16600760003373ffffffffffffffffffffffffffffffffffffffff1673ffffffffffffffffffffffffffffffffffffffff16815260200190815260200160002060009054906101000a900473ffffffffffffffffffffffffffffffffffffffff1673ffffffffffffffffffffffffffffffffffffffff161415613df0576040517f08c379a0000000000000000000000000000000000000000000000000000000008152600401613de79061573c565b60405180910390fd5b6000600760003373ffffffffffffffffffffffffffffffffffffffff1673ffffffffffffffffffffffffffffffffffffffff16815260200190815260200160002060009054906101000a900473ffffffffffffffffffffffffffffffffffffffff1690508073ffffffffffffffffffffffffffffffffffffffff1663e30443bc84846040518363ffffffff1660e01b8152600401613e8f9291906155af565b602060405180830381600087803b158015613ea957600080fd5b505af1158015613ebd573d6000803e3d6000fd5b505050506040513d601f19601f82011682018060405250810190613ee19190614f47565b50505050565b613eef6145f6565b73ffffffffffffffffffffffffffffffffffffffff1660008054906101000a900473ffffffffffffffffffffffffffffffffffffffff1673ffffffffffffffffffffffffffffffffffffffff1614613faf576040517f08c379a00000000000000000000000000000000000000000000000000000000081526004018080602001828103825260208152602001807f4f776e61626c653a2063616c6c6572206973206e6f7420746865206f776e657281525060200191505060405180910390fd5b600073ffffffffffffffffffffffffffffffffffffffff168173ffffffffffffffffffffffffffffffffffffffff161415614035576040517f08c379a0000000000000000000000000000000000000000000000000000000008152600401808060200182810382526026815260200180615afd6026913960400191505060405180910390fd5b8073ffffffffffffffffffffffffffffffffffffffff1660008054906101000a900473ffffffffffffffffffffffffffffffffffffffff1673ffffffffffffffffffffffffffffffffffffffff167f8be0079c531659141344cd1fd0a4f28419497f9722a3daafe3b4186f6b6457e060405160405180910390a3806000806101000a81548173ffffffffffffffffffffffffffffffffffffffff021916908373ffffffffffffffffffffffffffffffffffffffff16021790555050565b600073ffffffffffffffffffffffffffffffffffffffff16600760003373ffffffffffffffffffffffffffffffffffffffff1673ffffffffffffffffffffffffffffffffffffffff16815260200190815260200160002060009054906101000a900473ffffffffffffffffffffffffffffffffffffffff1673ffffffffffffffffffffffffffffffffffffffff1614156141c1576040517f08c379a00000000000000000000000000000000000000000000000000000000081526004016141b89061573c565b60405180910390fd5b600073ffffffffffffffffffffffffffffffffffffffff168273ffffffffffffffffffffffffffffffffffffffff1614156141fb57600080fd5b6000811161423e576040517f08c379a0000000000000000000000000000000000000000000000000000000008152600401614235906156dc565b60405180910390fd5b6000600360009054906101000a900473ffffffffffffffffffffffffffffffffffffffff1673ffffffffffffffffffffffffffffffffffffffff1663c5d1aeb684336040518363ffffffff1660e01b815260040161429d9291906154e7565b60206040518083038186803b1580156142b557600080fd5b505afa1580156142c9573d6000803e3d6000fd5b505050506040513d601f19601f820116820180604052508101906142ed9190614f47565b905060008111614332576040517f08c379a0000000000000000000000000000000000000000000000000000000008152600401614329906156fc565b60405180910390fd5b60008183111561437e578192507fffffffffffffffffffffffffffffffffffffffffffffffffffffffffffffffff9050600091506143708483613d21565b61437984611cfe565b61439e565b82905061439d84614398858561489090919063ffffffff16565b613d21565b5b6000600360009054906101000a900473ffffffffffffffffffffffffffffffffffffffff1673ffffffffffffffffffffffffffffffffffffffff1663732a52ee866040518263ffffffff1660e01b81526004016143fb9190615443565b60206040518083038186803b15801561441357600080fd5b505afa158015614427573d6000803e3d6000fd5b505050506040513d601f19601f8201168201806040525081019061444b9190614c68565b90508073ffffffffffffffffffffffffffffffffffffffff166323b872dd600760003373ffffffffffffffffffffffffffffffffffffffff1673ffffffffffffffffffffffffffffffffffffffff16815260200190815260200160002060009054906101000a900473ffffffffffffffffffffffffffffffffffffffff16600360009054906101000a900473ffffffffffffffffffffffffffffffffffffffff16876040518463ffffffff1660e01b815260040161450b93929190615510565b602060405180830381600087803b15801561452557600080fd5b505af1158015614539573d6000803e3d6000fd5b505050506040513d601f19601f8201168201806040525081019061455d9190614e78565b50600360009054906101000a900473ffffffffffffffffffffffffffffffffffffffff1673ffffffffffffffffffffffffffffffffffffffff166369328dec8684336040518463ffffffff1660e01b81526004016145bd9392919061560f565b600060405180830381600087803b1580156145d757600080fd5b505af11580156145eb573d6000803e3d6000fd5b505050505050505050565b600033905090565b6000805b60058054905081101561468c573373ffffffffffffffffffffffffffffffffffffffff166005828154811061463357fe5b9060005260206000200160009054906101000a900473ffffffffffffffffffffffffffffffffffffffff1673ffffffffffffffffffffffffffffffffffffffff16141561467f57600191505b8080600101915050614602565b506000905080156146fb576005339080600181540180825580915050600190039060005260206000200160009091909190916101000a81548173ffffffffffffffffffffffffffffffffffffffff021916908373ffffffffffffffffffffffffffffffffffffffff1602179055505b50565b60008082840190508381101561477c576040517f08c379a000000000000000000000000000000000000000000000000000000000815260040180806020018281038252601b8152602001807f536166654d6174683a206164646974696f6e206f766572666c6f77000000000081525060200191505060405180910390fd5b8091505092915050565b60006040517f3d602d80600a3d3981f3363d3d373d3d3d363d7300000000000000000000000081528360601b60148201527f5af43d82803e903d91602b57fd5bf300000000000000000000000000000000006028820152826037826000f5915050600073ffffffffffffffffffffffffffffffffffffffff168173ffffffffffffffffffffffffffffffffffffffff16141561488a576040517f08c379a00000000000000000000000000000000000000000000000000000000081526004018080602001828103825260178152602001807f455243313136373a2063726561746532206661696c656400000000000000000081525060200191505060405180910390fd5b92915050565b60006148d283836040518060400160405280601e81526020017f536166654d6174683a207375627472616374696f6e206f766572666c6f7700008152506148da565b905092915050565b6000838311158290614987576040517f08c379a00000000000000000000000000000000000000000000000000000000081526004018080602001828103825283818151815260200191508051906020019080838360005b8381101561494c578082015181840152602081019050614931565b50505050905090810190601f1680156149795780820380516001836020036101000a031916815260200191505b509250505060405180910390fd5b5060008385039050809150509392505050565b6000813590506149a981615ab7565b92915050565b6000815190506149be81615ab7565b92915050565b600082601f8301126149d557600080fd5b81356149e86149e382615868565b615837565b91508181835260208401935060208101905083856020840282011115614a0d57600080fd5b60005b83811015614a3d5781614a23888261499a565b845260208401935060208301925050600181019050614a10565b5050505092915050565b600082601f830112614a5857600080fd5b8151614a6b614a6682615868565b615837565b91508181835260208401935060208101905083856020840282011115614a9057600080fd5b60005b83811015614ac05781614aa688826149af565b845260208401935060208301925050600181019050614a93565b5050505092915050565b60008083601f840112614adc57600080fd5b8235905067ffffffffffffffff811115614af557600080fd5b602083019150836020820283011115614b0d57600080fd5b9250929050565b600082601f830112614b2557600080fd5b8151614b38614b3382615894565b615837565b91508181835260208401935060208101905083856020840282011115614b5d57600080fd5b60005b83811015614b8d5781614b738882614c2a565b845260208401935060208301925050600181019050614b60565b5050505092915050565b600081359050614ba681615ace565b92915050565b600081519050614bbb81615ace565b92915050565b600082601f830112614bd257600080fd5b8151614be5614be0826158c0565b615837565b91508082526020830160208301858383011115614c0157600080fd5b614c0c838284615a40565b50505092915050565b600081359050614c2481615ae5565b92915050565b600081519050614c3981615ae5565b92915050565b600060208284031215614c5157600080fd5b6000614c5f8482850161499a565b91505092915050565b600060208284031215614c7a57600080fd5b6000614c88848285016149af565b91505092915050565b60008060408385031215614ca457600080fd5b6000614cb28582860161499a565b9250506020614cc385828601614c15565b9150509250929050565b600080600060608486031215614ce257600080fd5b6000614cf08682870161499a565b9350506020614d0186828701614c15565b9250506040614d1286828701614b97565b9150509250925092565b600060208284031215614d2e57600080fd5b600082013567ffffffffffffffff811115614d4857600080fd5b614d54848285016149c4565b91505092915050565b600060208284031215614d6f57600080fd5b600082015167ffffffffffffffff811115614d8957600080fd5b614d9584828501614a47565b91505092915050565b60008060208385031215614db157600080fd5b600083013567ffffffffffffffff811115614dcb57600080fd5b614dd785828601614aca565b92509250509250929050565b600060208284031215614df557600080fd5b600082015167ffffffffffffffff811115614e0f57600080fd5b614e1b84828501614b14565b91505092915050565b60008060408385031215614e3757600080fd5b600083015167ffffffffffffffff811115614e5157600080fd5b614e5d85828601614b14565b9250506020614e6e85828601614c2a565b9150509250929050565b600060208284031215614e8a57600080fd5b6000614e9884828501614bac565b91505092915050565b60008060408385031215614eb457600080fd5b6000614ec285828601614bac565b9250506020614ed3858286016149af565b9150509250929050565b600060208284031215614eef57600080fd5b600082015167ffffffffffffffff811115614f0957600080fd5b614f1584828501614bc1565b91505092915050565b600060208284031215614f3057600080fd5b6000614f3e84828501614c15565b91505092915050565b600060208284031215614f5957600080fd5b6000614f6784828501614c2a565b91505092915050565b60008060408385031215614f8357600080fd5b6000614f9185828601614c2a565b925050602083015167ffffffffffffffff811115614fae57600080fd5b614fba85828601614b14565b9150509250929050565b6000614fd0838361515f565b905092915050565b6000614fe4838361540a565b60208301905092915050565b614ff9816159e9565b82525050565b61501061500b826159a1565b615a73565b82525050565b61501f8161598f565b82525050565b600061503082615910565b61503a818561594b565b93508360208202850161504c856158f0565b8060005b8581101561508857848403895281516150698582614fc4565b945061507483615931565b925060208a01995050600181019050615050565b50829750879550505050505092915050565b60006150a6838561595c565b93507f07ffffffffffffffffffffffffffffffffffffffffffffffffffffffffffffff8311156150d557600080fd5b6020830292506150e6838584615a31565b82840190509392505050565b60006150fd8261591b565b615107818561595c565b935061511283615900565b8060005b8381101561514357815161512a8882614fd8565b97506151358361593e565b925050600181019050615116565b5085935050505092915050565b615159816159fb565b82525050565b600061516a82615926565b615174818561596d565b9350615184818560208601615a40565b61518d81615a99565b840191505092915050565b60006151a560108361597e565b91507f4e6f7420656e6f7567682066756e6473000000000000000000000000000000006000830152602082019050919050565b60006151e5601a8361597e565b91507f416d6f756e74206d757374206265206d6f7265207468616e20300000000000006000830152602082019050919050565b6000615225601b8361597e565b91507f4e6f2062616c616e6365206c65667420746f20776974686472617700000000006000830152602082019050919050565b600061526560288361597e565b91507f417373657420636f6e74726163742063616e277420626520746865207a65726f60008301527f20616464726573730000000000000000000000000000000000000000000000006020830152604082019050919050565b60006152cb600e8361597e565b91507f55736572206e6f7420666f756e640000000000000000000000000000000000006000830152602082019050919050565b600061530b60258361597e565b91507f55736572206e6f7420617070726f76656420746f2073656e642074686973206160008301527f6d6f756e740000000000000000000000000000000000000000000000000000006020830152604082019050919050565b600061537160288361597e565b91507f5573657220686173206e6f2066756e6473206f72206e6f206e616d657320726560008301527f67697374657265640000000000000000000000000000000000000000000000006020830152604082019050919050565b60006153d7601c8361597e565b91507f4e6f206e616d6573206172652064756520666f722072656e6577616c000000006000830152602082019050919050565b615413816159df565b82525050565b615422816159df565b82525050565b60006154348284614fff565b60148201915081905092915050565b60006020820190506154586000830184615016565b92915050565b60006040820190506154736000830185614ff0565b6154806020830184614ff0565b9392505050565b600060608201905061549c6000830186614ff0565b6154a96020830185615016565b6154b66040830184615419565b949350505050565b60006040820190506154d36000830185615016565b6154e06020830184615016565b9392505050565b60006040820190506154fc6000830185615016565b6155096020830184614ff0565b9392505050565b60006060820190506155256000830186615016565b6155326020830185615016565b61553f6040830184615419565b949350505050565b600060c08201905061555c6000830189615016565b6155696020830188615016565b6155766040830187615419565b6155836060830186615419565b818103608083015261559581856150f2565b90506155a460a0830184615150565b979650505050505050565b60006040820190506155c46000830185615016565b6155d16020830184615419565b9392505050565b60006060820190506155ed6000830186615016565b6155fa6020830185615419565b6156076040830184615016565b949350505050565b60006060820190506156246000830186615016565b6156316020830185615419565b61563e6040830184614ff0565b949350505050565b600060408201905081810360008301526156608185615025565b905061566f6020830184615150565b9392505050565b6000602082019050818103600083015261569181848661509a565b90509392505050565b600060208201905081810360008301526156b481846150f2565b905092915050565b600060208201905081810360008301526156d581615198565b9050919050565b600060208201905081810360008301526156f5816151d8565b9050919050565b6000602082019050818103600083015261571581615218565b9050919050565b6000602082019050818103600083015261573581615258565b9050919050565b60006020820190508181036000830152615755816152be565b9050919050565b60006020820190508181036000830152615775816152fe565b9050919050565b6000602082019050818103600083015261579581615364565b9050919050565b600060208201905081810360008301526157b5816153ca565b9050919050565b60006020820190506157d16000830184615419565b92915050565b60006040820190506157ec6000830185615419565b6157f96020830184615016565b9392505050565b60006060820190506158156000830186615419565b6158226020830185615016565b61582f6040830184615016565b949350505050565b6000604051905081810181811067ffffffffffffffff8211171561585e5761585d615a97565b5b8060405250919050565b600067ffffffffffffffff82111561588357615882615a97565b5b602082029050602081019050919050565b600067ffffffffffffffff8211156158af576158ae615a97565b5b602082029050602081019050919050565b600067ffffffffffffffff8211156158db576158da615a97565b5b601f19601f8301169050602081019050919050565b6000819050602082019050919050565b6000819050602082019050919050565b600081519050919050565b600081519050919050565b600081519050919050565b6000602082019050919050565b6000602082019050919050565b600082825260208201905092915050565b600082825260208201905092915050565b600082825260208201905092915050565b600082825260208201905092915050565b600061599a826159bf565b9050919050565b60006159ac826159bf565b9050919050565b60008115159050919050565b600073ffffffffffffffffffffffffffffffffffffffff82169050919050565b6000819050919050565b60006159f482615a0d565b9050919050565b6000615a06826159df565b9050919050565b6000615a1882615a1f565b9050919050565b6000615a2a826159bf565b9050919050565b82818337600083830152505050565b60005b83811015615a5e578082015181840152602081019050615a43565b83811115615a6d576000848401525b50505050565b6000615a7e82615a85565b9050919050565b6000615a9082615aaa565b9050919050565bfe5b6000601f19601f8301169050919050565b60008160601b9050919050565b615ac08161598f565b8114615acb57600080fd5b50565b615ad7816159b3565b8114615ae257600080fd5b50565b615aee816159df565b8114615af957600080fd5b5056fe4f776e61626c653a206e6577206f776e657220697320746865207a65726f2061646472657373a26469706673582212202dd6e300c71da7e3340dfbd87078b94aaac3bf3a551d7bd1f3acdc779a074ce864736f6c63430007040033",
  "immutableReferences": {},
  "source": "// SPDX-License-Identifier: MIT\r\npragma solidity ^0.7.4;\r\npragma experimental ABIEncoderV2;\r\n\r\nimport \"@openzeppelin/contracts/math/SafeMath.sol\";\r\nimport \"@openzeppelin/contracts/access/Ownable.sol\";\r\nimport \"@openzeppelin/contracts/proxy/Clones.sol\";\r\nimport \"@openzeppelin/contracts/token/ERC20/IERC20.sol\";\r\nimport \"interfaces/INameManager.sol\";\r\nimport \"interfaces/IInvestmentManager.sol\";\r\nimport \"interfaces/IExchangeManager.sol\";\r\nimport \"interfaces/IUserVault.sol\";\r\n//import \"interfaces/ENS_BulkRenewal.sol\";\r\n//import \"interfaces/ENS_Resolver.sol\";\r\n\r\n/// @title StakeYourName - Main Contract\r\n/// @notice Handles interations between the users and\r\n/// @notice other StakeYourName contracts.\r\n/// @author Daniel Chilvers\r\n\r\ncontract StakeYourName is Ownable {\r\n\r\n    NameManager nameManager;\r\n    ExchangeManager exchangeManager;\r\n    InvestmentManager investmentManager;\r\n\r\n    \r\n    constructor() {\r\n        /// @dev TO:DO set deployment addresses of the managers in here.\r\n\r\n    }\r\n\r\n    using SafeMath for uint256;\r\n    address internal masterVault;\r\n    address[] internal users;\r\n    address internal zeroAddress = 0x0000000000000000000000000000000000000000;\r\n    mapping (address => address) internal vault;\r\n    uint256 public referralCode = 0;\r\n    uint256 constant MAX_INT = type(uint256).max;\r\n    uint256 internal MIN_APPROVAL = type(uint256).max/2;\r\n    uint256 internal recordNumber;\r\n    uint256 internal recordIncrement = 100;\r\n\r\n    struct Renewals{\r\n        string[] names;\r\n        address user;\r\n        uint256 cost;\r\n    }\r\n\r\n    /// @notice only allow users with an active vault to do these functions\r\n    modifier onlyUser() {\r\n        require(vault[msg.sender] != address(0), \"User not found\");\r\n        _;\r\n    }\r\n\r\n    /******************************************** \r\n    *                                           *\r\n    *   User functions                          *\r\n    *                                           *\r\n    ********************************************/\r\n\r\n    function addName(uint256 _name) external onlyUser {\r\n        UserVault _userVault = UserVault(vault[msg.sender]);\r\n        _userVault.addName(_name);\r\n    }\r\n\r\n    function addMultipleNames(uint256[] calldata _names) external onlyUser {\r\n        UserVault _userVault = UserVault(vault[msg.sender]);\r\n        _userVault.addMultipleNames(_names);\r\n    }\r\n\r\n    function removeName(uint256 _name) external onlyUser {\r\n        UserVault _userVault = UserVault(vault[msg.sender]);\r\n        _userVault.removeName(_name);        \r\n    }\r\n\r\n    function removeMultipleNames(uint256[] calldata _names) external onlyUser {\r\n        UserVault _userVault = UserVault(vault[msg.sender]);\r\n        _userVault.removeMultipleNames(_names);\r\n    }\r\n\r\n    /// @notice deposits tokens to the Aave LendingPool contract\r\n    /// @notice updates vault with new balance\r\n    /// @param _asset the contract address of the token to deposit\r\n    /// @param _amount the amount to deposit in wei\r\n    /// @param _newUser if true this user is added to the userList\r\n    function deposit(address _asset, uint256 _amount, bool _newUser) external {\r\n        require(_asset != address(0), \"Asset contract can't be the zero address\");\r\n        require(_amount > 0, \"Amount must be more than 0\");\r\n        IERC20 _erc20 = IERC20(_asset);\r\n        require( _erc20.allowance(msg.sender, address(this)) >= _amount, \"User not approved to send this amount\");\r\n        if (vault[msg.sender] == address(0)){\r\n            deployVault();\r\n        }\r\n        if (_newUser = true){addUser();}\r\n        vaultAddAsset(_asset);\r\n        approveVault(_asset);\r\n        investmentManager.approveLendingPool(_asset, vault[msg.sender]);\r\n        setBalance(_asset, investmentManager.getBalance(_asset, msg.sender).add(_amount));\r\n        _erc20.transferFrom(msg.sender, address(investmentManager), _amount);\r\n        investmentManager.deposit(_asset, vault[msg.sender], _amount);\r\n    }\r\n\r\n    /// @notice withdraw tokens from the Aave LendingPool contract\r\n    /// @notice updates vault with new balance\r\n    /// @param _asset the contract address of the token to deposit\r\n    /// @param _amount the amount to deposit in wei\r\n    function withdraw(address _asset, uint256 _amount) external onlyUser {\r\n        require(_asset != address(0));\r\n        require(_amount > 0, \"Amount must be more than 0\");\r\n        uint256 _balance = investmentManager.getTotal(_asset, msg.sender);\r\n        require(_balance > 0, \"No balance left to withdraw\");\r\n        uint256 _transfer = 0;\r\n        if (_amount > _balance) {\r\n            _amount = _balance;\r\n            _transfer = MAX_INT;\r\n            _balance = 0;\r\n            setBalance(_asset, _balance);\r\n            vaultRemoveAsset(_asset);\r\n        } else {\r\n            _transfer = _amount;\r\n            setBalance(_asset, _balance.sub(_amount));\r\n        }\r\n        IERC20 _erc20 = IERC20(investmentManager.getAToken(_asset));\r\n        _erc20.transferFrom(vault[msg.sender], address(investmentManager), _amount);\r\n        investmentManager.withdraw(_asset, _transfer, msg.sender);\r\n    }\r\n\r\n    /******************************************** \r\n    *                                           *\r\n    *   User Vault deployment and functions.    *\r\n    *                                           *\r\n    ********************************************/\r\n\r\n    /// @notice clone the master vault contract\r\n    function deployVault() public{\r\n        bytes32 _salt = keccak256(abi.encodePacked(msg.sender));\r\n        vault[msg.sender] = Clones.cloneDeterministic(masterVault, _salt);\r\n        UserVault _userVault = UserVault(vault[msg.sender]);\r\n        _userVault.initialize();\r\n    }\r\n\r\n    function setMasterVault(address _vault) public onlyOwner {\r\n        masterVault = _vault;\r\n    }\r\n    function setBalance(address _asset, uint256 _balance) public onlyUser{\r\n        UserVault _userVault = UserVault(vault[msg.sender]);\r\n        _userVault.setBalance(_asset, _balance);\r\n    }\r\n    function findVault(address _vault) public view returns(address){\r\n        return vault[_vault];\r\n    }\r\n    function approveVault(address _asset) public {\r\n        UserVault _userVault = UserVault(vault[msg.sender]);\r\n        _userVault.approve(investmentManager.getAToken(_asset));\r\n    }\r\n    function vaultAddAsset(address _asset) public {\r\n        UserVault _userVault = UserVault(vault[msg.sender]);\r\n        _userVault.addAsset(_asset);\r\n    }\r\n    function vaultRemoveAsset(address _asset) public {\r\n        UserVault _userVault = UserVault(vault[msg.sender]);\r\n        _userVault.removeAsset(_asset);\r\n    }\r\n\r\n    function addUser() internal {\r\n        bool _found = false;\r\n        for (uint256 i; i < users.length; i++){\r\n            if(users[i] == msg.sender){\r\n                _found = true;\r\n            }\r\n        }\r\n        if (_found = false){\r\n            users.push(msg.sender); \r\n        }       \r\n    }\r\n\r\n    /// @dev this is stupid, it'll always return msg.sender (hopefully)\r\n    function getOwner() public view onlyUser returns(address){\r\n        UserVault _userVault = UserVault(vault[msg.sender]);\r\n        return _userVault.owner();\r\n    }\r\n\r\n    /******************************************** \r\n    *                                           *\r\n    *   Name functions                          *\r\n    *                                           *\r\n    ********************************************/\r\n\r\n    function renewNames(address _user) public {\r\n        if (_user == address(0)){\r\n            _user = msg.sender;\r\n        }\r\n        UserVault _userVault = UserVault(_user);\r\n        require(_userVault.names().length != 0 && _userVault.assets().length != 0, \"User has no funds or no names registered\");\r\n        uint256[] memory _names = new uint256[](nameManager.countRenewals(_userVault.names()));\r\n        uint256 _cost;\r\n        (_names,_cost) = nameManager.checkForRenewals(_userVault.names());\r\n        require(_cost > 0, \"No names are due for renewal\");\r\n        bool _success;\r\n        address _asset;\r\n        (_success, _asset) = exchangeManager.estimateFunds(_cost, address(_userVault));\r\n        require(_success,\"Not enough funds\");\r\n        uint256[] memory _distribution = new uint256[](22);\r\n        uint256 _inputValue;\r\n        string[] memory _readableNames = new string[](_names.length);\r\n        for(uint256 i; i < _names.length; i++){\r\n            _readableNames[i] = _userVault.readableName(_names[i]);\r\n        }\r\n        (_inputValue,_distribution) = exchangeManager.getExchangePrice(_asset, _cost, zeroAddress);\r\n        exchangeManager.swap(_asset, zeroAddress, _inputValue, _cost, _distribution, 0);\r\n        nameManager.executeBulkRenewal(_readableNames, 0);\r\n        payable(address(_userVault)).transfer(address(this).balance);\r\n    }\r\n\r\n    /// @dev lets check each user to see if they have any names that need renewing\r\n    /// @dev then check if that user has the funds to pay for the names\r\n    /// @dev if they do then add them to be processed, otherwise leave it for later.\r\n    function renewNamesGroupingUsers() public view {\r\n        bool _success = false;\r\n        address _asset;\r\n        uint256[] memory _costs = new uint256[](users.length);\r\n        address[] memory _users = new address[](users.length);\r\n        //Renewals memory _renewals;\r\n\r\n        // iterate through the whole user list\r\n        for(uint256 i; i < users.length; i++){\r\n            UserVault _userVault = UserVault(vault[users[i]]);\r\n            // check they have names and assets in the vault, otherwise move on\r\n            if(_userVault.names().length != 0 && _userVault.assets().length != 0){\r\n                uint256 _cost;\r\n                // if we haven't found any renewals yet lets check if this user has the funds to renew a name\r\n                if(_success == false){\r\n                    (,_costs[0]) = nameManager.checkForRenewals(_userVault.names());\r\n                    (_success, _asset) = exchangeManager.estimateFunds(_cost, users[i]);\r\n                    _users[0] = users[i];\r\n                } else {\r\n                    // lets find more users with a matching asset that needs a renewal\r\n                    for(uint256 j = 0 ; j < _userVault.assets().length; j++){\r\n                        if (_userVault.assets()[i] == _asset){\r\n                            uint256 _addCost;\r\n                            (,_addCost) = nameManager.checkForRenewals(_userVault.names());\r\n                            if(exchangeManager.estimateSpecificAssetFunds(_addCost,users[i],_asset)){\r\n                                _users[j+1] = users[i];\r\n                                _costs[j+1] = _addCost;\r\n                            }\r\n                        }\r\n                    }\r\n                }\r\n            } \r\n        }\r\n        // we now have an array _users that contains all the users that need renewals and \r\n        // can afford to pay with _asset, the respective costs of renewal are in _costs\r\n        // lets assemble the big name list\r\n        uint256 _count = countRenewals(_users);\r\n        uint256 l = 0;\r\n        uint256[] memory _names = new uint256[](_count);\r\n        for (uint256 i; i < _users.length ; i++){\r\n            if(_users[i] != address(0)) {\r\n                UserVault _userVault = UserVault(vault[_users[i]]);\r\n                uint256[] memory _userNames = new uint256[](_userVault.names().length);\r\n                (_userNames, ) = nameManager.checkForRenewals(_userVault.names());\r\n                for(uint256 k; k < _userVault.names().length; k++){\r\n                    if(_userNames[k] != 0){\r\n                        _names[l] = _userNames[k];\r\n                        l++ ;\r\n                    }\r\n                    \r\n                }\r\n                \r\n            }\r\n        }\r\n        // executeExchangeSwap\r\n        // convert _names to strings\r\n        // nameManager.executeBulkRenewal(_names, 0);\r\n\r\n    }\r\n\r\n    function countRenewals(address[] memory _users) public view returns(uint256 _count) {\r\n        for (uint256 i; i < _users.length; i++){\r\n            UserVault _userVault = UserVault(vault[users[i]]);\r\n            (,uint256 _add) = nameManager.checkForRenewals(_userVault.names());\r\n            _count = _count + _add;\r\n        }\r\n    }\r\n\r\n    /******************************************** \r\n    *                                           *\r\n    *   Exchange functions                      *\r\n    *                                           *\r\n    ********************************************/\r\n/*\r\n    function checkAvailiableFunds(uint256 _cost, address _user) public view returns(bool _accept, address _token, uint256[] memory _distribution){\r\n        UserVault _userVault = UserVault(vault[_user]);\r\n        uint256[] memory _distributionArray = new uint256[](22);\r\n        uint256 _price;\r\n        for (uint256 i; i < _userVault.assets().length; i++){\r\n            (_price, _distributionArray) = exchangeManager.getExchangePrice(_userVault.assets()[i] , _cost, zeroAddress);\r\n            if(_price != 0){\r\n                return (true, _userVault.assets()[i], _distributionArray);\r\n            }\r\n        }\r\n        return (false, zeroAddress, _distributionArray);\r\n    }\r\n*/\r\n    function swapAssets() public view {\r\n\r\n    }\r\n\r\n    /******************************************** \r\n    *                                           *\r\n    *   Admin functions                         *\r\n    *                                           *\r\n    ********************************************/\r\n\r\n    receive() external payable {}\r\n\r\n    function updateReferral(uint256 _ref) external onlyOwner {\r\n        referralCode = _ref;\r\n    }\r\n\r\n\r\n    /******************************************** \r\n    *                                           *\r\n    *   Test and/or temporary functions.        *\r\n    *                                           *\r\n    ********************************************/\r\n\r\n    function setNameManager(address _address) external onlyOwner {\r\n        nameManager = NameManager(_address);\r\n    }\r\n    function setExchangeManager(address _address) external onlyOwner {\r\n        exchangeManager = ExchangeManager(_address);\r\n    }\r\n    function setInvestmentManager(address _address) external onlyOwner {\r\n        investmentManager = InvestmentManager(_address);\r\n    }\r\n    function approveInvestmentManager(address _asset) public onlyOwner {\r\n        IERC20 _erc20 = IERC20(_asset);\r\n        _erc20.approve(address(investmentManager), MAX_INT);\r\n    }\r\n\r\n    /// @notice do not use this contract if this still exists\r\n    function retrieveETH() public onlyOwner {\r\n        //nameManager.retrieveETH();\r\n        //exchangeManager.retrieveETH();\r\n        //investmentManager.retrieveETH();\r\n        msg.sender.transfer(address(this).balance);\r\n    }\r\n\r\n    /// @notice do not use this contract if this still exists\r\n    function emptyVault(address _vault) public onlyOwner {\r\n        UserVault _userVault = UserVault(_vault);\r\n        _userVault.collectETH();\r\n    }\r\n\r\n}",
  "sourcePath": "C:/Users/anyth/Documents/GitHub/StakeYourName/contracts/StakeYourName.sol",
  "compiler": {
    "name": "solc",
    "version": "0.7.4+commit.3f05b770.Emscripten.clang"
  },
  "schemaVersion": "3.3.3",
  "updatedAt": "2021-01-30T15:17:40.756Z",
  "networkType": "ethereum",
  "devdoc": {
    "author": "Daniel Chilvers",
    "kind": "dev",
    "methods": {
      "deposit(address,uint256,bool)": {
        "params": {
          "_amount": "the amount to deposit in wei",
          "_asset": "the contract address of the token to deposit",
          "_newUser": "if true this user is added to the userList"
        }
      },
      "getOwner()": {
        "details": "this is stupid, it'll always return msg.sender (hopefully)"
      },
      "owner()": {
        "details": "Returns the address of the current owner."
      },
      "renewNamesGroupingUsers()": {
        "details": "lets check each user to see if they have any names that need renewingthen check if that user has the funds to pay for the namesif they do then add them to be processed, otherwise leave it for later."
      },
      "renounceOwnership()": {
        "details": "Leaves the contract without owner. It will not be possible to call `onlyOwner` functions anymore. Can only be called by the current owner. NOTE: Renouncing ownership will leave the contract without an owner, thereby removing any functionality that is only available to the owner."
      },
      "transferOwnership(address)": {
        "details": "Transfers ownership of the contract to a new account (`newOwner`). Can only be called by the current owner."
      },
      "withdraw(address,uint256)": {
        "params": {
          "_amount": "the amount to deposit in wei",
          "_asset": "the contract address of the token to deposit"
        }
      }
    },
    "title": "StakeYourName - Main Contract",
    "version": 1
  },
  "userdoc": {
    "kind": "user",
    "methods": {
      "deployVault()": {
        "notice": "clone the master vault contract"
      },
      "deposit(address,uint256,bool)": {
        "notice": "deposits tokens to the Aave LendingPool contractupdates vault with new balance"
      },
      "emptyVault(address)": {
        "notice": "do not use this contract if this still exists"
      },
      "retrieveETH()": {
        "notice": "do not use this contract if this still exists"
      },
      "withdraw(address,uint256)": {
        "notice": "withdraw tokens from the Aave LendingPool contractupdates vault with new balance"
      }
    },
    "notice": "Handles interations between the users andother StakeYourName contracts.",
    "version": 1
  }
}