{
  "contractName": "StakeYourName",
  "abi": [
    {
      "inputs": [],
      "stateMutability": "nonpayable",
      "type": "constructor"
    },
    {
      "anonymous": false,
      "inputs": [
        {
          "indexed": true,
          "internalType": "address",
          "name": "previousOwner",
          "type": "address"
        },
        {
          "indexed": true,
          "internalType": "address",
          "name": "newOwner",
          "type": "address"
        }
      ],
      "name": "OwnershipTransferred",
      "type": "event"
    },
    {
      "inputs": [],
      "name": "owner",
      "outputs": [
        {
          "internalType": "address",
          "name": "",
          "type": "address"
        }
      ],
      "stateMutability": "view",
      "type": "function",
      "constant": true
    },
    {
      "inputs": [],
      "name": "referralCode",
      "outputs": [
        {
          "internalType": "uint256",
          "name": "",
          "type": "uint256"
        }
      ],
      "stateMutability": "view",
      "type": "function",
      "constant": true
    },
    {
      "inputs": [],
      "name": "renounceOwnership",
      "outputs": [],
      "stateMutability": "nonpayable",
      "type": "function"
    },
    {
      "inputs": [
        {
          "internalType": "address",
          "name": "newOwner",
          "type": "address"
        }
      ],
      "name": "transferOwnership",
      "outputs": [],
      "stateMutability": "nonpayable",
      "type": "function"
    },
    {
      "inputs": [
        {
          "internalType": "address",
          "name": "_asset",
          "type": "address"
        },
        {
          "internalType": "uint256",
          "name": "_amount",
          "type": "uint256"
        },
        {
          "internalType": "bool",
          "name": "_max",
          "type": "bool"
        }
      ],
      "name": "approve",
      "outputs": [],
      "stateMutability": "nonpayable",
      "type": "function"
    },
    {
      "inputs": [
        {
          "internalType": "address",
          "name": "_asset",
          "type": "address"
        },
        {
          "internalType": "uint256",
          "name": "_amount",
          "type": "uint256"
        }
      ],
      "name": "deposit",
      "outputs": [],
      "stateMutability": "nonpayable",
      "type": "function"
    },
    {
      "inputs": [
        {
          "internalType": "address",
          "name": "_asset",
          "type": "address"
        },
        {
          "internalType": "uint256",
          "name": "_amount",
          "type": "uint256"
        }
      ],
      "name": "withdraw",
      "outputs": [],
      "stateMutability": "nonpayable",
      "type": "function"
    },
    {
      "inputs": [],
      "name": "deployVault",
      "outputs": [],
      "stateMutability": "nonpayable",
      "type": "function"
    },
    {
      "inputs": [
        {
          "internalType": "address",
          "name": "_vault",
          "type": "address"
        }
      ],
      "name": "setMasterVault",
      "outputs": [],
      "stateMutability": "nonpayable",
      "type": "function"
    },
    {
      "inputs": [
        {
          "internalType": "address",
          "name": "_asset",
          "type": "address"
        },
        {
          "internalType": "uint256",
          "name": "_balance",
          "type": "uint256"
        }
      ],
      "name": "setBalance",
      "outputs": [],
      "stateMutability": "nonpayable",
      "type": "function"
    },
    {
      "inputs": [
        {
          "internalType": "address",
          "name": "_asset",
          "type": "address"
        }
      ],
      "name": "getBalance",
      "outputs": [
        {
          "internalType": "uint256",
          "name": "",
          "type": "uint256"
        }
      ],
      "stateMutability": "view",
      "type": "function",
      "constant": true
    },
    {
      "inputs": [
        {
          "internalType": "address",
          "name": "_asset",
          "type": "address"
        }
      ],
      "name": "getInterest",
      "outputs": [
        {
          "internalType": "uint256",
          "name": "",
          "type": "uint256"
        }
      ],
      "stateMutability": "view",
      "type": "function",
      "constant": true
    },
    {
      "inputs": [
        {
          "internalType": "address",
          "name": "_asset",
          "type": "address"
        }
      ],
      "name": "getTotal",
      "outputs": [
        {
          "internalType": "uint256",
          "name": "",
          "type": "uint256"
        }
      ],
      "stateMutability": "view",
      "type": "function",
      "constant": true
    },
    {
      "inputs": [
        {
          "internalType": "address",
          "name": "_vault",
          "type": "address"
        }
      ],
      "name": "findVault",
      "outputs": [
        {
          "internalType": "address",
          "name": "",
          "type": "address"
        }
      ],
      "stateMutability": "view",
      "type": "function",
      "constant": true
    },
    {
      "inputs": [
        {
          "internalType": "address",
          "name": "_asset",
          "type": "address"
        }
      ],
      "name": "approveVault",
      "outputs": [],
      "stateMutability": "nonpayable",
      "type": "function"
    },
    {
      "inputs": [],
      "name": "getOwner",
      "outputs": [
        {
          "internalType": "address",
          "name": "",
          "type": "address"
        }
      ],
      "stateMutability": "view",
      "type": "function",
      "constant": true
    },
    {
      "inputs": [
        {
          "internalType": "uint256",
          "name": "_ref",
          "type": "uint256"
        }
      ],
      "name": "updateReferral",
      "outputs": [],
      "stateMutability": "nonpayable",
      "type": "function"
    },
    {
      "inputs": [
        {
          "internalType": "address",
          "name": "_address",
          "type": "address"
        }
      ],
      "name": "setNameManager",
      "outputs": [],
      "stateMutability": "nonpayable",
      "type": "function"
    },
    {
      "inputs": [
        {
          "internalType": "address",
          "name": "_address",
          "type": "address"
        }
      ],
      "name": "setExchangeManager",
      "outputs": [],
      "stateMutability": "nonpayable",
      "type": "function"
    },
    {
      "inputs": [
        {
          "internalType": "address",
          "name": "_address",
          "type": "address"
        }
      ],
      "name": "setInvestmentManager",
      "outputs": [],
      "stateMutability": "nonpayable",
      "type": "function"
    },
    {
      "inputs": [
        {
          "internalType": "address",
          "name": "_asset",
          "type": "address"
        }
      ],
      "name": "approveInvestmentManager",
      "outputs": [],
      "stateMutability": "nonpayable",
      "type": "function"
    }
  ],
  "bytecode": "0x6080604052600060065534801561001557600080fd5b5060006100266100c960201b60201c565b9050806000806101000a81548173ffffffffffffffffffffffffffffffffffffffff021916908373ffffffffffffffffffffffffffffffffffffffff1602179055508073ffffffffffffffffffffffffffffffffffffffff16600073ffffffffffffffffffffffffffffffffffffffff167f8be0079c531659141344cd1fd0a4f28419497f9722a3daafe3b4186f6b6457e060405160405180910390a3506100d1565b600033905090565b612c8680620000e16000396000f3fe608060405234801561001057600080fd5b50600436106101375760003560e01c80638da5cb5b116100b8578063e0cc0d681161007c578063e0cc0d68146102ea578063e30443bc14610306578063ebb6dad814610322578063f2fde38b14610352578063f3fef3a31461036e578063f8b2cb4f1461038a57610137565b80638da5cb5b1461026c5780638e73f8741461028a578063901c4e4f146102a6578063ce1ee2c2146102b0578063d8b6d252146102cc57610137565b806366d626eb116100ff57806366d626eb146101dc5780636de5de0f146101f8578063715018a6146102145780637aaa34701461021e578063893d20e81461024e57610137565b806302df75401461013c57806307ce29a71461016c5780630fa731661461018857806347e7ef24146101a457806358783880146101c0575b600080fd5b610156600480360381019061015191906125f0565b6103ba565b60405161016391906128dc565b60405180910390f35b6101866004803603810190610181919061267e565b610423565b005b6101a2600480360381019061019d91906125f0565b610639565b005b6101be60048036038101906101b99190612642565b610745565b005b6101da60048036038101906101d591906125f0565b6109a8565b005b6101f660048036038101906101f191906126f6565b610b49565b005b610212600480360381019061020d91906125f0565b610c1b565b005b61021c610d27565b005b610238600480360381019061023391906125f0565b610ead565b6040516102459190612af8565b60405180910390f35b6102566110b0565b60405161026391906128dc565b60405180910390f35b610274611268565b60405161028191906128dc565b60405180910390f35b6102a4600480360381019061029f91906125f0565b611291565b005b6102ae61139d565b005b6102ca60048036038101906102c591906125f0565b611539565b005b6102d4611645565b6040516102e19190612af8565b60405180910390f35b61030460048036038101906102ff91906125f0565b61164b565b005b610320600480360381019061031b9190612642565b6117c8565b005b61033c600480360381019061033791906125f0565b61198e565b6040516103499190612af8565b60405180910390f35b61036c600480360381019061036791906125f0565b611b77565b005b61038860048036038101906103839190612642565b611d82565b005b6103a4600480360381019061039f91906125f0565b612109565b6040516103b19190612af8565b60405180910390f35b6000600560008373ffffffffffffffffffffffffffffffffffffffff1673ffffffffffffffffffffffffffffffffffffffff16815260200190815260200160002060009054906101000a900473ffffffffffffffffffffffffffffffffffffffff169050919050565b600073ffffffffffffffffffffffffffffffffffffffff168373ffffffffffffffffffffffffffffffffffffffff161415610493576040517f08c379a000000000000000000000000000000000000000000000000000000000815260040161048a90612ab8565b60405180910390fd5b600073ffffffffffffffffffffffffffffffffffffffff16600560003373ffffffffffffffffffffffffffffffffffffffff1673ffffffffffffffffffffffffffffffffffffffff16815260200190815260200160002060009054906101000a900473ffffffffffffffffffffffffffffffffffffffff1673ffffffffffffffffffffffffffffffffffffffff1614156105305761052f61139d565b5b600360009054906101000a900473ffffffffffffffffffffffffffffffffffffffff1673ffffffffffffffffffffffffffffffffffffffff166324089f1c84600560003373ffffffffffffffffffffffffffffffffffffffff1673ffffffffffffffffffffffffffffffffffffffff16815260200190815260200160002060009054906101000a900473ffffffffffffffffffffffffffffffffffffffff1685856040518563ffffffff1660e01b81526004016105f094939291906129d3565b600060405180830381600087803b15801561060a57600080fd5b505af115801561061e573d6000803e3d6000fd5b5050505061062b836109a8565b6106348361164b565b505050565b6106416122ce565b73ffffffffffffffffffffffffffffffffffffffff1660008054906101000a900473ffffffffffffffffffffffffffffffffffffffff1673ffffffffffffffffffffffffffffffffffffffff1614610701576040517f08c379a00000000000000000000000000000000000000000000000000000000081526004018080602001828103825260208152602001807f4f776e61626c653a2063616c6c6572206973206e6f7420746865206f776e657281525060200191505060405180910390fd5b80600460006101000a81548173ffffffffffffffffffffffffffffffffffffffff021916908373ffffffffffffffffffffffffffffffffffffffff16021790555050565b600073ffffffffffffffffffffffffffffffffffffffff168273ffffffffffffffffffffffffffffffffffffffff1614156107b5576040517f08c379a00000000000000000000000000000000000000000000000000000000081526004016107ac90612ab8565b60405180910390fd5b600081116107f8576040517f08c379a00000000000000000000000000000000000000000000000000000000081526004016107ef90612a78565b60405180910390fd5b61081c826108178361080986612109565b6122d690919063ffffffff16565b6117c8565b60008290508073ffffffffffffffffffffffffffffffffffffffff166323b872dd3330856040518463ffffffff1660e01b815260040161085e939291906128f7565b602060405180830381600087803b15801561087857600080fd5b505af115801561088c573d6000803e3d6000fd5b505050506040513d601f19601f820116820180604052508101906108b091906126cd565b50600360009054906101000a900473ffffffffffffffffffffffffffffffffffffffff1673ffffffffffffffffffffffffffffffffffffffff16633bc1f1ed84600560003373ffffffffffffffffffffffffffffffffffffffff1673ffffffffffffffffffffffffffffffffffffffff16815260200190815260200160002060009054906101000a900473ffffffffffffffffffffffffffffffffffffffff1685306040518563ffffffff1660e01b8152600401610971949392919061298e565b600060405180830381600087803b15801561098b57600080fd5b505af115801561099f573d6000803e3d6000fd5b50505050505050565b6109b06122ce565b73ffffffffffffffffffffffffffffffffffffffff1660008054906101000a900473ffffffffffffffffffffffffffffffffffffffff1673ffffffffffffffffffffffffffffffffffffffff1614610a70576040517f08c379a00000000000000000000000000000000000000000000000000000000081526004018080602001828103825260208152602001807f4f776e61626c653a2063616c6c6572206973206e6f7420746865206f776e657281525060200191505060405180910390fd5b60008190508073ffffffffffffffffffffffffffffffffffffffff1663095ea7b3600360009054906101000a900473ffffffffffffffffffffffffffffffffffffffff167fffffffffffffffffffffffffffffffffffffffffffffffffffffffffffffffff6040518363ffffffff1660e01b8152600401610af2929190612a18565b602060405180830381600087803b158015610b0c57600080fd5b505af1158015610b20573d6000803e3d6000fd5b505050506040513d601f19601f82011682018060405250810190610b4491906126cd565b505050565b610b516122ce565b73ffffffffffffffffffffffffffffffffffffffff1660008054906101000a900473ffffffffffffffffffffffffffffffffffffffff1673ffffffffffffffffffffffffffffffffffffffff1614610c11576040517f08c379a00000000000000000000000000000000000000000000000000000000081526004018080602001828103825260208152602001807f4f776e61626c653a2063616c6c6572206973206e6f7420746865206f776e657281525060200191505060405180910390fd5b8060068190555050565b610c236122ce565b73ffffffffffffffffffffffffffffffffffffffff1660008054906101000a900473ffffffffffffffffffffffffffffffffffffffff1673ffffffffffffffffffffffffffffffffffffffff1614610ce3576040517f08c379a00000000000000000000000000000000000000000000000000000000081526004018080602001828103825260208152602001807f4f776e61626c653a2063616c6c6572206973206e6f7420746865206f776e657281525060200191505060405180910390fd5b80600360006101000a81548173ffffffffffffffffffffffffffffffffffffffff021916908373ffffffffffffffffffffffffffffffffffffffff16021790555050565b610d2f6122ce565b73ffffffffffffffffffffffffffffffffffffffff1660008054906101000a900473ffffffffffffffffffffffffffffffffffffffff1673ffffffffffffffffffffffffffffffffffffffff1614610def576040517f08c379a00000000000000000000000000000000000000000000000000000000081526004018080602001828103825260208152602001807f4f776e61626c653a2063616c6c6572206973206e6f7420746865206f776e657281525060200191505060405180910390fd5b600073ffffffffffffffffffffffffffffffffffffffff1660008054906101000a900473ffffffffffffffffffffffffffffffffffffffff1673ffffffffffffffffffffffffffffffffffffffff167f8be0079c531659141344cd1fd0a4f28419497f9722a3daafe3b4186f6b6457e060405160405180910390a360008060006101000a81548173ffffffffffffffffffffffffffffffffffffffff021916908373ffffffffffffffffffffffffffffffffffffffff160217905550565b60008073ffffffffffffffffffffffffffffffffffffffff16600560003373ffffffffffffffffffffffffffffffffffffffff1673ffffffffffffffffffffffffffffffffffffffff16815260200190815260200160002060009054906101000a900473ffffffffffffffffffffffffffffffffffffffff1673ffffffffffffffffffffffffffffffffffffffff161415610f7d576040517f08c379a0000000000000000000000000000000000000000000000000000000008152600401610f7490612ad8565b60405180910390fd5b6000600360009054906101000a900473ffffffffffffffffffffffffffffffffffffffff1673ffffffffffffffffffffffffffffffffffffffff1663203660df84600560003373ffffffffffffffffffffffffffffffffffffffff1673ffffffffffffffffffffffffffffffffffffffff16815260200190815260200160002060009054906101000a900473ffffffffffffffffffffffffffffffffffffffff166040518363ffffffff1660e01b815260040161103b92919061292e565b60206040518083038186803b15801561105357600080fd5b505afa158015611067573d6000803e3d6000fd5b505050506040513d601f19601f8201168201806040525081019061108b919061271f565b90506110a861109984612109565b8261235e90919063ffffffff16565b915050919050565b60008073ffffffffffffffffffffffffffffffffffffffff16600560003373ffffffffffffffffffffffffffffffffffffffff1673ffffffffffffffffffffffffffffffffffffffff16815260200190815260200160002060009054906101000a900473ffffffffffffffffffffffffffffffffffffffff1673ffffffffffffffffffffffffffffffffffffffff161415611180576040517f08c379a000000000000000000000000000000000000000000000000000000000815260040161117790612ad8565b60405180910390fd5b6000600560003373ffffffffffffffffffffffffffffffffffffffff1673ffffffffffffffffffffffffffffffffffffffff16815260200190815260200160002060009054906101000a900473ffffffffffffffffffffffffffffffffffffffff1690508073ffffffffffffffffffffffffffffffffffffffff16638da5cb5b6040518163ffffffff1660e01b815260040160206040518083038186803b15801561122a57600080fd5b505afa15801561123e573d6000803e3d6000fd5b505050506040513d601f19601f820116820180604052508101906112629190612619565b91505090565b60008060009054906101000a900473ffffffffffffffffffffffffffffffffffffffff16905090565b6112996122ce565b73ffffffffffffffffffffffffffffffffffffffff1660008054906101000a900473ffffffffffffffffffffffffffffffffffffffff1673ffffffffffffffffffffffffffffffffffffffff1614611359576040517f08c379a00000000000000000000000000000000000000000000000000000000081526004018080602001828103825260208152602001807f4f776e61626c653a2063616c6c6572206973206e6f7420746865206f776e657281525060200191505060405180910390fd5b80600260006101000a81548173ffffffffffffffffffffffffffffffffffffffff021916908373ffffffffffffffffffffffffffffffffffffffff16021790555050565b6000336040516020016113b091906128c1565b6040516020818303038152906040528051906020012090506113f4600460009054906101000a900473ffffffffffffffffffffffffffffffffffffffff16826123a8565b600560003373ffffffffffffffffffffffffffffffffffffffff1673ffffffffffffffffffffffffffffffffffffffff16815260200190815260200160002060006101000a81548173ffffffffffffffffffffffffffffffffffffffff021916908373ffffffffffffffffffffffffffffffffffffffff1602179055506000600560003373ffffffffffffffffffffffffffffffffffffffff1673ffffffffffffffffffffffffffffffffffffffff16815260200190815260200160002060009054906101000a900473ffffffffffffffffffffffffffffffffffffffff1690508073ffffffffffffffffffffffffffffffffffffffff16638129fc1c6040518163ffffffff1660e01b8152600401600060405180830381600087803b15801561151d57600080fd5b505af1158015611531573d6000803e3d6000fd5b505050505050565b6115416122ce565b73ffffffffffffffffffffffffffffffffffffffff1660008054906101000a900473ffffffffffffffffffffffffffffffffffffffff1673ffffffffffffffffffffffffffffffffffffffff1614611601576040517f08c379a00000000000000000000000000000000000000000000000000000000081526004018080602001828103825260208152602001807f4f776e61626c653a2063616c6c6572206973206e6f7420746865206f776e657281525060200191505060405180910390fd5b80600160006101000a81548173ffffffffffffffffffffffffffffffffffffffff021916908373ffffffffffffffffffffffffffffffffffffffff16021790555050565b60065481565b6000600560003373ffffffffffffffffffffffffffffffffffffffff1673ffffffffffffffffffffffffffffffffffffffff16815260200190815260200160002060009054906101000a900473ffffffffffffffffffffffffffffffffffffffff1690508073ffffffffffffffffffffffffffffffffffffffff1663daea85c5600360009054906101000a900473ffffffffffffffffffffffffffffffffffffffff1673ffffffffffffffffffffffffffffffffffffffff1663732a52ee856040518263ffffffff1660e01b815260040161172691906128dc565b60206040518083038186803b15801561173e57600080fd5b505afa158015611752573d6000803e3d6000fd5b505050506040513d601f19601f820116820180604052508101906117769190612619565b6040518263ffffffff1660e01b815260040161179291906128dc565b600060405180830381600087803b1580156117ac57600080fd5b505af11580156117c0573d6000803e3d6000fd5b505050505050565b600073ffffffffffffffffffffffffffffffffffffffff16600560003373ffffffffffffffffffffffffffffffffffffffff1673ffffffffffffffffffffffffffffffffffffffff16815260200190815260200160002060009054906101000a900473ffffffffffffffffffffffffffffffffffffffff1673ffffffffffffffffffffffffffffffffffffffff161415611897576040517f08c379a000000000000000000000000000000000000000000000000000000000815260040161188e90612ad8565b60405180910390fd5b6000600560003373ffffffffffffffffffffffffffffffffffffffff1673ffffffffffffffffffffffffffffffffffffffff16815260200190815260200160002060009054906101000a900473ffffffffffffffffffffffffffffffffffffffff1690508073ffffffffffffffffffffffffffffffffffffffff1663e30443bc84846040518363ffffffff1660e01b8152600401611936929190612a18565b602060405180830381600087803b15801561195057600080fd5b505af1158015611964573d6000803e3d6000fd5b505050506040513d601f19601f82011682018060405250810190611988919061271f565b50505050565b60008073ffffffffffffffffffffffffffffffffffffffff16600560003373ffffffffffffffffffffffffffffffffffffffff1673ffffffffffffffffffffffffffffffffffffffff16815260200190815260200160002060009054906101000a900473ffffffffffffffffffffffffffffffffffffffff1673ffffffffffffffffffffffffffffffffffffffff161415611a5e576040517f08c379a0000000000000000000000000000000000000000000000000000000008152600401611a5590612ad8565b60405180910390fd5b6000600360009054906101000a900473ffffffffffffffffffffffffffffffffffffffff1673ffffffffffffffffffffffffffffffffffffffff1663203660df84600560003373ffffffffffffffffffffffffffffffffffffffff1673ffffffffffffffffffffffffffffffffffffffff16815260200190815260200160002060009054906101000a900473ffffffffffffffffffffffffffffffffffffffff166040518363ffffffff1660e01b8152600401611b1c92919061292e565b60206040518083038186803b158015611b3457600080fd5b505afa158015611b48573d6000803e3d6000fd5b505050506040513d601f19601f82011682018060405250810190611b6c919061271f565b905080915050919050565b611b7f6122ce565b73ffffffffffffffffffffffffffffffffffffffff1660008054906101000a900473ffffffffffffffffffffffffffffffffffffffff1673ffffffffffffffffffffffffffffffffffffffff1614611c3f576040517f08c379a00000000000000000000000000000000000000000000000000000000081526004018080602001828103825260208152602001807f4f776e61626c653a2063616c6c6572206973206e6f7420746865206f776e657281525060200191505060405180910390fd5b600073ffffffffffffffffffffffffffffffffffffffff168173ffffffffffffffffffffffffffffffffffffffff161415611cc5576040517f08c379a0000000000000000000000000000000000000000000000000000000008152600401808060200182810382526026815260200180612c2b6026913960400191505060405180910390fd5b8073ffffffffffffffffffffffffffffffffffffffff1660008054906101000a900473ffffffffffffffffffffffffffffffffffffffff1673ffffffffffffffffffffffffffffffffffffffff167f8be0079c531659141344cd1fd0a4f28419497f9722a3daafe3b4186f6b6457e060405160405180910390a3806000806101000a81548173ffffffffffffffffffffffffffffffffffffffff021916908373ffffffffffffffffffffffffffffffffffffffff16021790555050565b600073ffffffffffffffffffffffffffffffffffffffff168273ffffffffffffffffffffffffffffffffffffffff161415611dbc57600080fd5b60008111611dff576040517f08c379a0000000000000000000000000000000000000000000000000000000008152600401611df690612a78565b60405180910390fd5b6000611e0a8361198e565b11611e4a576040517f08c379a0000000000000000000000000000000000000000000000000000000008152600401611e4190612a98565b60405180910390fd5b6000611e558361198e565b905080821115611e95577fffffffffffffffffffffffffffffffffffffffffffffffffffffffffffffffff915060009050611e9083826117c8565b611eb2565b611eb183611eac848461235e90919063ffffffff16565b6117c8565b5b6000600360009054906101000a900473ffffffffffffffffffffffffffffffffffffffff1673ffffffffffffffffffffffffffffffffffffffff1663732a52ee856040518263ffffffff1660e01b8152600401611f0f91906128dc565b60206040518083038186803b158015611f2757600080fd5b505afa158015611f3b573d6000803e3d6000fd5b505050506040513d601f19601f82011682018060405250810190611f5f9190612619565b90508073ffffffffffffffffffffffffffffffffffffffff166323b872dd600560003373ffffffffffffffffffffffffffffffffffffffff1673ffffffffffffffffffffffffffffffffffffffff16815260200190815260200160002060009054906101000a900473ffffffffffffffffffffffffffffffffffffffff16600360009054906101000a900473ffffffffffffffffffffffffffffffffffffffff16866040518463ffffffff1660e01b815260040161201f93929190612957565b602060405180830381600087803b15801561203957600080fd5b505af115801561204d573d6000803e3d6000fd5b505050506040513d601f19601f8201168201806040525081019061207191906126cd565b50600360009054906101000a900473ffffffffffffffffffffffffffffffffffffffff1673ffffffffffffffffffffffffffffffffffffffff166369328dec8585336040518463ffffffff1660e01b81526004016120d193929190612a41565b600060405180830381600087803b1580156120eb57600080fd5b505af11580156120ff573d6000803e3d6000fd5b5050505050505050565b60008073ffffffffffffffffffffffffffffffffffffffff16600560003373ffffffffffffffffffffffffffffffffffffffff1673ffffffffffffffffffffffffffffffffffffffff16815260200190815260200160002060009054906101000a900473ffffffffffffffffffffffffffffffffffffffff1673ffffffffffffffffffffffffffffffffffffffff1614156121d9576040517f08c379a00000000000000000000000000000000000000000000000000000000081526004016121d090612ad8565b60405180910390fd5b6000600560003373ffffffffffffffffffffffffffffffffffffffff1673ffffffffffffffffffffffffffffffffffffffff16815260200190815260200160002060009054906101000a900473ffffffffffffffffffffffffffffffffffffffff1690508073ffffffffffffffffffffffffffffffffffffffff1663e3d670d7846040518263ffffffff1660e01b815260040161227691906128dc565b60206040518083038186803b15801561228e57600080fd5b505afa1580156122a2573d6000803e3d6000fd5b505050506040513d601f19601f820116820180604052508101906122c6919061271f565b915050919050565b600033905090565b600080828401905083811015612354576040517f08c379a000000000000000000000000000000000000000000000000000000000815260040180806020018281038252601b8152602001807f536166654d6174683a206164646974696f6e206f766572666c6f77000000000081525060200191505060405180910390fd5b8091505092915050565b60006123a083836040518060400160405280601e81526020017f536166654d6174683a207375627472616374696f6e206f766572666c6f7700008152506124b2565b905092915050565b60006040517f3d602d80600a3d3981f3363d3d373d3d3d363d7300000000000000000000000081528360601b60148201527f5af43d82803e903d91602b57fd5bf300000000000000000000000000000000006028820152826037826000f5915050600073ffffffffffffffffffffffffffffffffffffffff168173ffffffffffffffffffffffffffffffffffffffff1614156124ac576040517f08c379a00000000000000000000000000000000000000000000000000000000081526004018080602001828103825260178152602001807f455243313136373a2063726561746532206661696c656400000000000000000081525060200191505060405180910390fd5b92915050565b600083831115829061255f576040517f08c379a00000000000000000000000000000000000000000000000000000000081526004018080602001828103825283818151815260200191508051906020019080838360005b83811015612524578082015181840152602081019050612509565b50505050905090810190601f1680156125515780820380516001836020036101000a031916815260200191505b509250505060405180910390fd5b5060008385039050809150509392505050565b60008135905061258181612be5565b92915050565b60008151905061259681612be5565b92915050565b6000813590506125ab81612bfc565b92915050565b6000815190506125c081612bfc565b92915050565b6000813590506125d581612c13565b92915050565b6000815190506125ea81612c13565b92915050565b60006020828403121561260257600080fd5b600061261084828501612572565b91505092915050565b60006020828403121561262b57600080fd5b600061263984828501612587565b91505092915050565b6000806040838503121561265557600080fd5b600061266385828601612572565b9250506020612674858286016125c6565b9150509250929050565b60008060006060848603121561269357600080fd5b60006126a186828701612572565b93505060206126b2868287016125c6565b92505060406126c38682870161259c565b9150509250925092565b6000602082840312156126df57600080fd5b60006126ed848285016125b1565b91505092915050565b60006020828403121561270857600080fd5b6000612716848285016125c6565b91505092915050565b60006020828403121561273157600080fd5b600061273f848285016125db565b91505092915050565b61275181612b7e565b82525050565b61276861276382612b36565b612bb4565b82525050565b61277781612b24565b82525050565b61278681612b48565b82525050565b6000612799601a83612b13565b91507f416d6f756e74206d757374206265206d6f7265207468616e20300000000000006000830152602082019050919050565b60006127d9601b83612b13565b91507f4e6f2062616c616e6365206c65667420746f20776974686472617700000000006000830152602082019050919050565b6000612819602883612b13565b91507f417373657420636f6e74726163742063616e277420626520746865207a65726f60008301527f20616464726573730000000000000000000000000000000000000000000000006020830152604082019050919050565b600061287f600e83612b13565b91507f55736572206e6f7420666f756e640000000000000000000000000000000000006000830152602082019050919050565b6128bb81612b74565b82525050565b60006128cd8284612757565b60148201915081905092915050565b60006020820190506128f1600083018461276e565b92915050565b600060608201905061290c6000830186612748565b612919602083018561276e565b61292660408301846128b2565b949350505050565b6000604082019050612943600083018561276e565b612950602083018461276e565b9392505050565b600060608201905061296c600083018661276e565b612979602083018561276e565b61298660408301846128b2565b949350505050565b60006080820190506129a3600083018761276e565b6129b0602083018661276e565b6129bd60408301856128b2565b6129ca606083018461276e565b95945050505050565b60006080820190506129e8600083018761276e565b6129f5602083018661276e565b612a0260408301856128b2565b612a0f606083018461277d565b95945050505050565b6000604082019050612a2d600083018561276e565b612a3a60208301846128b2565b9392505050565b6000606082019050612a56600083018661276e565b612a6360208301856128b2565b612a706040830184612748565b949350505050565b60006020820190508181036000830152612a918161278c565b9050919050565b60006020820190508181036000830152612ab1816127cc565b9050919050565b60006020820190508181036000830152612ad18161280c565b9050919050565b60006020820190508181036000830152612af181612872565b9050919050565b6000602082019050612b0d60008301846128b2565b92915050565b600082825260208201905092915050565b6000612b2f82612b54565b9050919050565b6000612b4182612b54565b9050919050565b60008115159050919050565b600073ffffffffffffffffffffffffffffffffffffffff82169050919050565b6000819050919050565b6000612b8982612b90565b9050919050565b6000612b9b82612ba2565b9050919050565b6000612bad82612b54565b9050919050565b6000612bbf82612bc6565b9050919050565b6000612bd182612bd8565b9050919050565b60008160601b9050919050565b612bee81612b24565b8114612bf957600080fd5b50565b612c0581612b48565b8114612c1057600080fd5b50565b612c1c81612b74565b8114612c2757600080fd5b5056fe4f776e61626c653a206e6577206f776e657220697320746865207a65726f2061646472657373a2646970667358221220ae0cb2f54fc29e293489e636b485308f799579e962e3f2195507fbc19f97bb1564736f6c63430007040033",
  "immutableReferences": {},
  "source": "// SPDX-License-Identifier: MIT\r\npragma solidity ^0.7.4;\r\npragma experimental ABIEncoderV2;\r\n\r\nimport \"@openzeppelin/contracts/math/SafeMath.sol\";\r\nimport \"@openzeppelin/contracts/access/Ownable.sol\";\r\nimport \"@openzeppelin/contracts/proxy/Clones.sol\";\r\nimport \"@openzeppelin/contracts/token/ERC20/IERC20.sol\";\r\nimport \"interfaces/INameManager.sol\";\r\nimport \"interfaces/IInvestmentManager.sol\";\r\nimport \"interfaces/IExchangeManager.sol\";\r\nimport \"interfaces/IUserVault.sol\";\r\n//import \"interfaces/ENS_BulkRenewal.sol\";\r\n//import \"interfaces/ENS_Resolver.sol\";\r\n\r\n/// @title StakeYourName - Main Contract\r\n/// @notice Handles interations between the users and\r\n/// @notice other StakeYourName contracts.\r\n/// @author Daniel Chilvers\r\n\r\ncontract StakeYourName is Ownable {\r\n\r\n    NameManager nameManager;\r\n    ExchangeManager exchangeManager;\r\n    InvestmentManager investmentManager;\r\n    //IERC20 token;\r\n\r\n    \r\n    constructor() {\r\n        /// @dev TO:DO set deployment addresses of the managers in here.\r\n\r\n    }\r\n\r\n    using SafeMath for uint256;\r\n    address internal masterVault;\r\n    mapping (address => address) internal vault;\r\n    uint256 public referralCode = 0;\r\n    uint256 constant MAX_INT = 2**256-1;\r\n\r\n    modifier onlyUser() {\r\n        require(vault[msg.sender] != address(0), \"User not found\");\r\n        _;\r\n    }\r\n\r\n    /******************************************** \r\n    *                                           *\r\n    *   User functions                          *\r\n    *                                           *\r\n    ********************************************/\r\n\r\n    /// @notice approves transfering tokens from the userVault\r\n    /// @notice to the Aave LendingPool contract\r\n    /// @notice will deploy a new vault if one doesn't exist\r\n    /// @param _asset the contract address of the token to approve\r\n    /// @param _amount the amount to approve in wei\r\n    /// @param _max set to true to ignore amount and approve the max\r\n    function approve(address _asset, uint256 _amount, bool _max) external {\r\n        require(_asset != address(0), \"Asset contract can't be the zero address\");\r\n        if (vault[msg.sender] == address(0)){\r\n            deployVault();\r\n        }\r\n        investmentManager.approveLendingPool(_asset, vault[msg.sender], _amount, _max);\r\n        approveInvestmentManager(_asset);\r\n        approveVault(_asset);\r\n    }\r\n\r\n    /// @notice deposits tokens to the Aave LendingPool contract\r\n    /// @notice updates vault with new balance\r\n    /// @param _asset the contract address of the token to deposit\r\n    /// @param _amount the amount to deposit in wei\r\n    function deposit(address _asset, uint256 _amount) external {\r\n        require(_asset != address(0), \"Asset contract can't be the zero address\");\r\n        require(_amount > 0, \"Amount must be more than 0\");\r\n        //require(investmentManager.checkAllowance(_asset) >= _amount, \"User not approved to send this amount\");\r\n        setBalance(_asset, getBalance(_asset).add(_amount));\r\n        IERC20 _erc20 = IERC20(_asset);\r\n        _erc20.transferFrom(msg.sender, address(this), _amount);\r\n        investmentManager.deposit(_asset, vault[msg.sender], _amount, address(this));\r\n    }\r\n\r\n    /// @notice withdraw tokens from the Aave LendingPool contract\r\n    /// @notice updates vault with new balance\r\n    /// @param _asset the contract address of the token to deposit\r\n    /// @param _amount the amount to deposit in wei\r\n    function withdraw(address _asset, uint256 _amount) external {\r\n        require(_asset != address(0));\r\n        require(_amount > 0, \"Amount must be more than 0\");\r\n        require(getTotal(_asset) > 0, \"No balance left to withdraw\");\r\n        uint256 _balance = getTotal(_asset);\r\n        if (_amount > _balance) {\r\n            _amount = MAX_INT;\r\n            _balance = 0;\r\n            setBalance(_asset, _balance);\r\n        } else {\r\n            setBalance(_asset, _balance.sub(_amount));\r\n        }\r\n        IERC20 _erc20 = IERC20(investmentManager.getAToken(_asset));\r\n        _erc20.transferFrom(vault[msg.sender], address(investmentManager), _amount);\r\n        //_erc20.transferFrom(address(this), address(investmentManager), _amount);\r\n        investmentManager.withdraw(_asset, _amount, msg.sender);\r\n    }\r\n\r\n    /******************************************** \r\n    *                                           *\r\n    *   User Vault deployment and functions.    *\r\n    *                                           *\r\n    ********************************************/\r\n\r\n    /// @notice clone the master vault contract\r\n    function deployVault() public{\r\n        bytes32 _salt = keccak256(abi.encodePacked(msg.sender));\r\n        vault[msg.sender] = Clones.cloneDeterministic(masterVault, _salt);\r\n        UserVault _userVault = UserVault(vault[msg.sender]);\r\n        _userVault.initialize();\r\n    }\r\n\r\n    function setMasterVault(address _vault) public onlyOwner {\r\n        masterVault = _vault;\r\n    }\r\n    function setBalance(address _asset, uint256 _balance) public onlyUser{\r\n        UserVault _userVault = UserVault(vault[msg.sender]);\r\n        _userVault.setBalance(_asset, _balance);\r\n    }\r\n    function getBalance(address _asset) public view onlyUser returns(uint256){\r\n        UserVault _userVault = UserVault(vault[msg.sender]);\r\n        return _userVault.balance(_asset);\r\n    }\r\n    function getInterest(address _asset) public view onlyUser returns(uint256) {\r\n        uint256 _tokenBalance = investmentManager.getATokenBalance(_asset, vault[msg.sender]);\r\n        return _tokenBalance.sub(getBalance(_asset));\r\n    }\r\n    function getTotal(address _asset) public view onlyUser returns(uint256){\r\n        uint256 _tokenBalance = investmentManager.getATokenBalance(_asset, vault[msg.sender]);\r\n        return _tokenBalance;\r\n    }\r\n    function findVault(address _vault) public view returns(address){\r\n        return vault[_vault];\r\n    }\r\n    function approveVault(address _asset) public {\r\n        UserVault _userVault = UserVault(vault[msg.sender]);\r\n        _userVault.approve(investmentManager.getAToken(_asset));\r\n    }\r\n\r\n    /// @dev this is stupid, it'll always return msg.sender (hopefully)\r\n    function getOwner() public view onlyUser returns(address){\r\n        UserVault _userVault = UserVault(vault[msg.sender]);\r\n        return _userVault.owner();\r\n    }\r\n\r\n    /******************************************** \r\n    *                                           *\r\n    *   Admin functions                         *\r\n    *                                           *\r\n    ********************************************/\r\n\r\n    function updateReferral(uint256 _ref) external onlyOwner {\r\n        referralCode = _ref;\r\n    }\r\n\r\n\r\n    /******************************************** \r\n    *                                           *\r\n    *   Test and/or temporary functions.        *\r\n    *                                           *\r\n    ********************************************/\r\n\r\n    function setNameManager(address _address) external onlyOwner {\r\n        nameManager = NameManager(_address);\r\n    }\r\n    function setExchangeManager(address _address) external onlyOwner {\r\n        exchangeManager = ExchangeManager(_address);\r\n    }\r\n    function setInvestmentManager(address _address) external onlyOwner {\r\n        investmentManager = InvestmentManager(_address);\r\n    }\r\n    function approveInvestmentManager(address _asset) public onlyOwner {\r\n        IERC20 _erc20 = IERC20(_asset);\r\n        _erc20.approve(address(investmentManager), MAX_INT);\r\n    }\r\n\r\n}",
  "sourcePath": "C:/Users/anyth/Documents/GitHub/StakeYourName/contracts/StakeYourName.sol",
  "compiler": {
    "name": "solc",
    "version": "0.7.4+commit.3f05b770.Emscripten.clang"
  },
  "schemaVersion": "3.3.3",
  "updatedAt": "2021-01-26T22:32:53.853Z",
  "networkType": "ethereum",
  "devdoc": {
    "author": "Daniel Chilvers",
    "kind": "dev",
    "methods": {
      "approve(address,uint256,bool)": {
        "params": {
          "_amount": "the amount to approve in wei",
          "_asset": "the contract address of the token to approve",
          "_max": "set to true to ignore amount and approve the max"
        }
      },
      "deposit(address,uint256)": {
        "params": {
          "_amount": "the amount to deposit in wei",
          "_asset": "the contract address of the token to deposit"
        }
      },
      "getOwner()": {
        "details": "this is stupid, it'll always return msg.sender (hopefully)"
      },
      "owner()": {
        "details": "Returns the address of the current owner."
      },
      "renounceOwnership()": {
        "details": "Leaves the contract without owner. It will not be possible to call `onlyOwner` functions anymore. Can only be called by the current owner. NOTE: Renouncing ownership will leave the contract without an owner, thereby removing any functionality that is only available to the owner."
      },
      "transferOwnership(address)": {
        "details": "Transfers ownership of the contract to a new account (`newOwner`). Can only be called by the current owner."
      },
      "withdraw(address,uint256)": {
        "params": {
          "_amount": "the amount to deposit in wei",
          "_asset": "the contract address of the token to deposit"
        }
      }
    },
    "title": "StakeYourName - Main Contract",
    "version": 1
  },
  "userdoc": {
    "kind": "user",
    "methods": {
      "approve(address,uint256,bool)": {
        "notice": "approves transfering tokens from the userVaultto the Aave LendingPool contractwill deploy a new vault if one doesn't exist"
      },
      "deployVault()": {
        "notice": "clone the master vault contract"
      },
      "deposit(address,uint256)": {
        "notice": "deposits tokens to the Aave LendingPool contractupdates vault with new balance"
      },
      "withdraw(address,uint256)": {
        "notice": "withdraw tokens from the Aave LendingPool contractupdates vault with new balance"
      }
    },
    "notice": "Handles interations between the users andother StakeYourName contracts.",
    "version": 1
  }
}