{
  "contractName": "UserVault",
  "abi": [
    {
      "inputs": [
        {
          "internalType": "uint256",
          "name": "",
          "type": "uint256"
        }
      ],
      "name": "assets",
      "outputs": [
        {
          "internalType": "address",
          "name": "",
          "type": "address"
        }
      ],
      "stateMutability": "view",
      "type": "function"
    },
    {
      "inputs": [
        {
          "internalType": "address",
          "name": "",
          "type": "address"
        }
      ],
      "name": "balance",
      "outputs": [
        {
          "internalType": "uint256",
          "name": "",
          "type": "uint256"
        }
      ],
      "stateMutability": "view",
      "type": "function"
    },
    {
      "inputs": [
        {
          "internalType": "uint256",
          "name": "",
          "type": "uint256"
        }
      ],
      "name": "names",
      "outputs": [
        {
          "internalType": "uint256",
          "name": "",
          "type": "uint256"
        }
      ],
      "stateMutability": "view",
      "type": "function"
    },
    {
      "inputs": [],
      "name": "owner",
      "outputs": [
        {
          "internalType": "address",
          "name": "",
          "type": "address"
        }
      ],
      "stateMutability": "view",
      "type": "function"
    },
    {
      "inputs": [
        {
          "internalType": "uint256",
          "name": "",
          "type": "uint256"
        },
        {
          "internalType": "uint256",
          "name": "",
          "type": "uint256"
        }
      ],
      "name": "readableName",
      "outputs": [
        {
          "internalType": "string",
          "name": "",
          "type": "string"
        }
      ],
      "stateMutability": "view",
      "type": "function"
    },
    {
      "stateMutability": "payable",
      "type": "receive"
    },
    {
      "inputs": [],
      "name": "collectETH",
      "outputs": [],
      "stateMutability": "nonpayable",
      "type": "function"
    },
    {
      "inputs": [],
      "name": "initialize",
      "outputs": [],
      "stateMutability": "nonpayable",
      "type": "function"
    },
    {
      "inputs": [
        {
          "internalType": "address",
          "name": "_asset",
          "type": "address"
        }
      ],
      "name": "approve",
      "outputs": [],
      "stateMutability": "nonpayable",
      "type": "function"
    },
    {
      "inputs": [
        {
          "internalType": "address",
          "name": "_asset",
          "type": "address"
        },
        {
          "internalType": "uint256",
          "name": "_balance",
          "type": "uint256"
        }
      ],
      "name": "setBalance",
      "outputs": [
        {
          "internalType": "uint256",
          "name": "",
          "type": "uint256"
        }
      ],
      "stateMutability": "nonpayable",
      "type": "function"
    },
    {
      "inputs": [
        {
          "internalType": "uint256",
          "name": "_name",
          "type": "uint256"
        },
        {
          "internalType": "string[]",
          "name": "_readableName",
          "type": "string[]"
        }
      ],
      "name": "addName",
      "outputs": [],
      "stateMutability": "nonpayable",
      "type": "function"
    },
    {
      "inputs": [
        {
          "internalType": "uint256[]",
          "name": "_names",
          "type": "uint256[]"
        },
        {
          "internalType": "string[][]",
          "name": "_readableNames",
          "type": "string[][]"
        }
      ],
      "name": "addMultipleNames",
      "outputs": [],
      "stateMutability": "nonpayable",
      "type": "function"
    },
    {
      "inputs": [
        {
          "internalType": "uint256",
          "name": "_name",
          "type": "uint256"
        }
      ],
      "name": "removeName",
      "outputs": [],
      "stateMutability": "nonpayable",
      "type": "function"
    },
    {
      "inputs": [
        {
          "internalType": "uint256[]",
          "name": "_names",
          "type": "uint256[]"
        }
      ],
      "name": "removeMultipleNames",
      "outputs": [],
      "stateMutability": "nonpayable",
      "type": "function"
    },
    {
      "inputs": [
        {
          "internalType": "address",
          "name": "_asset",
          "type": "address"
        }
      ],
      "name": "addAsset",
      "outputs": [],
      "stateMutability": "nonpayable",
      "type": "function"
    },
    {
      "inputs": [
        {
          "internalType": "address",
          "name": "_asset",
          "type": "address"
        }
      ],
      "name": "removeAsset",
      "outputs": [],
      "stateMutability": "nonpayable",
      "type": "function"
    }
  ],
  "bytecode": "0x608060405234801561001057600080fd5b5061101e806100206000396000f3fe6080604052600436106100ec5760003560e01c8063a79aa6041161008a578063daea85c511610059578063daea85c514610274578063e30443bc14610294578063e3d670d7146102b4578063fdff9b81146102d4576100f3565b8063a79aa604146101e7578063ade12d5014610207578063be07ebe914610234578063cf35bdd014610254576100f3565b80634e75486a116100c65780634e75486a146101705780636de43cc2146101905780638129fc1c146101b05780638da5cb5b146101c5576100f3565b8063298410e5146100f85780634622ab031461011a5780634a5e42b114610150576100f3565b366100f357005b600080fd5b34801561010457600080fd5b50610118610113366004610ce0565b6102e9565b005b34801561012657600080fd5b5061013a610135366004610df3565b6103c5565b6040516101479190610f39565b60405180910390f35b34801561015c57600080fd5b5061011861016b366004610ce0565b6103e6565b34801561017c57600080fd5b5061011861018b366004610df3565b610511565b34801561019c57600080fd5b506101186101ab366004610d2a565b6105cd565b3480156101bc57600080fd5b50610118610630565b3480156101d157600080fd5b506101da6106ea565b6040516101479190610e84565b3480156101f357600080fd5b50610118610202366004610d6a565b6106ff565b34801561021357600080fd5b50610227610222366004610e63565b610786565b6040516101479190610eb1565b34801561024057600080fd5b5061011861024f366004610e0b565b61083d565b34801561026057600080fd5b506101da61026f366004610df3565b6108c3565b34801561028057600080fd5b5061011861028f366004610ce0565b6108ed565b3480156102a057600080fd5b5061013a6102af366004610d01565b6109ac565b3480156102c057600080fd5b5061013a6102cf366004610ce0565b6109fe565b3480156102e057600080fd5b50610118610a10565b6000546201000090046001600160a01b031633146103225760405162461bcd60e51b815260040161031990610f04565b60405180910390fd5b6000805b60045481101561036f57826001600160a01b03166004828154811061034757fe5b6000918252602090912001546001600160a01b0316141561036757600191505b600101610326565b50806103c157600480546001810182556000919091527f8a35acfbc15ff81a39ae7d344fd709f28e8600b4aa8c65c6b64bfe7fe36bd19b0180546001600160a01b0319166001600160a01b0384161790555b5050565b600381815481106103d557600080fd5b600091825260209091200154905081565b6000546201000090046001600160a01b031633146104165760405162461bcd60e51b815260040161031990610f04565b6001600160a01b03811660009081526001602052604090205461050e5760005b6004548110156103c157816001600160a01b03166004828154811061045757fe5b6000918252602090912001546001600160a01b031614156105065760048054600019810190811061048457fe5b600091825260209091200154600480546001600160a01b0390921691839081106104aa57fe5b9060005260206000200160006101000a8154816001600160a01b0302191690836001600160a01b0316021790555060048054806104e357fe5b600082815260209020810160001990810180546001600160a01b03191690550190555b600101610436565b50565b6000546201000090046001600160a01b031633146105415760405162461bcd60e51b815260040161031990610f04565b60005b6003548110156103c157816003828154811061055c57fe5b906000526020600020015414156105c55760038054600019810190811061057f57fe5b90600052602060002001546003828154811061059757fe5b60009182526020909120015560038054806105ae57fe5b600190038181906000526020600020016000905590555b600101610544565b6000546201000090046001600160a01b031633146105fd5760405162461bcd60e51b815260040161031990610f04565b60005b8181101561062b5761062383838381811061061757fe5b90506020020135610511565b600101610600565b505050565b600054610100900460ff16806106495750610649610a6c565b80610657575060005460ff16155b6106925760405162461bcd60e51b815260040180806020018281038252602e815260200180610fbb602e913960400191505060405180910390fd5b600054610100900460ff161580156106bd576000805460ff1961ff0019909116610100171660011790555b6000805462010000600160b01b031916336201000002179055801561050e576000805461ff001916905550565b6000546201000090046001600160a01b031681565b6000546201000090046001600160a01b0316331461072f5760405162461bcd60e51b815260040161031990610f04565b60005b8381101561077f5761077785858381811061074957fe5b9050602002013584848481811061075c57fe5b905060200281019061076e9190610f42565b61024f91610fad565b600101610732565b5050505050565b600260205281600052604060002081815481106107a257600080fd5b600091825260209182902001805460408051601f600260001961010060018716150201909416939093049283018590048502810185019091528181529450909250908301828280156108355780601f1061080a57610100808354040283529160200191610835565b820191906000526020600020905b81548152906001019060200180831161081857829003601f168201915b505050505081565b6000546201000090046001600160a01b0316331461086d5760405162461bcd60e51b815260040161031990610f04565b6000828152600260209081526040909120825161088c92840190610a72565b5050600380546001810182556000919091527fc2575a0e9e593c00f959f8c92f12db2869c3395a3b0502d05e2516446f71f85b0155565b600481815481106108d357600080fd5b6000918252602090912001546001600160a01b0316905081565b6000546201000090046001600160a01b0316331461091d5760405162461bcd60e51b815260040161031990610f04565b60005460405163095ea7b360e01b815282916001600160a01b038084169263095ea7b39261095a9262010000909104169060001990600401610e98565b602060405180830381600087803b15801561097457600080fd5b505af1158015610988573d6000803e3d6000fd5b505050506040513d601f19601f8201168201806040525081019061062b9190610dd3565b600080546201000090046001600160a01b031633146109dd5760405162461bcd60e51b815260040161031990610f04565b506001600160a01b0391909116600090815260016020526040902081905590565b60016020526000908152604090205481565b6000546201000090046001600160a01b03163314610a405760405162461bcd60e51b815260040161031990610f04565b60405133904780156108fc02916000818181858888f1935050505015801561050e573d6000803e3d6000fd5b303b1590565b828054828255906000526020600020908101928215610abf579160200282015b82811115610abf5782518051610aaf918491602090910190610acf565b5091602001919060010190610a92565b50610acb929150610b57565b5090565b828054600181600116156101000203166002900490600052602060002090601f016020900481019282610b055760008555610b4b565b82601f10610b1e57805160ff1916838001178555610b4b565b82800160010185558215610b4b579182015b82811115610b4b578251825591602001919060010190610b30565b50610acb929150610b74565b80821115610acb576000610b6b8282610b89565b50600101610b57565b5b80821115610acb5760008155600101610b75565b50805460018160011615610100020316600290046000825580601f10610baf575061050e565b601f01602090049060005260206000209081019061050e9190610b74565b600067ffffffffffffffff80841115610be257fe5b6020610bf18182870201610f89565b85815292508083018460005b87811015610c6f5781358701601f8a81830112610c1957600080fd5b813587811115610c2557fe5b610c36818301601f19168801610f89565b91508082528b87828501011115610c4c57600080fd5b808784018884013760009082018701528452509183019190830190600101610bfd565b50505050509392505050565b80356001600160a01b0381168114610c9257600080fd5b919050565b60008083601f840112610ca8578182fd5b50813567ffffffffffffffff811115610cbf578182fd5b6020830191508360208083028501011115610cd957600080fd5b9250929050565b600060208284031215610cf1578081fd5b610cfa82610c7b565b9392505050565b60008060408385031215610d13578081fd5b610d1c83610c7b565b946020939093013593505050565b60008060208385031215610d3c578182fd5b823567ffffffffffffffff811115610d52578283fd5b610d5e85828601610c97565b90969095509350505050565b60008060008060408587031215610d7f578182fd5b843567ffffffffffffffff80821115610d96578384fd5b610da288838901610c97565b90965094506020870135915080821115610dba578384fd5b50610dc787828801610c97565b95989497509550505050565b600060208284031215610de4578081fd5b81518015158114610cfa578182fd5b600060208284031215610e04578081fd5b5035919050565b60008060408385031215610e1d578182fd5b82359150602083013567ffffffffffffffff811115610e3a578182fd5b8301601f81018513610e4a578182fd5b610e5985823560208401610bcd565b9150509250929050565b60008060408385031215610e75578182fd5b50508035926020909101359150565b6001600160a01b0391909116815260200190565b6001600160a01b03929092168252602082015260400190565b6000602080835283518082850152825b81811015610edd57858101830151858201604001528201610ec1565b81811115610eee5783604083870101525b50601f01601f1916929092016040019392505050565b6020808252818101527f4f776e61626c653a2063616c6c6572206973206e6f7420746865206f776e6572604082015260600190565b90815260200190565b6000808335601e19843603018112610f58578283fd5b83018035915067ffffffffffffffff821115610f72578283fd5b6020908101925081023603821315610cd957600080fd5b60405181810167ffffffffffffffff81118282101715610fa557fe5b604052919050565b6000610cfa368484610bcd56fe496e697469616c697a61626c653a20636f6e747261637420697320616c726561647920696e697469616c697a6564a2646970667358221220e69128ddb9e115199859d361d1196eab7fb2cc4d3921533ce2ebe0e78bdcb44f64736f6c63430007060033",
  "immutableReferences": {},
  "source": "// SPDX-License-Identifier: MIT\r\npragma solidity ^0.7.6;\r\npragma abicoder v2;\r\n\r\n  /**\r\n   * @title UserVault\r\n   * @notice A personal asset vault for each user\r\n   * @notice part of the StakeYourName DApp\r\n   * @author Daniel Chilvers\r\n   **/\r\n\r\nimport \"@openzeppelin/contracts/proxy/Initializable.sol\";\r\nimport \"@openzeppelin/contracts/token/ERC20/IERC20.sol\";\r\n\r\ncontract UserVault is Initializable{\r\n\r\n    address public owner;\r\n    mapping (address => uint256) public balance;\r\n    mapping (uint256 => string[]) public readableName;\r\n    uint256[] public names;\r\n    address[] public assets;\r\n    \r\n    modifier onlyOwner() {\r\n        require(owner == msg.sender, \"Ownable: caller is not the owner\");\r\n        _;\r\n    }\r\n\r\n    receive() external payable {}\r\n\r\n    function collectETH() external onlyOwner{\r\n        msg.sender.transfer(address(this).balance);\r\n    }\r\n\r\n    function initialize() public initializer{\r\n        address msgSender = msg.sender;\r\n        owner = msgSender;\r\n    }\r\n\r\n    function approve(address _asset) external onlyOwner{\r\n        IERC20 erc20 = IERC20(_asset);\r\n        erc20.approve(owner, type(uint256).max);\r\n    }\r\n\r\n    function setBalance(address _asset, uint256 _balance) external onlyOwner returns(uint256){\r\n         return balance[_asset] = _balance;\r\n    }\r\n\r\n    function addName(uint256 _name, string[] memory _readableName) public onlyOwner {\r\n        readableName[_name] = _readableName;\r\n        names.push(_name);\r\n    }\r\n\r\n    function addMultipleNames(uint256[] calldata _names, string[][] calldata _readableNames) external onlyOwner {\r\n        for (uint256 i; i < _names.length; i++){\r\n            addName(_names[i], _readableNames[i]);\r\n        }\r\n    }\r\n\r\n    function removeName(uint256 _name) public onlyOwner {\r\n        for (uint256 i; i < names.length; i++){\r\n            if (names[i] == _name){\r\n                names[i] = names[names.length-1];\r\n                names.pop();\r\n            }\r\n        }\r\n    }\r\n\r\n    function removeMultipleNames(uint256[] calldata _names) external onlyOwner {\r\n        for (uint256 i; i < _names.length; i++){\r\n            removeName(_names[i]);\r\n        }\r\n    }\r\n\r\n    function addAsset(address _asset) external onlyOwner{\r\n        bool _found = false;\r\n        for(uint256 i; i < assets.length; i++){\r\n            if(assets[i] == _asset){\r\n                _found = true;\r\n            }\r\n        }\r\n        if(_found == false){\r\n            assets.push(_asset);\r\n        }\r\n    }\r\n\r\n    function removeAsset(address _asset) external onlyOwner{\r\n    if(balance[_asset] == 0){\r\n        for(uint256 i; i < assets.length; i++){\r\n                if(assets[i] == _asset){\r\n                    assets[i] = assets[assets.length-1];\r\n                    assets.pop();\r\n                }\r\n            }  \r\n        }\r\n    }\r\n}",
  "sourcePath": "C:/Users/anyth/Documents/GitHub/StakeYourName/contracts/UserVault.sol",
  "compiler": {
    "name": "solc",
    "version": "0.7.6+commit.7338295f.Emscripten.clang"
  },
  "schemaVersion": "3.3.3",
  "updatedAt": "2021-02-01T16:31:58.284Z",
  "devdoc": {
    "kind": "dev",
    "methods": {},
    "version": 1
  },
  "userdoc": {
    "kind": "user",
    "methods": {},
    "version": 1
  }
}