{
  "contractName": "UserVault",
  "abi": [
    {
      "inputs": [
        {
          "internalType": "uint256",
          "name": "",
          "type": "uint256"
        }
      ],
      "name": "assets",
      "outputs": [
        {
          "internalType": "address",
          "name": "",
          "type": "address"
        }
      ],
      "stateMutability": "view",
      "type": "function"
    },
    {
      "inputs": [
        {
          "internalType": "address",
          "name": "",
          "type": "address"
        }
      ],
      "name": "balance",
      "outputs": [
        {
          "internalType": "uint256",
          "name": "",
          "type": "uint256"
        }
      ],
      "stateMutability": "view",
      "type": "function"
    },
    {
      "inputs": [
        {
          "internalType": "uint256",
          "name": "",
          "type": "uint256"
        }
      ],
      "name": "names",
      "outputs": [
        {
          "internalType": "uint256",
          "name": "",
          "type": "uint256"
        }
      ],
      "stateMutability": "view",
      "type": "function"
    },
    {
      "inputs": [],
      "name": "owner",
      "outputs": [
        {
          "internalType": "address",
          "name": "",
          "type": "address"
        }
      ],
      "stateMutability": "view",
      "type": "function"
    },
    {
      "inputs": [],
      "name": "initialize",
      "outputs": [],
      "stateMutability": "nonpayable",
      "type": "function"
    },
    {
      "inputs": [
        {
          "internalType": "address",
          "name": "_asset",
          "type": "address"
        }
      ],
      "name": "approve",
      "outputs": [],
      "stateMutability": "nonpayable",
      "type": "function"
    },
    {
      "inputs": [
        {
          "internalType": "address",
          "name": "_asset",
          "type": "address"
        },
        {
          "internalType": "uint256",
          "name": "_balance",
          "type": "uint256"
        }
      ],
      "name": "setBalance",
      "outputs": [
        {
          "internalType": "uint256",
          "name": "",
          "type": "uint256"
        }
      ],
      "stateMutability": "nonpayable",
      "type": "function"
    },
    {
      "inputs": [
        {
          "internalType": "uint256",
          "name": "_name",
          "type": "uint256"
        }
      ],
      "name": "addName",
      "outputs": [],
      "stateMutability": "nonpayable",
      "type": "function"
    },
    {
      "inputs": [
        {
          "internalType": "uint256[]",
          "name": "_names",
          "type": "uint256[]"
        }
      ],
      "name": "addMultipleNames",
      "outputs": [],
      "stateMutability": "nonpayable",
      "type": "function"
    },
    {
      "inputs": [
        {
          "internalType": "uint256",
          "name": "_name",
          "type": "uint256"
        }
      ],
      "name": "removeName",
      "outputs": [],
      "stateMutability": "nonpayable",
      "type": "function"
    },
    {
      "inputs": [
        {
          "internalType": "uint256[]",
          "name": "_names",
          "type": "uint256[]"
        }
      ],
      "name": "removeMultipleNames",
      "outputs": [],
      "stateMutability": "nonpayable",
      "type": "function"
    },
    {
      "inputs": [
        {
          "internalType": "address",
          "name": "_asset",
          "type": "address"
        }
      ],
      "name": "addAsset",
      "outputs": [],
      "stateMutability": "nonpayable",
      "type": "function"
    },
    {
      "inputs": [
        {
          "internalType": "address",
          "name": "_asset",
          "type": "address"
        }
      ],
      "name": "removeAsset",
      "outputs": [],
      "stateMutability": "nonpayable",
      "type": "function"
    }
  ],
  "bytecode": "0x608060405234801561001057600080fd5b5061122c806100206000396000f3fe608060405234801561001057600080fd5b50600436106100cf5760003560e01c80637a82794b1161008c578063cf35bdd011610066578063cf35bdd01461032a578063daea85c514610382578063e30443bc146103c6578063e3d670d714610428576100cf565b80637a82794b146102735780638129fc1c146102ec5780638da5cb5b146102f6576100cf565b8063298410e5146100d45780634622ab03146101185780634a5e42b11461015a5780634e75486a1461019e57806353b08df6146101cc5780636de43cc2146101fa575b600080fd5b610116600480360360208110156100ea57600080fd5b81019080803573ffffffffffffffffffffffffffffffffffffffff169060200190929190505050610480565b005b6101446004803603602081101561012e57600080fd5b8101908080359060200190929190505050610647565b6040518082815260200191505060405180910390f35b61019c6004803603602081101561017057600080fd5b81019080803573ffffffffffffffffffffffffffffffffffffffff16906020019092919050505061066b565b005b6101ca600480360360208110156101b457600080fd5b81019080803590602001909291905050506108d9565b005b6101f8600480360360208110156101e257600080fd5b8101908080359060200190929190505050610a39565b005b6102716004803603602081101561021057600080fd5b810190808035906020019064010000000081111561022d57600080fd5b82018360208201111561023f57600080fd5b8035906020019184602083028401116401000000008311171561026157600080fd5b9091929391929390505050610b28565b005b6102ea6004803603602081101561028957600080fd5b81019080803590602001906401000000008111156102a657600080fd5b8201836020820111156102b857600080fd5b803590602001918460208302840111640100000000831117156102da57600080fd5b9091929391929390505050610c26565b005b6102f4610d24565b005b6102fe610e69565b604051808273ffffffffffffffffffffffffffffffffffffffff16815260200191505060405180910390f35b6103566004803603602081101561034057600080fd5b8101908080359060200190929190505050610e8f565b604051808273ffffffffffffffffffffffffffffffffffffffff16815260200191505060405180910390f35b6103c46004803603602081101561039857600080fd5b81019080803573ffffffffffffffffffffffffffffffffffffffff169060200190929190505050610ece565b005b610412600480360360408110156103dc57600080fd5b81019080803573ffffffffffffffffffffffffffffffffffffffff16906020019092919080359060200190929190505050611089565b6040518082815260200191505060405180910390f35b61046a6004803603602081101561043e57600080fd5b81019080803573ffffffffffffffffffffffffffffffffffffffff169060200190929190505050611199565b6040518082815260200191505060405180910390f35b3373ffffffffffffffffffffffffffffffffffffffff16600060029054906101000a900473ffffffffffffffffffffffffffffffffffffffff1673ffffffffffffffffffffffffffffffffffffffff1614610543576040517f08c379a00000000000000000000000000000000000000000000000000000000081526004018080602001828103825260208152602001807f4f776e61626c653a2063616c6c6572206973206e6f7420746865206f776e657281525060200191505060405180910390fd5b6000805b6003805490508110156105d1578273ffffffffffffffffffffffffffffffffffffffff166003828154811061057857fe5b9060005260206000200160009054906101000a900473ffffffffffffffffffffffffffffffffffffffff1673ffffffffffffffffffffffffffffffffffffffff1614156105c457600191505b8080600101915050610547565b50600015158115151415610643576003829080600181540180825580915050600190039060005260206000200160009091909190916101000a81548173ffffffffffffffffffffffffffffffffffffffff021916908373ffffffffffffffffffffffffffffffffffffffff1602179055505b5050565b6002818154811061065757600080fd5b906000526020600020016000915090505481565b3373ffffffffffffffffffffffffffffffffffffffff16600060029054906101000a900473ffffffffffffffffffffffffffffffffffffffff1673ffffffffffffffffffffffffffffffffffffffff161461072e576040517f08c379a00000000000000000000000000000000000000000000000000000000081526004018080602001828103825260208152602001807f4f776e61626c653a2063616c6c6572206973206e6f7420746865206f776e657281525060200191505060405180910390fd5b6000600160008373ffffffffffffffffffffffffffffffffffffffff1673ffffffffffffffffffffffffffffffffffffffff1681526020019081526020016000205414156108d65760005b6003805490508110156108d4578173ffffffffffffffffffffffffffffffffffffffff16600382815481106107aa57fe5b9060005260206000200160009054906101000a900473ffffffffffffffffffffffffffffffffffffffff1673ffffffffffffffffffffffffffffffffffffffff1614156108c75760036001600380549050038154811061080657fe5b9060005260206000200160009054906101000a900473ffffffffffffffffffffffffffffffffffffffff166003828154811061083e57fe5b9060005260206000200160006101000a81548173ffffffffffffffffffffffffffffffffffffffff021916908373ffffffffffffffffffffffffffffffffffffffff160217905550600380548061089157fe5b6001900381819060005260206000200160006101000a81549073ffffffffffffffffffffffffffffffffffffffff021916905590555b8080600101915050610779565b505b50565b3373ffffffffffffffffffffffffffffffffffffffff16600060029054906101000a900473ffffffffffffffffffffffffffffffffffffffff1673ffffffffffffffffffffffffffffffffffffffff161461099c576040517f08c379a00000000000000000000000000000000000000000000000000000000081526004018080602001828103825260208152602001807f4f776e61626c653a2063616c6c6572206973206e6f7420746865206f776e657281525060200191505060405180910390fd5b60005b600280549050811015610a355781600282815481106109ba57fe5b90600052602060002001541415610a28576002600160028054905003815481106109e057fe5b9060005260206000200154600282815481106109f857fe5b90600052602060002001819055506002805480610a1157fe5b600190038181906000526020600020016000905590555b808060010191505061099f565b5050565b3373ffffffffffffffffffffffffffffffffffffffff16600060029054906101000a900473ffffffffffffffffffffffffffffffffffffffff1673ffffffffffffffffffffffffffffffffffffffff1614610afc576040517f08c379a00000000000000000000000000000000000000000000000000000000081526004018080602001828103825260208152602001807f4f776e61626c653a2063616c6c6572206973206e6f7420746865206f776e657281525060200191505060405180910390fd5b600281908060018154018082558091505060019003906000526020600020016000909190919091505550565b3373ffffffffffffffffffffffffffffffffffffffff16600060029054906101000a900473ffffffffffffffffffffffffffffffffffffffff1673ffffffffffffffffffffffffffffffffffffffff1614610beb576040517f08c379a00000000000000000000000000000000000000000000000000000000081526004018080602001828103825260208152602001807f4f776e61626c653a2063616c6c6572206973206e6f7420746865206f776e657281525060200191505060405180910390fd5b60005b82829050811015610c2157610c14838383818110610c0857fe5b905060200201356108d9565b8080600101915050610bee565b505050565b3373ffffffffffffffffffffffffffffffffffffffff16600060029054906101000a900473ffffffffffffffffffffffffffffffffffffffff1673ffffffffffffffffffffffffffffffffffffffff1614610ce9576040517f08c379a00000000000000000000000000000000000000000000000000000000081526004018080602001828103825260208152602001807f4f776e61626c653a2063616c6c6572206973206e6f7420746865206f776e657281525060200191505060405180910390fd5b60005b82829050811015610d1f57610d12838383818110610d0657fe5b90506020020135610a39565b8080600101915050610cec565b505050565b600060019054906101000a900460ff1680610d435750610d426111b1565b5b80610d59575060008054906101000a900460ff16155b610dae576040517f08c379a000000000000000000000000000000000000000000000000000000000815260040180806020018281038252602e8152602001806111c9602e913960400191505060405180910390fd5b60008060019054906101000a900460ff161590508015610dfe576001600060016101000a81548160ff02191690831515021790555060016000806101000a81548160ff0219169083151502179055505b600033905080600060026101000a81548173ffffffffffffffffffffffffffffffffffffffff021916908373ffffffffffffffffffffffffffffffffffffffff160217905550508015610e665760008060016101000a81548160ff0219169083151502179055505b50565b600060029054906101000a900473ffffffffffffffffffffffffffffffffffffffff1681565b60038181548110610e9f57600080fd5b906000526020600020016000915054906101000a900473ffffffffffffffffffffffffffffffffffffffff1681565b3373ffffffffffffffffffffffffffffffffffffffff16600060029054906101000a900473ffffffffffffffffffffffffffffffffffffffff1673ffffffffffffffffffffffffffffffffffffffff1614610f91576040517f08c379a00000000000000000000000000000000000000000000000000000000081526004018080602001828103825260208152602001807f4f776e61626c653a2063616c6c6572206973206e6f7420746865206f776e657281525060200191505060405180910390fd5b60008190508073ffffffffffffffffffffffffffffffffffffffff1663095ea7b3600060029054906101000a900473ffffffffffffffffffffffffffffffffffffffff167fffffffffffffffffffffffffffffffffffffffffffffffffffffffffffffffff6040518363ffffffff1660e01b8152600401808373ffffffffffffffffffffffffffffffffffffffff16815260200182815260200192505050602060405180830381600087803b15801561104957600080fd5b505af115801561105d573d6000803e3d6000fd5b505050506040513d602081101561107357600080fd5b8101908080519060200190929190505050505050565b60003373ffffffffffffffffffffffffffffffffffffffff16600060029054906101000a900473ffffffffffffffffffffffffffffffffffffffff1673ffffffffffffffffffffffffffffffffffffffff161461114e576040517f08c379a00000000000000000000000000000000000000000000000000000000081526004018080602001828103825260208152602001807f4f776e61626c653a2063616c6c6572206973206e6f7420746865206f776e657281525060200191505060405180910390fd5b81600160008573ffffffffffffffffffffffffffffffffffffffff1673ffffffffffffffffffffffffffffffffffffffff168152602001908152602001600020819055905092915050565b60016020528060005260406000206000915090505481565b6000803090506000813b905060008114925050509056fe496e697469616c697a61626c653a20636f6e747261637420697320616c726561647920696e697469616c697a6564a264697066735822122052c0c56f747ab0763e1c54acc139f1445f4f30be5c8db0b0ab3c65275fcced8f64736f6c63430007040033",
  "immutableReferences": {},
  "source": "// SPDX-License-Identifier: MIT\r\npragma solidity ^0.7.0;\r\n\r\n  /**\r\n   * @title UserVault\r\n   * @notice A personal asset vault for each user\r\n   * @notice part of the StakeYourName DApp\r\n   * @author Daniel Chilvers\r\n   **/\r\n\r\nimport \"@openzeppelin/contracts/proxy/Initializable.sol\";\r\nimport \"@openzeppelin/contracts/token/ERC20/IERC20.sol\";\r\n\r\ncontract UserVault is Initializable{\r\n\r\n    address public owner;\r\n    mapping (address => uint256) public balance;\r\n    uint256[] public names;\r\n    address[] public assets;\r\n    \r\n    modifier onlyOwner() {\r\n        require(owner == msg.sender, \"Ownable: caller is not the owner\");\r\n        _;\r\n    }\r\n\r\n    function initialize() public initializer{\r\n        address msgSender = msg.sender;\r\n        owner = msgSender;\r\n    }\r\n\r\n    function approve(address _asset) external onlyOwner{\r\n        IERC20 erc20 = IERC20(_asset);\r\n        erc20.approve(owner, type(uint256).max);\r\n    }\r\n\r\n    function setBalance(address _asset, uint256 _balance) external onlyOwner returns(uint256){\r\n         return balance[_asset] = _balance;\r\n    }\r\n\r\n    function addName(uint256 _name) public onlyOwner {\r\n        names.push(_name);\r\n    }\r\n\r\n    function addMultipleNames(uint256[] calldata _names) external onlyOwner {\r\n        for (uint256 i; i < _names.length; i++){\r\n            addName(_names[i]);\r\n        }\r\n    }\r\n\r\n    function removeName(uint256 _name) public onlyOwner {\r\n        for (uint256 i; i < names.length; i++){\r\n            if (names[i] == _name){\r\n                names[i] = names[names.length-1];\r\n                names.pop();\r\n            }\r\n        }\r\n    }\r\n\r\n    function removeMultipleNames(uint256[] calldata _names) external onlyOwner {\r\n        for (uint256 i; i < _names.length; i++){\r\n            removeName(_names[i]);\r\n        }\r\n    }\r\n\r\n    function addAsset(address _asset) external onlyOwner{\r\n        bool _found = false;\r\n        for(uint256 i; i < assets.length; i++){\r\n            if(assets[i] == _asset){\r\n                _found = true;\r\n            }\r\n        }\r\n        if(_found == false){\r\n            assets.push(_asset);\r\n        }\r\n    }\r\n\r\n    function removeAsset(address _asset) external onlyOwner{\r\n    if(balance[_asset] == 0){\r\n        for(uint256 i; i < assets.length; i++){\r\n                if(assets[i] == _asset){\r\n                    assets[i] = assets[assets.length-1];\r\n                    assets.pop();\r\n                }\r\n            }  \r\n        }\r\n    }\r\n}",
  "sourcePath": "C:/Users/anyth/Documents/GitHub/StakeYourName/contracts/UserVault.sol",
  "compiler": {
    "name": "solc",
    "version": "0.7.4+commit.3f05b770.Emscripten.clang"
  },
  "schemaVersion": "3.3.3",
  "updatedAt": "2021-01-28T11:21:19.436Z",
  "devdoc": {
    "kind": "dev",
    "methods": {},
    "version": 1
  },
  "userdoc": {
    "kind": "user",
    "methods": {},
    "version": 1
  }
}