{
  "contractName": "UserVault",
  "abi": [
    {
      "inputs": [
        {
          "internalType": "uint256",
          "name": "",
          "type": "uint256"
        }
      ],
      "name": "assets",
      "outputs": [
        {
          "internalType": "address",
          "name": "",
          "type": "address"
        }
      ],
      "stateMutability": "view",
      "type": "function",
      "constant": true
    },
    {
      "inputs": [
        {
          "internalType": "address",
          "name": "",
          "type": "address"
        }
      ],
      "name": "balance",
      "outputs": [
        {
          "internalType": "uint256",
          "name": "",
          "type": "uint256"
        }
      ],
      "stateMutability": "view",
      "type": "function",
      "constant": true
    },
    {
      "inputs": [
        {
          "internalType": "uint256",
          "name": "",
          "type": "uint256"
        }
      ],
      "name": "names",
      "outputs": [
        {
          "internalType": "uint256",
          "name": "",
          "type": "uint256"
        }
      ],
      "stateMutability": "view",
      "type": "function",
      "constant": true
    },
    {
      "inputs": [],
      "name": "owner",
      "outputs": [
        {
          "internalType": "address",
          "name": "",
          "type": "address"
        }
      ],
      "stateMutability": "view",
      "type": "function",
      "constant": true
    },
    {
      "inputs": [
        {
          "internalType": "uint256",
          "name": "",
          "type": "uint256"
        },
        {
          "internalType": "uint256",
          "name": "",
          "type": "uint256"
        }
      ],
      "name": "readableName",
      "outputs": [
        {
          "internalType": "string",
          "name": "",
          "type": "string"
        }
      ],
      "stateMutability": "view",
      "type": "function",
      "constant": true
    },
    {
      "stateMutability": "payable",
      "type": "receive",
      "payable": true
    },
    {
      "inputs": [],
      "name": "collectETH",
      "outputs": [],
      "stateMutability": "nonpayable",
      "type": "function"
    },
    {
      "inputs": [],
      "name": "initialize",
      "outputs": [],
      "stateMutability": "nonpayable",
      "type": "function"
    },
    {
      "inputs": [
        {
          "internalType": "address",
          "name": "_asset",
          "type": "address"
        }
      ],
      "name": "approve",
      "outputs": [],
      "stateMutability": "nonpayable",
      "type": "function"
    },
    {
      "inputs": [
        {
          "internalType": "address",
          "name": "_asset",
          "type": "address"
        },
        {
          "internalType": "uint256",
          "name": "_balance",
          "type": "uint256"
        }
      ],
      "name": "setBalance",
      "outputs": [
        {
          "internalType": "uint256",
          "name": "",
          "type": "uint256"
        }
      ],
      "stateMutability": "nonpayable",
      "type": "function"
    },
    {
      "inputs": [
        {
          "internalType": "uint256",
          "name": "_name",
          "type": "uint256"
        },
        {
          "internalType": "string[]",
          "name": "_readableName",
          "type": "string[]"
        }
      ],
      "name": "addName",
      "outputs": [],
      "stateMutability": "nonpayable",
      "type": "function"
    },
    {
      "inputs": [
        {
          "internalType": "uint256[]",
          "name": "_names",
          "type": "uint256[]"
        },
        {
          "internalType": "string[][]",
          "name": "_readableNames",
          "type": "string[][]"
        }
      ],
      "name": "addMultipleNames",
      "outputs": [],
      "stateMutability": "nonpayable",
      "type": "function"
    },
    {
      "inputs": [
        {
          "internalType": "uint256",
          "name": "_name",
          "type": "uint256"
        }
      ],
      "name": "removeName",
      "outputs": [],
      "stateMutability": "nonpayable",
      "type": "function"
    },
    {
      "inputs": [
        {
          "internalType": "uint256[]",
          "name": "_names",
          "type": "uint256[]"
        }
      ],
      "name": "removeMultipleNames",
      "outputs": [],
      "stateMutability": "nonpayable",
      "type": "function"
    },
    {
      "inputs": [
        {
          "internalType": "address",
          "name": "_asset",
          "type": "address"
        }
      ],
      "name": "addAsset",
      "outputs": [],
      "stateMutability": "nonpayable",
      "type": "function"
    },
    {
      "inputs": [
        {
          "internalType": "address",
          "name": "_asset",
          "type": "address"
        }
      ],
      "name": "removeAsset",
      "outputs": [],
      "stateMutability": "nonpayable",
      "type": "function"
    },
    {
      "inputs": [],
      "name": "countAssets",
      "outputs": [
        {
          "internalType": "uint256",
          "name": "",
          "type": "uint256"
        }
      ],
      "stateMutability": "view",
      "type": "function",
      "constant": true
    },
    {
      "inputs": [],
      "name": "countNames",
      "outputs": [
        {
          "internalType": "uint256",
          "name": "",
          "type": "uint256"
        }
      ],
      "stateMutability": "view",
      "type": "function",
      "constant": true
    },
    {
      "inputs": [],
      "name": "readNames",
      "outputs": [
        {
          "internalType": "uint256[]",
          "name": "",
          "type": "uint256[]"
        }
      ],
      "stateMutability": "view",
      "type": "function",
      "constant": true
    },
    {
      "inputs": [
        {
          "internalType": "uint256",
          "name": "_hash",
          "type": "uint256"
        },
        {
          "internalType": "uint256",
          "name": "_index",
          "type": "uint256"
        }
      ],
      "name": "readSubName",
      "outputs": [
        {
          "internalType": "string",
          "name": "_name",
          "type": "string"
        }
      ],
      "stateMutability": "view",
      "type": "function",
      "constant": true
    },
    {
      "inputs": [
        {
          "internalType": "uint256",
          "name": "_index",
          "type": "uint256"
        }
      ],
      "name": "assembleName",
      "outputs": [
        {
          "internalType": "string",
          "name": "_name",
          "type": "string"
        }
      ],
      "stateMutability": "view",
      "type": "function",
      "constant": true
    }
  ],
  "bytecode": "0x608060405234801561001057600080fd5b506113fd806100206000396000f3fe6080604052600436106101235760003560e01c8063ad36e0c9116100a0578063daea85c511610064578063daea85c514610317578063e30443bc14610337578063e3d670d714610357578063f96ad21314610377578063fdff9b81146103975761012a565b8063ad36e0c91461028d578063ade12d50146102a2578063be07ebe9146102c2578063c5a83c2b146102e2578063cf35bdd0146102f75761012a565b80636de43cc2116100e75780636de43cc2146101f45780638129fc1c14610214578063853fd826146102295780638da5cb5b1461024b578063a79aa6041461026d5761012a565b80632640647b1461012f578063298410e5146101655780634622ab03146101875780634a5e42b1146101b45780634e75486a146101d45761012a565b3661012a57005b600080fd5b34801561013b57600080fd5b5061014f61014a366004611123565b6103ac565b60405161015c9190611280565b60405180910390f35b34801561017157600080fd5b50610185610180366004610fa0565b610465565b005b34801561019357600080fd5b506101a76101a23660046110b3565b610541565b60405161015c91906112e8565b3480156101c057600080fd5b506101856101cf366004610fa0565b610562565b3480156101e057600080fd5b506101856101ef3660046110b3565b61068d565b34801561020057600080fd5b5061018561020f366004610fea565b610749565b34801561022057600080fd5b506101856107ac565b34801561023557600080fd5b5061023e610866565b60405161015c919061123c565b34801561025757600080fd5b506102606108be565b60405161015c919061120f565b34801561027957600080fd5b5061018561028836600461102a565b6108d3565b34801561029957600080fd5b506101a761095a565b3480156102ae57600080fd5b5061014f6102bd366004611123565b610960565b3480156102ce57600080fd5b506101856102dd3660046110cb565b610a17565b3480156102ee57600080fd5b506101a7610a9d565b34801561030357600080fd5b506102606103123660046110b3565b610aa3565b34801561032357600080fd5b50610185610332366004610fa0565b610acd565b34801561034357600080fd5b506101a7610352366004610fc1565b610b8c565b34801561036357600080fd5b506101a7610372366004610fa0565b610bde565b34801561038357600080fd5b5061014f6103923660046110b3565b610bf0565b3480156103a357600080fd5b50610185610cd5565b6000828152600260205260409020805460609190839081106103ca57fe5b600091825260209182902001805460408051601f60026000196101006001871615020190941693909304928301859004850281018501909152818152928301828280156104585780601f1061042d57610100808354040283529160200191610458565b820191906000526020600020905b81548152906001019060200180831161043b57829003601f168201915b5050505050905092915050565b6000546201000090046001600160a01b0316331461049e5760405162461bcd60e51b8152600401610495906112b3565b60405180910390fd5b6000805b6004548110156104eb57826001600160a01b0316600482815481106104c357fe5b6000918252602090912001546001600160a01b031614156104e357600191505b6001016104a2565b508061053d57600480546001810182556000919091527f8a35acfbc15ff81a39ae7d344fd709f28e8600b4aa8c65c6b64bfe7fe36bd19b0180546001600160a01b0319166001600160a01b0384161790555b5050565b6003818154811061055157600080fd5b600091825260209091200154905081565b6000546201000090046001600160a01b031633146105925760405162461bcd60e51b8152600401610495906112b3565b6001600160a01b03811660009081526001602052604090205461068a5760005b60045481101561053d57816001600160a01b0316600482815481106105d357fe5b6000918252602090912001546001600160a01b031614156106825760048054600019810190811061060057fe5b600091825260209091200154600480546001600160a01b03909216918390811061062657fe5b9060005260206000200160006101000a8154816001600160a01b0302191690836001600160a01b03160217905550600480548061065f57fe5b600082815260209020810160001990810180546001600160a01b03191690550190555b6001016105b2565b50565b6000546201000090046001600160a01b031633146106bd5760405162461bcd60e51b8152600401610495906112b3565b60005b60035481101561053d5781600382815481106106d857fe5b90600052602060002001541415610741576003805460001981019081106106fb57fe5b90600052602060002001546003828154811061071357fe5b600091825260209091200155600380548061072a57fe5b600190038181906000526020600020016000905590555b6001016106c0565b6000546201000090046001600160a01b031633146107795760405162461bcd60e51b8152600401610495906112b3565b60005b818110156107a75761079f83838381811061079357fe5b9050602002013561068d565b60010161077c565b505050565b600054610100900460ff16806107c557506107c5610d31565b806107d3575060005460ff16155b61080e5760405162461bcd60e51b815260040180806020018281038252602e81526020018061139a602e913960400191505060405180910390fd5b600054610100900460ff16158015610839576000805460ff1961ff0019909116610100171660011790555b6000805462010000600160b01b031916336201000002179055801561068a576000805461ff001916905550565b606060038054806020026020016040519081016040528092919081815260200182805480156108b457602002820191906000526020600020905b8154815260200190600101908083116108a0575b5050505050905090565b6000546201000090046001600160a01b031681565b6000546201000090046001600160a01b031633146109035760405162461bcd60e51b8152600401610495906112b3565b60005b838110156109535761094b85858381811061091d57fe5b9050602002013584848481811061093057fe5b905060200281019061094291906112f1565b6102dd9161135c565b600101610906565b5050505050565b60035490565b6002602052816000526040600020818154811061097c57600080fd5b600091825260209182902001805460408051601f60026000196101006001871615020190941693909304928301859004850281018501909152818152945090925090830182828015610a0f5780601f106109e457610100808354040283529160200191610a0f565b820191906000526020600020905b8154815290600101906020018083116109f257829003601f168201915b505050505081565b6000546201000090046001600160a01b03163314610a475760405162461bcd60e51b8152600401610495906112b3565b60008281526002602090815260409091208251610a6692840190610d37565b5050600380546001810182556000919091527fc2575a0e9e593c00f959f8c92f12db2869c3395a3b0502d05e2516446f71f85b0155565b60045490565b60048181548110610ab357600080fd5b6000918252602090912001546001600160a01b0316905081565b6000546201000090046001600160a01b03163314610afd5760405162461bcd60e51b8152600401610495906112b3565b60005460405163095ea7b360e01b815282916001600160a01b038084169263095ea7b392610b3a9262010000909104169060001990600401611223565b602060405180830381600087803b158015610b5457600080fd5b505af1158015610b68573d6000803e3d6000fd5b505050506040513d601f19601f820116820180604052508101906107a79190611093565b600080546201000090046001600160a01b03163314610bbd5760405162461bcd60e51b8152600401610495906112b3565b506001600160a01b0391909116600090815260016020526040902081905590565b60016020526000908152604090205481565b60008181526002602052604090208054606091906001908110610c0f57fe5b9060005260206000200160026000848152602001908152602001600020600081548110610c3857fe5b90600052602060002001604051602001610c539291906111e6565b60408051601f19818403018152919052905060025b600083815260026020526040902054811015610cce576000838152600260205260409020805482908110610c9857fe5b9060005260206000200182604051602001610cb49291906111b4565b60408051601f198184030181529190529150600101610c68565b505b919050565b6000546201000090046001600160a01b03163314610d055760405162461bcd60e51b8152600401610495906112b3565b60405133904780156108fc02916000818181858888f1935050505015801561068a573d6000803e3d6000fd5b303b1590565b828054828255906000526020600020908101928215610d84579160200282015b82811115610d845782518051610d74918491602090910190610d94565b5091602001919060010190610d57565b50610d90929150610e1c565b5090565b828054600181600116156101000203166002900490600052602060002090601f016020900481019282610dca5760008555610e10565b82601f10610de357805160ff1916838001178555610e10565b82800160010185558215610e10579182015b82811115610e10578251825591602001919060010190610df5565b50610d90929150610e39565b80821115610d90576000610e308282610e4e565b50600101610e1c565b5b80821115610d905760008155600101610e3a565b50805460018160011615610100020316600290046000825580601f10610e74575061068a565b601f01602090049060005260206000209081019061068a9190610e39565b600067ffffffffffffffff80841115610ea757fe5b6020610eb68182870201611338565b85815292508083018460005b87811015610f345781358701601f8a81830112610ede57600080fd5b813587811115610eea57fe5b610efb818301601f19168801611338565b91508082528b87828501011115610f1157600080fd5b808784018884013760009082018701528452509183019190830190600101610ec2565b50505050509392505050565b80356001600160a01b0381168114610cd057600080fd5b60008083601f840112610f68578182fd5b50813567ffffffffffffffff811115610f7f578182fd5b6020830191508360208083028501011115610f9957600080fd5b9250929050565b600060208284031215610fb1578081fd5b610fba82610f40565b9392505050565b60008060408385031215610fd3578081fd5b610fdc83610f40565b946020939093013593505050565b60008060208385031215610ffc578182fd5b823567ffffffffffffffff811115611012578283fd5b61101e85828601610f57565b90969095509350505050565b6000806000806040858703121561103f578182fd5b843567ffffffffffffffff80821115611056578384fd5b61106288838901610f57565b9096509450602087013591508082111561107a578384fd5b5061108787828801610f57565b95989497509550505050565b6000602082840312156110a4578081fd5b81518015158114610fba578182fd5b6000602082840312156110c4578081fd5b5035919050565b600080604083850312156110dd578182fd5b82359150602083013567ffffffffffffffff8111156110fa578182fd5b8301601f8101851361110a578182fd5b61111985823560208401610e92565b9150509250929050565b60008060408385031215611135578182fd5b50508035926020909101359150565b600081546001808216600081146111625760018114611179576111ab565b60ff198316865260028304607f16860193506111ab565b600283048560005260208060002060005b838110156111a35781548a82015290850190820161118a565b505050860193505b50505092915050565b60006111c08285611144565b601760f91b815283516111da816001840160208801611369565b01600101949350505050565b60006111f28285611144565b601760f91b81526112066001820185611144565b95945050505050565b6001600160a01b0391909116815260200190565b6001600160a01b03929092168252602082015260400190565b6020808252825182820181905260009190848201906040850190845b8181101561127457835183529284019291840191600101611258565b50909695505050505050565b600060208252825180602084015261129f816040850160208701611369565b601f01601f19169190910160400192915050565b6020808252818101527f4f776e61626c653a2063616c6c6572206973206e6f7420746865206f776e6572604082015260600190565b90815260200190565b6000808335601e19843603018112611307578283fd5b83018035915067ffffffffffffffff821115611321578283fd5b6020908101925081023603821315610f9957600080fd5b60405181810167ffffffffffffffff8111828210171561135457fe5b604052919050565b6000610fba368484610e92565b60005b8381101561138457818101518382015260200161136c565b83811115611393576000848401525b5050505056fe496e697469616c697a61626c653a20636f6e747261637420697320616c726561647920696e697469616c697a6564a264697066735822122067d4eb216c92ef93575afeef180f192680549138cc500fb6fda40a16002d7e4f64736f6c63430007060033",
  "immutableReferences": {},
  "source": "// SPDX-License-Identifier: MIT\r\npragma solidity ^0.7.6;\r\npragma abicoder v2;\r\n\r\n  /**\r\n   * @title UserVault\r\n   * @notice A personal asset vault for each user\r\n   * @notice part of the StakeYourName DApp\r\n   * @author Daniel Chilvers\r\n   **/\r\n\r\nimport \"@openzeppelin/contracts/proxy/Initializable.sol\";\r\nimport \"@openzeppelin/contracts/token/ERC20/IERC20.sol\";\r\n\r\ncontract UserVault is Initializable{\r\n\r\n    address public owner;\r\n    mapping (address => uint256) public balance;\r\n    mapping (uint256 => string[]) public readableName;\r\n    uint256[] public names;\r\n    address[] public assets;\r\n    \r\n    modifier onlyOwner() {\r\n        require(owner == msg.sender, \"Ownable: caller is not the owner\");\r\n        _;\r\n    }\r\n\r\n    receive() external payable {}\r\n\r\n    function collectETH() external onlyOwner{\r\n        msg.sender.transfer(address(this).balance);\r\n    }\r\n\r\n    function initialize() public initializer{\r\n        address msgSender = msg.sender;\r\n        owner = msgSender;\r\n    }\r\n\r\n    function approve(address _asset) external onlyOwner{\r\n        IERC20 erc20 = IERC20(_asset);\r\n        erc20.approve(owner, type(uint256).max);\r\n    }\r\n\r\n    function setBalance(address _asset, uint256 _balance) external onlyOwner returns(uint256){\r\n         return balance[_asset] = _balance;\r\n    }\r\n\r\n    function addName(uint256 _name, string[] memory _readableName) public onlyOwner {\r\n        readableName[_name] = _readableName;\r\n        names.push(_name);\r\n    }\r\n\r\n    function addMultipleNames(uint256[] calldata _names, string[][] calldata _readableNames) external onlyOwner {\r\n        for (uint256 i; i < _names.length; i++){\r\n            addName(_names[i], _readableNames[i]);\r\n        }\r\n    }\r\n\r\n    function removeName(uint256 _name) public onlyOwner {\r\n        for (uint256 i; i < names.length; i++){\r\n            if (names[i] == _name){\r\n                names[i] = names[names.length-1];\r\n                names.pop();\r\n            }\r\n        }\r\n    }\r\n\r\n    function removeMultipleNames(uint256[] calldata _names) external onlyOwner {\r\n        for (uint256 i; i < _names.length; i++){\r\n            removeName(_names[i]);\r\n        }\r\n    }\r\n\r\n    function addAsset(address _asset) external onlyOwner{\r\n        bool _found = false;\r\n        for(uint256 i; i < assets.length; i++){\r\n            if(assets[i] == _asset){\r\n                _found = true;\r\n            }\r\n        }\r\n        if(_found == false){\r\n            assets.push(_asset);\r\n        }\r\n    }\r\n\r\n    function removeAsset(address _asset) external onlyOwner{\r\n    if(balance[_asset] == 0){\r\n        for(uint256 i; i < assets.length; i++){\r\n                if(assets[i] == _asset){\r\n                    assets[i] = assets[assets.length-1];\r\n                    assets.pop();\r\n                }\r\n            }  \r\n        }\r\n    }\r\n\r\n    function countAssets() external view returns(uint256){\r\n        return assets.length;\r\n    }\r\n    function countNames() external view returns(uint256){\r\n        return names.length;\r\n    }\r\n    function readNames() external view returns(uint256[] memory){\r\n        return names;\r\n    }\r\n    function readSubName(uint256 _hash, uint256 _index) external view returns(string memory _name){\r\n        _name = readableName[_hash][_index];\r\n    }\r\n\r\n    /// @notice assmebles the parts of the readable name into a single string\r\n    function assembleName(uint256 _index) external view returns(string memory _name){\r\n        _name = string(abi.encodePacked(readableName[_index][1],\".\",readableName[_index][0]));\r\n        for(uint256 i = 2; i < readableName[_index].length; i++){\r\n            _name = string(abi.encodePacked(readableName[_index][i],\".\",_name));\r\n        }\r\n        return _name;\r\n    }\r\n}",
  "sourcePath": "C:/Users/anyth/Documents/GitHub/StakeYourName/contracts/UserVault.sol",
  "compiler": {
    "name": "solc",
    "version": "0.7.6+commit.7338295f.Emscripten.clang"
  },
  "schemaVersion": "3.3.3",
  "updatedAt": "2021-02-02T16:46:30.029Z",
  "networkType": "ethereum",
  "devdoc": {
    "kind": "dev",
    "methods": {},
    "version": 1
  },
  "userdoc": {
    "kind": "user",
    "methods": {
      "assembleName(uint256)": {
        "notice": "assmebles the parts of the readable name into a single string"
      }
    },
    "version": 1
  }
}