{
  "contractName": "UserVault",
  "abi": [
    {
      "inputs": [
        {
          "internalType": "uint256",
          "name": "",
          "type": "uint256"
        }
      ],
      "name": "assets",
      "outputs": [
        {
          "internalType": "address",
          "name": "",
          "type": "address"
        }
      ],
      "stateMutability": "view",
      "type": "function"
    },
    {
      "inputs": [
        {
          "internalType": "address",
          "name": "",
          "type": "address"
        }
      ],
      "name": "balance",
      "outputs": [
        {
          "internalType": "uint256",
          "name": "",
          "type": "uint256"
        }
      ],
      "stateMutability": "view",
      "type": "function"
    },
    {
      "inputs": [
        {
          "internalType": "uint256",
          "name": "",
          "type": "uint256"
        }
      ],
      "name": "names",
      "outputs": [
        {
          "internalType": "uint256",
          "name": "",
          "type": "uint256"
        }
      ],
      "stateMutability": "view",
      "type": "function"
    },
    {
      "inputs": [],
      "name": "owner",
      "outputs": [
        {
          "internalType": "address",
          "name": "",
          "type": "address"
        }
      ],
      "stateMutability": "view",
      "type": "function"
    },
    {
      "inputs": [
        {
          "internalType": "uint256",
          "name": "",
          "type": "uint256"
        }
      ],
      "name": "readableName",
      "outputs": [
        {
          "internalType": "string",
          "name": "",
          "type": "string"
        }
      ],
      "stateMutability": "view",
      "type": "function"
    },
    {
      "stateMutability": "payable",
      "type": "receive"
    },
    {
      "inputs": [],
      "name": "collectETH",
      "outputs": [],
      "stateMutability": "nonpayable",
      "type": "function"
    },
    {
      "inputs": [],
      "name": "initialize",
      "outputs": [],
      "stateMutability": "nonpayable",
      "type": "function"
    },
    {
      "inputs": [
        {
          "internalType": "address",
          "name": "_asset",
          "type": "address"
        }
      ],
      "name": "approve",
      "outputs": [],
      "stateMutability": "nonpayable",
      "type": "function"
    },
    {
      "inputs": [
        {
          "internalType": "address",
          "name": "_asset",
          "type": "address"
        },
        {
          "internalType": "uint256",
          "name": "_balance",
          "type": "uint256"
        }
      ],
      "name": "setBalance",
      "outputs": [
        {
          "internalType": "uint256",
          "name": "",
          "type": "uint256"
        }
      ],
      "stateMutability": "nonpayable",
      "type": "function"
    },
    {
      "inputs": [
        {
          "internalType": "uint256",
          "name": "_name",
          "type": "uint256"
        }
      ],
      "name": "addName",
      "outputs": [],
      "stateMutability": "nonpayable",
      "type": "function"
    },
    {
      "inputs": [
        {
          "internalType": "uint256[]",
          "name": "_names",
          "type": "uint256[]"
        }
      ],
      "name": "addMultipleNames",
      "outputs": [],
      "stateMutability": "nonpayable",
      "type": "function"
    },
    {
      "inputs": [
        {
          "internalType": "uint256",
          "name": "_name",
          "type": "uint256"
        }
      ],
      "name": "removeName",
      "outputs": [],
      "stateMutability": "nonpayable",
      "type": "function"
    },
    {
      "inputs": [
        {
          "internalType": "uint256[]",
          "name": "_names",
          "type": "uint256[]"
        }
      ],
      "name": "removeMultipleNames",
      "outputs": [],
      "stateMutability": "nonpayable",
      "type": "function"
    },
    {
      "inputs": [
        {
          "internalType": "address",
          "name": "_asset",
          "type": "address"
        }
      ],
      "name": "addAsset",
      "outputs": [],
      "stateMutability": "nonpayable",
      "type": "function"
    },
    {
      "inputs": [
        {
          "internalType": "address",
          "name": "_asset",
          "type": "address"
        }
      ],
      "name": "removeAsset",
      "outputs": [],
      "stateMutability": "nonpayable",
      "type": "function"
    }
  ],
  "bytecode": "0x608060405234801561001057600080fd5b50611580806100206000396000f3fe6080604052600436106100ec5760003560e01c80638129fc1c1161008a578063e30443bc11610059578063e30443bc14610479578063e3d670d7146104e8578063e97b56531461054d578063fdff9b8114610601576100f3565b80638129fc1c1461036b5780638da5cb5b14610382578063cf35bdd0146103c3578063daea85c514610428576100f3565b80634e75486a116100c65780634e75486a146101e957806353b08df6146102245780636de43cc21461025f5780637a82794b146102e5576100f3565b8063298410e5146100f85780634622ab03146101495780634a5e42b114610198576100f3565b366100f357005b600080fd5b34801561010457600080fd5b506101476004803603602081101561011b57600080fd5b81019080803573ffffffffffffffffffffffffffffffffffffffff169060200190929190505050610618565b005b34801561015557600080fd5b506101826004803603602081101561016c57600080fd5b81019080803590602001909291905050506107df565b6040518082815260200191505060405180910390f35b3480156101a457600080fd5b506101e7600480360360208110156101bb57600080fd5b81019080803573ffffffffffffffffffffffffffffffffffffffff169060200190929190505050610803565b005b3480156101f557600080fd5b506102226004803603602081101561020c57600080fd5b8101908080359060200190929190505050610a71565b005b34801561023057600080fd5b5061025d6004803603602081101561024757600080fd5b8101908080359060200190929190505050610bd1565b005b34801561026b57600080fd5b506102e36004803603602081101561028257600080fd5b810190808035906020019064010000000081111561029f57600080fd5b8201836020820111156102b157600080fd5b803590602001918460208302840111640100000000831117156102d357600080fd5b9091929391929390505050610cc0565b005b3480156102f157600080fd5b506103696004803603602081101561030857600080fd5b810190808035906020019064010000000081111561032557600080fd5b82018360208201111561033757600080fd5b8035906020019184602083028401116401000000008311171561035957600080fd5b9091929391929390505050610dbe565b005b34801561037757600080fd5b50610380610ebc565b005b34801561038e57600080fd5b50610397611001565b604051808273ffffffffffffffffffffffffffffffffffffffff16815260200191505060405180910390f35b3480156103cf57600080fd5b506103fc600480360360208110156103e657600080fd5b8101908080359060200190929190505050611027565b604051808273ffffffffffffffffffffffffffffffffffffffff16815260200191505060405180910390f35b34801561043457600080fd5b506104776004803603602081101561044b57600080fd5b81019080803573ffffffffffffffffffffffffffffffffffffffff169060200190929190505050611066565b005b34801561048557600080fd5b506104d26004803603604081101561049c57600080fd5b81019080803573ffffffffffffffffffffffffffffffffffffffff16906020019092919080359060200190929190505050611221565b6040518082815260200191505060405180910390f35b3480156104f457600080fd5b506105376004803603602081101561050b57600080fd5b81019080803573ffffffffffffffffffffffffffffffffffffffff169060200190929190505050611331565b6040518082815260200191505060405180910390f35b34801561055957600080fd5b506105866004803603602081101561057057600080fd5b8101908080359060200190929190505050611349565b6040518080602001828103825283818151815260200191508051906020019080838360005b838110156105c65780820151818401526020810190506105ab565b50505050905090810190601f1680156105f35780820380516001836020036101000a031916815260200191505b509250505060405180910390f35b34801561060d57600080fd5b506106166113f9565b005b3373ffffffffffffffffffffffffffffffffffffffff16600060029054906101000a900473ffffffffffffffffffffffffffffffffffffffff1673ffffffffffffffffffffffffffffffffffffffff16146106db576040517f08c379a00000000000000000000000000000000000000000000000000000000081526004018080602001828103825260208152602001807f4f776e61626c653a2063616c6c6572206973206e6f7420746865206f776e657281525060200191505060405180910390fd5b6000805b600480549050811015610769578273ffffffffffffffffffffffffffffffffffffffff166004828154811061071057fe5b9060005260206000200160009054906101000a900473ffffffffffffffffffffffffffffffffffffffff1673ffffffffffffffffffffffffffffffffffffffff16141561075c57600191505b80806001019150506106df565b506000151581151514156107db576004829080600181540180825580915050600190039060005260206000200160009091909190916101000a81548173ffffffffffffffffffffffffffffffffffffffff021916908373ffffffffffffffffffffffffffffffffffffffff1602179055505b5050565b600381815481106107ef57600080fd5b906000526020600020016000915090505481565b3373ffffffffffffffffffffffffffffffffffffffff16600060029054906101000a900473ffffffffffffffffffffffffffffffffffffffff1673ffffffffffffffffffffffffffffffffffffffff16146108c6576040517f08c379a00000000000000000000000000000000000000000000000000000000081526004018080602001828103825260208152602001807f4f776e61626c653a2063616c6c6572206973206e6f7420746865206f776e657281525060200191505060405180910390fd5b6000600160008373ffffffffffffffffffffffffffffffffffffffff1673ffffffffffffffffffffffffffffffffffffffff168152602001908152602001600020541415610a6e5760005b600480549050811015610a6c578173ffffffffffffffffffffffffffffffffffffffff166004828154811061094257fe5b9060005260206000200160009054906101000a900473ffffffffffffffffffffffffffffffffffffffff1673ffffffffffffffffffffffffffffffffffffffff161415610a5f5760046001600480549050038154811061099e57fe5b9060005260206000200160009054906101000a900473ffffffffffffffffffffffffffffffffffffffff16600482815481106109d657fe5b9060005260206000200160006101000a81548173ffffffffffffffffffffffffffffffffffffffff021916908373ffffffffffffffffffffffffffffffffffffffff1602179055506004805480610a2957fe5b6001900381819060005260206000200160006101000a81549073ffffffffffffffffffffffffffffffffffffffff021916905590555b8080600101915050610911565b505b50565b3373ffffffffffffffffffffffffffffffffffffffff16600060029054906101000a900473ffffffffffffffffffffffffffffffffffffffff1673ffffffffffffffffffffffffffffffffffffffff1614610b34576040517f08c379a00000000000000000000000000000000000000000000000000000000081526004018080602001828103825260208152602001807f4f776e61626c653a2063616c6c6572206973206e6f7420746865206f776e657281525060200191505060405180910390fd5b60005b600380549050811015610bcd578160038281548110610b5257fe5b90600052602060002001541415610bc057600360016003805490500381548110610b7857fe5b906000526020600020015460038281548110610b9057fe5b90600052602060002001819055506003805480610ba957fe5b600190038181906000526020600020016000905590555b8080600101915050610b37565b5050565b3373ffffffffffffffffffffffffffffffffffffffff16600060029054906101000a900473ffffffffffffffffffffffffffffffffffffffff1673ffffffffffffffffffffffffffffffffffffffff1614610c94576040517f08c379a00000000000000000000000000000000000000000000000000000000081526004018080602001828103825260208152602001807f4f776e61626c653a2063616c6c6572206973206e6f7420746865206f776e657281525060200191505060405180910390fd5b600381908060018154018082558091505060019003906000526020600020016000909190919091505550565b3373ffffffffffffffffffffffffffffffffffffffff16600060029054906101000a900473ffffffffffffffffffffffffffffffffffffffff1673ffffffffffffffffffffffffffffffffffffffff1614610d83576040517f08c379a00000000000000000000000000000000000000000000000000000000081526004018080602001828103825260208152602001807f4f776e61626c653a2063616c6c6572206973206e6f7420746865206f776e657281525060200191505060405180910390fd5b60005b82829050811015610db957610dac838383818110610da057fe5b90506020020135610a71565b8080600101915050610d86565b505050565b3373ffffffffffffffffffffffffffffffffffffffff16600060029054906101000a900473ffffffffffffffffffffffffffffffffffffffff1673ffffffffffffffffffffffffffffffffffffffff1614610e81576040517f08c379a00000000000000000000000000000000000000000000000000000000081526004018080602001828103825260208152602001807f4f776e61626c653a2063616c6c6572206973206e6f7420746865206f776e657281525060200191505060405180910390fd5b60005b82829050811015610eb757610eaa838383818110610e9e57fe5b90506020020135610bd1565b8080600101915050610e84565b505050565b600060019054906101000a900460ff1680610edb5750610eda611505565b5b80610ef1575060008054906101000a900460ff16155b610f46576040517f08c379a000000000000000000000000000000000000000000000000000000000815260040180806020018281038252602e81526020018061151d602e913960400191505060405180910390fd5b60008060019054906101000a900460ff161590508015610f96576001600060016101000a81548160ff02191690831515021790555060016000806101000a81548160ff0219169083151502179055505b600033905080600060026101000a81548173ffffffffffffffffffffffffffffffffffffffff021916908373ffffffffffffffffffffffffffffffffffffffff160217905550508015610ffe5760008060016101000a81548160ff0219169083151502179055505b50565b600060029054906101000a900473ffffffffffffffffffffffffffffffffffffffff1681565b6004818154811061103757600080fd5b906000526020600020016000915054906101000a900473ffffffffffffffffffffffffffffffffffffffff1681565b3373ffffffffffffffffffffffffffffffffffffffff16600060029054906101000a900473ffffffffffffffffffffffffffffffffffffffff1673ffffffffffffffffffffffffffffffffffffffff1614611129576040517f08c379a00000000000000000000000000000000000000000000000000000000081526004018080602001828103825260208152602001807f4f776e61626c653a2063616c6c6572206973206e6f7420746865206f776e657281525060200191505060405180910390fd5b60008190508073ffffffffffffffffffffffffffffffffffffffff1663095ea7b3600060029054906101000a900473ffffffffffffffffffffffffffffffffffffffff167fffffffffffffffffffffffffffffffffffffffffffffffffffffffffffffffff6040518363ffffffff1660e01b8152600401808373ffffffffffffffffffffffffffffffffffffffff16815260200182815260200192505050602060405180830381600087803b1580156111e157600080fd5b505af11580156111f5573d6000803e3d6000fd5b505050506040513d602081101561120b57600080fd5b8101908080519060200190929190505050505050565b60003373ffffffffffffffffffffffffffffffffffffffff16600060029054906101000a900473ffffffffffffffffffffffffffffffffffffffff1673ffffffffffffffffffffffffffffffffffffffff16146112e6576040517f08c379a00000000000000000000000000000000000000000000000000000000081526004018080602001828103825260208152602001807f4f776e61626c653a2063616c6c6572206973206e6f7420746865206f776e657281525060200191505060405180910390fd5b81600160008573ffffffffffffffffffffffffffffffffffffffff1673ffffffffffffffffffffffffffffffffffffffff168152602001908152602001600020819055905092915050565b60016020528060005260406000206000915090505481565b60026020528060005260406000206000915090508054600181600116156101000203166002900480601f0160208091040260200160405190810160405280929190818152602001828054600181600116156101000203166002900480156113f15780601f106113c6576101008083540402835291602001916113f1565b820191906000526020600020905b8154815290600101906020018083116113d457829003601f168201915b505050505081565b3373ffffffffffffffffffffffffffffffffffffffff16600060029054906101000a900473ffffffffffffffffffffffffffffffffffffffff1673ffffffffffffffffffffffffffffffffffffffff16146114bc576040517f08c379a00000000000000000000000000000000000000000000000000000000081526004018080602001828103825260208152602001807f4f776e61626c653a2063616c6c6572206973206e6f7420746865206f776e657281525060200191505060405180910390fd5b3373ffffffffffffffffffffffffffffffffffffffff166108fc479081150290604051600060405180830381858888f19350505050158015611502573d6000803e3d6000fd5b50565b6000803090506000813b905060008114925050509056fe496e697469616c697a61626c653a20636f6e747261637420697320616c726561647920696e697469616c697a6564a2646970667358221220047646e63604a29b2584ab0435ebf557346cc76b0c541872a16f0d698790e8fb64736f6c63430007040033",
  "immutableReferences": {},
  "source": "// SPDX-License-Identifier: MIT\r\npragma solidity ^0.7.0;\r\n\r\n  /**\r\n   * @title UserVault\r\n   * @notice A personal asset vault for each user\r\n   * @notice part of the StakeYourName DApp\r\n   * @author Daniel Chilvers\r\n   **/\r\n\r\nimport \"@openzeppelin/contracts/proxy/Initializable.sol\";\r\nimport \"@openzeppelin/contracts/token/ERC20/IERC20.sol\";\r\n\r\ncontract UserVault is Initializable{\r\n\r\n    address public owner;\r\n    mapping (address => uint256) public balance;\r\n    mapping (uint256 => string) public readableName;\r\n    uint256[] public names;\r\n    address[] public assets;\r\n    \r\n    modifier onlyOwner() {\r\n        require(owner == msg.sender, \"Ownable: caller is not the owner\");\r\n        _;\r\n    }\r\n\r\n    receive() external payable {}\r\n\r\n    function collectETH() external onlyOwner{\r\n        msg.sender.transfer(address(this).balance);\r\n    }\r\n\r\n    function initialize() public initializer{\r\n        address msgSender = msg.sender;\r\n        owner = msgSender;\r\n    }\r\n\r\n    function approve(address _asset) external onlyOwner{\r\n        IERC20 erc20 = IERC20(_asset);\r\n        erc20.approve(owner, type(uint256).max);\r\n    }\r\n\r\n    function setBalance(address _asset, uint256 _balance) external onlyOwner returns(uint256){\r\n         return balance[_asset] = _balance;\r\n    }\r\n\r\n    function addName(uint256 _name) public onlyOwner {\r\n        names.push(_name);\r\n    }\r\n\r\n    function addMultipleNames(uint256[] calldata _names) external onlyOwner {\r\n        for (uint256 i; i < _names.length; i++){\r\n            addName(_names[i]);\r\n        }\r\n    }\r\n\r\n    function removeName(uint256 _name) public onlyOwner {\r\n        for (uint256 i; i < names.length; i++){\r\n            if (names[i] == _name){\r\n                names[i] = names[names.length-1];\r\n                names.pop();\r\n            }\r\n        }\r\n    }\r\n\r\n    function removeMultipleNames(uint256[] calldata _names) external onlyOwner {\r\n        for (uint256 i; i < _names.length; i++){\r\n            removeName(_names[i]);\r\n        }\r\n    }\r\n\r\n    function addAsset(address _asset) external onlyOwner{\r\n        bool _found = false;\r\n        for(uint256 i; i < assets.length; i++){\r\n            if(assets[i] == _asset){\r\n                _found = true;\r\n            }\r\n        }\r\n        if(_found == false){\r\n            assets.push(_asset);\r\n        }\r\n    }\r\n\r\n    function removeAsset(address _asset) external onlyOwner{\r\n    if(balance[_asset] == 0){\r\n        for(uint256 i; i < assets.length; i++){\r\n                if(assets[i] == _asset){\r\n                    assets[i] = assets[assets.length-1];\r\n                    assets.pop();\r\n                }\r\n            }  \r\n        }\r\n    }\r\n}",
  "sourcePath": "C:/Users/anyth/Documents/GitHub/StakeYourName/contracts/UserVault.sol",
  "compiler": {
    "name": "solc",
    "version": "0.7.4+commit.3f05b770.Emscripten.clang"
  },
  "schemaVersion": "3.3.3",
  "updatedAt": "2021-01-30T14:15:55.485Z",
  "devdoc": {
    "kind": "dev",
    "methods": {},
    "version": 1
  },
  "userdoc": {
    "kind": "user",
    "methods": {},
    "version": 1
  }
}