{
  "contractName": "UserVault",
  "abi": [
    {
      "inputs": [],
      "name": "initialize",
      "outputs": [],
      "stateMutability": "nonpayable",
      "type": "function"
    },
    {
      "inputs": [
        {
          "internalType": "uint256",
          "name": "_input",
          "type": "uint256"
        }
      ],
      "name": "doSomething",
      "outputs": [
        {
          "internalType": "uint256",
          "name": "",
          "type": "uint256"
        }
      ],
      "stateMutability": "nonpayable",
      "type": "function"
    },
    {
      "inputs": [],
      "name": "result",
      "outputs": [
        {
          "internalType": "uint256",
          "name": "",
          "type": "uint256"
        }
      ],
      "stateMutability": "view",
      "type": "function",
      "constant": true
    }
  ],
  "bytecode": "0x608060405234801561001057600080fd5b50610359806100206000396000f3fe608060405234801561001057600080fd5b50600436106100415760003560e01c806365372147146100465780638129fc1c14610064578063a6b206bf1461006e575b600080fd5b61004e6100b0565b6040518082815260200191505060405180910390f35b61006c6100ba565b005b61009a6004803603602081101561008457600080fd5b81019080803590602001909291905050506101ff565b6040518082815260200191505060405180910390f35b6000600154905090565b600060019054906101000a900460ff16806100d957506100d86102de565b5b806100ef575060008054906101000a900460ff16155b610144576040517f08c379a000000000000000000000000000000000000000000000000000000000815260040180806020018281038252602e8152602001806102f6602e913960400191505060405180910390fd5b60008060019054906101000a900460ff161590508015610194576001600060016101000a81548160ff02191690831515021790555060016000806101000a81548160ff0219169083151502179055505b600033905080600060026101000a81548173ffffffffffffffffffffffffffffffffffffffff021916908373ffffffffffffffffffffffffffffffffffffffff1602179055505080156101fc5760008060016101000a81548160ff0219169083151502179055505b50565b60003373ffffffffffffffffffffffffffffffffffffffff16600060029054906101000a900473ffffffffffffffffffffffffffffffffffffffff1673ffffffffffffffffffffffffffffffffffffffff16146102c4576040517f08c379a00000000000000000000000000000000000000000000000000000000081526004018080602001828103825260208152602001807f4f776e61626c653a2063616c6c6572206973206e6f7420746865206f776e657281525060200191505060405180910390fd5b816001600082825401925050819055506001549050919050565b6000803090506000813b905060008114925050509056fe496e697469616c697a61626c653a20636f6e747261637420697320616c726561647920696e697469616c697a6564a264697066735822122000b00fab84ba84b29d2e0d888938632815ed34de9196890af9ffcf14702db5c464736f6c63430007040033",
  "immutableReferences": {},
  "source": "// SPDX-License-Identifier: MIT\r\npragma solidity ^0.7.0;\r\n\r\n  /**\r\n   * @title UserVault\r\n   * @notice a personal asset vault for each user\r\n   * @notice part of the StakeYourName DApp\r\n   * @author Daniel Chilvers\r\n   **/\r\n\r\nimport \"@openzeppelin/contracts/proxy/Initializable.sol\";\r\n\r\ncontract UserVault is Initializable{\r\n\r\n    address private _owner;\r\n    \r\n    modifier onlyOwner() {\r\n        require(_owner == msg.sender, \"Ownable: caller is not the owner\");\r\n        _;\r\n    }\r\n\r\n    uint256 total;\r\n\r\n    function initialize() public initializer{\r\n        address msgSender = msg.sender;\r\n        _owner = msgSender;\r\n    }\r\n\r\n    function doSomething(uint256 _input) public onlyOwner returns(uint256){\r\n        total += _input;\r\n        return(total);\r\n    }\r\n\r\n    function result() public view returns(uint256){\r\n        return(total);\r\n    }\r\n\r\n}",
  "sourcePath": "C:/Users/anyth/Documents/GitHub/StakeYourName/contracts/UserVault.sol",
  "compiler": {
    "name": "solc",
    "version": "0.7.4+commit.3f05b770.Emscripten.clang"
  },
  "schemaVersion": "3.3.3",
  "updatedAt": "2021-01-26T12:38:02.417Z",
  "networkType": "ethereum",
  "devdoc": {
    "kind": "dev",
    "methods": {},
    "version": 1
  },
  "userdoc": {
    "kind": "user",
    "methods": {},
    "version": 1
  }
}